:100000000C9476010C949E010C949E010C949E011C
:100010000C949E010C949E010C949E010C949E01E4
:100020000C949E010C949E010C94D8070C944708E4
:100030000C949E010C949E010C949E010C949E01C4
:100040000C949E010C949E010C949E010C949E01B4
:100050000C949E010C949E010C949E010C948E07AE
:100060000C949E010C949F0A0C94790A0C949E01A6
:100070000C949E010C949E010C949E010C949E0184
:100080000C949E010C949E010C949E010C949E0174
:100090000C94D10A0C949E010C949E010C949E0128
:1000A0000C949E010C949E010C949E01080B00027E
:1000B0000202000009040000010202000005240001
:1000C0001001052401010104240206052406000193
:1000D0000705810310004009040100020A00000026
:1000E00007050202400000070583024000000403E8
:1000F000090412010002EF02014041233680000191
:100100000102030141726475696E6F204C4C43001B
:1001100041726475696E6F204C656F6E6172646FB9
:1001200000526573746F72656420666163746F72E8
:10013000792064656661756C74732E004E6F77204C
:1001400077726974696E67207769746820436F6D90
:1001500070696C656420466163746F7279204465D0
:100160006661756C74732E004E6F772077726974B8
:10017000696E67207769746820436F6D70696C657C
:100180006420466163746F72792044656661756CA2
:1001900074732E00454550524F4D20577269747448
:1001A000656E207769746820616C6C20464621007A
:1001B000454550524F4D205772697474656E2077D3
:1001C00069746820616C6C2046462100577269741E
:1001D000696E6720454550524F4D2E2E2E005772A6
:1001E0006974696E6720454550524F4D2E2E2E0082
:1001F00053697A65206F6620454550524F4D3A202D
:100200000053697A65206F6620454550524F4D3A3C
:10021000200046696E6973686564212052656164D7
:100220007920666F7220796F7520746F206C6F6112
:100230006420536D617274557073456D756C617493
:100240006F722E696E6F210046696E69736865640E
:100250002120526561647920666F7220796F752064
:10026000746F206C6F616420536D6172745570738C
:10027000456D756C61746F722E696E6F21000000A0
:100280000000250028002B002E0031000404040487
:10029000040304050202020204030202020206062B
:1002A0000606060604040202020404040802011001
:1002B000408040102040804080080204018040209F
:1002C00010020110801020404020000000020009B0
:1002D0000F0000030401000C0000000000000000FB
:1002E00000000000000000000000EC0B11241FBE05
:1002F000CFEFDAE0DEBFCDBF11E0A0E0B1E0EAEC85
:10030000F1E202C005900D92AA3FB107D9F728E0AB
:10031000AAEFB1E001C01D92A83FB207E1F711E0DA
:10032000C6E7D1E004C02197FE010E94DD10C53769
:10033000D107C9F70E943B0C0C94E3100C94000009
:10034000FC0180918906882311F13FB7F89482E07F
:100350008093E9002091F200822F90E01816190690
:1003600014F481E090E0882339F0289844E6409323
:1003700088064091F1004083222339F02091F20059
:10038000211103C02BE62093E8003FBF08958FEFB3
:100390009FEF08952FB7F89483E08093E900909140
:1003A000E800892F807295FF04C09091F20080E4EC
:1003B000891B2FBF08958091800681110DC082E0B6
:1003C00080937C0684E080937D0610927F061092D5
:1003D0007E0681E0809380068CE796E00895282FC2
:1003E00030E0F901E653FD4F9491F901E555FD4FD9
:1003F000849124573D4FF9012491222309F430C000
:100400009923E9F091509F30D0F4E92FF0E0E55FB7
:10041000FD4F0C94DD1039023D021A023102350203
:100420001F021F021F02400246024A024E025402ED
:100430001F025802909180009F7790938000E22FD6
:10044000F0E0EE0FFF1FE258FD4FA591B4919FB76A
:10045000F894EC91611132C080958E238C939FBFEC
:100460000895909180009F7DE8CF90918000977FC4
:10047000E4CF94B59F7794BDE2CF94B59F7DFBCF39
:10048000909190009F7790939000D9CF9091900099
:100490009F7DF9CF90919000977FF5CF9091C0000C
:1004A0009F779093C000CBCF9091C0009F7DF9CFF4
:1004B0009091C200977F9093C200C1CF8E2BCECF78
:1004C0003FB7F8948091780690917906A0917A06CA
:1004D000B0917B0626B5A89B05C02F3F19F0019669
:1004E000A11DB11D3FBFBA2FA92F982F8827BC018E
:1004F000CD01620F711D811D911D42E0660F771FB6
:10050000881F991F4A95D1F708958F929F92AF92B5
:10051000BF92CF92DF92EF92FF924B015C010E945B
:1005200060026B017C010E9460026C197D098E09DA
:100530009F09683E734081059105A8F321E0821A66
:100540009108A108B10888EEC80E83E0D81EE11C0E
:10055000F11C81149104A104B10429F7FF90EF90DC
:10056000DF90CF90BF90AF909F908F900895409173
:100570006D0250916E0220916B0230916C02421715
:100580005307B4F49091E8009570E1F39091E8007E
:1005900092FD19C08093F10080916D0290916E02DE
:1005A00001968F739927892B19F48EEF8093E800B9
:1005B00080916D0290916E02019690936E028093ED
:1005C0006D0281E0089580E00895EF92FF920F930D
:1005D0001F93CF93DF93F82E192FE62E042F81E07F
:1005E000860F880F0E94B70283E00E94B702CF2DCA
:1005F000D12FEC0EFD2EF11CCE15DF05B9F007FF53
:1006000013C0FE0184910E94B702182F80E00E945F
:10061000B702812321968111EFCFDF91CF911F91F6
:100620000F91FF90EF9008958881EDCF81E0F5CF95
:10063000DF92EF92FF920F931F93CF93DF93D82E09
:100640008A01EB017B01E40EF51ECE15DF0559F0A2
:10065000D7FE12C0FE0184910E94B702219681113B
:10066000F4CF0FEF1FEFC801DF91CF911F910F91D2
:10067000FF90EF90DF9008958881EECF0F931F9346
:10068000CF93DF931F92CDB7DEB782E0898342E438
:1006900050E06CEA70E080E80E9418030E94DB01E1
:1006A000DC0112960D911C910115110589F0D801FC
:1006B000ED91FC910280F381E02DBE016F5F7F4FD1
:1006C000C801099597FD04C0F80100851185ECCF9C
:1006D00089810F90DF91CF911F910F910895615003
:1006E00030F02091F100FC0120830196F8CF28988A
:1006F00084E6809388060895EF92FF920F931F93EC
:10070000CF93DF938C017B01D0E0C0E0F701EC0FC9
:10071000FD1F6491662361F0D801ED91FC91019079
:10072000F081E02DC8010995892B11F02196EECFBB
:10073000CE01DF91CF911F910F91FF90EF9008951F
:10074000AF92BF92CF92DF92EF92FF920F931F93DF
:10075000CF93DF936C017B018B01040F151FEB011D
:100760005E01AE18BF08C017D10759F06991D601D4
:10077000ED91FC910190F081E02DC6010995892B46
:1007800079F7C501DF91CF911F910F91FF90EF9005
:10079000DF90CF90BF90AF900895FC01538D448DB2
:1007A000252F30E0842F90E0821B930B541710F01C
:1007B000CF96089501970895FC01918D828D981729
:1007C00061F0A28DAE0FBF2FB11D5D968C91928D01
:1007D0009F5F9F73928F90E008958FEF9FEF089532
:1007E000FC01918D828D981731F0828DE80FF11DFB
:1007F000858D90E008958FEF9FEF0895FC01918D16
:10080000228D892F90E0805C9F4F821B91098F730E
:10081000992708958FEF97E00E94FE0321E0892B2E
:1008200009F420E0822F089580E090E0892B29F0E0
:100830000E940A0481110C9400000895FC01A48D0B
:10084000A80FB92FB11DA35ABF4F2C91848D90E0F2
:1008500001968F739927848FA689B7892C93A089D5
:10086000B1898C9182748C93938D848D981306C07A
:100870000288F389E02D80818F7D80830895EF9237
:10088000FF920F931F93CF93DF93EC0181E0888F4A
:100890009B8D8C8D981319C0E889F989808185FF1B
:1008A00014C09FB7F894EE89FF896083E889F989BD
:1008B0008081827480839FBF81E090E0DF91CF913F
:1008C0001F910F91FF90EF900895F62E0B8D10E081
:1008D0000F5F1F4F0F731127E02E8C8D8E110CC0F0
:1008E0000FB607FCFACFE889F989808185FFF5CF3B
:1008F000CE010E941E04F1CFEB8DEC0FFD2FF11DF8
:10090000E35AFF4FF0829FB7F8940B8FEA89FB8977
:1009100080818062CFCFCF93DF93EC01888D8823D5
:10092000B9F0AA89BB89E889F9898C9185FD03C052
:10093000808186FD0DC00FB607FCF7CF8C9185FF37
:10094000F2CF808185FFEDCFCE010E941E04E9CF5A
:10095000DF91CF9108958F929F92AF92BF92CF92E5
:10096000DF92EF92FF920F931F93CF93DF936C016F
:100970007B018A0180910B01882309F45CC080917E
:100980008906882309F457C08091710280FF05C051
:100990008091E00082608093E000E801B12C8AEF52
:1009A000A82E93E0892E2AE3922E209711F4BB20E3
:1009B000D9F10E94CA0181110AC0AA94AA20D9F1D2
:1009C00061E070E080E090E00E948502EECF8C173D
:1009D0001D0611F00CF08C2F9FB7F8948092E9005F
:1009E0002091E80025FD02C09FBFDFCF282F30E017
:1009F000C21BD30BF701815020F041914093F100CD
:100A0000FACFE20EF31EBB2021F09092E800B12C49
:100A1000EBCF8091E80085FDE7CF9092E800BB2402
:100A2000B394209709F3F3CF5D9884E68093700226
:100A3000101611063CF081E090E0F601938382836A
:100A400010E000E0C801DF91CF911F910F91FF905E
:100A5000EF90DF90CF90BF90AF909F908F900895D0
:100A6000CF93DF931F92CDB7DEB76983DC01ED91A1
:100A7000FC910280F381E02D41E050E0BE016F5F08
:100A80007F4F09950F90DF91CF91089583E0809378
:100A9000E9008091F200882319F08AE38093E8004E
:100AA00008950E94CA0190E00895CF93DF931F92AA
:100AB000CDB7DEB7FC018485958597FD08C02FEF83
:100AC0003FEF358724870F90DF91CF910895CE01B6
:100AD00001960E94A001019719F4898190E0F3CF5B
:100AE0008FEF9FEFF0CF0F931F93CF93DF931F9262
:100AF000CDB7DEB78C01FC018485958597FF0BC0CF
:100B0000CE0101960E94A001019771F4898190E0C5
:100B1000F80195878487F801848595850F90DF918A
:100B2000CF911F910F9108958FEF9FEFF1CFFC01AF
:100B30008485958597FD0BC09FB7F89482E08093DC
:100B4000E9008091F2009FBF90E0019608959FB761
:100B5000F89482E08093E9008091F2009FBF90E0DA
:100B6000089520912102260F3327331F21323105AA
:100B7000ECF420914502FC0190E080E0243069F023
:100B800082E00895A09121022191AC014F5F5D4F59
:100B9000A40FB52FB11D2C930196861798F3809161
:100BA0002102680F6093210280E0089581E008959A
:100BB00008958FEF9FEF08958FEF9FEF0895809135
:100BC000FA0190E09195819591090895CF93DF9373
:100BD000CB01EA01642F0E94B105CE01DF91CF91D4
:100BE0000895CF93DF931F92CDB7DEB7698361E09D
:100BF000CE0101960E94B10581E090E00F90DF9157
:100C0000CF91089590E080E00895AF92BF92DF9277
:100C1000EF92FF920F931F93CF93DF935C010AE84B
:100C200016E0D0E0C0E0F801D1908F017501EC0E24
:100C3000FD1EC7010E946C10D81621F06D2DC70152
:100C40000E9474102196C537F1E0DF0761F78AE84A
:100C500096E0DF91CF911F910F91FF90EF90DF9081
:100C6000BF90AF900895FB0101900020E9F7319704
:100C7000AF01461B570BDC01ED91FC910280F38123
:100C8000E02D09948F929F92AF92BF92EF92FF92C4
:100C90000F931F93CF93DF93CDB7DEB7A1970FB616
:100CA000F894DEBF0FBECDBF7C01FA01CB0119A2C3
:100CB000223008F42AE08E010F5D1F4F822E912C06
:100CC000B12CA12CBF01A50194010E948210F90151
:100CD000CA016A300CF5605DD8016E938D01232B3B
:100CE000242B252B79F790E080E0109721F0BD01AF
:100CF000C7010E943306A1960FB6F894DEBF0FBE5F
:100D0000CDBFDF91CF911F910F91FF90EF90BF90DA
:100D1000AF909F908F900895695CDECF0F931F93E3
:100D2000CF93DF93EC012AE040E054E060E070E014
:100D30000E9442068C016EE771E0CE010E943306EC
:100D4000800F911FDF91CF911F910F9108958F9286
:100D50009F92AF92BF92CF92DF92EF92FF920F934A
:100D60001F93CF93DF937C01EB016C0182E0C80EEF
:100D7000D11C4701E5E08E0E911C10E000E0F60169
:100D800041916F0150E070E060E02AE0CE010E94E6
:100D900042065C01E881F9810190F081E02D6EE26C
:100DA000CE0109958A0D9B1D080F191FC814D9047F
:100DB00031F7F701458150E070E060E02AE0CE01B4
:100DC0000E944206800F911FDF91CF911F910F91DA
:100DD000FF90EF90DF90CF90BF90AF909F908F905B
:100DE00008950F931F93CF93DF93EC010E94330676
:100DF0008C016EE771E0CE010E943306800F911FD7
:100E0000DF91CF911F910F9108950F931F93CF936F
:100E1000DF93EC010E947C038C016EE771E0CE0150
:100E20000E943306800F911FDF91CF911F910F9188
:100E300008951F93CF93DF9385ED8093BC0080913D
:100E4000FD019091FE01A091FF01B0910002079673
:100E5000A11DB11D23E0B695A795979587952A9575
:100E6000D1F72091BC0024FD03C01092450252C06E
:100E70004091FD015091FE016091FF0170910002CF
:100E8000452B462B472B69F30097A105B10541F08F
:100E90002AE22A95F1F700C00197A109B109E1CF33
:100EA0008091FC01C1E0C093FB01882399F1D091AE
:100EB000B8001091BA008091BC008A7B8093BC007E
:100EC00060E082E00E94EF0160E083E00E94EF01B9
:100ED00010924502C09347021092460261E082E000
:100EE0000E94EF0161E083E00E94EF018091B90070
:100EF0008E7F8093B9008091B9008D7F8093B90077
:100F000088E48093B80085E48093BC001093BA0015
:100F1000D093B800DF91CF911F9108951F920F9247
:100F20000FB60F9211242F933F938F939F93AF93FC
:100F3000BF938091740690917506A0917606B0914A
:100F400077063091730623E0230F2D3758F501966D
:100F5000A11DB11D209373068093740690937506AE
:100F6000A0937606B09377068091780690917906E3
:100F7000A0917A06B0917B060196A11DB11D8093C8
:100F8000780690937906A0937A06B0937B06BF917A
:100F9000AF919F918F913F912F910F900FBE0F9026
:100FA0001F90189526E8230F0296A11DB11DD2CFE0
:100FB0001F920F920FB60F9211248F939F938091DF
:100FC000E1009091E100937F9093E10083FF0FC0D7
:100FD0001092E90091E09093EB001092EC0092E304
:100FE0009093ED001092890698E09093F00082FFB4
:100FF00022C093E09093E9009091F200992319F0B8
:101000009AE39093E80090917002992341F09091B7
:101010007002915090937002911101C05D9A90916D
:101020008806992341F09091880691509093880604
:10103000911101C0289A84FF18C08091E2008E7E31
:1010400081608093E2008091E1008F7E8093E100D7
:10105000809171028E7E8061809371029F918F9149
:101060000F900FBE0F901F90189580FFF7CF8091C3
:10107000E2008E7E80618093E2008091E1008E7EAE
:101080008093E100809171028E7E8160E5CF1F9296
:101090000F920FB60F921124CF92DF92EF92FF9230
:1010A0000F931F932F933F934F935F936F937F9370
:1010B0008F939F93AF93BF93EF93FF93CF93DF9360
:1010C000CDB7DEB76C97DEBFCDBF1092E90080913F
:1010D000E80083FF25C068E0CE0145960E946F03BB
:1010E00082EF8093E8008D8987FF39C09091E800F6
:1010F00090FFFCCF982F907609F034C19E894F89DC
:10110000588D2F89F88C911131C0803861F580910C
:1011100072028093F1001092F1008EEF8093E8004C
:101120006C960FB6F894DEBF0FBECDBFDF91CF91A6
:10113000FF91EF91BF91AF919F918F917F916F91AF
:101140005F914F913F912F911F910F91FF90EF90E1
:10115000DF90CF900F900FBE0F901F9018959EEFCD
:101160009093E800C7CF1092F100D5CF913059F499
:101170008111D3CF4130510581F6809172028D7F6C
:1011800080937202CACF933049F48111C6CF4130A7
:10119000510519F6809172028260F2CF953041F4C8
:1011A0008091E80080FFFCCF20682093E300B5CF5A
:1011B000963009F0A9C00B8D1C8D22E01092E90039
:1011C00010926E0210926D02F2122EC010926C02FA
:1011D00010926B020E943E031F8299E09983FA826B
:1011E00091E09E8390EA98879AEF998720916D020B
:1011F00030916E02275F3F4F3C832B838D8310928B
:10120000E90010926E0210926D0210936C0200932E
:101210006B0249E050E0BE016F5F7F4F80E00E94AB
:1012200018030E943E0379CF10936C0200936B0267
:101230000E94DB01DC0112960D911C910115110534
:1012400009F451C1D801ED91FC910480F581E02DA4
:10125000BE016B5E7F4FC8010995009709F03EC142
:10126000F80100851185EACFF3E0FF120EC08F89E7
:10127000882309F440C0823061F440E860E180E1F5
:1012800091E00E94E502811148CF81E28093EB005A
:1012900047CF813029F440E86BE084E091E0F1CF62
:1012A000833099F70E94DB01DC011296ED90FC90EF
:1012B0008E010F5F1F4F6801E114F10479F0D7012F
:1012C000ED91FC910680F781E02DB801C7010995E9
:1012D000080F111DF701E084F184EECFD8011C92B4
:1012E000F60101900020E9F73197BF016C197D09E3
:1012F00040E0C601C6CF6EEE70E0FB01449150E0C5
:1013000080E80E94180309CF973009F4BECF9830C7
:1013100021F481E08093F10000CF993009F0FDCEF7
:10132000837009F0B2CFEDE0F1E081E031E096E3C7
:101330002191222371F08093E9003093EB00DF01CB
:1013400011972C912093EC009093ED008F5F8730E4
:1013500079F78EE78093EA001092EA008F898093F4
:101360008906DBCE8B8D9C8D1092E90010926E0267
:1013700010926D0290936C0280936B02898D8111A3
:1013800092C08E899D89913A49F4813209F07DCFCE
:1013900047E050E064E071E080E0B3CF913209F0C3
:1013A00074CF833269F48F89988DB0E0A0E0809388
:1013B000000190930101A0930201B0930301ADCE0F
:1013C000803269F48091E80082FFFCCF67E084E01E
:1013D00091E00E946F038BEF8093E8009ECE8232F3
:1013E00009F09BCE8F8980930B01EEEFFFE785918B
:1013F00094918B3F9C4D51F1E0E0F8E08091040125
:1014000090910501A0910601B0910701803B9440A5
:10141000A105B105F1F480910B0180FD1AC0EE3FEA
:101420008AE0F80789F587E797E7918380838091C1
:10143000600080936F0288E19BE00FB6F894A89556
:10144000809360000FBE9093600067CEEEEFFAE0ED
:10145000D5CF808191818737974709F05ECEA895D7
:101460008091600088618093600080916F0280931A
:101470006000EE3F2AE0F20789F08091FE0A909129
:10148000FF0A9183808349CE8081918187379807B5
:1014900051F29093FF0A8093FE0AC5CF1092FF0A83
:1014A0001092FE0A3ACE0E94DB01DC0112960D91E9
:1014B0001C910115110509F4E8CED801ED91FC91BC
:1014C0000190F081E02DBE016B5E7F4FC801099550
:1014D000811123CEF80100851185EBCF181619066E
:1014E0000CF41BCED2CEF1E0FF12BECE62EF70E064
:1014F00004CF1F920F920FB60F9211242F933F9398
:101500004F935F936F937F938F939F93AF93BF930B
:10151000EF93FF938FEF97E00E941E04FF91EF91EE
:10152000BF91AF919F918F917F916F915F914F91FB
:101530003F912F910F900FBE0F901F9018951F9203
:101540000F920FB60F9211242F938F939F93EF93C7
:10155000FF93E0910F08F09110088081E091150849
:10156000F091160882FD1BC09081809118088F5F52
:101570008F7320911908821741F0E0911808F0E06C
:10158000E150F84F958F80931808FF91EF919F914C
:101590008F912F910F900FBE0F901F901895808103
:1015A000F4CF1F920F920FB60F9211242F933F93F7
:1015B0004F935F936F937F938F939F93AF93BF935B
:1015C000EF93FF938091B900887F803609F44AC079
:1015D000F0F5883209F4A5C018F5803109F499C0F6
:1015E000B8F4882309F4F5C0883009F492C0FF915B
:1015F000EF91BF91AF919F918F917F916F915F918B
:101600004F913F912F910F900FBE0F901F90189503
:10161000883109F486C0803251F78093440214C0A7
:10162000803409F49BC040F48033B9F38833F9F671
:101630008093440285ECAEC0803509F483C08835C0
:1016400009F494C0883499F60E941907D0CF8839DC
:1016500009F48AC038F5883729F050F4883611F03B
:10166000803729F683E0809345021092430255C0EB
:10167000883809F479C0803919F0803809F0B7CF7B
:1016800080914302803208F06FC0E091430281E014
:101690008E0F809343028091BB00F0E0ED5DFD4F23
:1016A00080833BC0803B39F0D0F4803A09F477C0A6
:1016B000883A09F09CCF84E0809345021092220280
:1016C00010922102F0E0E0E0099580912102811161
:1016D0000FC081E0809321021092010209C0803C7A
:1016E00009F4A8CF883C09F4A5CF883B09F07FCF47
:1016F000E091220281E08E0F80932202F0E0EF5F02
:10170000FD4F80818093BB00909122028091210245
:1017100029C080916A028093BB0085EC8093BC0055
:1017200066CF9091690280916802981758F5E09110
:10173000690281E08E0F80936902F0E0E85BFD4F63
:101740008081E9CFE091690281E08E0F8093690288
:101750008091BB00F0E0E85BFD4F808390916902CF
:10176000809168029817C8F285E8D8CFE0916902A5
:1017700081E08E0F809369028091BB00F0E0E85B0E
:10178000FD4F80838091470281115ECF81E080937D
:10179000460284EA8093BC001092450228CF85EC73
:1017A0008093BC001092450280914302803230F455
:1017B000E0914302F0E0ED5DFD4F10826091430245
:1017C00070E083E292E0F0E0E0E0099510924302DD
:1017D0000ECF1092440238CFEFEFF7E0138212825F
:1017E00088EE93E0A0E0B0E084839583A683B7837E
:1017F00028E531E0318320832DEC30E035872487E4
:101800002CEC30E03787268728EC30E0318B208BBA
:1018100029EC30E0338B228B2AEC30E0358B248BA3
:101820002EEC30E0378B268B118E128E138E148E99
:10183000ECE9F8E01382128284839583A683B78350
:101840008AE691E0918380838FEF9FEF958784876D
:10185000ECEEF8E08CE791E09183808312821382B2
:1018600014821582E2EFF8E0918380831282138262
:10187000148215820895789484B5826084BD84B5FD
:10188000816084BD85B5826085BD85B5816085BD7B
:1018900080916E00816080936E0010928100809133
:1018A00081008260809381008091810081608093BB
:1018B0008100809180008160809380008091910000
:1018C000826080939100809191008160809391006B
:1018D000809190008160809390008091C10084602D
:1018E0008093C1008091C10082608093C10080918B
:1018F000C10081608093C1008091C30081608093AA
:10190000C3008091C00082608093C0008091C200BB
:1019100081608093C20080917A00846080937A0015
:1019200080917A00826080937A0080917A00816051
:1019300080937A0080917A00806880937A00109278
:10194000890610927202109271028091D700816014
:101950008093D70080EA8093D80089B5806189BDE3
:1019600089B5826089BD09B400FEFDCF61E070E0F9
:1019700080E090E00E9485028091D8008F7C806199
:101980008093D8008091E000807F8093E000809178
:10199000E1008E7E8093E1008DE08093E200559A15
:1019A000209AE0910F08F091100882E08083E09186
:1019B0000B08F0910C081082E0910D08F0910E08D0
:1019C00080E1808310921708E0911308F0911408C9
:1019D00086E08083E0911108F09112088081806197
:1019E0008083E0911108F0911208808188608083E3
:1019F000E0911108F0911208808180688083E09165
:101A00001108F091120880818F7D80838FEF9FEF06
:101A10009093A9088093A80860ED77E080E090E0BB
:101A20000E94850261E871E08CE998E00E94F1066D
:101A30006BEA71E08CE998E00E94F1066AED71E0D2
:101A40008CE998E00E94F10661E871E08FEF97E081
:101A50000E94F1066BEA71E08FEF97E00E94F106B9
:101A60006AED71E08FEF97E00E94F10661E072E0AD
:101A70008FEF97E00E947C038FEF97E00E948E0625
:101A800060EF71E08CE998E00E947C038CE998E0BB
:101A90000E948E0668EE73E080E090E00E9485026E
:101AA00003E712E083E796E0F8012FEF21938E170A
:101AB0009F07E1F76EED71E08CE998E00E94050761
:101AC0006CEC71E08FEF97E00E940507D0E0C0E07A
:101AD000F801F1908F01CE010E946C10F81621F0F0
:101AE0006F2DCE010E9474102196C115F4E0DF071E
:101AF00079F760EB71E08CE998E00E94050764E9F2
:101B000071E08FEF97E00E94050768E671E08CE9CD
:101B100098E00E9405076CE371E08FEF97E00E9468
:101B200005071092FC078AEA80938A0685E5809370
:101B30008B0681E095EA9093FE078093FD07C0E253
:101B4000DCE1D0938D06C0938C068CE291E09093FB
:101B50009106809390062AE030E03093930620931C
:101B6000920683E090E0909395068093940681E03E
:101B70008093960682E08093970688E095E09093A4
:101B8000D6068093D50662EE74E07093D806609313
:101B9000D70644E754E05093DA064093D906909371
:101BA000DC068093DB0642E954E05093DE06409366
:101BB000DD06D093E006C093DF061092E506EAE862
:101BC000F4E0F093A606E093A5061092A806109202
:101BD000A7065093AA064093A9063093AC0620931B
:101BE000AB064EEF54E05093AE064093AD064AE587
:101BF00050E05093B0064093AF069093B2068093A6
:101C0000B10684E690E09093B4068093B306ECEBC3
:101C1000F4E0F093B606E093B5061092B806109281
:101C2000B706E4ECF4E0F093BA06E093B90630931B
:101C3000BC062093BB06E0E3F5E0F093BE06E0931C
:101C4000BD065093C0064093BF06EAE3F5E0F0936B
:101C5000C206E093C1069093C4068093C306EEEEDD
:101C6000F4E0F093C606E093C5061092C806109201
:101C7000C706E6EFF4E0F093CA06E093C906309396
:101C8000CC062093CB06E2E6F5E0F093CE06E09397
:101C9000CD065093D0064093CF064CE655E05093C6
:101CA000D2064093D1069093D4068093D3064FE09A
:101CB000E42EF12CF092E206E092E10608E710E053
:101CC0001093E4060093E30641E4E3E1F1E0A8E6C3
:101CD000B7E001900D924A95E1F7A0E5B5E0B09329
:101CE0001707A0931607709319076093180758ED0C
:101CF000C52E54E0D52ED0921B07C0921A07E5E5F9
:101D0000AE2EE5E0BE2EB0921D07A0921C07E0EBC0
:101D1000F4E0F0931F07E0931E07D0932107C093D0
:101D200020071092260748EE842E43E0942E9092CE
:101D3000E7068092E6061092E9061092E806F09314
:101D4000EB06E093EA063093ED062093EC0640E0C4
:101D500055E05093EF064093EE0644E150E0509377
:101D6000F1064093F006B093F306A093F206909329
:101D7000F5068093F4060F2EFAE16F2EF4E07F2E25
:101D8000F02D7092F7066092F6061092F906109206
:101D9000F8067093FB066093FA063093FD062093D5
:101DA000FC060F2EF2E34F2EF5E05F2EF02D509241
:101DB000FF064092FE0650930107409300070F2E46
:101DC000F2E84F2EF5E05F2EF02D5092030740927F
:101DD000020790930507809304070F2EFCE44F2E13
:101DE000F4E05F2EF02D5092070740920607109204
:101DF0000907109208070F2EF4E12F2EF5E03F2E71
:101E0000F02D30920B0720920A0730930D07209394
:101E10000C0724E635E030930F0720930E0750930C
:101E200011074093100724EB35E0309313072093FC
:101E300012079093150780931407F0922307E092FE
:101E400022071093250700932407B0935807A09307
:101E5000570770935A0760935907D0925C07C09256
:101E60005B07B0925E07A0925D07F0936007E09376
:101E70005F07D0936207C093610710926707909243
:101E800028078092270710922A0710922907F093BB
:101E90002C07E0932B0729E030E030932E072093A6
:101EA0002D07EAE0F5E0F0933007E0932F07509319
:101EB000320740933107E6E4F5E0F0933407E0930E
:101EC00033079093360780933507709238076092F6
:101ED000370710923A071092390770933C076093C6
:101EE0003B0730933E0720933D076CE375E070930A
:101EF000400760933F07509342074093410768E7CC
:101F000075E070934407609343079093460780936E
:101F10004507509248074092470710924A0710928F
:101F2000490730924C0720924B0730934E0720937D
:101F30004D072EE635E03093500720934F0750931E
:101F40005207409351072AEA35E030935407209313
:101F500053079093560780935507F0926407E092D9
:101F60006307109366070093650781E4E8E6F7E0EE
:101F7000A9EAB7E001900D928A95E1F71092A006C8
:101F800010929F0610929E0610929D067093A406D2
:101F90006093A3068FEF93E09093A2068093A1062F
:101FA0008CE390E09093FB078093FA0780E19EE03A
:101FB00090938F0680938E06C8E6D7E00AE816E075
:101FC00089E6482E512C612C712C88809980B12C87
:101FD000A12C7E0182E8E80EF11C2889398950E0A5
:101FE00040E0281939094A095B09ADE2B0E00E94D6
:101FF000C310A30192010E94A410820E931EA41E7E
:10200000B51EF70191828082CA80DB80F12CE12C21
:102010005E01F4E8AF0EB11C2A893B8950E040E034
:102020002C193D094E095F09ADE2B0E00E94C310D2
:10203000A30192010E94A410C20ED31EE41EF51E3D
:10204000F501D182C0822496F7E0C837DF0709F096
:10205000BCCF8AE08093980685E080939A06109220
:102060009B0681E080939C0661E271E08FEF97E030
:102070000E94050780E991E00E94050690E080E05B
:102080000E940506C0E9D1E0CE010E946C10F80163
:1020900081938F012196C530F3E0DF07A9F7C0E0F7
:1020A000D0E068E472E08CE998E00E94050762E104
:1020B00072E08FEF97E00E94050760ED77E080E027
:1020C00090E00E948502209761F30E940A04882311
:1020D00041F30E940000E5CFF999FECF92BD81BD8A
:1020E000F89A992780B50895262FF999FECF1FBA3F
:1020F00092BD81BD20BD0FB6F894FA9AF99A0FBE31
:1021000001960895A1E21A2EAA1BBB1BFD010DC06A
:10211000AA1FBB1FEE1FFF1FA217B307E407F50797
:1021200020F0A21BB30BE40BF50B661F771F881F73
:10213000991F1A9469F760957095809590959B0109
:10214000AC01BD01CF010895052E97FB1EF400944C
:102150000E94BB1057FD07D00E94821007FC03D0DD
:102160004EF40C94BB1050954095309521953F4FFF
:102170004F4F5F4F089590958095709561957F4F73
:102180008F4F9F4F08950E94CE10A59F900DB49F32
:10219000900DA49F800D911D11240895A29FB00160
:1021A000B39FC001A39F700D811D1124911DB29F8B
:1021B000700D811D1124911D0895EE0FFF1F0590D4
:0A21C000F491E02D0994F894FFCF8C
:1021CA00FFFFFFFF00E100000000000000C1808166
:1021DA000000001A0400007F040A00FB045A0002EF
:1021EA000564004C040000B1040A002D055A0034AD
:1021FA000564007E040000E3040A005F055A0066D5
:10220A000564006405E204D80400057E04201C0F5E
:10221A0000780000000000003F04A003CD038B04F7
:10222A00FE03DC03F003000000003005AB04510597
:10223A00460597055505730500000000A7060D0A17
:10224A0000546869732077696C6C2066696C6C202D
:10225A0074686520454550524F4D2077697468204F
:10226A00464627732C207468656E00696E69746926
:10227A00616C697A6520697420776974682066617F
:10228A0063746F72792064656661756C7420736516
:10229A007474696E67732E0A0D0046696C6C696EF8
:1022AA00672074686520454550524F4D2077697400
:0A22BA006820464627732E2E2E00E2
:00000001FF
