:100000000C940C050C9434050C9434050C943405B4
:100010000C9434050C9434050C9434050C9434057C
:100020000C9434050C9434050C943B110C94AA11D7
:100030000C9434050C9434050C9434050C9434055C
:100040000C9434050C9434050C9434050C9434054C
:100050000C9434050C9434050C9434050C94F11074
:100060000C9434050C946D130C9447130C943405C4
:100070000C9434050C9434050C9434050C9434051C
:100080000C9434050C9434050C9434050C9434050C
:100090000C949F130C9434050C9434050C94340583
:1000A0000C9434050C9434050C9434055265737427
:1000B0006F72656420666163746F7279206465662F
:1000C00061756C74732E00040309041201000200B0
:1000D00000004041233680000101020301417264A7
:1000E00075696E6F204C4C430041726475696E6F88
:1000F000206C656F6E6172646F0000000000240068
:1001000027002A002D0030004D79436F6F6C555049
:1001100053005062416300555053313000455252F4
:100120004F523A204E65656420746F20646F2063DF
:100130006F6E66696775726174696F6E20616E6457
:1001400020777269746520746F20454550524F4D79
:100150002E205573696E672044656661756C7473F3
:100160002E00476F6F643A20454550524F4D20692D
:100170007320696E697469616C697A65642E0043E5
:100180003A5C55736572735C557365725C446F635A
:10019000756D656E74735C4769744875625C736DE8
:1001A0006172742D7570732D656D756C61746F72ED
:1001B0005C536D617274557073456D756C61746FCD
:1001C000725C536D617274557073456D756C6174BA
:1001D0006F722E696E6F00536D61727420555053AB
:1001E00020456D756C61746F722076302E31000D74
:1001F0000A24242D454E4420454550524F4D0D0AAA
:100200000D0A002000300020003000300030000DCA
:100210000A2420000D0A24242D454550524F4D201C
:10022000434F4E54454E54533A00202020313A64F7
:10023000626720004261747465727920566F6C7435
:100240006167652A3130303A200044782020202D23
:1002500020446562756720666C61677320202020EA
:10026000202020202020202020203A20307800202C
:100270002028562A31303029002020566F6C7461B6
:100280006765732077696C6C20616C776179732086
:10029000626520656E746572656420696E2068759C
:1002A0006E647265647468732E200020202849668D
:1002B00020796F75206D65617375726564203132C8
:1002C0002E343520766F6C74732C20656E746572D5
:1002D0002043483132343529002020776865726523
:1002E000207676767620697320746865206D656166
:1002F000737572656420766F6C7461676520696ED2
:100300002068756E647265746873206F6620612062
:10031000766F6C742E0020207769746820612067E6
:100320006F6F64206469676974616C20766F6C74A8
:10033000206D657465722E20456E74657220746838
:100340006520636F6D6D616E6420434876767676C6
:100350002E002020486F6F6B20746865206C6561EB
:100360006473206261636B20757020746F20746801
:100370006520626174746572792E204D65617375B4
:1003800072652074686520766F6C74616765002003
:100390002053686F72742074686520746F67657489
:1003A0006865722E20456E746572207468652063DE
:1003B0006F6D6D616E6420434C3020285A65726FFA
:1003C0002C206E6F74204F68292E00202044697302
:1003D000636F6E6E65637420746865206261747407
:1003E00065727920766F6C746167652073656E73D2
:1003F00065206C656164732066726F6D207468653A
:1004000020626174746572792E20200020546F2060
:1004100063616C69627261746520766F6C74616788
:10042000652073656E73696E6720666F72207468ED
:10043000697320626F6172643A00290020202020D5
:100440002020202020284869676820562041324417
:100450002076616C75653A200020562A31303000D4
:1004600043486E6E6E6E202D2043616C696272612E
:100470007465206869676820766F6C7461676520B1
:10048000706F696E742028562A3130302920203A46
:1004900020002900202020202020202020284C6F10
:1004A000772056204132442076616C75653A2000F1
:1004B00020562A31303000434C6E6E6E6E202D2057
:1004C00043616C696272617465206C6F7720766F2E
:1004D0006C7461676520706F696E742028562A31CC
:1004E0003030292020203A200054446E6E6E6E2059
:1004F0002D204176652E2054696D6520666F72202F
:1005000066756C6C20446973636861726765202846
:100510006D696E75746573293A200054436E6E6E72
:100520006E202D20417665726167652054696D6586
:1005300020746F2066756C6C792043686172676502
:1005400020286D696E75746573293A200042456EE6
:100550006E6E6E202D204261747465727920456D37
:1005600070747920766F6C7461676520202020207C
:10057000202020202028562A313030293A200042DD
:10058000466E6E6E6E202D20426174746572792005
:1005900046756C6C2043686172676520766F6C7479
:1005A0006167652020202028562A313030293A20E2
:1005B0000020202020202020202028303D4E6F20A9
:1005C0005043207265706F7274696E672F7368751F
:1005D00074646F776E2E20313D456E61626C656488
:1005E00000454E6E202020202D20454E61626C6516
:1005F000207265706F7274696E672F5368757464CA
:100600006F776E20746F20746F207468652050437C
:100610003A200050726573656E7420536574746976
:100620006E67733A00536D617274205550532045C4
:100630006D756C61746F722076302E3100000A2D5A
:100640002D2D2D4D656E752D2D2D2D00446F6E2792
:100650007420666F7267657420746F202853296157
:10066000766520746865206E65772076616C7565A7
:1006700021002073657420746F3A20004E65772046
:10068000004F6C642076616C7565207761733A2049
:10069000002076616C756521204D6178206973209A
:1006A000312028666F72206120626F6F6C292E0ADC
:1006B000004572726F723A20496E76616C696420EF
:1006C000000A556E6B6E6F776E20636F6D6D616E95
:1006D00064205B0042616420636F6D6D616E642E07
:1006E0002053686F756C64206265204E4C206F72D9
:1006F000204E48000A526573746F7265642046612B
:1007000063746F72792044656661756C74732E2E04
:100710002E0D0A204D75737420646F2027532720F7
:10072000746F207361766520746F20454550524F79
:100730004D20286E6F6E2D766F6C6174696C65202C
:100740006D656D6F7279292E000A5361766564209C
:100750006E65772076616C756528732920746F202B
:10076000454550524F4D2E0A005D005B00000000D1
:10077000002300260029002C002F00000000002587
:100780000028002B002E003100040404040403049C
:10079000050202020204030202020206060606061F
:1007A000060404020202040404080201104080400E
:1007B0001020408040800802040180402010020187
:1007C000108010204040200000000200090F0000AF
:1007D000030401000C000000000000000000000005
:1007E000000000000000070605040100080A0B0CC9
:1007F0000D09446F6E277420666F726765742074EC
:100800006F2028532961766520746865206E6577AE
:100810002076616C75652100307800207365742046
:10082000746F3A20004E657720003078004F6C647A
:100830002076616C7565207761733A20002E0A007E
:10084000222076616C756521204D696E20697320C8
:10085000004572726F723A20496E76616C6964204D
:1008600022002E0A002076616C756521204D61788A
:1008700020697320004572726F723A20496E76616A
:100880006C6964200005840904A1010924A1027592
:10089000089501150026FF00850109FE7902B123A4
:1008A000850209FF7903B123850309FD7901B1238D
:1008B00005858506098BB123851F09897904B12334
:1008C0008520098F7905B1238516092CB123851060
:1008D000098D266400B1228518098EB123850E0981
:1008E00067B18385170983B183850C096681A309E4
:1008F00066B1A3850F098CB1A285110929B1A28522
:10090000090985751027FFFF0000B1A3851A096A40
:1009100027FFFF00006601105500B1A3851C09697F
:1009200081A30969B1A3850D096881A30968B1A3F1
:100930008508092A751027640500001678008122B1
:10094000092AB1A205848512095716008027FF7F66
:100950000000B1A285130955B1A2850A094015000E
:1009600027FFFF00006721D1F0005505B123850B5B
:10097000093081A30930B1A38514095A75081501FE
:100980002503650055008122095AB1A20902A1027E
:1009900085070585094475011500250181A30944D2
:1009A000B1A3094581A30945B1A309D081A309D009
:1009B000B1A309D181A309D1B1A3094281A30942FD
:1009C000B1A3094381A20943B1A2094B81A3094BF9
:1009D000B1A309DB81A309DBB1A3094681A30946C1
:1009E000B1A3094781A30947B1A30584096881A27E
:1009F0000968B1A2096981A30969B1A3097381A337
:100A00000973B1A3096581A30965B1A395028101A9
:100A1000B101C0C0C000BA1411241FBECFEFDAE08C
:100A2000DEBFCDBF13E0A0E0B1E0E8E7F0E502C033
:100A300005900D92AA33B107D9F725E0AAE3B3E0F8
:100A400001C01D92A432B207E1F715E0CCE0D5E079
:100A500004C02197FE010E943A26CB30D107C9F786
:100A60000E946A150C943A280C940000EBEEF7E013
:100A7000E49190917B008E2F880F880F80729F7D6C
:100A8000892B80937B00E770E064E0937C00809189
:100A90007A00806480937A0080917A0086FDFCCF92
:100AA00080917800909179000895FC018081918176
:100AB000FB0120813181821B930B089581508F307F
:100AC00008F047C0E82FF0E0E859FA4F0C943A26B6
:100AD0008505890577057D058105A905A905A90570
:100AE0008C05920596059A05A005A905A405809197
:100AF00080008F77809380000895809180008F7DA3
:100B0000F9CF80918000877FF5CF84B58F7784BD42
:100B1000089584B58F7DFBCF809190008F7780936F
:100B200090000895809190008F7DF9CF8091900082
:100B3000877FF5CF8091C0008F778093C0000895A4
:100B40008091C0008F7DF9CF8091C200877F809314
:100B5000C20008951F93CF93DF93282F30E0F9014F
:100B6000E953F84F8491F901E855F84FD491F90110
:100B7000E757F84FC491CC23A9F0162F81110E949A
:100B80005E05EC2FF0E0EE0FFF1FE558F84FA59142
:100B9000B4918FB7F894EC91111108C0D095DE2371
:100BA000DC938FBFDF91CF911F910895DE2BF8CF9B
:100BB0003FB7F89480913F0490914004A091410484
:100BC000B091420426B5A89B05C02F3F19F00196AD
:100BD000A11DB11D3FBFBA2FA92F982F8827BC0197
:100BE000CD01620F711D811D911D42E0660F771FBF
:100BF000881F991F4A95D1F708958F929F92AF92BF
:100C0000BF92CF92DF92EF92FF924B015C010E9464
:100C1000D8056B017C010E94D8056C197D098E09ED
:100C20009F09683E734081059105A8F321E0821A6F
:100C30009108A108B10888EEC80E83E0D81EE11C17
:100C4000F11C81149104A104B10429F7FF90EF90E5
:100C5000DF90CF90BF90AF909F908F90089540917C
:100C6000E2035091E3032091E0033091E103421746
:100C70005307B4F49091E8009570E1F39091E80087
:100C800092FD19C08093F1008091E2039091E303FB
:100C900001968F739927892B19F48EEF8093E800C2
:100CA0008091E2039091E30301969093E303809394
:100CB000E20381E0089580E00895EF92FF920F93A0
:100CC0001F93CF93DF93F82E192FE62E042F81E088
:100CD000860F880F0E942F0683E00E942F06CF2DDB
:100CE000D12FEC0EFD2EF11CCE15DF05B9F007FF5C
:100CF00013C0FE0184910E942F06182F80E00E94ED
:100D00002F06812321968111EFCFDF91CF911F9183
:100D10000F91FF90EF9008958881EDCF81E0F5CF9E
:100D2000DF92EF92FF920F931F93CF93DF93D82E12
:100D30008A01EB017B01E40EF51ECE15DF0559F0AB
:100D4000D7FE12C0FE0184910E942F0621968111C8
:100D5000F4CF0FEF1FEFC801DF91CF911F910F91DB
:100D6000FF90EF90DF9008958881EECF8F929F9251
:100D7000AF92BF92CF92DF92EF92FF920F931F93A9
:100D8000CF93DF936B018A019091E80391110FC01B
:100D90008FEF9FEFDF91CF911F910F91FF90EF9019
:100DA000DF90CF90BF90AF909F908F9008959091DB
:100DB000E60390FF05C09091E00092609093E00000
:100DC000C02FD12FF12C9AEFB92E982F9770992E12
:100DD00020E4822E8074E82E3AE3A32E209719F4A3
:100DE000FF2009F44EC08FB7F8949092E9009091DB
:100DF000E80095FD0BC08FBFBA94BB2049F261E0BB
:100E000070E080E090E00E94FD05E8CF9091F20054
:100E1000282D291B8FBF222379F32C171D0611F0D3
:100E20000CF02C2F8FB7F8949092E9009091E80085
:100E300095FD02C08FBFD2CF422F50E0C41BD50B0F
:100E4000F601215020F091919093F100FACFC40E59
:100E5000D51EFF2021F0A092E800F12CEBCF90915D
:100E6000E80095FD07C0A092E800FF24F3942097C6
:100E700009F3F3CF2097F1F6EE20E1F2A092E8001B
:100E8000D9CF5D9884E68093E503C80183CF615094
:100E900030F02091F100FC0120830196F8CF2898D2
:100EA00084E68093E4030895EF92FF920F931F93DB
:100EB000CF93DF938C017B01D0E0C0E0F701EC0F12
:100EC000FD1F6491662361F0D801ED91FC910190C2
:100ED000F081E02DC8010995892B11F02196EECF04
:100EE000CE01DF91CF911F910F91FF90EF90089568
:100EF000AF92BF92CF92DF92EF92FF920F931F9328
:100F0000CF93DF936C017B018B01040F151FEB0165
:100F10005E01AE18BF08C017D10759F06991D6011C
:100F2000ED91FC910190F081E02DC6010995892B8E
:100F300079F7C501DF91CF911F910F91FF90EF904D
:100F4000DF90CF90BF90AF9008958091D103811131
:100F50000BC01092CD0381E08093CE031092D0039A
:100F60001092CF038093D1038DEC93E008950F93FB
:100F70001F93CF93DF931F92CDB7DEB719820E94E4
:100F8000A507DC0112960D911C910115110589F040
:100F9000D801ED91FC910280F381E02DBE016F5FDD
:100FA0007F4FC801099597FD04C0F80100851185A0
:100FB000ECCF89810F90DF91CF911F910F91089510
:100FC000FC01538D448D252F30E0842F90E0821B4F
:100FD000930B541710F0CF96089501970895FC01D4
:100FE000918D828D981761F0A28DAE0FBF2FB11D2C
:100FF0005D968C91928D9F5F9F73928F90E0089584
:101000008FEF9FEF0895FC01918D828D981731F03D
:10101000828DE80FF11D858D90E008958FEF9FEF91
:101020000895FC01918D228D892F90E0805C9F4F67
:10103000821B91098F739927089589E794E00E9494
:10104000110821E0892B09F420E0822F089580E027
:1010500090E0892B29F00E941D0881110C9400005A
:101060000895FC01A48DA80FB92FB11DA35ABF4F3D
:101070002C91848D90E001968F739927848FA68997
:10108000B7892C93A089B1898C9182748C93938DAC
:10109000848D981306C00288F389E02D80818F7DAE
:1010A00080830895EF92FF920F931F93CF93DF9366
:1010B000EC0181E0888F9B8D8C8D981319C0E88995
:1010C000F989808185FF14C09FB7F894EE89FF8964
:1010D0006083E889F9898081827480839FBF81E081
:1010E00090E0DF91CF911F910F91FF90EF900895C5
:1010F000F62E0B8D10E00F5F1F4F0F731127E02EA0
:101100008C8D8E110CC00FB607FCFACFE889F989D7
:10111000808185FFF5CFCE010E943108F1CFEB8DA4
:10112000EC0FFD2FF11DE35AFF4FF0829FB7F894AB
:101130000B8FEA89FB8980818062CFCFCF93DF93C9
:10114000EC01888D8823B9F0AA89BB89E889F989DF
:101150008C9185FD03C0808186FD0DC00FB607FC14
:10116000F7CF8C9185FFF2CF808185FFEDCFCE0147
:101170000E943108E9CFDF91CF9108952091830338
:10118000260F3327331F21323105ECF42091A703BA
:10119000FC0190E080E0243069F082E00895A091A5
:1011A00083032191AC014D595C4FA40FB52FB11DA4
:1011B0002C930196861798F380918303680F6093B0
:1011C000830380E0089581E0089508958FEF9FEFF5
:1011D00008958FEF9FEF089580915C0390E09195C3
:1011E000819591090895CF93DF93CB01EA01642F94
:1011F0000E94BE08CE01DF91CF910895CF93DF9377
:101200001F92CDB7DEB7698361E0CE0101960E94DF
:10121000BE0881E090E00F90DF91CF91089590E0BB
:1012200080E00895FC012FB7F89480913B049091E1
:101230003C04A0913D04B0913E042FBF40815181F8
:1012400062817381841B950BA60BB70B448155817A
:1012500066817781481759076A077B0730F48085D4
:10126000882319F0108681E081870895DC01529669
:10127000ED91FC9130E020E03097A1F0DC01549634
:101280004D915C912417350758F4428153814617DC
:10129000570741F00190F081E02D2F5F3F4FECCFD9
:1012A000F0E0E0E0CF010895CF93DF93CDB7DEB754
:1012B000A0970FB6F894DEBF0FBECDBFFC01DB01D7
:1012C0008C918F5F8C939E012D5F3F4F88E0D901F9
:1012D0001D928A95E9F799E0998384E08A8342E038
:1012E0004D8383E08E839A8721E22B8791E09C8750
:1012F0009D872E879F8792E2988B57E05B8B95E0C6
:101300009C8B21E82D8B8E8B20E430E0388F2F8B47
:1013100064E1698F5A8F9B8F4C8F8D8F3F8F2E8FFB
:101320008AE088A382818B8396858785998B8A8BB7
:1013300040E250E0BE016F5F7F4F80E00E94900668
:10134000A0960FB6F894DEBF0FBECDBFDF91CF9150
:101350000895CF93DF938091540381116BC082E095
:1013600080933E0381E080933F0324E433E0309395
:1013700041032093400310924303109242032AE159
:1013800031E030933B0320933A03109247031092CD
:101390004603109249031092480380934A038093B6
:1013A0004B0381EC8093440380EC809345030E94BF
:1013B000A507FC01818190913E03482F490F5527D5
:1013C000551F483051059CF5A281B381109709F54E
:1013D0002AE333E033832283208120933C038093EC
:1013E0003D0380913F03820F808320914003A22F11
:1013F000B09141038A2F821B8917C8F481813D91E6
:10140000C82FD0E0C752DC4F38838F5F8183F2CF83
:10141000D90118962D913C91199721153105C1F7E5
:101420002AE333E019963C932E931897D5CF81E0A9
:10143000809354038AE393E0DF91CF910895CF9294
:10144000DF92EF92FF920F931F93CF93DF9300D021
:10145000CDB7DEB78C017B016A010E94A9091A830E
:10146000098341E050E0BE016F5F7F4F81E00E9441
:10147000B6068C0197FD09C0A601B70181E40E9460
:10148000B606080F191F97FD8C01C8010F900F9029
:10149000DF91CF911F910F91FF90EF90DF90CF9050
:1014A0000895FB0101900020E9F73197AF01461B39
:1014B000570BDC01ED91FC910280F381E02D099442
:1014C0008F929F92AF92BF92EF92FF920F931F93D2
:1014D000CF93DF93CDB7DEB7A1970FB6F894DEBFF9
:1014E0000FBECDBF7C01FA01CB0119A2223008F456
:1014F0002AE08E010F5D1F4F822E912CB12CA12C62
:10150000BF01A50194010E948E24F901CA016A302D
:101510000CF5605DD8016E938D01232B242B252BB8
:1015200079F790E080E0109721F0BD01C7010E949B
:10153000510AA1960FB6F894DEBF0FBECDBFDF9162
:10154000CF911F910F91FF90EF90BF90AF909F9020
:101550008F900895695CDECF242FAB0170E060E0CE
:101560000C94600ACF92DF92EF92FF920F931F9339
:10157000CF93DF93EC016A017B01E881F98101904F
:10158000F081E02D6DE209958C0144275527BA01C1
:101590004C195D096E097F092AE0CE010E94600A9C
:1015A000800F911FDF91CF911F910F91FF90EF90CE
:1015B000DF90CF9008958F929F92AF92BF92CF927B
:1015C000DF92EF92FF920F931F93CF93DF937C01F3
:1015D000EB016C0182E0C80ED11C4701E5E08E0EE4
:1015E000911C10E000E0F60141916F0150E070E0C5
:1015F00060E02AE0CE010E94600A5C01E881F98186
:101600000190F081E02D6EE2CE0109958A0D9B1DBF
:10161000080F191FC814D90431F7F701458150E0AC
:1016200070E060E02AE0CE010E94600A800F911F06
:10163000DF91CF911F910F91FF90EF90DF90CF90AE
:10164000BF90AF909F908F90089561E471E00C94EB
:10165000510A0F931F93CF93DF93EC01AB01770FE8
:10166000660B770B77FF0DC00E94B20A8C01CE018A
:101670000E94250B800F911FDF91CF911F910F9139
:1016800008952AE00E94600AF1CF0F931F93CF9331
:10169000DF93EC010E94AC0A8C01CE010E94250B65
:1016A000800F911FDF91CF911F910F9108950F939C
:1016B0001F93CF93DF93EC010E94510A8C01CE015E
:1016C0000E94250B800F911FDF91CF911F910F91E9
:1016D00008950F931F93CF93DF93EC01FB01448197
:1016E000558160817181E881F9810280F381E02D6B
:1016F00009958C01CE010E94250B800F911FDF916F
:10170000CF911F910F9108950F931F93CF93DF9364
:10171000EC010E9454078C01CE010E94250B800F22
:10172000911FDF91CF911F910F91089581E08093D8
:1017300037048AEA8093140485E58093150481E0D8
:1017400095EA909339048093380480E29CE1909369
:10175000170480931604909319048093180488E565
:1017600092E090931B0480931A0484E695E0909392
:101770001D0480931C048EE794E090931F048093D3
:101780001E04109226041092250410922404109234
:10179000230488E795E090932A048093290484E643
:1017A00090E090932804809327048AE0809320049B
:1017B00085E0809321041092220480910701882300
:1017C00031F06CEA70E089E794E00C94840B0895A2
:1017D0000C94510ABF92CF92DF92EF92FF920F9337
:1017E0001F93CF93DF93DC01EB0158968D919C9171
:1017F0005997892BB9F08D01B12CCB2CD12CF80144
:10180000E08CF18CC7010E94E122C816D90610F5C0
:10181000F701EC0DFD1DE491DE01AC0DBD1DEC9357
:10182000B394EBCF88E4888389E4898384E48A8352
:101830001E968C911E978F708F5B8B831E968D9159
:101840009C9124E0969587952A95E1F78F708F5BA0
:101850008C8385E0DF91CF911F910F91FF90EF90E6
:10186000DF90CF90BF900895CF92DF92EF92FF92DA
:101870000F931F93CF93DF9300D0CDB7DEB77C01DA
:10188000FB011381133009F046C0628170E07F6F65
:101890000E943609009709F46AC0DC011496FC9096
:1018A00014971596DC908F2D9D2D0E94E122E82E35
:1018B0001A8381E08E0D880F898342E050E0BE01DB
:1018C0006F5F7F4F80E00E949006CF2C0F2D1D2D63
:1018D000802F8C198E15E8F4F801849189831A827F
:1018E00042E050E0BE016F5F7F4F80E00E949006B3
:1018F0000F5F1F4F892B61F780E090E00F900F90F2
:10190000DF91CF911F910F91FF90EF90DF90CF90DB
:10191000089581E0F2CF8081813849F5123239F59E
:10192000D70112962C911297848195812817190658
:10193000F1F41C960D911C91D12CC12C01151105AF
:1019400089F0F801448155816281738180E80E94A9
:1019500090068F3F980791F2C80ED91ED8010D91BD
:101960001C91ECCF81E0F701808BC601C7CF90E0DE
:1019700080E0C4CFAF92BF92CF92DF92EF92FF92FE
:101980000F931F93CF93DF93CDB7DEB7C857D1091D
:101990000FB6F894DEBF0FBECDBF809116059091B3
:1019A0001705DC01ED91FC910680F781E02D09958A
:1019B0000E9436059A8389838E010F5F1F4F6E0147
:1019C000BBE3CB0ED11C78018FE9A82E86E0B82EA0
:1019D0000E943605F801819391938F01C50101970B
:1019E000F1F7CE16DF06A1F725E535E042E050E03D
:1019F0006DE170E0C7010E9436208D8D9E8DC85824
:101A0000DF4F0FB6F894DEBF0FBECDBFDF91CF9191
:101A10001F910F91FF90EF90DF90CF90BF90AF900C
:101A200008950F931F93CF93DF93EC0188819981E1
:101A3000009759F02A813B812617370730F081E063
:101A4000DF91CF911F910F9108958B016F5F7F4FB1
:101A50000E946527009759F0998388831B830A8326
:101A60002C813D81232B59F7FC011082E8CF80E0C7
:101A7000E7CFCF93DF93EC0188819981009711F034
:101A80000E94DC26198218821D821C821B821A8207
:101A9000DF91CF910895EF92FF920F931F93CF9311
:101AA000DF938C017B01EB0109900020E9F721977E
:101AB000C61BD70BBE010E94110D811109C0C801C0
:101AC000DF91CF911F910F91FF90EF900C94390D02
:101AD000F801D583C483B70180819181DF91CF91D3
:101AE0001F910F91FF90EF900C943328EF92FF928B
:101AF0000F931F93CF93DF93EC01FB01E080F18004
:101B0000E114F10411F10481158101151105A9F009
:101B10008C819D81080F191FB801CE010E94110D03
:101B2000882399F0288139818C819D81B701820FAA
:101B3000931F0E9433281D830C83CE01DF91CF9128
:101B40001F910F91FF90EF900895CE010E94390DE3
:101B5000F4CFFC0180819181009711F00C94DC2678
:101B600008950F931F93CF93DF93CDB7DEB761979F
:101B70000FB6F894DEBF0FBECDBF8C01CB01F801CC
:101B800011821082138212821582148250E0BE01EB
:101B90006F5F7F4F0E94FD22BE016F5F7F4FC801C4
:101BA0000E944B0D61960FB6F894DEBF0FBECDBFFD
:101BB000DF91CF911F910F9108950F931F93CF93B2
:101BC000DF93CDB7DEB729970FB6F894DEBF0FBE0F
:101BD000CDBF8C01862FF8011182108213821282F0
:101BE0001582148250E0BE016F5F7F4F90E00E942B
:101BF000FD22BE016F5F7F4FC8010E944B0D2996E9
:101C00000FB6F894DEBF0FBECDBFDF91CF911F910D
:101C10000F9108952F923F924F925F926F927F9211
:101C20008F929F92AF92BF92CF92DF92EF92FF92EC
:101C30000F931F93CF93DF93CDB7DEB728970FB6DF
:101C4000F894DEBF0FBECDBFE0E15E2EA11002C052
:101C50003AE0532EFB01608171816D30710521F0F6
:101C60006A30710509F0EEC0AF821701380128878C
:101C70007A01A52CB12CA50170E060E001960E94CC
:101C8000A321462E062F172F809116059091170538
:101C9000E016F10608F040C065E778E00E945407BE
:101CA000B60180911605909117050E94E80B65E634
:101CB00078E080911605909117050E9454074AE03C
:101CC00050E0B70180911605909117050E94AC0A6B
:101CD00062E678E080911605909117050E94840BCA
:101CE00080E01092430428960FB6F894DEBF0FBE32
:101CF000CDBFDF91CF911F910F91FF90EF90DF90BB
:101D0000CF90BF90AF909F908F907F906F905F909B
:101D10004F903F902F90089508151905F8F461E54C
:101D200078E00E945407B60180911605909117053E
:101D30000E94E80B60E478E0809116059091170509
:101D40000E9454074AE050E0B4018091160590913A
:101D500017050E94AC0A6DE378E0BCCF6DE278E035
:101D60000E945407FF81FF2341F06AE278E08091EE
:101D70001605909117050E945407E0901605F09003
:101D800017058885882309F447C0452DF301608134
:101D9000CE0101960E94DD0DBE016F5F7F4FC7012E
:101DA0000E94690BCE0101960E94A90DF3014082A9
:101DB00065E278E080911605909117050E9454071E
:101DC000B60180911605909117050E94E80B6BE112
:101DD00078E080911605909117050E945407FF81C5
:101DE000FF2341F068E178E0809116059091170596
:101DF0000E945407A501B80180911605909117051E
:101E00000E94450B62EF77E08091160590911705CF
:101E10000E94840B81E065CFF10160817181452DC5
:101E2000CE0101960E94B10DBE016F5F7F4FC701C9
:101E30000E94690BCE0101960E94A90DF101118348
:101E40000083B6CF80E04FCF1F93CF93DF9385ED14
:101E50008093BC0080915F0390916003A091610327
:101E6000B09162030796A11DB11D23E0B695A79519
:101E7000979587952A95D1F72091BC0024FD03C042
:101E80001092A70352C040915F035091600360918C
:101E9000610370916203452B462B472B69F3009732
:101EA000A105B10541F02AE22A95F1F700C001979A
:101EB000A109B109E1CF80915E03C1E0C0935D0348
:101EC000882399F1D091B8001091BA008091BC009C
:101ED0008A7B8093BC0060E082E00E94AA0560E0FB
:101EE00083E00E94AA051092A703C093A903109251
:101EF000A80361E082E00E94AA0561E083E00E94FD
:101F0000AA058091B9008E7F8093B9008091B900B5
:101F10008D7F8093B90088E48093B80085E4809336
:101F2000BC001093BA00D093B800DF91CF911F91FD
:101F300008959F92AF92BF92CF92DF92EF92FF925D
:101F40000F931F93CF93DF93FC014281FB01248108
:101F500035814217130611F020E029C0EB013181D1
:101F60002081213AA9F5313079F52381233011F010
:101F700021E01DC0628170E00E943609EC010097EB
:101F800059F341E050E0BC016E5F7F4F80E00E945A
:101F900090061816190604F74E815F816C817D81C9
:101FA00080E00E94900621E018161906ACF6822FF8
:101FB000DF91CF911F910F91FF90EF90DF90CF9025
:101FC000BF90AF909F90089521E0333029F6EFCF76
:101FD000213211F63B3021F42281FC01208BC8CF45
:101FE0003A3021F42281FC01218BC2CF393009F033
:101FF000B3CF2381233009F0AFCF628170E00E941C
:1020000036096C01009709F4A7CF0E811F81FC01EE
:102010008681978101960817190709F09DCF81E005
:1020200090E00115110509F0C8010E9440267C01CD
:10203000E8019BEF992E2097C1F05E01C134D105D4
:102040001CF080E4A82EB12C8091E80082FFFCCF28
:10205000C8018C1B9D0B6A2D8E0D9F1D0E9447078A
:102060009092E800CA19DB09E6CFF7012081F6015A
:10207000828193812817190609F06ECF4681578116
:10208000B7016F5F7F4F848195810E942A28E114F8
:10209000F10409F46DCFC7010E94DC2669CFAF922D
:1020A000BF92CF92DF92EF92FF920F931F93CF9345
:1020B000DF937C016B015A01E901DC0152960D911D
:1020C0001C9190E080E00115110531F589E090E068
:1020D0000E944026FC0111821082D382C282B58206
:1020E000A482DD27D783C683D70153969C938E9312
:1020F0005297F701848995890196958B848BDF919E
:10210000CF911F910F91FF90EF90DF90CF90BF90F4
:10211000AF90089501968901F801228133812C1531
:102120003D0569F3208131812115310599F789E059
:1021300090E00E944026FC0111821082D382C2826C
:10214000B582A482DD27D783C683D8018D939C9363
:10215000D0CFEF92FF920F931F93CF93DF93EC01B9
:102160008B017A010E94A9099701A801BE01DF91A4
:10217000CF911F910F91FF90EF900C944F10CF9241
:10218000DF92EF92FF920F931F93CF93DF93C82FAD
:102190006B018A010E94A9096C2F70E021E030E0F8
:1021A000A6010E944F10EC01892B89F00E94A90919
:1021B0007C01C8010E94E122F601608170E07F6F1E
:1021C0009C01A801C7010E944F10C80FD91FCE0162
:1021D000DF91CF911F910F91FF90EF90DF90CF9003
:1021E00008951F920F920FB60F9211242F933F93D1
:1021F0008F939F93AF93BF9380913B0490913C0446
:10220000A0913D04B0913E0430913A0423E0230FA5
:102210002D3758F50196A11DB11D20933A048093E6
:102220003B0490933C04A0933D04B0933E04809102
:102230003F0490914004A0914104B0914204019662
:10224000A11DB11D80933F0490934004A0934104CD
:10225000B0934204BF91AF919F918F913F912F9185
:102260000F900FBE0F901F90189526E8230F02962F
:10227000A11DB11DD2CF1F920F920FB60F92112444
:102280008F939F938091E1009091E100937F9093D1
:10229000E10083FF0FC01092E90091E09093EB0002
:1022A0001092EC0092E39093ED001092E80398E016
:1022B0009093F00082FF22C093E09093E900909108
:1022C000F200992319F09AE39093E8009091E503C6
:1022D000992341F09091E50391509093E50391117A
:1022E00001C05D9A9091E403992341F09091E40339
:1022F00091509093E403911101C0289A84FF18C073
:102300008091E2008E7E81608093E2008091E10006
:102310008F7E8093E1008091E6038E7E80618093C2
:10232000E6039F918F910F900FBE0F901F9018950D
:1023300080FFF7CF8091E2008E7E80618093E20083
:102340008091E1008E7E8093E1008091E6038E7E95
:102350008160E5CF1F920F920FB60F921124CF929A
:10236000DF92EF92FF920F931F932F933F934F9320
:102370005F936F937F938F939F93AF93BF93EF93ED
:10238000FF93CF93DF93CDB7DEB76C97DEBFCDBFA2
:102390001092E9008091E80083FF25C068E0CE013B
:1023A00045960E94470782EF8093E8008D8987FF5A
:1023B00039C09091E80090FFFCCF982F907609F0FB
:1023C00034C19E894F89588D2F89F88C911131C065
:1023D000803861F58091E7038093F1001092F1005D
:1023E0008EEF8093E8006C960FB6F894DEBF0FBEB8
:1023F000CDBFDF91CF91FF91EF91BF91AF919F91B1
:102400008F917F916F915F914F913F912F911F918C
:102410000F91FF90EF90DF90CF900F900FBE0F9035
:102420001F9018959EEF9093E800C7CF1092F1008F
:10243000D5CF913059F48111D3CF4130510581F678
:102440008091E7038D7F8093E703CACF933049F4EF
:102450008111C6CF4130510519F68091E7038260A2
:10246000F2CF953041F48091E80080FFFCCF2068E6
:102470002093E300B5CF963009F0A9C00B8D1C8DD9
:1024800082E01092E9001092E3031092E203F81246
:102490002EC01092E1031092E0030E94B7071F8242
:1024A00099E09983FA8291E09E8390EA98879AEF67
:1024B00099872091E2033091E303275F3F4F3C83EC
:1024C0002B838D831092E9001092E3031092E203B4
:1024D0001093E1030093E00349E050E0BE016F5F19
:1024E0007F4F80E00E9490060E94B70779CF10933B
:1024F000E1030093E0030E94A507DC0112960D9111
:102500001C910115110509F4BCC0D801ED91FC9195
:102510000480F581E02DBE016B5E7F4FC8010995F7
:10252000009709F0A9C0F80100851185EACFF3E012
:10253000FF120EC08F89882309F440C0823061F4F5
:1025400040E860E189EE90E00E945D06811148CF8D
:1025500081E28093EB0047CF813029F440E86BE0C3
:102560008DED90E0F1CF833099F70E94A507DC0153
:102570001296ED90FC908E010F5F1F4F6801E114E1
:10258000F10479F0D701ED91FC910680F781E02DFF
:10259000B801C7010995080F111DF701E084F18406
:1025A000EECFD8011C92F60101900020E9F7319797
:1025B000BF016C197D0940E0C601C6CF67EC70E031
:1025C000FB01449150E080E80E94900609CF9730CB
:1025D00009F4BECF983021F481E08093F10000CF60
:1025E000993009F0FDCE837009F0B2CFEAEDF3E047
:1025F00081E031E096E32191222371F08093E9009C
:102600003093EB00DF0111972C912093EC00909315
:10261000ED008F5F873079F78EE78093EA001092A4
:10262000EA008F898093E803DBCE8B8D9C8D10921E
:10263000E9001092E3031092E2039093E103809388
:10264000E0030E94A507DC0112960D911C91011573
:10265000110509F47DCFD801ED91FC910190F08135
:10266000E02DBE016B5E7F4FC80109958111B8CE88
:10267000F80100851185EBCF181619060CF4B0CEC1
:1026800067CFF1E0FF1253CF6BEC70E099CF1F9250
:102690000F920FB60F9211242F933F934F935F9396
:1026A0006F937F938F939F93AF93BF93EF93FF931A
:1026B00089E794E00E943108FF91EF91BF91AF91BB
:1026C0009F918F917F916F915F914F913F912F914A
:1026D0000F900FBE0F901F9018951F920F920FB67C
:1026E0000F9211242F938F939F93EF93FF93E09179
:1026F0008904F0918A048081E0918F04F091900424
:1027000082FD1BC09081809192048F5F8F73209116
:102710009304821741F0E0919204F0E0E758FB4FF8
:10272000958F80939204FF91EF919F918F912F91BC
:102730000F900FBE0F901F9018958081F4CF1F92BD
:102740000F920FB60F9211242F933F934F935F93E5
:102750006F937F938F939F93AF93BF93EF93FF9369
:102760008091B900887F803609F44AC0F0F588323C
:1027700009F4A5C018F5803109F499C0B8F488238C
:1027800009F4F5C0883009F492C0FF91EF91BF9130
:10279000AF919F918F917F916F915F914F913F91F9
:1027A0002F910F900FBE0F901F901895883109F44C
:1027B00086C0803251F78093A60314C0803409F498
:1027C0009BC040F48033B9F38833F9F68093A603B5
:1027D00085ECAEC0803509F483C0883509F494C017
:1027E000883499F60E94240FD0CF883909F48AC022
:1027F00038F5883729F050F4883611F0803729F6FB
:1028000083E08093A7031092A50355C0883809F48C
:1028100079C0803919F0803809F0B7CF8091A503CD
:10282000803208F06FC0E091A50381E08E0F8093A5
:10283000A5038091BB00F0E0EB57FC4F80833BC0C9
:10284000803B39F0D0F4803A09F477C0883A09F037
:102850009CCF84E08093A70310928403109283039B
:10286000F0E0E0E009958091830381110FC081E0E1
:10287000809383031092630309C0803C09F4A8CFBE
:10288000883C09F4A5CF883B09F07FCFE091840311
:1028900081E08E0F80938403F0E0ED59FC4F80813E
:1028A0008093BB00909184038091830329C0809121
:1028B000CC038093BB0085EC8093BC0066CF9091E5
:1028C000CB038091CA03981758F5E091CB0381E0C0
:1028D0008E0F8093CB03F0E0E655FC4F8081E9CF6B
:1028E000E091CB0381E08E0F8093CB038091BB00FE
:1028F000F0E0E655FC4F80839091CB038091CA03B2
:102900009817C8F285E8D8CFE091CB0381E08E0F0D
:102910008093CB038091BB00F0E0E655FC4F8083B1
:102920008091A90381115ECF81E08093A80384EA9E
:102930008093BC001092A70328CF85EC8093BC0045
:102940001092A7038091A503803230F4E091A50393
:10295000F0E0EB57FC4F10826091A50370E085E832
:1029600093E0F0E0E0E009951092A5030ECF1092FD
:10297000A60338CF10927C0410927B0488EE93E07B
:10298000A0E0B0E080937D0490937E04A0937F0448
:10299000B09380048DE291E090937A04809379045F
:1029A0008DEC90E090938604809385048CEC90E00D
:1029B000909388048093870488EC90E090938A0435
:1029C0008093890489EC90E090938C0480938B042D
:1029D0008AEC90E090938E0480938D048EEC90E0CE
:1029E0009093900480938F04109292041092930419
:1029F00010929404109295048FE391E09093450413
:102A000080934404109246041092470410924804A4
:102A10001092490482E08093580481E08093590425
:102A200093E090935A0490915004911112C0109227
:102A30004B0410924A0425E838E030934D0420936B
:102A40004C0420E931E030934F0420934E048093EE
:102A500050040E94A909FC01A485B585109781F551
:102A60008AE494E0958784878685978520914E0433
:102A700030914F04820F931F978786878FE391E0F1
:102A8000909319058093180510921A0510921B0552
:102A900010921C0510921D0589E794E0909317058C
:102AA00080931605109278041092770410926E04A9
:102AB00010926D0410926404109263040895DC0176
:102AC0008D919C9111970097D1F78AE494E08D93B2
:102AD0009C93CACFCF93DF93CDB7DEB7A2970FB643
:102AE000F894DEBF0FBECDBF789484B5826084BDFC
:102AF00084B5816084BD85B5826085BD85B5816002
:102B000085BD80916E00816080936E00109281007F
:102B1000809181008260809381008091810081603A
:102B200080938100809180008160809380008091FB
:102B300091008260809391008091910081608093E8
:102B40009100809190008160809390008091C100FD
:102B500084608093C1008091C10082608093C10035
:102B60008091C10081608093C1008091C300816029
:102B70008093C3008091C00082608093C0008091E8
:102B8000C20081608093C20080917A00846080934B
:102B90007A0080917A00826080937A0080917A0036
:102BA000816080937A0080917A00806880937A00B7
:102BB0001092E8031092E7031092E6038091D70089
:102BC00081608093D70080EA8093D80089B58061C6
:102BD00089BD89B5826089BD09B400FEFDCF61E081
:102BE00070E080E090E00E94FD058091D8008F7C2D
:102BF00080618093D8008091E000807F8093E00026
:102C00008091E1008E7E8093E1008DE08093E20070
:102C1000559A209AE0918904F0918A0482E0808399
:102C2000E0918504F09186041082E0918704F09190
:102C3000880480E1808310929104E0918D04F091EA
:102C40008E0486E08083E0918B04F0918C04808177
:102C500080618083E0918B04F0918C048081886096
:102C60008083E0918B04F0918C0480818068808364
:102C7000E0918B04F0918C0480818F7D808368EEDD
:102C800073E080E090E00E94FD05809107018823B9
:102C900021F089E794E00E94250B809107018823A9
:102CA00031F067ED71E089E794E00E94840B809138
:102CB0000701882331F06FE771E089E794E00E9413
:102CC000840B80910701882331F064E471E089E787
:102CD00094E00E94570B80910701882331F068E649
:102CE00071E089E794E00E94570B44E1E42E44E050
:102CF000F42E10E000E0C8010E945424D7018D9307
:102D00007D010F5F1F4F06321105A9F78091140452
:102D10008A3A09F078C280911504853509F073C2AA
:102D200080913804909139048130954A09F06BC242
:102D300080913704817080930701882331F062E627
:102D400071E089E794E00E94840B0E94A9090E9427
:102D5000A90921E030E048E554E061E070E00E941C
:102D60004F100E94A90921E030E04AE554E062E0FA
:102D700070E00E944F100E94A90921E030E049E56F
:102D800054E063E070E00E944F100E94A90927E11F
:102D900031E0FC01318F208FECEAF7E02491EDE87F
:102DA000F7E084918823C9F090E0880F991FFC0117
:102DB000E650FF4FA591B491FC01E558F84F4591BD
:102DC00054919FB7F8943C91822F809583238C93E4
:102DD000DA018C91282B2C939FBFEFEBF7E0249125
:102DE000E0EAF7E084918823C9F090E0880F991F0A
:102DF000FC01E650FF4FA591B491FC01E558F84F56
:102E0000459154919FB7F8948C91E22FE0958E23D1
:102E10008C93DA018C91E823EC939FBF61E08DE005
:102E20000E94AA058091120490911304856091601C
:102E3000909313048093120442E050E062E174E046
:102E400087E090E00E94A91042E050E06BE071E062
:102E50008DE090E00E94A91042E050E066E174E04D
:102E60008AE190E00E94A91042E050E068E174E03D
:102E70008CE190E00E94A91042E050E06AE174E029
:102E800088E090E00E94A91042E050E065E071E027
:102E900083E190E00E94A91042E050E068E071E018
:102EA00082E190E00E94A91041E050E064E071E00E
:102EB00086E090E00E94A91041E050E063E071E0FC
:102EC00086E190E00E94A91042E050E067E271E0E4
:102ED0008AE090E00E94A91042E050E061E071E0D9
:102EE0008BE090E00E94A91042E151E066E271E0BF
:102EF0008FE10E94BF1048E051E065E271E080E29E
:102F00000E94BF1041E050E060E071E084E190E099
:102F10000E94A91041E050E064E271E087E190E096
:102F20000E94A91041E050E06AE071E08EE090E07C
:102F30000E94A91041E050E06DE071E08CE090E06B
:102F40000E94A91041E050E060E274E08FE090E060
:102F50000E94A91041E050E061E274E081E190E05C
:102F60000E94A91041E050E063E271E080E190E04E
:102F70000E94A91041E050E062E271E088E190E037
:102F80000E94A91080911C0490911D0490930F0140
:102F900080930E0141E050E06DE071E08CE090E044
:102FA0000E941F0A42E050E062E174E087E090E096
:102FB0000E941F0A90930A048093090480910701DC
:102FC000882309F45DC0609112047091130440E1FC
:102FD000CE0101960E94B10D4AE060910D01CE0133
:102FE00043960E94DD0D1A8E198E1C8E1B8E1E8E2E
:102FF0001D8E6DE270E0CE0149960E94110D811187
:103000000FC1CE0149960E94390DBE016D5E7F4F02
:10301000CE0149960E94760D8C01FC01E480F5807A
:10302000F1E1EF0EF11CB7010E94110D882309F4A4
:1030300002C1D8012D913C91119714968D919C91CC
:1030400064EA71E0820F931F0E943328F801F58231
:10305000E482BE016F5F7F4FC8010E94760DBC0104
:1030600089E794E00E94690BCE0149960E94A90D60
:10307000CE0143960E94A90DCE0101960E94A90D92
:10308000109278042FB7F89480913B0490913C04FF
:10309000A0913D04B0913E042FBF80936F049093A4
:1030A0007004A0937104B09372048AE090E0A0E0F1
:1030B000B0E08093730490937404A0937504B0936C
:1030C000760481E0809377041CE3612E712CBB248D
:1030D000B394BCE35B2E89E794E00E9411088C0155
:1030E000892B09F46DC489E794E00E94EF078C01F5
:1030F000F0900701FF2029F0682F89E794E00E94F3
:103100005208E0914304EE3108F055C40D3011052A
:1031100099F00A30110581F00F3E110569F0C801E0
:103120008B7F8B3B910541F081E08E0F80934304B0
:10313000F0E0E751FC4F0083E0914304F0E0E751F9
:10314000FC4F1082FF2031F06BE677E089E794E0D6
:103150000E94540780910701882331F069EE73E0E3
:1031600089E794E00E94E80B80910701882331F001
:1031700069E677E089E794E00E94840B809143043C
:10318000882309F495C01A8F098F89E794E09093FA
:103190001705809316050D30110521F00A30110531
:1031A00009F099CF8091E903082E000C990B0E9439
:1031B0002228883409F491C20CF086C0833409F4C3
:1031C00026C2ECF58F3309F488C2823409F487C132
:1031D00061EC76E089E794E00E94540769EE73E0C1
:1031E00089E794E00E94E80B6DEB72E089E794E0D8
:1031F0000E94570B60EC72E089E794E00E94570B45
:103200001092E9034FC080910701882331F06DE1EE
:1032100071E089E794E00E94840B0E94960B95CDA3
:103220008DE290E09E8F8D8F66E771E0898D9A8D9B
:103230000E943328EACEC8010E94390D0ACF843497
:1032400009F49EC3853421F68091EA03082E000C10
:10325000990B0E9422288E3409F034C10D301105DB
:1032600019F00A301105F1F48BEE93E00E94BA22B6
:103270008C01029708F4D5C061EB76E089E794E011
:103280000E94540766EB71E0809116059091170536
:103290000E94E80B61E976E0809116059091170590
:1032A0000E94840B1092430480914304811113CF38
:1032B00080910701882309F40ECF6CEC72E089E756
:1032C00094E00E94E80B07CF843509F438C104F577
:1032D0008E3409F46DC324E1E22E24E0F22E10E0D6
:1032E00000E0833509F074CFF701D1907F01C80168
:1032F0000E945424D81621F06D2DC8010E945C2430
:103300000F5F1F4F0632110579F769E477E027C395
:103310008A3509F427C38E3709F05ACF64E172E089
:1033200089E794E00E94540710E000E0F12CE12CC2
:10333000D12CC701800F911F0E9454248F3F11F0A0
:10334000DD24D394FFEFEF1AFF0A20E1E216F10427
:1033500081F70115110519F0DD2009F454C06FE063
:1033600072E089E794E00E9454076DE072E089E71B
:1033700094E00E9454070F3F110509F078F46BE0C8
:1033800072E089E794E00E9454070031110530F49F
:1033900069E072E089E794E00E94540740E150E060
:1033A000B80189E794E00E94AC0A67E072E089E71F
:1033B00094E00E9454076801F12CC6010E94542435
:1033C000E82E3FE0381730F065E072E089E794E0DE
:1033D0000E9454074E2D50E070E060E020E189E744
:1033E00094E00E94600A4FE0F41631F063E072E06E
:1033F00089E794E00E9454075FEFC51AD50AF39459
:1034000080E1F812DACF005F1F4F011594E0190731
:1034100009F08CCF6FEE71E089E794E00E945407C9
:1034200041CF61E876E089E794E00E945407E0909C
:103430001605F0901705809122041C8A1B8A1E8AAB
:103440001D8A188E1F8A4AE0BE016F5F7F4F90E091
:103450000E94EA22BE016F5F7F4FCE0143960E9419
:103460004B0DBE016D5E7F4FC7010E94690BCE01FF
:1034700043960E94A90D0170009322046CE776E048
:1034800080911605909117050E94540766EB71E034
:1034900080911605909117050E94E80B62E776E08F
:1034A00080911605909117050E945407609122049F
:1034B00070E080911605909117050E94290B6CE42D
:1034C00076E0EACE63ED71E089E794E00E94E80BD4
:1034D00069EE73E089E794E00E94570BE3CE809198
:1034E000EA03082E000C990B0E9422288534D9F09B
:1034F000863441F7912C812CA12CF4EFCF2EF1E0F2
:10350000DF2EACE1EA2EA4E0FA2E8E010F5F1F4FF2
:1035100020E048E55BE1BE01675E7F4F8AEE93E005
:103520000E940A0EBFCE912C812CA12C7AE0C72ECE
:1035300072E0D72EEEE1EE2EE4E0FE2EE6CF809193
:10354000EA03082E000C990B0E942228833429F0EC
:10355000843481F161E672E0B7CF809116049091D6
:103560001704B3010E947A247A836983912C812CF9
:10357000A12C6AE1C62E62E0D62E9E012F5F3F4F3E
:1035800079018E010D5E1F4F20E040E45FE1BE0136
:10359000675E7F4F8AEE93E00E940A0E29813A818E
:1035A000529EC001539E900D112490931704809356
:1035B000160478CE8091180490911904B3010E94EA
:1035C0007A247A836983912C812CA12C5CE3C52E0B
:1035D00052E0D52EAE014F5F5F4F7A018E010D5E36
:1035E0001F4F20E040E45FE1BE01675E7F4F8AEE3F
:1035F00093E00E940A0E29813A81529EC001539E97
:10360000900D112490931904809318044BCE80914F
:10361000EA03082E000C990B0E942228883481F1BD
:103620008C3409F04FCF80912504909126049A8321
:103630008983912C812CA12C4BE7C42E42E0D42EFF
:10364000CE0101967C018E010D5E1F4F20E040E40B
:103650005FE1BE01675E7F4F8AEE93E00E940A0E33
:10366000882309F41FCE89819A8190932604809340
:1036700025040E94BA0C909324048093230412CE54
:103680008091290490912A049A838983912C812C1A
:10369000A12C30E9C32E32E0D32EDE0111967D013C
:1036A0008E010D5E1F4F20E040E45FE1BE01675ECA
:1036B0007F4F8AEE93E00E940A0E882309F4F2CD30
:1036C00089819A8190932A04809329040E94BA0CDC
:1036D0009093280480932704E5CD8091EA03082E77
:1036E000000C990B0E942228853409F4DBCD81352A
:1036F00009F4D8CD6EE376E089E794E00E94840B6C
:1037000089E794E00E94250B65E276E089E794E082
:103710000E94840B64E471E089E794E00E94570BF7
:1037200089E794E00E94250B63E176E089E794E065
:103730000E94840B61EE75E089E794E00E945407D3
:103740006091220470E089E794E00E94290B61EB0C
:1037500075E089E794E00E94540789E794E00E94AD
:10376000250B6FE775E089E794E00E9454076091AC
:103770001C0470911D044AE050E089E794E00E9427
:10378000450B6DE475E089E794E00E945407609171
:103790001E0470911F044AE050E089E794E00E9403
:1037A000450B6BE175E089E794E00E945407809136
:1037B000160490911704B3010E947A244AE050E065
:1037C00089E794E00E94450B69EE74E089E794E094
:1037D0000E9454078091180490911904B3010E942B
:1037E0007A244AE050E089E794E00E94450B67EBB9
:1037F00074E089E794E00E94540760912504709179
:1038000026044AE050E089E794E00E94AC0A60EBAD
:1038100074E089E794E00E94840B64E974E089E72E
:1038200094E00E94540760912304709124044AE0BC
:1038300050E089E794E00E94AC0A62E974E089E70D
:1038400094E00E94840B60E674E089E794E00E94B3
:1038500054076091290470912A044AE050E089E7F6
:1038600094E00E94AC0A69E574E089E794E00E9464
:10387000840B6CE374E089E794E00E945407609144
:103880002704709128044AE050E089E794E00E9400
:10389000AC0A6AE374E089E794E00E94840B6CE070
:1038A00074E089E794E00E94840B6BEC73E089E795
:1038B00094E00E94840B6FE873E089E794E00E9433
:1038C000840B62E573E089E794E00E94840B66E173
:1038D00073E089E794E00E94840B69ED72E089E768
:1038E00094E00E94840B6BEA72E089E794E00E9406
:1038F000840B69E772E089E794E00E94840B6FE62D
:1039000072E089E794E00E94840B6AE472E089E740
:1039100094E00E9454074091370450E070E060E06A
:1039200020E189E794E00E94600A89E794E00E9420
:10393000250B64E372E089E794E00E9454076091EC
:103940000E0170910F0189E794E00E94290B6AE251
:1039500072E089E794E00E94840B6DE376E089E7EA
:1039600094E09ECC0E94960B64EF76E089E794E0A9
:103970000E94840B8091370481708093070192CC60
:10398000912C812CAA24A39498EAC92E92E0D92ED6
:10399000DE0111967D0107E314E021E04FEF50E0D6
:1039A000BE01675E7F4F89EE93E00E940A0EE2CF70
:1039B00064ED76E0D4CF109243041092E90374CC06
:1039C0008BE594E00E941209809164049091630455
:1039D000911121C028EE33E040E050E020935F04D5
:1039E0003093600440936104509362049FB7F8944D
:1039F00040913B0450913C0460913D0470913E0421
:103A00009FBF40935B0450935C0460935D0470938C
:103A10005E04B092630410926404882309F411C216
:103A2000EBECF7E08491ECEAF7E0F490EDE8F7E0F6
:103A3000E490EE2099F081110E945E05EE2DF0E0F9
:103A4000EE0FFF1FE359F84FA591B4918C91F82226
:103A500091E080E009F490E0092F182F0E943605CC
:103A6000C0902504D0902604F12CE12C2090230452
:103A700030902404512C412C2091290430912A04A7
:103A800050E040E02C193D094E095F09BC01990F37
:103A9000880B990B62197309840995090E946A249D
:103AA000209127043091280450E040E02219330986
:103AB000440955090E94B024C20ED31EE41EF51E0F
:103AC000D7FC43C2D0920F01C0920E018091220414
:103AD000882309F45CC2C0901E04D0901F04F12C0E
:103AE000E12C20910E0130910F01032E000C440BAC
:103AF000550B2C193D094E095F09A4E6B0E00E9460
:103B0000CF2420911C0430911D0450E040E02C197A
:103B10003D094E095F090E94B024F12C37FD06C013
:103B20002536310514F024E630E0F22EF0920D0136
:103B3000609118047091190490E080E00E94352390
:103B40001B012C016F2D70E090E080E00E94372374
:103B50009B01AC01C201B1010E94962320E030E03C
:103B600048EC52E40E948D251B012C0120E030E03E
:103B7000A9010E94352620E030E040E05FE387FDA8
:103B8000E9C1C201B1010E9421250E94FF25709365
:103B90000C0160930B0180911204909113040115A4
:103BA000110509F4DCC1856090931304809312041D
:103BB000809112049091130420910A01F212D1C154
:103BC0009160909313048093120480911204909159
:103BD00013040115110509F0C9C120911A0430918F
:103BE0001B046217730708F0BEC18262909313042E
:103BF0008093120480911204909113042091080183
:103C000030910901121613060CF0B2C19460909322
:103C100013048093120480910701882331F063ED2F
:103C200072E089E794E00E94570B80911204909112
:103C300013049C0120723470232B09F49FC19860F7
:103C4000909313048093120480910701882331F02C
:103C500066EE72E089E794E00E94570B80911204AF
:103C60009091130488609093130480931204209120
:103C700010043091110482179307B9F490910D014B
:103C800080910F04981311C020910B0130910C0109
:103C900080910D0490910E042817390731F480911A
:103CA0000B0490910C044B97F4F141E050E06DE06F
:103CB00071E08CE090E00E941F0A012B41F442E089
:103CC00050E06BE071E08DE090E00E941F0A42E05E
:103CD00050E062E174E087E090E00E941F0A909358
:103CE0000A048093090410920C0410920B04209192
:103CF0001204309113043093110420931004209186
:103D00000D0120930F0420910B0130910C01309391
:103D10000E0420930D0497FD37C181E090E090934D
:103D200008048093070480912204882309F475C055
:103D300080910701882331F068E971E089E794E018
:103D40000E94E80B80910701882351F040910D01FA
:103D500050E070E060E02AE089E794E00E94600AA9
:103D600080910701882331F068EF72E089E794E0E1
:103D70000E94E80B80910701882369F080910B0174
:103D800090910C01B3010E947A244AE050E089E747
:103D900094E00E94AC0A80910701882331F06AE028
:103DA00073E089E794E00E94E80B80910701882383
:103DB00071F080910B0190910C01B3010E947A2463
:103DC0004AE050E0BC0189E794E00E94AC0A80918F
:103DD0000701882331F06CE073E089E794E00E94EA
:103DE000E80B80910701882371F0409109045091FC
:103DF0000A04052E000C660B770B77FFCDC089E710
:103E000094E00E94B20A80910701882331F06CE2AD
:103E100073E089E794E00E94E80BB09207016FE23B
:103E200073E089E794E00E94E80B80910701882302
:103E300041F060910E0170910F0189E794E00E94BA
:103E4000290B80910704909108048130910509F4B1
:103E5000A9C008F4B9C0029709F4ADC08FE694E098
:103E60000E941209809178048111109277041092B7
:103E70007804882341F110926E042FB7F894809152
:103E80003B0490913C04A0913D04B0913E042FBFAF
:103E90008093650490936604A0936704B0936804CC
:103EA0004F8D58A1CA01B0E0A0E0809369049093BF
:103EB0006A04A0936B04B0936C04B0926D0460E04C
:103EC0008DE00E94AA0585E694E00E941209809187
:103ED0006E04811110926D0410926E04882341F1DA
:103EE000109278042FB7F89480913B0490913C0491
:103EF000A0913D04B0913E042FBF80936F04909336
:103F00007004A0937104B0937204E9A1FAA1CF01E7
:103F1000B0E0A0E08093730490937404A0937504C0
:103F2000B0937604B092770461E08DE00E94AA0518
:103F300080E090E0892B09F4CCC80E941D088823FA
:103F400009F4C5C80E940000C2C810920F01109267
:103F50000E01BCCDC201B1010E94202516CE8A7F80
:103F600023CE9E7F2ECE8F7D826040CE8D7D3ECE35
:103F70009B7F909313048093120457CE977F909366
:103F80001304809312046ACE82E090E0C8CE1092AF
:103F9000080410920704C7CE2AE089E794E00E9443
:103FA000600A31CF24E630E038A32F8F44E853E095
:103FB0005AA349A353CF84E893E098A38F8FA4E634
:103FC000B0E0BAA3A9A34ACFE4EFF1E0F8A3EF8FE2
:103FD00024EF31E03AA329A341CFCF93DF93DC0153
:103FE0002D91FB013191EC013883EB012883415085
:103FF0005109CD01BF01141615068CF3DF91CF9145
:104000000895B0E0A0E0E7E0F0E20C94E4246C0155
:10401000D62FC72F8A017901F9010995B80197FFB9
:1040200015C08D2F9C2FF701099597FD08C0B80189
:10403000C601F701099597FD16C0DC2DCD2D8D2FFA
:104040009C2FCDB7DEB7E8E00C9400258D2F9C2F78
:10405000F70109951816190694F3B801C601F7017E
:10406000099597FDEACFD02FC12FE9CFA8E0B0E0A6
:10407000ECE3F0E20C94DA248C0158874F83590169
:104080009A013195219531093E832D836F80788483
:10409000600E711E6730710578F58F819885689F75
:1040A0006001699FD00C789FD00C1124C00ED11EE6
:1040B0006C147D0420F02896E2E10C94F624730140
:1040C00013C047012F813885821A930AB701C401B2
:1040D000F50109951816190654F44F815885B40155
:1040E000C7010E94ED1F74010E151F0550F3EF81EB
:1040F000F8856E0E7F1EDCCFCB01969587952F81BC
:104100003885829F6001839FD00C929FD00C112430
:10411000C00ED11ECB010197829F1001839F300CEE
:10412000929F300C11247801E20CF31C673071056A
:1041300009F442C0C701280169327105B0F183E07A
:10414000769567958A95E1F7629F4001639F900C91
:10415000729F900C1124C401880F991F9A83898340
:10416000AC01400F511FB801680D791D9501C801C0
:104170000E9401202C01A601480D591D91948194A3
:1041800091089501B601C601880D991D0E94012074
:104190006C01B701680D791D9501A701C701E9817F
:1041A000FA818E1B9F0B0E9401209501AC01B60184
:1041B000C2010E9401206C014F815885B601C801DF
:1041C0000E94ED1F4301630127011A821982EC143A
:1041D000FD0408F446C0B801C601F501099518169A
:1041E000190654F1892B71F44F815885B601C3012A
:1041F0000E94ED1F2F813885620E731E81E090E0D2
:104200009A838983EF81F885CE0EDF1EE0CF892B5C
:1042100071F44F815885B201C7010E94ED1F2D81B5
:104220003E81420E531E81E090E09A838983EB80A9
:10423000FC80EC14FD04A8F0B801C701F501099554
:104240002D813E812E0D3F1D3C832B8397FFDFCFB9
:104250004F815885B701C6010E94ED1FEB80FC809D
:10426000CDCFEF81F8852E0E3F1E200E311E298105
:104270003A81232B09F58214930408F01CCF7401B2
:1042800013C06701EF81F885CE1ADF0AB701C601B6
:10429000F50109951816190654F44F815885B60191
:1042A000C7010E94ED1F76010E151F0550F38F8187
:1042B0009885880E991EDFCF460186189708A301BE
:1042C000401B510B841695060CF4A4011416150618
:1042D00034F4B601641B750BC8010E94ED1F9201F6
:1042E0002E193F097901A101441955098F8198853B
:1042F000481B590B2417350708F4A9011416150695
:1043000034F4B101641B750BC6010E94ED1FEF81EF
:10431000F885E815F90548F4C401BF010E947A2424
:104320009501AF01C8010E9436202F8138852E15D6
:104330003F0508F0C0CE81010E191F09C701B90160
:104340000E947A24A3CEB0E0A0E0E9EAF1E20C9466
:10435000DB245C016B017A016115710519F0FB0129
:1043600091838083E114F10451F0C7010297839790
:1043700030F040E030E020E090E072C05E01E50106
:104380002196F5011081812F90E00E94D822892B7F
:10439000A9F71D3201F52196F501118101E0E11423
:1043A000F10409F4DAC0F0E1EF16F10409F082C07B
:1043B000103359F488818F7D883509F076C01981D2
:1043C00022960260F0E1EF2EF12C812C912CA12C91
:1043D00088E0B82E8CC01B3221F4E5012296F5014D
:1043E000118100E0DCCFEAE0EE16F10409F4BBC075
:1043F000F0E1EF16F10409F06DC0E7CF78E0E72EA9
:10440000F12C812C912CA12C60E1B62E70C03FE9DB
:10441000310F3A3128F439EA332E80C021E09AC0B6
:10442000302F3170C114D10431F0222309F12197CA
:10443000F601D183C08327FF21C060E070E080E0F7
:1044400090E8311104C06FEF7FEF8FEF9FE722E21A
:1044500030E030931F0520931E05462F372F282F5D
:10446000642F732F822FCDB7DEB7E1E10C94F724D0
:1044700001FF04C02297F601D183C083332341F0AA
:1044800090958095709561957F4F8F4F9F4FE5CFA9
:1044900097FFE3CF82E290E090931F0580931E0583
:1044A0006FEF7FEF8FEF9FE7D8CF10E3E114F104B8
:1044B00009F4A4CF28E0E216F10409F4A2CF0CF02D
:1044C00092CF812C912CA12CE0E4BE2E82E0E81644
:1044D000F10469F060E070E080E090E897010F2C53
:1044E000000C440B550B0E948E2449015A0120E018
:1044F00060E070E0CB0127010F2C000C6608770804
:10450000FE0150ED352E310E39E0331540F43FEB0E
:10451000310F3A3108F07BCF49EC342E310E3E1486
:104520001F040CF07DCF27FD15C086169706A80640
:10453000B90678F0A30192010E946A24630D711DEF
:10454000811D911D61307105810520E8920708F4F5
:1045500065CF2FEF21961081D3CF103309F42ACFE6
:104560002AE0E22EF12C9CEC892E982CA82C9CE0C1
:10457000B92EBDCFFC0188279927E89421912032DC
:10458000E9F3293010F02E30C8F32B3241F02D32F0
:1045900039F4689404C00E94F522820F911D219184
:1045A00020532A30C0F31EF4909581959F4F0895B3
:1045B00091110C942223803219F089508550C8F74C
:1045C0000895FC0105900020E9F7809590958E0FE5
:1045D0009F1F0895BB274A3031F4992322F4BDE28E
:1045E000909581959F4F0C9409237AE0979F902D89
:1045F000879F802D910D112408954532510520F497
:10460000423010F00C940823FB011082CB01089576
:10461000BB27FB015527AA27880F991FAA1FA4179C
:1046200010F0A41B83955051B9F7A05DAA3308F090
:10463000A95DA193009779F7B111B1931192CB01C4
:104640000C942523992788270895DC01FC01672F06
:1046500071917723E1F7329704C07C916D93708359
:104660006291AE17BF07C8F30895E89409C097FB9D
:104670003EF490958095709561957F4F8F4F9F4F39
:104680009923A9F0F92F96E9BB279395F69587957D
:1046900077956795B795F111F8CFFAF4BB0F11F440
:1046A00060FF1BC06F5F7F4F8F4F9F4F16C08823E7
:1046B00011F096E911C0772321F09EE8872F762F1D
:1046C00005C0662371F096E8862F70E060E02AF05E
:1046D0009A95660F771F881FDAF7880F969587954A
:1046E00097F90895990F0008550FAA0BE0E8FEEF1F
:1046F00016161706E807F907C0F012161306E407A6
:10470000F50798F0621B730B840B950B39F40A269E
:1047100061F0232B242B252B21F408950A2609F47C
:10472000A140A6958FEF811D811D08950E94A923A8
:104730000C941A240E940C2438F00E94132420F0B8
:10474000952311F00C9403240C94092411240C9447
:104750004E240E942B2470F3959FC1F3950F50E0D7
:10476000551F629FF001729FBB27F00DB11D639F23
:10477000AA27F00DB11DAA1F649F6627B00DA11DC9
:10478000661F829F2227B00DA11D621F739FB00D6F
:10479000A11D621F839FA00D611D221F749F3327DF
:1047A000A00D611D231F849F600D211D822F762F78
:1047B0006A2F11249F5750409AF0F1F088234AF055
:1047C000EE0FFF1FBB1F661F771F881F91505040C1
:1047D000A9F79E3F510580F00C9403240C944E24BD
:1047E0005F3FE4F3983ED4F3869577956795B79548
:1047F000F795E7959F5FC1F7FE2B880F911D969562
:10480000879597F9089597F99F6780E870E060E0D1
:1048100008959FEF80EC089500240A941616170659
:1048200018060906089500240A94121613061406A1
:1048300005060895092E0394000C11F4882352F004
:10484000BB0F40F4BF2B11F460FF04C06F5F7F4FBC
:104850008F4F9F4F089557FD9058440F551F59F0A3
:104860005F3F71F04795880F97FB991F61F09F3F5D
:1048700079F087950895121613061406551FF2CF86
:104880004695F1DF08C0161617061806991FF1CFD6
:1048900086957105610508940895E894BB276627FD
:1048A0007727CB0197F90895F999FECF92BD81BD85
:1048B000F89A992780B50895262FF999FECF1FBA47
:1048C00092BD81BD20BD0FB6F894FA9AF99A0FBE39
:1048D00001960895DB018F939F930E94CF24BF918F
:1048E000AF91A29F800D911DA39F900DB29F900D3F
:1048F00011240895AA1BBB1B51E107C0AA1FBB1FAF
:10490000A617B70710F0A61BB70B881F991F5A955B
:10491000A9F780959095BC01CD010895A1E21A2ECA
:10492000AA1BBB1BFD010DC0AA1FBB1FEE1FFF1F53
:10493000A217B307E407F50720F0A21BB30BE40BA3
:10494000F50B661F771F881F991F1A9469F76095EA
:104950007095809590959B01AC01BD01CF010895A4
:10496000052E97FB1EF400940E94C72457FD07D024
:104970000E948E2407FC03D04EF40C94C72450955B
:104980004095309521953F4F4F4F5F4F089590953B
:104990008095709561957F4F8F4F9F4F08950E942E
:1049A0001125A59F900DB49F900DA49F800D911D82
:1049B000112408952F923F924F925F926F927F92AF
:1049C0008F929F92AF92BF92CF92DF92EF92FF921F
:1049D0000F931F93CF93DF93CDB7DEB7CA1BDB0BCB
:1049E0000FB6F894DEBF0FBECDBF09942A88398870
:1049F00048885F846E847D848C849B84AA84B98477
:104A0000C884DF80EE80FD800C811B81AA81B98182
:104A1000CE0FD11D0FB6F894DEBF0FBECDBFED0196
:104A20000895A29FB001B39FC001A39F700D811D87
:104A30001124911DB29F700D811D1124911D0895A7
:104A40005058BB27AA270E9438250C941A240E948C
:104A50000C2438F00E94132420F039F49F3F19F4FD
:104A600026F40C9409240EF4E095E7FB0C9403243F
:104A7000E92F0E942B2458F3BA17620773078407A3
:104A8000950720F079F4A6F50C944D240EF4E095EA
:104A90000B2EBA2FA02D0B01B90190010C01CA01F8
:104AA000A0011124FF27591B99F0593F50F4503EA3
:104AB00068F11A16F040A22F232F342F4427585F95
:104AC000F3CF469537952795A795F0405395C9F7AD
:104AD0007EF41F16BA0B620B730B840BBAF0915065
:104AE000A1F0FF0FBB1F661F771F881FC2F70EC004
:104AF000BA0F621F731F841F48F4879577956795D7
:104B0000B795F7959E3F08F0B0CF9395880F08F0C2
:104B10009927EE0F9795879508950E94A1250C94EB
:104B20001A240E94132458F00E940C2440F029F407
:104B30005F3F29F00C94032451110C944E240C94E3
:104B400009240E942B2468F39923B1F3552391F390
:104B5000951B550BBB27AA2762177307840738F0EC
:104B60009F5F5F4F220F331F441FAA1FA9F335D049
:104B70000E2E3AF0E0E832D091505040E695001CFD
:104B8000CAF72BD0FE2F29D0660F771F881FBB1FB7
:104B9000261737074807AB07B0E809F0BB0B802D95
:104BA000BF01FF2793585F4F3AF09E3F510578F0C1
:104BB0000C9403240C944E245F3FE4F3983ED4F30A
:104BC000869577956795B795F7959F5FC9F7880F95
:104BD000911D9695879597F90895E1E0660F771FE7
:104BE000881FBB1F621773078407BA0720F0621B78
:104BF000730B840BBA0BEE1F88F7E09508950E94A3
:104C000006266894B1110C944E2408950E94332412
:104C100088F09F5798F0B92F9927B751B0F0E1F07D
:104C2000660F771F881F991F1AF0BA95C9F714C02D
:104C3000B13091F00E944D24B1E008950C944D24C0
:104C4000672F782F8827B85F39F0B93FCCF3869566
:104C500077956795B395D9F73EF4909580957095C3
:104C600061957F4F8F4F9F4F08950E94722308F4E4
:104C70008FEF0895EE0FFF1F0590F491E02D09943A
:104C80000F931F93CF93DF938230910510F482E04E
:104C900090E0E0912205F091230530E020E0B0E0C3
:104CA000A0E0309799F42115310509F44AC0281B7A
:104CB000390B24303105D8F58A819B816115710546
:104CC00089F1FB0193838283FE0111C040815181F0
:104CD0000281138148175907E0F04817590799F4E2
:104CE000109761F012960C93129713961C933296BC
:104CF000CF01DF91CF911F910F910895009322056D
:104D000010932305F4CF2115310551F042175307B5
:104D100038F0A901DB019A01BD01DF01F801C1CF23
:104D2000EF01F9CF9093230580932205CDCFFE01AB
:104D3000E20FF31F81939193225031093983288325
:104D4000D7CF2091200530912105232B41F42091CC
:104D500012013091130130932105209320052091F9
:104D60001001309111012115310541F42DB73EB7E5
:104D70004091140150911501241B350BE091200541
:104D8000F0912105E217F307A0F42E1B3F0B281723
:104D9000390778F0AC014E5F5F4F2417350748F0B4
:104DA0004E0F5F1F509321054093200581939193EF
:104DB0009FCFF0E0E0E09CCFCF93DF930097E9F046
:104DC000FC01329713821282A0912205B091230533
:104DD000ED0130E020E01097A1F420813181820FB5
:104DE000931F20912005309121052817390709F0DC
:104DF00061C0F0932105E0932005DF91CF910895E4
:104E0000EA01CE17DF07E8F54A815B819E01411573
:104E10005105B1F7E901FB83EA8349915991C40F28
:104E2000D51FEC17FD0761F4808191810296840FF4
:104E3000951FE90199838883828193819B838A836B
:104E4000F0E0E0E012968D919C9113970097B9F5F0
:104E50002D913C911197CD010296820F931F2091C5
:104E60002005309121052817390739F6309751F57B
:104E70001092230510922205B0932105A0932005DE
:104E8000BCCFD383C28340815181840F951FC81743
:104E9000D90761F44E5F5F4F88819981480F591F90
:104EA000518340838A819B819383828321153105BD
:104EB00009F0B0CFF0932305E09322059ECFFD01CA
:104EC000DC01C0CF13821282D7CFB0E0A0E0EBE6C6
:104ED000F7E20C94DC248C01009751F4CB010E9482
:104EE00040268C01C801CDB7DEB7E0E10C94F82470
:104EF000FC01E60FF71F9C0122503109E217F3076E
:104F000008F49DC0D901CD91DC911197C617D70740
:104F100098F0C530D10530F3CE0104978617970776
:104F200008F3C61BD70B2297C193D1936D937C9343
:104F3000CF010E94DC26D6CF5B01AC1ABD0A4C0122
:104F40008C0E9D1EA0912205B0912305512C412C61
:104F5000F12CE12C109731F58091200590912105DD
:104F60008815990509F05CC04616570608F058C028
:104F70008091100190911101009741F48DB79EB777
:104F80004091140150911501841B950BE817F90706
:104F900008F055C0F0932105E0932005F9017183D5
:104FA0006083A0CF8D919C91119712966C9012976F
:104FB00013967C901397A815B90559F56C0142E03A
:104FC000C40ED11CCA14DB0420F1AC014A195B09E0
:104FD000DA011296159780F06282738251834083C2
:104FE000D9016D937C93E114F10471F0D70113960C
:104FF000FC93EE93129776CF22968C0F9D1FF901AA
:1050000091838083F301EFCFF0932305E093220592
:1050100069CF4816590608F42C017D01D3019ACFB7
:10502000CB010E9440267C01009749F0AE01B801F7
:105030000E942A28C8010E94DC26870153CF10E075
:1050400000E050CF9111089581568A5108F48052A2
:1050500085580895FB01DC0102C001900D9241507A
:105060005040D8F70895FB01DC0101900D9200201B
:08507000E1F70895F894FFCF69
:105078000214050201FFFF01FFFF64201C641405F0
:1050880000002405800000000000990F5409340C2A
:10509800EA0B010164050464050000000052087869
:1050A80007E0079E081108EF07030800000000DB6F
:1050B8000A0D0A000A436F6D70696C65642061749B
:1050C8003A2046656220323920323032342C203181
:1050D800343A31333A3134005374617274696E670B
:1050E8002E2E2E0A0D0053656E64696E6720696E58
:1050F800697469616C20616C6C2D676F6F642072D4
:1051080065706F72742E206952656D61696E696E83
:10511800673A20002C2053746174757320426974B7
:10512800733A20307800456E61626C6520504320E8
:105138005265706F7274696E672F53687574646F07
:10514800776E004552524F523A2042616420422005
:1051580028426174746572792920636F6D6D616E80
:10516800643A2000426174746572792046756C6CEB
:1051780020436861726765205600426174746572E5
:105188007920456D7074792056004D696E75746587
:105198007320746F2066756C6C7920636861726720
:1051A800652066726F6D2064656164004D696E7577
:1051B80074657320746F2066756C6C7920646973EC
:1051C8006368617267652066726F6D2066756C6CC6
:1051D800004552524F523A204261642054696D652D
:1051E80020636F6D6D616E643A2000562A3130304D
:1051F800206F66206C6F7720766F6C74616765002E
:10520800562A313030206F662068696768657220D9
:10521800766F6C7461676500446562756720466CDB
:105228006167732028313A4D61696E29005D2E004F
:105238004820666F722048656C700A000A436D64E6
:105248003A200073687574646F776E2072657175A3
:1052580065737465640073687574646F776E20692C
:105268006D6D696E656E74002C20546F20456D70ED
:105278007479206D6D3A737320003A002C20436FC7
:105288006D6D207769746820504320286E656761CA
:10529800746976653D626164293A20002C200042D9
:0A52A8006174562A3130303A2000BC
:00000001FF
