:100000000C948D010C94B5010C94B5010C94B501C0
:100010000C94B5010C94B5010C94B5010C94B50188
:100020000C94B5010C94B5010C94B4080C942309FC
:100030000C94B5010C94B5010C94B5010C94B50168
:100040000C94B5010C94B5010C94B5010C94B50158
:100050000C94B5010C94B5010C94B5010C946A088C
:100060000C94B5010C94B5010C94B5010C94B50138
:100070000C94B5010C94B5010C94B5010C94B50128
:100080000C94B5010C94B5010C94B5010C94B50118
:100090000C94C00A0C94B5010C94B5010C94B501F4
:1000A0000C94B5010C94B5010C94B501040309043A
:1000B00012010002000000404123368000010102CD
:1000C000030141726475696E6F204C4C43004172AC
:1000D0006475696E6F206C656F6E6172646F00008D
:1000E000000000240027002A002D0030004D794335
:1000F0006F6F6C555053005062416300555053313F
:100100003000000000002300260029002C002F00F2
:10011000070605040100080A0B0C0D090000000089
:10012000250028002B002E003100040404040403E1
:100130000405020202020403020202020606060687
:1001400006060404020202040404080201104080AE
:1001500040102040804080080204018040201002AE
:1001600001108010204040200000000200090F0014
:1001700000030401000C000000000000000000006B
:100180000000000000000005840904A1010924A169
:100190000275089501150026FF00850109FE790208
:1001A000B123850209FF7903B123850309FD790194
:1001B000B12305858506098BB123851F098979043B
:1001C000B1238520098F7905B1238516092CB12328
:1001D0008510098D266400B1228518098EB123850A
:1001E0000E0967B18385170983B183850C09668180
:1001F000A30966B1A3850F098CB1A285110929B1A4
:10020000A285090985751027FFFF0000B1A3851A93
:10021000096A27FFFF00006601105500B1A3851C85
:10022000096981A30969B1A3850D096881A30968DA
:10023000B1A38508092A7510276405000016780007
:100240008122092AB1A20584851209571600802748
:10025000FF7F0000B1A285130955B1A2850A0940AC
:10026000150027FFFF00006721D1F0005505B123DD
:10027000850B093081A30930B1A38514095A75088B
:1002800015012503650055008122095AB1A2090212
:10029000A10285070585094475011500250181A383
:1002A0000944B1A3094581A30945B1A309D081A39C
:1002B00009D0B1A309D181A309D1B1A3094281A376
:1002C0000942B1A3094381A20943B1A2094B81A309
:1002D000094BB1A309DB81A309DBB1A3094681A3C3
:1002E0000946B1A3094781A30947B1A30584096859
:1002F00081A20968B1A2096981A30969B1A309733F
:1003000081A30973B1A3096581A30965B1A395020E
:100310008101B101C0C0C0000E0C11241FBECFEF7F
:10032000DAE0DEBFCDBF11E0A0E0B1E0E4E3FAE245
:1003300002C005900D92AE32B107D9F722E0AEE2CD
:10034000B1E001C01D92A635B207E1F711E0CDE89A
:10035000D1E004C02197FE010E94E413CC38D107FC
:10036000C9F70E94760C0C9418150C94000081506B
:100370008F3008F047C0E82FF0E0EF53FE4F0C94A9
:10038000E413DE01E201D001D601DA010202020229
:100390000202E501EB01EF01F301F9010202FD01A7
:1003A000809180008F7780938000089580918000F5
:1003B0008F7DF9CF80918000877FF5CF84B58F77CF
:1003C00084BD089584B58F7DFBCF809190008F7799
:1003D000809390000895809190008F7DF9CF809157
:1003E0009000877FF5CF8091C0008F778093C00009
:1003F00008958091C0008F7DF9CF8091C200877FE2
:100400008093C20008951F93CF93DF93282F30E08D
:10041000F901E859FE4F8491F901E75BFE4FD49151
:10042000F901E65DFE4FC491CC23A9F0162F81118E
:100430000E94B701EC2FF0E0EE0FFF1FE45EFE4FCD
:10044000A591B4918FB7F894EC91111108C0D09593
:10045000DE23DC938FBFDF91CF911F910895DE2BB8
:10046000F8CF3FB7F8948091130290911402A091B5
:100470001502B091160226B5A89B05C02F3F19F0B2
:100480000196A11DB11D3FBFBA2FA92F982F882714
:10049000BC01CD01620F711D811D911D42E0660FEF
:1004A000771F881F991F4A95D1F70895CF92DF9241
:1004B000EF92FF920E9431026B017C010E94310297
:1004C0006C197D098E099F09683E7340810591056D
:1004D000A8F3FF90EF90DF90CF9008954091D60160
:1004E0005091D7012091D4013091D5014217530783
:1004F000B4F49091E8009570E1F39091E80092FDDA
:1005000019C08093F1008091D6019091D701019696
:100510008F739927892B19F48EEF8093E8008091CF
:10052000D6019091D70101969093D7018093D6017F
:1005300081E0089580E00895DF92EF92FF920F939B
:100540001F93CF93DF93D82E8A01EB017B01E40E3A
:10055000F51ECE15DF0559F0D7FE12C0FE018491BD
:100560000E946E0221968111F4CF0FEF1FEFC80198
:10057000DF91CF911F910F91FF90EF90DF90089541
:100580008881EECF8F929F92AF92BF92CF92DF92EF
:10059000EF92FF920F931F93CF93DF936B018A012A
:1005A0009091DC0191110FC08FEF9FEFDF91CF9100
:1005B0001F910F91FF90EF90DF90CF90BF90AF9081
:1005C0009F908F9008959091DA0190FF05C09091CF
:1005D000E00092609093E000C02FD12FF12C9AEFB1
:1005E000B92E982F9770992E20E4822E8074E82ED1
:1005F0003AE3A32E209719F4FF2009F44AC08FB7DD
:10060000F8949092E9009091E80095FD07C08FBFA3
:10061000BA94BB2049F20E945602ECCF9091F200AE
:10062000282D291B8FBF222399F32C171D0611F0AB
:100630000CF02C2F8FB7F8949092E9009091E8007D
:1006400095FD02C08FBFD6CF422F50E0C41BD50B03
:10065000F601215020F091919093F100FACFC40E51
:10066000D51EFF2021F0A092E800F12CEBCF909155
:10067000E80095FD07C0A092E800FF24F3942097BE
:1006800009F3F3CF2097F1F6EE20E1F2A092E80013
:10069000D9CF5D9884E68093D901C80187CF615096
:1006A00030F02091F100FC0120830196F8CF2898CA
:1006B00084E68093D80108958091C50181110BC013
:1006C0001092C10181E08093C2011092C401109286
:1006D000C3018093C50181EC91E008950F931F93AE
:1006E000CF93DF931F92CDB7DEB719820E945C03D0
:1006F000DC0112960D911C910115110589F0D801AC
:10070000ED91FC910280F381E02DBE016F5F7F4F80
:10071000C801099597FD04C0F80100851185ECCF4B
:1007200089810F90DF91CF911F910F9108952091B2
:100730007701260F3327331F21323105ECF4209146
:100740009B01FC0190E080E0243069F082E0089594
:10075000A09177012191AC01495A5E4FA40FB52FAA
:10076000B11D2C930196861798F380917701680F3D
:100770006093770180E0089581E0089508958FEFF8
:100780009FEF08958FEF9FEF08958091500190E0C3
:100790009195819591090895CF93DF93CB01EA015B
:1007A000642F0E949703CE01DF91CF910895CF93DC
:1007B000DF931F92CDB7DEB7698361E0CE0101966A
:1007C0000E94970381E090E00F90DF91CF91089510
:1007D00090E080E00895FC012FB7F89480910F021B
:1007E00090911002A0911102B09112022FBF40818E
:1007F000518162817381841B950BA60BB70B4481D9
:10080000558166817781481759076A077B0730F45D
:100810008085882319F0108681E081870895DC01A6
:100820005296ED91FC9130E020E03097A1F0DC0190
:1008300054964D915C912417350758F442815381A9
:100840004617570741F00190F081E02D2F5F3F4F91
:10085000ECCFF0E0E0E0CF010895CF93DF93CDB788
:10086000DEB7A0970FB6F894DEBF0FBECDBFFC0178
:10087000DB018C918F5F8C939E012D5F3F4F88E051
:10088000D9011D928A95E9F799E0998384E08A83DA
:1008900042E04D8383E08E839A8721E22B8791E0AB
:1008A0009C879D872E879F8792E2988B57E05B8B72
:1008B00095E09C8B21E82D8B8E8B20E430E0388FE7
:1008C0002F8B64E1698F5A8F9B8F4C8F8D8F3F8F59
:1008D0002E8F8AE088A382818B8396858785998B6A
:1008E0008A8B40E250E0BE016F5F7F4F80E00E9444
:1008F0009C02A0960FB6F894DEBF0FBECDBFDF916D
:10090000CF910895CF93DF938091480181116BC0FF
:1009100082E08093320181E08093330128E331E06B
:100920003093350120933401109237011092360133
:1009300029E131E030932F0120932E0110923B01E9
:1009400010923A0110923D0110923C0180933E01B9
:1009500080933F0181EC8093380180EC80933901D2
:100960000E945C03FC01818190913201482F490F64
:100970005527551F483051059CF5A281B38110972A
:1009800009F52EE231E03383228320812093300168
:100990008093310180913301820F80832091340153
:1009A000A22FB09135018A2F821B8917C8F481814B
:1009B0003D91C82FD0E0C353DE4F38838F5F8183D2
:1009C000F2CFD90118962D913C9119972115310537
:1009D000C1F72EE231E019963C932E931897D5CFAC
:1009E00081E0809348018EE291E0DF91CF910895FC
:1009F000CF92DF92EF92FF920F931F93CF93DF93EB
:100A000000D0CDB7DEB78C017B016A010E94820461
:100A10001A83098341E050E0BE016F5F7F4F81E0A0
:100A20000E94C2028C0197FD09C0A601B70181E4B2
:100A30000E94C202080F191F97FD8C01C8010F9078
:100A40000F90DF91CF911F910F91FF90EF90DF906A
:100A5000CF9008958F929F92AF92BF92EF92FF92A4
:100A60000F931F93CF93DF93CDB7DEB7A1970FB648
:100A7000F894DEBF0FBECDBF7C01FA01CB0119A2F5
:100A8000223008F42AE08E010F5D1F4F822E912C38
:100A9000B12CA12CBF01A50194010E946F12F90194
:100AA000CA016A3074F5605DD8016E938D01232B05
:100AB000242B252B79F790E080E0109789F0FD0139
:100AC00001900020E9F73197AF014A1B5B0BD7017A
:100AD000ED91FC910280F381E02DB801C7010995E9
:100AE000A1960FB6F894DEBF0FBECDBFDF91CF91B8
:100AF0001F910F91FF90EF90BF90AF909F908F90BC
:100B00000895695CD1CFBF92CF92DF92EF92FF92AE
:100B10000F931F93CF93DF93DC01EB0158968D91D8
:100B20009C915997892BB9F08D01B12CCB2CD12CEC
:100B3000F801E08CF18CC7010E942F11C816D9066C
:100B400010F5F701EC0DFD1DE491DE01AC0DBD1DAE
:100B5000EC93B394EBCF88E4888389E4898384E4BD
:100B60008A831E968C911E978F708F5B8B831E9647
:100B70008D919C9124E0969587952A95E1F78F7049
:100B80008F5B8C8385E0DF91CF911F910F91FF9058
:100B9000EF90DF90CF90BF900895CF92DF92EF92C9
:100BA000FF920F931F93CF93DF9300D0CDB7DEB7A3
:100BB0007C01FB011381133009F046C0628170E0B3
:100BC0007F6F0E940F04009709F46AC0DC0114963D
:100BD000FC9014971596DC908F2D9D2D0E942F115F
:100BE000E82E1A8381E08E0D880F898342E050E061
:100BF000BE016F5F7F4F80E00E949C02CF2C0F2DC3
:100C00001D2D802F8C198E15E8F4F80184918983AD
:100C10001A8242E050E0BE016F5F7F4F80E00E9489
:100C20009C020F5F1F4F892B61F780E090E00F90CF
:100C30000F90DF91CF911F910F91FF90EF90DF9078
:100C4000CF90089581E0F2CF8081813849F512324A
:100C500039F5D70112962C91129784819581281726
:100C60001906F1F41C960D911C91D12CC12C011583
:100C7000110589F0F801448155816281738180E812
:100C80000E949C028F3F980791F2C80ED91ED8018E
:100C90000D911C91ECCF81E0F701808BC601C7CF8D
:100CA00090E080E0C4CF8F929F92AF92BF92CF929C
:100CB000DF92EF92FF920F931F93CF93DF937C010C
:100CC000EB016C0182E0C80ED11C4701E5E08E0EFD
:100CD000911C10E000E0F60141916F0150E070E0DE
:100CE00060E02AE0CE010E942A055C01E881F981DA
:100CF0000190F081E02D6EE2CE0109958A0D9B1DD9
:100D0000080F191FC814D90431F7F701458150E0C5
:100D100070E060E02AE0CE010E942A05800F911F5A
:100D2000DF91CF911F910F91FF90EF90DF90CF90C7
:100D3000BF90AF909F908F9008951F93CF93DF93B4
:100D400085ED8093BC008091530190915401A09156
:100D50005501B09156010796A11DB11D23E0B6952E
:100D6000A795979587952A95D1F72091BC0024FDEA
:100D700003C010929B0152C0409153015091540105
:100D80006091550170915601452B462B472B69F315
:100D90000097A105B10541F02AE22A95F1F700C0BC
:100DA0000197A109B109E1CF80915201C1E0C0933F
:100DB0005101882399F1D091B8001091BA00809127
:100DC000BC008A7B8093BC0060E082E00E9403024A
:100DD00060E083E00E94030210929B01C0939D019A
:100DE00010929C0161E082E00E94030261E083E0D6
:100DF0000E9403028091B9008E7F8093B900809198
:100E0000B9008D7F8093B90088E48093B80085E4B1
:100E10008093BC001093BA00D093B800DF91CF91BB
:100E20001F910895AF92BF92CF92DF92EF92FF92FF
:100E30000F931F93CF93DF937C016B015A01E9015C
:100E4000DC0152960D911C9190E080E00115110596
:100E500031F589E090E00E94EA13FC0111821082D2
:100E6000D382C282B582A482DD27D783C683D7010D
:100E700053969C938E935297F70184899589019696
:100E8000958B848BDF91CF911F910F91FF90EF9005
:100E9000DF90CF90BF90AF90089501968901F8013F
:100EA000228133812C153D0569F320813181211583
:100EB000310599F789E090E00E94EA13FC01118264
:100EC0001082D382C282B582A482DD27D783C683F3
:100ED000D8018D939C93D0CFEF92FF920F931F93E5
:100EE000CF93DF93EC018B017A010E94820497017A
:100EF000A801BE01DF91CF911F910F91FF90EF905C
:100F00000C941207CF92DF92EF92FF920F931F93F0
:100F1000CF93DF93C82F6B018A010E9482046C2F4C
:100F200070E021E030E0A6010E941207EC01892B5D
:100F300089F00E9482047C01C8010E942F11F601F1
:100F4000608170E07F6F9C01A801C7010E941207B9
:100F5000C80FD91FCE01DF91CF911F910F91FF9044
:100F6000EF90DF90CF9008959F92AF92BF92CF9273
:100F7000DF92EF92FF920F931F93CF93DF93FC01C9
:100F80004281FB01248135814217130611F020E0D4
:100F900029C0EB0131812081213AA9F5313079F561
:100FA0002381233011F021E01DC0628170E00E9496
:100FB0000F04EC01009759F341E050E0BC016E5F73
:100FC0007F4F80E00E949C021816190604F74E819C
:100FD0005F816C817D8180E00E949C0221E0181677
:100FE0001906ACF6822FDF91CF911F910F91FF90E0
:100FF000EF90DF90CF90BF90AF909F90089521E049
:10100000333029F6EFCF213211F63B3021F4228123
:10101000FC01208BC8CF3A3021F42281FC01218BC6
:10102000C2CF393009F0B3CF2381233009F0AFCFDD
:10103000628170E00E940F046C01009709F4A7CF51
:101040000E811F81FC01868197810196081719077F
:1010500009F09DCF81E090E00115110509F0C8016C
:101060000E94EA137C01E8019BEF992E2097C1F0C2
:101070005E01C134D1051CF080E4A82EB12C809112
:10108000E80082FFFCCFC8018C1B9D0B6A2D8E0DE2
:101090009F1D0E944F039092E800CA19DB09E6CF1A
:1010A000F7012081F601828193812817190609F042
:1010B0006ECF46815781B7016F5F7F4F84819581E5
:1010C0000E940F15E114F10409F46DCFC7010E94CD
:1010D000861469CF1F920F920FB60F9211242F938F
:1010E0003F938F939F93AF93BF9380910F02909103
:1010F0001002A0911102B091120230910E0223E071
:10110000230F2D3758F50196A11DB11D20930E0216
:1011100080930F0290931002A0931102B0931202D9
:101120008091130290911402A0911502B0911602C1
:101130000196A11DB11D8093130290931402A093F8
:101140001502B0931602BF91AF919F918F913F917D
:101150002F910F900FBE0F901F90189526E8230F28
:101160000296A11DB11DD2CF1F920F920FB60F9202
:1011700011248F939F938091E1009091E100937FE0
:101180009093E10083FF0FC01092E90091E09093EB
:10119000EB001092EC0092E39093ED001092DC01D2
:1011A00098E09093F00082FF22C093E09093E900D2
:1011B0009091F200992319F09AE39093E8009091AE
:1011C000D901992341F09091D90191509093D9017F
:1011D000911101C05D9A9091D801992341F09091AD
:1011E000D80191509093D801911101C0289A84FFA1
:1011F00018C08091E2008E7E81608093E200809131
:10120000E1008F7E8093E1008091DA018E7E806123
:101210008093DA019F918F910F900FBE0F901F90D6
:10122000189580FFF7CF8091E2008E7E80618093D9
:10123000E2008091E1008E7E8093E1008091DA01EE
:101240008E7E8160E5CF1F920F920FB60F92112410
:10125000CF92DF92EF92FF920F931F932F933F93C2
:101260004F935F936F937F938F939F93AF93BF93AE
:10127000EF93FF93CF93DF93CDB7DEB76C97DEBFCD
:10128000CDBF1092E9008091E80083FF25C068E09F
:10129000CE0145960E944F0382EF8093E8008D892E
:1012A00087FF39C09091E80090FFFCCF982F90768F
:1012B00009F034C19E894F89588D2F89F88C91117E
:1012C00031C0803861F58091DB018093F10010928C
:1012D000F1008EEF8093E8006C960FB6F894DEBFB5
:1012E0000FBECDBFDF91CF91FF91EF91BF91AF9135
:1012F0009F918F917F916F915F914F913F912F912E
:101300001F910F91FF90EF90DF90CF900F900FBE45
:101310000F901F9018959EEF9093E800C7CF109202
:10132000F100D5CF913059F48111D3CF413051051F
:1013300081F68091DB018D7F8093DB01CACF9330F2
:1013400049F48111C6CF4130510519F68091DB0176
:101350008260F2CF953041F48091E80080FFFCCFAD
:1013600020682093E300B5CF963009F0A9C00B8D1B
:101370001C8D82E01092E9001092D7011092D601E4
:10138000F8122EC01092D5011092D4010E946E0363
:101390001F8299E09983FA8291E09E8390EA988770
:1013A0009AEF99872091D6013091D701275F3F4F5F
:1013B0003C832B838D831092E9001092D701109209
:1013C000D6011093D5010093D40149E050E0BE014D
:1013D0006F5F7F4F80E00E949C020E946E0379CF76
:1013E0001093D5010093D4010E945C03DC01129696
:1013F0000D911C910115110509F4BCC0D801ED91A6
:10140000FC910480F581E02DBE016B5E7F4FC80129
:101410000995009709F0A9C0F80100851185EACF68
:10142000F3E0FF120EC08F89882309F440C0823098
:1014300061F440E860E18EEC90E00E94DB0B8111EA
:1014400048CF81E28093EB0047CF813029F440E818
:101450006BE082EC90E0F1CF833099F70E945C035F
:10146000DC011296ED90FC908E010F5F1F4F68011A
:10147000E114F10479F0D701ED91FC910680F78138
:10148000E02DB801C7010995080F111DF701E0848F
:10149000F184EECFD8011C92F60101900020E9F70B
:1014A0003197BF016C197D0940E0C601C6CF6CEAD7
:1014B00070E0FB01449150E080E80E949C0209CF5B
:1014C000973009F4BECF983021F481E08093F10089
:1014D00000CF993009F0FDCE837009F0B2CFEEEC69
:1014E000F1E081E031E096E32191222371F08093D5
:1014F000E9003093EB00DF0111972C912093EC0071
:101500009093ED008F5F873079F78EE78093EA0044
:101510001092EA008F898093DC01DBCE8B8D9C8D4D
:101520001092E9001092D7011092D6019093D50144
:101530008093D4010E945C03DC0112960D911C91F2
:101540000115110509F47DCFD801ED91FC910190B1
:10155000F081E02DBE016B5E7F4FC80109958111BE
:10156000B8CEF80100851185EBCF181619060CF4DA
:10157000B0CE67CFF1E0FF1253CF60EB70E099CFB0
:101580001F920F920FB60F9211242F933F934F93F8
:101590005F936F937F938F939F93AF93BF93EF93DB
:1015A000FF938091B900887F803609F44AC0F0F536
:1015B000883209F4A5C018F5803109F499C0B8F44F
:1015C000882309F4F5C0883009F492C0FF91EF91A7
:1015D000BF91AF919F918F917F916F915F914F914B
:1015E0003F912F910F900FBE0F901F90189588314B
:1015F00009F486C0803251F780939A0114C0803478
:1016000009F49BC040F48033B9F38833F9F6809332
:101610009A0185ECAEC0803509F483C0883509F4A1
:1016200094C0883499F60E949D06D0CF883909F479
:101630008AC038F5883729F050F4883611F08037A1
:1016400029F683E080939B011092990155C0883858
:1016500009F479C0803919F0803809F0B7CF80914A
:101660009901803208F06FC0E091990181E08E0FFE
:10167000809399018091BB00F0E0E758FE4F808392
:101680003BC0803B39F0D0F4803A09F477C0883A07
:1016900009F09CCF84E080939B0110927801109216
:1016A0007701F0E0E0E009958091770181110FC0AA
:1016B00081E0809377011092570109C0803C09F4C2
:1016C000A8CF883C09F4A5CF883B09F07FCFE091F3
:1016D000780181E08E0F80937801F0E0E95AFE4FA7
:1016E00080818093BB00909178018091770129C01F
:1016F0008091C0018093BB0085EC8093BC0066CFD5
:101700009091BF018091BE01981758F5E091BF01FB
:1017100081E08E0F8093BF01F0E0E256FE4F8081A2
:10172000E9CFE091BF0181E08E0F8093BF018091EE
:10173000BB00F0E0E256FE4F80839091BF018091A4
:10174000BE019817C8F285E8D8CFE091BF0181E0CB
:101750008E0F8093BF018091BB00F0E0E256FE4FF8
:10176000808380919D0181115ECF81E080939C01F7
:1017700084EA8093BC0010929B0128CF85EC809373
:10178000BC0010929B0180919901803230F4E0916D
:101790009901F0E0E758FE4F10826091990170E0E6
:1017A00089E791E0F0E0E0E00995109299010ECF11
:1017B00010929A0138CFEF92FF920F931F93CF931D
:1017C000DF93F82E192FE62E042F81E0860F880F65
:1017D0000E946E0283E00E946E02CF2DD12FEC0E8C
:1017E000FD2EF11CCE15DF05B9F007FF13C0FE0179
:1017F00084910E946E02182F80E00E946E02812365
:1018000021968111EFCFDF91CF911F910F91FF9022
:10181000EF9008958881EDCF81E0F5CF8CE291E0E3
:1018200090931802809317021092190210921A02D4
:1018300010921B0210921C0282E080932B0281E026
:1018400080932C0293E090932D02909123029111AA
:1018500012C010921E0210921D0227E831E0309350
:10186000200220931F0220E931E0309322022093CE
:101870002102809323020E948204FC01A485B58585
:10188000109751F58DE192E095878487868597853D
:101890002091210230912202820F931F9787868721
:1018A0008CE291E090934D0280934C0210924E0294
:1018B00010924F02109250021092510210924B025D
:1018C00010924A0210924102109240021092370286
:1018D000109236020895DC018D919C91119700972A
:1018E000D1F78DE192E08D939C93D0CF789484B51D
:1018F000826084BD84B5816084BD85B5826085BD0C
:1019000085B5816085BD80916E00816080936E0099
:10191000109281008091810082608093810080918B
:10192000810081608093810080918000816080933C
:10193000800080919100826080939100809191005D
:1019400081608093910080919000816080939000ED
:101950008091C10084608093C1008091C100826049
:101960008093C1008091C10081608093C10080910B
:10197000C30081608093C3008091C0008260809327
:10198000C0008091C20081608093C20080917A0083
:10199000846080937A0080917A00826080937A00DC
:1019A00080917A00816080937A0080917A008068CB
:1019B00080937A001092DC011092DB011092DA0120
:1019C0008091D70081608093D70080EA8093D8000F
:1019D00089B5806189BD89B5826089BD09B400FE81
:1019E000FDCF0E9456028091D8008F7C8061809349
:1019F000D8008091E000807F8093E0008091E1003A
:101A00008E7E8093E1008DE08093E200559A209ACB
:101A100008EE11E0D0E0C0E0CE010E945712F801BC
:101A200081938F012196C632D105B1F78091E801EB
:101A30008A3A61F48091E901853541F480910C0284
:101A400090910D028130954A09F446C010920B0224
:101A50008AEA8093E80185E58093E90181E095EACF
:101A600090930D0280930C0280E29CE19093EB0135
:101A70008093EA019093ED018093EC0188E592E078
:101A80009093EF018093EE0184E695E09093F1014D
:101A90008093F0018EE794E09093F3018093F2013C
:101AA0001092FA011092F9011092F8011092F701C8
:101AB00088E795E09093FE018093FD0184E690E035
:101AC0009093FC018093FB018AE08093F40185E010
:101AD0008093F5011092F6010E9482040E94820414
:101AE00021E030E04BE252E061E070E00E9412073A
:101AF0000E94820421E030E04DE252E062E070E0BA
:101B00000E9412070E94820421E030E04CE252E081
:101B100063E070E00E9412070E9482042CEF30E024
:101B2000FC01318F208FEDE4F1E02491EEE2F1E051
:101B300084918823C1F090E0880F991FFC01E15245
:101B4000FF4FA591B491FC01E45EFE4FC591D49185
:101B50009FB7F8943C91822F809583238C93888142
:101B6000282B28839FBFE0E6F1E02491E1E4F1E037
:101B700084918823C1F090E0880F991FFC01E15205
:101B8000FF4FA591B491FC01E45EFE4FC591D49145
:101B90009FB7F8948C91E22FE0958E238C938881E7
:101BA000E823E8839FBF61E08DE00E9403028091FB
:101BB000E6019091E701856091609093E701809341
:101BC000E60142E050E066EE71E087E090E00E94BE
:101BD0006C0742E050E06AE071E08DE090E00E9426
:101BE0006C0742E050E06AEE71E08AE190E00E940A
:101BF0006C0742E050E06CEE71E08CE190E00E94F6
:101C00006C0742E050E06EEE71E088E090E00E94E8
:101C10006C0742E050E065E071E083E190E00E94F3
:101C20006C0742E050E067E071E082E190E00E94E2
:101C30006C0741E050E064E071E086E090E00E94D3
:101C40006C0741E050E063E071E086E190E00E94C3
:101C50006C0742E050E066E271E08AE090E00E94AA
:101C60006C0742E050E061E071E08BE090E00E94A0
:101C70006C0747EF50E065E271E08FE10E94820758
:101C80004DEE50E064E271E080E20E94820741E0A4
:101C900050E060E071E084E190E00E946C0741E078
:101CA00050E063E271E087E190E00E946C0741E060
:101CB00050E069E071E08EE090E00E946C0741E046
:101CC00050E06CE071E08CE090E00E946C0741E035
:101CD00050E064EF71E08FE090E00E946C0741E01B
:101CE00050E065EF71E081E190E00E946C0741E017
:101CF00050E062E271E080E190E00E946C0741E018
:101D000050E061E271E088E190E00E946C07809110
:101D1000F0019091F10190930E0180930D0141E04B
:101D200050E06CE071E08CE090E00E94F80442E04A
:101D300050E066EE71E087E090E00E94F8041092B7
:101D40004B022FB7F89480910F0290911002A0914E
:101D50001102B09112022FBF80934202909343026E
:101D6000A0934402B09345028AE090E0A0E0B0E086
:101D70008093460290934702A0934802B093490291
:101D800081E080934A0270E0272E70E0372ED1E088
:101D90008EE292E00E94EB0380913702909136022E
:101DA000911121C028EE33E040E050E02093320250
:101DB0003093330240933402509335029FB7F89426
:101DC00040910F0250911002609111027091120225
:101DD0009FBF40932E0250932F0260933002709366
:101DE0003102D093360210923702882309F482C15F
:101DF000ECE6F1E08491EDE4F1E0C491EEE2F1E093
:101E00001491112309F4F0C181110E94B701E12F4F
:101E1000F0E0EE0FFF1FEE5FFE4FA591B4918C91A5
:101E2000C82391E080E009F490E0092F182FE5E144
:101E3000F1E0849120917B00982F990F990F907277
:101E40002F7D922B90937B008770806480937C0021
:101E500080917A00806480937A0080917A0086FD78
:101E6000FCCF6091780070917900C090F901D0901A
:101E7000FA01F12CE12C4090F7015090F801712CFF
:101E8000612C2091FD013091FE0150E040E02C19C1
:101E90003D094E095F09072E000C880B990B641948
:101EA0007509860997090E945F122091FB01309104
:101EB000FC0150E040E024193509460957090E9409
:101EC0009112C20ED31EE41EF51ED7FC90C1D09213
:101ED0000E01C0920D018091F601882309F4A1C181
:101EE000C090F201D090F301F12CE12C20910D0172
:101EF00030910E01032E000C440B550B2C193D099B
:101F00004E095F09A4E6B0E00E94B0122091F001F2
:101F10003091F10150E040E02C193D094E095F0974
:101F20000E949112C0E037FD06C02536310514F03D
:101F300024E630E0C22FC0930C016091EC01709157
:101F4000ED0190E080E00E9438116B017C016C2F64
:101F500070E090E080E00E943A119B01AC01C70163
:101F6000B6010E94991120E030E048EC52E40E9452
:101F700037136B017C0120E030E0A9010E94DF13E0
:101F800020E030E040E05FE387FD36C1C701B601E5
:101F90000E94CB120E94A91370930B0160930A0157
:101FA0008091E6019091E7010115110509F429C11D
:101FB00085609093E7018093E6018091E60190911E
:101FC000E70120910901C2131EC191609093E701BE
:101FD0008093E6018091E6019091E70101151105DA
:101FE00009F016C12091EE013091EF0162177307DD
:101FF00008F00BC182629093E7018093E601809123
:10200000E6019091E7012091070130910801121635
:1020100013060CF0FFC094609093E7018093E601F3
:102020008091E6019091E7019C0120723470232B8E
:1020300009F4F2C098609093E7018093E6018091E3
:10204000E6019091E70188609093E7018093E601B3
:102050002091E4013091E5018217930789F4809182
:10206000E301C8130DC08091E1019091E20168176E
:10207000790731F48091DF019091E0014B97D4F121
:1020800041E050E06CE071E08CE090E00E94F804E8
:10209000012B41F442E050E06AE071E08DE090E015
:1020A0000E94F80442E050E066EE71E087E090E0C4
:1020B0000E94F8041092E0011092DF012091E601E5
:1020C0003091E7013093E5012093E40120910C0168
:1020D0002093E30120910A0130910B013093E2013A
:1020E0002093E10197FD9AC081E090E09093DE019A
:1020F0008093DD018091DD019091DE0181309105B9
:1021000009F494C008F4A2C0029709F497C082E4CD
:1021100092E00E94EB0380914B02811110924A02DF
:1021200010924B02882331F1109241022FB7F8949C
:1021300080910F0290911002A0911102B0911202B1
:102140002FBF8093380290933902A0933A02B09344
:102150003B02C401B0E0A0E080933C0290933D02BA
:10216000A0933E02B0933F02D093400260E08DE026
:102170000E94030288E392E00E94EB0380914102F7
:1021800081111092400210924102882331F1109285
:102190004B022FB7F89480910F0290911002A091FA
:1021A0001102B09112022FBF80934202909343021A
:1021B000A0934402B0934502C501B0E0A0E0809333
:1021C000460290934702A0934802B0934902D093ED
:1021D0004A0261E08DE00E9403022114310409F4F7
:1021E000D7CD0E940000D3CD10E000E020CE1092A9
:1021F0000E0110920D016FCEC701B6010E94CA12E6
:10220000C9CE8A7FD6CE9E7FE1CE8F7D8260F3CE0F
:102210008D7DF1CE9B7F00CF977F0DCF82E090E048
:1022200065CF1092DE011092DD0164CF44E6842E6A
:10223000912C54E8A52E53E0B52E69CF24E8822EC8
:1022400023E0922E34E6A32EB12C61CF84EF882EAA
:102250009924939494EFA92EBB24B39458CFFC01F6
:1022600005900020E9F7809590958E0F9F1F0895A7
:10227000E89409C097FB3EF4909580957095619520
:102280007F4F8F4F9F4F9923A9F0F92F96E9BB27D6
:102290009395F695879577956795B795F111F8CF52
:1022A000FAF4BB0F11F460FF1BC06F5F7F4F8F4FBD
:1022B0009F4F16C0882311F096E911C0772321F0B3
:1022C0009EE8872F762F05C0662371F096E8862F4B
:1022D00070E060E02AF09A95660F771F881FDAF7A2
:1022E000880F9695879597F90895990F0008550FCF
:1022F000AA0BE0E8FEEF16161706E807F907C0F08C
:1023000012161306E407F50798F0621B730B840B93
:10231000950B39F40A2661F0232B242B252B21F46D
:1023200008950A2609F4A140A6958FEF811D811D0D
:1023300008950E94AC110C941D120E940F1238F0E7
:102340000E94161220F0952311F00C9406120C94A2
:102350000C1211240C9451120E942E1270F3959FAE
:10236000C1F3950F50E0551F629FF001729FBB278C
:10237000F00DB11D639FAA27F00DB11DAA1F649F28
:102380006627B00DA11D661F829F2227B00DA11DDB
:10239000621F739FB00DA11D621F839FA00D611D61
:1023A000221F749F3327A00D611D231F849F600D82
:1023B000211D822F762F6A2F11249F5750409AF0AB
:1023C000F1F088234AF0EE0FFF1FBB1F661F771F37
:1023D000881F91505040A9F79E3F510580F00C9402
:1023E00006120C9451125F3FE4F3983ED4F38695A5
:1023F00077956795B795F795E7959F5FC1F7FE2BA2
:10240000880F911D9695879597F9089597F99F677D
:1024100080E870E060E008959FEF80EC089500246C
:102420000A941616170618060906089500240A9439
:1024300012161306140605060895092E0394000CBF
:1024400011F4882352F0BB0F40F4BF2B11F460FF4E
:1024500004C06F5F7F4F8F4F9F4F089557FD905877
:10246000440F551F59F05F3F71F04795880F97FB58
:10247000991F61F09F3F79F0879508951216130612
:102480001406551FF2CF4695F1DF08C01616170641
:102490001806991FF1CF8695710561050894089576
:1024A000E894BB2766277727CB0197F90895F99918
:1024B000FECF92BD81BDF89A992780B50895DB01C2
:1024C0008F939F930E94B012BF91AF91A29F800DF6
:1024D000911DA39F900DB29F900D11240895A1E22C
:1024E0001A2EAA1BBB1BFD010DC0AA1FBB1FEE1F8E
:1024F000FF1FA217B307E407F50720F0A21BB30BD9
:10250000E40BF50B661F771F881F991F1A9469F754
:1025100060957095809590959B01AC01BD01CF01B0
:102520000895052E97FB1EF400940E94A81257FDF3
:1025300007D00E946F1207FC03D04EF40C94A8122F
:1025400050954095309521953F4F4F4F5F4F0895DF
:1025500090958095709561957F4F8F4F9F4F08950F
:102560000E94BB12A59F900DB49F900DA49F800D5B
:10257000911D11240895A29FB001B39FC001A39F94
:10258000700D811D1124911DB29F700D811D1124AC
:10259000911D08955058BB27AA270E94E2120C945F
:1025A0001D120E940F1238F00E94161220F039F40A
:1025B0009F3F19F426F40C940C120EF4E095E7FBFF
:1025C0000C940612E92F0E942E1258F3BA176207D4
:1025D00073078407950720F079F4A6F50C94501240
:1025E0000EF4E0950B2EBA2FA02D0B01B90190012E
:1025F0000C01CA01A0011124FF27591B99F0593F72
:1026000050F4503E68F11A16F040A22F232F342FB9
:102610004427585FF3CF469537952795A795F04007
:102620005395C9F77EF41F16BA0B620B730B840B1C
:10263000BAF09150A1F0FF0FBB1F661F771F881FD4
:10264000C2F70EC0BA0F621F731F841F48F487952C
:1026500077956795B795F7959E3F08F0B0CF93951E
:10266000880F08F09927EE0F9795879508950E9497
:102670004B130C941D120E94161258F00E940F1258
:1026800040F029F45F3F29F00C94061251110C948C
:1026900051120C940C120E942E1268F39923B1F37C
:1026A000552391F3951B550BBB27AA276217730778
:1026B000840738F09F5F5F4F220F331F441FAA1F0C
:1026C000A9F335D00E2E3AF0E0E832D091505040C8
:1026D000E695001CCAF72BD0FE2F29D0660F771F76
:1026E000881FBB1F261737074807AB07B0E809F05C
:1026F000BB0B802DBF01FF2793585F4F3AF09E3FE1
:10270000510578F00C9406120C9451125F3FE4F3DB
:10271000983ED4F3869577956795B795F7959F5F23
:10272000C9F7880F911D9695879597F90895E1E06F
:10273000660F771F881FBB1F621773078407BA07CE
:1027400020F0621B730B840BBA0BEE1F88F7E09529
:1027500008950E94B0136894B1110C945112089519
:102760000E94361288F09F5798F0B92F9927B751D9
:10277000B0F0E1F0660F771F881F991F1AF0BA9525
:10278000C9F714C0B13091F00E945012B1E0089521
:102790000C945012672F782F8827B85F39F0B93F13
:1027A000CCF3869577956795B395D9F73EF49095D8
:1027B0008095709561957F4F8F4F9F4F08950E9430
:1027C000751108F48FEF0895EE0FFF1F0590F49137
:1027D000E02D09940F931F93CF93DF9382309105DF
:1027E00010F482E090E0E0915402F091550230E064
:1027F00020E0B0E0A0E0309799F42115310509F40C
:102800004AC0281B390B24303105D8F58A819B81B9
:102810006115710589F1FB0193838283FE0111C06B
:10282000408151810281138148175907E0F0481710
:10283000590799F4109761F012960C93129713961A
:102840001C933296CF01DF91CF911F910F91089584
:102850000093540210935502F4CF2115310551F025
:102860004217530738F0A901DB019A01BD01DF01CE
:10287000F801C1CFEF01F9CF909355028093540234
:10288000CDCFFE01E20FF31F8193919322503109C6
:1028900039832883D7CF2091520230915302232BC2
:1028A00041F4209111013091120130935302209391
:1028B000520220910F01309110012115310541F490
:1028C0002DB73EB74091130150911401241B350BD5
:1028D000E0915202F0915302E217F307A0F42E1B8D
:1028E0003F0B2817390778F0AC014E5F5F4F241774
:1028F000350748F04E0F5F1F50935302409352022A
:10290000819391939FCFF0E0E0E09CCFCF93DF9352
:102910000097E9F0FC01329713821282A0915402D1
:10292000B0915502ED0130E020E01097A1F4208134
:102930003181820F931F2091520230915302281748
:10294000390709F061C0F0935302E0935202DF911E
:10295000CF910895EA01CE17DF07E8F54A815B8140
:102960009E0141155105B1F7E901FB83EA834991C5
:102970005991C40FD51FEC17FD0761F48081918137
:102980000296840F951FE901998388838281938140
:102990009B838A83F0E0E0E012968D919C911397DF
:1029A0000097B9F52D913C911197CD010296820FB8
:1029B000931F20915202309153022817390739F69C
:1029C000309751F51092550210925402B093530271
:1029D000A0935202BCCFD383C28340815181840F24
:1029E000951FC817D90761F44E5F5F4F88819981A1
:1029F000480F591F518340838A819B81938382832F
:102A00002115310509F0B0CFF0935502E09354023F
:102A10009ECFFD01DC01C0CF13821282D7CFFB0114
:102A2000DC0102C001900D9241505040D8F708954A
:042A3000F894FFCF48
:102A34000214050201FFFFFFFF64201C641405005B
:102A4400005602800000000000B4072D04CD058369
:0E2A540005010164050464050000000053063E
:00000001FF
