:100000000C940D050C9435050C9435050C943505B0
:100010000C9435050C9435050C9435050C94350578
:100020000C9435050C9435050C9481130C94B11483
:100030000C9435050C9435050C9435050C94350558
:100040000C9435050C9435050C9435050C94350548
:100050000C9435050C9435050C9435050C94C4119D
:100060000C9435050C9434120C940E120C94350536
:100070000C9435050C9435050C9435050C94350518
:100080000C9435050C9435050C9435050C94350508
:100090000C9466120C9435050C9435050C943505BA
:1000A0000C9435050C9435050C9435055265737424
:1000B0006F72656420666163746F7279206465662F
:1000C00061756C74732E00040309044172647569D0
:1000D0006E6F204C4C430041726475696E6F206CEA
:1000E000656F6E6172646F004D79436F6F6C555030
:1000F0005300506241630055505331300045525215
:100100004F523A204E65656420746F20646F2063FF
:100110006F6E66696775726174696F6E20616E6477
:1001200020777269746520746F20454550524F4D99
:100130002E205573696E672044656661756C747313
:100140002E00476F6F643A20454550524F4D20694D
:100150007320696E697469616C697A65642E004305
:100160003A5C55736572735C557365725C446F637A
:10017000756D656E74735C4769744875625C736D08
:100180006172742D7570732D656D756C61746F720D
:100190005C536D617274557073456D756C61746FED
:1001A000725C536D617274557073456D756C6174DA
:1001B0006F722E696E6F00536D61727420555053CB
:1001C00020456D756C61746F722076302E31000D94
:1001D0000A24242D454E4420454550524F4D0D0ACA
:1001E0000D0A002000300020003000300030000DEB
:1001F0000A2420000D0A24242D454550524F4D203D
:10020000434F4E54454E54533A00202020313A6417
:10021000626720004261747465727920566F6C7455
:100220006167652A3130303A200044782020202D43
:1002300020446562756720666C616773202020200A
:10024000202020202020202020203A20307800204C
:100250002028562A31303029002020566F6C7461D6
:100260006765732077696C6C20616C7761797320A6
:10027000626520656E746572656420696E206875BC
:100280006E647265647468732E20002020284966AD
:1002900020796F75206D65617375726564203132E8
:1002A0002E343520766F6C74732C20656E746572F5
:1002B0002043483132343529002020776865726543
:1002C000207676767620697320746865206D656186
:1002D000737572656420766F6C7461676520696EF2
:1002E0002068756E647265746873206F6620612083
:1002F000766F6C742E002020776974682061206707
:100300006F6F64206469676974616C20766F6C74C8
:10031000206D657465722E20456E74657220746858
:100320006520636F6D6D616E6420434876767676E6
:100330002E002020486F6F6B20746865206C65610B
:100340006473206261636B20757020746F20746821
:100350006520626174746572792E204D65617375D4
:1003600072652074686520766F6C74616765002023
:100370002053686F72742074686520746F676574A9
:100380006865722E20456E746572207468652063FE
:100390006F6D6D616E6420434C3020285A65726F1A
:1003A0002C206E6F74204F68292E00202044697322
:1003B000636F6E6E65637420746865206261747427
:1003C00065727920766F6C746167652073656E73F2
:1003D00065206C656164732066726F6D207468655A
:1003E00020626174746572792E20200020546F2081
:1003F00063616C69627261746520766F6C746167A9
:10040000652073656E73696E6720666F722074680D
:10041000697320626F6172643A00290020202020F5
:100420002020202020284869676820562041324437
:100430002076616C75653A200020562A31303000F4
:1004400043486E6E6E6E202D2043616C696272614E
:100450007465206869676820766F6C7461676520D1
:10046000706F696E742028562A3130302920203A66
:1004700020002900202020202020202020284C6F30
:10048000772056204132442076616C75653A200011
:1004900020562A31303000434C6E6E6E6E202D2077
:1004A00043616C696272617465206C6F7720766F4E
:1004B0006C7461676520706F696E742028562A31EC
:1004C0003030292020203A200054446E6E6E6E2079
:1004D0002D204176652E2054696D6520666F72204F
:1004E00066756C6C20446973636861726765202867
:1004F0006D696E75746573293A200054436E6E6E93
:100500006E202D20417665726167652054696D65A6
:1005100020746F2066756C6C792043686172676522
:1005200020286D696E75746573293A200042456E06
:100530006E6E6E202D204261747465727920456D57
:1005400070747920766F6C7461676520202020209C
:10055000202020202028562A313030293A200042FD
:10056000466E6E6E6E202D20426174746572792025
:1005700046756C6C2043686172676520766F6C7499
:100580006167652020202028562A313030293A2002
:100590000020202020202020202028303D4E6F20C9
:1005A0005043207265706F7274696E672F7368753F
:1005B00074646F776E2E20313D456E61626C6564A8
:1005C00000454E6E202020202D20454E61626C6536
:1005D000207265706F7274696E672F5368757464EA
:1005E0006F776E20746F20746F207468652050439D
:1005F0003A200050726573656E7420536574746997
:100600006E67733A00536D617274205550532045E4
:100610006D756C61746F722076302E3100000A2D7A
:100620002D2D2D4D656E752D2D2D2D00446F6E27B2
:100630007420666F7267657420746F202853296177
:10064000766520746865206E65772076616C7565C7
:1006500021002073657420746F3A20004E65772066
:10066000004F6C642076616C7565207761733A2069
:10067000002076616C756521204D617820697320BA
:10068000312028666F72206120626F6F6C292E0AFC
:10069000004572726F723A20496E76616C6964200F
:1006A000000A556E6B6E6F776E20636F6D6D616EB5
:1006B00064205B004344435F41434D5F494E5445D2
:1006C00052464143453A200042616420636F6D6D9C
:1006D000616E642E2053686F756C64206265204ED5
:1006E0004C206F72204E48000A526573746F726519
:1006F0006420466163746F72792044656661756C2D
:1007000074732E2E2E0D0A204D75737420646F2085
:1007100027532720746F207361766520746F2045FE
:100720004550524F4D20286E6F6E2D766F6C617460
:10073000696C65206D656D6F7279292E000A5361B1
:10074000766564206E65772076616C7565287329FF
:1007500020746F20454550524F4D2E0A005D005BBE
:100760000000000000240027002A002D00300000B7
:10077000000000250028002B002E003100000000A2
:10078000002300260029002C002F00040404040488
:100790000304050202020204030202020206060624
:1007A00006060604040202020404040802011040C2
:1007B00080401020408040800802040180402010CA
:1007C0000201108010204040200000000200090FAC
:1007D0000000030401000C00000000000000000005
:1007E0000000000000000000070605040100080AE0
:1007F0000B0C0D09446F6E277420666F7267657469
:1008000020746F2028532961766520746865206EF6
:1008100065772076616C75652100307800207365FE
:100820007420746F3A20004E657720003078004FB6
:100830006C642076616C7565207761733A20002EB8
:100840000A00222076616C756521204D696E206951
:100850007320004572726F723A20496E76616C693E
:10086000642022002E0A002076616C756521204DDF
:10087000617820697320004572726F723A20496E68
:1008800076616C6964200005840904A1010924A132
:100890000275089501150026FF00850109FE790201
:1008A000B123850209FF7903B123850309FD79018D
:1008B000B12305858506098BB123851F0989790434
:1008C000B1238520098F7905B1238516092CB12321
:1008D0008510098D266400B1228518098EB1238503
:1008E0000E0967B18385170983B183850C09668179
:1008F000A30966B1A3850F098CB1A285110929B19D
:10090000A285090985751027FFFF0000B1A3851A8C
:10091000096A27FFFF00006601105500B1A3851C7E
:10092000096981A30969B1A3850D096881A30968D3
:10093000B1A38508092A7510276405000016780000
:100940008122092AB1A20584851209571600802741
:10095000FF7F0000B1A285130955B1A2850A0940A5
:10096000150027FFFF00006721D1F0005505B123D6
:10097000850B093081A30930B1A38514095A750884
:1009800015012503650055008122095AB1A209020B
:10099000A10285070585094475011500250181A37C
:1009A0000944B1A3094581A30945B1A309D081A395
:1009B00009D0B1A309D181A309D1B1A3094281A36F
:1009C0000942B1A3094381A20943B1A2094B81A302
:1009D000094BB1A309DB81A309DBB1A3094681A3BC
:1009E0000946B1A3094781A30947B1A30584096852
:1009F00081A20968B1A2096981A30969B1A3097338
:100A000081A30973B1A3096581A30965B1A3950207
:100A10008101B101C0C0C000991611241FBECFEFE3
:100A2000DAE0DEBFCDBF13E0A0E0B1E0E0EFF3E538
:100A300002C005900D92AC35B107D9F725E0ACE5C1
:100A4000B3E001C01D92A937B207E1F715E0CDE090
:100A5000D5E004C02197FE010E94F627CC30D107D3
:100A6000C9F70E9449170C94F6290C940000EDEE8A
:100A7000F7E0E49190917B008E2F880F880F8072B1
:100A80009F7D892B80937B00E770E064E0937C007E
:100A900080917A00806480937A0080917A0086FD4C
:100AA000FCCF80917800909179000895FC018081BD
:100AB0009181FB0120813181821B930B089581502C
:100AC0008F3008F047C0E82FF0E0E759FA4F0C9458
:100AD000F62786058A0578057E058205AA05AA05FA
:100AE000AA058D05930597059B05A105AA05A505F2
:100AF000809180008F77809380000895809180009E
:100B00008F7DF9CF80918000877FF5CF84B58F7777
:100B100084BD089584B58F7DFBCF809190008F7741
:100B2000809390000895809190008F7DF9CF8091FF
:100B30009000877FF5CF8091C0008F778093C000B1
:100B400008958091C0008F7DF9CF8091C200877F8A
:100B50008093C2000895CF93DF93282F30E0F901EE
:100B6000E753F84F8491F901E655F84FD491F90114
:100B7000E557F84FC491CC23A1F081110E945F0585
:100B8000EC2FF0E0EE0FFF1FE358F84FA591B49162
:100B9000EC91ED2381E090E009F480E0DF91CF91CA
:100BA000089580E090E0FACF1F93CF93DF93282F32
:100BB00030E0F901E753F84F8491F901E655F84F19
:100BC000D491F901E557F84FC491CC23A9F0162F21
:100BD00081110E945F05EC2FF0E0EE0FFF1FE1593D
:100BE000F84FA591B4918FB7F894EC91111108C00A
:100BF000D095DE23DC938FBFDF91CF911F910895B5
:100C0000DE2BF8CFCF93DF9390E0FC01E655F84F51
:100C100024918557984FFC0184918823C9F090E076
:100C2000880F991FFC01EF59F84FA591B491FC0171
:100C3000E159F84FC591D49161110DC09FB7F89457
:100C40008C91209582238C938881282328839FBFB1
:100C5000DF91CF910895623051F49FB7F8943C91A1
:100C6000822F809583238C93E8812E2BEFCF8FB733
:100C7000F894EC912E2B2C938FBFEACF3FB7F894CA
:100C80008091940490919504A0919604B09197045A
:100C900026B5A89B05C02F3F19F00196A11DB11DD7
:100CA0003FBFBA2FA92F982F8827BC01CD01620F13
:100CB000711D811D911D42E0660F771F881F991FCE
:100CC0004A95D1F708958F929F92AF92BF92CF929B
:100CD000DF92EF92FF924B015C010E943E066B0196
:100CE0007C010E943E066C197D098E099F09683EB1
:100CF000734081059105A8F321E0821A9108A108AB
:100D0000B10888EEC80E83E0D81EE11CF11C8114E6
:100D10009104A104B10429F7FF90EF90DF90CF90E8
:100D2000BF90AF909F908F9008952FB7F8946091E7
:100D300090047091910480919204909193042FBF3C
:100D40000895EF92FF920F931F93CF93DF938C013F
:100D50007B01D0E0C0E0F701EC0FFD1F649166233A
:100D600061F0D801ED91FC910190F081E02DC80176
:100D70000995892B11F02196EECFCE01DF91CF910D
:100D80001F910F91FF90EF900895AF92BF92CF9275
:100D9000DF92EF92FF920F931F93CF93DF936C013B
:100DA0007B018B01040F151FEB015E01AE18BF081C
:100DB000C017D10759F06991D601ED91FC910190CE
:100DC000F081E02DC6010995892B79F7C501DF91E6
:100DD000CF911F910F91FF90EF90DF90CF90BF9038
:100DE000AF900895FC01538D448D252F30E0842F62
:100DF00090E0821B930B541710F0CF960895019743
:100E00000895FC01918D828D981761F0A28DAE0F2F
:100E1000BF2FB11D5D968C91928D9F5F9F73928FB6
:100E200090E008958FEF9FEF0895FC01918D828DE2
:100E3000981731F0828DE80FF11D858D90E00895AF
:100E40008FEF9FEF0895FC01918D228D892F90E007
:100E5000805C9F4F821B91098F73992708958EECB8
:100E600094E00E94230721E0892B09F420E0822FDF
:100E70000895FC01A48DA80FB92FB11DA35ABF4F2F
:100E80002C91848D90E001968F739927848FA68989
:100E9000B7892C93A089B1898C9182748C93938D9E
:100EA000848D981306C00288F389E02D80818F7DA0
:100EB00080830895EF92FF920F931F93CF93DF9358
:100EC000EC0181E0888F9B8D8C8D981319C0E88987
:100ED000F989808185FF14C09FB7F894EE89FF8956
:100EE0006083E889F9898081827480839FBF81E073
:100EF00090E0DF91CF911F910F91FF90EF900895B7
:100F0000F62E0B8D10E00F5F1F4F0F731127E02E91
:100F10008C8D8E110CC00FB607FCFACFE889F989C9
:100F2000808185FFF5CFCE010E943907F1CFEB8D8F
:100F3000EC0FFD2FF11DE35AFF4FF0829FB7F8949D
:100F40000B8FEA89FB8980818062CFCFCF93DF93BB
:100F5000EC01888D8823B9F0AA89BB89E889F989D1
:100F60008C9185FD03C0808186FD0DC00FB607FC06
:100F7000F7CF8C9185FFF2CF808185FFEDCFCE0139
:100F80000E943907E9CFDF91CF91089580E090E08A
:100F9000892B29F00E942F0781110C9400000895DD
:100FA00020914504260F3327331F21323105ECF4FD
:100FB00020916904FC0190E080E0243069F082E037
:100FC0000895A09145042191AC014B5D5B4FA40FA6
:100FD000B52FB11D2C930196861798F38091450487
:100FE000680F6093450480E0089581E008950895B6
:100FF0008FEF9FEF08958FEF9FEF089580911E046C
:1010000090E09195819591090895CF93DF93CB015D
:10101000EA01642F0E94D007CE01DF91CF9108959D
:10102000CF93DF931F92CDB7DEB7698361E0CE0126
:1010300001960E94D00781E090E00F90DF91CF9160
:10104000089590E080E008950F931F93CF93DF936E
:10105000EC010E949506088119812A813B81601B61
:10106000710B820B930B0C811D812E813F81061722
:1010700017072807390730F48885882319F0188660
:1010800081E08987DF91CF911F910F910895DC0155
:101090005296ED91FC9130E020E03097A1F0DC0118
:1010A00054964D915C912417350758F44281538131
:1010B0004617570741F00190F081E02D2F5F3F4F19
:1010C000ECCFF0E0E0E0CF01089540916C03509147
:1010D0006D0320916A0330916B0342175307B4F4F8
:1010E0009091E8009570E1F39091E80092FD19C0AD
:1010F0008093F10080916C0390916D0301968F7342
:101100009927892B19F48EEF8093E80080916C0366
:1011100090916D03019690936D0380936C0381E031
:10112000089580E00895EF92FF920F931F93CF935D
:10113000DF93F82E192FE62E042F81E0860F880FFB
:101140000E94650883E00E946508CF2DD12FEC0E28
:10115000FD2EF11CCE15DF05B9F007FF13C0FE010F
:1011600084910E946508182F80E00E946508812301
:1011700021968111EFCFDF91CF911F910F91FF90B9
:10118000EF9008958881EDCF81E0F5CFDF92EF9267
:10119000FF920F931F93CF93DF93D82E8A01EB0119
:1011A0007B01E40EF51ECE15DF0559F0D7FE12C007
:1011B000FE0184910E94650821968111F4CF0FEF02
:1011C0001FEFC801DF91CF911F910F91FF90EF901A
:1011D000DF9008958881EECFCF93DF93CDB7DEB750
:1011E000A0970FB6F894DEBF0FBECDBFFC01DB01A8
:1011F0008C918F5F8C939E012D5F3F4F88E0D901CA
:101200001D928A95E9F799E0998384E08A8342E008
:101210004D8383E08E839A8721E22B8791E09C8720
:101220009D872E879F8792E2988B57E05B8B95E096
:101230009C8B21E82D8B8E8B20E430E0388F2F8B18
:1012400064E1698F5A8F9B8F4C8F8D8F3F8F2E8FCC
:101250008AE088A382818B8396858785998B8A8B88
:1012600040E250E0BE016F5F7F4F80E00E94C60801
:10127000A0960FB6F894DEBF0FBECDBFDF91CF9121
:1012800008958F929F92AF92BF92CF92DF92EF928A
:10129000FF920F931F93CF93DF936B018A0190917D
:1012A000720391110FC08FEF9FEFDF91CF911F91CC
:1012B0000F91FF90EF90DF90CF90BF90AF909F90F5
:1012C0008F9008959091700390FF05C09091E00079
:1012D00092609093E000C02FD12FF12C9AEFB92E9D
:1012E000982F9770992E20E4822E8074E82E3AE38E
:1012F000A32E209719F4FF2009F44EC08FB7F8945D
:101300009092E9009091E80095FD0BC08FBFBA94D0
:10131000BB2049F261E070E080E090E00E9463064B
:10132000E8CF9091F200282D291B8FBF222379F35B
:101330002C171D0611F00CF02C2F8FB7F8949092FB
:10134000E9009091E80095FD02C08FBFD2CF422FF7
:1013500050E0C41BD50BF601215020F091919093E1
:10136000F100FACFC40ED51EFF2021F0A092E800B4
:10137000F12CEBCF9091E80095FD07C0A092E8001A
:10138000FF24F394209709F3F3CF2097F1F6EE2092
:10139000E1F2A092E800D9CF5D9884E680936F03D4
:1013A000C80183CF615030F02091F100FC0120830F
:1013B0000196F8CF289884E680936E030895809173
:1013C000620381110BC010925E0381E080935F0382
:1013D0001092610310926003809362038EE593E0A4
:1013E00008951F93CF93DF93809116048111CBC092
:1013F00082E08093000481E08093010426E034E0E1
:101400003093030420930204109205041092040404
:1014100023E331E03093FD032093FC031092090491
:101420001092080410920B0410920A0480930C048A
:1014300080930D0481EC8093060480EC8093070474
:101440000E94DF09EC01898190910004890F99279E
:10145000991F08970CF094C0EA81FB81309709F03E
:1014600051C08CEF93E09B838A8362E082E00E940C
:1014700002068091FB03882309F44DC011E010930C
:10148000FB0361E087E00E94D4050E94950660930B
:10149000F3037093F4038093F5039093F603809124
:1014A000DB039091DC03A091DD03B091DE03019694
:1014B000A11DB11D8093DB039093DC03A093DD039A
:1014C000B093DE031092FE031093FF038881909186
:1014D0000104890F88833091000490910204E92F60
:1014E000F09103048E2F891B831708F049C089816E
:1014F0002191A82FB0E0AC53BC4F2C938F5F898310
:10150000F1CFFC01808591850097D9F78CEF93E0AE
:1015100091878087AACF82E00E94AB05892B09F4CE
:10152000ADCF61E086E00E94D4050E9495069B0144
:10153000AC0188279927DC01821B930BA40BB50B08
:101540008093F3039093F403A093F503B093F60311
:101550008091DB039091DC03A091DD03B091DE0369
:101560000196A11DB11D8093DB039093DC03A09332
:10157000DD03B093DE031092FE031092FF03A6CFAB
:1015800081E0809316048CEF93E0DF91CF911F915F
:101590000895CF92DF92EF92FF920F931F93CF9314
:1015A000DF9300D0CDB7DEB78C017B016A010E94CA
:1015B000F1091A83098341E050E0BE016F5F7F4F5C
:1015C00081E00E9441098C0197FD09C0A601B70185
:1015D00081E40E944109080F191F97FD8C01C80181
:1015E0000F900F90DF91CF911F910F91FF90EF908F
:1015F000DF90CF9008950F931F93CF93DF931F92A7
:10160000CDB7DEB719820E94DF09DC0112960D9179
:101610001C910115110589F0D801ED91FC91028012
:10162000F381E02DBE016F5F7F4FC801099597FDE3
:1016300004C0F80100851185ECCF89810F90DF91FE
:10164000CF911F910F910895FB0101900020E9F7C0
:101650003197AF01461B570BDC01ED91FC910280E5
:10166000F381E02D09948F929F92AF92BF92EF92F7
:10167000FF920F931F93CF93DF93CDB7DEB7A19760
:101680000FB6F894DEBF0FBECDBF7C01FA01CB01CF
:1016900019A2223008F42AE08E010F5D1F4F822E1E
:1016A000912CB12CA12CBF01A50194010E944A26C6
:1016B000F901CA016A300CF5605DD8016E938D01A5
:1016C000232B242B252B79F790E080E0109721F035
:1016D000BD01C7010E94240BA1960FB6F894DEBF8E
:1016E0000FBECDBFDF91CF911F910F91FF90EF9073
:1016F000BF90AF909F908F900895695CDECFCF929E
:10170000DF92EF92FF920F931F93CF93DF93EC0141
:101710006A017B01E881F9810190F081E02D6DE2A1
:1017200009958C0144275527BA014C195D096E09AA
:101730007F092AE0CE010E94330B800F911FDF91B9
:10174000CF911F910F91FF90EF90DF90CF90089570
:10175000242FAB0170E060E00C94330B8F929F92CA
:10176000AF92BF92CF92DF92EF92FF920F931F93AF
:10177000CF93DF937C01EB016C0182E0C80ED11C9A
:101780004701E5E08E0E911C10E000E0F60141916A
:101790006F0150E070E060E02AE0CE010E94330B60
:1017A0005C01E881F9810190F081E02D6EE2CE01CB
:1017B00009958A0D9B1D080F191FC814D90431F70C
:1017C000F701458150E070E060E02AE0CE010E9420
:1017D000330B800F911FDF91CF911F910F91FF90DD
:1017E000EF90DF90CF90BF90AF909F908F90089533
:1017F00063E571E00C94240B0F931F93CF93DF9359
:10180000EC01AB01770F660B770B77FF0DC00E94E1
:101810007F0B8C01CE010E94F80B800F911FDF918E
:10182000CF911F910F9108952AE00E94330BF1CFC1
:101830000F931F93CF93DF93EC010E94A80B8C01B1
:10184000CE010E94F80B800F911FDF91CF911F9165
:101850000F9108950F931F93CF93DF93EC010E9494
:10186000240B8C01CE010E94F80B800F911FDF9199
:10187000CF911F910F9108950F931F93CF93DF93F3
:10188000EC01FB014481558160817181E881F9811E
:101890000280F381E02D09958C01CE010E94F80BA6
:1018A000800F911FDF91CF911F910F9108950F939A
:1018B0001F93CF93DF93EC010E94A1068C01CE0110
:1018C0000E94F80B800F911FDF91CF911F910F9114
:1018D000089581E08093C1038AEA80939E0385E5A1
:1018E00080939F0381E095EA9093C3038093C203A2
:1018F00080E29CE19093A1038093A0039093A303C3
:101900008093A20388E592E09093A5038093A403BB
:1019100084E695E09093A7038093A6038EE794E076
:101920009093A9038093A8031092B0031092AF0381
:101930001092AE031092AD0388E795E09093B40344
:101940008093B30384E690E09093B2038093B10355
:101950008AE08093AA0385E08093AB031092AC03E6
:1019600080911901882331F06CEA70E08EEC94E0EC
:101970000C94570C08950C94240BBF92CF92DF92D5
:10198000EF92FF920F931F93CF93DF93DC01EB0154
:1019900058968D919C915997892BB9F08D01B12C56
:1019A000CB2CD12CF801E08CF18CC7010E949D2436
:1019B000C816D90610F5F701EC0DFD1DE491DE0106
:1019C000AC0DBD1DEC93B394EBCF88E4888389E420
:1019D000898384E48A831E968C911E978F708F5B17
:1019E0008B831E968D919C9124E0969587952A95E0
:1019F000E1F78F708F5B8C8385E0DF91CF911F9132
:101A00000F91FF90EF90DF90CF90BF900895CF920D
:101A1000DF92EF92FF920F931F93CF93DF9300D04B
:101A2000CDB7DEB77C01FB011381133009F046C04E
:101A3000628170E07F6F0E944708009709F46AC0D6
:101A4000DC011496FC9014971596DC908F2D9D2D3B
:101A50000E949D24E82E1A8381E08E0D880F8983D1
:101A600042E050E0BE016F5F7F4F80E00E94C608F9
:101A7000CF2C0F2D1D2D802F8C198E15E8F4F80119
:101A8000849189831A8242E050E0BE016F5F7F4FEC
:101A900080E00E94C6080F5F1F4F892B61F780E02E
:101AA00090E00F900F90DF91CF911F910F91FF90D9
:101AB000EF90DF90CF90089581E0F2CF8081813860
:101AC00049F5123239F5D70112962C91129784817B
:101AD000958128171906F1F41C960D911C91D12CB3
:101AE000C12C0115110589F0F801448155816281ED
:101AF000738180E80E94C6088F3F980791F2C80E54
:101B0000D91ED8010D911C91ECCF81E0F701808B9B
:101B1000C601C7CF90E080E0C4CFAF92BF92CF9212
:101B2000DF92EF92FF920F931F93CF93DF93CDB786
:101B3000DEB7C857D1090FB6F894DEBF0FBECDBFD0
:101B400080916B0590916C05DC01ED91FC91068014
:101B5000F781E02D09950E9437059A8389838E01CC
:101B60000F5F1F4F6E01BBE3CB0ED11C78018FE9D5
:101B7000A82E86E0B82E0E943705F8018193919334
:101B80008F01C5010197F1F7CE16DF06A1F726E513
:101B900035E042E050E06DE170E0C7010E94F221C3
:101BA0008D8D9E8DC858DF4F0FB6F894DEBF0FBEE7
:101BB000CDBFDF91CF911F910F91FF90EF90DF90FC
:101BC000CF90BF90AF9008950F931F93CF93DF9363
:101BD000EC0188819981009759F02A813B81261771
:101BE000370730F081E0DF91CF911F910F91089579
:101BF0008B016F5F7F4F0E942129009759F09983D5
:101C000088831B830A832C813D81232B59F7FC0198
:101C10001082E8CF80E0E7CFCF93DF93EC0188819B
:101C20009981009711F00E949828198218821D82CC
:101C30001C821B821A82DF91CF910895EF92FF924E
:101C40000F931F93CF93DF938C017B01EB010990DE
:101C50000020E9F72197C61BD70BBE010E94E40DB7
:101C6000811109C0C801DF91CF911F910F91FF90A1
:101C7000EF900C940C0EF801D583C483B7018081DA
:101C80009181DF91CF911F910F91FF90EF900C9474
:101C9000EF29EF92FF920F931F93CF93DF93EC0105
:101CA000FB01E080F180E114F10411F10481158160
:101CB00001151105A9F08C819D81080F191FB8012C
:101CC000CE010E94E40D882399F0288139818C810E
:101CD0009D81B701820F931F0E94EF291D830C8302
:101CE000CE01DF91CF911F910F91FF90EF9008955A
:101CF000CE010E940C0EF4CFFC01808191810097EF
:101D000011F00C94982808950F931F93CF93DF93AD
:101D1000CDB7DEB761970FB6F894DEBF0FBECDBF6B
:101D20008C01CB01F801118210821382128215827C
:101D3000148250E0BE016F5F7F4F0E94B924BE0144
:101D40006F5F7F4FC8010E941E0E61960FB6F89418
:101D5000DEBF0FBECDBFDF91CF911F910F910895D0
:101D60000F931F93CF93DF93CDB7DEB729970FB6AD
:101D7000F894DEBF0FBECDBF8C01862FF801118213
:101D80001082138212821582148250E0BE016F5FAE
:101D90007F4F90E00E94B924BE016F5F7F4FC80162
:101DA0000E941E0E29960FB6F894DEBF0FBECDBF5F
:101DB000DF91CF911F910F9108952F923F924F92F3
:101DC0005F926F927F928F929F92AF92BF92CF92CB
:101DD000DF92EF92FF920F931F93CF93DF93CDB7D4
:101DE000DEB728970FB6F894DEBF0FBECDBFE0E197
:101DF0005E2EA11002C03AE0532EFB01608171817A
:101E00006D30710521F06A30710509F0EEC0AF82C6
:101E10001701380128877A01A52CB12CA50170E0A3
:101E200060E001960E945F23462E062F172F8091B7
:101E30006B0590916C05E016F10608F040C067E76D
:101E400078E00E94A106B60180916B0590916C0527
:101E50000E94BB0C67E678E080916B0590916C0561
:101E60000E94A1064AE050E0B70180916B05909175
:101E70006C050E94A80B64E678E080916B05909158
:101E80006C050E94570C80E01092980428960FB6BB
:101E9000F894DEBF0FBECDBFDF91CF911F910F91A0
:101EA000FF90EF90DF90CF90BF90AF909F908F907A
:101EB0007F906F905F904F903F902F9008950815FE
:101EC0001905F8F463E578E00E94A106B601809157
:101ED0006B0590916C050E94BB0C62E478E08091E8
:101EE0006B0590916C050E94A1064AE050E0B40198
:101EF00080916B0590916C050E94A80B6FE378E0D0
:101F0000BCCF6FE278E00E94A106FF81FF2341F081
:101F10006CE278E080916B0590916C050E94A106BF
:101F2000E0906B05F0906C058885882309F447C024
:101F3000452DF3016081CE0101960E94B00EBE01D5
:101F40006F5F7F4FC7010E943C0CCE0101960E943B
:101F50007C0EF301408267E278E080916B059091FE
:101F60006C050E94A106B60180916B0590916C05ED
:101F70000E94BB0C6DE178E080916B0590916C053F
:101F80000E94A106FF81FF2341F06AE178E0809181
:101F90006B0590916C050E94A106A501B801809186
:101FA0006B0590916C050E94180C64EF77E08091AE
:101FB0006B0590916C050E94570C81E065CFF10193
:101FC00060817181452DCE0101960E94840EBE0173
:101FD0006F5F7F4FC7010E943C0CCE0101960E94AB
:101FE0007C0EF10111830083B6CF80E04FCF1F93A9
:101FF000CF93DF9385ED8093BC0080912104909175
:102000002204A0912304B09124040796A11DB11DC0
:1020100023E0B695A795979587952A95D1F72091B6
:10202000BC0024FD03C01092690452C040912104F9
:10203000509122046091230470912404452B462B77
:10204000472B69F30097A105B10541F02AE22A95D3
:10205000F1F700C00197A109B109E1CF80912004F7
:10206000C1E0C0931F04882399F1D091B80010916A
:10207000BA008091BC008A7B8093BC0060E082E063
:102080000E94D40560E083E00E94D40510926904A8
:10209000C0936B0410926A0461E082E00E94D40550
:1020A00061E083E00E94D4058091B9008E7F809327
:1020B000B9008091B9008D7F8093B90088E4809346
:1020C000B80085E48093BC001093BA00D093B800A8
:1020D000DF91CF911F9108959F92AF92BF92CF92BF
:1020E000DF92EF92FF920F931F93CF93DF93FC0148
:1020F0004281FB01248135814217130611F020E053
:1021000029C0EB0131812081213AA9F5313079F5DF
:102110002381233011F021E01DC0628170E00E9414
:102120004708EC01009759F341E050E0BC016E5FB5
:102130007F4F80E00E94C6081816190604F74E81EA
:102140005F816C817D8180E00E94C60821E01816C5
:102150001906ACF6822FDF91CF911F910F91FF905E
:10216000EF90DF90CF90BF90AF909F90089521E0C7
:10217000333029F6EFCF213211F63B3021F42281A2
:10218000FC01208BC8CF3A3021F42281FC01218B45
:10219000C2CF393009F0B3CF2381233009F0AFCF5C
:1021A000628170E00E9447086C01009709F4A7CF94
:1021B0000E811F81FC0186819781019608171907FE
:1021C00009F09DCF81E090E00115110509F0C801EB
:1021D0000E94FC277C01E8019BEF992E2097C1F01B
:1021E0005E01C134D1051CF080E4A82EB12C809191
:1021F000E80082FFFCCFC8018C1B9D0B6A2D8E0D61
:102200009F1D0E94D2099092E800CA19DB09E6CF0F
:10221000F7012081F601828193812817190609F0C0
:102220006ECF46815781B7016F5F7F4F8481958163
:102230000E94E629E114F10409F46DCFC7010E9460
:10224000982869CFAF92BF92CF92DF92EF92FF9220
:102250000F931F93CF93DF937C016B015A01E90128
:10226000DC0152960D911C9190E080E00115110562
:1022700031F589E090E00E94FC27FC011182108278
:10228000D382C282B582A482DD27D783C683D701D9
:1022900053969C938E935297F70184899589019662
:1022A000958B848BDF91CF911F910F91FF90EF90D1
:1022B000DF90CF90BF90AF90089501968901F8010B
:1022C000228133812C153D0569F32081318121154F
:1022D000310599F789E090E00E94FC27FC0111820A
:1022E0001082D382C282B582A482DD27D783C683BF
:1022F000D8018D939C93D0CFEF92FF920F931F93B1
:10230000CF93DF93EC018B017A010E94F1099701D1
:10231000A801BE01DF91CF911F910F91FF90EF9027
:102320000C942211CF92DF92EF92FF920F931F93A2
:10233000CF93DF93C82F6B018A010E94F1096C2FA4
:1023400070E021E030E0A6010E942211EC01892B0F
:1023500089F00E94F1097C01C8010E949D24F601C8
:10236000608170E07F6F9C01A801C7010E9422116B
:10237000C80FD91FCE01DF91CF911F910F91FF9010
:10238000EF90DF90CF9008951F920F920FB60F92AB
:1023900011242F933F938F939F93AF93BF9380917B
:1023A000900490919104A0919204B0919304309183
:1023B0008F0423E0230F2D3758F50196A11DB11D81
:1023C00020938F048093900490939104A09392049F
:1023D000B09393048091940490919504A0919604F5
:1023E000B09197040196A11DB11D80939404909320
:1023F0009504A0939604B0939704BF91AF919F91D9
:102400008F913F912F910F900FBE0F901F901895B5
:1024100026E8230F0296A11DB11DD2CF1F920F9265
:102420000FB60F9211242F933F934F935F936F93A7
:102430007F938F939F93AF93BF93EF93FF938EEC14
:1024400094E00E943907FF91EF91BF91AF919F9166
:102450008F917F916F915F914F913F912F910F904D
:102460000FBE0F901F9018951F920F920FB60F92EC
:1024700011242F938F939F93EF93FF93E091DE04AA
:10248000F091DF048081E091E404F091E50482FDA5
:102490001BC090818091E7048F5F8F732091E804C7
:1024A000821741F0E091E704F0E0E253FB4F958F93
:1024B0008093E704FF91EF919F918F912F910F905F
:1024C0000FBE0F901F9018958081F4CF1F920F922E
:1024D0000FB60F9211242F933F934F935F936F93F7
:1024E0007F938F939F93AF93BF93EF93FF938091CD
:1024F000B900887F803609F44AC0F0F5883209F4C3
:10250000A5C018F5803109F499C0B8F4882309F4FE
:10251000F5C0883009F492C0FF91EF91BF91AF915F
:102520009F918F917F916F915F914F913F912F91EB
:102530000F900FBE0F901F901895883109F486C038
:10254000803251F78093680414C0803409F49BC032
:1025500040F48033B9F38833F9F68093680485EC4E
:10256000AEC0803509F483C0883509F494C088343E
:1025700099F60E94F70FD0CF883909F48AC038F550
:10258000883729F050F4883611F0803729F683E037
:10259000809369041092670455C0883809F479C0A3
:1025A000803919F0803809F0B7CF80916704803204
:1025B00008F06FC0E091670481E08E0F809367049C
:1025C0008091BB00F0E0E95BFB4F80833BC0803B28
:1025D00039F0D0F4803A09F477C0883A09F09CCFFA
:1025E00084E0809369041092460410924504F0E060
:1025F000E0E009958091450481110FC081E080934E
:1026000045041092250409C0803C09F4A8CF883CF9
:1026100009F4A5CF883B09F07FCFE091460481E023
:102620008E0F80934604F0E0EB5DFB4F808180933A
:10263000BB00909146048091450429C080918E048E
:102640008093BB0085EC8093BC0066CF90918D0495
:1026500080918C04981758F5E0918D0481E08E0FDD
:1026600080938D04F0E0E459FB4F8081E9CFE09145
:102670008D0481E08E0F80938D048091BB00F0E08B
:10268000E459FB4F808390918D0480918C049817BE
:10269000C8F285E8D8CFE0918D0481E08E0F809359
:1026A0008D048091BB00F0E0E459FB4F8083809162
:1026B0006B0481115ECF81E080936A0484EA809389
:1026C000BC001092690428CF85EC8093BC00109266
:1026D000690480916704803230F4E0916704F0E08F
:1026E000E95BFB4F10826091670470E087E494E03F
:1026F000F0E0E0E00995109267040ECF10926804B4
:1027000038CF1F920F920FB60F9211242F933F9341
:102710004F935F936F937F938F939F93AF93BF93E9
:10272000CF93EF93FF93C091E1008091E100837F0D
:102730008093E100C3FF86C082E18093000181E0C5
:102740008093010120E032E03093030120930201E5
:102750009091FB03992309F4BEC09FEE909304016E
:1027600092E090930501809306010E949506609384
:10277000E3037093E4038093E5039093E603809171
:10278000CB039091CC03A091CD03B091CE030196E1
:10279000A11DB11D8093CB039093CC03A093CD03D7
:1027A000B093CE0380E48093070181E493E2909399
:1027B00009018093080186E390E890930B018093D0
:1027C0000A0180E091E090930D0180930C0181E07B
:1027D00080930E0192E090930F0193E0909310018B
:1027E000809311011092E9008093EB001092EC00AD
:1027F00082E38093ED008091FB03882309F485C078
:102800000E9495066093E7037093E8038093E903C1
:102810009093EA038091CF039091D003A091D103CC
:10282000B091D2030196A11DB11D8093CF03909367
:10283000D003A093D103B093D2031092720388E027
:102840008093F000C2FF22C083E08093E900809172
:10285000F200882319F08AE38093E80080916F03E7
:10286000882341F080916F03815080936F03811121
:1028700001C05D9A80916E03882341F080916E03C0
:10288000815080936E03811101C0289AC4FF57C004
:102890008091E2008E7E81608093E2008091E10071
:1028A0008F7E8093E100809170038E7E80618093A3
:1028B0007003FF91EF91CF91BF91AF919F918F9155
:1028C0007F916F915F914F913F912F910F900FBE2C
:1028D0000F901F901895109204011092050110920C
:1028E00006010E9495069B01AC0188279927DC010F
:1028F000821B930BA40BB50B8093E3039093E4032B
:10290000A093E503B093E6033ACF1092040110922E
:102910000501109206010E9495069B01AC018827D3
:102920009927DC01821B930BA40BB50B8093E70363
:102930009093E803A093E903B093EA036BCFC0FF41
:10294000B8CF8091E2008E7E80618093E20080911A
:10295000E1008E7E8093E100809170038E7E816025
:10296000A6CF1F920F920FB60F921124CF92DF9233
:10297000EF92FF920F931F932F933F934F935F9389
:102980006F937F938F939F93AF93BF93EF93FF9337
:10299000CF93DF93CDB7DEB76C97DEBFCDBF10927C
:1029A000E9008091E80083FF25C068E0CE014596EC
:1029B0000E94D20982EF8093E8008D8987FF39C099
:1029C0009091E80090FFFCCF982F907609F07AC1A3
:1029D0009E894F89588D2F89F88C911131C080388C
:1029E00061F5809171038093F1001092F1008EEFF8
:1029F0008093E8006C960FB6F894DEBF0FBECDBF93
:102A0000DF91CF91FF91EF91BF91AF919F918F9106
:102A10007F916F915F914F913F912F911F910F91F6
:102A2000FF90EF90DF90CF900F900FBE0F901F9010
:102A300018959EEF9093E800C7CF1092F100D5CF84
:102A4000913059F48111D3CF4130510581F68091F5
:102A500071038D7F80937103CACF933049F4811144
:102A6000C6CF4130510519F6809171038260F2CFD3
:102A7000953041F48091E80080FFFCCF20682093DE
:102A8000E300B5CF963009F0A7C00B8D1C8D22E076
:102A90001092E90010926D0310926C03F2122EC096
:102AA00010926B0310926A030E94FB0A1F8299E046
:102AB0009983FA8291E09E8390EA98879AEF9987AA
:102AC00020916C0330916D03275F3F4F3C832B8334
:102AD0008D831092E90010926D0310926C03109395
:102AE0006B0300936A0349E050E0BE016F5F7F4FC4
:102AF00080E00E94C6080E94FB0A79CF10936B0306
:102B000000936A030E94DF09DC0112960D911C916B
:102B10000115110509F402C1D801ED91FC91048061
:102B2000F581E02DBE016B5E7F4FC80109950097CE
:102B300009F0EFC0F80100851185EACFF3E0FF123C
:102B40000EC08F89882309F440C0823061F440E8C8
:102B500060E187ED90E00E949308811148CF81E207
:102B60008093EB0047CF813029F440E86BE08BEC99
:102B700090E0F1CF833099F70E94DF09DC011296D3
:102B8000ED90FC908E010F5F1F4F6801E114F1047E
:102B900079F0D701ED91FC910680F781E02DB80125
:102BA000C7010995080F111DF701E084F184EECFEC
:102BB000D8011C92F60101900020E9F73197BF017E
:102BC0006C197D0940E0C601C6CFE7ECF0E0449106
:102BD00050E0BF0180E8AAC0973009F4C0CF983018
:102BE00021F481E08093F10002CF993009F0FFCE0B
:102BF000837009F0B4CF8091FB038823A1F10E9478
:102C000095066093EB037093EC038093ED03909330
:102C1000EE038091D3039091D403A091D503B0919A
:102C2000D6030196A11DB11D8093D3039093D403C5
:102C3000A093D503B093D603E5ECF3E081E031E057
:102C400096E321912223A9F18093E9003093EB00D0
:102C5000DF0111972C912093EC009093ED008F5F92
:102C6000873079F726C00E9495069B01AC01882722
:102C70009927DC01821B930BA40BB50B8093EB030C
:102C80009093EC03A093ED03B093EE038091D303F4
:102C90009091D403A091D503B091D6030196A11DC4
:102CA000B11D8093D3039093D403A093D503B09325
:102CB000D6038EE78093EA001092EA008F89809312
:102CC000720395CE8B8D9C8D1092E90010926D034E
:102CD00010926C0390936B0380936A030E94DF0948
:102CE000DC0112960D911C910115110509F437CFE5
:102CF000D801ED91FC910190F081E02DBE016B5E59
:102D00007F4FC8010995811172CEF80100851185A8
:102D1000EBCF181619060CF46ACE21CFF1E0FF12A2
:102D20000DCF42E150E060E071E080E00E94C60813
:102D30005ECE1092D1041092D00488EE93E0A0E011
:102D4000B0E08093D2049093D304A093D404B093C2
:102D5000D5048FE391E09093CF048093CE048DEC63
:102D600090E09093DB048093DA048CEC90E09093F5
:102D7000DD048093DC0488EC90E09093DF04809382
:102D8000DE0489EC90E09093E1048093E0048AEC07
:102D900090E09093E3048093E2048EEC90E09093B3
:102DA000E5048093E4041092E7041092E804109282
:102DB000E9041092EA0481E591E090939A048093EB
:102DC000990410929B0410929C0410929D041092FE
:102DD0009E0482E08093AD0481E08093AE0493E092
:102DE0009093AF049091A504911112C01092A00489
:102DF00010929F0427E838E03093A2042093A104A6
:102E000020E931E03093A4042093A3048093A50427
:102E10000E94F109FC01A485B585109781F58FE921
:102E200094E095878487868597852091A3043091C7
:102E3000A404820F931F9787868781E591E0909382
:102E40006E0580936D0510926F05109270051092BB
:102E50007105109272058EEC94E090936C0580934E
:102E60006B051092CD041092CC041092C304109202
:102E7000C2041092B9041092B8040895DC018D9137
:102E80009C9111970097D1F78FE994E08D939C93D3
:102E9000CACFCF93DF93CDB7DEB7A2970FB6F89422
:102EA000DEBF0FBECDBFF89462E082E00E94020652
:102EB00082E00E94AB05892B19F481E08093FB032B
:102EC0000E9495066093F7037093F8038093F903CB
:102ED0009093FA038091DF039091E003A091E103C6
:102EE000B091E2030196A11DB11D8093DF03909381
:102EF000E003A093E103B093E2037894789484B55F
:102F0000826084BD84B5816084BD85B5826085BDE5
:102F100085B5816085BD80916E00816080936E0073
:102F20001092810080918100826080938100809165
:102F30008100816080938100809180008160809316
:102F40008000809191008260809391008091910037
:102F500081608093910080919000816080939000C7
:102F60008091C10084608093C1008091C100826023
:102F70008093C1008091C10081608093C1008091E5
:102F8000C30081608093C3008091C0008260809301
:102F9000C0008091C20081608093C20080917A005D
:102FA000846080937A0080917A00826080937A00B6
:102FB00080917A00816080937A0080917A008068A5
:102FC00080937A0010927203109271031092700332
:102FD0008091D70081608093D70080EA8093D800E9
:102FE00089B5806189BD89B5826089BD09B400FE5B
:102FF000FDCF61E070E080E090E00E946306809188
:10300000D8008F7C80618093D8008091E000807F21
:103010008093E0008091E1008E7E8093E1008DE05E
:103020008093E200559A209AE091DE04F091DF044B
:1030300082E08083E091DA04F091DB041082E09179
:10304000DC04F091DD0480E180831092E604E091DD
:10305000E204F091E30486E08083E091E004F091E3
:10306000E104808180618083E091E004F091E104DB
:10307000808188608083E091E004F091E1048081A8
:1030800080688083E091E004F091E10480818F7D8D
:10309000808368EE73E080E090E00E946306809198
:1030A0001901882321F08EEC94E00E94F80B8091A6
:1030B0001901882331F067EB71E08EEC94E00E94F7
:1030C000570C80911901882331F06FE571E08EEC87
:1030D00094E00E94570C80911901882331F066E535
:1030E00071E08EEC94E00E942A0C809119018823F3
:1030F00031F06AE771E08EEC94E00E942A0C68E8F7
:1031000071E08EEC94E00E94BB0C6091FB0370E0D8
:103110008EEC94E00E94FC0B1EE9E12E13E0F12EF0
:1031200010E000E0C8010E941026D7018D937D01B8
:103130000F5F1F4F06321105A9F780919E038A3A4F
:1031400009F035C280919F03853509F030C2809126
:10315000C2039091C3038130954A09F028C280913F
:10316000C103817080931901882331F062E471E01A
:103170008EEC94E00E94570C0E94F1090E94F10924
:1031800021E030E04DEA54E061E070E00E9422115D
:103190000E94F10921E030E04FEA54E062E070E083
:1031A0000E9422110E94F10921E030E04EEA54E031
:1031B00063E070E00E9422110E94F10927EF30E0E5
:1031C000FC01318F208F62E084E00E94020660E003
:1031D00087E10E94020661E08DE00E94D4058091A3
:1031E0009C0390919D038560916090939D038093D3
:1031F0009C0342E050E06CE973E087E090E00E94BD
:103200007C1142E050E06DE171E08DE090E00E94C1
:103210007C1142E050E060EA73E08AE190E00E94B5
:103220007C1142E050E062EA73E08CE190E00E94A1
:103230007C1142E050E064EA73E088E090E00E9494
:103240007C1142E050E067E171E083E190E00E9490
:103250007C1142E050E06AE171E082E190E00E947E
:103260007C1141E050E066E171E086E090E00E9470
:103270007C1141E050E065E171E086E190E00E9460
:103280007C1142E050E06DE271E08AE090E00E9443
:103290007C1142E050E063E171E08BE090E00E943D
:1032A0007C1142EF50E06CE271E08FE10E949211DC
:1032B00048EE50E06BE271E080E20E94921141E042
:1032C00050E062E171E084E190E00E947C1141E015
:1032D00050E06AE271E087E190E00E947C1141E0F9
:1032E00050E06CE171E08EE090E00E947C1141E0E2
:1032F00050E06FE171E08CE090E00E947C1141E0D1
:1033000050E06AEA73E08FE090E00E947C1141E0B7
:1033100050E06BEA73E081E190E00E947C1141E0B3
:1033200050E069E271E080E190E00E947C1141E0B0
:1033300050E068E271E088E190E00E947C118091A9
:10334000A6039091A703909321018093200141E06F
:1033500050E06FE171E08CE090E00E94C90A42E029
:1033600050E06CE973E087E090E00E94C90A909316
:1033700094038093930380911901882309F45EC01C
:1033800060919C0370919D0340E1CE0101960E94E3
:10339000840E4AE060911F01CE0143960E94B00E58
:1033A0001A8E198E1C8E1B8E1E8E1D8E6DE270E085
:1033B000CE0149960E94E40D811106C1CE014996C5
:1033C0000E940C0EBE016D5E7F4FCE0149960E9499
:1033D000490E8C01DC011496ED90FC90B1E1EB0EEE
:1033E000F11CB7010E94E40D882309F4F8C0F8012C
:1033F000208131818481958165EC71E0820F931F7A
:103400000E94EF29D8011596FC92EE921497BE0106
:103410006F5F7F4FC8010E94490EBC018EEC94E0A3
:103420000E943C0CCE0149960E947C0ECE01439630
:103430000E947C0ECE0101960E947C0E1092CD045B
:103440000E9495066093C4047093C5048093C604DB
:103450009093C7048AE090E0A0E0B0E08093C804B5
:103460009093C904A093CA04B093CB0481E08093E5
:10347000CC04BCE36B2E712CBB24B394ACE35A2E6A
:103480008EEC94E00E942307892B09F47EC48EEC15
:1034900094E00E9401078C01F0901901FF2029F0AF
:1034A000682F8EEC94E00E945A07E0919804EE3168
:1034B00008F066C40D30110599F00A30110581F04D
:1034C0000F3E110569F0C8018B7F8B3B910541F0E0
:1034D00081E08E0F80939804F0E0ED58FC4F00835C
:1034E000E0919804F0E0ED58FC4F1082FF2031F09D
:1034F0006FE577E08EEC94E00E94A10680911901BF
:10350000882331F063E773E08EEC94E00E94BB0CFB
:1035100080911901882331F06DE577E08EEC94E01D
:103520000E94570C80919804882309F495C01A8F43
:10353000098F8EEC94E090936C0580936B050D30B1
:10354000110521F00A30110509F09ACF809173031B
:10355000082E000C990B0E94DE29883409F405C25C
:103560000CF086C0833409F49AC1ECF58F3309F46A
:10357000FCC1823409F40AC161EA76E08EEC94E081
:103580000E94A10663E773E08EEC94E00E94BB0CFE
:103590006EED72E08EEC94E00E942A0C61EE72E017
:1035A0008EEC94E00E942A0C109273034FC080911D
:1035B0001901882331F06DEF70E08EEC94E00E94E9
:1035C000570C0E94690CD8CD8DE290E09E8F8D8FB4
:1035D00067E971E0898D9A8D0E94EF29F3CEC801C9
:1035E0000E940C0E14CF843409F4AFC3853421F645
:1035F00080917403082E000C990B0E94DE298E34F2
:1036000009F0B7C00D30110519F00A301105F1F4B9
:1036100085E793E00E9476248C01029708F458C055
:1036200061E976E08EEC94E00E94A10667ED71E01E
:1036300080916B0590916C050E94BB0C61E776E070
:1036400080916B0590916C050E94570C1092980424
:1036500080919804811114CF80911901882309F475
:103660000FCF6DEE72E08EEC94E00E94BB0C08CFA1
:10367000833509F4BFC29CF48E3409F47EC38135CE
:1036800009F07ACF64EB76E08EEC94E00E94A1061C
:1036900070E060E08EEC94E00E94FC0BD7CF8A359E
:1036A00009F4C2C28E3709F4CDC2843509F064CF63
:1036B00080917403082E000C990B0E94DE2983343C
:1036C00009F494C0843409F4BDC062E872E053C0C8
:1036D00061E676E08EEC94E00E94A106E0906B0536
:1036E000F0906C058091AC031C8A1B8A1E8A1D8A8F
:1036F000188E1F8A4AE0BE016F5F7F4F90E00E94E4
:10370000A624BE016F5F7F4FCE0143960E941E0E1E
:10371000BE016D5E7F4FC7010E943C0CCE014396F7
:103720000E947C0E01700093AC036CE576E0809102
:103730006B0590916C050E94A10667ED71E0809188
:103740006B0590916C050E94BB0C62E576E0809160
:103750006B0590916C050E94A1066091AC0370E02E
:1037600080916B0590916C050E94FC0B6CE276E0F9
:1037700067CF64EF71E08EEC94E00E94BB0C63E7CE
:1037800073E08EEC94E00E942A0C60CF8091740369
:10379000082E000C990B0E94DE298534D9F086345E
:1037A00041F7912C812CA12CE5E1CE2EE2E0DE2E1A
:1037B000F6EAEF2EF3E0FF2E8E010F5F1F4F20E0A1
:1037C00048E55BE1BE01675E7F4F84E793E00E94BE
:1037D000DD0E3CCF912C812CA12C6BE2C62E62E039
:1037E000D62E78EAE72E73E0F72EE6CF8091A0037D
:1037F0009091A103B3010E9436267A836983912CAC
:10380000812CA12C5BE3C52E52E0D52EFE01319612
:103810007F018E010D5E1F4F20E040E45FE1BE019D
:10382000675E7F4F84E793E00E94DD0E29813A8135
:10383000529EC001539E900D11249093A10380933A
:10384000A00304CF8091A2039091A303B3010E942F
:1038500036267A836983912C812CA12C4DE5C42EC8
:1038600042E0D42E9E012F5F3F4F79018E010D5E05
:103870001F4F20E040E45FE1BE01675E7F4F84E7B9
:1038800093E00E94DD0E29813A81529EC001539E31
:10389000900D11249093A3038093A203D7CE80911F
:1038A0007403082E000C990B0E94DE29883481F1E4
:1038B0008C3409F05ECF8091AF039091B0039A836E
:1038C0008983912C812CA12C3CE9C32E32E0D32E8C
:1038D000CE0101967C018E010D5E1F4F20E040E479
:1038E0005FE1BE01675E7F4F84E793E00E94DD0EDB
:1038F000882309F4ABCE89819A819093B003809399
:10390000AF030E948D0D9093AE038093AD039ECEC6
:103910008091B3039091B4039A838983912C812C75
:10392000A12C21EBC22E22E0D22EDE0111967D01C8
:103930008E010D5E1F4F20E040E45FE1BE01675E37
:103940007F4F84E793E00E94DD0E882309F47ECE4A
:1039500089819A819093B4038093B3030E948D0D63
:103960009093B2038093B10371CE80917403082EBB
:10397000000C990B0E94DE29853409F467CE81354D
:1039800009F464CE6EE176E08EEC94E00E94570C70
:103990008EEC94E00E94F80B65E076E08EEC94E00B
:1039A0000E94570C66E571E08EEC94E00E942A0CB0
:1039B0008EEC94E00E94F80B63EF75E08EEC94E0DF
:1039C0000E94570C61EC75E08EEC94E00E94A10619
:1039D0006091AC0370E08EEC94E00E94FC0B61E916
:1039E00075E08EEC94E00E94A1068EEC94E00E94BB
:1039F000F80B6FE575E08EEC94E00E94A1066091F3
:103A0000A6037091A7034AE050E08EEC94E00E9478
:103A1000180C6DE275E08EEC94E00E94A1066091B6
:103A2000A8037091A9034AE050E08EEC94E00E9454
:103A3000180C6BEF74E08EEC94E00E94A10680916C
:103A4000A0039091A103B3010E9436264AE050E002
:103A50008EEC94E00E94180C69EC74E08EEC94E01B
:103A60000E94A1068091A2039091A303B3010E943A
:103A700036264AE050E08EEC94E00E94180C67E98C
:103A800074E08EEC94E00E94A1066091AF03709107
:103A9000B0034AE050E08EEC94E00E94A80B60E98D
:103AA00074E08EEC94E00E94570C64E774E08EECB6
:103AB00094E00E94A1066091AD037091AE034AE0CC
:103AC00050E08EEC94E00E94A80B62E774E08EEC6C
:103AD00094E00E94570C60E474E08EEC94E00E9445
:103AE000A1066091B3037091B4034AE050E08EECFC
:103AF00094E00E94A80B69E374E08EEC94E00E94CD
:103B0000570C6CE174E08EEC94E00E94A106609189
:103B1000B1037091B2034AE050E08EEC94E00E9451
:103B2000A80B6AE174E08EEC94E00E94570C6CEEF6
:103B300073E08EEC94E00E94570C6BEA73E08EEC1D
:103B400094E00E94570C6FE673E08EEC94E00E94C4
:103B5000570C62E373E08EEC94E00E94570C66EF22
:103B600072E08EEC94E00E94570C69EB72E08EECF0
:103B700094E00E94570C6BE872E08EEC94E00E9497
:103B8000570C69E572E08EEC94E00E94570C6FE4EC
:103B900072E08EEC94E00E94570C6AE272E08EECC8
:103BA00094E00E94A1064091C10350E070E060E003
:103BB00020E18EEC94E00E94330B8EEC94E00E94A6
:103BC000F80B64E172E08EEC94E00E94A106609133
:103BD0002001709121018EEC94E00E94FC0B6AE0C0
:103BE00072E08EEC94E00E94570C6DE176E08EEC72
:103BF00094E02ACD9EE9E92E93E0F92E10E000E052
:103C0000F701D1907F01C8010E941026D81621F03B
:103C10006D2DC8010E9418260F5F1F4F0632110537
:103C200079F76DE377E0E3CF0E94690C68EE76E008
:103C30008EEC94E00E94570C8091C10381708093B8
:103C4000190104CD64EF71E08EEC94E00E94A106AE
:103C500010E000E0F12CE12CD12CC701800F911F66
:103C60000E9410268F3F11F0DD24D394FFEFEF1A4E
:103C7000FF0A20E1E216F10481F70115110519F0A0
:103C8000DD2009F454C06FEE71E08EEC94E00E94E8
:103C9000A1066DEE71E08EEC94E00E94A1060F3F4C
:103CA000110509F078F46BEE71E08EEC94E00E945F
:103CB000A1060031110530F469EE71E08EEC94E05C
:103CC0000E94A10640E150E0B8018EEC94E00E9411
:103CD000A80B67EE71E08EEC94E00E94A1066801EB
:103CE000F12CC6010E941026E82E3FE0381730F074
:103CF00065EE71E08EEC94E00E94A1064E2D50E03E
:103D000070E060E020E18EEC94E00E94330B8FE0E5
:103D1000F81631F063EE71E08EEC94E00E94A1069B
:103D20009FEFC91AD90AF394A0E1FA12DACF005F23
:103D30001F4F0115B4E01B0709F08CCF6FEC71E049
:103D40008EEC94E00E94A10681CC912C812CAA24B7
:103D5000A39489ECC82E82E0D82EFE0131967F0113
:103D600001EC13E021E04FEF50E0BE01675E7F4FB2
:103D700083E793E00E94DD0E5FCF68EC76E037CFFB
:103D8000109298041092730363CC80EB94E00E942D
:103D900024081091B9048091B804811118C088EEEC
:103DA00093E0A0E0B0E08093B4049093B504A093B6
:103DB000B604B093B7040E9495066093B004709364
:103DC000B1048093B2049093B304B092B8041092FB
:103DD000B904112309F405C284E00E94AB058C01EB
:103DE0000E943705C090AF03D090B003F12CE12CB6
:103DF0002090AD033090AE03512C412C2091B303A1
:103E00003091B40350E040E02C193D094E095F09A0
:103E1000BC01990F880B990B6219730984099509E4
:103E20000E9426262091B1033091B20350E040E079
:103E300022193309440955090E946C26C20ED31E6B
:103E4000E41EF51ED7FC3FC2D0922101C092200192
:103E50008091AC03882309F458C2C090A803D09085
:103E6000A903F12CE12C2091200130912101032E96
:103E7000000C440B550B2C193D094E095F09A4E6B3
:103E8000B0E00E948B262091A6033091A70350E05A
:103E900040E02C193D094E095F090E946C26F12C67
:103EA00037FD06C02536310514F024E630E0F22E49
:103EB000F0921F016091A2037091A30390E080E053
:103EC0000E94F1241B012C016F2D70E090E080E036
:103ED0000E94F3249B01AC01C201B1010E94522552
:103EE00020E030E048EC52E40E9449271B012C01FD
:103EF00020E030E0A9010E94F12720E030E040E01E
:103F00005FE387FDE5C1C201B1010E94DD260E9489
:103F1000BB2770931E0160931D0180919C039091BB
:103F20009D030115110509F4D8C1856090939D0387
:103F300080939C0380919C0390919D0320911C0190
:103F4000F212CDC1916090939D0380939C03809168
:103F50009C0390919D030115110509F0C5C12091A5
:103F6000A4033091A5036217730708F0BAC18262F7
:103F700090939D0380939C0380919C0390919D035B
:103F800020911A0130911B01121613060CF0AEC1DC
:103F9000946090939D0380939C03809119018823E2
:103FA00031F064EF72E08EEC94E00E942A0C809174
:103FB0009C0390919D039C0120723470232B09F483
:103FC0009BC1986090939D0380939C0380911901FD
:103FD000882331F067E073E08EEC94E00E942A0CB5
:103FE00080919C0390919D03886090939D038093A2
:103FF0009C0320919A0330919B0382179307B9F495
:1040000090911F0180919903981311C020911D0177
:1040100030911E01809197039091980328173907DA
:1040200031F480919503909196034B97F4F141E020
:1040300050E06FE171E08CE090E00E94C90A012B32
:1040400041F442E050E06DE171E08DE090E00E94CB
:10405000C90A42E050E06CE973E087E090E00E941A
:10406000C90A90939403809393031092960310923D
:10407000950320919C0330919D0330939B032093E3
:104080009A0320911F012093990320911D013091E3
:104090001E01309398032093970397FD33C181E06D
:1040A00090E090939203809391038091AC038823D6
:1040B00009F475C080911901882331F069EB71E032
:1040C0008EEC94E00E94BB0C80911901882351F082
:1040D00040911F0150E070E060E02AE08EEC94E037
:1040E0000E94330B80911901882331F069E173E05C
:1040F0008EEC94E00E94BB0C80911901882369F03A
:1041000080911D0190911E01B3010E9436264AE064
:1041100050E08EEC94E00E94A80B80911901882356
:1041200031F06BE273E08EEC94E00E94BB0C809166
:104130001901882371F080911D0190911E01B30136
:104140000E9436264AE050E0BC018EEC94E00E94CA
:10415000A80B80911901882331F06DE273E08EEC99
:1041600094E00E94BB0C80911901882371F040916A
:10417000930350919403052E000C660B770B77FF89
:10418000C9C08EEC94E00E947F0B809119018823B6
:1041900031F06DE473E08EEC94E00E94BB0CB092C1
:1041A000190160E573E08EEC94E00E94BB0C8091F5
:1041B0001901882341F060912001709121018EEC5A
:1041C00094E00E94FC0B60E573E08EEC94E00E94AA
:1041D000BB0C60912001709121018EEC94E00E9453
:1041E000FC0B80919103909192038130910509F429
:1041F00097C008F4A7C0029709F49BC084EC94E030
:104200000E9424088091CD0481111092CC04109258
:10421000CD048823F9F01092C3040E9495066093A0
:10422000BA047093BB048093BC049093BD042F8D9B
:1042300038A1C901B0E0A0E08093BE049093BF0410
:10424000A093C004B093C104B092C20460E08DE0BA
:104250000E94D4058AEB94E00E9424088091C30454
:1042600081111092C2041092C3048823F9F01092B5
:10427000CD040E9495066093C4047093C504809396
:10428000C6049093C704E9A1FAA1CF01B0E0A0E071
:104290008093C8049093C904A093CA04B093CB043C
:1042A000B092CC0461E08DE00E94D40580E090E003
:1042B000892B09F4E3C80E942F07882309F4DCC87E
:1042C0000E940000D9C81092210110922001C0CD97
:1042D000C201B1010E94DC261ACE8A7F27CE9E7FC2
:1042E00032CE8F7D826044CE8D7D42CE9B7F909377
:1042F0009D0380939C035BCE977F90939D03809357
:104300009C036ECE82E090E0CCCE1092920310928D
:104310009103CBCE2AE08EEC94E00E94330B35CF94
:10432000A4E6B0E0B8A3AF8FE4E8F3E0FAA3E9A312
:1043300065CF24E833E038A32F8F84E690E09AA37A
:1043400089A35CCFA4EFB1E0B8A3AF8FE4EFF1E0B5
:10435000EDCFCF93DF93DC012D91FB013191EC0187
:104360003883EB01288341505109CD01BF01141658
:1043700015068CF3DF91CF910895B0E0A0E0E3EC57
:10438000F1E20C94A0266C01D62FC72F8A01790187
:10439000F9010995B80197FF15C08D2F9C2FF701E2
:1043A000099597FD08C0B801C601F701099597FD69
:1043B00016C0DC2DCD2D8D2F9C2FCDB7DEB7E8E0BC
:1043C0000C94BC268D2F9C2FF70109951816190601
:1043D00094F3B801C601F701099597FDEACFD02FF4
:1043E000C12FE9CFA8E0B0E0E8EFF1E20C94962607
:1043F0008C0158874F8359019A01319521953109D4
:104400003E832D836F807884600E711E6730710546
:1044100078F58F819885689F6001699FD00C789F9F
:10442000D00C1124C00ED11E6C147D0420F02896EF
:10443000E2E10C94B226730113C047012F81388545
:10444000821A930AB701C401F501099518161906D5
:1044500054F44F815885B401C7010E94A921740109
:104460000E151F0550F3EF81F8856E0E7F1EDCCF11
:10447000CB01969587952F813885829F6001839F18
:10448000D00C929FD00C1124C00ED11ECB010197ED
:10449000829F1001839F300C929F300C1124780171
:1044A000E20CF31C6730710509F442C0C701280112
:1044B00069327105B0F183E0769567958A95E1F7E9
:1044C000629F4001639F900C729F900C1124C40165
:1044D000880F991F9A838983AC01400F511FB8013F
:1044E000680D791D9501C8010E94BD212C01A6010E
:1044F000480D591D9194819491089501B601C6010A
:10450000880D991D0E94BD216C01B701680D791DB0
:104510009501A701C701E981FA818E1B9F0B0E94BB
:10452000BD219501AC01B601C2010E94BD216C0103
:104530004F815885B601C8010E94A921430163013A
:1045400027011A821982EC14FD0408F446C0B80150
:10455000C601F50109951816190654F1892B71F455
:104560004F815885B601C3010E94A9212F8138854A
:10457000620E731E81E090E09A838983EF81F88553
:10458000CE0EDF1EE0CF892B71F44F815885B2012A
:10459000C7010E94A9212D813E81420E531E81E058
:1045A00090E09A838983EB80FC80EC14FD04A8F0F2
:1045B000B801C701F50109952D813E812E0D3F1DE2
:1045C0003C832B8397FFDFCF4F815885B701C6010E
:1045D0000E94A921EB80FC80CDCFEF81F8852E0EC3
:1045E0003F1E200E311E29813A81232B09F58214AA
:1045F000930408F01CCF740113C06701EF81F885A4
:10460000CE1ADF0AB701C601F50109951816190679
:1046100054F44F815885B601C7010E94A921760143
:104620000E151F0550F38F819885880E991EDFCFD8
:10463000460186189708A301401B510B8416950666
:104640000CF4A4011416150634F4B601641B750BA2
:10465000C8010E94A92192012E193F097901A101E7
:10466000441955098F819885481B590B2417350724
:1046700008F4A9011416150634F4B101641B750B76
:10468000C6010E94A921EF81F885E815F90548F4D3
:10469000C401BF010E9436269501AF01C8010E94E6
:1046A000F2212F8138852E153F0508F0C0CE8101FB
:1046B0000E191F09C701B9010E943626A3CEB0E02A
:1046C000A0E0E5E6F3E20C9497265C016B017A0129
:1046D0006115710519F0FB0191838083E114F104E8
:1046E00051F0C7010297839730F040E030E020E0BE
:1046F00090E072C05E01E5012196F5011081812FE5
:1047000090E00E949424892BA9F71D3201F521968F
:10471000F501118101E0E114F10409F4DAC0F0E1DE
:10472000EF16F10409F082C0103359F488818F7DAF
:10473000883509F076C0198122960260F0E1EF2EEB
:10474000F12C812C912CA12C88E0B82E8CC01B322E
:1047500021F4E5012296F501118100E0DCCFEAE0C9
:10476000EE16F10409F4BBC0F0E1EF16F10409F014
:104770006DC0E7CF78E0E72EF12C812C912CA12C95
:1047800060E1B62E70C03FE9310F3A3128F439EAC2
:10479000332E80C021E09AC0302F3170C114D10473
:1047A00031F0222309F12197F601D183C08327FF3D
:1047B00021C060E070E080E090E8311104C06FEF4C
:1047C0007FEF8FEF9FE722E230E030937405209374
:1047D0007305462F372F282F642F732F822FCDB7C5
:1047E000DEB7E1E10C94B32601FF04C02297F60185
:1047F000D183C083332341F0909580957095619566
:104800007F4F8F4F9F4FE5CF97FFE3CF82E290E03E
:1048100090937405809373056FEF7FEF8FEF9FE7A1
:10482000D8CF10E3E114F10409F4A4CF28E0E21694
:10483000F10409F4A2CF0CF092CF812C912CA12C81
:10484000E0E4BE2E82E0E816F10469F060E070E07A
:1048500080E090E897010F2C000C440B550B0E9450
:104860004A2649015A0120E060E070E0CB012701AF
:104870000F2C000C66087708FE0150ED352E310E26
:1048800039E0331540F43FEB310F3A3108F07BCF7C
:1048900049EC342E310E3E141F040CF07DCF27FD61
:1048A00015C086169706A806B90678F0A3019201EE
:1048B0000E942626630D711D811D911D61307105B9
:1048C000810520E8920708F465CF2FEF219610812B
:1048D000D3CF103309F42ACF2AE0E22EF12C9CEC3E
:1048E000892E982CA82C9CE0B92EBDCFFC018827DE
:1048F0009927E89421912032E9F3293010F02E30E5
:10490000C8F32B3241F02D3239F4689404C00E9470
:10491000B124820F911D219120532A30C0F31EF43F
:10492000909581959F4F089591110C94DE248032CB
:1049300019F089508550C8F70895FC0105900020B2
:10494000E9F7809590958E0F9F1F0895BB274A30F9
:1049500031F4992322F4BDE2909581959F4F0C94F8
:10496000C5247AE0979F902D879F802D910D11246B
:1049700008954532510520F4423010F00C94C424BF
:10498000FB011082CB010895BB27FB015527AA2705
:10499000880F991FAA1FA41710F0A41B83955051CC
:1049A000B9F7A05DAA3308F0A95DA193009779F744
:1049B000B111B1931192CB010C94E124992788276E
:1049C0000895DC01FC01672F71917723E1F732979D
:1049D00004C07C916D9370836291AE17BF07C8F3DA
:1049E0000895E89409C097FB3EF4909580957095E2
:1049F00061957F4F8F4F9F4F9923A9F0F92F96E92B
:104A0000BB279395F695879577956795B795F1119F
:104A1000F8CFFAF4BB0F11F460FF1BC06F5F7F4F3C
:104A20008F4F9F4F16C0882311F096E911C077234E
:104A300021F09EE8872F762F05C0662371F096E857
:104A4000862F70E060E02AF09A95660F771F881F26
:104A5000DAF7880F9695879597F90895990F0008CA
:104A6000550FAA0BE0E8FEEF16161706E807F90740
:104A7000C0F012161306E407F50798F0621B730BDB
:104A8000840B950B39F40A2661F0232B242B252B5C
:104A900021F408950A2609F4A140A6958FEF811DFF
:104AA000811D08950E9465250C94D6250E94C82575
:104AB00038F00E94CF2520F0952311F00C94BF25EB
:104AC0000C94C52511240C940A260E94E72570F346
:104AD000959FC1F3950F50E0551F629FF001729FA3
:104AE000BB27F00DB11D639FAA27F00DB11DAA1FB2
:104AF000649F6627B00DA11D661F829F2227B00DFF
:104B0000A11D621F739FB00DA11D621F839FA00D89
:104B1000611D221F749F3327A00D611D231F849FD9
:104B2000600D211D822F762F6A2F11249F57504030
:104B30009AF0F1F088234AF0EE0FFF1FBB1F661FAB
:104B4000771F881F91505040A9F79E3F510580F074
:104B50000C94BF250C940A265F3FE4F3983ED4F3EF
:104B6000869577956795B795F795E7959F5FC1F718
:104B7000FE2B880F911D9695879597F9089597F9C3
:104B80009F6780E870E060E008959FEF80EC0895F3
:104B900000240A941616170618060906089500241C
:104BA0000A9412161306140605060895092E039496
:104BB000000C11F4882352F0BB0F40F4BF2B11F40A
:104BC00060FF04C06F5F7F4F8F4F9F4F089557FD69
:104BD0009058440F551F59F05F3F71F04795880F6B
:104BE00097FB991F61F09F3F79F087950895121602
:104BF00013061406551FF2CF4695F1DF08C01616AE
:104C000017061806991FF1CF86957105610508945E
:104C10000895E894BB2766277727CB0197F9089575
:104C2000F999FECF92BD81BDF89A992780B5089574
:104C3000262FF999FECF1FBA92BD81BD20BD0FB6B8
:104C4000F894FA9AF99A0FBE01960895DB018F93B2
:104C50009F930E948B26BF91AF91A29F800D911DC3
:104C6000A39F900DB29F900D11240895AA1BBB1B0A
:104C700051E107C0AA1FBB1FA617B70710F0A61B5C
:104C8000B70B881F991F5A95A9F780959095BC017D
:104C9000CD010895A1E21A2EAA1BBB1BFD010DC078
:104CA000AA1FBB1FEE1FFF1FA217B307E407F507DC
:104CB00020F0A21BB30BE40BF50B661F771F881FB8
:104CC000991F1A9469F760957095809590959B014E
:104CD000AC01BD01CF010895052E97FB1EF4009491
:104CE0000E94832657FD07D00E944A2607FC03D066
:104CF0004EF40C94832650954095309521953F4F66
:104D00004F4F5F4F089590958095709561957F4FB7
:104D10008F4F9F4F08950E94CD26A59F900DB49F61
:104D2000900DA49F800D911D112408952F923F9204
:104D30004F925F926F927F928F929F92AF92BF92AB
:104D4000CF92DF92EF92FF920F931F93CF93DF9357
:104D5000CDB7DEB7CA1BDB0B0FB6F894DEBF0FBEB4
:104D6000CDBF09942A88398848885F846E847D8401
:104D70008C849B84AA84B984C884DF80EE80FD8003
:104D80000C811B81AA81B981CE0FD11D0FB6F89479
:104D9000DEBF0FBECDBFED010895A29FB001B39F4E
:104DA000C001A39F700D811D1124911DB29F700D34
:104DB000811D1124911D08955058BB27AA270E94D8
:104DC000F4260C94D6250E94C82538F00E94CF25E1
:104DD00020F039F49F3F19F426F40C94C5250EF405
:104DE000E095E7FB0C94BF25E92F0E94E72558F3D7
:104DF000BA17620773078407950720F079F4A6F5C0
:104E00000C9409260EF4E0950B2EBA2FA02D0B0161
:104E1000B90190010C01CA01A0011124FF27591BFF
:104E200099F0593F50F4503E68F11A16F040A22F05
:104E3000232F342F4427585FF3CF46953795279576
:104E4000A795F0405395C9F77EF41F16BA0B620B75
:104E5000730B840BBAF09150A1F0FF0FBB1F661FBC
:104E6000771F881FC2F70EC0BA0F621F731F841FFF
:104E700048F4879577956795B795F7959E3F08F025
:104E8000B0CF9395880F08F09927EE0F97958795E7
:104E900008950E945D270C94D6250E94CF2558F0D6
:104EA0000E94C82540F029F45F3F29F00C94BF25EB
:104EB00051110C940A260C94C5250E94E72568F32D
:104EC0009923B1F3552391F3951B550BBB27AA27C3
:104ED00062177307840738F09F5F5F4F220F331FFD
:104EE000441FAA1FA9F335D00E2E3AF0E0E832D0C5
:104EF00091505040E695001CCAF72BD0FE2F29D0C8
:104F0000660F771F881FBB1F261737074807AB0799
:104F1000B0E809F0BB0B802DBF01FF2793585F4F0E
:104F20003AF09E3F510578F00C94BF250C940A2668
:104F30005F3FE4F3983ED4F3869577956795B795F0
:104F4000F7959F5FC9F7880F911D9695879597F9FB
:104F50000895E1E0660F771F881FBB1F6217730774
:104F60008407BA0720F0621B730B840BBA0BEE1F89
:104F700088F7E09508950E94C2276894B1110C94B7
:104F80000A2608950E94EF2588F09F5798F0B92FC0
:104F90009927B751B0F0E1F0660F771F881F991F6E
:104FA0001AF0BA95C9F714C0B13091F00E940926E1
:104FB000B1E008950C940926672F782F8827B85FF1
:104FC00039F0B93FCCF3869577956795B395D9F7C6
:104FD0003EF490958095709561957F4F8F4F9F4FD0
:104FE00008950E942E2508F48FEF0895EE0FFF1FFD
:104FF0000590F491E02D09940F931F93CF93DF93C5
:105000008230910510F482E090E0E0917705F09114
:10501000780530E020E0B0E0A0E0309799F4211569
:10502000310509F44AC0281B390B24303105D8F565
:105030008A819B816115710589F1FB0193838283CC
:10504000FE0111C040815181028113814817590727
:10505000E0F04817590799F4109761F012960C93F5
:10506000129713961C933296CF01DF91CF911F9127
:105070000F9108950093770510937805F4CF2115CB
:10508000310551F04217530738F0A901DB019A01AD
:10509000BD01DF01F801C1CFEF01F9CF9093780591
:1050A00080937705CDCFFE01E20FF31F819391939B
:1050B0002250310939832883D7CF2091750530914B
:1050C0007605232B41F42091240130912501309362
:1050D0007605209375052091220130912301211539
:1050E000310541F42DB73EB740912601509127017B
:1050F000241B350BE0917505F0917605E217F30757
:10510000A0F42E1B3F0B2817390778F0AC014E5F37
:105110005F4F2417350748F04E0F5F1F50937605F9
:1051200040937505819391939FCFF0E0E0E09CCF91
:10513000CF93DF930097E9F0FC013297138212823C
:10514000A0917705B0917805ED0130E020E010974F
:10515000A1F420813181820F931F20917505309138
:1051600076052817390709F061C0F0937605E093BA
:105170007505DF91CF910895EA01CE17DF07E8F5B5
:105180004A815B819E0141155105B1F7E901FB831D
:10519000EA8349915991C40FD51FEC17FD0761F4BB
:1051A000808191810296840F951FE90199838883FC
:1051B000828193819B838A83F0E0E0E012968D9157
:1051C0009C9113970097B9F52D913C911197CD01C2
:1051D0000296820F931F209175053091760528174E
:1051E000390739F6309751F5109278051092770506
:1051F000B0937605A0937505BCCFD383C28340815D
:105200005181840F951FC817D90761F44E5F5F4F16
:1052100088819981480F591F518340838A819B81DE
:10522000938382832115310509F0B0CFF09378057F
:10523000E09377059ECFFD01DC01C0CF138212827F
:10524000D7CFB0E0A0E0E7E2F9E20C9498268C0119
:10525000009751F4CB010E94FC278C01C801CDB707
:10526000DEB7E0E10C94B426FC01E60FF71F9C01C9
:1052700022503109E217F30708F49DC0D901CD91FE
:10528000DC911197C617D70798F0C530D10530F3D8
:10529000CE0104978617970708F3C61BD70B2297F2
:1052A000C193D1936D937C93CF010E949828D6CF60
:1052B0005B01AC1ABD0A4C018C0E9D1EA0917705B6
:1052C000B0917805512C412CF12CE12C109731F53F
:1052D00080917505909176058815990509F05CC057
:1052E0004616570608F058C080912201909123017C
:1052F000009741F48DB79EB7409126015091270148
:10530000841B950BE817F90708F055C0F093760554
:10531000E0937505F90171836083A0CF8D919C9115
:10532000119712966C90129713967C901397A8156C
:10533000B90559F56C0142E0C40ED11CCA14DB0456
:1053400020F1AC014A195B09DA011296159780F039
:105350006282738251834083D9016D937C93E114FF
:10536000F10471F0D7011396FC93EE93129776CF68
:1053700022968C0F9D1FF90191838083F301EFCF5B
:10538000F0937805E093770569CF4816590608F43D
:105390002C017D01D3019ACFCB010E94FC277C0117
:1053A000009749F0AE01B8010E94E629C8010E94A9
:1053B0009828870153CF10E000E050CF9111089555
:1053C00081568A5108F4805285580895FB01DC010A
:1053D00002C001900D9241505040D8F70895FB0152
:1053E000DC0101900D920020E1F70895F894FFCFC1
:1053F000120100020000004041233680000101023A
:1054000003010214050201FFFF01FFFF64201C6479
:10541000140500007905800001016405046405009D
:105420000000006C10EC08070DBD0C000000005AD5
:1054300007C506F206A607230701071507000000A7
:1054400000AE0B0D0A000A436F6D70696C65642035
:1054500061743A204D617220323520323032342C62
:105460002031303A31393A32340053746172746900
:105470006E672E2E2E0A0D005553424344434E654F
:10548000656465643A200053656E64696E672069DF
:105490006E697469616C20616C6C2D676F6F64203C
:1054A0007265706F72742E206952656D61696E69E4
:1054B0006E673A20002C2053746174757320426922
:1054C00074733A20307800456E61626C65205043F9
:1054D000205265706F7274696E672F5368757464BB
:1054E0006F776E004552524F523A2042616420421B
:1054F0002028426174746572792920636F6D6D6133
:105500006E643A2000426174746572792046756C4D
:105510006C2043686172676520560042617474654F
:10552000727920456D7074792056004D696E7574DE
:10553000657320746F2066756C6C79206368617286
:1055400067652066726F6D2064656164004D696EE9
:105550007574657320746F2066756C6C792064694E
:10556000736368617267652066726F6D2066756C23
:105570006C004552524F523A204261642054696D8A
:105580006520636F6D6D616E643A2000562A31307C
:1055900030206F66206C6F7720766F6C7461676562
:1055A00000562A313030206F66206869676865725E
:1055B00020766F6C7461676500446562756720468C
:1055C0006C6167732028313A4D61696E29005D2E48
:1055D000004820666F722048656C700A000A436DAF
:1055E000643A200073687574646F776E2072657119
:1055F0007565737465640073687574646F776E2085
:10560000696D6D696E656E74002C20546F20456D58
:10561000707479206D6D3A737320003A002C20432A
:105620006F6D6D207769746820504320286E656720
:1056300061746976653D626164293A20002C20001E
:0C564000426174562A3130303A200000DC
:00000001FF
