:100000000C94EC070C9414080C9414080C94140829
:100010000C9414080C9414080C9414080C941408F0
:100020000C9414080C9414080C94761C0C94051D64
:100030000C9414080C9414080C9414080C941408D0
:100040000C9414080C9414080C9414080C941408C0
:100050000C9414080C9414080C9414080C94B91AF9
:100060000C9414080C94291B0C94031B0C94140876
:100070000C9414080C9414080C9414080C94140890
:100080000C9414080C9414080C9414080C94140880
:100090000C945B1B0C9414080C9414080C94140816
:1000A0000C9414080C9414080C9414087368757458
:1000B000646F776E20696D6D696E656E740073682C
:1000C0007574646F776E20696D6D696E656E74000E
:1000D00073687574646F776E20726571756573747B
:1000E00065640073687574646F776E2072657175EE
:1000F00065737465640053687574646F776E206E01
:100100006F772120527474653D0053687574646F75
:10011000776E206E6F772120527474653D002C201D
:10012000537461747573203D203078002C2044692D
:10013000736368617267696E673A20003A00252C24
:100140002000426174742052656D61696E696E674A
:10015000203D2000526573746F7265642066616390
:10016000746F72792064656661756C74732E0052C9
:100170006573746F72656420666163746F72792051
:1001800064656661756C74732E0004030904417222
:100190006475696E6F204C4C430041726475696EE2
:1001A0006F204C656F6E6172646F0055534243441B
:1001B000434E65656465643A2000555342434443A9
:1001C0004E65656465643A20004D79436F6F6C55E8
:1001D0005053005062416300555053313000454543
:1001E00050524F4D206E6F7420696E697427642ED3
:1001F000205573696E6720436F6D70696C6564206C
:1002000044656661756C74732E00476F6F643A20A5
:10021000454550524F4D20697320696E697469617C
:100220006C697A65642E000D0A24242D454E442005
:10023000454550524F4D0D0A0D0A00200030002058
:10024000003000300030000D0A2420000D0A242464
:100250002D454550524F4D20434F4E54454E54531B
:100260003A00417661696C61626C65204D656D6F25
:1002700072793A20002C20537461747573203D20EC
:100280003078004469736368617267696E673A2009
:10029000003A00252C20002C204261747420526505
:1002A0006D61696E696E67203D20004261747465FE
:1002B000727920566F6C746167652A3130303A204C
:1002C0000044782020202D20446562756720666CEC
:1002D0006167732020202020202020202020202043
:1002E000203A203078005A5346202D2053617665FD
:1002F00020466163746F72792064656661756C7401
:10030000732028466163746F727920757365206F5E
:100310006E6C7929005A4344202D20526573746F06
:10032000726520636F6D70696C65642066616374CB
:100330006F72792064656661756C7473005A202051
:10034000202D20526573746F726520666163746F2F
:1003500072792064656661756C747300202028567C
:100360002A31303029002020566F6C746167657324
:100370002077696C6C20616C7761797320626520ED
:10038000656E746572656420696E2068756E64724E
:1003900065647468732E2000202028496620796FD8
:1003A00075206D656173757265642031322E343548
:1003B00020766F6C74732C20656E746572204348D0
:1003C00031323435290020207768657265207676D1
:1003D000767620697320746865206D656173757227
:1003E000656420766F6C7461676520696E2068753E
:1003F0006E647265746873206F66206120766F6C1E
:10040000742E00202077697468206120676F6F6404
:10041000206469676974616C20766F6C74206D6507
:100420007465722E20456E74657220746865206351
:100430006F6D6D616E64204348767676762E00206F
:1004400020486F6F6B20746865206C656164732051
:100450006261636B20757020746F20746865206220
:100460006174746572792E204D65617375726520B3
:1004700074686520766F6C7461676500202053682E
:100480006F7274207468656D20746F676574686539
:10049000722E20456E7465722074686520636F6DDE
:1004A0006D616E6420434C3020285A65726F2C2099
:1004B0006E6F74204F68292E002020446973636F8B
:1004C0006E6E656374207468652062617474657211
:1004D0007920766F6C746167652073656E73652033
:1004E0006C656164732066726F6D2074686520624C
:1004F0006174746572792E20200020546F2063612E
:100500006C69627261746520766F6C7461676520D6
:1005100073656E73696E6720666F722074686973A5
:1005200020626F6172643A00290020202020202080
:1005300020202020202020202020202020202020BB
:100540002020202020206952656D6E436170616318
:100550006974794C696D6974203A20002900202063
:10056000202020202020202848696768205620412C
:1005700032442076616C75653A200020562A31306D
:10058000300043486E6E6E6E202D2043616C6962B0
:1005900072617465206869676820766F6C74616742
:1005A0006520706F696E742028562A3130302920FA
:1005B000203A200029002020202020202020202850
:1005C0004C6F772056204132442076616C75653A35
:1005D000200020562A31303000434C6E6E6E6E2063
:1005E0002D2043616C696272617465206C6F7720A5
:1005F000766F6C7461676520706F696E7420285621
:100600002A313030292020203A200054446E6E6E6A
:100610006E202D204176652E2054696D6520666F11
:10062000722066756C6C20446973636861726765DB
:1006300020286D696E75746573293A200054436EE5
:100640006E6E6E202D20417665726167652054695B
:100650006D6520746F2066756C6C792043686172DB
:10066000676520286D696E75746573293A200042AC
:10067000456E6E6E6E202D20426174746572792015
:10068000456D70747920766F6C74616765202020E9
:100690002020202020202028562A313030293A20BE
:1006A0000042466E6E6E6E202D204261747465723B
:1006B000792046756C6C2043686172676520766F9F
:1006C0006C746167652020202028562A313030293B
:1006D0003A200020202020202020202028303D4EBD
:1006E0006F205043207265706F7274696E672F734C
:1006F000687574646F776E2E20313D456E61626C53
:100700006564290D0A00454E526E2020202D205789
:1007100068696C6520696E204E6F726D616C207225
:10072000756E206D6F646520202020202020202001
:1007300020202020203A2000454E436E2020202DEE
:10074000205768696C6520696E20436F6E66696723
:10075000206D6F6465202020202020202020202074
:10076000202020202020203A2000456E61626C6508
:10077000207265706F7274696E672F536875746448
:100780006F776E20746F20746F20746865205043FB
:100790003A200050726573656E74205365747469F5
:1007A0006E67733A00436F6D70696C6564206174A5
:1007B0003A2000536D6172742055505320456D7579
:1007C0006C61746F722076302E31005A20202D20FB
:1007D000526573746F726520466163746F7279201D
:1007E00044656661756C7473004850202D20536811
:1007F0006F7720506172616D6574657273000A2DA8
:100800002D2D2D4D656E752D2D2D2D006950726588
:1008100073656E745374617475732020203A2030B0
:100820007800626174566F6C7461676520202020C7
:100830002020203A200052454D4E4341504143492B
:1008400054594C494D49543A200052454D41494E66
:10085000494E4743415041434954593A200052556B
:100860004E54494D45544F454D5054592020203A3F
:1008700020004820666F722048656C700A005D2E6B
:10088000000A556E6B6E6F776E20636F6D6D616ED3
:1008900064205B004849445F494E544552464143F9
:1008A000453A20004344435F41434D5F494E544520
:1008B00052464143453A200042616420636F6D6DAA
:1008C000616E642E2053686F756C64206265204EE3
:1008D0004C206F72204E4800446562756720466C5C
:1008E0006167732028313A4D61696E29000A5265AB
:1008F00073746F72656420466163746F727920440B
:10090000656661756C74732E2E2E0D0A204D7573FD
:100910007420646F2027532720746F2073617665DD
:1009200020746F20454550524F4D20286E6F6E2D1C
:10093000766F6C6174696C65206D656D6F72792975
:100940002E000A5361766564206E65772076616CAF
:10095000756528732920746F20466163746F7279FE
:100960002044656661756C740A000A526573746F81
:1009700072656420436F6D70696C656420466163C5
:10098000746F72792044656661756C747321000A16
:100990005361766564206E65772076616C75652895
:1009A000732920746F20454550524F4D2E0A004543
:1009B00052524F523A2042616420422028426174D0
:1009C000746572792920636F6D6D616E643A2000E1
:1009D000562A313030206F6620686967686572205A
:1009E000766F6C7461676500562A313030206F660F
:1009F000206C6F7720766F6C74616765004552528A
:100A00004F523A204261642054696D6520636F6DD6
:100A10006D616E643A20004D696E75746573207463
:100A20006F2066756C6C79206469736368617267A6
:100A3000652066726F6D2066756C6C004D696E7511
:100A400074657320746F2066756C6C7920636861BF
:100A50007267652066726F6D20646561640045523F
:100A6000524F523A204261642042202842617474FD
:100A70006572792920636F6D6D616E643A20004262
:100A800061747465727920456D70747920560042E6
:100A90006174746572792046756C6C20436861726C
:100AA00067652056004552524F523A2042616420F9
:100AB000454E61626C6520636F6D6D616E6420638D
:100AC0006F6D6D616E643A2000436F6E66696720DA
:100AD0004D6F64653A20456E61626C65205043201D
:100AE0005265706F7274696E672F53687574646FA6
:100AF000776E0052756E20284E6F726D616C2920E2
:100B00004D6F64653A20456E61626C6520504320EC
:100B10005265706F7274696E672F53687574646F75
:100B2000776E000A436D643A20000A436D643A20F0
:100B3000005D005D005B005B006952656D6E4361A6
:100B40007061636974794C696D6974204348414EE2
:100B50004745442C206E6F773A20006952656D6ED0
:100B600043617061636974794C696D6974204348AD
:100B7000414E4745442C206E6F773A200041766104
:100B8000696C61626C65204D656D6F72793A200009
:100B9000417661696C61626C65204D656D6F72793B
:100BA0003A2000202849676E6F726564290023236C
:100BB0002050432053657474696E672052454D4E32
:100BC00043415041434954594C494D495420746F55
:100BD00020307800202849676E6F726564290020F4
:100BE0002849676E6F7265642900232320504320D3
:100BF00053657474696E672052454D4E43415041B0
:100C0000434954594C494D495420746F2030780061
:100C100023232050432053657474696E6720524526
:100C20004D4E43415041434954594C494D4954203C
:100C3000746F20307800426174562A3130303A2087
:100C400000426174562A3130303A2000436F6D6D96
:100C500073207769746820504320286E65673D6271
:100C60006164293A2000436F6D6D73207769746861
:100C700020504320286E65673D626164293A200058
:100C800053656E64696E673A200053656E64696EE1
:100C9000673A2000232053656E7365643A20002371
:100CA0002053656E7365643A200000000000240044
:100CB00027002A002D003000000000002500280039
:100CC0002B002E0031000000000023002600290028
:100CD0002C002F0004040404040304050202020291
:100CE00004030202020206060606060604040202C5
:100CF000020404040802011040804010204080409B
:100D00008008020401804020100201108010204061
:100D100040200000000200090F0000030401000C45
:100D200000000000000000000000000000000000C3
:100D300000070605040100080A0B0C0D09446F6E3C
:100D4000277420666F7267657420746F202853299A
:100D500061766520746865206E65772076616C75B4
:100D60006521002073657420746F3A20004E65770A
:100D700020004F6C642076616C7565207761733A52
:100D800020002076616C756521204D6178206973A3
:100D900020312028666F72206120626F6F6C292ECF
:100DA0000A004572726F723A20496E76616C69640E
:100DB0002000446F6E277420666F7267657420741C
:100DC0006F2028532961766520746865206E6577E9
:100DD0002076616C75652100307800207365742081
:100DE000746F3A20004E657720003078004F6C64B5
:100DF0002076616C7565207761733A20002E0A00B9
:100E0000222076616C756521204D696E2069732002
:100E1000004572726F723A20496E76616C69642087
:100E200022002E0A002076616C756521204D6178C4
:100E300020697320004572726F723A20496E7661A4
:100E40006C6964200005840904A1010924A10275CC
:100E5000089501150026FF00850109FE7902B123DE
:100E6000850209FF7903B123850309FD7901B123C7
:100E700005858506098BB123851F09897904B1236E
:100E80008520098F7905B1238516092CB12385109A
:100E9000098D266400B1228518098EB123850E09BB
:100EA00067B18385170983B183850C096681A3091E
:100EB00066B1A3850F098CB1A285110929B1A2855C
:100EC000090985751027FFFF0000B1A3851A096A7B
:100ED00027FFFF00006601105500B1A3851C0969BA
:100EE00081A30969B1A3850D096881A30968B1A32C
:100EF0008508092A751027640500001678008122EC
:100F0000092AB1A205848512095716008027FF7FA0
:100F10000000B1A285130955B1A2850A0940150048
:100F200027FFFF00006721D1F0005505B123850B95
:100F3000093081A30930B1A38514095A7508150138
:100F40002503650055008122095AB1A20902A102B8
:100F500085070585094475011500250181A309440C
:100F6000B1A3094581A30945B1A309D081A309D043
:100F7000B1A309D181A309D1B1A3094281A3094237
:100F8000B1A3094381A20943B1A2094B81A3094B33
:100F9000B1A309DB81A309DBB1A3094681A30946FB
:100FA000B1A3094781A30947B1A30584096881A2B8
:100FB0000968B1A2096981A30969B1A3097381A371
:100FC0000973B1A3096581A30965B1A395028101E4
:100FD000B101C0C0C000B51F11241FBECFEFDAE0C1
:100FE000DEBFCDBF13E0A0E0B1E0E8ECF6E602C062
:100FF00005900D92A630B107D9F727E0A6E0B3E03F
:1010000001C01D92A736B207E1F717E0CCEED7E09A
:1010100004C02197FE010E948732CB3ED107C9F759
:101020000E9499200C9462330C940000E6E3FDE0EA
:10103000E49190917B008E2F880F880F80729F7DA6
:10104000892B80937B00E770E064E0937C008091C3
:101050007A00806480937A0080917A0086FDFCCFCC
:1010600080917800909179000895FC0180819181B0
:10107000FB0120813181821B930B0895FC0180913B
:101080007A05882311F13FB7F89482E08093E90054
:101090002091F200822F90E01816190614F481E0D6
:1010A00090E0882339F0289844E6409379054091F0
:1010B000F1004083222339F02091F200211103C076
:1010C0002BE62093E8003FBF08958FEF9FEF089530
:1010D00083E08093E9008091F200882319F08AE38D
:1010E0008093E800089581508F3008F047C0E82FC2
:1010F000F0E0E358F74F0C9487329A089E088C086A
:1011000092089608BE08BE08BE08A108A708AB084A
:10111000AF08B508BE08B908809180008F7780932A
:1011200080000895809180008F7DF9CF80918000AC
:10113000877FF5CF84B58F7784BD089584B58F7D83
:10114000FBCF809190008F778093900008958091DD
:1011500090008F7DF9CF80919000877FF5CF8091AF
:10116000C0008F778093C00008958091C0008F7D6C
:10117000F9CF8091C200877F8093C2000895CF93FA
:10118000DF93282F30E0F901EE5EF24F8491F901F0
:10119000ED50F34FD491F901EC52F34FC491CC23AD
:1011A000A1F081110E947308EC2FF0E0EE0FFF1FF9
:1011B000EA53F34FA591B491EC91ED2381E090E0D7
:1011C00009F480E0DF91CF91089580E090E0FACFBC
:1011D0001F93CF93DF93282F30E0F901EE5EF24F9B
:1011E0008491F901ED50F34FD491F901EC52F34F92
:1011F000C491CC23A9F0162F81110E947308EC2F03
:10120000F0E0EE0FFF1FE854F34FA591B4918FB7B4
:10121000F894EC91111108C0D095DE23DC938FBFB8
:10122000DF91CF911F910895DE2BF8CFCF93DF93FD
:1012300090E0FC01ED50F34F24918C52934FFC0150
:1012400084918823C9F090E0880F991FFC01E6552E
:10125000F34FA591B491FC01E854F34FC591D4919B
:1012600061110DC09FB7F8948C91209582238C93C7
:101270008881282328839FBFDF91CF910895623012
:1012800051F49FB7F8943C91822F809583238C93DF
:10129000E8812E2BEFCF8FB7F894EC912E2B2C9367
:1012A0008FBFEACF3FB7F89480917505909176058E
:1012B000A0917705B091780526B5A89B05C02F3F72
:1012C00019F00196A11DB11D3FBFBA2FA92F982F6C
:1012D0008827BC01CD01620F711D811D911D42E067
:1012E000660F771F881F991F4A95D1F708958F922F
:1012F0009F92AF92BF92CF92DF92EF92FF924B01FB
:101300005C010E9452096B017C010E9452096C1918
:101310007D098E099F09683E734081059105A8F3F8
:1013200021E0821A9108A108B10888EEC80E83E076
:10133000D81EE11CF11C81149104A104B10429F709
:10134000FF90EF90DF90CF90BF90AF909F908F90E5
:101350000895EF92FF920F931F93CF93DF938C0129
:101360007B01D0E0C0E0F701EC0FFD1F6491662324
:1013700061F0D801ED91FC910190F081E02DC80160
:101380000995892B11F02196EECFCE01DF91CF91F7
:101390001F910F91FF90EF900895AF92BF92CF925F
:1013A000DF92EF92FF920F931F93CF93DF936C0125
:1013B0007B018B01040F151FEB015E01AE18BF0806
:1013C000C017D10759F06991D601ED91FC910190B8
:1013D000F081E02DC6010995892B79F7C501DF91D0
:1013E000CF911F910F91FF90EF90DF90CF90BF9022
:1013F000AF900895FC01538D448D252F30E0842F4C
:1014000090E0821B930B541710F0CF96089501972C
:101410000895FC01918D828D981761F0A28DAE0F19
:10142000BF2FB11D5D968C91928D9F5F9F73928FA0
:1014300090E008958FEF9FEF0895FC01918D828DCC
:10144000981731F0828DE80FF11D858D90E0089599
:101450008FEF9FEF0895FC01918D228D892F90E0F1
:10146000805C9F4F821B91098F73992708958CE4AC
:1014700096E00E942B0A21E0892B09F420E0822FBC
:101480000895FC01A48DA80FB92FB11DA35ABF4F19
:101490002C91848D90E001968F739927848FA68973
:1014A000B7892C93A089B1898C9182748C93938D88
:1014B000848D981306C00288F389E02D80818F7D8A
:1014C00080830895EF92FF920F931F93CF93DF9342
:1014D000EC0181E0888F9B8D8C8D981319C0E88971
:1014E000F989808185FF14C09FB7F894EE89FF8940
:1014F0006083E889F9898081827480839FBF81E05D
:1015000090E0DF91CF911F910F91FF90EF900895A0
:10151000F62E0B8D10E00F5F1F4F0F731127E02E7B
:101520008C8D8E110CC00FB607FCFACFE889F989B3
:10153000808185FFF5CFCE010E94410AF1CFEB8D6E
:10154000EC0FFD2FF11DE35AFF4FF0829FB7F89487
:101550000B8FEA89FB8980818062CFCFCF93DF93A5
:10156000EC01888D8823B9F0AA89BB89E889F989BB
:101570008C9185FD03C0808186FD0DC00FB607FCF0
:10158000F7CF8C9185FFF2CF808185FFEDCFCE0123
:101590000E94410AE9CFDF91CF91089580E090E069
:1015A000892B29F00E94370A81110C9400000895BC
:1015B00020912605260F3327331F21323105ECF405
:1015C00020914A05FC0190E080E0243069F082E03F
:1015D0000895A09126052191AC014A5F5A4FA40FAE
:1015E000B52FB11D2C930196861798F3809126058F
:1015F000680F6093260580E0089581E008950895BE
:101600008FEF9FEF08958FEF9FEF08958091FF0474
:1016100090E09195819591090895CF93DF93CB0147
:10162000EA01642F0E94D80ACE01DF91CF9108957C
:10163000CF93DF931F92CDB7DEB7698361E0CE0110
:1016400001960E94D80A81E090E00F90DF91CF913F
:10165000089590E080E00895FC012FB7F894809100
:10166000710590917205A0917305B09174052FBF1B
:101670004081518162817381841B950BA60BB70B4E
:101680004481558166817781481759076A077B072E
:1016900030F48085882319F0108681E081870895D1
:1016A000DC015296ED91FC9130E020E03097A1F002
:1016B000DC0154964D915C912417350758F4428112
:1016C00053814617570741F00190F081E02D2F5FBD
:1016D0003F4FECCFF0E0E0E0CF0108950C946808B4
:1016E000409114035091150320911203309113037C
:1016F00042175307B4F49091E8009570E1F390918C
:10170000E80092FD19C08093F1008091140390913C
:10171000150301968F739927892B19F48EEF809307
:10172000E80080911403909115030196909315039E
:101730008093140381E0089580E00895DF92EF9292
:10174000FF920F931F93CF93DF93D82E8A01EB0163
:101750007B01E40EF51ECE15DF0559F0D7FE12C051
:10176000FE0184910E94700B21968111F4CF0FEF3E
:101770001FEFC801DF91CF911F910F91FF90EF9064
:10178000DF9008958881EECFCF93DF93CDB7DEB79A
:10179000A0970FB6F894DEBF0FBECDBFFC01DB01F2
:1017A0008C918F5F8C939E012D5F3F4F88E0D90114
:1017B0001D928A95E9F799E0998384E08A8322E073
:1017C0002D8383E08E839A8731E23B8791E09C876B
:1017D0009D873E879F8792E2988B37E03B8B95E011
:1017E0009C8B44E84D8B8E8B40E450E0588F4F8BA0
:1017F00064E1698F3A8F9B8F9C8F8D8F5F8F4E8FA7
:101800008AE088A382818B8396858785998B8A8BD2
:1018100080915807811103C081E88D8B2C8F40E2A5
:1018200050E0BE016F5F7F4F80E00E949E0BA0964C
:101830000FB6F894DEBF0FBECDBFDF91CF910895F4
:101840002FB7F89487708093E9009091E800892F72
:10185000807295FF04C09091F20080E4891B2FBF35
:1018600008958F929F92AF92BF92CF92DF92EF92A4
:10187000FF920F931F93CF93DF93B82E6B018A01D2
:1018800080917A0581110FC08FEF9FEFDF91CF918B
:101890001F910F91FF90EF90DF90CF90BF90AF908E
:1018A0009F908F9008958091180380FF05C08091CC
:1018B000E00082608093E000C02FD12FF12C8AEFEE
:1018C000E82E8B2D8770982E8B2D8074882E9AE3AE
:1018D000A92E209719F4FF2009F443C08B2D0E94F4
:1018E000200C81110AC0EA94EE2071F261E070E0F0
:1018F00080E090E00E947709ECCF8C171D0611F074
:101900000CF08C2F9FB7F8949092E9002091E8009A
:1019100025FD02C09FBFDDCF282F30E0C21BD30BB7
:10192000F601815020F041914093F100FACFC20EB0
:10193000D31EFF2021F0A092E800F12CEBCF809184
:10194000E80085FD07C0A092E800FF24F3942097EB
:1019500009F3F3CF2097F1F68820E1F2A092E80096
:10196000D9CF5D9884E680931703C8018FCF61506B
:1019700030F02091F100FC0120830196F8CF2898E7
:1019800084E6809379050895AF92BF92DF92EF923B
:10199000FF920F931F93CF93DF935C018B01EB01B9
:1019A0009BEFD92E2097C1F07E01C134D1051CF0E8
:1019B00080E4E82EF12C8091E80082FFFCCFC80182
:1019C0008C1B9D0B6E2D8A0D9B1D0E94B70CD09217
:1019D000E800CE19DF09E6CFC801DF91CF911F9152
:1019E0000F91FF90EF90DF90BF90AF90089580919E
:1019F0000A0381110DC082E08093060384E0809386
:101A00000703109209031092080381E080930A03F0
:101A100086E093E008950F931F93CF93DF931F9277
:101A2000CDB7DEB7198280915807882349F082E04C
:101A3000898342E450E060E071E080E00E949E0B08
:101A40000E94F70CDC0112960D911C9101151105F5
:101A500089F0D801ED91FC910280F381E02DBE0167
:101A60006F5F7F4FC801099597FD04C0F80100859D
:101A70001185ECCF89810F90DF91CF911F910F914C
:101A80000895CF93DF93EC0180915F01882331F0BB
:101A900083E00E94310C1816190634F081E090E0C2
:101AA0009B838A8380E090E0DF91CF910895CF936C
:101AB000DF931F92CDB7DEB76983DC01ED91FC9116
:101AC0000280F381E02D41E050E0BE016F5F7F4F67
:101AD00009950F90DF91CF91089583E00E94200C2B
:101AE00090E00895CF93DF931F92CDB7DEB7FC014E
:101AF0008485958597FD08C02FEF3FEF35872487B4
:101B00000F90DF91CF910895CE0101960E943E087B
:101B1000019719F4898190E0F3CF8FEF9FEFF0CF19
:101B20000F931F93CF93DF931F92CDB7DEB78C0136
:101B3000FC018485958597FF0BC0CE0101960E941C
:101B40003E08019771F4898190E0F80195878487B8
:101B5000F801848595850F90DF91CF911F910F91AA
:101B600008958FEF9FEFF1CFFC018485958597FD58
:101B70000BC09FB7F89482E08093E9008091F20057
:101B80009FBF90E0019608959FB7F89482E08093FC
:101B9000E9008091F2009FBF90E008950F931F939A
:101BA000CF93DF93CCE7D5E08C010C571540C801EB
:101BB0008C0F9D1F0E94BB31899386E0CF32D807DE
:101BC000B1F78CE795E0DF91CF911F910F910895C8
:101BD000AF92BF92DF92EF92FF920F931F93CF933A
:101BE000DF935C010CE715E0D0E0C0E0F801D19094
:101BF0008F017501EC0EFD1EC7010E94BB31D81686
:101C000021F06D2DC7010E94C3312196C33BD10540
:101C100069F78CE795E0DF91CF911F910F91FF90CD
:101C2000EF90DF90BF90AF900895FB0101900020EE
:101C3000E9F73197AF01461B570BDC01ED91FC91A1
:101C40000280F381E02D09948F929F92AF92BF9210
:101C5000EF92FF920F931F93CF93DF93CDB7DEB731
:101C6000A1970FB6F894DEBF0FBECDBF7C01FA017D
:101C7000CB0119A2223008F42AE08E010F5D1F4F1C
:101C8000822E912CB12CA12CBF01A50194010E94A0
:101C9000F531F901CA016A300CF5605DD8016E9327
:101CA0008D01232B242B252B79F790E080E01097D2
:101CB00021F0BD01C7010E94150EA1960FB6F89440
:101CC000DEBF0FBECDBFDF91CF911F910F91FF906F
:101CD000EF90BF90AF909F908F900895695CDECF9A
:101CE000CF92DF92EF92FF920F931F93CF93DF93E8
:101CF000EC016A017B01E881F9810190F081E02D1E
:101D00006DE209958C0144275527BA014C195D09EC
:101D10006E097F092AE0CE010E94240E800F911FD8
:101D2000DF91CF911F910F91FF90EF90DF90CF90B7
:101D30000895AB01770F660B770B77FD0C94700E4F
:101D40002AE00C94240E0C94240E9A01AB0170E04E
:101D500060E00C94A30E9A01462F50E070E060E022
:101D60000C94A30E8F929F92AF92BF92CF92DF926C
:101D7000EF92FF920F931F93CF93DF937C01EB01C0
:101D80006C0182E0C80ED11C4701E5E08E0E911C6B
:101D900010E000E0F60161916F014AE050E0CE01F1
:101DA0000E94AB0E5C01E881F9810190F081E02D89
:101DB0006EE2CE0109958A0D9B1D080F191FC814EC
:101DC000D90441F74AE050E0F7016581CE010E9455
:101DD000AB0E800F911FDF91CF911F910F91FF905C
:101DE000EF90DF90CF90BF90AF909F908F9008952D
:101DF00061E072E00C94150E0F931F93CF93DF9365
:101E0000EC01AB01770F660B770B77FF0DC00E94DB
:101E1000700E8C01CE010E94F80E800F911FDF9191
:101E2000CF911F910F9108952AE00E94240EF1CFC7
:101E30000F931F93CF93DF93EC010E94A50E8C01AB
:101E4000CE010E94F80E800F911FDF91CF911F915C
:101E50000F9108950F931F93CF93DF93EC010E948E
:101E6000AB0E8C01CE010E94F80E800F911FDF9106
:101E7000CF911F910F9108950F931F93CF93DF93ED
:101E80008C01D0E0C0E06115710519F00E94150EBB
:101E9000EC01C8010E94F80E8C0F9D1FDF91CF91BD
:101EA0001F910F9108950F931F93CF93DF93EC0130
:101EB000FB014481558160817181E881F981028053
:101EC000F381E02D09958C01CE010E94F80E800F60
:101ED000911FDF91CF911F910F9108950F931F9341
:101EE000CF93DF93EC010E94A9098C01CE010E94DF
:101EF000F80E800F911FDF91CF911F910F910895E0
:101F0000AF92BF92CF92DF92EF92FF920F931F9307
:101F1000CF93DF93CDB7DEB7C857D1090FB6F8948A
:101F2000DEBF0FBECDBF8091590790915A07DC01EB
:101F3000ED91FC910680F781E02D09950E9416082D
:101F40009A8389838E010F5F1F4F6E01BBE3CB0E17
:101F5000D11C78018FE9A82E86E0B82E0E941608C1
:101F6000F801819391938F01C5010197F1F7CE1686
:101F7000DF06A1F725E338E042E050E06DE170E0D4
:101F8000C7010E94B52E8D8D9E8DC858DF4F0FB6AC
:101F9000F894DEBF0FBECDBFDF91CF911F910F919F
:101FA000FF90EF90DF90CF90BF90AF900895CF93C8
:101FB000DF9310922C068AEA80937C0585E5809356
:101FC0007D0581E095EA90932E0680932D0680E2B0
:101FD0009CE190937F0580937E059093810580938B
:101FE000800528E532E0309383052093820523E0C5
:101FF00030E0309385052093840571E07093860569
:1020000028E035E03093A6052093A505EAE8F4E042
:10201000F093A805E093A7053093AA052093A9059E
:1020200042E954E05093AC054093AB0564E0609303
:10203000A4059093AE058093AD051092AF05F09383
:102040009505E09394051092EB051092EA055093E4
:102050009905409398054EEF54E050939D054093A9
:102060009C053093A1052093A00524E630E0309331
:10207000F7052093F60524E635E03093FA05209322
:10208000F9052AE134E03093FC052093FB05C0E01C
:10209000D5E0D093FE05C093FD054EE754E0509384
:1020A00000064093FF056093F80590930206809325
:1020B0000106109203063093E9052093E8052FE707
:1020C00034E03093ED052093EC052BEF34E03093B2
:1020D000F1052093F00522E035E03093F5052093DB
:1020E000F405E0E5F5E0F093C205E093C10548EEA4
:1020F00053E05093C4054093C305A5E5B5E0B09304
:10210000C605A093C50520EB34E03093C8052093A5
:10211000C7056093C0059093CA058093C9051092C6
:10212000CB055093B1054093B0053093B50520938E
:10213000B405D093B905C093B805C4E1D0E0D093FD
:10214000F305C093F205F093BD05E093BC05F09351
:10215000DE05E093DD055093E0054093DF05B09385
:10216000E205A093E1053093E4052093E305609335
:10217000DC059093E6058093E5051092E705509302
:10218000CD054093CC053093D1052093D00589E04F
:1021900090E09093EF058093EE058AE095E09093B0
:1021A000D5058093D40586E495E09093D905809376
:1021B000D8058CE1E8EEF5E0A4E0B6E001900D92E0
:1021C0008A95E1F710928F0510928E0510928D0579
:1021D00010928C0588E795E0909393058093920583
:1021E0008FEF93E090939105809390058AE0809320
:1021F000870585E08093890510928A0570938B0589
:1022000010926C016FE671E08CE496E00E946E0F14
:1022100080915807882391F0C0915F016AE070E0D7
:1022200080E090E00E947709CC2341F064E571E002
:1022300089EE96E0DF91CF910C946E0FDF91CF91F4
:1022400008958F929F92AF92BF92CF92DF92EF92BA
:10225000FF920F931F93CF93DF93082F162FC42F56
:102260000E941608C0908E05D0908F05F12CE12CAD
:1022700080908C0590908D05B12CA12C2091920519
:102280003091930550E040E02C193D094E095F095B
:10229000BC01990F880B990B681979098A099B0968
:1022A0000E94D131209190053091910550E040E09D
:1022B000281939094A095B090E941732C20ED31E38
:1022C000E41EF51ED7FC2EC1D0926B01C0926A01AC
:1022D00080918405909185052CE1289FF001299F2C
:1022E000F00D1124E458FA4FC3A4D4A4F12CE12C2E
:1022F00020916A0130916B01032E000C440B550BA9
:102300002C193D094E095F09A4E6B0E00E9436325F
:1023100021A532A550E040E02C193D094E095F0986
:102320000E941732D0E037FD06C02536310514F083
:1023300024E630E0D22FD0937701A0918005B091B0
:1023400081052D2F30E00E94783224E630E040E015
:1023500050E00E94F531B90130937501209374016A
:102360008091460390914703002309F4E0C0816007
:1023700090934703809346038091460390914703CF
:10238000112309F4D6C084609093470380934603D9
:102390008091460390914703209160012D13CBC09B
:1023A00091609093470380934603809146039091F8
:1023B0004703CC2309F4D4C09C0122603093470327
:1023C000209346032091820530918305621773079D
:1023D00008F0C3C080915807882309F4AEC08091EB
:1023E0005707882309F4A9C06AE071E089EE96E0F6
:1023F0000E94A9096091740170917501809158073C
:102400004AE050E0882309F49DC080915707882353
:1024100009F498C089EE96E00E94180F20915807A1
:10242000222309F492C080915707882309F492C0AF
:1024300089EE96E0222309F48AC020915707E9EE3D
:10244000F6E0222309F483C00190F081E02D06809C
:10245000F781E02D099580914603909147038062B2
:1024600090934703809346038091460390914703DE
:102470002091640130916501121613060CF077C0AB
:102480009460909347038093460380916C01882366
:1024900081F080915807882309F464C08091570720
:1024A000882309F45FC063EE70E089EE96E00E9435
:1024B0006E0F80914603909147039C012072347007
:1024C000232B09F45FC098609093470380934603E1
:1024D00080916C01882381F080915807882309F44A
:1024E0004CC080915707882309F447C06EEB70E019
:1024F00089EE96E00E946E0F80914603909147030B
:1025000088609093470380934603DF91CF911F919A
:102510000F91FF90EF90DF90CF90BF90AF909F9082
:102520008F90089510926B0110926A01D1CE8E7F28
:102530001FCF8B7F29CF9E7F34CF66EF70E08CE476
:1025400096E056CF8CE496E067CF8CE496E0ECE41E
:10255000F6E07ACF8CE496E06DCF8F7D826080CFFD
:102560008D7D7ECF60ED70E08CE496E0A0CF9B7F08
:1025700090934703809346039CCF6CEA70E08CE411
:1025800096E0B8CF977F9093470380934603B4CFEC
:102590006115710511F00C94150E90E080E008951E
:1025A000AF92BF92CF92DF92EF92FF920F931F9361
:1025B000CF93DF93EC01E62E6A01F22E62E471E024
:1025C0000E94A9094AE050E06E2DCE010E94AB0E98
:1025D0006EE371E0CE010E94A909C6016CE370E0D0
:1025E0000E94E1316C014AE050E0CE010E94A50E4C
:1025F0006CE371E0CE010E94A9094AE050E0B60107
:10260000CE010E94A50E6CE271E0CE010E94A909E4
:1026100066E072E0FF2011F064E072E0CE010E94FB
:10262000C8126EE171E0CE010E94A90940E150E0BC
:10263000B801CE010E94A50E8CEAC82E81E0D82EEA
:10264000F12CE12CAA24A394B12CC5010E2C02C0BC
:10265000880F991F0A94E2F780239123892B59F060
:102660008BE068E072E08E1518F0F60160817181F0
:10267000CE010E94C812FFEFEF1AFF0A82E0C80ED7
:10268000D11CEFE0EE16F10401F7CE010E94F80E26
:10269000E881F9810680F781E02DCE01DF91CF91AD
:1026A0001F910F91FF90EF90DF90CF90BF90AF9070
:1026B0000994BF92CF92DF92EF92FF920F931F93F4
:1026C000CF93DF93DC01EB0158968D919C91599744
:1026D000892BB9F08D01B12CCB2CD12CF801E08CD9
:1026E000F18CC7010E946731C816D90610F5F701B1
:1026F000EC0DFD1DE491DE01AC0DBD1DEC93B3941A
:10270000EBCF88E4888389E4898384E48A831E96F6
:102710008C911E978F708F5B8B831E968D919C91F1
:1027200024E0969587952A95E1F78F708F5B8C83CF
:1027300085E0DF91CF911F910F91FF90EF90DF9097
:10274000CF90BF900895CF92DF92EF92FF920F93B8
:102750001F93CF93DF9300D0CDB7DEB77C01FB0191
:102760001381133009F046C0628170E07F6F0E94D0
:10277000500B009709F46AC0DC011496FC90149782
:102780001596DC908F2D9D2D0E946731E82E1A83BF
:1027900081E08E0D880F898342E050E0BE016F5FBB
:1027A0007F4F80E00E949E0BCF2C0F2D1D2D802F80
:1027B0008C198E15E8F4F801849189831A8242E01D
:1027C00050E0BE016F5F7F4F80E00E949E0B0F5F65
:1027D0001F4F892B61F780E090E00F900F90DF9101
:1027E000CF911F910F91FF90EF90DF90CF900895C0
:1027F00081E0F2CF8081813849F5123239F5D70175
:1028000012962C9112978481958128171906F1F45C
:102810001C960D911C91D12CC12C0115110589F02C
:10282000F801448155816281738180E80E949E0B8A
:102830008F3F980791F2C80ED91ED8010D911C91B7
:10284000ECCF81E0F701808BC601C7CF90E080E03C
:10285000C4CF0F931F93CF93DF93EC0188819981AD
:10286000009759F02A813B812617370730F081E025
:10287000DF91CF911F910F9108958B016F5F7F4F73
:102880000E948D32009759F0998388831B830A83B5
:102890002C813D81232B59F7FC011082E8CF80E089
:1028A000E7CFCF93DF93EC0188819981009711F0F6
:1028B0000E94E32D198218821D821C821B821A82BB
:1028C000DF91CF910895EF92FF920F931F93CF93D3
:1028D000DF938C017B01EB0109900020E9F7219740
:1028E000C61BD70BBE010E942914811109C0C80163
:1028F000DF91CF911F910F91FF90EF900C945114A5
:10290000F801D583C483B70180819181DF91CF9194
:102910001F910F91FF90EF900C945B33EF92FF9219
:102920000F931F93CF93DF93EC018B01CB010E9498
:1029300067317C01BC01CE010E94291481110BC0BA
:10294000CE010E945114CE01DF91CF911F910F91C2
:10295000FF90EF900895FD82EC82B8018881998103
:102960000E946031F0CFFC0180819181009711F0CD
:102970000C94E32D0895AF92BF92CF92DF92EF9225
:10298000FF920F931F93CF93DF93CDB7DEB76E9770
:102990000FB6F894DEBF0FBECDBF8C016B017A017C
:1029A0001A8E198E1C8E1B8E1E8E1D8EB901CE01A5
:1029B00049960E948E14F601808191818D30910597
:1029C00019F00A9709F08FC0C98CDA8CC8010196FA
:1029D0000E9439318C018091590790915A07023039
:1029E000110560F162EA7DE00E94A909B6018091BB
:1029F000590790915A070E94C81262E87DE08091C1
:102A0000590790915A070E946E0F10E010927B05B3
:102A1000CE0149960E94B314812F6E960FB6F8949A
:102A2000DEBF0FBECDBFDF91CF911F910F91FF9001
:102A3000EF90DF90CF90BF90AF90089562E77DE078
:102A40000E94A909A0905907B0905A07F701808108
:102A50001C8A1B8A1E8A1D8A188E1F8A4AE0BE01A4
:102A60006F5F7F4F90E00E947031BE016F5F7F4FBC
:102A7000CE0143960E946314BE016D5E7F4FC50177
:102A80000E94530FCE0143960E94B3140170F701C8
:102A900000836DE67DE08091590790915A070E946E
:102AA000A909B6018091590790915A070E94C8124E
:102AB00063E67DE08091590790915A070E94A90929
:102AC000F701608170E08091590790915A070E9448
:102AD000FC0E6DE37DE08091590790915A070E94AA
:102AE0006E0F11E093CF10E093CF0F931F93CF930E
:102AF000DF93CDB7DEB761970FB6F894DEBF0FBE98
:102B0000CDBF8C01CB01F801118210821382128299
:102B10001582148250E0BE016F5F7F4F0E948331A7
:102B2000BE016F5F7F4FC8010E94631461960FB6AC
:102B3000F894DEBF0FBECDBFDF91CF911F910F91F3
:102B400008950F931F93CF93DF93CDB7DEB72997E7
:102B50000FB6F894DEBF0FBECDBF8C01862FF801F3
:102B600011821082138212821582148250E0BE01FB
:102B70006F5F7F4F90E00E948331BE016F5F7F4F98
:102B8000C8010E94631429960FB6F894DEBF0FBEE9
:102B9000CDBFDF91CF911F910F9108952F923F925A
:102BA0004F925F926F927F928F929F92AF92BF925D
:102BB000CF92DF92EF92FF920F931F93CF93DF9309
:102BC000CDB7DEB728970FB6F894DEBF0FBECDBFE6
:102BD000E0E15E2EA11002C03AE0532EFB016081BD
:102BE00071816D30710521F06A30710509F0EEC018
:102BF000AF821701380128877A01A52CB12CA501D5
:102C000070E060E001960E942230462E062F172FBA
:102C10008091590790915A07E016F10608F040C0DC
:102C200065E37EE00E94A909B60180915907909161
:102C30005A070E94C81265E27EE080915907909180
:102C40005A070E94A9094AE050E0B701809159074C
:102C500090915A070E94A50E62E27EE0809159078A
:102C600090915A070E946E0F80E010927B05289683
:102C70000FB6F894DEBF0FBECDBFDF91CF911F918D
:102C80000F91FF90EF90DF90CF90BF90AF909F900B
:102C90008F907F906F905F904F903F902F9008950E
:102CA00008151905F8F461E17EE00E94A909B60152
:102CB0008091590790915A070E94C81260E07EE007
:102CC0008091590790915A070E94A9094AE050E063
:102CD000B4018091590790915A070E94A50E6DEF9B
:102CE0007DE0BCCF6DEE7DE00E94A909FF81FF234E
:102CF00041F06AEE7DE08091590790915A070E9459
:102D0000A909E0905907F0905A078885882309F4AB
:102D100047C0452DF3016081CE0101960E94A115A7
:102D2000BE016F5F7F4FC7010E94530FCE01019616
:102D30000E94B314F301408265EE7DE08091590753
:102D400090915A070E94A909B60180915907909164
:102D50005A070E94C8126BED7DE08091590790914F
:102D60005A070E94A909FF81FF2341F068ED7DE029
:102D70008091590790915A070E94A909A501B801AD
:102D80008091590790915A070E94180F62EB7DE0DD
:102D90008091590790915A070E946E0F81E065CF8C
:102DA000F10160817181452DCE0101960E9475155A
:102DB000BE016F5F7F4FC7010E94530FCE01019686
:102DC0000E94B314F10111830083B6CF80E04FCF8E
:102DD0002F923F924F925F926F927F928F929F922B
:102DE000AF92CF92DF92EF92FF920F931F93CF9308
:102DF000DF9300D000D000D01F92CDB7DEB73C01EA
:102E00002B011A017901B8011A8219821C821B82D6
:102E10001E821D82CE0101960E948E14C980DA8026
:102E2000912C812CA12C8E01095F1F4F20E0A10164
:102E3000B201C3010E94CE15782ECE0101960E94E8
:102E4000B314872D27960FB6F894DEBF0FBECDBF03
:102E5000DF91CF911F910F91FF90EF90DF90CF9076
:102E6000AF909F908F907F906F905F904F903F902A
:102E70002F9008951F93CF93DF9385ED8093BC002F
:102E80008091020590910305A0910405B09105057C
:102E90000796A11DB11D23E0B695A7959795879537
:102EA0002A95D1F72091BC0024FD03C010924A0559
:102EB00052C0409102055091030560910405709144
:102EC0000505452B462B472B69F30097A105B10556
:102ED00041F02AE22A95F1F700C00197A109B10952
:102EE000E1CF80910105C1E0C0930005882399F1ED
:102EF000D091B8001091BA008091BC008A7B809379
:102F0000BC0060E082E00E94E80860E083E00E948C
:102F1000E80810924A05C0934C0510924B0561E0F9
:102F200082E00E94E80861E083E00E94E808809166
:102F3000B9008E7F8093B9008091B9008D7F809316
:102F4000B90088E48093B80085E48093BC001093B6
:102F5000BA00D093B800DF91CF911F9108950F93DD
:102F60001F93CF93DF93CDB7DEB7E2970FB6F894F8
:102F7000DEBF0FBECDBF80916503811180C082E0AE
:102F800080934F0381E08093500325E533E0309335
:102F900052032093510310925403109253032FECC9
:102FA00031E030934C0320934B031092580310925E
:102FB000570310925A031092590380935B03809336
:102FC0005C0381EC8093550380EC809356030E9450
:102FD000F70C8C01DC0111968C91119790914F03A5
:102FE000890F9927991F08970CF046C01296ED910A
:102FF000FC9113973097B9F58BE493E013969C936B
:103000008E93129762E082E00E9416098091580721
:1030100081116BC082E00E94BF08892BE9F11092F8
:103020004D0310924E03F801808190915003890F57
:10303000808330914F0390915103E92FF091520317
:103040008E2F891B8317C0F4D80111968C91219182
:10305000A82FB0E0A558BE4F2C938F5FD8011196D2
:103060008C93EECFFC01808591850097D9F78BE496
:1030700093E091878087C6CF81E0809365038BE4DE
:1030800093E0E2960FB6F894DEBF0FBECDBFDF919E
:10309000CF911F910F91089582E3ECE0F2E0BE0121
:1030A0006F5F7F4FDB0101900D928A95E1F78DE60E
:1030B00093E0FC0101900020E9F7CF018E56934088
:1030C000DB010D900020E9F7AD01461B570B20E90D
:1030D00031E0281B390B4217530720F483599C4FCA
:1030E0000E94523381E08093580782E080934D0321
:1030F00084E080934E0397CFCF92DF92EF92FF92BE
:103100000F931F93CF93DF9300D0CDB7DEB78C0121
:103110007B016A010E94AF171A83098341E050E0E6
:10312000BE016F5F7F4F84E00E94310C8C0197FDE0
:1031300009C0A601B70184E40E94310C080F191FD1
:1031400097FD8C01C8010F900F90DF91CF911F91D7
:103150000F91FF90EF90DF90CF9008957F928F9224
:103160009F92AF92BF92CF92DF92EF92FF920F9316
:103170001F93CF93DF93CDB7DEB7A8970FB6F89420
:10318000DEBF0FBECDBFFC014281FB012481358132
:103190004217130611F020E02BC08B0131812081F2
:1031A000213A09F03FC03130C1F52381233011F0BD
:1031B00021E01EC0628170E00E94500B8C010097DC
:1031C00051F341E050E0BC016E5F7F4F80E00E9410
:1031D0009E0B18161906FCF6F8014681578164818A
:1031E000758180E00E949E0B21E0181619069CF65E
:1031F000822FA8960FB6F894DEBF0FBECDBFDF9129
:10320000CF911F910F91FF90EF90DF90CF90BF90E3
:10321000AF909F908F907F90089521E0333009F018
:10322000BACFE6CF213209F0B6CF3B3021F422816C
:10323000FC01208BBDCF3A3021F42281FC01218B8F
:10324000B7CF393009F0A7CF2381233009F0A3CFBE
:10325000628170E00E94500B5C01009709F49BCFE3
:10326000F801E680F780FC01868197810196E816D7
:10327000F90609F090CF81E090E0E114F10409F043
:10328000C7010E94472D6C01B7010E94C40CF601D2
:103290008180912CF80186819781039718F0F601BF
:1032A0008281982AF801828177247394813141F4D4
:1032B0008091FE048F5F8093FE048092FD04712C48
:1032C0008DE6E82E83E0F82EF70101900020E9F763
:1032D0008EEF94E08E1B9F0BC39708F48CC081E1A6
:1032E000EEE3F2E0BE016F5F7F4FDB0101900D92D4
:1032F0008A95E1F7FB0101900020E9F7AF01F701A2
:1033000001900020E9F7CF01461B570B01970E945F
:103310005233F801628170E08E010D5D1F4FC801CC
:103320000E944B1FF80101900020E9F7AF01F7015F
:1033300001900020E9F7CF01401B510BB801019724
:103340000E94523387E0EFE4F2E0DE015C960190E8
:103350000D928A95E1F7BE01645E7F4FFB010190FB
:103360000020E9F7AF01F70101900020E9F7CF0154
:10337000461B570B01970E945233B401C8010E94AB
:103380004B1FF80101900020E9F7AF01F701019010
:103390000020E9F7CF01401B510BB80101970E94B3
:1033A000523371101BC08AE0E6E5F2E0DE0152966E
:1033B00001900D928A95E1F7BE016E5E7F4FFB0191
:1033C00001900020E9F7AF01F70101900020E9F733
:1033D000CF01461B570B01970E945233ADE6B3E075
:1033E0000D900020E9F7119783E0E7ECF2E00190FF
:1033F0000D928A95E1F7F6012081F5018281938192
:103400002817190609F0C7CE772049F04681578161
:10341000B6016F5F7F4F848195810E945233C11442
:10342000D10409F4C5CEC6010E94E32DC1CEAF92EE
:10343000BF92CF92DF92EF92FF920F931F93CF93A1
:10344000DF937C016B015A01E901DC0152960D9179
:103450001C9190E080E00115110531F589E090E0C4
:103460000E94472DFC0111821082D382C282B58254
:10347000A482DD27D783C683D70153969C938E936E
:103480005297F701848995890196958B848BDF91FA
:10349000CF911F910F91FF90EF90DF90CF90BF9051
:1034A000AF90089501968901F801228133812C158E
:1034B0003D0569F3208131812115310599F789E0B6
:1034C00090E00E94472DFC0111821082D382C282BB
:1034D000B582A482DD27D783C683D8018D939C93C0
:1034E000D0CFCF92DF92EF92FF920F931F93CF93A3
:1034F000DF93C82F6B018A010E94AF176C2F70E019
:1035000021E030E0A6010E94171AEC01892B89F016
:103510000E94AF177C01C8010E946731F6016081EB
:1035200070E07F6F9C01A801C7010E94171AC80FA5
:10353000D91FCE01DF91CF911F910F91FF90EF9096
:10354000DF90CF900895EF92FF920F931F93CF9348
:10355000DF93EC018B017A010E94AF179701A8015C
:10356000BE01DF91CF911F910F91FF90EF900C94CE
:10357000171A1F920F920FB60F9211242F933F9399
:103580008F939F93AF93BF93809171059091720534
:10359000A0917305B09174053091700523E0230F5D
:1035A0002D3758F50196A11DB11D2093700580930C
:1035B000710590937205A0937305B0937405809183
:1035C000750590917605A0917705B09178050196E3
:1035D000A11DB11D8093750590937605A093770585
:1035E000B0937805BF91AF919F918F913F912F91AB
:1035F0000F900FBE0F901F90189526E8230F02968C
:10360000A11DB11DD2CF1F920F920FB60F921124A0
:103610002F933F934F935F936F937F938F939F93DA
:10362000AF93BF93EF93FF938CE496E00E94410A1F
:10363000FF91EF91BF91AF919F918F917F916F918A
:103640005F914F913F912F910F900FBE0F901F9060
:1036500018951F920F920FB60F9211242F938F93EC
:103660009F93EF93FF93E0915C06F0915D0680815C
:10367000E0916206F091630682FD1BC0908180910B
:1036800065068F5F8F7320916606821741F0E09187
:103690006506F0E0E45BF94F958F80936506FF9136
:1036A000EF919F918F912F910F900FBE0F901F90D0
:1036B00018958081F4CF1F920F920FB60F921124AC
:1036C0002F933F934F935F936F937F938F939F932A
:1036D000AF93BF93EF93FF938091B900887F8036BB
:1036E00009F44AC0F0F5883209F4A5C018F5803114
:1036F00009F499C0B8F4882309F4F5C0883009F4B6
:1037000092C0FF91EF91BF91AF919F918F917F9167
:103710006F915F914F913F912F910F900FBE0F903E
:103720001F901895883109F486C0803251F7809334
:10373000490514C0803409F49BC040F48033B9F3C8
:103740008833F9F68093490585ECAEC0803509F4DD
:1037500083C0883509F494C0883499F60E943A17DA
:10376000D0CF883909F48AC038F5883729F050F469
:10377000883611F0803729F683E080934A0510924D
:10378000480555C0883809F479C0803919F0803867
:1037900009F0B7CF80914805803208F06FC0E09102
:1037A000480581E08E0F809348058091BB00F0E0D2
:1037B000E85DFA4F80833BC0803B39F0D0F4803A1B
:1037C00009F477C0883A09F09CCF84E080934A05D9
:1037D0001092270510922605F0E0E0E0099580910F
:1037E000260581110FC081E0809326051092060501
:1037F00009C0803C09F4A8CF883C09F4A5CF883BD8
:1038000009F07FCFE091270581E08E0F8093270597
:10381000F0E0EA5FFA4F80818093BB00909127052A
:103820008091260529C080916F058093BB0085ECAF
:103830008093BC0066CF90916E0580916D059817BE
:1038400058F5E0916E0581E08E0F80936E05F0E0F3
:10385000E35BFA4F8081E9CFE0916E0581E08E0F46
:1038600080936E058091BB00F0E0E35BFA4F8083AC
:1038700090916E0580916D059817C8F285E8D8CFB4
:10388000E0916E0581E08E0F80936E058091BB0004
:10389000F0E0E35BFA4F808380914C0581115ECFAD
:1038A00081E080934B0584EA8093BC0010924A0526
:1038B00028CF85EC8093BC0010924A058091480582
:1038C000803230F4E0914805F0E0E85DFA4F108274
:1038D0006091480570E088E295E0F0E0E0E009954D
:1038E000109248050ECF1092490538CF1F920F92C3
:1038F0000FB60F9211242F933F934F935F936F93C3
:103900007F938F939F93AF93BF93CF93EF93FF9347
:10391000C091E1008091E100837F8093E100C3FFCB
:103920001DC080915807882309F459C082E1E8E856
:10393000F1E0A6E4B1E001900D928A95E1F71092D2
:10394000E90081E08093EB001092EC0082E3809329
:10395000ED0010927A0588E08093F000C2FF1AC053
:103960000E94680880911703882341F08091170313
:10397000815080931703811101C05D9A8091790570
:10398000882341F0809179058150809379058111D8
:1039900001C0289AC4FF27C08091E2008E7E81601A
:1039A0008093E2008091E1008F7E8093E10080911E
:1039B00018038E7E806180931803FF91EF91CF9161
:1039C000BF91AF919F918F917F916F915F914F9137
:1039D0003F912F910F900FBE0F901F90189582E18D
:1039E000EAE9F1E0A6CFC0FFE8CF8091E2008E7E49
:1039F00080618093E2008091E1008E7E8093E100FF
:103A0000809118038E7E8160D6CF1F920F920FB6E1
:103A10000F921124CF92DF92EF92FF920F931F9398
:103A20002F933F934F935F936F937F938F939F93C6
:103A3000AF93BF93EF93FF93CF93DF93CDB7DEB7F1
:103A40006C97DEBFCDBF1092E9008091E80083FF44
:103A500025C068E0CE0145960E94B70C82EF8093A6
:103A6000E8008D8987FF39C09091E80090FFFCCF76
:103A7000982F907609F038C19E894F89588D2F89EB
:103A8000F88C911131C0803861F5809119038093D1
:103A9000F1001092F1008EEF8093E8006C960FB663
:103AA000F894DEBF0FBECDBFDF91CF91FF91EF91B4
:103AB000BF91AF919F918F917F916F915F914F9146
:103AC0003F912F911F910F91FF90EF90DF90CF903A
:103AD0000F900FBE0F901F9018959EEF9093E800E7
:103AE000C7CF1092F100D5CF913059F48111D3CFC7
:103AF0004130510581F6809119038D7F8093190320
:103B0000CACF933049F48111C6CF4130510519F61F
:103B1000809119038260F2CF953041F48091E800E2
:103B200080FFFCCF20682093E300B5CF963009F0EA
:103B3000A9C00B8D1C8D22E01092E9001092150394
:103B400010921403F2122EC010921303109212035B
:103B50000E940B0D1F8299E09983FA8291E09E8367
:103B600090EA98879AEF9987209114033091150372
:103B7000275F3F4F3C832B838D831092E900109287
:103B8000150310921403109313030093120349E0DA
:103B900050E0BE016F5F7F4F80E00E949E0B0E944D
:103BA0000B0D79CF10931303009312030E94F70CAF
:103BB000DC0112960D911C910115110509F452C1F9
:103BC000D801ED91FC910480F581E02DBE016B5E82
:103BD0007F4FC8010995009709F03FC1F8010085A2
:103BE0001185EACFF3E0FF120EC08F89882309F414
:103BF00040C0823061F440E860E18AE991E00E94CF
:103C0000821F811148CF81E28093EB0047CF813042
:103C100029F440E86BE08EE891E0F1CF833099F72A
:103C20000E94F70CDC011296ED90FC908E010F5F64
:103C30001F4F6801E114F10479F0D701ED91FC9177
:103C40000680F781E02DB801C7010995080F111D05
:103C5000F701E084F184EECFD8011C92F6010190C7
:103C60000020E9F73197BF016C197D0940E0C601DA
:103C7000C6CFEAE8F1E0449150E0BF0180E80E943D
:103C80009E0B09CF973009F4BECF983021F481E024
:103C90008093F10000CF993009F0FDCE837009F0D8
:103CA000B2CF809158078823B1F0ECE7F1E081E0D2
:103CB00031E096E32191222371F08093E900309363
:103CC000EB00DF0111972C912093EC009093ED0015
:103CD0008F5F873079F78EE78093EA001092EA00D1
:103CE0008F8980937A05D7CE8B8D9C8D1092E900B9
:103CF00010921503109214039093130380931203F0
:103D000080915807882309F48DC0898D81118AC05C
:103D10008E899D89913A41F4813209F074CF47E050
:103D200050E068E571E0B5C0913209F06CCF8332A4
:103D300069F48F89988DB0E0A0E080934201909360
:103D40004301A0934401B0934501A5CE803239F4DC
:103D500067E070E088E591E00E94C40C9CCE82325E
:103D600009F099CE8F8980935F01EEEFFFE785918F
:103D70009491E0E0F8E08B3F9C4D11F4EEEFFAE017
:103D80008091580190915901A0915A01B0915B0125
:103D9000803B9440A105B105D9F480915F0180FD7D
:103DA00017C0EE3F8AE0F80771F587E797E7918340
:103DB0008083809160008093160388E19BE00FB6BA
:103DC000F894A895809360000FBE9093600063CE36
:103DD000808191818737974709F05DCEA8958091C2
:103DE000600088618093600080911603809360007A
:103DF000EE3F2AE0F20789F08091FE0A9091FF0AD7
:103E00009183808348CE808191818737980769F2BA
:103E10009093FF0A8093FE0AC8CF1092FF0A109277
:103E2000FE0A39CE0E94F70CDC0112960D911C910E
:103E30000115110509F4E7CED801ED91FC9101902F
:103E4000F081E02DBE016B5E7F4FC80109958111A5
:103E500022CEF80100851185EBCF181619060CF457
:103E60001ACED1CEF1E0FF12BDCE8091580781115C
:103E70000CC08DE195E090934F0180934E0183E05B
:103E800090E0909351018093500142E150E066E44C
:103E900071E080E0F4CE0F931F93CF93DF93AB01DB
:103EA00020E041155105F9F430E0EC01C20FD31FB9
:103EB000DE01890101501109A817B907E9F0AB012A
:103EC0004F705527E4E076956795EA95E1F7FD0197
:103ED000E21BF30BE00FF11F4A30510558F4405D2F
:103EE00040831197E9CF2F5FF4E056954795FA95F7
:103EF000E1F7D7CF495CF4CF1882DF91CF911F91C2
:103F00000F910895EF92FF920F931F93CF93DF933A
:103F1000F82E192FE62E042F81E0860F880F0E94BD
:103F2000700B83E00E94700BCF2DD12FEC0EFD2E75
:103F3000F11CCE15DF05B9F007FF13C0FE01849117
:103F40000E94700B182F80E00E94700B8123219635
:103F50008111EFCFDF91CF911F910F91FF90EF90E3
:103F600008958881EDCF81E0F5CF10924F06109231
:103F70004E0688EE93E0A0E0B0E080935006909368
:103F80005106A0935206B09353068BED91E09093A7
:103F90004D0680934C068DEC90E0909359068093EB
:103FA00058068CEC90E090935B0680935A0688EC60
:103FB00090E090935D0680935C0689EC90E090938E
:103FC0005F0680935E068AEC90E090936106809392
:103FD00060068EEC90E090936306809362061092E8
:103FE00065061092660610926706109268068FEFBB
:103FF00091E09093300680932F0610923106109234
:10400000320610923306109234069093360680934F
:104010003506109237061092380610923906109223
:104020003A0682E08093490681E080934A0693E055
:1040300090934B0690914106911112C010923C064C
:1040400010923B0625E43EE030933E0620933D0669
:1040500020E931E03093400620933F0680934106EB
:104060000E94AF17FC01A485B585109709F054C0D4
:104070008BE396E0958784878685978520913F0618
:1040800030914006820F931F978786871092EC0627
:104090001092EB0688EE93E0A0E0B0E08093ED068E
:1040A0009093EE06A093EF06B093F0068DEE91E0AC
:1040B0009093EA068093E9068FEF9FEF9093F606C0
:1040C0008093F5068FEF91E090935C0780935B07F8
:1040D00010925D0710925E0710925F0710926007C2
:1040E00080915807882311F1809157078823F1F0B8
:1040F00089EE96E090935A078093590710925607DD
:104100001092550710924C0710924B0710924207DD
:10411000109241070895DC018D919C9111970097B1
:10412000D1F78BE396E08D939C93A6CF8CE496E039
:10413000E1CFCF93DF93CDB7DEB7E7970FB6F89413
:10414000DEBF0FBECDBF81E1EAE8F2E0DE015996A5
:1041500001900D928A95E1F78DE693E0FC010190C4
:104160000020E9F7CF018E569340BE01675E7F4F76
:10417000FB0101900020E9F7AF01461B570B20E936
:1041800031E0281B390B4217530720F483599C4F09
:104190000E945233F89462E082E00E94160982E0A5
:1041A0000E94BF08892B19F481E080935807789406
:1041B00061E087E00E94160961E086E00E9416092E
:1041C00061E085E00E94160960E087E00E94E8084F
:1041D00060E086E00E94E80860E085E00E94E80870
:1041E00080915807882309F45EC261E087E00E944D
:1041F000E80860E086E00E94E808789484B5826070
:1042000084BD84B5816084BD85B5826085BD85B57A
:10421000816085BD80916E00816080936E001092F8
:104220008100809181008260809381008091810073
:104230008160809381008091800081608093800004
:1042400080919100826080939100809191008160C3
:104250008093910080919000816080939000809184
:10426000C10084608093C1008091C100826080930E
:10427000C1008091C10081608093C1008091C30022
:1042800081608093C3008091C00082608093C000F1
:104290008091C20081608093C20080917A00846026
:1042A00080937A0080917A00826080937A00809176
:1042B0007A00816080937A0080917A008068809390
:1042C0007A0010927A0510921903109218038091C7
:1042D000D70081608093D70080EA8093D80089B5A9
:1042E000806189BD89B5826089BD09B400FEFDCFBA
:1042F00061E070E080E090E00E9477098091D80052
:104300008F7C80618093D8008091E000807F8093D3
:10431000E0008091E1008E7E8093E1008DE080934B
:10432000E200559A209A88E1EBE9F2E09E012F5FC6
:104330003F4F3901D90101900D928A95E1F78DE641
:1043400093E0FC0101900020E9F7CF018E569340E5
:10435000F90101900020E9F7AF01421B530B20E95E
:1043600031E0281B390B4217530728F4B301835956
:104370009C4F0E945233E0915C06F0915D0682E012
:104380008083E0915806F09159061082E0915A0618
:10439000F0915B0680E1808310926406E0916006F4
:1043A000F091610686E08083E0915E06F0915F0601
:1043B000808180618083E0915E06F0915F0680815C
:1043C00088608083E0915E06F0915F06808180685E
:1043D0008083E0915E06F0915F0680818F7D80830F
:1043E00090E080E00E94CE0D8091580790917C056E
:1043F0009A3A09F05EC190917D05953509F059C151
:1044000020912D0630912E062130354A09F051C1F8
:10441000811106C06AE072E08CE496E00E946E0FA3
:1044200080912C06817080936C0180918905809326
:1044300038030E94AF170E94AF1721E030E049E433
:1044400056E061E070E00E94171A0E94AF1721E069
:1044500030E04BE456E062E070E00E94171A0E94E0
:10446000AF1721E030E04AE456E063E070E00E94DC
:10447000171A0E94AF1728ED31E0FC01318F208F11
:1044800080915807882339F00E94AF1729EE36E053
:10449000FC01378B268B62E084E00E94160960E005
:1044A00087E10E94160961E08DE00E94E80861E062
:1044B00088E00E94160961E088E00E94E808809187
:1044C00044039091450385609160909345038093E8
:1044D000440384E00E94BF089C0181E0211531055E
:1044E00009F480E0809378018093790141E0232BE7
:1044F00009F040E040934803682F0E94211142E0F8
:1045000050E064E473E087E090E00E94A31A42E088
:1045100050E062E771E08DE090E00E94A31A42E073
:1045200050E06EE775E08AE190E00E94A31A42E055
:1045300050E060E875E08CE190E00E94A31A42E050
:1045400050E062E875E088E090E00E94A31A42E043
:1045500050E066E671E083E190E00E94A31A42E039
:1045600050E064E671E082E190E00E94A31A41E02D
:1045700050E063E671E086E090E00E94A31A41E01B
:1045800050E062E671E086E190E00E94A31A42E00A
:1045900050E069EC71E08AE090E00E94A31A42E0EA
:1045A00050E060E771E08BE090E00E94A31A41E0E8
:1045B00050E061E671E084E190E00E94A31A41E0DE
:1045C00050E068EC71E087E190E00E94A31A41E0BE
:1045D00050E060E671E08EE090E00E94A31A41E0B6
:1045E00050E066E771E08CE090E00E94A31A41E0A1
:1045F00050E067E875E08FE090E00E94A31A41E088
:1046000050E069E875E081E190E00E94A31A41E082
:1046100050E067EC71E080E190E00E94A31A41E075
:1046200050E066EC71E088E190E00E94A31A43ED4F
:1046300051E065EC71E08FE10E94711A49EC51E0A4
:1046400064EC71E080E20E94711A8091840590917F
:1046500085052CE1289FF001299FF00D1124E458D5
:10466000FA4F81A592A590936B0180936A01809186
:104670005807882309F444C08FEF9FEF9093F60604
:104680008093F50610915F016AE070E080E090E0B1
:104690000E947709111124C06AE070E080E090E088
:1046A0000E947709EFCF60E087E00E94E80861E0B0
:1046B000A1CD811106C06EED71E08CE496E00E9400
:1046C0006E0F0E94D70F80E091E00E94E80D90E00D
:1046D00080E00E94E80D80E091E00E94CE0DA0CE27
:1046E00081E0809357076AEB71E089EE96E00E94C3
:1046F000A9096091580770E089EE96E00E94FC0ECF
:104700006BEA71E08CE496E00E94A9096091580779
:1047100070E08CE496E00E94FC0E8CE496E00E942F
:10472000AE0A1092480368EC70E080E090E00E94CE
:104730007709109256072FB7F894809171059091E0
:104740007205A0917305B09174052FBF80934D073A
:1047500090934E07A0934F07B09350078AE090E0E4
:10476000A0E0B0E08093510790935207A0935307C5
:10477000B093540781E0809355072CE3422E512CCF
:104780009301275637403FAB2EAB332433948091AF
:104790007A01882331F187E1E3EBF2E0D301019064
:1047A0000D928A95E1F78DE693E0FC0101900020DF
:1047B000E9F7CF018E569340F30101900020E9F70D
:1047C000AF014619570920E931E0281B390B421780
:1047D000530728F4B30183599C4F0E94523310921F
:1047E0007A018CE1B82E9CE3292E109158071123F1
:1047F00009F4D4C080915707882309F4CFC089EE0B
:1048000096E00E94B40D892B09F481C58091570769
:10481000882309F4CCC089EE96E00E94720D7C01D9
:1048200080916C01882369F06E2D112309F4C4C0B6
:1048300080915707882309F4BFC089EE96E00E9453
:10484000570DE0917B05EE3108F057C5FDE0EF16FE
:10485000F104A9F02AE0E216F10489F03FEEE31634
:10486000F10469F0C7018B7F8B3B910541F081E03A
:104870008E0F80937B05F0E0E65EFC4FE082E091D6
:104880007B05F0E0E65EFC4F108280916C0188238E
:1048900081F080915807882309F493C080915707CD
:1048A000882309F48EC067E37BE089EE96E00E94DE
:1048B000A90980916C01882381F0809158076AE1F1
:1048C00073E0882309F482C080915707882309F494
:1048D0007DC089EE96E00E94C81280916C01882309
:1048E00081F080915807882309F473C0809157079D
:1048F000882309F46EC063E37BE089EE96E00E94B2
:104900006E0F80917B05882309F49BC08091580726
:10491000882331F08091570709EE16E0811102C01B
:104920000CE416E0F9AAE8AA10935A070093590775
:104930004DE0E416F10429F05AE0E516F10409F01F
:1049400054CF80911A03082E000C990B0E944A3311
:10495000883409F497C10CF08AC0833409F43FC14C
:10496000ECF58F3309F48EC1823409F4C3C061E8D9
:1049700078E0C8010E94A9096AE173E0C8010E94B9
:10498000C8126EE778E0C8010E946E0F62E778E017
:10499000C8010E946E0F10921A034DC08CE496E07D
:1049A0000E942B0A892B09F4B2C411112FCF8CE479
:1049B00096E00E94090A33CF8CE496E00E94620AD6
:1049C00040CF65E37BE08CE496E071CF8CE496E029
:1049D00082CF61E37BE08CE496E091CF843409F4EC
:1049E00065C4853421F680911B03082E000C990BB9
:1049F0000E944A338E34910509F071C080911C03E6
:104A0000082E000C990B0E944A3323EF3AE04AE843
:104A100055E08334910541F08235910509F05FC07E
:104A200029EC3AE04BE855E0BE01605D7F4F8CE138
:104A300093E00E94BB1410927B0580917B0581114D
:104A4000D4CE80916C01882309F4CFCE8091580791
:104A5000882309F457C480915707882309F452C466
:104A60006AE27BE089EE96E00E94A909BECE83351A
:104A700009F45AC3DCF48E3409F43CC4813509F0DE
:104A800076CF64EA78E0C8010E94A90970E060E08E
:104A9000C8010E94FC0E64E978E0C8010E94A909DF
:104AA00070E060E0C8010E94FC0EC5CF8A3509F4B1
:104AB00045C38E3709F481C3843509F058CF8091FE
:104AC0001B03082E000C990B0E944A33833409F40F
:104AD00044C0843409F462C06DEF79E002C065EA35
:104AE0007AE0C8010E94A9096AE173E0C8010E9446
:104AF0003C0FA1CF80911B03082E000C990B0E9444
:104B00004A338534C9F0863429F580918405909123
:104B10008505B89E9001B99E300D11242B553A4F52
:104B20000FE81AE048E55BE1BE01605D7F4F8BE175
:104B300093E00E94E8167FCF8091840590918505CF
:104B4000B89E9001B99E300D112429553A4F0FE7B8
:104B50001AE0E8CF6EE57AE0C4CF80917E059091AF
:104B60007F05B2010E94E1317A8369830CE31AE088
:104B7000930140E45FE1BE01605D7F4F8BE193E014
:104B80000E94E81629813A81229EC001239E900D41
:104B9000112490937F0580937E054DCF80918005F1
:104BA00090918105B2010E94E1317A83698307E126
:104BB0001AE0930140E45FE1BE01605D7F4F8BE14D
:104BC00093E00E94E81629813A81229EC001239E2B
:104BD000900D112490938105809380052CCF8091B6
:104BE0001B03082E000C990B0E944A33883429F1CC
:104BF0008C3409F044C080918E0590918F059A8382
:104C0000898308EE19E0930140E45FE1BE01605D35
:104C10007F4F8BE193E00E94E816882309F40BCFC5
:104C200089819A8190938F0580938E050E94800FD1
:104C300090938D0580938C05FECE80919205909186
:104C400093059A83898300ED19E0930140E45FE1C5
:104C5000BE01605D7F4F8BE193E00E94E8168823E0
:104C600009F4E9CE89819A81909393058093920506
:104C70000E94800F9093910580939005DCCE6FEA9F
:104C800079E02FCF80911B03082E000C990B0E9416
:104C90004A33853409F4CFCE803509F044C0C801C9
:104CA0000E94F80E6EE578E0C8010E94A9096091A3
:104CB0007201709173014AE050E0C8010E94180F20
:104CC0006AE478E0C8010E94A9094AE050E06091D6
:104CD0007601C8010E942A0F66E378E0C8010E94AD
:104CE000A9094AE050E060918905C8010E942A0F95
:104CF00062E278E0C8010E94A90960916A0170919E
:104D00006B01C8010E94FC0E6CE078E0C8010E94B3
:104D1000A909609144037091450340E150E0C80146
:104D20000E94180F88CE6EEF77E0C8010E946E0FC8
:104D3000C8010E94F80E63EB77E0C8010E946E0F75
:104D400065EA77E0C8010E94A90960E672E0C8013F
:104D50000E943C0FC8010E94F80E63E977E0C80189
:104D60000E946E0F6AE677E0C8010E94A90960916F
:104D70008A0570E0C8010E94FC0E68E377E0C80174
:104D80000E94A90960918A0570E0C8010E94FC0E8A
:104D900066E077E0C8010E94A90960918B0570E088
:104DA000C8010E94FC0E63ED76E0C8010E94A909CB
:104DB00061EA76E0C8010E94A9098091840590917A
:104DC0008505B89EF001B99EF00D1124E458FA4F04
:104DD00061A572A54AE050E0C8010E94180F6FE675
:104DE00076E0C8010E94A90980918405909185050B
:104DF000B89EF001B99EF00D1124E458FA4F63A556
:104E000074A54AE050E0C8010E94180F6DE376E0F7
:104E1000C8010E94A90980917E0590917F05B20189
:104E20000E94E1314AE050E0C8010E94180F6BE097
:104E300076E0C8010E94A9098091800590918105C2
:104E4000B2010E94E1314AE050E0C8010E94180F0F
:104E500069ED75E0C8010E94A90960918E05709105
:104E60008F054AE050E0C8010E94A50E62ED75E092
:104E7000C8010E946E0F66EB75E0C8010E94A90987
:104E800060918C0570918D054AE050E0C8010E9448
:104E9000A50E64EB75E0C8010E946E0F62E875E034
:104EA000C8010E94A90960919205709193054AE09A
:104EB00050E0C8010E94A50E6BE775E0C8010E9492
:104EC0006E0F6EE575E0C8010E94A909609190051A
:104ED000709191054AE050E0C8010E94A50E6CE572
:104EE00075E0C8010E946E0F6AE275E0C8010E9479
:104EF000A9094AE050E060918905C8010E94AB0E03
:104F000068E275E0C8010E946E0F6AEF74E0C801A4
:104F10000E946E0F69EB74E0C8010E946E0F6CE78F
:104F200074E0C8010E946E0F6FE374E0C8010E9434
:104F30006E0F63E074E0C8010E946E0F66EC73E0D0
:104F4000C8010E946E0F68E973E0C8010E946E0FED
:104F500066E673E0C8010E946E0F6CE573E0C8015D
:104F60000E946E0F6DE373E0C8010E946E0F65E151
:104F700073E0C8010E946E0F66EE72E0C8010E94E5
:104F80006E0F61EC72E0C8010E94A90940E150E097
:104F900060912C06C8010E942A0F6BEA72E0C801DA
:104FA0000E94A90960916A0170916B01C8010E9479
:104FB000FC0E67E972E0C8010E94A9094AE050E0CE
:104FC00060917601C8010E94AB0E63E972E0C801EE
:104FD0000E94A9098091720190917301B2010E940F
:104FE000E1314AE050E0C8010E94A50E61E972E09B
:104FF000C8010E94A9098091720190917301B201C8
:105000000E94E1314AE050E0BC01C8010E94180F43
:1050100063E872E0C8010E94A9098091480364E036
:1050200072E0811102C066E072E0C8010E94C812FD
:1050300065E772E0C8010E94A9096091440370917C
:10504000450340E150E0C8010E94180F62E672E09B
:10505000C8010E94A9098091610790916207B3017C
:10506000681B790B892B11F46EA97FA9C8010E94D6
:10507000FC0E69EE77E0C8010E946E0F6BEC77E0E2
:10508000C8010E946E0F4AE063EB70E0CE018A9681
:105090000E9475151A8219821C821B821E821D8233
:1050A00061E170E0C3010E94291481112EC0C30187
:1050B0000E945114CAA4DBA4C114D10489F1EEA446
:1050C000FFA4E114F104A9F08D819E81E80EF91E80
:1050D000B701C3010E942914882311F129813A8163
:1050E0008D819E81B601820F931F0E945B33FE82E9
:1050F000ED82B301C8010E94530FC3010E94B31493
:10510000CE018A960E94B31496CC81E190E09E83F2
:105110008D8366E772E089819A810E945B33CACFF2
:10512000C3010E945114E5CF90E080E00E94E80D99
:105130006FE879E0C8010E946E0F7DCC80911B035F
:10514000082E000C990B0E944A3383349105B9F460
:1051500080911C03082E000C990B0E944A33843462
:10516000910539F46AE679E0C8010E946E0F0E9449
:10517000D70F80912C06817080936C015CCC8335B5
:105180009105A1F480911C03082E000C990B0E943C
:105190004A338634910569F780E091E00E94E80D7A
:1051A00062E479E0C8010E946E0FE3CF80E091E0F5
:1051B0000E94CE0D6DEE78E0F5CF6CE472E0C80190
:1051C0000E94A909F12CE12CD12CC12CA12CC701E2
:1051D0008C0D9D1D0E94BB318F3F11F0AA24A3941A
:1051E0008FEFC81AD80A90E1C916D10481F7E114EB
:1051F000F10419F0AA2009F44BC067E472E0C80179
:105200000E94A90965E472E0C8010E94A909EFEFB4
:10521000EE16F10409F070F463E472E0C8010E9434
:10522000A909F0E1EF16F10428F461E472E0C80185
:105230000E94A90940E150E0B701C8010E94A50EF3
:105240006FE372E0C8010E94A9096701A12CC601A1
:105250000E94BB31982E2FE0281728F06DE372E0F2
:10526000C8010E94A90940E150E0692DC8010E94CF
:10527000AB0E3FE0A31629F06BE372E0C8010E9479
:10528000A9094FEFC41AD40AA39450E1A512DFCFA5
:1052900080E1E80EF11CE11494E0F90609F094CFE6
:1052A00067E272E0C8010E94A909C5CB1A8219827F
:1052B0001C821B821E821D8268ED78E0C3010E9461
:1052C0008E14C980DA80912C812CAA24A394FE012B
:1052D000BA967F010CE216E021E04FEF50E0BE01EC
:1052E000605D7F4F8AE193E00E94CE15C3010E946A
:1052F000B3143FCF68EB78E01DCF10927B0510927E
:105300001A039BCB63E27BE08CE496E0ADCB89E3B0
:1053100097E00E942C0B80914207909141079111D8
:1053200021C028EE33E040E050E020933D07309369
:105330003E0740933F07509340079FB7F894409132
:1053400071055091720560917305709174059FBF4E
:105350004093390750933A0760933B0770933C079B
:105360003092410710924207882309F4C6C1809108
:10537000490390914A03019690934A03809349030D
:105380004091480360917901809178010E94211138
:105390009091580780918A05911102C080918B05E8
:1053A0002091460330914703882309F48FC28091EE
:1053B00077018093760130934503209344038091D5
:1053C0007401909175019093730180937201209103
:1053D0004403309145038091400390914103281785
:1053E0003907C1F49091760180913F03981312C060
:1053F000209172013091730180913D0390913E03A1
:105400002817390739F48091490390914A030B9783
:105410000CF4CFC060E088E00E94E8088091580753
:10542000882321F080915707811128C360E87CE030
:105430008CE496E00E94A9098CE496E00091440374
:1054400010914503409172015091730120914803DE
:10545000609176010E94D01280915807882309F448
:10546000A4C280915707882309F49FC266E67CE0B6
:1054700089EE96E00E94A90941E050E066E771E0FC
:105480008CE090E00E947C18BC0190933C038093D8
:105490003B0380915807882309F48CC280915707F9
:1054A000882309F487C289EE96E00E94990E8091C4
:1054B000580768E872E0882309F47FC28091570793
:1054C000882309F47AC289EE96E00E94C81280917E
:1054D0004803882359F142E050E062E771E08DE033
:1054E00090E00E947C18BC0190933C0380933B03A6
:1054F00080915807882309F463C280915707882355
:1055000009F45EC289EE96E00E94990E80915807D8
:1055100068E872E0882309F456C28091570788230F
:1055200009F451C289EE96E00E94C81242E050E0B0
:1055300064E473E087E090E00E947C18BC019093E3
:105540003C0380933B0380915807882309F43EC2B3
:1055500080915707882309F439C289EE96E00E94AA
:10556000FC0E61E088E00E94E80810924A03109265
:1055700049038091440390914503909341038093A4
:1055800040038091760180933F0380917201909156
:10559000730190933E0380933D0380913B03909170
:1055A0003C0397FD16C281E090E090933A0380930C
:1055B000390380916C01882381F0809158078823FA
:1055C00009F40AC280915707882309F405C261E4EF
:1055D0007CE089EE96E00E94A90980916C01882305
:1055E00091F060916A0170916B0180915807882356
:1055F00009F4F7C180915707882309F4F2C189EEB5
:1056000096E00E94FC0E80916D038823E1F080916A
:1056100058076DE673E0882309F4E6C180915707C7
:10562000882309F4E1C189EE96E00E943C0F809145
:105630005807882331F06DE673E08CE496E00E9411
:10564000C81210926D038091FE04882309F44EC0A5
:1056500080915807882309F4CAC18091570788238D
:1056600009F4C5C160E17CE089EE96E00E94A909D9
:105670006091FD048091580740E150E0882309F4CF
:10568000BBC180915707882309F4B6C189EE96E023
:105690000E94AB0E80915807882309F4B0C1809115
:1056A0005707882309F4ABC16FED7BE089EE96E0E4
:1056B0000E946E0F809158078823A1F06EEA7BE06C
:1056C0008CE496E00E94A90940E150E06091FD045D
:1056D0008CE496E00E94AB0E63EA7BE08CE496E0FB
:1056E0000E946E0F1092FE041092FD0480915807E4
:1056F000882309F489C10E94680880913903909138
:105700003A038130910509F484C108F494C10297E9
:1057100009F488C18DE497E00E942C0B8091560714
:1057200081111092550710925607882341F110926B
:105730004C072FB7F8948091710590917205A09154
:105740007305B09174052FBF80934307909344076E
:10575000A0934507B0934607EAA9FBA9CF01B0E0A3
:10576000A0E08093470790934807A0934907B09320
:105770004A0730924B0760E08DE00E94E80883E41E
:1057800097E00E942C0B80914C07811110924B07DF
:1057900010924C07882341F1109256072FB7F894C6
:1057A0008091710590917205A0917305B091740577
:1057B0002FBF80934D0790934E07A0934F07B09350
:1057C00050072CA93DA9C901B0E0A0E08093510782
:1057D00090935207A0935307B09354073092550704
:1057E00061E08DE00E94E808809161079091620776
:1057F000009709F427C1A301481B590BCA01209146
:105800006801309169018217930734F5909369011B
:105810008093680180915807882309F416C180910C
:105820005707882309F411C160E97BE089EE96E00F
:105830000E94A909609168017091690180915807DF
:10584000882309F407C180915707882309F402C10E
:1058500089EE96E00E94FC0E8091890590913803B4
:10586000891721F18093380380915807882309F420
:10587000F4C080915707882309F4EFC06BE57BE003
:1058800089EE96E00E94A90960913803809158073B
:105890004AE050E0882309F4E5C080915707882347
:1058A00009F4E0C089EE96E00E942A0F80E090E0C3
:1058B000892B11F40C94C7230E94370A882311F412
:1058C0000C94C5230E9400000C94C52384E68093A9
:1058D000760140E25CE1509373014093720144E031
:1058E00051E05093450340934403809186056091B5
:1058F000A5057091A605869FA001879F500D1124D4
:1059000050937101409370014091420350914303C1
:1059100042175307C9F42091770180916F01281332
:1059200013C0409174015091750120916D01309127
:105930006E014217530741F42091490330914A0305
:105940002B3031050CF443CD992321F0809157077A
:1059500081118BC064E97CE08CE496E00E94A90987
:105960008CE496E000914603109147034091740146
:105970005091750120914803609177010E94D012E7
:105980008091460390914703909343038093420391
:10599000809174019091750190936E0180936D01D7
:1059A0008091770180936F0112CD6CE47CE08CE4F0
:1059B00096E060CD8CE496E078CD8CE496E085CDE1
:1059C0008CE496E0A1CD8CE496E0AECD8CE496E03C
:1059D000C6CD82E090E0E9CD66E37CE08CE496E021
:1059E000FACD8CE496E00DCE8CE496E01ECE6AEE05
:1059F0007BE08CE496E03ACE8CE496E049CE64ED10
:105A00007BE08CE496E054CE8CE496E00E94AE0AF3
:105A100074CE44E650E05BAB4AAB84E893E09DABC8
:105A20008CAB78CEE4E8F3E0FBABEAAB24E630E005
:105A30003DAB2CAB6FCE44EF51E05BAB4AAB84EF98
:105A400091E0EDCF8EA99FA9DACE6DE77BE08CE4E3
:105A500096E0EECE8CE496E0FDCE69E37BE08CE44C
:105A600096E010CF8CE496E01FCF6FE97CE089EEE2
:105A700096E00E94A90989EE96E074CF6AE87CE07E
:105A800089EE96E00E94A90989EE96E0D7CC0F93A3
:105A90001F93CF93DF938230910510F482E090E062
:105AA000E0916307F091640730E020E0B0E0A0E00F
:105AB000309799F42115310509F44AC0281B390B98
:105AC00024303105D8F58A819B816115710589F1F2
:105AD000FB0193838283FE0111C0408151810281C9
