:100000000C9427050C944F050C944F050C944F0548
:100010000C944F050C944F050C944F050C944F0510
:100020000C944F050C944F050C94CA140C940A16AA
:100030000C944F050C944F050C944F050C944F05F0
:100040000C944F050C944F050C944F050C944F05E0
:100050000C944F050C944F050C944F050C940D1304
:100060000C944F050C947D130C9457130C944F056E
:100070000C944F050C944F050C944F050C944F05B0
:100080000C944F050C944F050C944F050C944F05A0
:100090000C94AF130C944F050C944F050C944F0522
:1000A0000C944F050C944F050C944F0552657374D6
:1000B0006F72656420666163746F7279206465662F
:1000C00061756C74732E00040309044172647569D0
:1000D0006E6F204C4C430041726475696E6F204C0A
:1000E000656F6E6172646F004D79436F6F6C555030
:1000F0005300506241630055505331300045525215
:100100004F523A204E65656420746F20646F2063FF
:100110006F6E66696775726174696F6E20616E6477
:1001200020777269746520746F20454550524F4D99
:100130002E205573696E672044656661756C747313
:100140002E00476F6F643A20454550524F4D20694D
:100150007320696E697469616C697A65642E004305
:100160003A5C55736572735C557365725C446F637A
:10017000756D656E74735C4769744875625C736D08
:100180006172742D7570732D656D756C61746F720D
:100190005C536D617274557073456D756C61746FED
:1001A000725C536D617274557073456D756C6174DA
:1001B0006F722E696E6F00536D61727420555053CB
:1001C00020456D756C61746F722076302E31002C75
:1001D00020002C20002C20005553422053657269CA
:1001E000616C20626175642C20626974732C2070CC
:1001F00061726974792C2073746F702062697473F2
:100200003A20000D0A24242D454E442045455052E5
:100210004F4D0D0A0D0A0020003000200030003044
:100220000030000D0A2420000D0A24242D454550DD
:10023000524F4D20434F4E54454E54533A002020C8
:1002400020313A64626720004261747465727920DB
:10025000566F6C746167652A3130303A20004478FB
:100260002020202D20446562756720666C616773CD
:1002700020202020202020202020202020203A2064
:10028000307800202028562A31303029002020568E
:100290006F6C74616765732077696C6C20616C7733
:1002A00061797320626520656E746572656420698A
:1002B0006E2068756E647265647468732E20002009
:1002C0002028496620796F75206D656173757265A8
:1002D000642031322E343520766F6C74732C206597
:1002E0006E746572204348313234352900202077FE
:1002F0006865726520767676762069732074686505
:10030000206D6561737572656420766F6C746167CA
:100310006520696E2068756E647265746873206FFD
:1003200066206120766F6C742E00202077697468D7
:10033000206120676F6F64206469676974616C2055
:10034000766F6C74206D657465722E20456E7465D1
:10035000722074686520636F6D6D616E6420434820
:10036000767676762E002020486F6F6B2074686555
:10037000206C65616473206261636B20757020740A
:100380006F2074686520626174746572792E204DE7
:100390006561737572652074686520766F6C746131
:1003A000676500202053686F7274207468656D2043
:1003B000746F6765746865722E20456E746572206F
:1003C00074686520636F6D6D616E6420434C3020EE
:1003D000285A65726F2C206E6F74204F68292E008A
:1003E0002020446973636F6E6E6563742074686562
:1003F000206261747465727920766F6C74616765D0
:100400002073656E7365206C656164732066726F1E
:100410006D2074686520626174746572792E202085
:100420000020546F2063616C69627261746520768C
:100430006F6C746167652073656E73696E672066A3
:100440006F72207468697320626F6172643A002968
:1004500000202020202020202020284869676820B4
:1004600056204132442076616C75653A2000205652
:100470002A3130300043486E6E6E6E202D2043616D
:100480006C696272617465206869676820766F6C58
:100490007461676520706F696E742028562A313048
:1004A000302920203A200029002020202020202050
:1004B0002020284C6F772056204132442076616CF2
:1004C00075653A200020562A31303000434C6E6E5C
:1004D0006E6E202D2043616C696272617465206CC0
:1004E0006F7720766F6C7461676520706F696E74CA
:1004F0002028562A313030292020203A2000544428
:100500006E6E6E6E202D204176652E2054696D65CD
:1005100020666F722066756C6C2044697363686135
:1005200072676520286D696E75746573293A2000BD
:1005300054436E6E6E6E202D204176657261676544
:100540002054696D6520746F2066756C6C7920434A
:10055000686172676520286D696E75746573293AE4
:10056000200042456E6E6E6E202D204261747465CF
:10057000727920456D70747920766F6C746167654F
:100580002020202020202020202028562A313030F2
:10059000293A200042466E6E6E6E202D2042617414
:1005A000746572792046756C6C204368617267656A
:1005B00020766F6C746167652020202028562A31D0
:1005C0003030293A20002020202020202020202800
:1005D000303D4E6F205043207265706F7274696EAB
:1005E000672F73687574646F776E2E20313D456E8A
:1005F00061626C656400454E6E202020202D2045F0
:100600004E61626C65207265706F7274696E672FDF
:1006100053687574646F776E20746F20746F2074E4
:1006200068652050433A200050726573656E7420EF
:1006300053657474696E67733A00536D6172742008
:1006400055505320456D756C61746F722076302E55
:100650003100000A2D2D2D2D4D656E752D2D2D2D62
:1006600000446F6E277420666F7267657420746F24
:100670002028532961766520746865206E6577208F
:1006800076616C756521002073657420746F3A2063
:10069000004E657720004F6C642076616C75652094
:1006A0007761733A20002076616C756521204D6179
:1006B0007820697320312028666F72206120626F74
:1006C0006F6C292E0A004572726F723A20496E765D
:1006D000616C696420000A556E6B6E6F776E2063E3
:1006E0006F6D6D616E64205B004344435F41434D19
:1006F0005F494E544552464143453A2000426164A9
:1007000020636F6D6D616E642E2053686F756C642D
:10071000206265204E4C206F72204E48000A5265C0
:1007200073746F72656420466163746F72792044DC
:10073000656661756C74732E2E2E0D0A204D7573CF
:100740007420646F2027532720746F2073617665AF
:1007500020746F20454550524F4D20286E6F6E2DEE
:10076000766F6C6174696C65206D656D6F72792947
:100770002E000A5361766564206E65772076616C81
:10078000756528732920746F20454550524F4D2EB2
:100790000A005D005B0000000000240027002A0022
:1007A0002D00300000000000250028002B002E0046
:1007B0003100000000002300260029002C002F003B
:1007C00004040404040304050202020204030202F6
:1007D00002020606060606060404020202040404D7
:1007E0000802011040804010204080408008020430
:1007F00001804020100201108010204040200000A5
:10080000000200090F0000030401000C00000000BA
:1008100000000000000000000000000000070605C6
:10082000040100080A0B0C0D09446F6E2774206642
:100830006F7267657420746F202853296176652074
:10084000746865206E65772076616C75652100306F
:1008500078002073657420746F3A20004E6577200D
:10086000003078004F6C642076616C75652077618C
:10087000733A20002E0A00222076616C75652120D3
:100880004D696E20697320004572726F723A20497B
:100890006E76616C69642022002E0A002076616CFD
:1008A000756521204D617820697320004572726F53
:1008B000723A20496E76616C6964200005840904EF
:1008C000A1010924A10275089501150026FF0085E4
:1008D0000109FE7902B123850209FF7903B123855D
:1008E0000309FD7901B12305858506098BB12385AF
:1008F0001F09897904B1238520098F7905B12385E2
:1009000016092CB1238510098D266400B1228518A3
:10091000098EB123850E0967B18385170983B183D9
:10092000850C096681A30966B1A3850F098CB1A264
:1009300085110929B1A285090985751027FFFF00D6
:1009400000B1A3851A096A27FFFF00006601105550
:1009500000B1A3851C096981A30969B1A3850D09AB
:100960006881A30968B1A38508092A751027640561
:1009700000001678008122092AB1A2058485120997
:100980005716008027FF7F0000B1A285130955B1DB
:10099000A2850A0940150027FFFF00006721D1F05A
:1009A000005505B123850B093081A30930B1A3851A
:1009B00014095A750815012503650055008122099F
:1009C0005AB1A20902A102850705850944750115DE
:1009D00000250181A30944B1A3094581A30945B1BB
:1009E000A309D081A309D0B1A309D181A309D1B1B1
:1009F000A3094281A30942B1A3094381A20943B1DA
:100A0000A2094B81A3094BB1A309DB81A309DBB187
:100A1000A3094681A30946B1A3094781A30947B1A8
:100A2000A30584096881A20968B1A2096981A309A3
:100A300069B1A3097381A30973B1A3096581A309EE
:100A400065B1A395028101B101C0C0C07F18112416
:100A50001FBECFEFDAE0DEBFCDBF13E0A0E0B1E014
:100A6000E0EAF8E502C005900D92A23CB107D9F783
:100A700026E0A2ECB3E001C01D92A932B207E1F773
:100A800015E0C7E2D5E004C02197FE010E944E2A7E
:100A9000C632D107C9F70E944C190C944E2C0C9405
:100AA0000000E2E2F8E0E49190917B008E2F880F45
:100AB000880F80729F7D892B80937B00E770E064B4
:100AC000E0937C0080917A00806480937A0080912A
:100AD0007A0086FDFCCF809178009091790008958E
:100AE000FC0180819181FB0120813181821B930B6C
:100AF0000895FC018091F704882311F13FB7F89421
:100B000082E08093E9002091F200822F90E0181695
:100B1000190614F481E090E0882339F0289844E61F
:100B20004093F6044091F1004083222339F0209154
:100B3000F200211103C02BE62093E8003FBF089587
:100B40008FEF9FEF089581508F3008F047C0E82F56
:100B5000F0E0E355FA4F0C944E2ACA05CE05BC05C9
:100B6000C205C605EE05EE05EE05D105D705DB0588
:100B7000DF05E505EE05E905809180008F7780931C
:100B800080000895809180008F7DF9CF8091800052
:100B9000877FF5CF84B58F7784BD089584B58F7D29
:100BA000FBCF809190008F77809390000895809183
:100BB00090008F7DF9CF80919000877FF5CF809155
:100BC000C0008F778093C00008958091C0008F7D12
:100BD000F9CF8091C200877F8093C2000895CF93A0
:100BE000DF93282F30E0F901E250F84F8491F901AA
:100BF000E152F84FD491F901E054F84FC491CC235D
:100C0000A1F081110E94A305EC2FF0E0EE0FFF1F71
:100C1000EE54F84FA591B491EC91ED2381E090E072
:100C200009F480E0DF91CF91089580E090E0FACF61
:100C30001F93CF93DF93282F30E0F901E250F84F54
:100C40008491F901E152F84FD491F901E054F84F41
:100C5000C491CC23A9F0162F81110E94A305EC2F7B
:100C6000F0E0EE0FFF1FEC55F84FA591B4918FB750
:100C7000F894EC91111108C0D095DE23DC938FBF5E
:100C8000DF91CF911F910895DE2BF8CFCF93DF93A3
:100C900090E0FC01E152F84F24918054984FFC0100
:100CA00084918823C9F090E0880F991FFC01EA56CF
:100CB000F84FA591B491FC01EC55F84FC591D49132
:100CC00061110DC09FB7F8948C91209582238C936D
:100CD0008881282328839FBFDF91CF9108956230B8
:100CE00051F49FB7F8943C91822F809583238C9385
:100CF000E8812E2BEFCF8FB7F894EC912E2B2C930D
:100D00008FBFEACF3FB7F8948091F2049091F3043B
:100D1000A091F404B091F50426B5A89B05C02F3F1F
:100D200019F00196A11DB11D3FBFBA2FA92F982F11
:100D30008827BC01CD01620F711D811D911D42E00C
:100D4000660F771F881F991F4A95D1F708958F92D4
:100D50009F92AF92BF92CF92DF92EF92FF924B01A0
:100D60005C010E9482066B017C010E9482066C1964
:100D70007D098E099F09683E734081059105A8F39E
:100D800021E0821A9108A108B10888EEC80E83E01C
:100D9000D81EE11CF11C81149104A104B10429F7AF
:100DA000FF90EF90DF90CF90BF90AF909F908F908B
:100DB00008952FB7F8946091EE047091EF0480913C
:100DC000F0049091F1042FBF0895EF92FF920F93DA
:100DD0001F93CF93DF938C017B01D0E0C0E0F7013C
:100DE000EC0FFD1F6491662361F0D801ED91FC9139
:100DF0000190F081E02DC8010995892B11F0219611
:100E0000EECFCE01DF91CF911F910F91FF90EF9028
:100E10000895AF92BF92CF92DF92EF92FF920F931D
:100E20001F93CF93DF936C017B018B01040F151F80
:100E3000EB015E01AE18BF08C017D10759F06991E8
:100E4000D601ED91FC910190F081E02DC60109954C
:100E5000892B79F7C501DF91CF911F910F91FF90F9
:100E6000EF90DF90CF90BF90AF900895FC01538D2D
:100E7000448D252F30E0842F90E0821B930B541774
:100E800010F0CF96089501970895FC01918D828D01
:100E9000981761F0A28DAE0FBF2FB11D5D968C919A
:100EA000928D9F5F9F73928F90E008958FEF9FEFD9
:100EB0000895FC01918D828D981731F0828DE80F95
:100EC000F11D858D90E008958FEF9FEF0895FC014F
:100ED000918D228D892F90E0805C9F4F821B91091C
:100EE0008F739927089589EF94E00E94670721E0A6
:100EF000892B09F420E0822F0895FC01A48DA80F0E
:100F0000B92FB11DA35ABF4F2C91848D90E001964B
:100F10008F739927848FA689B7892C93A089B1896B
:100F20008C9182748C93938D848D981306C0028863
:100F3000F389E02D80818F7D80830895EF92FF9269
:100F40000F931F93CF93DF93EC0181E0888F9B8DEC
:100F50008C8D981319C0E889F989808185FF14C0A8
:100F60009FB7F894EE89FF896083E889F9898081C9
:100F7000827480839FBF81E090E0DF91CF911F91C9
:100F80000F91FF90EF900895F62E0B8D10E00F5FFC
:100F90001F4F0F731127E02E8C8D8E110CC00FB6D2
:100FA00007FCFACFE889F989808185FFF5CFCE016A
:100FB0000E947D07F1CFEB8DEC0FFD2FF11DE35A61
:100FC000FF4FF0829FB7F8940B8FEA89FB898081ED
:100FD0008062CFCFCF93DF93EC01888D8823B9F067
:100FE000AA89BB89E889F9898C9185FD03C0808134
:100FF00086FD0DC00FB607FCF7CF8C9185FFF2CFB1
:10100000808185FFEDCFCE010E947D07E9CFDF9182
:10101000CF91089580E090E0892B29F00E9473071A
:1010200081110C94000008952091A304260F33270A
:10103000331F21323105ECF42091C704FC0190E00C
:1010400080E0243069F082E00895A091A30421910A
:10105000AC014D575B4FA40FB52FB11D2C930196DA
:10106000861798F38091A304680F6093A30480E02F
:10107000089581E0089508958FEF9FEF08958FEF11
:101080009FEF089580917C0490E09195819591095E
:101090000895CF93DF93CB01EA01642F0E941408D7
:1010A000CE01DF91CF910895CF93DF931F92CDB7FB
:1010B000DEB7698361E0CE0101960E94140881E0E9
:1010C00090E00F90DF91CF91089590E080E0089537
:1010D0000F931F93CF93DF93EC010E94D9060881F1
:1010E00019812A813B81601B710B820B930B0C8150
:1010F0001D812E813F81061717072807390730F415
:101100008885882319F0188681E08987DF91CF913F
:101110001F910F910895DC015296ED91FC9130E002
:1011200020E03097A1F0DC0154964D915C9124179A
:10113000350758F4428153814617570741F0019013
:10114000F081E02D2F5F3F4FECCFF0E0E0E0CF01EA
:1011500008954091D2035091D3032091D003309150
:10116000D10342175307B4F49091E8009570E1F36E
:101170009091E80092FD19C08093F1008091D20314
:101180009091D30301968F739927892B19F48EEFD1
:101190008093E8008091D2039091D30301969093BD
:1011A000D3038093D20381E0089580E00895EF9205
:1011B000FF920F931F93CF93DF93F82E192FE62EF4
:1011C000042F81E0860F880F0E94A90883E00E9407
:1011D000A908CF2DD12FEC0EFD2EF11CCE15DF0569
:1011E000B9F007FF13C0FE0184910E94A908182FCF
:1011F00080E00E94A908812321968111EFCFDF9121
:10120000CF911F910F91FF90EF9008958881EDCFBE
:1012100081E0F5CFDF92EF92FF920F931F93CF9370
:10122000DF93D82E8A01EB017B01E40EF51ECE156B
:10123000DF0559F0D7FE12C0FE0184910E94A90873
:1012400021968111F4CF0FEF1FEFC801DF91CF91ED
:101250001F910F91FF90EF90DF9008958881EECF5E
:10126000CF93DF93CDB7DEB7A0970FB6F894DEBF6C
:101270000FBECDBFFC01DB018C918F5F8C939E0173
:101280002D5F3F4F88E0D9011D928A95E9F799E0DB
:10129000998384E08A8382E08D8383E08E839A87BA
:1012A00021E22B8791E09C879D872E879F8792E282
:1012B000988B47E04B8B95E09C8B24E82D8B8E8B95
:1012C00020E430E0388F2F8B54E1598F4A8F9B8F69
:1012D0009C8F8D8F3F8F2E8F8AE088A382818B8396
:1012E00096858785998B8A8B40E250E0BE016F5FBF
:1012F0007F4F80E00E940A09A0960FB6F894DEBFE7
:101300000FBECDBFDF91CF9108952FB7F8948770AE
:101310008093E9009091E800892F807295FF04C0C6
:101320009091F20080E4891B2FBF08958F929F92C5
:10133000AF92BF92CF92DF92EF92FF920F931F93E3
:10134000CF93DF93B82E6B018A018091F70481114E
:101350000FC08FEF9FEFDF91CF911F910F91FF9003
:10136000EF90DF90CF90BF90AF909F908F900895B7
:101370008091D60380FF05C08091E0008260809359
:10138000E000C02FD12FF12C8AEFE82E8B2D877033
:10139000982E8B2D8074882E9AE3A92E209719F40D
:1013A000FF2009F443C08B2D0E94850981110AC0DA
:1013B000EA94EE2071F261E070E080E090E00E943B
:1013C000A706ECCF8C171D0611F00CF08C2F9FB7E1
:1013D000F8949092E9002091E80025FD02C09FBF9B
:1013E000DDCF282F30E0C21BD30BF601815020F057
:1013F00041914093F100FACFC20ED31EFF2021F09D
:10140000A092E800F12CEBCF8091E80085FD07C0A9
:10141000A092E800FF24F394209709F3F3CF2097DC
:10142000F1F68820E1F2A092E800D9CF5D9884E639
:101430008093D503C8018FCF615030F02091F10027
:10144000FC0120830196F8CF289884E68093F60467
:101450000895AF92BF92DF92EF92FF920F931F9386
:10146000CF93DF935C018B01EB019BEFD92E20978B
:10147000C1F07E01C134D1051CF080E4E82EF12CCE
:101480008091E80082FFFCCFC8018C1B9D0B6E2D64
:101490008A0D9B1D0E941C0AD092E800CE19DF091C
:1014A000E6CFC801DF91CF911F910F91FF90EF9090
:1014B000DF90BF90AF9008958091C80381110DC057
:1014C00082E08093C40384E08093C5031092C70335
:1014D0001092C60381E08093C80384EC93E00895E2
:1014E000CF93DF93809174048111CDC082E080930B
:1014F0005E0481E080935F0424E634E0309361046D
:1015000020936004109263041092620428E831E092
:1015100030935B0420935A0410926704109266047F
:10152000109269041092680480936A0480936B049B
:1015300081EC8093640480EC809365040E945C0AD3
:10154000EC01898190915E04890F9927991F089772
:101550000CF096C0EA81FB81309709F053C08AE510
:1015600094E09B838A8362E082E00E944606809139
:101570005904882309F44FC081E08093590461E045
:1015800087E00E9418060E94D90660935104709368
:1015900052048093530490935404809139049091A1
:1015A0003A04A0913B04B0913C040196A11DB11DE9
:1015B0008093390490933A04A0933B04B0933C0485
:1015C00082E080935C0484E080935D048881909144
:1015D0005F04890F888330915E0490916004E92F45
:1015E000F09161048E2F891B831708F049C089810F
:1015F0002191A82FB0E0A059BE4F2C938F5F898313
:10160000F1CFFC01808591850097D9F78AE594E0B8
:1016100091878087A8CF82E00E94EF05892B09F48B
:10162000ABCF61E086E00E9418060E94D9069B01BC
:10163000AC0188279927DC01821B930BA40BB50B07
:101640008093510490935204A0935304B093540494
:101650008091390490913A04A0913B04B0913C04EC
:101660000196A11DB11D8093390490933A04A09373
:101670003B04B0933C0410925C0410925D04A6CF2E
:1016800081E0809374048AE594E0DF91CF9108951E
:10169000CF92DF92EF92FF920F931F93CF93DF933E
:1016A00000D0CDB7DEB78C017B016A010E94700AC1
:1016B0001A83098341E050E0BE016F5F7F4F84E0F1
:1016C0000E9496098C0197FD09C0A601B70184E428
:1016D0000E949609080F191F97FD8C01C8010F90F1
:1016E0000F90DF91CF911F910F91FF90EF90DF90BE
:1016F000CF9008950F931F93CF93DF931F92CDB791
:10170000DEB7198280915904882309F441C00E94F0
:10171000D90660934D0470934E0480934F049093C8
:1017200050048091350490913604A0913704B09113
:1017300038040196A11DB11D8093350490933604A1
:10174000A0933704B093380489818E5F898342E483
:1017500050E060E071E080E00E940A090E945C0AAB
:10176000DC0112960D911C9101151105C1F1D801F2
:10177000ED91FC910280F381E02DBE016F5F7F4F00
:10178000C801099597FD2BC0F80100851185ECCFA4
:101790000E94D9069B01AC0188279927DC01821B96
:1017A000930BA40BB50B80934D0490934E04A09320
:1017B0004F04B09350048091350490913604A09169
:1017C0003704B09138040196A11DB11D80933504F2
:1017D00090933604A0933704B0933804BFCF898127
:1017E0000F90DF91CF911F910F910895CF93DF93C9
:1017F000EC0180915F01882331F083E00E9496091B
:101800001816190634F081E090E09B838A8380E00B
:1018100090E0DF91CF910895CF93DF931F92CDB7E2
:10182000DEB76983DC01ED91FC910280F381E02D4C
:1018300041E050E0BE016F5F7F4F09950F90DF914F
:10184000CF91089583E08093E9008091F20088238E
:1018500019F08AE38093E800089583E00E948509E7
:1018600090E00895CF93DF931F92CDB7DEB7FC01D0
:101870008485958597FD08C02FEF3FEF3587248736
:101880000F90DF91CF910895CE0101960E947905C6
:10189000019719F4898190E0F3CF8FEF9FEFF0CF9C
:1018A0000F931F93CF93DF931F92CDB7DEB78C01B9
:1018B000FC018485958597FF0BC0CE0101960E949F
:1018C0007905019771F4898190E0F8019587848703
:1018D000F801848595850F90DF91CF911F910F912D
:1018E00008958FEF9FEFF1CFFC018485958597FDDB
:1018F0000BC09FB7F89482E08093E9008091F200DA
:101900009FBF90E0019608959FB7F89482E080937E
:10191000E9008091F2009FBF90E00895FB010190E3
:101920000020E9F73197AF01461B570BDC01ED9121
:10193000FC910280F381E02D09948F929F92AF92E7
:10194000BF92EF92FF920F931F93CF93DF93CDB788
:10195000DEB7A1970FB6F894DEBF0FBECDBF7C01F6
:10196000FA01CB0119A2223008F42AE08E010F5DA2
:101970001F4F822E912CB12CA12CBF01A5019401E7
:101980000E94A228F901CA016A300CF5605DD801F5
:101990006E938D01232B242B252B79F790E080E08B
:1019A000109721F0BD01C7010E948E0CA1960FB6C1
:1019B000F894DEBF0FBECDBFDF91CF911F910F9185
:1019C000FF90EF90BF90AF909F908F900895695CCB
:1019D000DECFCF92DF92EF92FF920F931F93CF93C0
:1019E000DF93EC016A017B01E881F9810190F081CC
:1019F000E02D6DE209958C0144275527BA014C1959
:101A00005D096E097F092AE0CE010E949D0C800FBE
:101A1000911FDF91CF911F910F91FF90EF90DF9079
:101A2000CF9008950C949D0C9A01AB0170E060E09A
:101A30000C94120D9A01462F50E070E060E00C9477
:101A4000120D8F929F92AF92BF92CF92DF92EF9240
:101A5000FF920F931F93CF93DF937C01EB016C01F7
:101A600082E0C80ED11C4701E5E08E0E911C10E00B
:101A700000E0F60161916F014AE050E0CE010E9462
:101A80001A0D5C01E881F9810190F081E02D6EE290
:101A9000CE0109958A0D9B1D080F191FC814D90482
:101AA00041F74AE050E0F7016581CE010E941A0D2E
:101AB000800F911FDF91CF911F910F91FF90EF90B9
:101AC000DF90CF90BF90AF909F908F9008956AEB7A
:101AD00071E00C948E0C0F931F93CF93DF93EC0166
:101AE000AB01770F660B770B77FF0DC00E94E90CF7
:101AF0008C01CE010E94670D800F911FDF91CF9165
:101B00001F910F9108952AE00E949D0CF1CF0F9331
:101B10001F93CF93DF93EC010E94140D8C01CE0133
:101B20000E94670D800F911FDF91CF911F910F9140
:101B300008950F931F93CF93DF93EC010E948E0CB7
:101B40008C01CE010E94670D800F911FDF91CF9114
:101B50001F910F9108950F931F93CF93DF93EC0183
:101B6000FB014481558160817181E881F9810280A6
:101B7000F381E02D09958C01CE010E94670D800F45
:101B8000911FDF91CF911F910F9108950F931F9394
:101B9000CF93DF93EC010E94E5068C01CE010E94F9
:101BA000670D800F911FDF91CF911F910F910895C5
:101BB00081E0809326048AEA8093030485E580937C
:101BC000040481E095EA909328048093270480E23E
:101BD0009CE19093060480930504909308048093FD
:101BE000070488E592E090930A048093090484E650
:101BF00095E090930C0480930B048EE794E090930F
:101C00000E0480930D041092150410921404109287
:101C100013041092120488E795E0909319048093BE
:101C2000180484E690E090931704809316048AE0E9
:101C300080930F0485E0809310041092110480912A
:101C40006701882331F06CEA70E08BEC95E00C942E
:101C5000C60D08950C948E0CBF92CF92DF92EF9236
:101C6000FF920F931F93CF93DF93DC01EB01589604
:101C70008D919C915997892BB9F08D01B12CCB2C6A
:101C8000D12CF801E08CF18CC7010E94F526C81612
:101C9000D90610F5F701EC0DFD1DE491DE01AC0D48
:101CA000BD1DEC93B394EBCF88E4888389E48983EA
:101CB00084E48A831E968C911E978F708F5B8B8332
:101CC0001E968D919C9124E0969587952A95E1F733
:101CD0008F708F5B8C8385E0DF91CF911F910F9187
:101CE000FF90EF90DF90CF90BF900895CF92DF925A
:101CF000EF92FF920F931F93CF93DF9300D0CDB756
:101D0000DEB77C01FB011381133009F046C062810C
:101D100070E07F6F0E948B08009709F46AC0DC01B5
:101D20001496FC9014971596DC908F2D9D2D0E9493
:101D3000F526E82E1A8381E08E0D880F898342E014
:101D400050E0BE016F5F7F4F80E00E940A09CF2CF8
:101D50000F2D1D2D802F8C198E15E8F4F80184911C
:101D600089831A8242E050E0BE016F5F7F4F80E0BE
:101D70000E940A090F5F1F4F892B61F780E090E0F6
:101D80000F900F90DF91CF911F910F91FF90EF90E7
:101D9000DF90CF90089581E0F2CF8081813849F5BE
:101DA000123239F5D70112962C91129784819581C0
:101DB00028171906F1F41C960D911C91D12CC12CF9
:101DC0000115110589F0F801448155816281738103
:101DD00080E80E940A098F3F980791F2C80ED91E29
:101DE000D8010D911C91ECCF81E0F701808BC601E9
:101DF000C7CF90E080E0C4CFAF92BF92CF92DF9286
:101E0000EF92FF920F931F93CF93DF93CDB7DEB77F
:101E1000C857D1090FB6F894DEBF0FBECDBF809171
:101E20001B0690911C06DC01ED91FC910680F78168
:101E3000E02D09950E9451059A8389838E010F5FD9
:101E40001F4F6E01BBE3CB0ED11C78018FE9A82E8A
:101E500086E0B82E0E945105F801819391938F017D
:101E6000C5010197F1F7CE16DF06A1F720E735E0AF
:101E700042E050E06DE170E0C7010E944A248D8D80
:101E80009E8DC858DF4F0FB6F894DEBF0FBECDBF92
:101E9000DF91CF911F910F91FF90EF90DF90CF9046
:101EA000BF90AF9008950F931F93CF93DF93EC01F2
:101EB00088819981009759F02A813B81261737073D
:101EC00030F081E0DF91CF911F910F9108958B0148
:101ED0006F5F7F4F0E94792B009759F09983888319
:101EE0001B830A832C813D81232B59F7FC0110822F
:101EF000E8CF80E0E7CFCF93DF93EC018881998131
:101F0000009711F00E94F02A198218821D821C820B
:101F10001B821A82DF91CF910895EF92FF920F9367
:101F20001F93CF93DF938C017B01EB01099000207D
:101F3000E9F72197C61BD70BBE010E94530F8111F1
:101F400009C0C801DF91CF911F910F91FF90EF90D1
:101F50000C947B0FF801D583C483B70180819181F4
:101F6000DF91CF911F910F91FF90EF900C94472C30
:101F7000EF92FF920F931F93CF93DF93EC01FB013E
:101F8000E080F180E114F10411F104811581011563
:101F90001105A9F08C819D81080F191FB801CE0190
:101FA0000E94530F882399F0288139818C819D816B
:101FB000B701820F931F0E94472C1D830C83CE0113
:101FC000DF91CF911F910F91FF90EF900895CE0177
:101FD0000E947B0FF4CFFC0180819181009711F06A
:101FE0000C94F02A08950F931F93CF93DF93CDB7EE
:101FF000DEB761970FB6F894DEBF0FBECDBF8C0180
:10200000CB01F80111821082138212821582148290
:1020100050E0BE016F5F7F4F0E941127BE016F5FCE
:102020007F4FC8010E948D0F61960FB6F894DEBFF6
:102030000FBECDBFDF91CF911F910F9108950F93E8
:102040001F93CF93DF93CDB7DEB729970FB6F894E0
:10205000DEBF0FBECDBF8C01862FF801118210822A
:10206000138212821582148250E0BE016F5F7F4F8F
:1020700090E00E941127BE016F5F7F4FC8010E9450
:102080008D0F29960FB6F894DEBF0FBECDBFDF913E
:10209000CF911F910F9108952F923F924F925F928F
:1020A0006F927F928F929F92AF92BF92CF92DF9268
:1020B000EF92FF920F931F93CF93DF93CDB7DEB7CD
:1020C00028970FB6F894DEBF0FBECDBFE0E15E2EBD
:1020D000A11002C03AE0532EFB01608171816D3086
:1020E000710521F06A30710509F0EEC0AF82170169
:1020F000380128877A01A52CB12CA50170E060E099
:1021000001960E94B725462E062F172F80911B0699
:1021100090911C06E016F10608F040C06CEA78E0E9
:102120000E94E506B60180911B0690911C060E9454
:102130002A0E6CE978E080911B0690911C060E94A3
:10214000E5064AE050E0B70180911B0690911C061D
:102150000E94140D69E978E080911B0690911C069D
:102160000E94C60D80E01092F80428960FB6F894ED
:10217000DEBF0FBECDBFDF91CF911F910F91FF90BA
:10218000EF90DF90CF90BF90AF909F908F907F9017
:102190006F905F904F903F902F900895081519050C
:1021A000F8F468E878E00E94E506B60180911B0625
:1021B00090911C060E942A0E67E778E080911B062A
:1021C00090911C060E94E5064AE050E0B40180911F
:1021D0001B0690911C060E94140D64E778E0BCCFAA
:1021E00064E678E00E94E506FF81FF2341F061E6A6
:1021F00078E080911B0690911C060E94E506E09015
:102200001B06F0901C068885882309F447C0452DDD
:10221000F3016081CE0101960E941F10BE016F5F25
:102220007F4FC7010E94AB0DCE0101960E94EB0FBC
:10223000F30140826CE578E080911B0690911C06CA
:102240000E94E506B60180911B0690911C060E9433
:102250002A0E62E578E080911B0690911C060E9490
:10226000E506FF81FF2341F06FE478E080911B06D3
:1022700090911C060E94E506A501B80180911B06FD
:1022800090911C060E94870D69E278E080911B0600
:1022900090911C060E94C60D81E065CFF10160811E
:1022A0007181452DCE0101960E94F30FBE016F5F33
:1022B0007F4FC7010E94AB0DCE0101960E94EB0F2C
:1022C000F10111830083B6CF80E04FCF1F93CF93EE
:1022D000DF9385ED8093BC0080917F049091800412
:1022E000A0918104B09182040796A11DB11D23E045
:1022F000B695A795979587952A95D1F72091BC001B
:1023000024FD03C01092C70452C040917F04509135
:1023100080046091810470918204452B462B472BE9
:1023200069F30097A105B10541F02AE22A95F1F77A
:1023300000C00197A109B109E1CF80917E04C1E0FD
:10234000C0937D04882399F1D091B8001091BA0010
:102350008091BC008A7B8093BC0060E082E00E9498
:10236000180660E083E00E9418061092C704C0932C
:10237000C9041092C80461E082E00E94180661E07E
:1023800083E00E9418068091B9008E7F8093B90087
:102390008091B9008D7F8093B90088E48093B80064
:1023A00085E48093BC001093BA00D093B800DF910D
:1023B000CF911F910895EF92FF920F931F93CF93A8
:1023C000DF93FC014281FB01248135814217130612
:1023D00011F020E029C0EB0131812081213A81F503
:1023E000313051F52381233011F021E01DC062818D
:1023F00070E00E948B08EC01009759F341E050E037
:10240000BC016E5F7F4F80E00E940A091816190612
:1024100004F74E815F816C817D8180E00E940A0912
:1024200021E018161906ACF6822FDF91CF911F918B
:102430000F91FF90EF90089521E0333051F6F4CFE3
:10244000213239F63B3021F42281FC01208BCDCFA3
:102450003A3021F42281FC01218BC7CF393009F0B9
:10246000B8CF2381233009F0B4CF628170E00E949D
:102470008B088C01009709F4ACCFEE80FF80FC0143
:10248000868197810196E816F90609F0A2CF81E0CE
:1024900090E0E114F10409F0C7010E94542AEC0114
:1024A000B7010E94290A2881F801828193812817A7
:1024B000190609F08ECF46815781BE016F5F7F4FAD
:1024C000848195810E943E2C209709F48ECFCE0105
:1024D0000E94F02A8ACFAF92BF92CF92DF92EF9202
:1024E000FF920F931F93CF93DF937C016B015A01EF
:1024F000E901DC0152960D911C9190E080E00115FC
:10250000110531F589E090E00E94542AFC01118206
:102510001082D382C282B582A482DD27D783C6838C
:10252000D70153969C938E935297F701848995898E
:102530000196958B848BDF91CF911F910F91FF9026
:10254000EF90DF90CF90BF90AF90089501968901F2
:10255000F801228133812C153D0569F320813181F9
:102560002115310599F789E090E00E94542AFC0179
:1025700011821082D382C282B582A482DD27D783E2
:10258000C683D8018D939C93D0CFEF92FF920F9387
:102590001F93CF93DF93EC018B017A010E94700AA5
:1025A0009701A801BE01DF91CF911F910F91FF907C
:1025B000EF900C946B12CF92DF92EF92FF920F93F9
:1025C0001F93CF93DF93C82F6B018A010E94700A7B
:1025D0006C2F70E021E030E0A6010E946B12EC014C
:1025E000892B89F00E94700A7C01C8010E94F5269F
:1025F000F601608170E07F6F9C01A801C7010E9415
:102600006B12C80FD91FCE01DF91CF911F910F918F
:10261000FF90EF90DF90CF9008951F920F920FB62A
:102620000F9211242F933F938F939F93AF93BF9358
:102630008091EE049091EF04A091F004B091F10428
:102640003091ED0423E0230F2D3758F50196A11D9D
:10265000B11D2093ED048093EE049093EF04A093BA
:10266000F004B093F1048091F2049091F304A091EE
:10267000F404B091F5040196A11DB11D8093F204FC
:102680009093F304A093F404B093F504BF91AF9139
:102690009F918F913F912F910F900FBE0F901F90A0
:1026A000189526E8230F0296A11DB11DD2CF1F92C7
:1026B0000F920FB60F9211242F933F934F935F9376
:1026C0006F937F938F939F93AF93BF93EF93FF93FA
:1026D00089EF94E00E947D07FF91EF91BF91AF9148
:1026E0009F918F917F916F915F914F913F912F912A
:1026F0000F900FBE0F901F9018951F920F920FB65C
:102700000F9211242F938F939F93EF93FF93E09158
:102710000905F0910A058081E0910F05F0911005FF
:1027200082FD1BC09081809112058F5F8F73209175
:102730001305821741F0E0911205F0E0E750FB4FDE
:10274000958F80931205FF91EF919F918F912F911B
:102750000F900FBE0F901F9018958081F4CF1F929D
:102760000F920FB60F9211242F933F934F935F93C5
:102770006F937F938F939F93AF93BF93EF93FF9349
:102780008091B900887F803609F44AC0F0F588321C
:1027900009F4A5C018F5803109F499C0B8F488236C
:1027A00009F4F5C0883009F492C0FF91EF91BF9110
:1027B000AF919F918F917F916F915F914F913F91D9
:1027C0002F910F900FBE0F901F901895883109F42C
:1027D00086C0803251F78093C60414C0803409F457
:1027E0009BC040F48033B9F38833F9F68093C60474
:1027F00085ECAEC0803509F483C0883509F494C0F7
:10280000883499F60E946611D0CF883909F48AC0BD
:1028100038F5883729F050F4883611F0803729F6DA
:1028200083E08093C7041092C50455C0883809F42A
:1028300079C0803919F0803809F0B7CF8091C5048C
:10284000803208F06FC0E091C50481E08E0F809364
:10285000C5048091BB00F0E0EB55FB4F80833BC08B
:10286000803B39F0D0F4803A09F477C0883A09F017
:102870009CCF84E08093C7041092A4041092A30418
:10288000F0E0E0E009958091A30481110FC081E0A0
:102890008093A3041092830409C0803C09F4A8CF5C
:1028A000883C09F4A5CF883B09F07FCFE091A404D0
:1028B00081E08E0F8093A404F0E0ED57FB4F808100
:1028C0008093BB009091A4048091A30429C08091BF
:1028D000EC048093BB0085EC8093BC0066CF9091A4
:1028E000EB048091EA04981758F5E091EB0481E03D
:1028F0008E0F8093EB04F0E0E653FB4F8081E9CF2D
:10290000E091EB0481E08E0F8093EB048091BB009B
:10291000F0E0E653FB4F80839091EB048091EA0452
:102920009817C8F285E8D8CFE091EB0481E08E0FCC
:102930008093EB048091BB00F0E0E653FB4F808373
:102940008091C90481115ECF81E08093C80484EA3C
:102950008093BC001092C70428CF85EC8093BC0004
:102960001092C7048091C504803230F4E091C50410
:10297000F0E0EB55FB4F10826091C50470E085EAF2
:1029800094E0F0E0E0E009951092C5040ECF1092BB
:10299000C60438CF1F920F920FB60F9211242F93B7
:1029A0003F934F935F936F937F938F939F93AF93D7
:1029B000BF93CF93EF93FF93C091E1008091E1002B
:1029C000837F8093E100C3FF96C082E1809346013C
:1029D00081E08093470120E032E030934901209369
:1029E000480190915904992309F4CEC09FEE909329
:1029F0004A0192E090934B0180934C010E94D906CA
:102A00006093410470934204809343049093440480
:102A10008091290490912A04A0912B04B0912C0458
:102A20000196A11DB11D8093290490932A04A093BF
:102A30002B04B0932C0480E480934D0181E493E255
:102A400090934F0180934E0186E390E8909351015B
:102A5000809350018091590481110CC08DE195E063
:102A600090934F0180934E0183E090E09093510149
:102A70008093500180E091E0909353018093520144
:102A800081E08093540192E09093550193E09093FC
:102A90005601809357011092E9008093EB00109249
:102AA000EC0082E38093ED0080915904882309F4BF
:102AB00085C00E94D90660934504709346048093B4
:102AC00047049093480480912D0490912E04A09186
:102AD0002F04B09130040196A11DB11D80932D04E7
:102AE00090932E04A0932F04B09330041092F70417
:102AF00088E08093F000C2FF22C083E08093E90069
:102B00008091F200882319F08AE38093E800809195
:102B1000D503882341F08091D50381508093D5035C
:102B2000811101C05D9A8091F604882341F0809163
:102B3000F60481508093F604811101C0289AC4FFE5
:102B400057C08091E2008E7E81608093E200809188
:102B5000E1008F7E8093E1008091D6038E7E8061BC
:102B60008093D603FF91EF91CF91BF91AF919F9149
:102B70008F917F916F915F914F913F912F910F9026
:102B80000FBE0F901F90189510924A0110924B01A2
:102B900010924C010E94D9069B01AC01882799270D
:102BA000DC01821B930BA40BB50B80934104909323
:102BB0004204A0934304B09344042ACF10924A01E4
:102BC00010924B0110924C010E94D9069B01AC015E
:102BD00088279927DC01821B930BA40BB50B8093EC
:102BE000450490934604A0934704B09348046BCFE8
:102BF000C0FFB8CF8091E2008E7E80618093E200BA
:102C00008091E1008E7E8093E1008091D6038E7EDC
:102C10008160A6CF1F920F920FB60F921124CF9210
:102C2000DF92EF92FF920F931F932F933F934F9357
:102C30005F936F937F938F939F93AF93BF93EF9324
:102C4000FF93CF93DF93CDB7DEB76C97DEBFCDBFD9
:102C50001092E9008091E80083FF25C068E0CE0172
:102C600045960E941C0A82EF8093E8008D8987FFB9
:102C700039C09091E80090FFFCCF982F907609F032
:102C80007CC19E894F89588D2F89F88C911131C054
:102C9000803861F58091D7038093F1001092F100A4
:102CA0008EEF8093E8006C960FB6F894DEBF0FBEEF
:102CB000CDBFDF91CF91FF91EF91BF91AF919F91E8
:102CC0008F917F916F915F914F913F912F911F91C4
:102CD0000F91FF90EF90DF90CF900F900FBE0F906D
:102CE0001F9018959EEF9093E800C7CF1092F100C7
:102CF000D5CF913059F48111D3CF4130510581F6B0
:102D00008091D7038D7F8093D703CACF933049F446
:102D10008111C6CF4130510519F68091D7038260E9
:102D2000F2CF953041F48091E80080FFFCCF20681D
:102D30002093E300B5CF963009F0A9C00B8D1C8D10
:102D400022E01092E9001092D3031092D203F21203
:102D50002EC01092D1031092D0030E947A0B1F82D2
:102D600099E09983FA8291E09E8390EA98879AEF9E
:102D700099872091D2033091D303275F3F4F3C8343
:102D80002B838D831092E9001092D3031092D2030B
:102D90001093D1030093D00349E050E0BE016F5F70
:102DA0007F4F80E00E940A090E947A0B79CF10932E
:102DB000D1030093D0030E945C0ADC0112960D91AE
:102DC0001C910115110509F491C1D801ED91FC91F7
:102DD0000480F581E02DBE016B5E7F4FC80109952F
:102DE000009709F07EC1F80100851185EACFF3E074
:102DF000FF120EC08F89882309F440C0823061F42D
:102E000040E860E187ED90E00E94D708811148CF4B
:102E100081E28093EB0047CF813029F440E86BE0FA
:102E20008BEC90E0F1CF833099F70E945C0ADC01D3
:102E30001296ED90FC908E010F5F1F4F6801E11418
:102E4000F10479F0D701ED91FC910680F781E02D36
:102E5000B801C7010995080F111DF701E084F1843D
:102E6000EECFD8011C92F60101900020E9F73197CE
:102E7000BF016C197D0940E0C601C6CFE7ECF0E068
:102E8000449150E0BF0180E80E940A0909CF9730C1
:102E900009F4BECF983021F481E08093F10000CF97
:102EA000993009F0FDCE837009F0B2CF80915904BA
:102EB0008823A1F10E94D9066093490470934A04C3
:102EC00080934B0490934C04809131049091320490
:102ED000A0913304B09134040196A11DB11D8093DB
:102EE000310490933204A0933304B0933404E1E7A7
:102EF000F1E081E031E096E321912223A9F1809372
:102F0000E9003093EB00DF0111972C912093EC0046
:102F10009093ED008F5F873079F726C00E94D90625
:102F20009B01AC0188279927DC01821B930BA40B22
:102F3000B50B8093490490934A04A0934B04B0933B
:102F40004C048091310490913204A0913304B091EB
:102F500034040196A11DB11D809331049093320475
:102F6000A0933304B09334048EE78093EA00109268
:102F7000EA008F898093F70493CE8B8D9C8D1092FD
:102F8000E9001092D3031092D2039093D10380935F
:102F9000D003898D81118AC08E899D89913A41F42F
:102FA000813209F035CF47E050E068E571E0A5C017
:102FB000913209F02DCF833269F48F89988DB0E07A
:102FC000A0E08093420190934301A0934401B09309
:102FD000450166CE803239F467E070E088E591E023
:102FE0000E94290A5DCE823209F05ACE8F898093E1
:102FF0005F01EEEFFFE785919491E0E0F8E08B3F11
:103000009C4D11F4EEEFFAE0809158019091590136
:10301000A0915A01B0915B01803B9440A105B1059C
:10302000D9F480915F0180FD17C0EE3F5AE0F507AB
:1030300071F587E797E791838083809160008093A3
:10304000D40388E19BE00FB6F894A89580936000C4
:103050000FBE9093600024CE80819181873797477F
:1030600009F01ECEA8958091600088618093600071
:103070008091D40380936000EE3F2AE0F20789F04C
:103080008091FE0A9091FF0A9183808309CE80810E
:1030900091818737980769F29093FF0A8093FE0A1F
:1030A000C8CF1092FF0A1092FE0AFACD0E945C0A65
:1030B000DC0112960D911C910115110509F4A8CEA1
:1030C000D801ED91FC910190F081E02DBE016B5E85
:1030D0007F4FC80109958111E3CDF8010085118565
:1030E000EBCF181619060CF4DBCD92CEF1E0FF12EF
:1030F0007ECE42E150E066E471E080E0C5CE109201
:10310000FC041092FB0488EE93E0A0E0B0E0809312
:10311000FD049093FE04A093FF04B093000584E99E
:1031200091E09093FA048093F9048DEC90E09093F1
:103130000605809305058CEC90E09093080580933C
:10314000070588EC90E090930A058093090589ECC7
:1031500090E090930C0580930B058AEC90E090939F
:103160000E0580930D058EEC90E0909310058093F2
:103170000F0510921205109213051092140510926B
:10318000150588EB91E09093970580939605109232
:1031900098051092990510929A0510929B0582E06D
:1031A0008093AA0581E08093AB0593E09093AC05F2
:1031B0009091A205911112C010929D0510929C054C
:1031C0002CEB38E030939F0520939E0520E931E0F9
:1031D0003093A1052093A0058093A2050E94700A58
:1031E000FC01A485B585109709F04CC08CE995E0E9
:1031F00095878487868597852091A0053091A105C4
:10320000820F931F978786871092CE051092CD0567
:1032100088EE93E0A0E0B0E08093CF059093D005D6
:10322000A093D105B093D20586EA91E09093CC05A6
:103230008093CB058FEF9FEF9093D8058093D705B0
:1032400088EB91E090931E0680931D0610921F0656
:103250001092200610922106109222068BEC95E027
:1032600090931C0680931B061092CA051092C90504
:103270001092C0051092BF051092B6051092B505C8
:103280000895DC018D919C9111970097D1F78CE9FD
:1032900095E08D939C93AECFCF93DF93CDB7DEB700
:1032A000A2970FB6F894DEBF0FBECDBFF89462E0D0
:1032B00082E00E94460682E00E94EF05892B19F405
:1032C00081E0809359040E94D9066093550470935D
:1032D0005604809357049093580480913D04909134
:1032E0003E04A0913F04B09140040196A11DB11D80
:1032F00080933D0490933E04A0933F04B093400418
:103300007894789484B5826084BD84B5816084BDEE
:1033100085B5826085BD85B5816085BD80916E0073
:10332000816080936E0010928100809181008260A4
:1033300080938100809181008160809381008091E1
:1033400080008160809380008091910082608093F2
:103350009100809191008160809391008091900014
:103360008160809390008091C10084608093C1004F
:103370008091C10082608093C1008091C100816012
:103380008093C1008091C30081608093C3008091CD
:10339000C00082608093C0008091C20081608093F1
:1033A000C20080917A00846080937A0080917A00D4
:1033B000826080937A0080917A00816080937A00A5
:1033C00080917A00806880937A001092F7041092BE
:1033D000D7031092D6038091D70081608093D700E5
:1033E00080EA8093D80089B5806189BD89B5826003
:1033F00089BD09B400FEFDCF61E070E080E090E09F
:103400000E94A7068091D8008F7C80618093D800AD
:103410008091E000807F8093E0008091E1008E7ECB
:103420008093E1008DE08093E200559A209A8FEF1F
:103430009FEF9093D8058093D70568E873E180E00B
:1034400090E00E94A70668ED71E08BEC95E00E9489
:10345000E5068FB7F8944091580150915901609159
:103460005A0170915B018FBF2AE030E08BEC95E050
:103470000E94120D65ED71E08BEC95E00E94E5066F
:1034800060915E014AE050E08BEC95E00E941A0DDD
:1034900062ED71E08BEC95E00E94E50660915D01C4
:1034A0004AE050E08BEC95E00E941A0D6FEC71E061
:1034B0008BEC95E00E94E50660915C014AE050E0EB
:1034C0008BEC95E00E941A0D8BEC95E00E94670D45
:1034D000E0910905F0910A0582E08083E0910505FD
:1034E000F09106051082E0910705F091080580E152
:1034F000808310921105E0910D05F0910E0586E094
:103500008083E0910B05F0910C05808180618083C0
:10351000E0910B05F0910C05808188608083E0913B
:103520000B05F0910C05808180688083E0910B058C
:10353000F0910C0580818F7D808368EE73E080E0E0
:1035400090E00E94A70680916701882321F08BEC10
:1035500095E00E94670D80916701882331F067EB49
:1035600071E08BEC95E00E94C60D80916701882385
:1035700031F06FE571E08BEC95E00E94C60D809113
:103580006701882331F06DEB71E08BEC95E00E94D0
:10359000990D80916701882331F061EE71E08BEC29
:1035A00095E00E94990D6FEE71E089EF94E00E9422
:1035B0002A0E6091590470E089EF94E00E946B0D2F
:1035C00013E0E12E14E0F12E10E000E0C8010E94AB
:1035D0006828D7018D937D010F5F1F4F06321105BB
:1035E000A9F7809103048A3A09F03FC2809104044C
:1035F000853509F03AC280912704909128048130E2
:10360000954A09F032C28091260481708093670147
:10361000882331F062E471E08BEC95E00E94C60DE6
:103620000E94700A0E94700A21E030E04AEA55E0E8
:1036300061E070E00E946B120E94700A21E030E0AD
:103640004CEA55E062E070E00E946B120E94700A42
:1036500021E030E04BEA55E063E070E00E946B123D
:103660000E94700A27EF30E0FC01318F208F0E940A
:10367000700A2BEC35E0DC0157963C932E9356975D
:1036800062E084E00E94460660E087E10E94460610
:1036900061E08DE00E94180680910104909102047F
:1036A00085609160909302048093010442E050E0B1
:1036B00061E074E087E090E00E94C51242E050E0D3
:1036C0006BE671E08DE090E00E94C51242E050E0B0
:1036D00065E074E08AE190E00E94C51242E050E0AB
:1036E00067E074E08CE190E00E94C51242E050E097
:1036F00069E074E088E090E00E94C51242E050E08A
:1037000065E671E083E190E00E94C51242E050E07E
:1037100068E671E082E190E00E94C51241E050E06D
:1037200064E671E086E090E00E94C51241E050E05E
:1037300063E671E086E190E00E94C51242E050E04D
:1037400062E871E08AE090E00E94C51242E050E039
:1037500061E671E08BE090E00E94C51242EF50E01C
:1037600061E871E08FE10E94DB1248EE50E060E812
:1037700071E080E20E94DB1241E050E060E671E01F
:1037800084E190E00E94C51241E050E06FE771E0F3
:1037900087E190E00E94C51241E050E06AE671E0E6
:1037A0008EE090E00E94C51241E050E06DE671E0CD
:1037B0008CE090E00E94C51241E050E06FE074E0C0
:1037C0008FE090E00E94C51241E050E060E174E0BB
:1037D00081E190E00E94C51241E050E06EE771E0A7
:1037E00080E190E00E94C51241E050E06DE771E099
:1037F00088E190E00E94C51280910B0490910C0426
:1038000090936F0180936E0141E050E06DE671E0AE
:103810008CE090E00E94480B42E050E061E074E0F0
:1038200087E090E00E94480B9093F9038093F8039F
:1038300080916701882309F45DC060910104709153
:10384000020440E1CE0101960E94F30F4AE060912C
:103850006D01CE0143960E941F101A8E198E1C8E88
:103860001B8E1E8E1D8E6DE270E0CE0149960E9469
:10387000530F811107C1CE0149960E947B0FBE01F3
:103880006D5E7F4FCE0149960E94B80F8C01FC01FE
:10389000E480F580F1E1EF0EF11CB7010E94530FB7
:1038A000882309F4FAC0D8012D913C911197149600
:1038B0008D919C916CE272E0820F931F0E94472CC5
:1038C000F801F582E482BE016F5F7F4FC8010E945C
:1038D000B80FBC018BEC95E00E94AB0DCE01499670
:1038E0000E94EB0FCE0143960E94EB0FCE01019692
:1038F0000E94EB0F1092CA050E94D9066093C10581
:103900007093C2058093C3059093C4058AE090E04C
:10391000A0E0B0E08093C5059093C605A093C705CD
:10392000B093C80581E08093C905BCE36B2E712C70
:10393000BB24B394ACE35A2E8BEC95E00E94740C3C
:10394000892B09F47CC48BEC95E00E94320C8C012D
:1039500080916701882329F0602F8BEC95E00E940D
:103960000C0CE091F804EE3108F064C40D30110540
:1039700099F00A30110581F00F3E110569F0C80178
:103980008B7F8B3B910541F081E08E0F8093F80493
:10399000F0E0E852FC4F0083E091F804F0E0E852D8
:1039A000FC4F108280916701882331F064E977E051
:1039B0008BEC95E00E94E50680916701882331F049
:1039C00068ED73E08BEC95E00E942A0E8091670110
:1039D000882331F062E977E08BEC95E00E94C60D18
:1039E0008091F804882309F495C01A8F098F8BEC15
:1039F00095E090931C0680931B060D30110521F075
:103A00000A30110509F098CF8091D803082E000CD8
:103A1000990B0E94362C883409F405C20CF086C03C
:103A2000833409F49AC1ECF58F3309F4FCC1823474
:103A300009F40AC166ED76E08BEC95E00E94E5069C
:103A400068ED73E08BEC95E00E942A0E65E473E06C
:103A50008BEC95E00E94990D68E473E08BEC95E0A7
:103A60000E94990D1092D8034FC08091670188235E
:103A700031F06DEF70E08BEC95E00E94C60D0E9476
:103A8000D80DCECD8DE290E09E8F8D8F6EEF71E0E0
:103A9000898D9A8D0E94472CF2CEC8010E947B0F1F
:103AA00012CF843409F4ABC3853421F68091D90355
:103AB000082E000C990B0E94362C8E3409F0B7C0EA
:103AC0000D30110519F00A301105F1F48AED93E07B
:103AD0000E94CE268C01029708F458C066EC76E06E
:103AE0008BEC95E00E94E5066EE372E080911B0688
:103AF00090911C060E942A0E66EA76E080911B06D1
:103B000090911C060E94C60D1092F8048091F80452
:103B1000811112CF80916701882309F40DCF64E5EC
:103B200073E08BEC95E00E942A0E06CF833509F4F2
:103B3000BDC29CF48E3409F47AC3813509F07ACF82
:103B400069EE76E08BEC95E00E94E50670E060E0BF
:103B50008BEC95E00E946B0DD7CF8A3509F4C0C27B
:103B60008E3709F4CBC2843509F064CF8091D90334
:103B7000082E000C990B0E94362C833409F494C053
:103B8000843409F4BEC069EE72E053C066E976E0A1
:103B90008BEC95E00E94E506E0901B06F0901C0679
:103BA000809111041C8A1B8A1E8A1D8A188E1F8A06
:103BB0004AE0BE016F5F7F4F90E00E94FE26BE018B
:103BC0006F5F7F4FCE0143960E948D0FBE016D5EE9
:103BD0007F4FC7010E94AB0DCE0143960E94EB0FB1
:103BE00001700093110461E976E080911B069091C9
:103BF0001C060E94E5066EE372E080911B06909120
:103C00001C060E942A0E67E876E080911B069091C0
:103C10001C060E94E5066091110470E080911B066D
:103C200090911C060E946B0D61E676E067CF6BE514
:103C300072E08BEC95E00E942A0E68ED73E08BEC4D
:103C400095E00E94990D60CF8091D903082E000C59
:103C5000990B0E94362C8534D9F0863441F7912C8B
:103C6000812CA12CECE7CE2EE2E0DE2EFBE0EF2E45
:103C7000F4E0FF2E8E010F5F1F4F20E048E55BE16F
:103C8000BE01675E7F4F89ED93E00E944C103CCFF0
:103C9000912C812CA12C62E9C62E62E0D62E7DE00B
:103CA000E72E74E0F72EE6CF80910504909106048C
:103CB000B3010E948E287A836983912C812CA12CD8
:103CC00052EAC52E52E0D52E9E012F5F3F4F79015B
:103CD0008E010D5E1F4F20E040E45FE1BE01675E94
:103CE0007F4F89ED93E00E944C1029813A81529ECA
:103CF000C001539E900D11249093060480930504F7
:103D000003CF8091070490910804B3010E948E288C
:103D10007A836983912C812CA12C44ECC42E42E03F
:103D2000D42ECE0101967C018E010D5E1F4F20E046
:103D300040E45FE1BE01675E7F4F89ED93E00E9442
:103D40004C1029813A81529EC001539E900D11243E
:103D50009093080480930704D7CE8091D903082E4E
:103D6000000C990B0E94362C883481F18C3409F0B8
:103D70005ECF80911404909115049A838983912CCD
:103D8000812CA12C33E0C32E33E0D32EDE0111961B
:103D90007D018E010D5E1F4F20E040E45FE1BE011A
:103DA000675E7F4F89ED93E00E944C10882309F4F1
:103DB000ABCE89819A8190931504809314040E945C
:103DC000FC0E90931304809312049ECE80911804ED
:103DD000909119049A838983912C812CA12C28E13C
:103DE000C22E23E0D22EFE0131967F018E010D5EA0
:103DF0001F4F20E040E45FE1BE01675E7F4F89ED29
:103E000093E00E944C10882309F47ECE89819A8128
:103E100090931904809318040E94FC0E9093170449
:103E20008093160471CE8091D903082E000C990B53
:103E30000E94362C853409F467CE813509F464CEAE
:103E400063E576E08BEC95E00E94C60D8BEC95E087
:103E50000E94670D6AE376E08BEC95E00E94C60D48
:103E60006DEB71E08BEC95E00E94990D8BEC95E089
:103E70000E94670D68E276E08BEC95E00E94C60D2B
:103E800066EF75E08BEC95E00E94E5066091110409
:103E900070E08BEC95E00E946B0D66EC75E08BECAE
:103EA00095E00E94E5068BEC95E00E94670D64E9C1
:103EB00075E08BEC95E00E94E50660910B04709133
:103EC0000C044AE050E08BEC95E00E94870D62E61E
:103ED00075E08BEC95E00E94E50660910D04709111
:103EE0000E044AE050E08BEC95E00E94870D60E301
:103EF00075E08BEC95E00E94E506809105049091B9
:103F00000604B3010E948E284AE050E08BEC95E055
:103F10000E94870D6EEF74E08BEC95E00E94E50641
:103F20008091070490910804B3010E948E284AE012
:103F300050E08BEC95E00E94870D6CEC74E08BEC0C
:103F400095E00E94E50660911404709115044AE022
:103F500050E08BEC95E00E94140D65EC74E08BEC66
:103F600095E00E94C60D69EA74E08BEC95E00E9432
:103F7000E50660911204709113044AE050E08BEC66
:103F800095E00E94140D67EA74E08BEC95E00E94C6
:103F9000C60D65E774E08BEC95E00E94E506609144
:103FA0001804709119044AE050E08BEC95E00E94EF
:103FB000140D6EE674E08BEC95E00E94C60D61E591
:103FC00074E08BEC95E00E94E50660911604709118
:103FD00017044AE050E08BEC95E00E94140D6FE46A
:103FE00074E08BEC95E00E94C60D61E274E08BEC0E
:103FF00095E00E94C60D60EE73E08BEC95E00E94A8
:10400000C60D63EA73E08BEC95E00E94C60D66E690
:1040100073E08BEC95E00E94C60D6AE273E08BECD6
:1040200095E00E94C60D6DEE72E08BEC95E00E946B
:10403000C60D6FEB72E08BEC95E00E94C60D6DE84B
:1040400072E08BEC95E00E94C60D63E872E08BECA9
:1040500095E00E94C60D6EE572E08BEC95E00E9443
:10406000E50640E150E0609126048BEC95E00E946B
:104070001A0D8BEC95E00E94670D68E472E08BEC02
:1040800095E00E94E50660916E0170916F018BECE6
:1040900095E00E946B0D6EE372E08BEC95E00E9460
:1040A000C60D62E576E08BEC95E02CCD93E0E92E31
:1040B00094E0F92E10E000E0D701DD907D01C80109
:1040C0000E946828D81621F06D2DC8010E94702822
:1040D0000F5F1F4F0632110579F762E777E0E3CFF4
:1040E0000E94D80D6DE177E08BEC95E00E94C60D43
:1040F0008091260481708093670106CD68E272E0AA
:104100008BEC95E00E94E50610E000E0F12CE12C3C
:10411000D12CC8018E0D9F1D0E9468288F3F11F081
:10412000DD24D394BFEFEB1AFB0AE0E1EE16F104B5
:1041300081F70115110519F0DD2009F452C063E281
:1041400072E08BEC95E00E94E50661E272E08BEC98
:1041500095E00E94E5060F3F110509F078F46FE144
:1041600072E08BEC95E00E94E5060031110530F419
:104170006DE172E08BEC95E00E94E50640E150E0D5
:10418000B8018BEC95E00E94140D6BE172E08BECB2
:1041900095E00E94E5066801F12CC6010E9468289E
:1041A000E82EFFE0F81730F069E172E08BEC95E063
:1041B0000E94E50640E150E06E2D8BEC95E00E94F8
:1041C0001A0D2FE0F21631F067E172E08BEC95E00A
:1041D0000E94E5063FEFC31AD30AF39480E1F81278
:1041E000DCCF005F1F4F011594E0190709F08ECF57
:1041F00063E072E08BEC95E00E94E50685CC912CA3
:10420000812CAA24A39480E3C82E83E0D82EDE015B
:1042100011967D0106E214E021E04FEF50E0BE016F
:10422000675E7F4F88ED93E00E944C1061CF6DEF89
:1042300076E039CF1092F8041092D80367CC8DEA5B
:1042400095E00E9468081091B6058091B50581112E
:1042500018C088EE93E0A0E0B0E08093B1059093A1
:10426000B205A093B305B093B4050E94D90660933C
:10427000AD057093AE058093AF059093B005B092F5
:10428000B5051092B605112309F403C284E00E941B
:10429000EF058C010E945105C0901404D0901504C4
:1042A000F12CE12C2090120430901304512C412C5D
:1042B000209118043091190450E040E02C193D0978
:1042C0004E095F09BC01990F880B990B621973099C
:1042D000840995090E947E282091160430911704C4
:1042E00050E040E022193309440955090E94C428CE
:1042F000C20ED31EE41EF51ED7FC3DC2D0926F0144
:10430000C0926E0180911104882309F456C2C090B6
:104310000D04D0900E04F12CE12C20916E0130910F
:104320006F01032E000C440B550B2C193D094E094F
:104330005F09A4E6B0E00E94E32820910B043091CD
:104340000C0450E040E02C193D094E095F090E9421
:10435000C428F12C37FD06C02536310514F024E6BB
:1043600030E0F22EF0926D01609107047091080424
:1043700090E080E00E9449271B012C016F2D70E026
:1043800090E080E00E944B279B01AC01C201B1018B
:104390000E94AA2720E030E048EC52E40E94A129C4
:1043A0001B012C0120E030E0A9010E94492A20E0F5
:1043B00030E040E05FE387FDE3C1C201B1010E944C
:1043C00035290E94132A70936C0160936B018091D0
:1043D0000104909102040115110509F4D6C185600C
:1043E000909302048093010480910104909102044F
:1043F00020916A01F212CBC19160909302048093E4
:10440000010480910104909102040115110509F045
:10441000C3C12091090430910A046217730708F0A0
:10442000B8C18262909302048093010480910104D8
:1044300090910204209168013091690112161306CF
:104440000CF0ACC1946090930204809301048091BD
:104450006701882331F06BE573E08BEC95E00E94F7
:10446000990D80910104909102049C012072347096
:10447000232B09F499C1986090930204809301045E
:1044800080916701882331F06EE673E08BEC95E054
:104490000E94990D8091010490910204886090938C
:1044A0000204809301042091FF03309100048217DD
:1044B0009307B9F490916D018091FE03981311C098
:1044C00020916B0130916C018091FC039091FD0370
:1044D0002817390731F48091FA039091FB034B9729
:1044E000F4F141E050E06DE671E08CE090E00E9474
:1044F000480B012B41F442E050E06BE671E08DE0A7
:1045000090E00E94480B42E050E061E074E087E0F8
:1045100090E00E94480B9093F9038093F803109267
:10452000FB031092FA0320910104309102043093AE
:1045300000042093FF0320916D012093FE0320913E
:104540006B0130916C013093FD032093FC0397FDC8
:1045500031C181E090E09093F7038093F60380915E
:104560001104882309F473C080916701882331F016
:1045700060E272E08BEC95E00E942A0E8091670168
:10458000882341F04AE050E060916D018BEC95E0AA
:104590000E941A0D80916701882331F060E873E072
:1045A0008BEC95E00E942A0E80916701882369F0C8
:1045B00080916B0190916C01B3010E948E284AE0BA
:1045C00050E08BEC95E00E94140D809167018823E8
:1045D00031F062E973E08BEC95E00E942A0E809145
:1045E0006701882371F080916B0190916C01B30198
:1045F0000E948E284AE050E0BC018BEC95E00E94BE
:10460000140D80916701882331F064E973E08BEC2D
:1046100095E00E942A0E80916701882371F04091F5
:10462000F8035091F903052E000C660B770B77FF0A
:10463000C9C08BEC95E00E94E90C8091670188234A
:1046400031F064EB73E08BEC95E00E942A0EB0929F
:10465000670167EB73E08BEC95E00E942A0E809176
:104660006701882341F060916E0170916F018BECBE
:1046700095E00E946B0D67EB73E08BEC95E00E9478
:104680002A0E60916E0170916F018BEC95E00E9493
:104690006B0D8091F6039091F7038130910509F439
:1046A00097C008F4A7C0029709F49BC081EC95E07D
:1046B0000E9468088091CA0581111092C905109264
:1046C000CA058823F9F01092C0050E94D9066093AC
:1046D000B7057093B8058093B9059093BA052F8DEF
:1046E00038A1C901B0E0A0E08093BB059093BC0560
:1046F000A093BD05B093BE05B092BF0560E08DE00C
:104700000E94180687EB95E00E9468088091C0051A
:1047100081111092BF051092C0058823F9F0109204
:10472000CA050E94D9066093C1057093C2058093A3
:10473000C3059093C405E9A1FAA1CF01B0E0A0E0C0
:104740008093C5059093C605A093C705B093C8058F
:10475000B092C90561E08DE00E94180680E090E00B
:10476000892B09F4E7C80E947307882309F4E0C87D
:104770000E940000DDC810926F0110926E01C2CD40
:10478000C201B1010E9434291CCE8A7F29CE9E7FAE
:1047900034CE8F7D826046CE8D7D44CE9B7F9093BC
:1047A0000204809301045DCE977F9093020480936E
:1047B000010470CE82E090E0CECE1092F70310920A
:1047C000F603CDCE2AE08BEC95E00E949D0C35CF10
:1047D000A4E6B0E0B8A3AF8FE4E8F3E0FAA3E9A35E
:1047E00065CF24E833E038A32F8F84E690E09AA3C6
:1047F00089A35CCFA4EFB1E0B8A3AF8FE4EFF1E001
:10480000EDCFCF93DF93DC012D91FB013191EC01D2
:104810003883EB01288341505109CD01BF011416A3
:1048200015068CF3DF91CF910895B0E0A0E0EBE1A5
:10483000F4E20C94F8286C01D62FC72F8A01790175
:10484000F9010995B80197FF15C08D2F9C2FF7012D
:10485000099597FD08C0B801C601F701099597FDB4
:1048600016C0DC2DCD2D8D2F9C2FCDB7DEB7E8E007
:104870000C9414298D2F9C2FF701099518161906F1
:1048800094F3B801C601F701099597FDEACFD02F3F
:10489000C12FE9CFA8E0B0E0E0E5F4E20C94EE2807
:1048A0008C0158874F8359019A013195219531091F
:1048B0003E832D836F807884600E711E6730710592
:1048C00078F58F819885689F6001699FD00C789FEB
:1048D000D00C1124C00ED11E6C147D0420F028963B
:1048E000E2E10C940A29730113C047012F81388536
:1048F000821A930AB701C401F50109951816190621
:1049000054F44F815885B401C7010E9401247401F9
:104910000E151F0550F3EF81F8856E0E7F1EDCCF5C
:10492000CB01969587952F813885829F6001839F63
:10493000D00C929FD00C1124C00ED11ECB01019738
:10494000829F1001839F300C929F300C11247801BC
:10495000E20CF31C6730710509F442C0C70128015D
:1049600069327105B0F183E0769567958A95E1F734
:10497000629F4001639F900C729F900C1124C401B0
:10498000880F991F9A838983AC01400F511FB8018A
:10499000680D791D9501C8010E9415242C01A601FE
:1049A000480D591D9194819491089501B601C60155
:1049B000880D991D0E9415246C01B701680D791DA1
:1049C0009501A701C701E981FA818E1B9F0B0E9407
:1049D00015249501AC01B601C2010E9415246C0199
:1049E0004F815885B601C8010E940124430163012B
:1049F00027011A821982EC14FD0408F446C0B8019C
:104A0000C601F50109951816190654F1892B71F4A0
:104A10004F815885B601C3010E9401242F8138853A
:104A2000620E731E81E090E09A838983EF81F8859E
:104A3000CE0EDF1EE0CF892B71F44F815885B20175
:104A4000C7010E9401242D813E81420E531E81E048
:104A500090E09A838983EB80FC80EC14FD04A8F03D
:104A6000B801C701F50109952D813E812E0D3F1D2D
:104A70003C832B8397FFDFCF4F815885B701C60159
:104A80000E940124EB80FC80CDCFEF81F8852E0EB3
:104A90003F1E200E311E29813A81232B09F58214F5
:104AA000930408F01CCF740113C06701EF81F885EF
:104AB000CE1ADF0AB701C601F501099518161906C5
:104AC00054F44F815885B601C7010E940124760134
:104AD0000E151F0550F38F819885880E991EDFCF24
:104AE000460186189708A301401B510B84169506B2
:104AF0000CF4A4011416150634F4B601641B750BEE
:104B0000C8010E94012492012E193F097901A101D7
:104B1000441955098F819885481B590B241735076F
:104B200008F4A9011416150634F4B101641B750BC1
:104B3000C6010E940124EF81F885E815F90548F4C3
:104B4000C401BF010E948E289501AF01C8010E94D7
:104B50004A242F8138852E153F0508F0C0CE8101EB
:104B60000E191F09C701B9010E948E28A3CEB0E01B
:104B7000A0E0EDEBF5E20C94EF285C016B017A010B
:104B80006115710519F0FB0191838083E114F10433
:104B900051F0C7010297839730F040E030E020E009
:104BA00090E072C05E01E5012196F5011081812F30
:104BB00090E00E94EC26892BA9F71D3201F5219681
:104BC000F501118101E0E114F10409F4DAC0F0E12A
:104BD000EF16F10409F082C0103359F488818F7DFB
:104BE000883509F076C0198122960260F0E1EF2E37
:104BF000F12C812C912CA12C88E0B82E8CC01B327A
:104C000021F4E5012296F501118100E0DCCFEAE014
:104C1000EE16F10409F4BBC0F0E1EF16F10409F05F
:104C20006DC0E7CF78E0E72EF12C812C912CA12CE0
:104C300060E1B62E70C03FE9310F3A3128F439EA0D
:104C4000332E80C021E09AC0302F3170C114D104BE
:104C500031F0222309F12197F601D183C08327FF88
:104C600021C060E070E080E090E8311104C06FEF97
:104C70007FEF8FEF9FE722E230E03093240620930E
:104C80002306462F372F282F642F732F822FCDB75F
:104C9000DEB7E1E10C940B2901FF04C02297F60175
:104CA000D183C083332341F09095809570956195B1
:104CB0007F4F8F4F9F4FE5CF97FFE3CF82E290E08A
:104CC00090932406809323066FEF7FEF8FEF9FE78B
:104CD000D8CF10E3E114F10409F4A4CF28E0E216E0
:104CE000F10409F4A2CF0CF092CF812C912CA12CCD
:104CF000E0E4BE2E82E0E816F10469F060E070E0C6
:104D000080E090E897010F2C000C440B550B0E949B
:104D1000A22849015A0120E060E070E0CB012701A0
:104D20000F2C000C66087708FE0150ED352E310E71
:104D300039E0331540F43FEB310F3A3108F07BCFC7
:104D400049EC342E310E3E141F040CF07DCF27FDAC
:104D500015C086169706A806B90678F0A301920139
:104D60000E947E28630D711D811D911D61307105AA
:104D7000810520E8920708F465CF2FEF2196108176
:104D8000D3CF103309F42ACF2AE0E22EF12C9CEC89
:104D9000892E982CA82C9CE0B92EBDCFFC01882729
:104DA0009927E89421912032E9F3293010F02E3030
:104DB000C8F32B3241F02D3239F4689404C00E94BC
:104DC0000927820F911D219120532A30C0F31EF430
:104DD000909581959F4F089591110C9436278032BC
:104DE00019F089508550C8F70895FC0105900020FE
:104DF000E9F7809590958E0F9F1F0895BB274A3045
:104E000031F4992322F4BDE2909581959F4F0C9443
:104E10001D277AE0979F902D879F802D910D11245B
:104E200008954532510520F4423010F00C941C27AF
:104E3000FB011082CB010895BB27FB015527AA2750
:104E4000880F991FAA1FA41710F0A41B8395505117
:104E5000B9F7A05DAA3308F0A95DA193009779F78F
:104E6000B111B1931192CB010C943927992788275E
:104E70000895DC01FC01672F71917723E1F73297E8
:104E800004C07C916D9370836291AE17BF07C8F325
:104E90000895E89409C097FB3EF49095809570952D
:104EA00061957F4F8F4F9F4F9923A9F0F92F96E976
:104EB000BB279395F695879577956795B795F111EB
:104EC000F8CFFAF4BB0F11F460FF1BC06F5F7F4F88
:104ED0008F4F9F4F16C0882311F096E911C077239A
:104EE00021F09EE8872F762F05C0662371F096E8A3
:104EF000862F70E060E02AF09A95660F771F881F72
:104F0000DAF7880F9695879597F90895990F000815
:104F1000550FAA0BE0E8FEEF16161706E807F9078B
:104F2000C0F012161306E407F50798F0621B730B26
:104F3000840B950B39F40A2661F0232B242B252BA7
:104F400021F408950A2609F4A140A6958FEF811D4A
:104F5000811D08950E94BD270C942E280E942028B0
:104F600038F00E94272820F0952311F00C94172880
:104F70000C941D2811240C9462280E943F2870F381
:104F8000959FC1F3950F50E0551F629FF001729FEE
:104F9000BB27F00DB11D639FAA27F00DB11DAA1FFD
:104FA000649F6627B00DA11D661F829F2227B00D4A
:104FB000A11D621F739FB00DA11D621F839FA00DD5
:104FC000611D221F749F3327A00D611D231F849F25
:104FD000600D211D822F762F6A2F11249F5750407C
:104FE0009AF0F1F088234AF0EE0FFF1FBB1F661FF7
:104FF000771F881F91505040A9F79E3F510580F0C0
:105000000C9417280C9462285F3FE4F3983ED4F385
:10501000869577956795B795F795E7959F5FC1F763
:10502000FE2B880F911D9695879597F9089597F90E
:105030009F6780E870E060E008959FEF80EC08953E
:1050400000240A9416161706180609060895002467
:105050000A9412161306140605060895092E0394E1
:10506000000C11F4882352F0BB0F40F4BF2B11F455
:1050700060FF04C06F5F7F4F8F4F9F4F089557FDB4
:105080009058440F551F59F05F3F71F04795880FB6
:1050900097FB991F61F09F3F79F08795089512164D
:1050A00013061406551FF2CF4695F1DF08C01616F9
:1050B00017061806991FF1CF8695710561050894AA
:1050C0000895E894BB2766277727CB0197F90895C1
:1050D000F999FECF92BD81BDF89A992780B50895C0
:1050E000262FF999FECF1FBA92BD81BD20BD0FB604
:1050F000F894FA9AF99A0FBE01960895DB018F93FE
:105100009F930E94E328BF91AF91A29F800D911DB4
:10511000A39F900DB29F900D11240895AA1BBB1B55
:1051200051E107C0AA1FBB1FA617B70710F0A61BA7
:10513000B70B881F991F5A95A9F780959095BC01C8
:10514000CD010895A1E21A2EAA1BBB1BFD010DC0C3
:10515000AA1FBB1FEE1FFF1FA217B307E407F50727
:1051600020F0A21BB30BE40BF50B661F771F881F03
:10517000991F1A9469F760957095809590959B0199
:10518000AC01BD01CF010895052E97FB1EF40094DC
:105190000E94DB2857FD07D00E94A22807FC03D0FD
:1051A0004EF40C94DB2850954095309521953F4F57
:1051B0004F4F5F4F089590958095709561957F4F03
:1051C0008F4F9F4F08950E942529A59F900DB49F52
:1051D000900DA49F800D911D112408952F923F9250
:1051E0004F925F926F927F928F929F92AF92BF92F7
:1051F000CF92DF92EF92FF920F931F93CF93DF93A3
:10520000CDB7DEB7CA1BDB0B0FB6F894DEBF0FBEFF
:10521000CDBF09942A88398848885F846E847D844C
:105220008C849B84AA84B984C884DF80EE80FD804E
:105230000C811B81AA81B981CE0FD11D0FB6F894C4
:10524000DEBF0FBECDBFED010895A29FB001B39F99
:10525000C001A39F700D811D1124911DB29F700D7F
:10526000811D1124911D08955058BB27AA270E9423
:105270004C290C942E280E94202838F00E942728C0
:1052800020F039F49F3F19F426F40C941D280EF4F5
:10529000E095E7FB0C941728E92F0E943F2858F36C
:1052A000BA17620773078407950720F079F4A6F50B
:1052B0000C9461280EF4E0950B2EBA2FA02D0B0153
:1052C000B90190010C01CA01A0011124FF27591B4B
:1052D00099F0593F50F4503E68F11A16F040A22F51
:1052E000232F342F4427585FF3CF469537952795C2
:1052F000A795F0405395C9F77EF41F16BA0B620BC1
:10530000730B840BBAF09150A1F0FF0FBB1F661F07
:10531000771F881FC2F70EC0BA0F621F731F841F4A
:1053200048F4879577956795B795F7959E3F08F070
:10533000B0CF9395880F08F09927EE0F9795879532
:1053400008950E94B5290C942E280E94272858F011
:105350000E94202840F029F45F3F29F00C94172880
:1053600051110C9462280C941D280E943F2868F368
:105370009923B1F3552391F3951B550BBB27AA270E
:1053800062177307840738F09F5F5F4F220F331F48
:10539000441FAA1FA9F335D00E2E3AF0E0E832D010
:1053A00091505040E695001CCAF72BD0FE2F29D013
:1053B000660F771F881FBB1F261737074807AB07E5
:1053C000B0E809F0BB0B802DBF01FF2793585F4F5A
:1053D0003AF09E3F510578F00C9417280C946228FF
:1053E0005F3FE4F3983ED4F3869577956795B7953C
:1053F000F7959F5FC9F7880F911D9695879597F947
:105400000895E1E0660F771F881FBB1F62177307BF
:105410008407BA0720F0621B730B840BBA0BEE1FD4
:1054200088F7E09508950E941A2A6894B1110C94A7
:10543000622808950E94472888F09F5798F0B92F56
:105440009927B751B0F0E1F0660F771F881F991FB9
:105450001AF0BA95C9F714C0B13091F00E946128D2
:10546000B1E008950C946128672F782F8827B85FE2
:1054700039F0B93FCCF3869577956795B395D9F711
:105480003EF490958095709561957F4F8F4F9F4F1B
:1054900008950E94862708F48FEF0895EE0FFF1FEE
:1054A0000590F491E02D09940F931F93CF93DF9310
:1054B0008230910510F482E090E0E0912706F091AF
:1054C000280630E020E0B0E0A0E0309799F4211504
:1054D000310509F44AC0281B390B24303105D8F5B1
:1054E0008A819B816115710589F1FB019383828318
:1054F000FE0111C040815181028113814817590773
:10550000E0F04817590799F4109761F012960C9340
:10551000129713961C933296CF01DF91CF911F9172
:105520000F9108950093270610932806F4CF2115B4
:10553000310551F04217530738F0A901DB019A01F8
:10554000BD01DF01F801C1CFEF01F9CF909328062B
:1055500080932706CDCFFE01E20FF31F8193919335
:105560002250310939832883D7CF209125063091E5
:105570002606232B41F42091790130917A01309352
:105580002606209325062091770130917801211578
:10559000310541F42DB73EB740917B0150917C011C
:1055A000241B350BE0912506F0912606E217F30740
:1055B000A0F42E1B3F0B2817390778F0AC014E5F83
:1055C0005F4F2417350748F04E0F5F1F5093260694
:1055D00040932506819391939FCFF0E0E0E09CCF2C
:1055E000CF93DF930097E9F0FC0132971382128288
:1055F000A0912706B0912806ED0130E020E0109739
:10560000A1F420813181820F931F209125063091D2
:1056100026062817390709F061C0F0932606E093A3
:105620002506DF91CF910895EA01CE17DF07E8F54F
:105630004A815B819E0141155105B1F7E901FB8368
:10564000EA8349915991C40FD51FEC17FD0761F406
:10565000808191810296840F951FE9019983888347
:10566000828193819B838A83F0E0E0E012968D91A2
:105670009C9113970097B9F52D913C911197CD010D
:105680000296820F931F2091250630912606281737
:10569000390739F6309751F51092280610922706EF
:1056A000B0932606A0932506BCCFD383C283408146
:1056B0005181840F951FC817D90761F44E5F5F4F62
:1056C00088819981480F591F518340838A819B812A
:1056D000938382832115310509F0B0CFF09328061A
:1056E000E09327069ECFFD01DC01C0CF138212821A
:1056F000D7CFB0E0A0E0EFE7FBE20C94F0288C01FC
:10570000009751F4CB010E94542A8C01C801CDB7F7
:10571000DEB7E0E10C940C29FC01E60FF71F9C01B9
:1057200022503109E217F30708F49DC0D901CD9149
:10573000DC911197C617D70798F0C530D10530F323
:10574000CE0104978617970708F3C61BD70B22973D
:10575000C193D1936D937C93CF010E94F02AD6CF51
:105760005B01AC1ABD0A4C018C0E9D1EA091270650
:10577000B0912806512C412CF12CE12C109731F5D9
:1057800080912506909126068815990509F05CC040
:105790004616570608F058C080917701909178011D
:1057A000009741F48DB79EB740917B0150917C01E9
:1057B000841B950BE817F90708F055C0F0932606EF
:1057C000E0932506F90171836083A0CF8D919C91B0
:1057D000119712966C90129713967C901397A815B8
:1057E000B90559F56C0142E0C40ED11CCA14DB04A2
:1057F00020F1AC014A195B09DA011296159780F085
:105800006282738251834083D9016D937C93E1144A
:10581000F10471F0D7011396FC93EE93129776CFB3
:1058200022968C0F9D1FF90191838083F301EFCFA6
:10583000F0932806E093270669CF4816590608F426
:105840002C017D01D3019ACFCB010E94542A7C0107
:10585000009749F0AE01B8010E943E2CC8010E9499
:10586000F02A870153CF10E000E050CF9111089546
:1058700081568A5108F4805285580895FB01DC0155
:1058800002C001900D9241505040D8F70895FB019D
:10589000DC0101900D920020E1F70895F894FFCF0C
:1058A000080B0002020200000904000001020200CD
:1058B000000524001001052401010104240206054D
:1058C00024060001070581031000400904010002BD
:1058D0000A0000000705020240000007058302409D
:1058E0000000FFFFFFFF12010002EF020140412311
:1058F000368000010102030100E100000000000009
:105900000214050201FFFF01FFFF64201C6414055F
:1059100000C18081000000000029068000010164B0
:105920000504640500000000DB113009760E2C0E22
:10593000000000009E0709073607EA0767074507CA
:105940005907000000000C0CF60B2D0C220C740CF7
:10595000320C500C00000000210D0D0A000A436FAC
:105960006D70696C65642061743A204D61722032FB
:105970003720323032342C2031393A33373A31380B
:10598000005374617274696E672E2E2E0A0D0055D5
:1059900053424344434E65656465643A2000536551
:1059A0006E64696E6720696E697469616C20616CF0
:1059B0006C2D676F6F64207265706F72742E206932
:1059C00052656D61696E696E673A20002C205374D0
:1059D0006174757320426974733A20307800456EA3
:1059E00061626C65205043205265706F7274696EFD
:1059F000672F53687574646F776E004552524F522B
:105A00003A204261642042202842617474657279B0
:105A10002920636F6D6D616E643A20004261747479
:105A20006572792046756C6C2043686172676520E9
:105A300056004261747465727920456D70747920E6
:105A400056004D696E7574657320746F2066756CB1
:105A50006C79206368617267652066726F6D20647F
:105A6000656164004D696E7574657320746F20669E
:105A7000756C6C7920646973636861726765206610
:105A8000726F6D2066756C6C004552524F523A2011
:105A90004261642054696D6520636F6D6D616E6451
:105AA0003A2000562A313030206F66206C6F772004
:105AB000766F6C7461676500562A313030206F66EE
:105AC0002068696768657220766F6C74616765002D
:105AD000446562756720466C6167732028313A4DD2
