:100000000C9434080C945C080C945C080C945C0808
:100010000C945C080C945C080C945C080C945C08D0
:100020000C945C080C945C080C94CD1C0C945C1D26
:100030000C94A81B0C945C080C945C080C945C0851
:100040000C945C080C945C080C945C080C945C08A0
:100050000C945C080C945C080C945C080C94061BD3
:100060000C945C080C94761B0C94501B0C945C084C
:100070000C945C080C945C080C945C080C945C0870
:100080000C945C080C945C080C945C080C945C0860
:100090000C94B21B0C945C080C945C080C945C08E7
:1000A0000C945C080C945C080C945C082C20537431
:1000B00061747573203D203078002C2042617456A5
:1000C0003A20002C204261745620496E7465726E8D
:1000D000616C3A20003A00252C20004261747420A3
:1000E00052656D61696E696E67203D2000203D207C
:1000F00043617061636974793A20003A20566F6CED
:1001000074732A3130303A2000506F696E742000C9
:100110000403090441726475696E6F204C4C4300FE
:1001200041726475696E6F204C656F6E6172646FA9
:10013000005553424344434E65656465643A20006C
:100140004D79436F6F6C55505300506241630055B9
:100150005053313000454550524F4D206E6F742042
:10016000696E697427642E20506C65617365206523
:1001700078656375746520536D74557073456D5F54
:10018000466163746F7279496E69742E696E6F008F
:10019000454550524F4D206E6F7420696E6974272B
:1001A000642E20506C656173652065786563757495
:1001B0006520536D74557073456D5F466163746F50
:1001C0007279496E69742E696E6F2E00476F6F6485
:1001D0003A20454550524F4D20697320696E69742D
:1001E00069616C697A65642E005553424344434EFD
:1001F00065656465643A20000D0A24242D454E444B
:1002000020454550524F4D0D0A0D0A002000300088
:1002100020003000300030000D0A2420000D0A2498
:10022000242D454550524F4D20434F4E54454E547A
:10023000533A005A5346202D20536176652046617B
:1002400063746F72792064656661756C74732028BD
:10025000466163746F727920757365206F6E6C7977
:1002600029005A4344202D20526573746F72652013
:10027000636F6D70696C656420666163746F727919
:100280002064656661756C7473005A2020202D20EF
:10029000526573746F726520666163746F72792042
:1002A00064656661756C74730042506E2C6E6E20CE
:1002B0002D20506F696E742328302D33292C202572
:1002C0002063615061636974790042566E2C6E6ED2
:1002D000202D20506F696E742328302D33292C2057
:1002E000566F6C74732A3130300055736572204438
:1002F00069736368617267652043617061636974E3
:10030000792043757276653A0044782020202020B9
:100310002D20446562756720666C616773202869CB
:100320006E2068657861646563696D616C29202061
:100330002020202020203A2030780054526E6E2059
:1003400020202D205265706F727420657665727959
:10035000206E6E207365636F6E64732020202020F2
:1003600020202020202020203A200042596E6E209C
:1003700020202D2064656C74612063656E74692D86
:10038000566F6C7473206265666F7265207265705B
:100390006F7274696E6720203A20002900202020A7
:1003A00020202020202028486967682056204132DC
:1003B000442076616C75653A200043486E6E6E6E1F
:1003C000202D2043616C69627261746520686967E1
:1003D0006820766F6C7461676520706F696E742039
:1003E00028562A313030293A2000290020202020A8
:1003F0002020202020284C6F772056204132442096
:1004000076616C75653A2000434C6E6E6E6E202DE1
:100410002043616C696272617465206C6F7720762D
:100420006F6C7461676520706F696E742028562A3E
:1004300031303029203A200054536E6E6E6E202DDC
:10044000205368757420646F776E2061742074681F
:100450006973206D616E79206D696E7574657320A6
:100460006C656674203A2000424C6E6E2020203D60
:1004700020486F7374206D61792073687574646FA0
:10048000776E206174204C6F7720436170616369DF
:1004900074792025203A200042446E6E6E6E202D25
:1004A000205368757420446F776E206174206261F8
:1004B000747465727920766F6C7461676520285654
:1004C0002A313030293A200042466E6E6E6E202D61
:1004D00020426174746572792046756C6C204368A3
:1004E0006172676520766F6C74616765202028569D
:1004F0002A313030293A200042536E202020202D0E
:10050000204261742053797374656D20566F6C744A
:100510007320313D31325620323D32345620343D45
:1005200034385620203A2000544D6E6E6E6E202DC9
:100530002053797374656D2064657369676E2063F9
:100540006170616369747920696E204D696E75749C
:1005500065732020203A2000202020202020202009
:100560002020202020303D5062416320313D4C69E5
:100570002D496F6E20323D4C465020333D41474D52
:1005800020202020203A200042436E202020202DD1
:100590002042617474657279204368656D69737473
:1005A000727900454E526E2020202D205768696CCC
:1005B0006520696E204E6F726D616C2072756E20C1
:1005C0006D6F646520202020202020202020202006
:1005D0003A2000454E436E2020202D205768696C3C
:1005E0006520696E20436F6E666967206D6F646574
:1005F00020202020202020202020202020202020FB
:100600003A200020202028303D4E6F205043207299
:1006100065706F7274696E672F73687574646F7735
:100620006E2E20313D456E61626C65642900456E19
:1006300061626C65207265706F7274696E672F53AA
:10064000687574646F776E20746F20746F2074689F
:1006500065205043200050726573656E74205365A9
:100660007474696E67733A00436F6D70696C65648A
:100670002061743A2000536D6172742055505320EC
:10068000456D756C61746F722076302E31002320B9
:10069000202D2057446F67205265736574005A55AA
:1006A000202D20526573746F72652055736572201A
:1006B000436F6E666967004843202D2053686F774B
:1006C00020436170616369747920636F6E66696746
:1006D00073004850202D2053686F772048494420EC
:1006E000506172616D6574657273000A2D2D2D2D38
:1006F0004D656E752D2D2D2D000A0D5573657220DB
:100700004469736368617267652043757276653A00
:10071000004368617267652043757276653A004CE4
:100720006F7744697363682043757276653A004851
:1007300069446973636820436170616369747920F7
:10074000437572766520706F696E74733A006C6FD2
:100750005261746544697363684D696E3A2000683C
:10076000695261746544697363684D696E3A20002B
:1007700069734469734368617267696E67563A20AA
:100780000069734368617267696E67566F6C743A8B
:10079000200073687574646F776E566F6C74616750
:1007A0003A20000A0D2062617446756C6C566F6CBD
:1007B000746167653A000A0D42617420547970656E
:1007C0003A20004368656D697374727920436F6ED7
:1007D000666967733A006950726573656E74537425
:1007E000617475732020203A20307800626174565D
:1007F0006F6C74616765202020202020203A200043
:1008000052454D4E43415041434954594C494D493D
:10081000543A200052454D41494E494E47434150BC
:1008200041434954593A200052554E54494D45547C
:100830004F454D5054592020203A20004820666FE3
:10084000722048656C700A005D2E000A556E6B6E52
:100850006F776E20636F6D6D616E64205B00484939
:10086000445F494E544552464143453A2000434473
:10087000435F41434D5F494E544552464143453ADB
:100880002000446562756720466C616773202831DB
:100890003A4D61696E29000A526573746F7265641E
:1008A00020466163746F72792044656661756C746B
:1008B000732E2E2E0D0A204D75737420646F202721
:1008C000532720746F207361766520746F2045452F
:1008D00050524F4D20286E6F6E2D766F6C6174698B
:1008E0006C65206D656D6F7279292E00446F6E65A1
:1008F000000A464620746F20616C6C2045455052BA
:100900004F4D2E2E2E000A5361766564206E65775A
:100910002076616C756528732920746F20466163A9
:10092000746F72792044656661756C740A000A52AE
:100930006573746F726564205573657220436F6EC2
:100940006669670A000A5361766564206E657720E0
:1009500076616C756528732920746F204545505267
:100960004F4D2E0A004552524F523A2042616420A8
:10097000422028426174746572792920636F6D6D1D
:10098000616E643A2000562A313030206F6620684C
:10099000696768657220766F6C7461676500562AB6
:1009A000313030206F66206C6F7720766F6C746109
:1009B0006765004552524F523A20426164205469A3
:1009C0006D6520636F6D6D616E643A2000526570D5
:1009D0006F727420746F20686F737420657665720F
:1009E00079207365636F6E64730053797374656DFA
:1009F000204361706163697479204D696E75746517
:100A0000730053687574646F776E206174204D694C
:100A10006E75746573204C656674004552524F5272
:100A20003A204261642042202842617474657279E0
:100A30002920636F6D6D616E643A20004C6F7720E2
:100A400043617061636974792025204C696D697414
:100A50000042617420562048797374657265736929
:100A600073206265666F7265207265706F7274695B
:100A70006E6700426164204D756C7469706C6965C5
:100A8000722E205374696C6C3A203A2000313D314B
:100A9000325620323D32345620343D3438560042EE
:100AA0006174204368656D69737472793A20303DD2
:100AB0005062416320313D4C692D496F6E20323DBB
:100AC0004C465020333D41474D0053687574646F68
:100AD000776E2061742042617474657279205600CB
:100AE000426174746572792046756C6C204368614C
:100AF0007267652056004552524F523A2042616457
:100B000020454E61626C6520636F6D6D616E643A65
:100B10002000436F6E666967204D6F64653A20451B
:100B20006E61626C65205043205265706F7274690B
:100B30006E672F53687574646F776E0052756E2000
:100B4000284E6F726D616C29204D6F64653A2045A7
:100B50006E61626C65205043205265706F727469DB
:100B60006E672F53687574646F776E000A436D6407
:100B70003A20000A436D643A20005D005D005B008E
:100B80005B006952656D6E43617061636974794C95
:100B9000696D6974204348414E4745442C206E6F6F
:100BA000773A20006952656D6E43617061636974C4
:100BB000794C696D6974204348414E4745442C2067
:100BC0006E6F773A2000202849676E6F726564293E
:100BD0000023232050432053657474696E672052AC
:100BE000454D4E43415041434954594C494D495458
:100BF00020746F20307800202849676E6F7265641A
:100C00002900202849676E6F72656429002323201C
:100C100050432053657474696E672052454D4E43AE
:100C2000415041434954594C494D495420746F2017
:100C300030780023232050432053657474696E6715
:100C40002052454D4E43415041434954594C494D22
:100C5000495420746F20307800426174562A313034
:100C6000303A2000426174562A3130303A20004335
:100C70006F6D6D73207769746820504320286E650E
:100C8000673D626164293A2000436F6D6D73207780
:100C900069746820504320286E65673D626164294D
:100CA0003A200053656E64696E673A200053656EA2
:100CB00064696E673A200000000000240027002AC3
:100CC000002D00300000000000250028002B002E21
:100CD000003100000000002300260029002C002F16
:100CE00000040404040403040502020202040302D3
:100CF00002020206060606060604040202020404B4
:100D0000040802011040804010204080408008020A
:100D1000040180402010020110801020404020007B
:100D200000000200090F0000030401000C00000095
:100D30000000000000000000000000000000207320
:100D4000657420746F3A2000206F6620004D656D39
:100D500062657220002E0A004572726F723A204955
:100D60006E76616C69642076616C756521204D61D9
:100D70007820697320004572726F723A20496E764E
:100D8000616C6964206D656D626572206E756D625F
:100D900065722070726F766964656421204D617898
:100DA000206973200073687574646F776E20696DB5
:100DB0006D696E656E740073687574646F776E200C
:100DC000696D6D696E656E740073687574646F77B4
:100DD0006E207265717565737465640073687574EF
:100DE000646F776E20726571756573746564002C2D
:100DF00020426174563D002C20426174563D0053E0
:100E0000687574646F776E206E6F772120527474EA
:100E100065207365636F6E64733D00536875746419
:100E20006F776E206E6F7721205274746520736522
:100E3000636F6E64733D00070605040100080A0B2A
:100E40000C0D09446F6E277420666F7267657420FD
:100E5000746F2028532961766520746865206E655B
:100E6000772076616C756521003078002073657499
:100E700020746F3A20004E657720003078004F6C68
:100E8000642076616C7565207761733A20002E0AC4
:100E900000222076616C756521204D696E20697392
:100EA00020004572726F723A20496E76616C6964F7
:100EB0002022002E0A002076616C756521204D618C
:100EC0007820697320004572726F723A20496E76FD
:100ED000616C6964200005840904A1010924A10250
:100EE00075089501150026FF00850109FE7902B1FC
:100EF00023850209FF7903B123850309FD7901B137
:100F00002305858506098BB123851F09897904B1DD
:100F1000238520098F7905B1238516092CB12385F6
:100F200010098D266400B1228518098EB123850E23
:100F30000967B18385170983B183850C096681A38D
:100F40000966B1A3850F098CB1A285110929B1A247
:100F500085090985751027FFFF0000B1A3851A09CF
:100F60006A27FFFF00006601105500B1A3851C0928
:100F70006981A30969B1A3850D096881A30968B1D5
:100F8000A38508092A7510276405000016780081DA
:100F900022092AB1A205848512095716008027FF6D
:100FA0007F0000B1A285130955B1A2850A09401539
:100FB0000027FFFF00006721D1F0005505B1238510
:100FC0000B093081A30930B1A38514095A7508159E
:100FD000012503650055008122095AB1A20902A129
:100FE0000285070585094475011500250181A309BE
:100FF00044B1A3094581A30945B1A309D081A3093F
:10100000D0B1A309D181A309D1B1A3094281A30918
:1010100042B1A3094381A20943B1A2094B81A309AB
:101020004BB1A309DB81A309DBB1A3094681A30965
:1010300046B1A3094781A30947B1A3058409688183
:10104000A20968B1A2096981A30969B1A3097381E1
:10105000A30973B1A3096581A30965B1A3950281B1
:1010600001B101C0C0C0D51F11241FBECFEFDAE00F
:10107000DEBFCDBF13E0A0E0B1E0ECEBF6E602C0CE
:1010800005900D92AE30B107D9F726E0AEE0B3E09F
:1010900001C01D92A93AB207E1F718E0C4E3D8E015
:1010A00004C02197FE010E945C31C333D107C9F708
:1010B0000E94BF200C945C330C940000ECE3FEE033
:1010C000E49190917B008E2F880F880F80729F7D16
:1010D000892B80937B00E770E064E0937C00809133
:1010E0007A00806480937A0080917A0086FDFCCF3C
:1010F00080917800909179000895FC018091F0032F
:10110000882311F13FB7F89482E08093E9002091A1
:10111000F200822F90E01816190614F481E090E096
:10112000882339F0289844E64093EF034091F1007A
:101130004083222339F02091F200211103C02BE6D5
:101140002093E8003FBF08958FEF9FEF089583E05D
:101150008093E9008091F200882319F08AE380935C
:10116000E800089581508F3008F047C0E82FF0E084
:10117000E454F74F0C945C31D908DD08CB08D10852
:10118000D508FD08FD08FD08E008E608EA08EE08B5
:10119000F408FD08F808809180008F778093800024
:1011A0000895809180008F7DF9CF80918000877FA6
:1011B000F5CF84B58F7784BD089584B58F7DFBCF3F
:1011C000809190008F778093900008958091900097
:1011D0008F7DF9CF80919000877FF5CF8091C000FF
:1011E0008F778093C00008958091C0008F7DF9CFE4
:1011F0008091C200877F8093C2000895CF93DF93D0
:10120000282F30E0F901E15EF24F8491F901E050BE
:10121000F34FD491F901EF51F34FC491CC23A1F0D6
:1012200081110E94B208EC2FF0E0EE0FFF1FED528B
:10123000F34FA591B491EC91ED2381E090E009F496
:1012400080E0DF91CF91089580E090E0FACF1F9386
:10125000CF93DF93282F30E0F901E15EF24F8491C4
:10126000F901E050F34FD491F901EF51F34FC491DC
:10127000CC23A9F0162F81110E94B208EC2FF0E0C8
:10128000EE0FFF1FEB53F34FA591B4918FB7F89476
:10129000EC91111108C0D095DE23DC938FBFDF9154
:1012A000CF911F910895DE2BF8CFCF93DF9390E07D
:1012B000FC01E050F34F24918F51934FFC01849136
:1012C0008823C9F090E0880F991FFC01E954F34F7F
:1012D000A591B491FC01EB53F34FC591D4916111E9
:1012E0000DC09FB7F8948C91209582238C938881B0
:1012F000282328839FBFDF91CF910895623051F456
:101300009FB7F8943C91822F809583238C93E8813A
:101310002E2BEFCF8FB7F894EC912E2B2C938FBF01
:10132000EACF3FB7F8948091EB039091EC03A09142
:10133000ED03B091EE0326B5A89B05C02F3F19F031
:101340000196A11DB11D3FBFBA2FA92F982F882745
:10135000BC01CD01620F711D811D911D42E0660F20
:10136000771F881F991F4A95D1F708958F929F92F2
:10137000AF92BF92CF92DF92EF92FF924B015C014E
:101380000E9491096B017C010E9491096C197D09F1
:101390008E099F09683E734081059105A8F321E0FD
:1013A000821A9108A108B10888EEC80E83E0D81E01
:1013B000E11CF11C81149104A104B10429F7FF90F0
:1013C000EF90DF90CF90BF90AF909F908F90089557
:1013D0002FB7F8946091E7037091E8038091E903D7
:1013E0009091EA032FBF08954F925F926F927F9280
:1013F0008F929F92AF92BF92CF92DF92EF92FF9225
:10140000209198062223D1F1809197068823D9F163
:1014100089E296E02223A1F120919706E9E2F6E025
:10142000222371F10190F081E02D0680F781E02DFB
:1014300009950E94E8092B013C01C12CD12C7601B1
:10144000812C912C54010E94E809641975098609C0
:1014500097096536710581059105C0F00E945E0807
:10146000092E000CAA0BBB0B880E991EAA1EBB1ED0
:101470008FEFC81AD80AE80AF80AE5CF8CE895E099
:10148000ECE8F5E0CFCF8CE895E0C4CFC114D104EF
:10149000E104F10471F4FF90EF90DF90CF90BF90E2
:1014A000AF909F908F907F906F905F904F900C9433
:1014B0005E08C501B401A70196010E94CA30C901A6
:1014C000FF90EF90DF90CF90BF90AF909F908F9064
:1014D0007F906F905F904F900895EF92FF920F93DF
:1014E0001F93CF93DF938C017B01D0E0C0E0F70125
:1014F000EC0FFD1F6491662361F0D801ED91FC9122
:101500000190F081E02DC8010995892B11F02196F9
:10151000EECFCE01DF91CF911F910F91FF90EF9011
:101520000895AF92BF92CF92DF92EF92FF920F9306
:101530001F93CF93DF936C017B018B01040F151F69
:10154000EB015E01AE18BF08C017D10759F06991D1
:10155000D601ED91FC910190F081E02DC601099535
:10156000892B79F7C501DF91CF911F910F91FF90E2
:10157000EF90DF90CF90BF90AF900895FC01538D16
:10158000448D252F30E0842F90E0821B930B54175D
:1015900010F0CF96089501970895FC01918D828DEA
:1015A000981761F0A28DAE0FBF2FB11D5D968C9183
:1015B000928D9F5F9F73928F90E008958FEF9FEFC2
:1015C0000895FC01918D828D981731F0828DE80F7E
:1015D000F11D858D90E008958FEF9FEF0895FC0138
:1015E000918D228D892F90E0805C9F4F821B910905
:1015F0008F73992708958CE895E00E94EF0A21E007
:10160000892B09F420E0822F0895FC01A48DA80FF6
:10161000B92FB11DA35ABF4F2C91848D90E0019634
:101620008F739927848FA689B7892C93A089B18954
:101630008C9182748C93938D848D981306C002884C
:10164000F389E02D80818F7D80830895EF92FF9252
:101650000F931F93CF93DF93EC0181E0888F9B8DD5
:101660008C8D981319C0E889F989808185FF14C091
:101670009FB7F894EE89FF896083E889F9898081B2
:10168000827480839FBF81E090E0DF91CF911F91B2
:101690000F91FF90EF900895F62E0B8D10E00F5FE5
:1016A0001F4F0F731127E02E8C8D8E110CC00FB6BB
:1016B00007FCFACFE889F989808185FFF5CFCE0153
:1016C0000E94050BF1CFEB8DEC0FFD2FF11DE35ABE
:1016D000FF4FF0829FB7F8940B8FEA89FB898081D6
:1016E0008062CFCFCF93DF93EC01888D8823B9F050
:1016F000AA89BB89E889F9898C9185FD03C080811D
:1017000086FD0DC00FB607FCF7CF8C9185FFF2CF99
:10171000808185FFEDCFCE010E94050BE9CFDF91DF
:10172000CF91089580E090E0892B29F00E94FB0A78
:1017300081110C94000008954F925F926F927F92F6
:101740008F929F92AF92BF92CF92DF92EF92FF92D1
:101750000F931F93CF93DF934091020450910304A2
:1017600021E4429FC001112488509C4FFC01E95A9A
:10177000FF4F20813181875A9F4FFC0180809180EB
:10178000C0906805D090690580E29DEFF9E3CF161F
:10179000F4E0DF0630F46CE36C9DC0016D9D900DAC
:1017A00011249093FD038093FC0381E4849FE00166
:1017B000859FD00D1124C850DC4F08E515E0C90104
:1017C000B0E0A0E0F12CE12CC81AD90AEA0AFB0A21
:1017D000B12CA12C881A990AAA0ABB0A4B8C5C8CE2
:1017E000712C612C2BA53CA550E040E02419350953
:1017F00046095709C701B6010E94A630A501940108
:101800000E94EC30420E531E641E751EF801518278
:1018100040824D8C5E8C712C612C2DA53EA550E034
:1018200040E02419350946095709C701B6010E944D
:10183000A630A50194010E94EC30420E531E641E96
:10184000751EF8015382428224960C5F1F4FF5E00B
:1018500008361F0719F6DF91CF911F910F91FF9066
:10186000EF90DF90CF90BF90AF909F908F907F9040
:101870006F905F904F90089520919C03260F33271F
:10188000331F21323105ECF42091C003FC0190E0BC
:1018900080E0243069F082E00895A0919C032191BA
:1018A000AC0144585C4FA40FB52FB11D2C93019689
:1018B000861798F380919C03680F60939C0380E0E7
:1018C000089581E0089508958FEF9FEF08958FEFB9
:1018D0009FEF08958091750390E09195819591090E
:1018E0000895CF93DF93CB01EA01642F0E943C0C53
:1018F000CE01DF91CF910895CF93DF931F92CDB7A3
:10190000DEB7698361E0CE0101960E943C0C81E064
:1019100090E00F90DF91CF91089590E080E00895DE
:101920000F931F93CF93DF93EC010E94E809088186
:1019300019812A813B81601B710B820B930B0C81F7
:101940001D812E813F81061717072807390730F4BC
:101950008885882319F0188681E08987DF91CF91E7
:101960001F910F910895DC015296ED91FC9130E0AA
:1019700020E03097A1F0DC0154964D915C91241742
:10198000350758F4428153814617570741F00190BB
:10199000F081E02D2F5F3F4FECCFF0E0E0E0CF0192
:1019A00008950C94A70840911C0350911D032091A9
:1019B0001A0330911B0342175307B4F49091E800C7
:1019C0009570E1F39091E80092FD19C08093F100C9
:1019D00080911C0390911D0301968F739927892B89
:1019E00019F48EEF8093E80080911C0390911D0301
:1019F000019690931D0380931C0381E0089580E07D
:101A00000895DF92EF92FF920F931F93CF93DF938E
:101A1000D82E8A01EB017B01E40EF51ECE15DF0501
:101A200059F0D7FE12C0FE0184910E94D30C21967A
:101A30008111F4CF0FEF1FEFC801DF91CF911F91FC
:101A40000F91FF90EF90DF9008958881EECFCF93B4
:101A5000DF93CDB7DEB7A0970FB6F894DEBF0FBE09
:101A6000CDBFFC01DB018C918F5F8C939E012D5FBC
:101A70003F4F88E0D9011D928A95E9F799E0998353
:101A800084E08A8322E02D8383E08E839A8731E28B
:101A90003B8791E09C879D873E879F8792E2988B4A
:101AA00037E03B8B95E09C8B44E84D8B8E8B40E47C
:101AB00050E0588F4F8B64E1698F3A8F9B8F9C8FDA
:101AC0008D8F5F8F4E8F8AE088A382818B8396856E
:101AD0008785998B8A8B80919806811103C081E854
:101AE0008D8B2C8F40E250E0BE016F5F7F4F80E016
:101AF0000E94010DA0960FB6F894DEBF0FBECDBFB9
:101B0000DF91CF9108952FB7F89487708093E90003
:101B10009091E800892F807295FF04C09091F200A7
:101B200080E4891B2FBF08958F929F92AF92BF923E
:101B3000CF92DF92EF92FF920F931F93CF93DF9399
:101B4000B82E6B018A018091F00381110FC08FEFD5
:101B50009FEFDF91CF911F910F91FF90EF90DF905A
:101B6000CF90BF90AF909F908F9008958091200369
:101B700080FF05C08091E00082608093E000C02F6C
:101B8000D12FF12C8AEFE82E8B2D8770982E8B2D7C
:101B90008074882E9AE3A92E209719F4FF2009F467
:101BA00043C08B2D0E94830D81110AC0EA94EE2060
:101BB00071F261E070E080E090E00E94B609ECCF45
:101BC0008C171D0611F00CF08C2F9FB7F894909293
:101BD000E9002091E80025FD02C09FBFDDCF282F3E
:101BE00030E0C21BD30BF601815020F041914093AD
:101BF000F100FACFC20ED31EFF2021F0A092E80020
:101C0000F12CEBCF8091E80085FD07C0A092E800A1
:101C1000FF24F394209709F3F3CF2097F1F688205F
:101C2000E1F2A092E800D9CF5D9884E680931F038B
:101C3000C8018FCF615030F02091F100FC0120836A
:101C40000196F8CF289884E68093EF030895AF9229
:101C5000BF92DF92EF92FF920F931F93CF93DF9388
:101C60005C018B01EB019BEFD92E2097C1F07E0127
:101C7000C134D1051CF080E4E82EF12C8091E800FD
:101C800082FFFCCFC8018C1B9D0B6E2D8A0D9B1D06
:101C90000E941A0ED092E800CE19DF09E6CFC801E3
:101CA000DF91CF911F910F91FF90EF90DF90BF9048
:101CB000AF9008958091120381110DC082E080934E
:101CC0000E0384E080930F0310921103109210030F
:101CD00081E0809312038EE093E00895CF93DF9329
:101CE00080916B03811173C082E08093550381E082
:101CF000809356032BE533E030935803209357032A
:101D000010925A031092590329ED31E03093520397
:101D10002093510310925E0310925D0310926003B2
:101D200010925F03809361038093620381EC809340
:101D30005B0380EC80935C030E945A0EEC01898166
:101D400090915503890F9927991F0897ECF5EA811F
:101D5000FB81309781F581E593E09B838A8362E084
:101D600082E00E94550980919806811138C082E076
:101D70000E94FE08892B81F11092530310925403A4
:101D8000888190915603890F8883309155039091F3
:101D90005703E92FF09158038E2F891B8317A0F466
:101DA00089812191A82FB0E0A359BE4F2C938F5F5A
:101DB0008983F2CFFC01808591850097D9F781E571
:101DC00093E091878087CBCF81E080936B0381E59F
:101DD00093E0DF91CF91089581E08093980682E0AF
:101DE0008093530384E080935403CACFCF92DF9251
:101DF000EF92FF920F931F93CF93DF9300D0CDB755
:101E0000DEB78C017B016A010E946E0E1A83098382
:101E100041E050E0BE016F5F7F4F84E00E94940D6F
:101E20008C0197FD09C0A601B70184E40E94940DBE
:101E3000080F191F97FD8C01C8010F900F90DF91BB
:101E4000CF911F910F91FF90EF90DF90CF90089569
:101E50000F931F93CF93DF931F92CDB7DEB71982F5
:101E600080919806882349F082E0898342E450E01B
:101E700060E071E080E00E94010D0E945A0EDC01DA
:101E800012960D911C910115110589F0D801ED9163
:101E9000FC910280F381E02DBE016F5F7F4FC8018E
:101EA000099597FD04C0F80100851185ECCF898163
:101EB0000F90DF91CF911F910F910895CF93DF93F2
:101EC000EC0180915F01882331F083E00E94940D42
:101ED0001816190634F081E090E09B838A8380E035
:101EE00090E0DF91CF910895CF93DF931F92CDB70C
:101EF000DEB76983DC01ED91FC910280F381E02D76
:101F000041E050E0BE016F5F7F4F09950F90DF9178
:101F1000CF91089583E00E94830D90E00895CF93C0
:101F2000DF931F92CDB7DEB7FC018485958597FDC1
:101F300008C02FEF3FEF358724870F90DF91CF91B7
:101F40000895CE0101960E947D08019719F48981B8
:101F500090E0F3CF8FEF9FEFF0CF0F931F93CF93CE
:101F6000DF931F92CDB7DEB78C01FC018485958588
:101F700097FF0BC0CE0101960E947D08019771F476
:101F8000898190E0F80195878487F801848595859B
:101F90000F90DF91CF911F910F9108958FEF9FEFD9
:101FA000F1CFFC018485958597FD0BC09FB7F89410
:101FB00082E08093E9008091F2009FBF90E001965B
:101FC00008959FB7F89482E08093E9008091F20031
:101FD0009FBF90E008958F929F92AF92BF92CF9251
:101FE000DF92EF92FF920F931F93CF93DF93DC0169
:101FF000EB018C819D8120E0A817B90738F0888516
:10200000998521E0A817B90708F022E030E02F5F9A
:102010003F4F220F331F220F331FFE01E20FF31F2A
:1020200024503109C20FD31FCA80DB80F12CE12C70
:1020300088809980B12CA12C0281138130E020E0AE
:10204000A90198012C193D094E095F09BD0190E0D5
:1020500080E0681979098A099B090E94A6302081CD
:10206000318150E040E0281939094A095B090E9492
:10207000EC30C20ED31EE41EF51EC601D7FC14C000
:1020800096018536910514F024E630E0822FDF9129
:10209000CF911F910F91FF90EF90DF90CF90BF9065
:1020A000AF909F908F90089580E0F1CF0F931F9392
:1020B000CF93DF93C8EFD3E08C01085F1340C801D2
:1020C0008C0F9D1F0E949030899385E0CD36D807F4
:1020D000B1F788EF93E0DF91CF911F910F910895B1
:1020E000AF92BF92DF92EF92FF920F931F93CF9325
:1020F000DF935C0108EF13E0D0E0C0E0F801D1907D
:102100008F017501EC0EFD1EC7010E949030D8169C
:1021100021F06D2DC7010E9498302196C537F1E05E
:10212000DF0761F788EF93E0DF91CF911F910F9167
:10213000FF90EF90DF90BF90AF900895FB0101906A
:102140000020E9F73197AF01461B570BDC01ED91F9
:10215000FC910280F381E02D09948F929F92AF92BF
:10216000BF92EF92FF920F931F93CF93DF93CDB760
:10217000DEB7A1970FB6F894DEBF0FBECDBF7C01CE
:10218000FA01CB0119A2223008F42AE08E010F5D7A
:102190001F4F822E912CB12CA12CBF01A5019401BF
:1021A0000E94CA30F901CA016A300CF5605DD8019D
:1021B0006E938D01232B242B252B79F790E080E063
:1021C000109721F0BD01C7010E949E10A1960FB685
:1021D000F894DEBF0FBECDBFDF91CF911F910F915D
:1021E000FF90EF90BF90AF909F908F900895695CA3
:1021F000DECFCF92DF92EF92FF920F931F93CF9398
:10220000DF936B01770FEE08FF08F7FE1FC0EC01AC
:10221000E881F9810190F081E02D6DE209958C0152
:1022200044275527BA014C195D096E097F092AE038
:10223000CE010E94AD10800F911FDF91CF911F91B1
:102240000F91FF90EF90DF90CF9008952AE0B701B3
:10225000A601DF91CF911F910F91FF90EF90DF903A
:10226000CF900C94AD100C94AD109A01AB0170E0BE
:1022700060E00C9433119A01462F50E070E060E06A
:102280000C9433118F929F92AF92BF92CF92DF92B4
:10229000EF92FF920F931F93CF93DF937C01EB019B
:1022A0006C0182E0C80ED11C4701E5E08E0E911C46
:1022B00010E000E0F60161916F014AE050E0CE01CC
:1022C0000E943B115C01E881F9810190F081E02DD1
:1022D0006EE2CE0109958A0D9B1D080F191FC814C7
:1022E000D90441F74AE050E0F7016581CE010E9430
:1022F0003B11800F911FDF91CF911F910F91FF90A4
:10230000EF90DF90CF90BF90AF909F908F90089507
:102310006BE072E00C949E100F931F93CF93DF93AA
:10232000EC010E94F9108C01CE010E948811800FEF
:10233000911FDF91CF911F910F9108950F931F93DC
:10234000CF93DF93EC010E9435118C01CE010E94E6
:102350008811800F911FDF91CF911F910F910895E8
:10236000DF92EF92FF920F931F93CF93DF93EC01D5
:10237000D62E7A01890169E071E00E946D0A4AE077
:1023800050E06D2DCE010E943B116BEF70E0CE014D
:102390000E946D0A809104048E9DB0018F9D700D86
:1023A00011244AE050E0CE010E9435116DEE70E03C
:1023B000CE010E946D0A4AE050E0B801CE01DF91E3
:1023C000CF911F910F91FF90EF90DF900C949E1191
:1023D0000F931F93CF93DF93EC010E943B118C016D
:1023E000CE010E948811800F911FDF91CF911F9124
:1023F0000F9108950F931F93CF93DF93EC010E94E9
:102400009E108C01CE010E948811800F911FDF91D8
:10241000CF911F910F9108950F931F93CF93DF9347
:10242000EC01FB014481558160817181E881F98172
:102430000280F381E02D09958C01CE010E94881164
:10244000800F911FDF91CF911F910F9108950F93EE
:102450001F93CF93DF93EC010E946D0A8C01CE0194
:102460000E948811800F911FDF91CF911F910F91D2
:1024700008958F929F92AF92BF92CF92DF92EF9288
:10248000FF920F931F93CF93DF930E94F409C090A4
:102490000D04D0900E04F12CE12C80900B04909050
:1024A0000C04B12CA12C209111043091120450E0A5
:1024B00040E02C193D094E095F09BC01990F880BBA
:1024C000990B681979098A099B090E94A630209105
:1024D0000F043091100450E040E0281939094A09EE
:1024E0005B090E94EC30C20ED31EE41EF51ED7FC21
:1024F0007AC1D0928101C0928001C0918001D091B7
:10250000810180917F01882351F0D093F603C0931D
:10251000F503D0937E01C0937D0110927F0120913D
:10252000F5033091F603C9018C1B9D0B97FF03C087
:1025300091958195910940910504481719067CF4FD
:1025400081E02C173D070CF080E08093F403D093DA
:10255000F603C093F503D0937E01C0937D010091F3
:1025600002041091030421E4209FC001219F900DDB
:10257000112488509C4FFC01EF5AFF4F208131817C
:102580002C173D070CF034C181E08093F403E090F8
:10259000F403E0927501E092740181E0FE2CF826CC
:1025A000F092F10380917D0190917E0168E575E0E4
:1025B000EE2041F021E4209FB001219F700D1124F5
:1025C0006D5C7B4F0E94EB0F80937C01D0907C016F
:1025D000A0916805B09169052D2D30E00E944D3124
:1025E0009B01AC012434F6EA3F07F1E04F075105A7
:1025F00008F40AC180E29DEF90937B0180937A01F9
:102600008091F2039091F303EE2009F40CC18560F0
:102610009093F3038093F2038091F2039091F3037C
:1026200020917901D21201C191609093F3038093BC
:10263000F2038091F2039091F303FF2009F40AC1A1
:102640009C0122603093F3032093F2034091FE0338
:102650005091FF0320917A0130917B0124173507B7
:1026600070F021E4209FF001219FF00D1124E95B1F
:10267000FB4F20813181C217D3070CF0E8C0809155
:102680009806882309F4D3C080919706882309F41B
:10269000CEC06BE17EE089E296E00E946D0A609117
:1026A0007A0170917B01809198064AE050E088237E
:1026B00009F4C2C080919706882309F4BDC089E25D
:1026C00096E00E94351180919806882309F4B7C0DE
:1026D00080919706882309F4B2C067EF7DE089E214
:1026E00096E00E946D0A20910404809180019091EF
:1026F0008101289FB001299F700D112480919806B7
:10270000882309F4A1C080919706882309F49CC00E
:1027100089E296E00E948C118091F2039091F3037C
:1027200080629093F3038093F2038091F20390917F
:10273000F3032091770130917801121613060CF003
:1027400090C094609093F3038093F203809176019C
:10275000882381F080919806882309F47DC08091B8
:102760009706882309F478C06CED7DE089E296E055
:102770000E9427128091F2039091F3039C01207232
:102780003470232B09F478C098609093F3038093FE
:10279000F20380917601882381F080919806882346
:1027A00009F465C080919706882309F460C067EB3F
:1027B0007DE089E296E00E9427128091F2039091D9
:1027C000F30388609093F3038093F203DF91CF913A
:1027D0001F910F91FF90EF90DF90CF90BF90AF903F
:1027E0009F908F900895109281011092800185CE64
:1027F0008D5A9F4FFC0180819181C817D9070CF039
:10280000C6CE1092F403C3CEACE3B0E00E940B310D
:1028100024E630E040E050E00E94CA3030937B0173
:1028200020937A01EDCE8A7FF3CE9E7FFECE6FEFAE
:102830007DE08CE895E031CF8CE895E042CF6FEEFB
:102840007DE08CE895E04DCF8CE895E063CF8F7DFF
:10285000826067CF8D7D65CF69EC7DE08CE895E087
:1028600087CF9B7F9093F3038093F20383CF65EA36
:102870007DE08CE895E09FCF977F9093F303809362
:10288000F2039BCF6115710511F00C949E1090E03E
:1028900080E00895AF92BF92CF92DF92EF92FF92C5
:1028A0000F931F93CF93DF93EC01B62E6A0179014A
:1028B0006BED70E00E946D0A4AE050E06B2DCE0196
:1028C0000E943B1167ED70E0CE010E946D0AC601C7
:1028D0006CE370E00E94B6306C014AE050E0CE013B
:1028E0000E94351165ED70E0CE010E946D0A4AE04C
:1028F00050E0B601CE010E94351163EC70E0CE01CC
:102900000E946D0A209104048091800190918101C0
:10291000289FB001299F700D1124CE010E94F9104B
:102920006AEB70E0CE010E946D0A4AE050E0B70108
:10293000CE010E9435116CEA70E0CE010E946D0A52
:1029400040E150E0B801CE010E9435118CEAC82E5A
:1029500081E0D82EF12CE12CAA24A394B12CC5013E
:102960000E2C02C0880F991F0A94E2F7802391234E
:10297000892B59F08BE06EE072E08E1518F0F601AD
:1029800060817181CE010E944214FFEFEF1AFF0AAD
:1029900082E0C80ED11CEFE0EE16F10401F7CE0183
:1029A0000E948811E881F9810680F781E02DCE012F
:1029B000DF91CF911F910F91FF90EF90DF90CF901B
:1029C000BF90AF900994BF92CF92DF92EF92FF92A7
:1029D0000F931F93CF93DF93DC01EB0158968D91FA
:1029E0009C915997892BB9F08D01B12CCB2CD12C0E
:1029F000F801E08CF18CC7010E941B30C816D90683
:102A000010F5F701EC0DFD1DE491DE01AC0DBD1DCF
:102A1000EC93B394EBCF88E4888389E4898384E4DE
:102A20008A831E968C911E978F708F5B8B831E9668
:102A30008D919C9124E0969587952A95E1F78F706A
:102A40008F5B8C8385E0DF91CF911F910F91FF9079
:102A5000EF90DF90CF90BF900895CF92DF92EF92EA
:102A6000FF920F931F93CF93DF9300D0CDB7DEB7C4
:102A70007C01FB011381133009F046C0628170E0D4
:102A80007F6F0E94B30C009709F46AC0DC011496B2
:102A9000FC9014971596DC908F2D9D2D0E941B3075
:102AA000E82E1A8381E08E0D880F898342E050E082
:102AB000BE016F5F7F4F80E00E94010DCF2C0F2D74
:102AC0001D2D802F8C198E15E8F4F80184918983CF
:102AD0001A8242E050E0BE016F5F7F4F80E00E94AB
:102AE000010D0F5F1F4F892B61F780E090E00F9081
:102AF0000F90DF91CF911F910F91FF90EF90DF909A
:102B0000CF90089581E0F2CF8081813849F512326B
:102B100039F5D70112962C91129784819581281747
:102B20001906F1F41C960D911C91D12CC12C0115A4
:102B3000110589F0F801448155816281738180E833
:102B40000E94010D8F3F980791F2C80ED91ED8013F
:102B50000D911C91ECCF81E0F701808BC601C7CFAE
:102B600090E080E0C4CF0F931F93CF93DF93EC01ED
:102B700088819981009759F02A813B812617370770
:102B800030F081E0DF91CF911F910F9108958B017B
:102B90006F5F7F4F0E948732009759F09983888337
:102BA0001B830A832C813D81232B59F7FC01108262
:102BB000E8CF80E0E7CFCF93DF93EC018881998164
:102BC000009711F00E94FE31198218821D821C822A
:102BD0001B821A82DF91CF910895EF92FF920F939B
:102BE0001F93CF93DF93EC018B01CB010E941B302D
:102BF0007C01BC01CE010E94B31581110BC0CE0136
:102C00000E94DB15CE01DF91CF911F910F91FF90B4
:102C1000EF900895FD82EC82B801888199810E942D
:102C20001430F0CFEF92FF920F931F93CF93DF9367
:102C3000EC017B018A01BA010E94B31581110BC01E
:102C4000CE010E94DB15CE01DF91CF911F910F9134
:102C5000FF90EF9008951D830C83B70188819981BF
:102C60000E945533F0CFFC0180819181009711F0D3
:102C70000C94FE310895EF92FF920F931F93CF9320
:102C8000DF93CDB7DEB761970FB6F894DEBF0FBE06
:102C9000CDBF8C01CB01F801118210821382128208
:102CA0001582148250E09E012F5F3F4F7901B901D8
:102CB0000E945830F70101900020E9F73197AF01E9
:102CC0004E195F09B701C8010E94121661960FB62E
:102CD000F894DEBF0FBECDBFDF91CF911F910F9152
:102CE000FF90EF9008955F926F927F928F929F92E4
:102CF000AF92BF92CF92DF92EF92FF920F931F930A
:102D0000CF93DF9300D000D000D0CDB7DEB7FB016A
:102D1000608171816D30710521F06A30710509F0B3
:102D2000B5C0380149015A0162E172E001960E9482
:102D300024300E94ED2F582EC82ED92EF4E0CF1645
:102D4000D10450F166E77DE08091990690919A0652
:102D50000E946D0A4AE050E063E0809199069091EC
:102D60009A060E94E81180E01092F70326960FB6AB
:102D7000F894DEBF0FBECDBFDF91CF911F910F91B1
:102D8000FF90EF90DF90CF90BF90AF909F908F908B
:102D90007F906F905F90089565E172E090E080E031
:102DA0000E9424300E94ED2F8C01A816B906D0F4A1
:102DB00068E57DE08091990690919A060E946D0ADF
:102DC0004AE050E0B5018091990690919A060E94E0
:102DD000351165E57DE08091990690919A060E94F3
:102DE0006D0AC1CFF4015082A0909906B0909A0666
:102DF0004AE0BC01CE0101960E943B16BE016F5F06
:102E00007F4FC5010E940C12CE0101960E9433161D
:102E1000F301118300836DE47DE080919906909128
:102E20009A060E946D0A4AE050E0B6018091990628
:102E300090919A060E94351168E47DE08091990690
:102E400090919A060E946D0AB7018091990690911F
:102E50009A060E9442146EE37DE08091990690915B
:102E60009A060E946D0A4AE050E0B80180919906E6
:102E700090919A060E949E1163E47EE080919906EB
:102E800090919A060E94271281E06ECF80E06ECF6B
:102E9000EF92FF920F931F93CF93DF93CDB7DEB7DF
:102EA00029970FB6F894DEBF0FBECDBF8C01862FD9
:102EB000F80111821082138212821582148250E06E
:102EC0009E012F5F3F4F7901B90190E00E94583079
:102ED000F70101900020E9F73197AF014E195F0922
:102EE000B701C8010E94121629960FB6F894DEBFEA
:102EF0000FBECDBFDF91CF911F910F91FF90EF904B
:102F000008952F923F924F925F926F927F928F928D
:102F10009F92AF92BF92CF92DF92EF92FF920F9368
:102F20001F93CF93DF93CDB7DEB728970FB6F894F2
:102F3000DEBF0FBECDBFE0E15E2EA11002C03AE0C1
:102F4000532EFB01608171816D30710521F06A3073
:102F5000710509F0EEC0AF821701380128877A01A8
:102F6000A52CB12CA50170E060E001960E94D62E40
:102F7000462E062F172F8091990690919A06E016FB
:102F8000F10608F040C066EC7EE00E946D0AB601D2
:102F90008091990690919A060E94421466EB7EE019
:102FA0008091990690919A060E946D0A4AE050E03D
:102FB000B7018091990690919A060E94351163EBB2
:102FC0007EE08091990690919A060E94271280E0F7
:102FD0001092F70328960FB6F894DEBF0FBECDBF50
:102FE000DF91CF911F910F91FF90EF90DF90CF90E5
:102FF000BF90AF909F908F907F906F905F904F9019
:103000003F902F90089508151905F8F462EA7EE0C4
:103010000E946D0AB6018091990690919A060E94CD
:10302000421461E97EE08091990690919A060E948F
:103030006D0A4AE050E0B4018091990690919A0699
:103040000E9435116EE87EE0BCCF6EE77EE00E9404
:103050006D0AFF81FF2341F06BE77EE080919906C6
:1030600090919A060E946D0AE0909906F0909A0657
:103070008885882309F447C0452DF3016081CE017E
:1030800001960E944817BE016F5F7F4FC7010E94E3
:103090000C12CE0101960E943316F301408266E7BE
:1030A0007EE08091990690919A060E946D0AB60181
:1030B0008091990690919A060E9442146CE67EE0F7
:1030C0008091990690919A060E946D0AFF81FF23D4
:1030D00041F069E67EE08091990690919A060E94FF
:1030E0006D0AA501B8018091990690919A060E94F7
:1030F0009E1163E47EE08091990690919A060E9469
:10310000271281E065CFF10160817181452DCE01EB
:1031100001960E943B16BE016F5F7F4FC7010E9460
:103120000C12CE0101960E943316F1011183008327
:10313000B6CF80E04FCF2F923F924F925F926F9227
:103140007F928F929F92AF92CF92DF92EF92FF92F7
:103150000F931F93CF93DF93CDB7DEB729970FB6A9
:10316000F894DEBF0FBECDBF3C012B0159874887C5
:103170001901B8011A8219821C821B821E821D82CB
:10318000CE0101960E94ED15C980DA804701A12C7D
:1031900071018E01095F1F4F20E048855985B201FA
:1031A000C3010E948117782ECE0101960E9433162A
:1031B000872D29960FB6F894DEBF0FBECDBFDF91E5
:1031C000CF911F910F91FF90EF90DF90CF90AF9034
:1031D0009F908F907F906F905F904F903F902F9037
:1031E00008952F923F924F925F926F927F928F92AB
:1031F0009F92AF92CF92DF92EF92FF920F931F9325
:10320000CF93DF93CDB7DEB72A970FB6F894DEBF22
:103210000FBECDBF3C012B015A8749871901B80168
:103220001A8219821C821B821E821D82CE01019687
:103230000E94ED15C980DA80912C812CAE2CCE0134
:1032400007967C01810121E049855A85B201C301BD
:103250000E948117782ECE0101960E943316872D89
:103260002A960FB6F894DEBF0FBECDBFDF91CF9187
:103270001F910F91FF90EF90DF90CF90AF909F90B4
:103280008F907F906F905F904F903F902F90089518
:103290001F93CF93DF9385ED8093BC0080917803DB
:1032A00090917903A0917A03B0917B030796A11DB9
:1032B000B11D23E0B695A795979587952A95D1F7E7
:1032C0002091BC0024FD03C01092C00352C0409165
:1032D00078035091790360917A0370917B03452BB9
:1032E000462B472B69F30097A105B10541F02AE26F
:1032F0002A95F1F700C00197A109B109E1CF8091AA
:103300007703C1E0C0937603882399F1D091B80088
:103310001091BA008091BC008A7B8093BC0060E071
:1033200082E00E94270960E083E00E942709109252
:10333000C003C093C2031092C10361E082E00E9407
:10334000270961E083E00E9427098091B9008E7F00
:103350008093B9008091B9008D7F8093B90088E493
:103360008093B80085E48093BC001093BA00D0939A
:10337000B800DF91CF911F910895CF92DF92EF9225
:10338000FF920F931F93CF93DF93FC014281FB01C8
:10339000248135814217130611F020E029C0EB018A
:1033A00031812081213A91F5313061F5238123303B
:1033B00011F021E01DC0628170E00E94B30CEC01AD
:1033C000009759F341E050E0BC016E5F7F4F80E011
:1033D0000E94010D1816190604F74E815F816C8159
:1033E0007D8180E00E94010D21E018161906ACF6DF
:1033F000822FDF91CF911F910F91FF90EF90DF907F
:10340000CF90089521E0333041F6F2CF213229F6F2
:103410003B3021F42281FC01208BCBCF3A3021F4C8
:103420002281FC01218BC5CF393009F0B6CF238131
:10343000233009F0B2CF628170E00E94B30C7C01AE
:10344000009709F4AACFCE80DF80FC0186819781A6
:103450000196C816D90609F0A0CF81E090E0C1140A
:10346000D10409F0C6010E9462318C01B6010E94AC
:10347000270EF80181812A81213121F59091740371
:103480009F5F909374038093730380E0F8019081B1
:10349000F701228133819217130609F07ECF88232A
:1034A00049F046815781B8016F5F7F4F84819581D4
:1034B0000E944C330115110509F47BCFC8010E940D
:1034C000FE3177CF81E0E2CFAF92BF92CF92DF9211
:1034D000EF92FF920F931F93CF93DF937C016B01C9
:1034E0005A01E901DC0152960D911C9190E080E0B7
:1034F0000115110531F589E090E00E946231FC016F
:1035000011821082D382C282B582A482DD27D78342
:10351000C683D70153969C938E935297F701848963
:1035200095890196958B848BDF91CF911F910F9197
:10353000FF90EF90DF90CF90BF90AF9008950196ED
:103540008901F801228133812C153D0569F3208121
:1035500031812115310599F789E090E00E946231AF
:10356000FC0111821082D382C282B582A482DD273F
:10357000D783C683D8018D939C93D0CFCF92DF920F
:10358000EF92FF920F931F93CF93DF93C82F6B019E
:103590008A010E946E0E6C2F70E021E030E0A601DF
:1035A0000E94641AEC01892B89F00E946E0E7C0146
:1035B000C8010E941B30F601608170E07F6F9C01A2
:1035C000A801C7010E94641AC80FD91FCE01DF915C
:1035D000CF911F910F91FF90EF90DF90CF900895C2
:1035E000EF92FF920F931F93CF93DF93EC018B0128
:1035F0007A010E946E0E9701A801BE01DF91CF9162
:103600001F910F91FF90EF900C94641A1F920F92EC
:103610000FB60F9211242F933F938F939F93AF93E5
:10362000BF938091E7039091E803A091E903B091E3
:10363000EA033091E60323E0230F2D3758F5019676
:10364000A11DB11D2093E6038093E7039093E80347
:10365000A093E903B093EA038091EB039091EC030C
:10366000A091ED03B091EE030196A11DB11D8093D1
:10367000EB039093EC03A093ED03B093EE03BF91A3
:10368000AF919F918F913F912F910F900FBE0F900F
:103690001F90189526E8230F0296A11DB11DD2CFC9
:1036A0001F920F920FB60F9211242F933F934F93B7
:1036B0005F936F937F938F939F93AF93BF93EF939A
:1036C000FF938CE895E00E94050BFF91EF91BF916D
:1036D000AF919F918F917F916F915F914F913F91AA
:1036E0002F910F900FBE0F901F9018951F920F9261
:1036F0000FB60F9211242F938F939F93EF93FF9305
:10370000E0919C05F0919D058081E091A205F091EA
:10371000A30582FD1BC090818091A5058F5F8F73EB
:103720002091A605821741F0E091A505F0E0E4574D
:10373000FA4F958F8093A505FF91EF919F918F91FF
:103740002F910F900FBE0F901F9018958081F4CF8E
:103750001F920F920FB60F9211240F900FBE0F9071
:103760001F9018951F920F920FB60F9211242F934E
:103770003F934F935F936F937F938F939F93AF93F9
:10378000BF93EF93FF938091B900887F803609F44F
:103790004AC0F0F5883209F4A5C018F5803109F463
:1037A00099C0B8F4882309F4F5C0883009F492C0B0
:1037B000FF91EF91BF91AF919F918F917F916F9109
:1037C0005F914F913F912F910F900FBE0F901F90DF
:1037D0001895883109F486C0803251F78093BF0371
:1037E00014C0803409F49BC040F48033B9F38833AB
:1037F000F9F68093BF0385ECAEC0803509F483C031
:10380000883509F494C0883499F60E944819D0CFBD
:10381000883909F48AC038F5883729F050F4883699
:1038200011F0803729F683E08093C0031092BE0325
:1038300055C0883809F479C0803919F0803809F00A
:10384000B7CF8091BE03803208F06FC0E091BE0315
:1038500081E08E0F8093BE038091BB00F0E0E256C2
:10386000FC4F80833BC0803B39F0D0F4803A09F4B0
:1038700077C0883A09F09CCF84E08093C00310920F
:103880009D0310929C03F0E0E0E0099580919C0379
:1038900081110FC081E080939C0310927C0309C0CA
:1038A000803C09F4A8CF883C09F4A5CF883B09F0F7
:1038B0007FCFE0919D0381E08E0F80939D03F0E028
:1038C000E458FC4F80818093BB0090919D038091D0
:1038D0009C0329C08091E5038093BB0085EC809315
:1038E000BC0066CF9091E4038091E303981758F5EC
:1038F000E091E40381E08E0F8093E403F0E0ED5368
:10390000FC4F8081E9CFE091E40381E08E0F80934A
:10391000E4038091BB00F0E0ED53FC4F8083909175
:10392000E4038091E3039817C8F285E8D8CFE091CB
:10393000E40381E08E0F8093E4038091BB00F0E00C
:10394000ED53FC4F80838091C20381115ECF81E0F3
:103950008093C10384EA8093BC001092C00328CFF7
:1039600085EC8093BC001092C0038091BE0380322E
:1039700030F4E091BE03F0E0E256FC4F108260911B
:10398000BE0370E08EE993E0F0E0E0E0099510926C
:10399000BE030ECF1092BF0338CF1F920F920FB607
:1039A0000F9211242F933F934F935F936F937F93C5
:1039B0008F939F93AF93BF93CF93EF93FF93C09158
:1039C000E1008091E100837F8093E100C3FF1DC08F
:1039D00080919806882309F459C082E1E8E8F1E073
:1039E000A6E4B1E001900D928A95E1F71092E9000A
:1039F00081E08093EB001092EC0082E38093ED0075
:103A00001092F00388E08093F000C2FF1AC00E9479
:103A1000A70880911F03882341F080911F038150E4
:103A200080931F03811101C05D9A8091EF03882369
:103A300041F08091EF0381508093EF03811101C029
:103A4000289AC4FF27C08091E2008E7E8160809317
:103A5000E2008091E1008F7E8093E100809120035D
:103A60008E7E806180932003FF91EF91CF91BF9173
:103A7000AF919F918F917F916F915F914F913F9106
:103A80002F910F900FBE0F901F90189582E1EAE9D9
:103A9000F1E0A6CFC0FFE8CF8091E2008E7E80618A
:103AA0008093E2008091E1008E7E8093E10080911E
:103AB00020038E7E8160D6CF1F920F920FB60F9299
:103AC0001124CF92DF92EF92FF920F931F932F93C7
:103AD0003F934F935F936F937F938F939F93AF9396
:103AE000BF93EF93FF93CF93DF93CDB7DEB76C9780
:103AF000DEBFCDBF1092E9008091E80083FF25C0B2
:103B000068E0CE0145960E941A0E82EF8093E8008D
:103B10008D8987FF39C09091E80090FFFCCF982FE6
:103B2000907609F038C19E894F89588D2F89F88C7D
:103B3000911131C0803861F5809121038093F100AB
:103B40001092F1008EEF8093E8006C960FB6F89417
:103B5000DEBF0FBECDBFDF91CF91FF91EF91BF913F
:103B6000AF919F918F917F916F915F914F913F9115
:103B70002F911F910F91FF90EF90DF90CF900F90BA
:103B80000FBE0F901F9018959EEF9093E800C7CF3F
:103B90001092F100D5CF913059F48111D3CF41303B
:103BA000510581F6809121038D7F80932103CACF37
:103BB000933049F48111C6CF4130510519F68091F7
:103BC00021038260F2CF953041F48091E80080FFBC
:103BD000FCCF20682093E300B5CF963009F0A9C050
:103BE0000B8D1C8D22E01092E90010921D031092A3
:103BF0001C03F2122EC010921B0310921A030E9493
:103C0000280F1F8299E09983FA8291E09E8390EABF
:103C100098879AEF998720911C0330911D03275FA5
:103C20003F4F3C832B838D831092E90010921D033C
:103C300010921C0310931B0300931A0349E050E0F9
:103C4000BE016F5F7F4F80E00E94010D0E94280F30
:103C500079CF10931B0300931A030E945A0EDC01C4
:103C600012960D911C910115110509F452C1D8014C
:103C7000ED91FC910480F581E02DBE016B5E7F4FDC
:103C8000C8010995009709F03FC1F8010085118529
:103C9000EACFF3E0FF120EC08F89882309F440C0F9
:103CA000823061F440E860E180E291E00E94A21F6E
:103CB000811148CF81E28093EB0047CF813029F416
:103CC00040E86BE084E191E0F1CF833099F70E9406
:103CD0005A0EDC011296ED90FC908E010F5F1F4F83
:103CE0006801E114F10479F0D701ED91FC910680AF
:103CF000F781E02DB801C7010995080F111DF701E3
:103D0000E084F184EECFD8011C92F60101900020EE
:103D1000E9F73197BF016C197D0940E0C601C6CFB4
:103D2000E0E1F1E0449150E0BF0180E80E94010D24
:103D300009CF973009F4BECF983021F481E0809309
:103D4000F10000CF993009F0FDCE837009F0B2CFB9
:103D5000809198068823B1F0EEE6F1E081E031E051
:103D600096E32191222371F08093E9003093EB00D8
:103D7000DF0111972C912093EC009093ED008F5F61
:103D8000873079F78EE78093EA001092EA008F89F6
:103D90008093F003D7CE8B8D9C8D1092E90010920A
:103DA0001D0310921C0390931B0380931A038091B0
:103DB0009806882309F48DC0898D81118AC08E8967
:103DC0009D89913A41F4813209F074CF47E050E087
:103DD00068E571E0B5C0913209F06CCF833269F4C7
:103DE0008F89988DB0E0A0E08093420190934301C9
:103DF000A0934401B0934501A5CE803239F467E029
:103E000070E088E591E00E94270E9CCE823209F096
:103E100099CE8F8980935F01EEEFFFE785919491B2
:103E2000E0E0F8E08B3F9C4D11F4EEEFFAE080917A
:103E3000580190915901A0915A01B0915B01803BCA
:103E40009440A105B105D9F480915F0180FD17C0B0
:103E5000EE3F8AE0F80771F587E797E79183808363
:103E60008091600080931E0388E19BE00FB6F89478
:103E7000A895809360000FBE9093600063CE808110
:103E800091818737974709F05DCEA89580916000B2
:103E900088618093600080911E0380936000EE3FF4
:103EA0002AE0F20789F08091FE0A9091FF0A91833F
:103EB000808348CE808191818737980769F29093FB
:103EC000FF0A8093FE0AC8CF1092FF0A1092FE0AE2
:103ED00039CE0E945A0EDC0112960D911C910115EB
:103EE000110509F4E7CED801ED91FC910190F08124
:103EF000E02DBE016B5E7F4FC8010995811122CE76
:103F0000F80100851185EBCF181619060CF41ACEAE
:103F1000D1CEF1E0FF12BDCE8091980681110CC088
:103F20008DE195E090934F0180934E0183E090E006
:103F3000909351018093500142E150E066E471E0BA
:103F400080E0F4CEEF92FF920F931F93CF93DF9315
:103F5000F82E192FE62E042F81E0860F880F0E947D
:103F6000D30C83E00E94D30CCF2DD12FEC0EFD2E6D
:103F7000F11CCE15DF05B9F007FF13C0FE018491D7
:103F80000E94D30C182F80E00E94D30C812321962D
:103F90008111EFCFDF91CF911F910F91FF90EF90A3
:103FA00008958881EDCF81E0F5CF10928F051092B2
:103FB0008E0588EE93E0A0E0B0E0809390059093AA
:103FC0009105A0939205B093930585EE91E09093AF
:103FD0008D0580938C058DEC90E0909399058093EE
:103FE00098058CEC90E090939B0580939A0588EC63
:103FF00090E090939D0580939C0589EC90E09093D0
:104000009F0580939E058AEC90E09093A105809394
:10401000A0058EEC90E09093A3058093A2051092EA
:10402000A5051092A6051092A7051092A8058FEF7E
:104030009FEF90936E0580936D0589E092E09093D9
:10404000700580936F0510927105109272051092A1
:104050007305109274059093760580937505109200
:104060007705109278051092790510927A0582E012
:104070008093890581E080938A0593E090938B0576
:1040800090918105911112C010927C0510927B05D0
:1040900026ED3EE030937E0520937D0520E931E05A
:1040A0003093800520937F05809381050E946E0EDA
:1040B000FC01A485B585109709F054C08BE795E005
:1040C000958784878685978520917F053091800527
:1040D000820F931F9787868710922C0610922B06CB
:1040E00088EE93E0A0E0B0E080932D0690932E063A
:1040F000A0932F06B093300687EF91E090932A06A5
:10410000809329068FEF9FEF9093360680933506B4
:1041100089E092E090939C0680939B0610929D0606
:1041200010929E0610929F061092A006809198060B
:10413000882311F1809197068823F1F089E296E0B7
:1041400090939A068093990610929606109295067F
:1041500010928C0610928B061092820610928106A5
:104160000895DC018D919C9111970097D1F78BE711
:1041700095E08D939C93A6CF8CE895E0E1CFCF930B
:10418000DF93CDB7DEB76C970FB6F894DEBF0FBEE6
:10419000CDBFF89462E082E00E94550982E00E945F
:1041A000FE08892B19F481E080939806789461E0E9
:1041B00087E00E94550961E086E00E94550961E0B0
:1041C00085E00E94550960E087E00E94270960E0D1
:1041D00086E00E94270960E085E00E94270980911F
:1041E0009806882309F4EEC061E087E00E94270961
:1041F00060E086E00E942709789484B5826084BDDF
:1042000084B5816084BD85B5826085BD85B58160DA
:1042100085BD80916E00816080936E001092810058
:104220008091810082608093810080918100816013
:1042300080938100809180008160809380008091D4
:1042400091008260809391008091910081608093C1
:104250009100809190008160809390008091C100D6
:1042600084608093C1008091C10082608093C1000E
:104270008091C10081608093C1008091C300816002
:104280008093C3008091C00082608093C0008091C1
:10429000C20081608093C20080917A008460809324
:1042A0007A0080917A00826080937A0080917A000F
:1042B000816080937A0080917A00806880937A0090
:1042C0001092F00310922103109220038091D700E6
:1042D00081608093D70080EA8093D80089B580619F
:1042E00089BD89B5826089BD09B400FEFDCF61E05A
:1042F00070E080E090E00E94B6098091D8008F7C49
:1043000080618093D8008091E000807F8093E000FE
:104310008091E1008E7E8093E1008DE08093E20049
:10432000559A209AE0919C05F0919D0582E080834A
:10433000E0919805F09199051082E0919A05F0912D
:104340009B0580E180831092A405E091A005F09187
:10435000A10586E08083E0919E05F0919F05808114
:1043600080618083E0919E05F0919F058081886047
:104370008083E0919E05F0919F0580818068808315
:10438000E0919E05F0919F0580818F7D80838091D3
:104390009806882369F18FEF9FEF909336068093FC
:1043A000350610915F016AE070E080E090E00E94C5
:1043B000B60911110DC06AE070E080E090E00E9443
:1043C000B609EFCF60E087E00E94270961E011CFD6
:1043D00081E08093970669EE71E089E296E00E94A1
:1043E0006D0A6091980670E089E296E00E948C1157
:1043F00089E090E090936E0580936D0588E199E2E5
:104400000FB6F894A895809360000FBE909360005B
:1044100067E172E089E296E00E94421460E47FE185
:1044200089E296E00E94F91063E472E089E296E086
:104430000E94FA1189E296E00E948811A89590E006
:1044400080E00E9456108091F8038A3A09F054C225
:104450008091F903853509F04FC280916B059091E9
:104460006C058130954A09F047C280919806811108
:1044700006C06CEC71E08CE895E00E9427128091F8
:104480006A05982F9170909376018695817080933C
:10449000430380910804809340030E946E0E0E94A3
:1044A0006E0E21E030E049E855E061E070E00E94E6
:1044B000641A0E946E0E21E030E04BE855E062E0A5
:1044C00070E00E94641A0E946E0E21E030E04AE81B
:1044D00055E063E070E00E94641A0E946E0E2FE4C3
:1044E00031E0FC01318F208F80919806882339F0CC
:1044F0000E946E0E29E236E0FC01378B268B62E0CB
:1045000084E00E94550960E087E10E94550961E05E
:104510008DE00E94270961E088E00E94550961E072
:1045200088E00E94270980914D0390914E03856099
:10453000916090934E0380934D03A89511E01093E2
:104540007501109374011092F1038091020490910F
:10455000030421E4289FF001299FF00D1124ED5B55
:10456000FB4F8081918190937E0180937D010E9419
:10457000391242E050E06DE473E087E090E00E9481
:10458000F01A42E050E06AE671E08DE090E00E94AF
:10459000F01A42E050E06AEF73E08AE190E00E9496
:1045A000F01A42E050E06CEF73E08CE190E00E9482
:1045B000F01A42E050E06EEF73E088E090E00E9475
:1045C000F01A42E050E063E671E083E190E00E947F
:1045D000F01A42E050E067E771E082E190E00E946B
:1045E000F01A41E050E062E671E086E090E00E945F
:1045F000F01A41E050E061E671E086E190E00E944F
:10460000F01A42E050E069EC71E08AE090E00E942C
:10461000F01A42E050E068E671E08BE090E00E9422
:10462000F01A41E050E060E671E084E190E00E9421
:10463000F01A41E050E068EC71E087E190E00E9400
:10464000F01A41E050E069E771E08EE090E00E94EE
:10465000F01A41E050E06CE671E08CE090E00E94DE
:10466000F01A41E050E066E074E08FE090E00E94D4
:10467000F01A41E050E068E074E081E190E00E94CF
:10468000F01A41E050E067EC71E080E190E00E94B8
:10469000F01A41E050E066EC71E088E190E00E94A1
:1046A000F01A4AE451E065EC71E08FE10E94BE1A15
:1046B00040E451E064EC71E080E20E94BE1A61E3E4
:1046C00071E08CE895E00E946D0A6091980670E0B8
:1046D0008CE895E00E948C118CE895E00E94720BAA
:1046E000109375011092F103A89568EC70E080E0DA
:1046F00090E00E94B609109296060E94E809609325
:104700008D0670938E0680938F06909390068AE0B4
:1047100090E0A0E0B0E08093910690939206A09381
:104720009306B09394061093950618EE412E13E06D
:10473000512E612C712CAA24A394A895A1E4BA2E21
:10474000BCE32B2EF0909806FF2009F431C1809134
:104750009706882309F42CC189E296E00E94D10FC4
:10476000892B11F40C94932B80919706882309F4DC
:1047700028C189E296E00E948F0F8C01809176011A
:10478000882369F0602FFF2009F420C180919706EB
:10479000882309F41BC189E296E00E94740FE0911E
:1047A000F703EE3108F0B5C70D30110599F00A3066
:1047B000110581F00F3E110569F0C8018B7F8B3B1D
:1047C000910541F081E08E0F8093F703F0E0EE5DFC
:1047D000FC4F0083E091F703F0E0EE5DFC4F1082A8
:1047E00080917601882381F080919806882309F4CE
:1047F000F2C080919706882309F4EDC060E87BE061
:1048000089E296E00E946D0A80917601882381F00A
:104810008091980662E273E0882309F4E1C08091F8
:104820009706882309F4DCC089E296E00E944214CE
:1048300080917601882381F080919806882309F47D
:10484000D2C080919706882309F4CDC06CE77BE045
:1048500089E296E00E9427128091F703882309F4E9
:1048600058C180919806882341F080919706F9E21B
:10487000CF2EF6E0DF2E811104C0ECE8CE2EE5E06D
:10488000DE2E1E8B0D8BD0929A06C09299060D30AB
:10489000110521F00A30110509F054CF809122034F
:1048A000082E000C990B0E944433853409F401C191
:1048B0000CF0B4C0823409F44DC10CF099C08332BD
:1048C00009F48EC68F3309F424C36BE478E0C60183
:1048D0000E946D0A62E273E0C6010E94421468E41D
:1048E00078E0C6010E9427126CE378E0C6010E94BE
:1048F00027121092220307C11C8A1B8A1A86198666
:1049000061E08DE00E94550900EDC02E07E0D02E39
:10491000E12CF12C11E084E6882E912CA12CB12CF5
:10492000CE010B960E94900C0C898B8981110BC0D3
:10493000CF86D88AE98AFA8A0E94E8096B877C8741
:104940008D879E871B8B1C8A002389F0A8958091F8
:104950009806882331F060E971E089E296E00E94D0
:10496000271265E571E08CE895E00E942712CE01E0
:1049700001960E94900C0A85898581110BC08D8259
:104980009E82AF82B8860E94E80969837A838B830E
:104990009C8319871A86002319F28DE00E94FE0875
:1049A00060E0892B09F461E08DE00E942709B8CF0F
:1049B0008CE895E00E94EF0A892B09F4B4C6F11047
:1049C000D3CE8CE895E00E94CD0AD7CE8CE895E056
:1049D0000E94260BE4CE6EE77BE08CE895E012CFD8
:1049E0008CE895E023CF6AE77BE08CE895E032CF56
:1049F000833409F41BC2843409F067CFEE24E394B6
:104A000002E818E02AE635E04FEF50E0BE016B5EA9
:104A10007F4F82E293E00E94F118A5C5833509F427
:104A200085C5DCF4883409F474C2813509F04DCFB2
:104A30006EE678E0C6010E946D0A70E060E0C60193
:104A40000E948C116EE578E0C6010E946D0A70E04C
:104A500060E0C6010E948C1156C08A3509F470C509
:104A60008E3709F4E0C5843509F02FCF80912303F8
:104A7000082E000C990B0E944433823509F4C6C1FC
:104A8000833509F49AC163EB79E08D3409F059C09C
:104A900043E0E42EF12C0AEE19E028E635E040E48C
:104AA00058E3BE016B5E7F4F83E293E00E949B1848
:104AB000FCC080912303082E000C990B0E94443304
:104AC0008E349105E1F580912403082E000C990B9A
:104AD0000E944433E12C0CE31BE029E034E08334F2
:104AE000910541F08235910551F5E12C02E11BE081
:104AF0002AE034E041E050E0BE016B5E7F4F84E28B
:104B000093E00E94F1181092F7038091F70381114E
:104B100019CE80917601882309F414CE80919806ED
:104B2000882309F4FBC580919706882309F4F6C50C
:104B300063E77BE089E296E00E946D0A03CE66EFB0
:104B40007AE0C6010E946D0A62E273E0C6010E942B
:104B5000FA11D9CF80912303082E000C990B0E94E3
:104B60004433EDEBE80FE73108F024C10E2E000CC2
:104B7000FF0BE354FA4D0C945C3147261226DA26DB
:104B8000D425DA26DA26DA26DA26DA269226DA2674
:104B9000DA26DA26B826DA26DA265826DA26DA26B9
:104BA0009A26DA26DA26852680910204909103045B
:104BB000B89EF001B99EF00D1124ED5BFB4F4091C2
:104BC000040420813181429FC001439F900D112434
:104BD0009A838983F12CE12C00EE1AE09E012F5F6D
:104BE0003F4F48E55BE1BE016B5E7F4F83E293E0A0
:104BF0000E949B18882309F486CF8091020490912B
:104C00000304B89EF001B99EF00D1124ED5BFB4F3B
:104C10006091040470E089819A810E94B6307183AA
:104C2000608371CF8091020490910304B89EF001DB
:104C3000B99EF00D1124E95BFB4F409104042081E3
:104C40003181429FC001439F900D11249A83898333
:104C5000F12CE12C0AEC1AE09E012F5F3F4F48E552
:104C60005BE1BE016B5E7F4F83E293E00E949B1885
:104C7000882309F448CF8091020490910304B89EE0
:104C8000F001B99EF00D1124E95BFB4FC1CFE12C7F
:104C90000FE91AE022E034E044E050E0BE016B5E30
:104CA0007F4F83E293E00E94F1180E949C0B2BCF70
:104CB0008091040490E09A838983EE24E394F12C9C
:104CC0000DE81AE09E012F5F3F4F44E050E0BE0127
:104CD0006B5E7F4F83E293E00E949B18882329F04C
:104CE00089819A818330910569F463E77AE0C6018E
:104CF0000E946D0A4AE050E060910404C6010E94DF
:104D0000E81101CF80930404FECEE12C01E51AE006
:104D100025E034E044E650E0BE016B5E7F4F83E265
:104D200093E0EFCEE12C0CE31AE028E034E04AE512
:104D300050E0F2CF62E5E62E62E0F62E8E010F5FC4
:104D40001F4F9E01255F3F4F40E45FE1BE016B5E58
:104D50007F4F83E293E00E947316882309F4D3CE39
:104D6000EB8524E0E29FF0011124E85AFA4F50CF7E
:104D700053E6E52E52E0F52E8E010F5F1F4F9E0188
:104D8000255F3F4F44E650E0BE016B5E7F4F83E2FC
:104D900093E00E947316882309F4B5CEEB8534E0C6
:104DA000E39FF0011124E65AFA4F89819A81918399
:104DB0008083A9CE6BE17AE0C4CE8091FE0390910E
:104DC000FF036CE370E00E94B6307A836983F12CB4
:104DD000E12C02E01AE09E012F5F3F4F42E454E0D5
:104DE000BE016B5E7F4F83E293E00E949B18882395
:104DF00009F489CE29813A81229EC001239E900D1B
:104E000011249093FF038093FE037DCEF12CE12CBF
:104E10000DEC19E020E034E040E65AEEBE016B5E96
:104E20007F4F83E293E00E949B186DCE8091230315
:104E3000082E000C990B0E9444338834A9F18C345D
:104E400009F064C04091040420910D0430910E04D7
:104E5000429FC001439F900D11249A838983F12CB6
:104E6000E12C0EE919E09E012F5F3F4F40E45FE126
:104E7000BE016B5E7F4F83E293E00E949B18882304
:104E800009F441CE6091040470E089819A810E9406
:104E9000B63070930E0460930D040E94F409909351
:104EA0000C0480930B042FCE409104042091110434
:104EB00030911204429FC001439F900D11249A83A8
:104EC0008983F12CE12C06E819E09E012F5F3F4F0A
:104ED00040E45FE1BE016B5E7F4F83E293E00E949E
:104EE0009B18882309F40FCE6091040470E0898137
:104EF0009A810E94B63070931204609311040E944C
:104F0000F4099093100480930F04FDCD65E679E0D9
:104F100018CE80912303082E000C990B0E94443375
:104F2000853409F4F0CD803509F4E6C0833409F006
:104F30002EC163EC77E0C6010E9427126BEC71E092
:104F4000788F6F8B03E414E038EFE32E33E0F32E19
:104F500066EB77E0C6010E946D0AEF89F88D6191DA
:104F60007191F88FEF8BC6010E94421463EA77E0DB
:104F7000C6010E946D0A20910404F801808191818C
:104F8000289FB001299F700D11244AE050E0C6010E
:104F90000E949E1162E977E0C6010E946D0A20918D
:104FA0000404F80184819581289FB001299F700D28
:104FB00011244AE050E0C6010E949E1161E877E0AA
:104FC000C6010E946D0AF801668177814AE050E0CF
:104FD000C6010E949E1160E777E0C6010E946D0A3B
:104FE000F801608571854AE050E0C6010E949E117B
:104FF0006FE577E0C6010E946D0AF801648575854A
:105000004AE050E0C6010E949E116EE477E0C601BE
:105010000E946D0AF801668577854AE050E0C60176
:105020000E949E116FE277E0C6010E94271247019D
:10503000312CF401258D368D438D548D632DC601A1
:105040000E94B0113394F4E08F0E911C24E03212D0
:10505000F0CF6FE177E0C6010E9427124701312CA3
:10506000F401258D368D43A554A5632DC6010E94FC
:10507000B0113394F4E08F0E911C24E03212F0CF83
:1050800061E177E0C6010E9427124701312CF4014B
:10509000258D368D43AD54AD632DC6010E94B011F0
:1050A0003394F4E08F0E911C24E03212F0CF0F5BAA
:1050B0001F4F31E4E30EF11C6F89788D655D7140FF
:1050C00009F046CF69EF76E0C6010E94271228E575
:1050D000E22E25E0F22E10E0F7012281338140819B
:1050E0005181612FC6010E94B0111F5FF4E0EF0EE5
:1050F000F11C143089F707CDC6010E94881168E2BF
:1051000078E0C6010E946D0A60916A0170916B019E
:105110004AE050E0C6010E949E1164E178E0C601B9
:105120000E946D0A4AE050E060916C01C6010E9445
:10513000E81160E078E0C6010E946D0A4AE050E0A4
:1051400060910804C6010E94E8116CEE77E0C60188
:105150000E946D0A2091040480917D0190917E014E
:10516000289FB001299F700D1124C6010E948C1147
:1051700066ED77E0C6010E946D0A60914D03709163
:105180004E0340E150E0C6010E949E11BCCC6BEE84
:1051900076E0C6010E942712C6010E94881166E7C8
:1051A00076E0C6010E94271268E676E0C6010E94FA
:1051B0006D0A60E772E0C6010E94FA11C6010E9402
:1051C000881166E576E0C6010E9427126EE276E05D
:1051D000C6010E94271263E076E0C6010E942712F2
:1051E00063ED75E0C6010E946D0A4AE050E06091EF
:1051F0000904C6010E94E81163EA75E0C6010E9435
:105200006D0A4AE050E060910A04C6010E94E8116C
:1052100068E875E0C6010E94271268E575E0C601DE
:105220000E946D0A6091020470910304C6010E94FD
:105230008C1168E275E0C6010E946D0A60916805F4
:10524000709169054AE050E0C6010E949E1168EF26
:1052500074E0C6010E946D0A4AE050E060910404C7
:10526000C6010E94E81168EC74E0C6010E946D0A54
:105270008091020490910304B89EF001B99EF00D54
:105280001124ED5BFB4F2091040480819181289FC4
:10529000B001299F700D11244AE050E0C6010E9420
:1052A0009E1168E974E0C6010E946D0A80910204B3
:1052B00090910304B89EF001B99EF00D1124E95BB2
:1052C000FB4F2091040480819181289FB001299F88
:1052D000700D11244AE050E0C6010E949E1168E65C
:1052E00074E0C6010E946D0A4AE050E06091080433
:1052F000C6010E94E81168E374E0C6010E946D0ACD
:105300008091FE039091FF036CE370E00E94B63041
:105310004AE050E0C6010E949E1168E074E0C601B8
:105320000E946D0A2091040480910D0490910E0456
:10533000289FB001299F700D11244AE050E0C6015A
:105340000E949E116CEE73E0C6010E946D0A60918E
:105350000B0470910C044AE050E0C6010E94351124
:105360006AEE73E0C6010E9427126AEB73E0C60181
:105370000E946D0A209104048091110490911204FE
:10538000289FB001299F700D11244AE050E0C6010A
:105390000E949E116DE973E0C6010E946D0A609142
:1053A0000F04709110044AE050E0C6010E943511CC
:1053B0006BE973E0C6010E9427126BE673E0C60139
:1053C0000E946D0A4AE050E060910504C6010E9407
:1053D000E8116BE373E0C6010E946D0A609100045E
:1053E000709101044AE050E0C6010E949E1169E0FC
:1053F00073E0C6010E946D0A40E150E060916A05C9
:10540000C6010E94E8116AEE72E0C6010E942712EE
:105410006AEC72E0C6010E94271269EA72E0C601D6
:105420000E9427126AE872E0C6010E94271262E613
:1054300072E0C6010E94271263E372E0C6010E9477
:10544000271200914D0310914E0340910404809166
:105450007D0190917E01489F9001499F300D11245C
:1054600040916A0150916B0160916C01C6010E94EC
:105470004A1462ED76E0C6010E94271267EB76E0DF
:10548000C6010E9427126EE976E0C6010E9427122B
:105490006EE876E0C6010E9427124AE065E771E0F7
:1054A000CE0101960E943B161C861B861E861D8619
:1054B000188A1F8641E150E066E872E0CE010B9643
:1054C0000E9412160D811E81E980FA80E114F10418
:1054D00041F101151105B1F08F859889080F191F49
:1054E000B801CE010B960E94B3158823D1F02B850D
:1054F0003C858F859889B701820F931F0E94553391
:10550000188B0F87BE01655F7F4FC6010E940C128A
:10551000CE010B960E943316CE0101960E943316DF
:10552000F2CACE010B960E94DB15ECCF90E080E032
:105530000E94701065E479E0C6010E942712E3CA58
:1055400080912303082E000C990B0E94443385356B
:105550009105A1F490E080E00E9456106EE279E09F
:10556000C6010E94271280916A05982F917090932E
:1055700076018695817080934303C5CA8335910572
:1055800089F480912403082E000C990B0E94443367
:105590008634910541F780E991E00E94701066E041
:1055A00079E0DECF86349105A1F461EF78E0C601A1
:1055B0000E94271210E000E06FEFC8010E949830AF
:1055C0000F5F1F4F011524E01207B1F76CEE78E072
:1055D000C7CF80E991E00E94561067E978E0C0CF1C
:1055E00068E972E089E296E00E94FA1183E090E0B7
:1055F00090936E0580936D0588E19BE00FB6F8945B
:10560000A895809360000FBE9093600062E370E005
:1056100080E090E00E94B60963E172E089E296E0E2
:105620000E94FA11F3CF6DE172E0C6010E946D0A8B
:1056300010E000E0F12CE12C912CC8018E0D9F1D93
:105640000E9490308F3F11F0992493943FEFE31A1A
:10565000F30A60E1E616F10481F70115110519F06E
:10566000992009F449C068E172E0C6010E946D0A00
:1056700066E172E0C6010E946D0A0F3F110509F054
:1056800068F464E172E0C6010E946D0A0031110500
:1056900028F462E172E0C6010E946D0A40E150E028
:1056A000B801C6010E94351160E172E0C6010E9496
:1056B0006D0A7801912CC7010E949030882E7FE0FE
:1056C000781728F06EE072E0C6010E946D0A40E192
:1056D00050E0682DC6010E943B118FE0981629F01A
:1056E0006CE072E0C6010E946D0A9FEFE91AF90AA8
:1056F0009394E0E19E12DFCF005F1F4F0115F4E0AD
:105700001F0709F097CF68EF71E0C6010E946D0A8C
:10571000FAC91092F70310922203F7C96CE67BE0F6
:105720008CE895E009CA89E796E00E94900C1091F8
:10573000820680918106811114C040927D065092AC
:105740007E0660927F06709280060E94E809609350
:10575000790670937A0680937B0690937C06A092DC
:10576000810610928206112309F4DFC180914F0354
:105770009091500301969093500380934F030E94A1
:1057800039121091980681E090910904111102C01C
:1057900090910A04911101C080E04091F203509170
:1057A000F30320917A0130917B0190917C01882351
:1057B00009F45EC290936C0150934E0340934D03E5
:1057C00030936B0120936A0120914D0330914E0379
:1057D0008091490390914A0328173907E9F4909181
:1057E0006C0180914803981317C020916A01309191
:1057F0006B0180914603909147032817390761F4A4
:10580000209100043091010480914F039091500346
:105810002817390708F0F6C060E088E00E942709E1
:10582000112341F08091970699E2E92E96E0F92E36
:10583000811104C08CE8E82E85E0F82E41E050E0AC
:105840006CE671E08CE090E00E94F60E90934503C8
:10585000809344038091430381115AC0809198063C
:10586000882309F44CC280919706882309F447C223
:105870006DEA7CE089E296E00E946D0A00914D039A
:1058800010914E034091040480917D0190917E011E
:10589000489F9001499F300D112440916A01509119
:1058A0006B0160916C01C7010E944A1480919806B7
:1058B000882309F429C280919706882309F424C219
:1058C00069E87CE089E296E00E946D0A60914403F9
:1058D0007091450380919806882309F41AC280913B
:1058E0009706882309F415C289E296E00E94F91010
:1058F0008091980665E172E0882309F40DC28091D9
:105900009706882309F408C289E296E00E944214AF
:105910008091F103882379F11091430342E050E034
:105920006AE671E08DE090E00E94F60EBC01909373
:1059300045038093440311111EC08091980688236B
:1059400009F4EDC180919706882309F4E8C189E242
:1059500096E00E94F9108091980665E172E0882334
:1059600009F4E0C180919706882309F4DBC189E23C
:1059700096E00E94421442E050E06DE473E087E05C
:1059800090E00E94F60EBC0190934503809344037F
:105990008091430381110EC080919806882309F4F9
:1059A000C4C180919706882309F4BFC189E296E0BB
:1059B0000E948C1161E088E00E9427091092500338
:1059C00010924F0380914D0390914E0390934A03A0
:1059D0008093490380916C018093480380916A0110
:1059E00090916B0190934703809346038091440309
:1059F0009091450397FD9CC181E090E09093420314
:105A00008093410380914303811131C080917601DD
:105A1000882381F080919806882309F48CC18091B5
:105A20009706882309F487C164E67CE089E296E062
:105A30000E946D0A809176018823C9F020910404A8
:105A400080917D0190917E01289FB001299F700D6A
:105A5000112480919806882309F472C180919706D9
:105A6000882309F46DC189E296E00E948C1180912F
:105A70007403882309F452C08091430381114AC002
:105A800080919806882309F45EC180919706882347
:105A900009F459C163E37CE089E296E00E946D0A53
:105AA000609173038091980640E150E0882309F4E7
:105AB0004FC180919706882309F44AC189E296E094
:105AC0000E943B1180919806882309F444C180917B
:105AD0009706882309F43FC162E07CE089E296E002
