:100000000C943D080C9465080C9465080C946508E4
:100010000C9465080C9465080C9465080C946508AC
:100020000C9465080C9465080C94871E0C94161F9C
:100030000C94621D0C9465080C9465080C9465087A
:100040000C9465080C9465080C9465080C9465087C
:100050000C9465080C9465080C9465080C94C01CFD
:100060000C9465080C94301D0C940A1D0C946508C2
:100070000C9465080C9465080C9465080C9465084C
:100080000C9465080C9465080C9465080C9465083C
:100090000C946C1D0C9465080C9465080C94650810
:1000A0000C9465080C9465080C9465082C20537416
:1000B00061747573203D203078002C2042617456A5
:1000C0003A20002C204261745620496E7465726E8D
:1000D000616C3A20003A00252C20004261747420A3
:1000E00052656D61696E696E67203D2000526573CF
:1000F000746F72656420666163746F7279206465E1
:100100006661756C74732E00526573746F726564EA
:1001100020666163746F72792064656661756C74C2
:10012000732E000403090441726475696E6F204CDC
:100130004C430041726475696E6F204C656F6E614F
:1001400072646F005553424344434E656564656471
:100150003A20005553424344434E65656465643A12
:1001600020004D79436F6F6C5550530050624163CE
:1001700000555053313000454550524F4D206E6F61
:100180007420696E697427642E205573696E672028
:10019000436F6D70696C65642044656661756C744D
:1001A000732E00476F6F643A20454550524F4D20E3
:1001B000697320696E697469616C697A65642E007F
:1001C0000D0A24242D454E4420454550524F4D0DD7
:1001D0000A0D0A00200030002000300030003000FE
:1001E0000D0A2420000D0A24242D454550524F4D60
:1001F00020434F4E54454E54533A005A5346202DF7
:10020000205361766520466163746F72792064655E
:100210006661756C74732028466163746F7279200F
:10022000757365206F6E6C7929005A4344202D2028
:10023000526573746F726520636F6D70696C65646D
:1002400020666163746F72792064656661756C7491
:1002500073005A2020202D20526573746F72652020
:10026000666163746F72792064656661756C74731E
:1002700000447820202020202D20446562756720CE
:10028000666C6167732028696E20686578616465B3
:1002900063696D616C2920202020202020203A20D5
:1002A00030780054526E6E2020202D205265706FE1
:1002B0007274206576657279206E6E207365636F47
:1002C0006E64732020202020202020202020202049
:1002D0003A200042596E6E2020202D2064656C74F7
:1002E000612063656E74692D566F6C74732062654E
:1002F000666F7265207265706F7274696E67202018
:100300003A2000290020202020202020202020200A
:1003100020202020202020202020202020202020DD
:100320006952656D6E43617061636974794C696D82
:1003300069743A200029002020202020202020203D
:1003400028486967682056204132442076616C75E0
:10035000653A200020562A3130300043486E6E6ED8
:100360006E202D2043616C6962726174652068693A
:10037000676820766F6C7461676520706F696E7452
:100380002028562A313030293A2000290020202008
:10039000202020202020284C6F77205620413244F6
:1003A0002076616C75653A200020562A3130300085
:1003B000434C6E6E6E6E202D2043616C69627261DB
:1003C0007465206C6F7720766F6C74616765207040
:1003D0006F696E742028562A31303029203A200067
:1003E00054536E6E6E6E202D205368757420646FAA
:1003F000776E2061742074686973206D616E792056
:100400006D696E75746573206C656674203A2000A2
:1004100042446E6E6E6E202D205368757420446FBA
:10042000776E206174206261747465727920766FD2
:100430006C746167652028562A313030293A2000D3
:1004400042466E6E6E6E202D204261747465727924
:100450002046756C6C2043686172676520766F6C0E
:1004600074616765202028562A313030293A2000EF
:1004700042566E202020202D204261742053797333
:1004800074656D20566F6C747320313D3132562087
:10049000323D32345620343D34385620203A200044
:1004A000544D6E6E6E6E202D2053797374656D20E1
:1004B00064657369676E2063617061636974792034
:1004C000696E204D696E757465732020203A200096
:1004D00020202020202020202020202020303D50BF
:1004E00062416320313D4C692D496F6E20323D4C95
:1004F000465020333D41474D20202020203A200007
:1005000042436E202020202D204261747465727950
:10051000204368656D697374727900454E526E2090
:1005200020202D205768696C6520696E204E6F72FF
:100530006D616C2072756E206D6F646520202020C7
:1005400020202020202020203A2000454E436E20ED
:1005500020202D205768696C6520696E20436F6EDE
:10056000666967206D6F6465202020202020202090
:1005700020202020202020203A2000202020283069
:100580003D4E6F205043207265706F7274696E67C4
:100590002F73687574646F776E2E20313D456E61E0
:1005A000626C65642900456E61626C6520726570DD
:1005B0006F7274696E672F53687574646F776E20FD
:1005C000746F20746F20746865205043200050724F
:1005D0006573656E742053657474696E67733A0051
:1005E000436F6D70696C65642061743A2000536DCF
:1005F0006172742055505320456D756C61746F7233
:100600002076302E31002320202D2057446F672084
:100610005265736574005A55202D20526573746FAE
:100620007265205573657220436F6E666967005A64
:1006300020202D20526573746F72652046616374AB
:100640006F72792044656661756C7473004843204D
:100650002D2053686F77204361706163697479203E
:10066000636F6E66696773004850202D2053686F72
:10067000772048494420506172616D6574657273DA
:10068000000A2D2D2D2D4D656E752D2D2D2D002043
:100690003D2043617061636974793A2000566F6C44
:1006A00074733A20000A0D557365722044697363B0
:1006B00068617267652043757276653A00203D2057
:1006C00043617061636974793A2000566F6C74738A
:1006D0003A20004368617267652043757276653A17
:1006E00000203D2043617061636974793A200056AF
:1006F0006F6C74733A20004C6F77446973636820A1
:1007000043757276653A00203D20436170616369EC
:1007100074793A2000566F6C74733A20004869442B
:1007200069736368204361706163697479204375FC
:1007300072766520706F696E74733A006C6F5261E7
:10074000746544697363684D696E3A200068695244
:1007500061746544697363684D696E3A200069731A
:100760004469734368617267696E67563A2000692D
:10077000734368617267696E67566F6C743A2000E4
:1007800073687574646F776E566F6C7461673A2026
:10079000000A0D2062617446756C6C566F6C746152
:1007A00067653A000A0D42617420547970653A20F9
:1007B000004368656D697374727920436F6E666972
:1007C00067733A006950726573656E74537461742F
:1007D00075732020203A20307800626174566F6C67
:1007E00074616765202020202020203A2000524597
:1007F0004D4E43415041434954594C494D49543A57
:10080000200052454D41494E494E474341504143D6
:100810004954593A200052554E54494D45544F457C
:100820004D5054592020203A20004820666F7220F5
:1008300048656C700A005D2E000A556E6B6E6F770E
:100840006E20636F6D6D616E64205B004849445F8C
:10085000494E544552464143453A20004344435F84
:1008600041434D5F494E544552464143453A20006D
:1008700042616420636F6D6D616E642E2053686FFA
:10088000756C64206265204E4C206F72204E4800CB
:10089000446562756720466C6167732028313A4D64
:1008A00061696E29000A526573746F72656420462F
:1008B0006163746F72792044656661756C74732E20
:1008C0002E2E0D0A204D75737420646F2027532738
:1008D00020746F207361766520746F2045455052F7
:1008E0004F4D20286E6F6E2D766F6C6174696C654C
:1008F000206D656D6F7279292E00446F6E65000A58
:10090000464620746F20616C6C20454550524F4D17
:100910002E2E2E000A526573746F72656420557313
:10092000657220436F6E6669670A000A53617665D7
:1009300064206E65772076616C7565287329207454
:100940006F20466163746F72792044656661756CCF
:10095000740A000A526573746F72656420436F6D88
:1009600070696C656420466163746F7279204465B8
:100970006661756C747321000A5361766564206E3C
:1009800065772076616C756528732920746F204522
:100990004550524F4D2E0A004552524F523A204276
:1009A0006164204220284261747465727929206351
:1009B0006F6D6D616E643A2000562A313030206FC1
:1009C000662068696768657220766F6C7461676518
:1009D00000562A313030206F66206C6F7720766F9A
:1009E0006C74616765004552524F523A204261640F
:1009F0002054696D6520636F6D6D616E643A2000EF
:100A00005265706F727420746F20686F7374206504
:100A100076657279207365636F6E647300537973C2
:100A200074656D204361706163697479204D696EEE
:100A3000757465730053687574646F776E206174A4
:100A4000204D696E75746573204C6566740045525F
:100A5000524F523A2042616420422028426174740D
:100A60006572792920636F6D6D616E643A20004272
:100A700061742056204879737465726573697320B8
:100A80006265666F7265207265706F7274696E67F9
:100A900000313D31325620323D32345620343D341F
:100AA000385600426174204368656D6973747279C9
:100AB0003A20303D5062416320313D4C692D496FF1
:100AC0006E20323D4C465020333D41474D00536827
:100AD0007574646F776E20617420426174746572FE
:100AE00079205600426174746572792046756C6C89
:100AF000204368617267652056004552524F523A52
:100B00002042616420454E61626C6520636F6D6DAB
:100B1000616E6420636F6D6D616E643A2000436F97
:100B20006E666967204D6F64653A20456E61626C40
:100B300065205043205265706F7274696E672F5341
:100B4000687574646F776E0052756E20284E6F72F0
:100B50006D616C29204D6F64653A20456E61626C51
:100B600065205043205265706F7274696E672F5311
:100B7000687574646F776E000A436D643A20000AEA
:100B8000436D643A20005D005D005B005B006952CC
:100B9000656D6E43617061636974794C696D6974E8
:100BA000204348414E4745442C206E6F773A200041
:100BB0006952656D6E43617061636974794C696DEA
:100BC0006974204348414E4745442C206E6F773A64
:100BD0002000202849676E6F726564290023232056
:100BE00050432053657474696E672052454D4E43DF
:100BF000415041434954594C494D495420746F2048
:100C0000307800202849676E6F72656429002028BB
:100C100049676E6F72656429002323205043205377
:100C2000657474696E672052454D4E43415041438F
:100C30004954594C494D495420746F203078002351
:100C4000232050432053657474696E672052454DCC
:100C50004E43415041434954594C494D49542074E5
:100C60006F20307800426174562A3130303A2000CB
:100C7000426174562A3130303A2000436F6D6D73F3
:100C8000207769746820504320286E65673D626153
:100C900064293A2000436F6D6D7320776974682072
:100CA000504320286E65673D626164293A200053F5
:100CB000656E64696E673A200053656E64696E679D
:100CC0003A2000232053656E7365643A2000232088
:100CD00053656E7365643A2000000000002400270D
:100CE000002A002D00300000000000250028002B05
:100CF000002E003100000000002300260029002CF7
:100D0000002F000404040404030405020202020488
:100D10000302020202060606060606040402020296
:100D200004040408020110408040102040804080EC
:100D30000802040180402010020110801020404071
:100D4000200000000200090F0000030401000C0055
:100D50000000000000000000000000000000000093
:100D600073687574646F776E20696D6D696E656EFA
:100D7000740073687574646F776E20696D6D696E49
:100D8000656E740073687574646F776E2072657138
:100D90007565737465640073687574646F776E202D
:100DA000726571756573746564002C2042617456B8
:100DB0003D002C20426174563D0053687574646F89
:100DC000776E206E6F77212052747465207365638F
:100DD0006F6E64733D0053687574646F776E206E38
:100DE0006F77212052747465207365636F6E64732E
:100DF0003D00070605040100080A0B0C0D095052BE
:100E00004F4752414D4D494E47204552524F523A5D
:100E1000204D61782076616C7565203C3D204D69E0
:100E20006E2056616C756520666F72207570646106
:100E3000746546726F6D55736572496E7075742E68
:100E40002050726F7669646564206D696E207761E9
:100E5000733A2000446F6E277420666F7267657462
:100E600020746F2028532961766520746865206E90
:100E700065772076616C7565210030780020736598
:100E80007420746F3A20004E657720003078004F50
:100E90006C642076616C7565207761733A20002E52
:100EA0000A00222076616C756521204D696E2069EB
:100EB0007320004572726F723A20496E76616C69D8
:100EC000642022002E0A002076616C756521204D79
:100ED000617820697320004572726F723A20496E02
:100EE00076616C6964200005840904A1010924A1CC
:100EF0000275089501150026FF00850109FE79029B
:100F0000B123850209FF7903B123850309FD790126
:100F1000B12305858506098BB123851F09897904CD
:100F2000B1238520098F7905B1238516092CB123BA
:100F30008510098D266400B1228518098EB123859C
:100F40000E0967B18385170983B183850C09668112
:100F5000A30966B1A3850F098CB1A285110929B136
:100F6000A285090985751027FFFF0000B1A3851A26
:100F7000096A27FFFF00006601105500B1A3851C18
:100F8000096981A30969B1A3850D096881A309686D
:100F9000B1A38508092A751027640500001678009A
:100FA0008122092AB1A205848512095716008027DB
:100FB000FF7F0000B1A285130955B1A2850A09403F
:100FC000150027FFFF00006721D1F0005505B12370
:100FD000850B093081A30930B1A38514095A75081E
:100FE00015012503650055008122095AB1A20902A5
:100FF000A10285070585094475011500250181A316
:101000000944B1A3094581A30945B1A309D081A32E
:1010100009D0B1A309D181A309D1B1A3094281A308
:101020000942B1A3094381A20943B1A2094B81A39B
:10103000094BB1A309DB81A309DBB1A3094681A355
:101040000946B1A3094781A30947B1A305840968EB
:1010500081A20968B1A2096981A30969B1A30973D1
:1010600081A30973B1A3096581A30965B1A39502A1
:101070008101B101C0C0C0008F2111241FBECFEF7C
:10108000DAE0DEBFCDBF13E0A0E0B1E0E0EBF9E6CF
:1010900002C005900D92A033B107D9F726E0A0E376
:1010A000B3E001C01D92A93CB207E1F718E0CDE31F
:1010B000D8E004C02197FE010E94D632CC33D1077C
:1010C000C9F70E9479220C94D6340C940000E7EF03
:1010D000FDE0E49190917B008E2F880F880F807245
:1010E0009F7D892B80937B00E770E064E0937C0018
:1010F00080917A00806480937A0080917A0086FDE6
:10110000FCCF80917800909179000895FC01809146
:101110001204882311F13FB7F89482E08093E9002C
:101120002091F200822F90E01816190614F481E045
:1011300090E0882339F0289844E6409311044091C8
:10114000F1004083222339F02091F200211103C0E5
:101150002BE62093E8003FBF08958FEF9FEF08959F
:1011600083E08093E9008091F200882319F08AE3FC
:101170008093E800089581508F3008F047C0E82F31
:10118000F0E0EB53F74F0C94D632E208E608D408AF
:10119000DA08DE08060906090609E908EF08F30877
:1011A000F708FD0806090109809180008F77809378
:1011B00080000895809180008F7DF9CF809180001C
:1011C000877FF5CF84B58F7784BD089584B58F7DF3
:1011D000FBCF809190008F7780939000089580914D
:1011E00090008F7DF9CF80919000877FF5CF80911F
:1011F000C0008F778093C00008958091C0008F7DDC
:10120000F9CF8091C200877F8093C2000895CF9369
:10121000DF93E3E4FDE08491E4E2FDE0D491E5E0D6
:10122000FDE0C491CC23A1F081110E94BB08EC2FFA
:10123000F0E0EE0FFF1FEB50F34FA591B491EC914E
:10124000ED2381E090E009F480E0DF91CF910895F3
:1012500080E090E0FACF1F93CF93DF93282F30E008
:10126000F901EF5BF24F8491F901EE5DF24FD491F9
:10127000F901ED5FF24FC491CC23A9F0162F811133
:101280000E94BB08EC2FF0E0EE0FFF1FE951F34F77
:10129000A591B4918FB7F894EC91111108C0D09535
:1012A000DE23DC938FBFDF91CF911F910895DE2B5A
:1012B000F8CFCF93DF9390E0FC01EE5DF24F2491E5
:1012C0008D5F924FFC0184918823C9F090E0880FD4
:1012D000991FFC01E752F34FA591B491FC01E9512C
:1012E000F34FC591D49161110DC09FB7F8948C91C3
:1012F000209582238C938881282328839FBFDF91A8
:10130000CF910895623051F49FB7F8943C91822FA9
:10131000809583238C93E8812E2BEFCF8FB7F894A1
:10132000EC912E2B2C938FBFEACF3FB7F89480918E
:101330000D0490910E04A0910F04B091100426B5F5
:10134000A89B05C02F3F19F00196A11DB11D3FBFFD
:10135000BA2FA92F982F8827BC01CD01620F711DCC
:10136000811D911D42E0660F771F881F991F4A95C6
:10137000D1F708958F929F92AF92BF92CF92DF9252
:10138000EF92FF924B015C010E9495096B017C0179
:101390000E9495096C197D098E099F09683E73406A
:1013A00081059105A8F321E0821A9108A108B108EE
:1013B00088EEC80E83E0D81EE11CF11C8114910454
:1013C000A104B10429F7FF90EF90DF90CF90BF9078
:1013D000AF909F908F9008952FB7F8946091090473
:1013E00070910A0480910B0490910C042FBF089512
:1013F0004F925F926F927F928F929F92AF92BF9225
:10140000CF92DF92EF92FF922091BA062223D1F180
:101410008091B9068823D9F18BE496E02223A1F1CB
:101420002091B906EBE4F6E0222371F10190F081FE
:10143000E02D0680F781E02D09950E94EC092B0133
:101440003C01C12CD12C7601812C912C54010E949D
:10145000EC096419750986099709653671058105D6
:101460009105C0F00E946708092E000CAA0BBB0B67
:10147000880E991EAA1EBB1E8FEFC81AD80AE80A4A
:10148000F80AE5CF8EEA95E0EEEAF5E0CFCF8EEAF6
:1014900095E0C4CFC114D104E104F10471F4FF90CC
:1014A000EF90DF90CF90BF90AF909F908F907F9004
:1014B0006F905F904F900C946708C501B401A7012D
:1014C00096010E944432C901FF90EF90DF90CF90C7
:1014D000BF90AF909F908F907F906F905F904F9054
:1014E0000895EF92FF920F931F93CF93DF938C0198
:1014F0007B01D0E0C0E0F701EC0FFD1F6491662393
:1015000061F0D801ED91FC910190F081E02DC801CE
:101510000995892B11F02196EECFCE01DF91CF9165
:101520001F910F91FF90EF900895AF92BF92CF92CD
:10153000DF92EF92FF920F931F93CF93DF936C0193
:101540007B018B01040F151FEB015E01AE18BF0874
:10155000C017D10759F06991D601ED91FC91019026
:10156000F081E02DC6010995892B79F7C501DF913E
:10157000CF911F910F91FF90EF90DF90CF90BF9090
:10158000AF900895FC01538D448D252F30E0842FBA
:1015900090E0821B930B541710F0CF96089501979B
:1015A0000895FC01918D828D981761F0A28DAE0F88
:1015B000BF2FB11D5D968C91928D9F5F9F73928F0F
:1015C00090E008958FEF9FEF0895FC01918D828D3B
:1015D000981731F0828DE80FF11D858D90E0089508
:1015E0008FEF9FEF0895FC01918D228D892F90E060
:1015F000805C9F4F821B91098F73992708958EEA13
:1016000095E00E94F30A21E0892B09F420E0822F63
:101610000895FC01A48DA80FB92FB11DA35ABF4F87
:101620002C91848D90E001968F739927848FA689E1
:10163000B7892C93A089B1898C9182748C93938DF6
:10164000848D981306C00288F389E02D80818F7DF8
:1016500080830895EF92FF920F931F93CF93DF93B0
:10166000EC0181E0888F9B8D8C8D981319C0E889DF
:10167000F989808185FF14C09FB7F894EE89FF89AE
:101680006083E889F9898081827480839FBF81E0CB
:1016900090E0DF91CF911F910F91FF90EF9008950F
:1016A000F62E0B8D10E00F5F1F4F0F731127E02EEA
:1016B0008C8D8E110CC00FB607FCFACFE889F98922
:1016C000808185FFF5CFCE010E94090BF1CFEB8D14
:1016D000EC0FFD2FF11DE35AFF4FF0829FB7F894F6
:1016E0000B8FEA89FB8980818062CFCFCF93DF9314
:1016F000EC01888D8823B9F0AA89BB89E889F9892A
:101700008C9185FD03C0808186FD0DC00FB607FC5E
:10171000F7CF8C9185FFF2CF808185FFEDCFCE0191
:101720000E94090BE9CFDF91CF91089580E090E00E
:10173000892B29F00E94FF0A81110C940000089562
:101740002091BE03260F3327331F21323105ECF4DD
:101750002091E203FC0190E080E0243069F082E017
:101760000895A091BE032191AC0142565C4FA40F95
:10177000B52FB11D2C930196861798F38091BE0367
:10178000680F6093BE0380E0089581E00895089596
:101790008FEF9FEF08958FEF9FEF0895809197034C
:1017A00090E09195819591090895CF93DF93CB01B6
:1017B000EA01642F0E94A00BCE01DF91CF91089522
:1017C000CF93DF931F92CDB7DEB7698361E0CE017F
:1017D00001960E94A00B81E090E00F90DF91CF91E5
:1017E000089590E080E008950F931F93CF93DF93C7
:1017F000EC010E94EC09088119812A813B81601B60
:10180000710B820B930B0C811D812E813F8106177A
:1018100017072807390730F48885882319F01886B8
:1018200081E08987DF91CF911F910F910895DC01AD
:101830005296ED91FC9130E020E03097A1F0DC0170
:1018400054964D915C912417350758F44281538189
:101850004617570741F00190F081E02D2F5F3F4F71
:10186000ECCFF0E0E0E0CF0108950C94B008409197
:101870003E0350913F0320913C0330913D034217BA
:101880005307B4F49091E8009570E1F39091E8006B
:1018900092FD19C08093F10080913E0390913F0327
:1018A00001968F739927892B19F48EEF8093E800A6
:1018B00080913E0390913F03019690933F03809364
:1018C0003E0381E0089580E00895DF92EF92FF9259
:1018D0000F931F93CF93DF93D82E8A01EB017B01E7
:1018E000E40EF51ECE15DF0559F0D7FE12C0FE013D
:1018F00084910E94370C21968111F4CF0FEF1FEFD6
:10190000C801DF91CF911F910F91FF90EF90DF9071
:1019100008958881EECFCF93DF93CDB7DEB7A09740
:101920000FB6F894DEBF0FBECDBFFC01DB018C917A
:101930008F5F8C939E012D5F3F4F88E0D9011D92F0
:101940008A95E9F799E0998384E08A8322E02D83E0
:1019500083E08E839A8731E23B8791E09C879D8765
:101960003E879F8792E2988B37E03B8B95E09C8B7C
:1019700044E84D8B8E8B40E450E0588F4F8B64E1F0
:10198000698F3A8F9B8F9C8F8D8F5F8F4E8F8AE0F0
:1019900088A382818B8396858785998B8A8B80919A
:1019A000BA06811103C081E88D8B2C8F40E250E094
:1019B000BE016F5F7F4F80E00E94650CA0960FB65E
:1019C000F894DEBF0FBECDBFDF91CF9108952FB742
:1019D000F89487708093E9009091E800892F8072D5
:1019E00095FF04C09091F20080E4891B2FBF0895F9
:1019F0008F929F92AF92BF92CF92DF92EF92FF921F
:101A00000F931F93CF93DF93B82E6B018A018091C0
:101A1000120481110FC08FEF9FEFDF91CF911F91C3
:101A20000F91FF90EF90DF90CF90BF90AF909F907D
:101A30008F9008958091420380FF05C08091E0005F
:101A400082608093E000C02FD12FF12C8AEFE82E26
:101A50008B2D8770982E8B2D8074882E9AE3A92E5B
:101A6000209719F4FF2009F443C08B2D0E94E70C46
:101A700081110AC0EA94EE2071F261E070E080E02A
:101A800090E00E94BA09ECCF8C171D0611F00CF003
:101A90008C2F9FB7F8949092E9002091E80025FDE3
:101AA00002C09FBFDDCF282F30E0C21BD30BF60151
:101AB000815020F041914093F100FACFC20ED31E25
:101AC000FF2021F0A092E800F12CEBCF8091E800FC
:101AD00085FD07C0A092E800FF24F394209709F346
:101AE000F3CF2097F1F68820E1F2A092E800D9CF59
:101AF0005D9884E680934103C8018FCF615030F038
:101B00002091F100FC0120830196F8CF289884E60B
:101B1000809311040895AF92BF92DF92EF92FF92EB
:101B20000F931F93CF93DF935C018B01EB019BEF2E
:101B3000D92E2097C1F07E01C134D1051CF080E47C
:101B4000E82EF12C8091E80082FFFCCFC8018C1BAD
:101B50009D0B6E2D8A0D9B1D0E947E0DD092E8007C
:101B6000CE19DF09E6CFC801DF91CF911F910F9108
:101B7000FF90EF90DF90BF90AF9008958091340375
:101B800081110DC082E08093300384E080933103A3
:101B9000109233031092320381E08093340380E388
:101BA00093E00895CF93DF9380918D03811172C0EC
:101BB00082E08093770381E0809378032DE733E020
:101BC00030937A032093790310927C0310927B0365
:101BD0002AE132E030937403209373031092800360
:101BE00010927F03109282031092810380938303EB
:101BF0008093840381EC80937D0380EC80937E034B
:101C00000E94BE0DEC01898190917703890F99277D
:101C1000991F0897E4F5EA81FB81309779F583E70E
:101C200093E09B838A8362E082E00E94590980915D
:101C3000BA06811137C00E940709892B81F11092E1
:101C4000750310927603888190917803890F8883B9
:101C50003091770390917903E92FF0917A038E2FD9
:101C6000891B8317A0F489812191A82FB0E0A35983
:101C7000BE4F2C938F5F8983F2CFFC0180859185C5
:101C80000097D9F783E793E091878087CCCF81E0F5
:101C900080938D0383E793E0DF91CF91089581E0F6
:101CA0008093BA0682E08093750384E08093760384
:101CB000CACFCF92DF92EF92FF920F931F93CF93F1
:101CC000DF9300D0CDB7DEB78C017B016A010E94A3
:101CD000D20D1A83098341E050E0BE016F5F7F4F50
:101CE00084E00E94F80C8C0197FD09C0A601B701A1
:101CF00084E40E94F80C080F191F97FD8C01C8019D
:101D00000F900F90DF91CF911F910F91FF90EF9067
:101D1000DF90CF9008950F931F93CF93DF931F927F
:101D2000CDB7DEB719828091BA06882349F082E0E8
:101D3000898342E450E060E071E080E00E94650C3D
:101D40000E94BE0DDC0112960D911C91011511052A
:101D500089F0D801ED91FC910280F381E02DBE0164
:101D60006F5F7F4FC801099597FD04C0F80100859A
:101D70001185ECCF89810F90DF91CF911F910F9149
:101D80000895CF93DF93EC0180915F01882331F0B8
:101D900083E00E94F80C1816190634F081E090E0F8
:101DA0009B838A8380E090E0DF91CF910895CF9369
:101DB000DF931F92CDB7DEB76983DC01ED91FC9113
:101DC0000280F381E02D41E050E0BE016F5F7F4F64
:101DD00009950F90DF91CF91089583E00E94E70C61
:101DE00090E00895CF93DF931F92CDB7DEB7FC014B
:101DF0008485958597FD08C02FEF3FEF35872487B1
:101E00000F90DF91CF910895CE0101960E94860830
:101E1000019719F4898190E0F3CF8FEF9FEFF0CF16
:101E20000F931F93CF93DF931F92CDB7DEB78C0133
:101E3000FC018485958597FF0BC0CE0101960E9419
:101E40008608019771F4898190E0F801958784876D
:101E5000F801848595850F90DF91CF911F910F91A7
:101E600008958FEF9FEFF1CFFC018485958597FD55
:101E70000BC09FB7F89482E08093E9008091F20054
:101E80009FBF90E0019608959FB7F89482E08093F9
:101E9000E9008091F2009FBF90E008954F925F9219
:101EA0006F927F928F929F92AF92BF92CF92DF926A
:101EB000EF92FF920F931F93CF93DF9340912404EF
:101EC0005091250421E4429FC0011124865E9B4F5E
:101ED000FC01E95AFF4F20813181875A9F4FFC0155
:101EE00080809180C0908A05D0908B0580E29DEF24
:101EF000F9E3CF16F4E0DF0630F46CE36C9DC0012B
:101F00006D9D900D112490931F0480931E0481E415
:101F1000849FE001859FD00D1124C65EDB4F0AE748
:101F200015E0C901B0E0A0E0F12CE12CC81AD90AF3
:101F3000EA0AFB0AB12CA12C881A990AAA0ABB0A40
:101F40004B8C5C8C712C612C2BA53CA550E040E0A7
:101F50002419350946095709C701B6010E942032E4
:101F6000A50194010E946632420E531E641E751E26
:101F7000F801518240824D8C5E8C712C612C2DA514
:101F80003EA550E040E02419350946095709C7012C
:101F9000B6010E942032A50194010E946632420ED1
:101FA000531E641E751EF8015382428224960C5FF4
:101FB0001F4FF5E00A381F0719F6DF91CF911F91E7
:101FC0000F91FF90EF90DF90CF90BF90AF909F90D8
:101FD0008F907F906F905F904F9008958F929F9217
:101FE000AF92BF92CF92DF92EF92FF920F931F9327
:101FF000CF93DF93DC01EB018C819D8120E0A8175A
:10200000B90738F08885998521E0A817B90708F045
:1020100022E030E02F5F3F4F220F331F220F331F8C
:10202000FE01E20FF31F24503109C20FD31FCA80F3
:10203000DB80F12CE12C88809980B12CA12C0281CD
:10204000138130E020E0A90198012C193D094E09C7
:102050005F09BD0190E080E0681979098A099B0950
:102060000E9420322081318150E040E02819390956
:102070004A095B090E946632C20ED31EE41EF51E99
:10208000C601D7FC14C096018536910514F024E6EC
:1020900030E0822FDF91CF911F910F91FF90EF9051
:1020A000DF90CF90BF90AF909F908F90089580E089
:1020B000F1CF0F931F93CF93DF93CAE1D4E08C014C
:1020C0000A511440C8018C0F9D1F0E940A32899347
:1020D00085E0CF38D807B1F78AE194E0DF91CF915E
:1020E0001F910F910895AF92BF92DF92EF92FF92EE
:1020F0000F931F93CF93DF935C010AE114E0D0E0CC
:10210000C0E0F801D1908F017501EC0EFD1EC701F2
:102110000E940A32D81621F06D2DC7010E9412329A
:102120002196C537F1E0DF0761F78AE194E0DF919E
:10213000CF911F910F91FF90EF90DF90BF90AF90E4
:102140000895FB0101900020E9F73197AF01461B8C
:10215000570BDC01ED91FC910280F381E02D099495
:102160008F929F92AF92BF92EF92FF920F931F9325
:10217000CF93DF93CDB7DEB7A1970FB6F894DEBF4C
:102180000FBECDBF7C01FA01CB0119A2223008F4A9
:102190002AE08E010F5D1F4F822E912CB12CA12CB5
:1021A000BF01A50194010E944432F901CA016A30BD
:1021B0000CF5605DD8016E938D01232B242B252B0C
:1021C00079F790E080E0109721F0BD01C7010E94EF
:1021D000A110A1960FB6F894DEBF0FBECDBFDF9160
:1021E000CF911F910F91FF90EF90BF90AF909F9074
:1021F0008F900895695CDECFCF92DF92EF92FF92CD
:102200000F931F93CF93DF936B01770FEE08FF08B7
:10221000F7FE1FC0EC01E881F9810190F081E02D0B
:102220006DE209958C0144275527BA014C195D09C7
:102230006E097F092AE0CE010E94B010800F911F25
:10224000DF91CF911F910F91FF90EF90DF90CF9092
:1022500008952AE0B701A601DF91CF911F910F9158
:10226000FF90EF90DF90CF900C94B0100C94B010D2
:102270009A01AB0170E060E00C9436119A01462F90
:1022800050E070E060E00C9436118F929F92AF9214
:10229000BF92CF92DF92EF92FF920F931F93CF9353
:1022A000DF937C01EB016C0182E0C80ED11C470179
:1022B000E5E08E0E911C10E000E0F60161916F01E7
:1022C0004AE050E0CE010E943E115C01E881F981B4
:1022D0000190F081E02D6EE2CE0109958A0D9B1DE3
:1022E000080F191FC814D90441F74AE050E0F7015C
:1022F0006581CE010E943E11800F911FDF91CF9129
:102300001F910F91FF90EF90DF90CF90BF90AF9013
:102310009F908F9008956CE472E00C94A1100F933D
:102320001F93CF93DF93EC010E94FC108C01CE0130
:102330000E948B11800F911FDF91CF911F910F9100
:1023400008950F931F93CF93DF93EC010E943811F0
:102350008C01CE010E948B11800F911FDF91CF91D4
:102360001F910F9108950F931F93CF93DF93EC016B
:102370000E943E118C01CE010E948B11800F911F93
:10238000DF91CF911F910F9108950F931F93CF93DA
:10239000DF93EC010E94A1108C01CE010E948B11F1
:1023A000800F911FDF91CF911F910F9108950F938F
:1023B0001F93CF93DF93EC01FB0144815581608132
:1023C0007181E881F9810280F381E02D09958C010A
:1023D000CE010E948B11800F911FDF91CF911F9131
:1023E0000F9108950F931F93CF93DF93EC010E94F9
:1023F000710A8C01CE010E948B11800F911FDF9119
:10240000CF911F910F9108958F929F92AF92BF929B
:10241000CF92DF92EF92FF920F931F93CF93DF93B0
:102420000E94F809C0902F04D0903004F12CE12CC8
:1024300080902D0490902E04B12CA12C2091330477
:102440003091340450E040E02C193D094E095F09F9
:10245000BC01990F880B990B681979098A099B09A6
:102460000E942032209131043091320450E040E04B
:10247000281939094A095B090E946632C20ED31E27
:10248000E41EF51ED7FC73C1D0928101C092800179
:10249000C0918001D091810180917F01882351F00A
:1024A000D0931804C0931704D0937E01C0937D018C
:1024B00010927F012091170430911804C9018C1BE0
:1024C0009D0B97FF03C09195819591094091270439
:1024D000481719067CF481E02C173D070CF080E0CA
:1024E00080931604D0931804C0931704D0937E01F0
:1024F000C0937D01009124041091250421E4209FC4
:10250000C001219F900D1124865E9B4FFC01EF5A64
:10251000FF4F208131812C173D070CF02DC181E048
:1025200080931604E0901604E0927501E092740125
:1025300081E0FE2CF826F092130480917D019091A9
:102540007E016AE775E0EE2041F021E4209FB001B2
:10255000219F700D11246B5A7B4F0E94EE0F8093C8
:102560007C01D0907C01A0918A05B0918B052D2D26
:1025700030E00E94C7329B01AC012434F6EA3F07E9
:10258000F1E04F07510508F403C180E29DEF9093FD
:102590007B0180937A018091140490911504EE20C0
:1025A00009F405C18560909315048093140480910B
:1025B00014049091150420917901D212FAC091600F
:1025C0009093150480931404809114049091150441
:1025D000FF2009F403C19C0122603093150420936D
:1025E0001404409120045091210420917A013091EB
:1025F0007B012417350770F021E4209FF001219F13
:10260000F00D1124E759FB4F20813181C217D30708
:102610000CF0E1C08091BA06882309F4CCC0809107
:10262000B906882309F4C7C066ED7DE08BE496E027
:102630000E94710A60917A0170917B018091BA06C3
:102640004AE050E0882309F4BBC08091B906882392
:1026500009F4B6C08BE496E00E9438118091BA0666
:10266000882309F4B0C08091B906882309F4ABC06F
:1026700062EB7DE08BE496E00E94710A609180013C
:10268000709181018091BA06882309F4A1C08091DC
:10269000B906882309F49CC08BE496E00E948F1150
:1026A0008091140490911504806290931504809396
:1026B00014048091140490911504209177013091B5
:1026C0007801121613060CF090C0946090931504D4
:1026D0008093140480917601882381F08091BA065A
:1026E000882309F47DC08091B906882309F478C055
:1026F00067E97DE08BE496E00E94F211809114047A
:10270000909115049C0120723470232B09F478C039
:102710009860909315048093140480917601882327
:1027200081F08091BA06882309F465C08091B906CA
:10273000882309F460C062E77DE08BE496E00E94A4
:10274000F2118091140490911504886090931504FF
:1027500080931404DF91CF911F910F91FF90EF9020
:10276000DF90CF90BF90AF909F908F900895109280
:102770008101109280018CCE8D5A9F4FFC01808187
:102780009181C817D9070CF0CDCE10921604CACE8D
:10279000ACE3B0E00E94853224E630E040E050E057
:1027A0000E94443230937B0120937A01F4CE8A7FD9
:1027B000FACE9E7F05CF6AEB7DE08EEA95E038CFBA
:1027C0008EEA95E049CF6AEA7DE08EEA95E054CF43
:1027D0008EEA95E063CF8F7D826067CF8D7D65CF78
:1027E00064E87DE08EEA95E087CF9B7F90931504A7
:1027F0008093140483CF60E67DE08EEA95E09FCF5E
:10280000977F90931504809314049BCF2F923F924F
:102810004F925F926F927F928F929F92AF92BF92F0
:10282000CF92DF92EF92FF920F931F93CF93DF939C
:1028300010928C058AEA80931A0485E580931B0424
:1028400081E095EA90938E0580938D05C0E2DCE1EE
:10285000D0931D04C0931C04D0931F04C0931E0486
:102860008CE291E090932104809320042AE030E0F0
:10287000309323042093220483E090E09093250476
:102880008093240481E08093260482E080932704CF
:1028900088E095E0909366048093650462EE74E0AE
:1028A000709368046093670444E754E050936A04AB
:1028B0004093690490936C0480936B0442E954E064
:1028C00050936E0440936D04D0937004C0936F04D2
:1028D00010927504EAE8F4E0F0933604E0933504CE
:1028E000109238041092370450933A0440933904FC
:1028F00030933C0420933B044EEF54E050933E044D
:1029000040933D044AE550E05093400440933F0417
:10291000909342048093410484E690E090934404B1
:1029200080934304ECEBF4E0F0934604E093450419
:102930001092480410924704E4ECF4E0F0934A0447
:10294000E093490430934C0420934B04E0E3F5E01A
:10295000F0934E04E0934D045093500440934F0481
:10296000EAE3F5E0F0935204E093510490935404A9
:1029700080935304EEEEF4E0F0935604E093550494
:102980001092580410925704E6EFF4E0F0935A04C2
:10299000E093590430935C0420935B04E2E6F5E095
:1029A000F0935E04E0935D045093600440935F04F1
:1029B0004CE655E0509362044093610490936404A4
:1029C000809363040FE010E010937204009371048D
:1029D00048E7A42EB12CB0927404A092730441E491
:1029E000E4ECF1E0A8EFB4E001900D924A95E1F734
:1029F000A0E5B5E0B093A704A093A6047093A90442
:102A00006093A80458ED852E54E0952E9092AB0467
:102A10008092AA04E5E56E2EE5E07E2E7092AD046C
:102A20006092AC04E0EBF4E0F093AF04E093AE040A
:102A3000D093B104C093B0041092B60448EE442E73
:102A400043E0542E50927704409276041092790419
:102A500010927804F0937B04E0937A0430937D0421
:102A600020937C0440E055E050937F0440937E0423
:102A700044E150E05093810440938004B093830478
:102A8000A093820490938504809384040F2EFAE12E
:102A90002F2EF4E03F2EF02D3092870420928604F2
:102AA000109289041092880470938B0460938A04B6
:102AB00030938D0420938C040F2EF2E3CF2EF5E09B
:102AC000DF2EF02DD0928F04C0928E04509391048B
:102AD000409390040F2EF2E8CF2EF5E0DF2EF02D7C
:102AE000D0929304C092920490939504809394049E
:102AF0000F2EFCE4CF2EF4E0DF2EF02DD0929704C1
:102B0000C092960410929904109298040F2EF4E14A
:102B1000EF2EF5E0FF2EF02DF0929B04E0929A0448
:102B200030939D0420939C0424E635E030939F0469
:102B300020939E045093A1044093A00424EB35E01D
:102B40003093A3042093A2049093A5048093A4043B
:102B50001093B3040093B204B092B504A092B404ED
:102B6000B093E804A093E7047093EA046093E90447
:102B70009092EC048092EB047092EE046092ED046B
:102B8000F093F004E093EF04D093F204C093F104C7
:102B90001092F7045092B8044092B7041092BA040D
:102BA0001092B904F093BC04E093BB0429E030E038
:102BB0003093BE042093BD04EAE0F5E0F093C00436
:102BC000E093BF045093C2044093C104E6E4F5E0EF
:102BD000F093C404E093C3049093C6048093C504A7
:102BE0003092C8042092C7041092CA041092C904FB
:102BF0007093CC046093CB043093CE042093CD0427
:102C00006CE375E07093D0046093CF045093D204CA
:102C10004093D10468E775E07093D4046093D304C3
:102C20009093D6048093D504D092D804C092D70450
:102C30001092DA041092D904F092DC04E092DB04E2
:102C40003093DE042093DD042EE635E03093E0047B
:102C50002093DF045093E2044093E1042AEA35E034
:102C60003093E4042093E3049093E6048093E50416
:102C70001093F4040093F304B092F604A092F504C8
:102C800081E4E8EFF4E0A9E3B5E001900D928A95C4
:102C9000E1F71092300410922F0410922E0410923B
:102CA0002D0470933404609333048FEF93E090937A
:102CB0003204809331048CE390E090938B058093F1
:102CC0008A050E944E0F8AE08093280485E0809355
:102CD0002A0410922B0481E080932C0480918C05AF
:102CE000982F9170909376018695817080936C03F4
:102CF00068E071E08EEA95E00E94F2118091BA06D8
:102D0000882311F1C0915F016AE070E080E090E0FB
:102D10000E94BA09CC23C1F06DEE70E08BE496E01E
:102D2000DF91CF911F910F91FF90EF90DF90CF90A7
:102D3000BF90AF909F908F907F906F905F904F90DB
:102D40003F902F900C94F211DF91CF911F910F9132
:102D5000FF90EF90DF90CF90BF90AF909F908F90BB
:102D60007F906F905F904F903F902F9008956115E6
:102D7000710511F00C94A11090E080E00895AF92DD
:102D8000BF92CF92DF92EF92FF920F931F93CF9358
:102D9000DF93EC01B62E6A0179016BED70E00E94C1
:102DA000710A4AE050E06B2DCE010E943E1167EDA2
:102DB00070E0CE010E94710AC6016CE370E00E94CF
:102DC00030326C014AE050E0CE010E94381165EDCE
:102DD00070E0CE010E94710A4AE050E0B601CE01D7
:102DE0000E94381163EC70E0CE010E94710A60917C
:102DF000800170918101CE010E94FC106AEB70E0AD
:102E0000CE010E94710A4AE050E0B701CE010E9453
:102E100038116CEA70E0CE010E94710A40E150E086
:102E2000B801CE010E9438118CEAC82E81E0D82E5C
:102E3000F12CE12CAA24A394B12CC5010E2C02C0C4
:102E4000880F991F0A94E2F780239123892B59F068
:102E50008BE06FE472E08E1518F0F60160817181ED
:102E6000CE010E94B716FFEFEF1AFF0A82E0C80EEC
:102E7000D11CEFE0EE16F10401F7CE010E948B1198
:102E8000E881F9810680F781E02DCE01DF91CF91B5
:102E90001F910F91FF90EF90DF90CF90BF90AF9078
:102EA0000994BF92CF92DF92EF92FF920F931F93FC
:102EB000CF93DF93DC01EB0158968D919C9159974C
:102EC000892BB9F08D01B12CCB2CD12CF801E08CE1
:102ED000F18CC7010E94C931C816D90610F5F70157
:102EE000EC0DFD1DE491DE01AC0DBD1DEC93B39422
:102EF000EBCF88E4888389E4898384E48A831E96FF
:102F00008C911E978F708F5B8B831E968D919C91F9
:102F100024E0969587952A95E1F78F708F5B8C83D7
:102F200085E0DF91CF911F910F91FF90EF90DF909F
:102F3000CF90BF900895CF92DF92EF92FF920F93C0
:102F40001F93CF93DF9300D0CDB7DEB77C01FB0199
:102F50001381133009F046C0628170E07F6F0E94D8
:102F6000170C009709F46AC0DC011496FC901497C2
:102F70001596DC908F2D9D2D0E94C931E82E1A8365
:102F800081E08E0D880F898342E050E0BE016F5FC3
:102F90007F4F80E00E94650CCF2C0F2D1D2D802FC0
:102FA0008C198E15E8F4F801849189831A8242E025
:102FB00050E0BE016F5F7F4F80E00E94650C0F5FA5
:102FC0001F4F892B61F780E090E00F900F90DF9109
:102FD000CF911F910F91FF90EF90DF90CF900895C8
:102FE00081E0F2CF8081813849F5123239F5D7017D
:102FF00012962C9112978481958128171906F1F465
:103000001C960D911C91D12CC12C0115110589F034
:10301000F801448155816281738180E80E94650CCA
:103020008F3F980791F2C80ED91ED8010D911C91BF
:10303000ECCF81E0F701808BC601C7CF90E080E044
:10304000C4CF0F931F93CF93DF93EC0188819981B5
:10305000009759F02A813B812617370730F081E02D
:10306000DF91CF911F910F9108958B016F5F7F4F7B
:103070000E940134009759F0998388831B830A8347
:103080002C813D81232B59F7FC011082E8CF80E091
:10309000E7CFCF93DF93EC0188819981009711F0FE
:1030A0000E947833198218821D821C821B821A8228
:1030B000DF91CF910895EF92FF920F931F93CF93DB
:1030C000DF93EC018B01CB010E94C9317C01BC0173
:1030D000CE010E94211881110BC0CE010E94491817
:1030E000CE01DF91CF911F910F91FF90EF90089546
:1030F000FD82EC82B801888199810E94C231F0CFB3
:10310000EF92FF920F931F93CF93DF93EC017B011C
:103110008A01BA010E94211881110BC0CE010E94C0
:103120004918CE01DF91CF911F910F91FF90EF9041
:1031300008951D830C83B701888199810E94CF3443
:10314000F0CFFC0180819181009711F00C947833CD
:103150000895EF92FF920F931F93CF93DF93CDB714
:10316000DEB761970FB6F894DEBF0FBECDBF8C01FE
:10317000CB01F8011182108213821282158214820F
:1031800050E09E012F5F3F4F7901B9010E94D2317B
:10319000F70101900020E9F73197AF014E195F095F
:1031A000B701C8010E94801861960FB6F894DEBF7F
:1031B0000FBECDBFDF91CF911F910F91FF90EF9088
:1031C0000895EF92FF920F931F93CF93DF93CDB7A4
:1031D000DEB729970FB6F894DEBF0FBECDBF8C01C6
:1031E000862FF801118210821382128215821482B6
:1031F00050E09E012F5F3F4F7901B90190E00E949E
:10320000D231F70101900020E9F73197AF014E1953
:103210005F09B701C8010E94801829960FB6F8947B
:10322000DEBF0FBECDBFDF91CF911F910F91FF90F9
:10323000EF9008952F923F924F925F926F927F92FC
:103240008F929F92AF92BF92CF92DF92EF92FF92B6
:103250000F931F93CF93DF93CDB7DEB728970FB6A9
:10326000F894DEBF0FBECDBFE0E15E2EA11002C01C
:103270003AE0532EFB01608171816D30710521F0C0
:103280006A30710509F0EEC0AF8217013801288756
:103290007A01A52CB12CA50170E060E001960E9496
:1032A000A230462E062F172F8091BB069091BC06A8
:1032B000E016F10608F040C067ED7EE00E94710A5A
:1032C000B6018091BB069091BC060E94B71667ECD0
:1032D0007EE08091BB069091BC060E94710A4AE094
:1032E00050E0B7018091BB069091BC060E94381156
:1032F00064EC7EE08091BB069091BC060E94F211C6
:1033000080E01092190428960FB6F894DEBF0FBE25
:10331000CDBFDF91CF911F910F91FF90EF90DF9084
:10332000CF90BF90AF909F908F907F906F905F9065
:103330004F903F902F90089508151905F8F463EB0E
:103340007EE00E94710AB6018091BB069091BC0696
:103350000E94B71662EA7EE08091BB069091BC069F
:103360000E94710A4AE050E0B4018091BB0690913E
:10337000BC060E9438116FE97EE0BCCF6FE87EE0AA
:103380000E94710AFF81FF2341F06CE87EE080918A
:10339000BB069091BC060E94710AE090BB06F090BB
:1033A000BC068885882309F447C0452DF301608158
:1033B000CE0101960E94E118BE016F5F7F4FC701E9
:1033C0000E94D711CE0101960E94A118F3014082FC
:1033D00067E87EE08091BB069091BC060E94710A6E
:1033E000B6018091BB069091BC060E94B7166DE7AE
:1033F0007EE08091BB069091BC060E94710AFF811D
:10340000FF2341F06AE77EE08091BB069091BC0605
:103410000E94710AA501B8018091BB069091BC067B
:103420000E94A11164E57EE08091BB069091BC06EC
:103430000E94F21181E065CFF10160817181452D1B
:10344000CE0101960E94A918BE016F5F7F4FC70190
:103450000E94D711CE0101960E94A118F10111839B
:103460000083B6CF80E04FCF2F923F924F925F9272
:103470006F927F928F929F92AF92CF92DF92EF9254
:10348000FF920F931F93CF93DF93CDB7DEB72997AA
:103490000FB6F894DEBF0FBECDBF3C012B0159879C
:1034A00048871901B8011A8219821C821B821E8268
:1034B0001D82CE0101960E945B18C980DA80470107
:1034C000A12C71018E01095F1F4F20E048855985AD
:1034D000B201C3010E941A19782ECE0101960E94F2
:1034E000A118872D29960FB6F894DEBF0FBECDBF69
:1034F000DF91CF911F910F91FF90EF90DF90CF90D0
:10350000AF909F908F907F906F905F904F903F9083
:103510002F9008952F923F924F925F926F927F92D9
:103520008F929F92AF92CF92DF92EF92FF920F9382
:103530001F93CF93DF93CDB7DEB72E970FB6F894D6
:10354000DEBF0FBECDBF9E878D872B013A011901CB
:10355000B80118861F821A8619861C861B86CE0122
:1035600007960E945B188C2C912C8614970460F5AA
:10357000CF80D884AE2CCE0101967C01810121E060
:10358000A301B2018D859E850E941A19782ECE0165
:1035900007960E94A118872D2E960FB6F894DEBFCD
:1035A0000FBECDBFDF91CF911F910F91FF90EF9094
:1035B000DF90CF90AF909F908F907F906F905F90B3
:1035C0004F903F902F9008956EEF7DE08091BB0665
:1035D0009091BC060E94710A8090BB069090BC0638
:1035E0004AE06C2DCE0101960E94E118BE016F5F8A
:1035F0007F4FC4010E94D711CE0101960E94A118ED
:10360000712CC5CF1F93CF93DF9385ED8093BC00C2
:1036100080919A0390919B03A0919C03B0919D038C
:103620000796A11DB11D23E0B695A795979587959F
:103630002A95D1F72091BC0024FD03C01092E2032B
:1036400052C040919A0350919B0360919C037091EA
:103650009D03452B462B472B69F30097A105B10528
:1036600041F02AE22A95F1F700C00197A109B109BA
:10367000E1CF80919903C1E0C0939803882399F129
:10368000D091B8001091BA008091BC008A7B8093E1
:10369000BC0060E082E00E942B0960E083E00E94B1
:1036A0002B091092E203C093E4031092E30361E05C
:1036B00082E00E942B0961E083E00E942B09809147
:1036C000B9008E7F8093B9008091B9008D7F80937F
:1036D000B90088E48093B80085E48093BC0010931F
:1036E000BA00D093B800DF91CF911F910895CF9287
:1036F000DF92EF92FF920F931F93CF93DF93FC0122
:103700004281FB01248135814217130611F020E02C
:1037100029C0EB0131812081213A91F5313061F5E9
:103720002381233011F021E01DC0628170E00E94EE
:10373000170CEC01009759F341E050E0BC016E5FBB
:103740007F4F80E00E94650C1816190604F74E8121
:103750005F816C817D8180E00E94650C21E01816FC
:103760001906ACF6822FDF91CF911F910F91FF9038
:10377000EF90DF90CF90089521E0333041F6F2CF03
:10378000213229F63B3021F42281FC01208BCBCF62
:103790003A3021F42281FC01218BC5CF393009F068
:1037A000B6CF2381233009F0B2CF628170E00E944E
:1037B000170C7C01009709F4AACFCE80DF80FC01B2
:1037C000868197810196C816D90609F0A0CF81E0BD
:1037D00090E0C114D10409F0C6010E94DC328C01D2
:1037E000B6010E948B0DF80181812A81213121F5DA
:1037F000909196039F5F909396038093950380E04A
:10380000F8019081F701228133819217130609F0A4
:103810007ECF882349F046815781B8016F5F7F4F83
:10382000848195810E94C6340115110509F47BCF6E
:10383000C8010E94783377CF81E0E2CFAF92BF9288
:10384000CF92DF92EF92FF920F931F93CF93DF936C
:103850007C016B015A01E901DC0152960D911C912A
:1038600090E080E00115110531F589E090E00E94BB
:10387000DC32FC0111821082D382C282B582A48222
:10388000DD27D783C683D70153969C938E93529797
:10389000F701848995890196958B848BDF91CF916F
:1038A0001F910F91FF90EF90DF90CF90BF90AF905E
:1038B000089501968901F801228133812C153D0577
:1038C00069F3208131812115310599F789E090E074
:1038D0000E94DC32FC0111821082D382C282B58246
:1038E000A482DD27D783C683D8018D939C93D0CF44
:1038F000CF92DF92EF92FF920F931F93CF93DF93BC
:10390000C82F6B018A010E94D20D6C2F70E021E05C
:1039100030E0A6010E941E1CEC01892B89F00E9458
:10392000D20D7C01C8010E94C931F601608170E0AE
:103930007F6F9C01A801C7010E941E1CC80FD91FE0
:10394000CE01DF91CF911F910F91FF90EF90DF900B
:10395000CF900895EF92FF920F931F93CF93DF9331
:10396000EC018B017A010E94D20D9701A801BE01E2
:10397000DF91CF911F910F91FF90EF900C941E1C3F
:103980001F920F920FB60F9211242F933F938F9394
:103990009F93AF93BF938091090490910A04A091E3
:1039A0000B04B0910C043091080423E0230F2D3751
:1039B00058F50196A11DB11D2093080480930904B8
:1039C00090930A04A0930B04B0930C0480910D040F
:1039D00090910E04A0910F04B09110040196A11DC6
:1039E000B11D80930D0490930E04A0930F04B09327
:1039F0001004BF91AF919F918F913F912F910F90A4
:103A00000FBE0F901F90189526E8230F0296A11D58
:103A1000B11DD2CF1F920F920FB60F9211242F9388
:103A20003F934F935F936F937F938F939F93AF9346
:103A3000BF93EF93FF938EEA95E00E94090BFF91ED
:103A4000EF91BF91AF919F918F917F916F915F9116
:103A50004F913F912F910F900FBE0F901F9018958F
:103A60001F920F920FB60F9211242F938F939F9353
:103A7000EF93FF93E091BE05F091BF058081E09147
:103A8000C405F091C50582FD1BC090818091C705DA
:103A90008F5F8F732091C805821741F0E091C705B1
:103AA000F0E0E255FA4F958F8093C705FF91EF91B3
:103AB0009F918F912F910F900FBE0F901F9018958F
:103AC0008081F4CF1F920F920FB60F9211240F90A6
:103AD0000FBE0F901F9018951F920F920FB60F9266
:103AE00011242F933F934F935F936F937F938F9303
:103AF0009F93AF93BF93EF93FF938091B900887F1B
:103B0000803609F44AC0F0F5883209F4A5C018F5EA
:103B1000803109F499C0B8F4882309F4F5C08830DD
:103B200009F492C0FF91EF91BF91AF919F918F9156
:103B30007F916F915F914F913F912F910F900FBEA9
:103B40000F901F901895883109F486C0803251F784
:103B50008093E10314C0803409F49BC040F48033A7
:103B6000B9F38833F9F68093E10385ECAEC0803574
:103B700009F483C0883509F494C0883499F60E940A
:103B8000021BD0CF883909F48AC038F5883729F06C
:103B900050F4883611F0803729F683E08093E203F1
:103BA0001092E00355C0883809F479C0803919F0C3
:103BB000803809F0B7CF8091E003803208F06FC001
:103BC000E091E00381E08E0F8093E0038091BB00E1
:103BD000F0E0E054FC4F80833BC0803B39F0D0F4F0
:103BE000803A09F477C0883A09F09CCF84E080934A
:103BF000E2031092BF031092BE03F0E0E0E00995EB
:103C00008091BE0381110FC081E08093BE031092AA
:103C10009E0309C0803C09F4A8CF883C09F4A5CFD5
:103C2000883B09F07FCFE091BF0381E08E0F809346
:103C3000BF03F0E0E256FC4F80818093BB0090917F
:103C4000BF038091BE0329C0809107048093BB000D
:103C500085EC8093BC0066CF9091060480910504AA
:103C6000981758F5E091060481E08E0F80930604C2
:103C7000F0E0EB51FC4F8081E9CFE091060481E058
:103C80008E0F809306048091BB00F0E0EB51FC4F57
:103C9000808390910604809105049817C8F285E806
:103CA000D8CFE091060481E08E0F809306048091C6
:103CB000BB00F0E0EB51FC4F80838091E403811165
:103CC0005ECF81E08093E30384EA8093BC0010928E
:103CD000E20328CF85EC8093BC001092E203809130
:103CE000E003803230F4E091E003F0E0E054FC4F78
:103CF00010826091E00370E080EC93E0F0E0E0E09F
:103D000009951092E0030ECF1092E10338CF1F9275
:103D10000F920FB60F9211242F933F934F935F93FF
:103D20006F937F938F939F93AF93BF93CF93EF93B3
:103D3000FF93C091E1008091E100837F8093E100D7
:103D4000C3FF1DC08091BA06882309F459C082E1DF
:103D5000E8E8F1E0A6E4B1E001900D928A95E1F780
:103D60001092E90081E08093EB001092EC0082E376
:103D70008093ED001092120488E08093F000C2FF5F
:103D80001AC00E94B00880914103882341F08091BD
:103D90004103815080934103811101C05D9A80915C
:103DA0001104882341F08091110481508093110403
:103DB000811101C0289AC4FF27C08091E2008E7E45
:103DC00081608093E2008091E1008F7E8093E1002A
:103DD000809142038E7E806180934203FF91EF9138
:103DE000CF91BF91AF919F918F917F916F915F9193
:103DF0004F913F912F910F900FBE0F901F901895EC
:103E000082E1EAE9F1E0A6CFC0FFE8CF8091E200CD
:103E10008E7E80618093E2008091E1008E7E8093AF
:103E2000E100809142038E7E8160D6CF1F920F9277
:103E30000FB60F921124CF92DF92EF92FF920F9361
:103E40001F932F933F934F935F936F937F938F9322
:103E50009F93AF93BF93EF93FF93CF93DF93CDB730
:103E6000DEB76C97DEBFCDBF1092E9008091E8000D
:103E700083FF25C068E0CE0145960E947E0D82EF4B
:103E80008093E8008D8987FF39C09091E80090FF0A
:103E9000FCCF982F907609F038C19E894F89588DB4
:103EA0002F89F88C911131C0803861F580914303DE
:103EB0008093F1001092F1008EEF8093E8006C96F1
:103EC0000FB6F894DEBF0FBECDBFDF91CF91FF914B
:103ED000EF91BF91AF919F918F917F916F915F9182
:103EE0004F913F912F911F910F91FF90EF90DF9095
:103EF000CF900F900FBE0F901F9018959EEF90934C
:103F0000E800C7CF1092F100D5CF913059F481115C
:103F1000D3CF4130510581F6809143038D7F80934B
:103F20004303CACF933049F48111C6CF41305105C4
:103F300019F6809143038260F2CF953041F480916D
:103F4000E80080FFFCCF20682093E300B5CF9630D7
:103F500009F0A9C00B8D1C8D22E01092E90010928F
:103F60003F0310923E03F2122EC010923D031092B6
:103F70003C030E948B0E1F8299E09983FA8291E0A4
:103F80009E8390EA98879AEF998720913E0330911B
:103F90003F03275F3F4F3C832B838D831092E900C3
:103FA00010923F0310923E0310933D0300933C0395
:103FB00049E050E0BE016F5F7F4F80E00E94650CDA
:103FC0000E948B0E79CF10933D0300933C030E9417
:103FD000BE0DDC0112960D911C910115110509F41D
:103FE00052C1D801ED91FC910480F581E02DBE0114
:103FF0006B5E7F4FC8010995009709F03FC1F8013A
:1040000000851185EACFF3E0FF120EC08F89882367
:1040100009F440C0823061F440E860E183E391E05C
:104020000E945C21811148CF81E28093EB0047CF51
:10403000813029F440E86BE087E291E0F1CF8330F2
:1040400099F70E94BE0DDC011296ED90FC908E0156
:104050000F5F1F4F6801E114F10479F0D701ED9172
:10406000FC910680F781E02DB801C7010995080F82
:10407000111DF701E084F184EECFD8011C92F60106
:1040800001900020E9F73197BF016C197D0940E0EC
:10409000C601C6CFE3E2F1E0449150E0BF0180E801
:1040A0000E94650C09CF973009F4BECF983021F4F7
:1040B00081E08093F10000CF993009F0FDCE83704C
:1040C00009F0B2CF8091BA068823B1F0EEE6F1E0B4
:1040D00081E031E096E32191222371F08093E900A1
:1040E0003093EB00DF0111972C912093EC0090931B
:1040F000ED008F5F873079F78EE78093EA001092AA
:10410000EA008F8980931204D7CE8B8D9C8D1092FC
:10411000E90010923F0310923E0390933D03809379
:104120003C038091BA06882309F48DC0898D8111E2
:104130008AC08E899D89913A41F4813209F074CF09
:1041400047E050E068E571E0B5C0913209F06CCF0E
:10415000833269F48F89988DB0E0A0E080934201AA
:1041600090934301A0934401B0934501A5CE8032C2
:1041700039F467E070E088E591E00E948B0D9CCEF9
:10418000823209F099CE8F8980935F01EEEFFFE7CD
:1041900085919491E0E0F8E08B3F9C4D11F4EEEFB7
:1041A000FAE08091580190915901A0915A01B09183
:1041B0005B01803B9440A105B105D9F480915F017A
:1041C00080FD17C0EE3F8AE0F80771F587E797E7B3
:1041D00091838083809160008093400388E19BE01D
:1041E0000FB6F894A895809360000FBE909360007E
:1041F00063CE808191818737974709F05DCEA8957E
:10420000809160008861809360008091400380937A
:104210006000EE3F2AE0F20789F08091FE0A90915B
:10422000FF0A9183808348CE8081918187379807E8
:1042300069F29093FF0A8093FE0AC8CF1092FF0A9A
:104240001092FE0A39CE0E94BE0DDC0112960D912D
:104250001C910115110509F4E7CED801ED91FC91EF
:104260000190F081E02DBE016B5E7F4FC801099582
:10427000811122CEF80100851185EBCF18161906A1
:104280000CF41ACED1CEF1E0FF12BDCE8091BA0669
:1042900081110CC08DE195E090934F0180934E0108
:1042A00083E090E0909351018093500142E150E00F
:1042B00066E471E080E0F4CEEF92FF920F931F93DB
:1042C000CF93DF93F82E192FE62E042F81E0860F6F
:1042D000880F0E94370C83E00E94370CCF2DD12F1E
:1042E000EC0EFD2EF11CCE15DF05B9F007FF13C053
:1042F000FE0184910E94370C182F80E00E94370C39
:10430000812321968111EFCFDF91CF911F910F91E2
:10431000FF90EF9008958881EDCF81E0F5CF109266
:10432000B1051092B00588EE93E0A0E0B0E0809374
:10433000B2059093B305A093B405B093B50586E29A
:1043400092E09093AF058093AE058DEC90E0909352
:10435000BB058093BA058CEC90E09093BD058093EB
:10436000BC0588EC90E09093BF058093BE0589EC76
:1043700090E09093C1058093C0058AEC90E0909303
:10438000C3058093C2058EEC90E09093C5058093A1
:10439000C4051092C7051092C8051092C905109265
:1043A000CA058FEF9FEF9093900580938F058AE465
:1043B00092E090939205809391051092930510924C
:1043C0009405109295051092960590939805809308
:1043D00097051092990510929A0510929B051092DC
:1043E0009C0582E08093AB0581E08093AC0593E06F
:1043F0009093AD059091A305911112C010929E0566
:1044000010929D0527EE3EE03093A00520939F0576
:1044100020E931E03093A2052093A1058093A30504
:104420000E94D20DFC01A485B585109709F054C0F7
:104430008DE995E095878487868597852091A105EC
:104440003091A205820F931F9787868710924E06A0
:1044500010924D0688EE93E0A0E0B0E080934F0606
:1044600090935006A0935106B093520688E392E0D1
:1044700090934C0680934B068FEF9FEF90935806D6
:10448000809357068AE492E09093BE068093BD061F
:104490001092BF061092C0061092C1061092C2067A
:1044A0008091BA06882311F18091B9068823F1F032
:1044B0008BE496E09093BC068093BB061092B806FE
:1044C0001092B7061092AE061092AD061092A40696
:1044D0001092A3060895DC018D919C91119700978D
:1044E000D1F78DE995E08D939C93A6CF8EEA95E068
:1044F000E1CFCF93DF93CDB7DEB762970FB6F894D5
:10450000DEBF0FBECDBFF89462E082E00E94590981
:104510000E940709892B19F481E08093BA067894E8
:1045200061E087E00E94590961E086E00E94590934
:1045300061E085E00E94590960E087E00E942B0954
:1045400060E086E00E942B0960E085E00E942B0974
:104550008091BA06882309F456C261E087E00E9480
:104560002B0960E086E00E942B09789484B5826074
:1045700084BD84B5816084BD85B5826085BD85B507
:10458000816085BD80916E00816080936E00109285
:104590008100809181008260809381008091810000
:1045A0008160809381008091800081608093800091
:1045B0008091910082608093910080919100816050
:1045C0008093910080919000816080939000809111
:1045D000C10084608093C1008091C100826080939B
:1045E000C1008091C10081608093C1008091C300AF
:1045F00081608093C3008091C00082608093C0007E
:104600008091C20081608093C20080917A008460B2
:1046100080937A0080917A00826080937A00809102
:104620007A00816080937A0080917A00806880931C
:104630007A00109212041092430310924203809168
:10464000D70081608093D70080EA8093D80089B535
:10465000806189BD89B5826089BD09B400FEFDCF46
:1046600061E070E080E090E00E94BA098091D8009B
:104670008F7C80618093D8008091E000807F809360
:10468000E0008091E1008E7E8093E1008DE08093D8
:10469000E200559A209AE091BE05F091BF0582E0B4
:1046A0008083E091BA05F091BB051082E091BC05D2
:1046B000F091BD0580E180831092C605E091C205AE
:1046C000F091C30586E08083E091C005F091C105BB
:1046D000808180618083E091C005F091C105808177
:1046E00088608083E091C005F091C1058081806879
:1046F0008083E091C005F091C10580818F7D80832A
:1047000089E090E09093900580938F0588E199E28D
:104710000FB6F894A895809360000FBE9093600048
:1047200063E572E08BE496E00E94B71660E47FE1F7
:104730008BE496E00E94FC106FE772E08BE496E059
:104740000E94C5118BE496E00E948B11A89590E021
:1047500080E00E94591090911A048091BA069A3A0A
:1047600009F057C190911B04953509F052C1209171
:104770008D0530918E052130354A09F04AC18111ED
:1047800006C063EA71E08EEA95E00E94F211809122
:104790008C05982F91709093760186958170809307
:1047A0006C0380912A04809362030E94D20D0E94C0
:1047B000D20D21E030E04BEA55E061E070E00E946C
:1047C0001E1C0E94D20D21E030E04DEA55E062E06F
:1047D00070E00E941E1C0E94D20D21E030E04CEAE5
:1047E00055E063E070E00E941E1C0E94D20D21E79C
:1047F00031E0FC01318F208F8091BA06882339F097
:104800000E94D20D2BE436E0FC01378B268B62E050
:1048100084E00E94590960E087E10E94590961E043
:104820008DE00E942B0961E088E00E94590961E057
:1048300088E00E942B0980916F039091700385603E
:1048400091609093700380936F03A89581E08093AB
:104850007501809374011092130480912404909147
:10486000250421E4289FF001299FF00D1124EB5924
:10487000FB4F8081918190937E0180937D010E9406
:10488000041242E050E06FE673E087E090E00E949F
:10489000AA1C42E050E06AE671E08DE090E00E94E0
:1048A000AA1C42E050E06CE174E08AE190E00E94D2
:1048B000AA1C42E050E06EE174E08CE190E00E94BE
:1048C000AA1C42E050E060E274E088E090E00E94C0
:1048D000AA1C42E050E063E671E083E190E00E94B0
:1048E000AA1C42E050E067E771E082E190E00E949C
:1048F000AA1C41E050E062E671E086E090E00E9490
:10490000AA1C41E050E061E671E086E190E00E947F
:10491000AA1C42E050E06AE072E08AE090E00E9467
:10492000AA1C42E050E068E671E08BE090E00E9453
:10493000AA1C41E050E060E671E084E190E00E9452
:10494000AA1C41E050E069E072E087E190E00E943B
:10495000AA1C41E050E069E771E08EE090E00E941F
:10496000AA1C41E050E06CE671E08CE090E00E940F
:10497000AA1C41E050E068E274E08FE090E00E9401
:10498000AA1C41E050E06AE274E081E190E00E94FC
:10499000AA1C41E050E068E072E080E190E00E94F3
:1049A000AA1C41E050E067E072E088E190E00E94DC
:1049B000AA1C4CE651E066E072E08FE10E94781C90
:1049C00042E651E065E072E080E20E94781C80914E
:1049D000BA06882309F444C08FEF9FEF90935806DE
:1049E0008093570610915F016AE070E080E090E0EC
:1049F0000E94BA09111124C06AE070E080E090E0E2
:104A00000E94BA09EFCF60E087E00E942B0961E0C5
:104A1000A9CD811106C067E771E08EEA95E00E949A
:104A2000F2110E94061480E991E00E94731090E058
:104A300080E00E94731080E991E00E945910A7CE97
:104A400081E08093B90663E571E08BE496E00E9413
:104A5000710A6091BA0670E08BE496E00E948F11B3
:104A600064E471E08EEA95E00E94710A6091BA06F2
:104A700070E08EEA95E00E948F118EEA95E00E9428
:104A8000760B11E01093750110921304A89568EC51
:104A900070E080E090E00E94BA091092B8060E948F
:104AA000EC096093AF067093B0068093B1069093C3
:104AB000B2068AE090E0A0E0B0E08093B306909365
:104AC000B406A093B506B093B6061093B70608EEE9
:104AD000402E03E0502E612C712CA89511E4D12EAC
:104AE000F090BA06FF2009F4D3C08091B90688235C
:104AF00009F4CEC08BE496E00E94340F892B09F4B0
:104B000053C78091B906882309F4CBC08BE496E0A3
:104B10000E94F20E8C0180917601882369F0602F4B
:104B2000FF2009F4C3C08091B906882309F4BEC0F0
:104B30008BE496E00E94D70EE0911904EE3108F064
:104B400029C70D30110599F00A30110581F00F3E8B
:104B5000110569F0C8018B7F8B3B910541F081E025
:104B60008E0F80931904F0E0EC5BFC4F0083E09122
:104B70001904F0E0EC5BFC4F1082809176018823F1
:104B800081F08091BA06882309F495C08091B90616
:104B9000882309F490C06CE87BE08BE496E00E94E7
:104BA000710A80917601882381F08091BA0664E4CD
:104BB00073E0882309F484C08091B906882309F43E
:104BC0007FC08BE496E00E94B7168091760188231F
:104BD00081F08091BA06882309F475C08091B906E6
:104BE000882309F470C068E87BE08BE496E00E94BB
:104BF000F21180911904882309F49CC08091BA06AF
:104C0000882341F08091B906BBE4EB2EB6E0FB2E81
:104C1000811104C0AEEAEA2EA5E0FA2E1E870D87A8
:104C2000F092BC06E092BB060D30110521F00A306F
:104C3000110509F055CF80914403082E000C990B03
:104C40000E94BE34883409F429C20CF089C0823431
:104C500009F4E5C0ECF5833209F4EFC58F3309F4AC
:104C60001DC269E378E0C7010E94710A64E473E041
:104C7000C7010E94B71666E378E0C7010E94F211EF
:104C80006AE278E0C7010E94F211109244034CC01E
:104C90008EEA95E00E94F30A892B09F485C6F1108B
:104CA00030CF8EEA95E00E94D10A34CF8EEA95E0AB
:104CB0000E942A0B41CF6AE87BE08EEA95E06FCF35
:104CC0008EEA95E080CF66E87BE08EEA95E08FCFB4
:104CD000843409F44BC60CF46EC1853411F680910E
:104CE0004503082E000C990B0E94BE348E349105AA
:104CF00009F08AC080914603082E000C990B0E948F
:104D0000BE348334910509F075C0C12CE12C08E450
:104D10001BE02BE234E041E050E0BE01635F7F4FD7
:104D200086E493E00E948A1A109219048091190473
:104D30008111D6CE80917601882309F4D1CE80915D
:104D4000BA06882309F42BC68091B906882309F492
:104D500026C66FE77BE08BE496E00E94710AC0CE26
:104D6000833509F4FBC4DCF48E3409F410C68135B4
:104D700009F077CF6CE578E0C7010E94710A70E016
:104D800060E0C7010E948F116CE478E0C7010E94C7
:104D9000710A70E060E0C7010E948F11C5CF8A35AB
:104DA00009F4E6C48E3709F46BC5843509F059CF90
:104DB00080914503082E000C990B0E94BE34823569
:104DC00009F4F0C0833509F4C3C066EE79E08D3490
:104DD000E9F4F3E0EF2EF12C0DE11AE02AE835E0DA
:104DE00040E458E3BE01635F7F4F85E493E00E9497
:104DF000341A9CC08235910539F4C12CE12C0EE1A6
:104E00001BE02CE234E087CF6AEF7AE0C7010E9412
:104E1000710A64E473E0C7010E94C51185CF8091D7
:104E20004503082E000C990B0E94BE348634C1F055
:104E30004CF4833409F46BC0843409F44FC06EE43D
:104E40007AE0E4CF863509F474C08935C1F7C12C06
:104E5000E12C0FE61AE027E234E044E650E072C0AD
:104E60008091240490912504D89EF001D99EF00DE4
:104E70001124EB59FB4F4091260420813181429F40
:104E8000C001439F900D11249A838983F12CE12C5A
:104E900004EE1AE09E012F5F3F4F48E55BE1BE0143
:104EA000635F7F4F85E493E00E94341A882309F4FE
:104EB0003BCF8091240490912504D89EF001D99E87
:104EC000F00D1124EB59FB4F6091260470E08981AD
:104ED0009A810E9430327183608326CF80912404AE
:104EE00090912504D89E9001D99E300D1124275908
:104EF0003B4FF12CE12C0EEC1AE048E55BE1BE01E2
:104F0000635F7F4F85E493E00E94341A0DCFC12C7C
:104F1000E12C03EA1AE024E234E044E050E0BE0170
:104F2000635F7F4F85E493E00E948A1A0E944E0FD0
:104F3000FBCECC24C394E12C01E91AE026E234E054
:104F400044E050E0BE01635F7F4F85E493E0EACE2A
:104F500080912004909121046CE370E00E94303233
:104F60007A836983F12CE12C05E31AE09E012F5F1F
:104F70003F4F42E454E0BE01635F7F4F85E493E01E
:104F80000E94341A882309F4CFCE29813A81FCE3A8
:104F9000F29FC001F39F900D112490932104809300
:104FA0002004C2CEF12CE12C00E01AE022E234E031
:104FB00040E65AEEA4CF80914503082E000C990BD1
:104FC0000E94BE348834A9F18C3409F064C0409149
:104FD000260420912F0430913004429FC001439F4A
:104FE000900D11249A838983F12CE12C01ED19E0B5
:104FF0009E012F5F3F4F40E45FE1BE01635F7F4F43
:1050000085E493E00E94341A882309F48DCE6091E0
:10501000260470E089819A810E94303270933004B6
:1050200060932F040E94F80990932E0480932D041E
:105030007BCE409126042091330430913404429F6A
:10504000C001439F900D11249A838983F12CE12C98
:1050500009EB19E09E012F5F3F4F40E45FE1BE0185
:10506000635F7F4F85E493E00E94341A882309F43C
:105070005BCE6091260470E089819A810E94303273
:1050800070933404609333040E94F80990933204BF
:105090008093310449CE68E979E0B8CE8091450328
:1050A000082E000C990B0E94BE34853409F43CCEC6
:1050B000803509F442C1833409F083C161EB77E0A4
:1050C000C7010E94F2112CE032E0388B2F8775E681
:1050D000A72E74E0B72EEAE18E2EE4E09E2E64EA5D
:1050E00077E0C7010E94710AEF85F889619171919B
:1050F000F88BEF87C7010E94B71661E977E0C70117
:105100000E94710A20912604F50180819181289FD7
:10511000B001299F700D11244AE050E0C7010E94A0
:10512000A11160E877E0C7010E94710A209126046E
:10513000F50184819581289FB001299F700D11246C
:105140004AE050E0C7010E94A1116FE677E0C70175
:105150000E94710AF501668177814AE050E0C7013B
:105160000E94A1116EE577E0C7010E94710AF50166
:10517000608571854AE050E0C7010E94A1116DE48D
:1051800077E0C7010E94710AF501648575854AE0E0
:1051900050E0C7010E94A1116CE377E0C7010E94B3
:1051A000710AF501668577854AE050E0C7010E94E3
:1051B000A1116DE177E0C7010E94F2118401C12CB9
:1051C00065E177E0C7010E94710A20912604F80189
:1051D000838D948D289FB001299F700D11244AE082
:1051E00050E0C7010E94381167E077E0C7010E94D4
:1051F000710AF801658D768D4AE050E0C7010E9482
:10520000A111C3940C5F1F4FF4E0CF12D9CF67EF09
:1052100076E0C7010E94F2118401C12C6FEE76E0A6
:10522000C7010E94710A20912604F80183A594A564
:10523000289FB001299F700D11244AE050E0C7015A
:105240000E94381161EE76E0C7010E94710AF801F0
:1052500065A576A54AE050E0C7010E94A111C3945C
:105260000C5F1F4FF4E0CF12D9CF63ED76E0C7019A
:105270000E94F21184016BEC76E0C7010E94710A72
:1052800020912604F80183AD94AD289FB001299F99
:10529000700D11244AE050E0C7010E9438116DEBF7
:1052A00076E0C7010E94710AF80165AD76AD4AE06B
:1052B00050E0C7010E94A111CA940C5F1F4FC1109A
:1052C000DACFF1E4AF0EB11C21E4820E911C8F8580
:1052D00098898651924009F002CF65EA76E0C701CD
:1052E0000E94F2110AE715E06DE976E0C7010E941D
:1052F000710A20912604F80180819181289FB001D4
:10530000299F700D11244AE050E0C7010E94381116
:105310006FE876E0C7010E94710AF801628173812B
:105320004AE050E0C7010E94A1110C5F1F4F2AE81C
:1053300035E020173107C1F6F7CCC7010E948B1169
:1053400066E178E0C7010E94710A60916A0170917C
:105350006B014AE050E0C7010E94A11162E078E0D1
:10536000C7010E94710A4AE050E060916C01C701D8
:105370000E94B3116EEE77E0C7010E94710A4AE005
:1053800050E060912A04C7010E94B3116AED77E0F2
:10539000C7010E94710A60917D0170917E01C70171
:1053A0000E948F1164EC77E0C7010E94710A60913E
:1053B0006F037091700340E150E0C7010E94A1119A
:1053C000B3CC61E876E0C7010E94F211C7010E94E8
:1053D0008B116EEE75E0C7010E94F21160EE75E070
:1053E000C7010E94710A6EE872E0C7010E94C511F0
:1053F000C7010E948B116EEC75E0C7010E94F2118B
:1054000066EA75E0C7010E94F2116BE775E0C7011B
:105410000E94F2116BE475E0C7010E94710A4AE034
:1054200050E060912B04C7010E94B3116BE175E05D
:10543000C7010E94710A4AE050E060912C04C70144
:105440000E94B31160E075E0C7010E94F21160EDA7
:1054500074E0C7010E94710A6091240470912504D0
:10546000C7010E948F1160EA74E0C7010E94710AAF
:1054700060918A0570918B054AE050E0C7010E9457
:10548000A11160E774E0C7010E94710A4AE050E090
:1054900060912604C7010E94B31160E474E0C70163
:1054A0000E94710A8091240490912504D89EF001F5
:1054B000D99EF00D1124EB59FB4F209126048081D9
:1054C0009181289FB001299F700D11244AE050E07E
:1054D000C7010E94A11160E174E0C7010E94710A36
:1054E0008091240490912504D89EF001D99EF00D5E
:1054F0001124E759FB4F2091260480819181289F38
:10550000B001299F700D11244AE050E0C7010E94AC
:10551000A11160EE73E0C7010E94710A809120041E
:10552000909121046CE370E00E9430324AE050E038
:10553000C7010E94A11160EB73E0C7010E94710ACC
:105540002091260480912F0490913004289FB0016F
:10555000299F700D11244AE050E0C7010E943811C4
:1055600069EA73E0C7010E94F2116DE873E0C701B8
:105570000E94710A60912D0470912E044AE050E05F
:10558000C7010E9438116BE873E0C7010E94F21155
:105590006BE573E0C7010E94710A20912604809197
:1055A000330490913404289FB001299F700D112479
:1055B0004AE050E0C7010E94381164E573E0C7017A
:1055C0000E94F21167E373E0C7010E94710A6091C3
:1055D0003104709132044AE050E0C7010E94381152
:1055E00065E373E0C7010E94F21165E073E0C70153
:1055F0000E94710A4AE050E060912A04C7010E94AB
:105600003E1163E073E0C7010E94F21163ED72E0A6
:10561000C7010E94710A4AE050E060912704C70167
:105620000E94B31163EA72E0C7010E94710A60919F
:105630002204709123044AE050E0C7010E94A111A6
:1056400061E772E0C7010E94710A40E150E0609199
:105650008C05C7010E94B31162E572E0C7010E9488
:10566000F2116AE272E0C7010E94F2116BEF71E081
:10567000C7010E94F21100916F03109170032091F5
:105680007D0130917E0140916A0150916B016091E2
:105690006C01C7010E94BF1668E676E0C7010E9450
:1056A000F2116DE476E0C7010E94F2116FE276E03C
:1056B000C7010E94F21166E176E0C7010E94F21173
:1056C00066E076E0C7010E94F2114AE065E771E00A
:1056D000CE0101960E94A91818861F821A86198683
:1056E0001C861B8641E150E064EA72E0CE01079619
:1056F0000E9480180D811E81A980BA80A114B10476
:1057000041F101151105B1F08B859C85080F191F1A
:10571000B801CE0107960E9421188823D1F02F816D
:1057200038858B859C85B501820F931F0E94CF34ED
:105730001C870B87BE01695F7F4FC7010E94D7118D
:10574000CE0107960E94A118CE0101960E94A118D1
:10575000EBCACE0107960E944918ECCF90E080E09A
:105760000E94731068E779E0C7010E94F211DCCA59
:1057700080914503082E000C990B0E94BE3483349F
:105780009105E1F480914603082E000C990B0E94CC
:10579000BE348434910539F463E579E0C7010E9491
:1057A000F2110E94061480918C05982F91709093AD
:1057B00076018695817080936C03B6CA8335910516
:1057C000A1F480914603082E000C990B0E94BE3470
:1057D0008634910541F780E991E00E9473106BE2F5
:1057E00079E0C7010E94F211DECF8535910539F4C9
:1057F00090E080E00E94591064E179E0F2CF8634B5
:105800009105A1F46FEF78E0C7010E94F21110E05A
:1058100000E06FEFC8010E9412320F5F1F4F0115A9
:1058200034E01307B1F76AEF78E0DBCF80E991E06D
:105830000E94591065EA78E0D4CF66EB72E08BE401
:1058400096E00E94C51183E090E0909390058093CC
:105850008F0588E19BE00FB6F894A89580936000CF
:105860000FBE9093600062E370E080E090E00E94E1
:10587000BA0962ED72E08BE496E00E94C511F3CFA5
:1058800065EE71E0C7010E94710A10E000E0B12CE2
:10589000A12C912CC8018A0D9B1D0E940A328F3FBA
:1058A00011F0992493944FEFA41AB40A80E1A8163A
:1058B000B10481F70115110519F0992009F449C0C7
:1058C00060EE71E0C7010E94710A6EED71E0C701E0
:1058D0000E94710A0F3F110509F068F46CED71E048
:1058E000C7010E94710A0031110528F46AED71E0C8
:1058F000C7010E94710A40E150E0B801C7010E944F
:10590000381168ED71E0C7010E94710A5801912CAD
:10591000C5010E940A32882E9FE0981728F066ED94
:1059200071E0C7010E94710A40E150E0682DC70193
:105930000E943E11EFE09E1629F064ED71E0C70170
:105940000E94710AFFEFAF1ABF0A939420E19212EE
:10595000DFCF005F1F4F011534E0130709F097CF29
:1059600060EC71E0C7010E94710ADEC9C12CEE240F
:10597000E39400E918E02CE835E04FEF50E0BE0179
:10598000635F7F4F84E493E00E948A1A0CCF60E744
:1059900078E0EACE1092190410924403C7C968E770
:1059A0007BE08EEA95E0D9C98BE996E00E94F40B82
:1059B0001091A4068091A306811115C040929F0604
:1059C0005092A0066092A1067092A2060E94EC0975
:1059D00060939B0670939C0680939D0690939E0611
:1059E00041E04093A3061092A406112309F411C2CA
:1059F000809171039091720301969093720380934A
:105A000071030E9404129091BA0681E020912B0448
:105A1000911102C020912C04211101C080E020913D
:105A2000140430911504882309F496C280917C01F6
:105A300080936C013093700320936F0380917A01FF
:105A400090917B0190936B0180936A0120916F0389
:105A50003091700380916A0390916B032817390786
:105A6000E9F490916C0180916903981317C020911B
:105A70006A0130916B018091670390916803281748
:105A8000390761F42091220430912304809171033D
:105A9000909172032817390708F02FC160E088E061
:105AA0000E942B098091BA06882341F08091B906A3
:105AB0004BE4E42E46E0F42E811104C03EEAE32ECE
:105AC00035E0F32E41E050E06CE671E08CE090E0D0
:105AD0000E94590E909366038093650380916C0336
