:100000000C9459050C9481050C9481050C94810580
:100010000C9481050C9481050C9481050C94810548
:100020000C9481050C9481050C94F2120C947B13B2
:100030000C9481050C9481050C9481050C94810528
:100040000C9481050C9481050C9481050C94810518
:100050000C9481050C9481050C9481050C94A812D4
:100060000C9481050C94E2150C94BC150C9481053C
:100070000C9481050C9481050C9481050C948105E8
:100080000C9481050C9481050C9481050C948105D8
:100090000C9414160C9481050C9481050C94810524
:1000A0000C9481050C9481050C9481055265737440
:1000B0006F72656420666163746F7279206465662F
:1000C00061756C74732E00080B00020202000009B7
:1000D00004000001020200000524001001052401B3
:1000E000010104240206052406000107058103100E
:1000F000004009040100020A000000070502024056
:1001000000000705830240000004030904417264F3
:1001100075696E6F204C4C430041726475696E6F57
:10012000204C656F6E6172646F004D79436F6F6C28
:1001300055505300506241630055505331300045D3
:1001400052524F523A204E65656420746F20646F9E
:1001500020636F6E66696775726174696F6E206186
:100160006E6420777269746520746F204545505223
:100170004F4D2E205573696E672044656661756C1E
:1001800074732E00476F6F643A20454550524F4DAF
:1001900020697320696E697469616C697A65642E7F
:1001A00000433A5C55736572735C44617669735CB5
:1001B000446F63756D656E74735C41726475696ECE
:1001C0006F5C41726475696E6F4C656F6E617264CD
:1001D0006F55505353696D756C61746F725C536DDC
:1001E000617274557073456D756C61746F722E30E9
:1001F00030395C536D617274557073456D756C6107
:10020000746F722E3030392E696E6F00536D6172CB
:10021000742055505320456D756C61746F72207653
:10022000302E31002C20002C20002C200055534271
:100230002053657269616C20626175642C2062696B
:1002400074732C207061726974792C2073746F70D0
:1002500020626974733A20000D0A24242D454E440F
:1002600020454550524F4D0D0A0D0A002000300028
:1002700020003000300030000D0A2420000D0A2438
:10028000242D454550524F4D20434F4E54454E541A
:10029000533A00202020313A6462672000426174A2
:1002A0007465727920566F6C746167652A313030DD
:1002B0003A200044782020202D2044656275672074
:1002C000666C6167732020202020202020202020C1
:1002D0002020203A20307800202028562A31303043
:1002E00029002020566F6C74616765732077696CF4
:1002F0006C20616C7761797320626520656E74652E
:1003000072656420696E2068756E647265647468D5
:10031000732E2000202028496620796F75206D6596
:100320006173757265642031322E343520766F6CBE
:1003300074732C20656E74657220434831323435F5
:1003400029002020776865726520767676762069A8
:100350007320746865206D656173757265642076BD
:100360006F6C7461676520696E2068756E64726574
:10037000746873206F66206120766F6C742E002085
:100380002077697468206120676F6F6420646967F3
:100390006974616C20766F6C74206D657465722E63
:1003A00020456E7465722074686520636F6D6D61A1
:1003B0006E64204348767676762E002020486F6F54
:1003C0006B20746865206C65616473206261636B87
:1003D00020757020746F2074686520626174746584
:1003E00072792E204D656173757265207468652081
:1003F000766F6C7461676500202053686F7274209B
:1004000074686520746F6765746865722E20456E28
:100410007465722074686520636F6D6D616E642011
:10042000434C3020285A65726F2C206E6F74204F19
:1004300068292E002020446973636F6E6E656374B3
:1004400020746865206261747465727920766F6CBF
:10045000746167652073656E7365206C6561647394
:100460002066726F6D2074686520626174746572B5
:10047000792E20200020546F2063616C69627261C4
:10048000746520766F6C746167652073656E73693F
:100490006E6720666F72207468697320626F617284
:1004A000643A0029002020202020202020202848F5
:1004B0006967682056204132442076616C75653A40
:1004C000200020562A3130300043486E6E6E6E2078
:1004D0002D2043616C696272617465206869676888
:1004E00020766F6C7461676520706F696E74202868
:1004F000562A3130302920203A200029002020209F
:10050000202020202020284C6F7720562041324484
:100510002076616C75653A200020562A3130300013
:10052000434C6E6E6E6E202D2043616C6962726169
:100530007465206C6F7720766F6C746167652070CE
:100540006F696E742028562A313030292020203AD5
:10055000200054446E6E6E6E202D204176652E2054
:1005600054696D6520666F722066756C6C204469F5
:100570007363686172676520286D696E7574657351
:10058000293A200054436E6E6E6E202D2041766510
:10059000726167652054696D6520746F2066756CA3
:1005A0006C792043686172676520286D696E757487
:1005B0006573293A200042456E6E6E6E202D2042F2
:1005C00061747465727920456D70747920766F6CF2
:1005D00074616765202020202020202020202856BC
:1005E0002A313030293A200042466E6E6E6E202D40
:1005F00020426174746572792046756C6C20436882
:100600006172676520766F6C7461676520202020B9
:1006100028562A313030293A20002020202020205E
:1006200020202028303D4E6F205043207265706F8F
:100630007274696E672F73687574646F776E2E209D
:10064000313D456E61626C656400454E6E20202030
:10065000202D20454E61626C65207265706F72744A
:10066000696E672F53687574646F776E20746F209E
:10067000746F207468652050433A2000507265738F
:10068000656E742053657474696E67733A00536DB8
:100690006172742055505320456D756C61746F7292
:1006A0002076302E3100000A2D2D2D2D4D656E75D2
:1006B0002D2D2D2D00446F6E277420666F72676597
:1006C0007420746F20285329617665207468652032
:1006D0006E65772076616C756521002073657420E6
:1006E000746F3A20004E657720004F6C642076616D
:1006F0006C7565207761733A20002076616C7565B2
:1007000021204D617820697320312028666F722086
:100710006120626F6F6C292E0A004572726F723A07
:1007200020496E76616C696420000A556E6B6E6FAD
:10073000776E20636F6D6D616E64205B0048494485
:100740005F494E544552464143453A200043444395
:100750005F41434D5F494E544552464143453A201F
:100760000042616420636F6D6D616E642E2053687A
:100770006F756C64206265204E4C206F72204E486D
:10078000000A526573746F72656420466163746F0A
:1007900072792044656661756C74732E2E2E0D0A75
:1007A000204D75737420646F2027532720746F20A9
:1007B0007361766520746F20454550524F4D202857
:1007C0006E6F6E2D766F6C6174696C65206D656DF2
:1007D0006F7279292E000A5361766564206E657701
:1007E0002076616C756528732920746F204545500B
:1007F000524F4D2E0A005D005B00000000002400F7
:1008000027002A002D0030000000000025002800ED
:100810002B002E00310000000000230026002900DC
:100820002C002F0004040404040304050202020245
:100830000403020202020606060606060404020279
:10084000020404040802011040804010204080404F
:100850008008020401804020100201108010204016
:1008600040200000000200090F0000030401000CFA
:100870000000000000000000000000000000000078
:1008800000070605040100080A0B0C0D09446F6EF1
:10089000277420666F7267657420746F202853294F
:1008A00061766520746865206E65772076616C7569
:1008B0006521003078002073657420746F3A200041
:1008C0004E657720003078004F6C642076616C753F
:1008D00065207761733A20002E0A00222076616C31
:1008E000756521204D696E20697320004572726F15
:1008F000723A20496E76616C69642022002E0A00EB
:100900002076616C756521204D6178206973200027
:100910004572726F723A20496E76616C696420008C
:1009200005840904A1010924A10275089501150097
:1009300026FF00850109FE7902B123850209FF79AE
:1009400003B123850309FD7901B1230585850609D6
:100950008BB123851F09897904B1238520098F79FB
:1009600005B1238516092CB1238510098D26640055
:10097000B1228518098EB123850E0967B1838517C9
:100980000983B183850C096681A30966B1A3850F2C
:10099000098CB1A285110929B1A2850909857510B3
:1009A00027FFFF0000B1A3851A096A27FFFF000097
:1009B0006601105500B1A3851C096981A30969B1BD
:1009C000A3850D096881A30968B1A38508092A7563
:1009D0001027640500001678008122092AB1A205BB
:1009E000848512095716008027FF7F0000B1A28579
:1009F000130955B1A2850A0940150027FFFF000021
:100A00006721D1F0005505B123850B093081A30979
:100A100030B1A38514095A750815012503650055E1
:100A2000008122095AB1A20902A1028507058509A0
:100A30004475011500250181A30944B1A30945812D
:100A4000A30945B1A309D081A309D0B1A309D181DC
:100A5000A309D1B1A3094281A30942B1A3094381EA
:100A6000A20943B1A2094B81A3094BB1A309DB81C0
:100A7000A309DBB1A3094681A30946B1A3094781B4
:100A8000A30947B1A30584096881A20968B1A20935
:100A90006981A30969B1A3097381A30973B1A3098A
:100AA0006581A30965B1A395028101B101C0C0C0F0
:100AB0002F1711241FBECFEFDAE0DEBFCDBF13E04A
:100AC000A0E0B1E0EAE8F6E502C005900D92A43A94
:100AD000B107D9F727E0A4EAB3E001C01D92A93D10
:100AE000B207E1F715E0C9E5D5E004C02197FE01A2
:100AF0000E944329C835D107C9F70E94F5170C9405
:100B0000432B0C940000E6E8F8E0E49190917B0020
:100B10008E2F880F880F80729F7D892B80937B009A
:100B2000E770E064E0937C0080917A0080648093B9
:100B30007A0080917A0086FDFCCF809178009091B8
:100B400079000895FC0180819181FB012081318130
:100B5000821B930B0895FC018091A706882311F155
:100B60003FB7F89482E08093E9002091F200822F51
:100B700090E01816190614F481E090E0882339F00B
:100B8000289844E64093A6064091F1004083222332
:100B900039F02091F200211103C02BE62093E800E8
:100BA0003FBF08958FEF9FEF089581508F3008F079
:100BB00047C0E82FF0E0E152FA4F0C944329FC05BE
:100BC0000006EE05F405F8052006200620060306BB
:100BD00009060D061106170620061B0680918000E7
:100BE0008F77809380000895809180008F7DF9CF6A
:100BF00080918000877FF5CF84B58F7784BD08957D
:100C000084B58F7DFBCF809190008F77809390008B
:100C10000895809190008F7DF9CF80919000877F1B
:100C2000F5CF8091C0008F778093C00008958091A8
:100C3000C0008F7DF9CF8091C200877F8093C20072
:100C40000895CF93DF93282F30E0F901EE59F74F45
:100C50008491F901ED5BF74FD491F901EC5DF74F09
:100C6000C491CC23A1F081110E94D505EC2FF0E0B6
:100C7000EE0FFF1FEA5EF74FA591B491EC91ED23C3
:100C800081E090E009F480E0DF91CF91089580E069
:100C900090E0FACF1F93CF93DF93282F30E0F90134
:100CA000EE59F74F8491F901ED5BF74FD491F901BB
:100CB000EC5DF74FC491CC23A9F0162F81110E944F
:100CC000D505EC2FF0E0EE0FFF1FE85FF74FA59181
:100CD000B4918FB7F894EC91111108C0D095DE2330
:100CE000DC938FBFDF91CF911F910895DE2BF8CF5A
:100CF000CF93DF9390E0FC01ED5BF74F24918C5D87
:100D0000974FFC0184918823C9F090E0880F991FC8
:100D1000FC01E650F84FA591B491FC01E85FF74F54
:100D2000C591D49161110DC09FB7F8948C91209515
:100D300082238C938881282328839FBFDF91CF91C2
:100D40000895623051F49FB7F8943C91822F8095BA
:100D500083238C93E8812E2BEFCF8FB7F894EC91FF
:100D60002E2B2C938FBFEACF3FB7F8948091A20629
:100D70009091A306A091A406B091A50626B5A89BC4
:100D800005C02F3F19F00196A11DB11D3FBFBA2F1D
:100D9000A92F982F8827BC01CD01620F711D811DDD
:100DA000911D42E0660F771F881F991F4A95D1F762
:100DB00008958F929F92AF92BF92CF92DF92EF925F
:100DC000FF924B015C010E94B4066B017C010E9402
:100DD000B4066C197D098E099F09683E7340810530
:100DE0009105A8F321E0821A9108A108B10888EEC4
:100DF000C80E83E0D81EE11CF11C81149104A104EB
:100E0000B10429F7FF90EF90DF90CF90BF90AF90A3
:100E10009F908F90089540914504509146042091F1
:100E200043043091440442175307B4F49091E8000E
:100E30009570E1F39091E80092FD19C08093F10064
:100E4000809145049091460401968F739927892BD0
:100E500019F48EEF8093E800809145049091460448
:100E60000196909346048093450481E0089580E0C4
:100E70000895EF92FF920F931F93CF93DF93F82E75
:100E8000192FE62E042F81E0860F880F0E940B0792
:100E900083E00E940B07CF2DD12FEC0EFD2EF11C0D
:100EA000CE15DF05B9F007FF13C0FE0184910E9443
:100EB0000B07182F80E00E940B07812321968111D8
:100EC000EFCFDF91CF911F910F91FF90EF90089599
:100ED0008881EDCF81E0F5CFDF92EF92FF920F9303
:100EE0001F93CF93DF93D82E8A01EB017B01E40E91
:100EF000F51ECE15DF0559F0D7FE12C0FE01849114
:100F00000E940B0721968111F4CF0FEF1FEFC8014C
:100F1000DF91CF911F910F91FF90EF90DF90089597
:100F20008881EECF2FB7F89487708093E900909175
:100F3000E800892F807295FF04C09091F20080E450
:100F4000891B2FBF08958F929F92AF92BF92CF922D
:100F5000DF92EF92FF920F931F93CF93DF93B82E00
:100F60006B018A018091A70681110FC08FEF9FEF5F
:100F7000DF91CF911F910F91FF90EF90DF90CF9075
:100F8000BF90AF909F908F9008958091490480FF0B
:100F900005C08091E00082608093E000C02FD12FD7
:100FA000F12C8AEFE82E8B2D8770982E8B2D807474
:100FB000882E9AE3A92E209719F4FF2009F443C044
:100FC0008B2D0E94920781110AC0EA94EE2071F2E3
:100FD00061E070E080E090E00E94D906ECCF8C17D1
:100FE0001D0611F00CF08C2F9FB7F8949092E90039
:100FF0002091E80025FD02C09FBFDDCF282F30E003
:10100000C21BD30BF601815020F041914093F100B7
:10101000FACFC20ED31EFF2021F0A092E800F12CDF
:10102000EBCF8091E80085FD07C0A092E800FF2487
:10103000F394209709F3F3CF2097F1F68820E1F29B
:10104000A092E800D9CF5D9884E680934804C80157
:101050008FCF615030F02091F100FC012083019688
:10106000F8CF289884E68093A6060895AF92BF92A1
:10107000DF92EF92FF920F931F93CF93DF935C0168
:101080008B01EB019BEFD92E2097C1F07E01C1347B
:10109000D1051CF080E4E82EF12C8091E80082FF5D
:1010A000FCCFC8018C1B9D0B6E2D8A0D9B1D0E94D1
:1010B0002908D092E800CE19DF09E6CFC801DF91F8
:1010C000CF911F910F91FF90EF90DF90BF90AF9065
:1010D0000895EF92FF920F931F93CF93DF938C01AC
:1010E0007B01D0E0C0E0F701EC0FFD1F64916623A7
:1010F00061F0D801ED91FC910190F081E02DC801E3
:101100000995892B11F02196EECFCE01DF91CF9179
:101110001F910F91FF90EF900895AF92BF92CF92E1
:10112000DF92EF92FF920F931F93CF93DF936C01A7
:101130007B018B01040F151FEB015E01AE18BF0888
:10114000C017D10759F06991D601ED91FC9101903A
:10115000F081E02DC6010995892B79F7C501DF9152
:10116000CF911F910F91FF90EF90DF90CF90BF90A4
:10117000AF90089580913B0481110DC082E080936F
:10118000370484E08093380410923A0410923904B2
:1011900081E080933B0487E394E008950F931F93CD
:1011A000CF93DF931F92CDB7DEB7198280914B04A6
:1011B000882349F082E0898342E450E067EC70E0E4
:1011C00080E80E946C070E94BA08DC0112960D911B
:1011D0001C910115110589F0D801ED91FC91028057
:1011E000F381E02DBE016F5F7F4FC801099597FD28
:1011F00004C0F80100851185ECCF89810F90DF9143
:10120000CF911F910F910895FC01538D448D252F8F
:1012100030E0842F90E0821B930B541710F0CF9690
:10122000089501970895FC01918D828D981761F0C2
:10123000A28DAE0FBF2FB11D5D968C91928D9F5FD9
:101240009F73928F90E008958FEF9FEF0895FC01B8
:10125000918D828D981731F0828DE80FF11D858D6B
:1012600090E008958FEF9FEF0895FC01918D228DFE
:10127000892F90E0805C9F4F821B91098F73992783
:1012800008958DE197E00E94350921E0892B09F44A
:1012900020E0822F089580E090E0892B29F00E94C1
:1012A000410981110C9400000895FC01A48DA80F40
:1012B000B92FB11DA35ABF4F2C91848D90E0019698
:1012C0008F739927848FA689B7892C93A089B189B8
:1012D0008C9182748C93938D848D981306C00288B0
:1012E000F389E02D80818F7D80830895EF92FF92B6
:1012F0000F931F93CF93DF93EC0181E0888F9B8D39
:101300008C8D981319C0E889F989808185FF14C0F4
:101310009FB7F894EE89FF896083E889F989808115
:10132000827480839FBF81E090E0DF91CF911F9115
:101330000F91FF90EF900895F62E0B8D10E00F5F48
:101340001F4F0F731127E02E8C8D8E110CC00FB61E
:1013500007FCFACFE889F989808185FFF5CFCE01B6
:101360000E945509F1CFEB8DEC0FFD2FF11DE35AD3
:10137000FF4FF0829FB7F8940B8FEA89FB89808139
:101380008062CFCFCF93DF93EC01888D8823B9F0B3
:10139000AA89BB89E889F9898C9185FD03C0808180
:1013A00086FD0DC00FB607FCF7CF8C9185FFF2CFFD
:1013B000808185FFEDCFCE010E945509E9CFDF91F5
:1013C000CF910895CF93DF93EC018091240188237E
:1013D00031F083E00E94A3071816190634F081E06B
:1013E00090E09B838A8380E090E0DF91CF91089525
:1013F000CF93DF931F92CDB7DEB76983DC01ED9108
:10140000FC910280F381E02D41E050E0BE016F5F6E
:101410007F4F09950F90DF91CF91089583E08093DE
:10142000E9008091F200882319F08AE38093E800B4
:10143000089583E00E94920790E00895CF93DF9390
:101440001F92CDB7DEB7FC018485958597FD08C056
:101450002FEF3FEF358724870F90DF91CF910895CD
:10146000CE0101960E94AB05019719F4898190E0A5
:10147000F3CF8FEF9FEFF0CF0F931F93CF93DF93B7
:101480001F92CDB7DEB78C01FC018485958597FF4F
:101490000BC0CE0101960E94AB05019771F48981C2
:1014A00090E0F80195878487F801848595850F90F1
:1014B000DF91CF911F910F9108958FEF9FEFF1CFA3
:1014C000FC018485958597FD0BC09FB7F89482E059
:1014D0008093E9008091F2009FBF90E0019608950B
:1014E0009FB7F89482E08093E9008091F2009FBF5B
:1014F00090E008952091ED03260F3327331F21320A
:101500003105ECF420911104FC0190E080E02430DE
:1015100069F082E00895A091ED032191AC0143535D
:101520005C4FA40FB52FB11D2C930196861798F32D
:101530008091ED03680F6093ED0380E0089581E0F2
:10154000089508958FEF9FEF08958FEF9FEF08950F
:101550008091C60390E09195819591090895CF936C
:10156000DF93CB01EA01642F0E947A0ACE01DF915A
:10157000CF910895CF93DF931F92CDB7DEB76983E4
:1015800061E0CE0101960E947A0A81E090E00F901E
:10159000DF91CF91089590E080E00895FC012FB78E
:1015A000F89480919E0690919F06A091A006B0911C
:1015B000A1062FBF4081518162817381841B950BED
:1015C000A60BB70B4481558166817781481759076F
:1015D0006A077B0730F48085882319F0108681E044
:1015E00081870895DC015296ED91FC9130E020E076
:1015F0003097A1F0DC0154964D915C91241735078A
:1016000058F4428153814617570741F00190F08109
:10161000E02D2F5F3F4FECCFF0E0E0E0CF010895E9
:10162000CF93DF93CDB7DEB7A0970FB6F894DEBFA8
:101630000FBECDBFFC01DB018C918F5F8C939E01AF
:101640002D5F3F4F88E0D9011D928A95E9F799E017
:10165000998384E08A8332E03D8383E08E839A8796
:1016600021E22B8791E09C879D872E879F8722E22E
:10167000288B67E06B8B25E02C8B44E84D8B8E8BA1
:1016800040E450E0588F4F8B74E1798F6A8F2B8F35
:101690002C8F8D8F5F8F4E8F8AE088A382818B8302
:1016A00026858785298B8A8B80914B04811102C006
:1016B0009D8B3C8F40E250E0BE016F5F7F4F80E02A
:1016C0000E946C07A0960FB6F894DEBF0FBECDBF88
:1016D000DF91CF910895CF93DF938091BE03811165
:1016E0007BC082E08093A80381E08093A9032EEA67
:1016F00033E03093AB032093AA031092AD03109212
:10170000AC0323E631E03093A5032093A4031092A9
:10171000B1031092B0031092B3031092B2038093FE
:10172000B4038093B50381EC8093AE0380EC809387
:10173000AF030E94BA08EC0189819091A803890F38
:101740009927991F08970CF044C0EA81FB813097D4
:1017500069F584EA93E09B838A8362E082E00E94D9
:10176000780680914B04882351F182E08093A60390
:1017700084E08093A70388819091A903890F8883CF
:101780003091A8039091AA03E92FF091AB038E2F1B
:10179000891B8317F0F489812191A82FB0E0A05014
:1017A000BF4F2C938F5F8983F2CFFC018085918599
:1017B0000097D9F784EA93E091878087CECF82E0C3
:1017C0000E942106892B89F21092A6031092A7038A
:1017D000D2CF81E08093BE0384EA93E0DF91CF9182
:1017E0000895CF92DF92EF92FF920F931F93CF93C2
:1017F000DF9300D0CDB7DEB78C017B016A010E9478
:101800006B0B1A83098341E050E0BE016F5F7F4F8D
:1018100084E00E94A3078C0197FD09C0A601B701CF
:1018200084E40E94A307080F191F97FD8C01C801CB
:101830000F900F90DF91CF911F910F91FF90EF903C
:10184000DF90CF900895FB0101900020E9F73197D8
:10185000AF01461B570BDC01ED91FC910280F38137
:10186000E02D09948F929F92AF92BF92EF92FF92D8
:101870000F931F93CF93DF93CDB7DEB7A1970FB62A
:10188000F894DEBF0FBECDBF7C01FA01CB0119A2D7
:10189000223008F42AE08E010F5D1F4F822E912C1A
:1018A000B12CA12CBF01A50194010E949727F90139
:1018B000CA016A300CF5605DD8016E938D01232B4F
:1018C000242B252B79F790E080E0109721F0BD01C3
:1018D000C7010E94230CA1960FB6F894DEBF0FBE7D
:1018E000CDBFDF91CF911F910F91FF90EF90BF90EF
:1018F000AF909F908F900895695CDECFCF92DF927A
:10190000EF92FF920F931F93CF93DF93EC016A0145
:101910007B01E881F9810190F081E02D6DE209956C
:101920008C0144275527BA014C195D096E097F09BE
:101930002AE0CE010E94320C800F911FDF91CF91DF
:101940001F910F91FF90EF90DF90CF9008950C942E
:10195000320C9A01AB0170E060E00C94A70C9A0184
:10196000462F50E070E060E00C94A70C8F929F929D
:10197000AF92BF92CF92DF92EF92FF920F931F939D
:10198000CF93DF937C01EB016C0182E0C80ED11C88
:101990004701E5E08E0E911C10E000E0F601619138
:1019A0006F014AE050E0CE010E94AF0C5C01E8817B
:1019B000F9810190F081E02D6EE2CE0109958A0D4A
:1019C0009B1D080F191FC814D90441F74AE050E0C5
:1019D000F7016581CE010E94AF0C800F911FDF914E
:1019E000CF911F910F91FF90EF90DF90CF90BF901C
:1019F000AF909F908F9008956CE971E00C94230C48
:101A00000F931F93CF93DF93EC010E94A90C8C01DD
:101A1000CE010E94FC0C800F911FDF91CF911F918E
:101A20000F9108950F931F93CF93DF93EC010E94C2
:101A3000230C8C01CE010E94FC0C800F911FDF91C2
:101A4000CF911F910F9108950F931F93CF93DF9321
:101A5000EC01FB014481558160817181E881F9814C
:101A60000280F381E02D09958C01CE010E94FC0CCF
:101A7000800F911FDF91CF911F910F9108950F93C8
:101A80001F93CF93DF93EC010E9469088C01CE0174
:101A90000E94FC0C800F911FDF91CF911F910F913D
:101AA000089581E080939A068AEA8093770685E517
:101AB0008093780681E095EA90939C0680939B063C
:101AC00080E29CE190937A068093790690937C065D
:101AD00080937B0688E592E090937E0680937D0656
:101AE00084E695E09093800680937F068EE794E0ED
:101AF0009093820680938106109289061092880640
:101B0000109287061092860688E795E090938D06DE
:101B100080938C0684E690E090938B0680938A06EF
:101B20008AE08093830685E0809384061092850680
:101B300080912C01882331F06CEA70E089EA96E00C
:101B40000C943F0D08956115710511F00C94230C50
:101B500090E080E00895BF92CF92DF92EF92FF92E3
:101B60000F931F93CF93DF93DC01EB0158968D9178
:101B70009C915997892BB9F08D01B12CCB2CD12C8C
:101B8000F801E08CF18CC7010E94EA25C816D9063D
:101B900010F5F701EC0DFD1DE491DE01AC0DBD1D4E
:101BA000EC93B394EBCF88E4888389E4898384E45D
:101BB0008A831E968C911E978F708F5B8B831E96E7
:101BC0008D919C9124E0969587952A95E1F78F70E9
:101BD0008F5B8C8385E0DF91CF911F910F91FF90F8
:101BE000EF90DF90CF90BF900895CF92DF92EF9269
:101BF000FF920F931F93CF93DF9300D0CDB7DEB743
:101C00007C01FB011381133009F046C0628170E052
:101C10007F6F0E94F20A009709F46AC0DC011496F3
:101C2000FC9014971596DC908F2D9D2D0E94EA252F
:101C3000E82E1A8381E08E0D880F898342E050E000
:101C4000BE016F5F7F4F80E00E946C07CF2C0F2D8D
:101C50001D2D802F8C198E15E8F4F801849189834D
:101C60001A8242E050E0BE016F5F7F4F80E00E9429
:101C70006C070F5F1F4F892B61F780E090E00F909A
:101C80000F90DF91CF911F910F91FF90EF90DF9018
:101C9000CF90089581E0F2CF8081813849F51232EA
:101CA00039F5D70112962C911297848195812817C6
:101CB0001906F1F41C960D911C91D12CC12C011523
:101CC000110589F0F801448155816281738180E8B2
:101CD0000E946C078F3F980791F2C80ED91ED80159
:101CE0000D911C91ECCF81E0F701808BC601C7CF2D
:101CF00090E080E0C4CF0F931F93CF93DF93EC016C
:101D0000AB01770F660B770B77FF0DC00E947E0C3F
:101D10008C01CE010E94FC0C800F911FDF91CF91AE
:101D20001F910F9108952AE00E94320CF1CFAF92DB
:101D3000BF92CF92DF92EF92FF920F931F93CF93B8
:101D4000DF93CDB7DEB7C857D1090FB6F894DEBF21
:101D50000FBECDBF8091BA079091BB07DC01ED911A
:101D6000FC910680F781E02D09950E9483059A83F6
:101D700089838E010F5F1F4F6E01BBE3CB0ED11C19
:101D800078018FE9A82E86E0B82E0E948305F8011D
:101D9000819391938F01C5010197F1F7CE16DF066C
:101DA000A1F722EA35E042E050E06DE170E0C701C2
:101DB0000E943F238D8D9E8DC858DF4F0FB6F8943B
:101DC000DEBF0FBECDBFDF91CF911F910F91FF906E
:101DD000EF90DF90CF90BF90AF9008950F931F9337
:101DE000CF93DF93EC0188819981009759F02A8184
:101DF0003B812617370730F081E0DF91CF911F91AB
:101E00000F9108958B016F5F7F4F0E946E2A00979C
:101E100059F0998388831B830A832C813D81232B6E
:101E200059F7FC011082E8CF80E0E7CFCF93DF9332
:101E3000EC0188819981009711F00E94E5291982AF
:101E400018821D821C821B821A82DF91CF91089515
:101E5000EF92FF920F931F93CF93DF938C017B013F
:101E6000EB0109900020E9F72197C61BD70BBE01B3
:101E70000E94EE0E811109C0C801DF91CF911F9120
:101E80000F91FF90EF900C94160FF801D583C48347
:101E9000B70180819181DF91CF911F910F91FF90C8
:101EA000EF900C943C2BEF92FF920F931F93CF93E4
:101EB000DF93EC01FB01E080F180E114F10411F10A
:101EC0000481158101151105A9F08C819D81080FF0
:101ED000191FB801CE010E94EE0E882399F02881C7
:101EE00039818C819D81B701820F931F0E943C2B09
:101EF0001D830C83CE01DF91CF911F910F91FF9035
:101F0000EF900895CE010E94160FF4CFFC0180815E
:101F10009181009711F00C94E52908950F931F9378
:101F2000CF93DF93CDB7DEB761970FB6F894DEBFDE
:101F30000FBECDBF8C01CB01F8011182108213823C
:101F400012821582148250E0BE016F5F7F4F0E94A3
:101F50000626BE016F5F7F4FC8010E94280F619661
:101F60000FB6F894DEBF0FBECDBFDF91CF911F91AA
:101F70000F9108950F931F93CF93DF93CDB7DEB7E3
:101F800029970FB6F894DEBF0FBECDBF8C01862F08
:101F9000F80111821082138212821582148250E09D
:101FA000BE016F5F7F4F90E00E940626BE016F5F0B
:101FB0007F4FC8010E94280F29960FB6F894DEBF04
:101FC0000FBECDBFDF91CF911F910F9108952F923A
:101FD0003F924F925F926F927F928F929F92AF92B9
:101FE000BF92CF92DF92EF92FF920F931F93CF9306
:101FF000DF93CDB7DEB728970FB6F894DEBF0FBEDC
:10200000CDBFE0E15E2EA11002C03AE0532EFB01ED
:10201000608171816D30710521F06A30710509F0C0
:10202000EEC0AF821701380128877A01A52CB12CA8
:10203000A50170E060E001960E94AC24462E062FB8
:10204000172F8091BA079091BB07E016F10608F0B0
:1020500040C060E179E00E946908B6018091BA074A
:102060009091BB070E94A30D60E079E08091BA07D0
:102070009091BB070E9469084AE050E0B701809147
:10208000BA079091BB070E94A90C6DEF78E0809190
:10209000BA079091BB070E943F0D80E01092A806FE
:1020A00028960FB6F894DEBF0FBECDBFDF91CF915B
:1020B0001F910F91FF90EF90DF90CF90BF90AF9066
:1020C0009F908F907F906F905F904F903F902F9058
:1020D000089508151905F8F46CEE78E00E94690877
:1020E000B6018091BA079091BB070E94A30D6BEDDA
:1020F00078E08091BA079091BB070E9469084AE096
:1021000050E0B4018091BA079091BB070E94A90CDE
:1021100068ED78E0BCCF68EC78E00E946908FF8148
:10212000FF2341F065EC78E08091BA079091BB07FE
:102130000E946908E090BA07F090BB078885882361
:1021400009F447C0452DF3016081CE0101960E943C
:10215000BA0FBE016F5F7F4FC7010E94240DCE01F1
:1021600001960E94860FF301408260EC78E0809136
:10217000BA079091BB070E946908B6018091BA071F
:102180009091BB070E94A30D66EB78E08091BA079F
:102190009091BB070E946908FF81FF2341F063EB28
:1021A00078E08091BA079091BB070E946908A50169
:1021B000B8018091BA079091BB070E94000D6DE8AD
:1021C00078E08091BA079091BB070E943F0D81E0B3
:1021D00065CFF10160817181452DCE0101960E948C
:1021E0008E0FBE016F5F7F4FC7010E94240DCE018D
:1021F00001960E94860FF10111830083B6CF80E023
:102200004FCF1F93CF93DF9385ED8093BC008091D8
:10221000C9039091CA03A091CB03B091CC03079658
:10222000A11DB11D23E0B695A795979587952A9591
:10223000D1F72091BC0024FD03C01092110452C0BC
:102240004091C9035091CA036091CB037091CC03B4
:10225000452B462B472B69F30097A105B10541F0AB
:102260002AE22A95F1F700C00197A109B109E1CF4F
:102270008091C803C1E0C093C703882399F1D0912E
:10228000B8001091BA008091BC008A7B8093BC009A
:1022900060E082E00E944A0660E083E00E944A0615
:1022A00010921104C09313041092120461E082E0B2
:1022B0000E944A0661E083E00E944A068091B900CC
:1022C0008E7F8093B9008091B9008D7F8093B90093
:1022D00088E48093B80085E48093BC001093BA0032
:1022E000D093B800DF91CF911F910895EF92FF92A4
:1022F0000F931F93CF93DF93FC014281FB01248155
:1023000035814217130611F020E029C0EB0131811D
:102310002081213A81F5313051F52381233011F0AC
:1023200021E01DC0628170E00E94F20AEC0100977A
:1023300059F341E050E0BC016E5F7F4F80E00E94A6
:102340006C071816190604F74E815F816C817D8138
:1023500080E00E946C0721E018161906ACF6822F67
:10236000DF91CF911F910F91FF90EF90089521E0A1
:10237000333051F6F4CF213239F63B3021F422814B
:10238000FC01208BCDCF3A3021F42281FC01218B3E
:10239000C7CF393009F0B8CF2381233009F0B4CF4B
:1023A000628170E00E94F20A8C01009709F4ACCFC0
:1023B000EE80FF80FC01868197810196E816F90680
:1023C00009F0A2CF81E090E0E114F10409F0C70127
:1023D0000E944929EC01B7010E9436082881F801C2
:1023E000828193812817190609F08ECF4681578183
:1023F000BE016F5F7F4F848195810E94332B2097B0
:1024000009F48ECFCE010E94E5298ACFAF92BF9208
:10241000CF92DF92EF92FF920F931F93CF93DF93B0
:102420007C016B015A01E901DC0152960D911C916E
:1024300090E080E00115110531F589E090E00E94FF
:102440004929FC0111821082D382C282B582A48202
:10245000DD27D783C683D70153969C938E935297DB
:10246000F701848995890196958B848BDF91CF91B3
:102470001F910F91FF90EF90DF90CF90BF90AF90A2
:10248000089501968901F801228133812C153D05BB
:1024900069F3208131812115310599F789E090E0B8
:1024A0000E944929FC0111821082D382C282B58226
:1024B000A482DD27D783C683D8018D939C93D0CF88
:1024C000EF92FF920F931F93CF93DF93EC018B0159
:1024D0007A010E946B0B9701A801BE01DF91CF9199
:1024E0001F910F91FF90EF900C940612CF92DF9204
:1024F000EF92FF920F931F93CF93DF93C82F6B013F
:102500008A010E946B0B6C2F70E021E030E0A60185
:102510000E940612EC01892B89F00E946B0B7C0152
:10252000C8010E94EA25F601608170E07F6F9C017E
:10253000A801C7010E940612C80FD91FCE01DF9162
:10254000CF911F910F91FF90EF90DF90CF90089562
:102550001F920F920FB60F9211242F933F938F93D8
:102560009F93AF93BF9380919E0690919F06A091F9
:10257000A006B091A10630919D0623E0230F2D37D0
:1025800058F50196A11DB11D20939D0680939E06CE
:1025900090939F06A093A006B093A1068091A206F7
:1025A0009091A306A091A406B091A5060196A11D45
:1025B000B11D8093A2069093A306A093A406B093A6
:1025C000A506BF91AF919F918F913F912F910F9051
:1025D0000FBE0F901F90189526E8230F0296A11D9D
:1025E000B11DD2CF1F920F920FB60F9211248F936D
:1025F0009F93AF93BF93EF93FF938091E1009091EE
:10260000E100937F9093E10083FF1DC090914B0404
:10261000992309F45AC092E1EBE3F1E0ABE0B1E0B9
:1026200001900D929A95E1F71092E90091E0909354
:10263000EB001092EC0092E39093ED001092A7064D
:1026400098E09093F00082FF22C093E09093E9001D
:102650009091F200992319F09AE39093E8009091F9
:102660004804992341F09091480491509093480474
:10267000911101C05D9A9091A606992341F0909125
:10268000A60691509093A606911101C0289A84FF46
:1026900020C08091E2008E7E81608093E200809174
:1026A000E1008F7E8093E100809149048E7E8061FD
:1026B00080934904FF91EF91BF91AF919F918F91CA
:1026C0000F900FBE0F901F90189592E1EDE4F1E08E
:1026D000A5CF80FFEFCF8091E2008E7E8061809356
:1026E000E2008091E1008E7E8093E10080914904B8
:1026F0008E7E8160DDCF1F920F920FB60F92112454
:10270000CF92DF92EF92FF920F931F932F933F93FD
:102710004F935F936F937F938F939F93AF93BF93E9
:10272000EF93FF93CF93DF93CDB7DEB76C97DEBF08
:10273000CDBF1092E9008091E80083FF25C068E0DA
:10274000CE0145960E94290882EF8093E8008D898A
:1027500087FF39C09091E80090FFFCCF982F9076CA
:1027600009F038C19E894F89588D2F89F88C9111B5
:1027700031C0803861F580914A048093F100109255
:10278000F1008EEF8093E8006C960FB6F894DEBFF0
:102790000FBECDBFDF91CF91FF91EF91BF91AF9170
:1027A0009F918F917F916F915F914F913F912F9169
:1027B0001F910F91FF90EF90DF90CF900F900FBE81
:1027C0000F901F9018959EEF9093E800C7CF10923E
:1027D000F100D5CF913059F48111D3CF413051055B
:1027E00081F680914A048D7F80934A04CACF93304A
:1027F00049F48111C6CF4130510519F680914A0440
:102800008260F2CF953041F48091E80080FFFCCFE8
:1028100020682093E300B5CF963009F0A9C00B8D56
:102820001C8D22E01092E90010924604109245049B
:10283000F2122EC010924404109243040E94CE085B
:102840001F8299E09983FA8291E09E8390EA9887AB
:102850009AEF99872091450430914604275F3F4FB6
:102860003C832B838D831092E900109246041092D2
:102870004504109344040093430449E050E0BE0132
:102880006F5F7F4F80E00E946C070E94CE0879CF77
:1028900010934404009343040E94BA08DC0112968A
:1028A0000D911C910115110509F44DC1D801ED914F
:1028B000FC910480F581E02DBE016B5E7F4FC80165
:1028C0000995009709F03AC1F80100851185EACF12
:1028D000F3E0FF120EC08F89882309F440C08230D4
:1028E00061F440E860E189E191E00E9439078111DB
:1028F00048CF81E28093EB0047CF813029F440E854
:102900006BE08DE091E0F1CF833099F70E94BA0837
:10291000DC011296ED90FC908E010F5F1F4F680155
:10292000E114F10479F0D701ED91FC910680F78173
:10293000E02DB801C7010995080F111DF701E084CA
:10294000F184EECFD8011C92F60101900020E9F746
:102950003197BF016C197D0940E0C601C6CFE9E09F
:10296000F1E0449150E0BF0180E80E946C0709CF7C
:10297000973009F4BECF983021F481E08093F100C4
:1029800000CF993009F0FDCE837009F0B2CF80916D
:102990004B048823B1F0E1E0F1E081E031E096E31F
:1029A0002191222371F08093E9003093EB00DF0145
:1029B00011972C912093EC009093ED008F5F87305E
:1029C00079F78EE78093EA001092EA008F8980936E
:1029D000A706D7CE8B8D9C8D1092E90010924604ED
:1029E000109245049093440480934304898D81118F
:1029F0008AC08E899D89913A41F4813209F079CF5C
:102A000047E050E06DE171E0B5C0913209F071CF5F
:102A1000833269F48F89988DB0E0A0E0809307013C
:102A200090930801A0930901B0930A01AACE8032C5
:102A300039F467E070E08DE191E00E943608A1CEA4
:102A4000823209F09ECE8F8980932401EEEFFFE75A
:102A500085919491E0E0F8E08B3F9C4D11F4EEEF0E
:102A6000FAE080911D0190911E01A0911F01B0918B
:102A70002001803B9440A105B105D9F48091240147
:102A800080FD17C0EE3F8AE0F80771F587E797E70A
:102A900091838083809160008093470488E19BE06C
:102AA0000FB6F894A895809360000FBE90936000D5
:102AB00068CE808191818737974709F062CEA895CB
:102AC00080916000886180936000809147048093CA
:102AD0006000EE3F2AE0F20789F08091FE0A9091B3
:102AE000FF0A918380834DCE80819181873798073B
:102AF00069F29093FF0A8093FE0AC8CF1092FF0AF2
:102B00001092FE0A3ECE0E94BA08DC0112960D9188
:102B10001C910115110509F4ECCED801ED91FC9141
:102B20000190F081E02DBE016B5E7F4FC8010995D9
:102B3000811127CEF80100851185EBCF18161906F3
:102B40000CF41FCED6CEF1E0FF12C2CE80914B0422
:102B500081110CC08DE195E09093140180931301D5
:102B600083E090E0909316018093150142E150E0DC
:102B70006BE071E080E0F9CE1F920F920FB60F92DA
:102B800011242F933F934F935F936F937F938F9372
:102B90009F93AF93BF93EF93FF938DE197E00E94D4
:102BA0005509FF91EF91BF91AF919F918F917F91C7
:102BB0006F915F914F913F912F910F900FBE0F90AA
:102BC0001F9018951F920F920FB60F9211242F93FA
:102BD0008F939F93EF93FF93E0912D07F0912E0732
:102BE0008081E0913307F091340782FD1BC0908112
:102BF000809136078F5F8F7320913707821741F0DE
:102C0000E0913607F0E0E35EF84F958F809336074A
:102C1000FF91EF919F918F912F910F900FBE0F9089
:102C20001F9018958081F4CF1F920F920FB60F92CC
:102C300011242F933F934F935F936F937F938F93C1
:102C40009F93AF93BF93EF93FF938091B900887FD9
:102C5000803609F44AC0F0F5883209F4A5C018F5A9
:102C6000803109F499C0B8F4882309F4F5C088309C
:102C700009F492C0FF91EF91BF91AF919F918F9115
:102C80007F916F915F914F913F912F910F900FBE68
:102C90000F901F901895883109F486C0803251F743
:102CA0008093100414C0803409F49BC040F4803336
:102CB000B9F38833F9F68093100485ECAEC0803503
:102CC00009F483C0883509F494C0883499F60E94C9
:102CD0000111D0CF883909F48AC038F5883729F036
:102CE00050F4883611F0803729F683E08093110480
:102CF00010920F0455C0883809F479C0803919F052
:102D0000803809F0B7CF80910F04803208F06FC08F
:102D1000E0910F0481E08E0F80930F048091BB003F
:102D2000F0E0E151FC4F80833BC0803B39F0D0F4B0
:102D3000803A09F477C0883A09F09CCF84E0809308
:102D400011041092EE031092ED03F0E0E0E009951B
:102D50008091ED0381110FC081E08093ED0310920B
:102D6000CD0309C0803C09F4A8CF883C09F4A5CF65
:102D7000883B09F07FCFE091EE0381E08E0F8093D6
:102D8000EE03F0E0E353FC4F80818093BB00909111
:102D9000EE038091ED0329C0809136048093BB003F
:102DA00085EC8093BC0066CF90913504809134040B
:102DB000981758F5E091350481E08E0F8093350423
:102DC000F0E0EC5EFB4F8081E9CFE091350481E0DB
:102DD0008E0F809335048091BB00F0E0EC5EFB4FDA
:102DE000808390913504809134049817C8F285E867
:102DF000D8CFE091350481E08E0F80933504809127
:102E0000BB00F0E0EC5EFB4F8083809113048111E6
:102E10005ECF81E08093120484EA8093BC0010921C
:102E2000110428CF85EC8093BC001092110480918E
:102E30000F04803230F4E0910F04F0E0E151FC4FD8
:102E4000108260910F0470E08FEE93E0F0E0E0E01C
:102E5000099510920F040ECF1092100438CF1092E3
:102E6000200710921F0788EE93E0A0E0B0E0809367
:102E7000210790932207A0932307B093240726E706
:102E800031E030931E0720931D072DEC30E0309386
:102E90002A07209329072CEC30E030932C0720934D
:102EA0002B0728EC30E030932E0720932D0729ECD8
:102EB00030E03093300720932F072AEC30E0309336
:102EC0003207209331072EEC30E030933407209303
:102ED0003307109236071092370710923807109276
:102EE00039071092AC061092AB068093AD06909312
:102EF000AE06A093AF06B093B00688E891E0909339
:102F0000AA068093A9068FEF9FEF9093B606809351
:102F1000B5068AE991E09093FA068093F90610923B
:102F2000FB061092FC061092FD061092FE0690938E
:102F3000BD078093BC071092BE071092BF07109286
:102F4000C0071092C1078DE197E09093BB07809373
:102F5000BA0710921C0710921B07109212071092CA
:102F60001107109208071092070782E08093D0079C
:102F700081E08093D10793E09093D2079091C807A6
:102F8000911112C01092C3071092C20720E239E0DB
:102F90003093C5072093C40720E931E03093C70779
:102FA0002093C6078093C8070E946B0BFC01A48581
:102FB000B585109781F482EC97E0958784878685A4
:102FC00097852091C6073091C707820F931F978777
:102FD00086870895DC018D919C9111970097D1F718
:102FE00082EC97E08D939C93EACFCF93DF93CDB79C
:102FF000DEB7A2970FB6F894DEBF0FBECDBFF89430
:1030000062E082E00E94780682E00E942106892B1D
:1030100019F481E080934B04789461E087E00E948A
:10302000780661E086E00E94780661E085E00E9413
:10303000780660E087E00E944A0660E086E00E9431
:103040004A0660E085E00E944A0680914B0488238E
:1030500009F4C8C361E087E00E944A0660E086E0A8
:103060000E944A06789484B5826084BD84B58160EC
:1030700084BD85B5826085BD85B5816085BD809143
:103080006E00816080936E001092810080918100BB
:1030900082608093810080918100816080938100B3
:1030A0008091800081608093800080919100826097
:1030B0008093910080919100816080939100809134
:1030C00090008160809390008091C1008460809323
:1030D000C1008091C10082608093C1008091C100D5
:1030E00081608093C1008091C30081608093C300A0
:1030F0008091C00082608093C0008091C200816096
:103100008093C20080917A00846080937A008091DD
:103110007A00826080937A0080917A008160809347
:103120007A0080917A00806880937A001092A706D6
:1031300010924A04109249048091D70081608093D4
:10314000D70080EA8093D80089B5806189BD89B5B0
:10315000826089BD09B400FEFDCF61E070E080E0CF
:1031600090E00E94D9068091D8008F7C8061809386
:10317000D8008091E000807F8093E0008091E100A2
:103180008E7E8093E1008DE08093E200559A209A34
:103190008FEF9FEF9093B6068093B50668E873E1D2
:1031A00080E090E00E94D9066DE272E089EA96E044
:1031B0000E9469088FB7F89440911D0150911E013B
:1031C00060911F01709120018FBF2AE030E089EAF1
:1031D00096E00E94A70C6AE272E089EA96E00E94FB
:1031E0006908609123014AE050E089EA96E00E9474
:1031F000AF0C67E272E089EA96E00E94690860918C
:1032000022014AE050E089EA96E00E94AF0C64E2B5
:1032100072E089EA96E00E946908609121014AE023
:1032200050E089EA96E00E94AF0C89EA96E00E949D
:10323000FC0C80912C01882321F089EA96E00E9401
:10324000FC0C80912C01882331F06CE072E089EA5B
:1032500096E00E943F0D80912C01882331F061EAB5
:1032600071E089EA96E00E943F0D80912C0188234D
:1032700031F06FE971E089EA96E00E94120D8091C9
:103280002C01882331F063EC71E089EA96E00E941A
:10329000120DE0912D07F0912E0782E08083E091DE
:1032A0002907F0912A071082E0912B07F0912C0753
:1032B00080E1808310923507E0913107F091320769
:1032C00086E08083E0912F07F09130078081806154
:1032D0008083E0912F07F0913007808188608083A0
:1032E000E0912F07F0913007808180688083E09122
:1032F0002F07F091300780818F7D808368EE73E027
:1033000080E090E00E94D90663EC71E08DE197E0E7
:103310000E94A30D61ED71E08DE197E00E94A30D85
:1033200060914B0470E08DE197E00E947B0E17E7FF
:10333000E12E16E0F12E10E000E0C8010E945D27AA
:10334000F70181937F010F5F1F4F06321105A9F727
:10335000809177068A3A09F04BC2809178068535CC
:1033600009F046C280919B0690919C068130954A57
:1033700009F03EC280919A06817080932C018823C7
:1033800031F064E871E089EA96E00E943F0D0E9406
:103390006B0B0E946B0B21E030E040ED57E061E0E9
:1033A00070E00E9406120E946B0B21E030E042EDBB
:1033B00057E062E070E00E9406120E946B0B21E071
:1033C00030E041ED57E063E070E00E9406120E9499
:1033D0006B0B29E331E0FC01318F208F0E946B0BD6
:1033E00029EA36E0FC01378B268B62E084E00E94FC
:1033F000780660E087E10E94780661E08DE00E9437
:103400004A0680917506909176068560916090934A
:1034100076068093750642E050E065E776E087E047
:1034200090E00E94601242E050E060E371E08DE0C5
:1034300090E00E94601242E050E069E776E08AE1A5
:1034400090E00E94601242E050E06BE776E08CE191
:1034500090E00E94601242E050E06DE776E088E084
:1034600090E00E94601242E050E06AE271E083E185
:1034700090E00E94601242E050E06DE271E082E173
:1034800090E00E94601241E050E069E271E086E065
:1034900090E00E94601241E050E068E271E086E155
:1034A00090E00E94601242E050E060E771E08AE044
:1034B00090E00E94601242E050E066E271E08BE032
:1034C00090E00E94601244E351E06FE671E08FE10A
:1034D0000E9476124AE251E06EE671E080E20E94BC
:1034E000761241E050E065E271E084E190E00E94F4
:1034F000601241E050E06DE671E087E190E00E94EB
:10350000601241E050E06FE271E08EE090E00E94D6
:10351000601241E050E062E371E08CE090E00E94D4
:10352000601241E050E063E876E08FE090E00E94B6
:10353000601241E050E064E876E081E190E00E94B2
:10354000601241E050E06CE671E080E190E00E94A2
:10355000601241E050E06BE671E088E190E00E948B
:10356000601280917F069091800690933401809341
:10357000330141E050E062E371E08CE090E00E94B2
:10358000F10B42E050E065E776E087E090E00E94D2
:10359000F10B90936D0680936C0680912C0188232B
:1035A00009F45BC0609175067091760640E1CE012A
:1035B00001960E948E0F4AE060913201CE0143963F
:1035C0000E94BA0F1A8E198E1C8E1B8E1E8E1D8E97
:1035D0006DE270E0CE0149960E94EE0E811115C198
:1035E000CE0149960E94160FBE016D5E7F4FCE013F
:1035F00049960E94530F8C01FC01E480F580F1E1B3
:10360000EF0EF11CB7010E94EE0E882309F408C1E9
:10361000F80120813181848195816EE072E0820F12
:10362000931F0E943C2BF801F582E482BE016F5F7C
:103630007F4FC8010E94530FBC0189EA96E00E94A7
:10364000240DCE0149960E94860FCE0143960E941A
:10365000860FCE0101960E94860F10921C072FB78D
:10366000F89480919E0690919F06A091A006B0913B
:10367000A1062FBF8093130790931407A0931507FB
:10368000B09316078AE090E0A0E0B0E080931707BF
:1036900090931807A0931907B0931A0781E08093BD
:1036A0001B07BCE36B2E712CBB24B394ACE35A2EE6
:1036B00089EA96E00E94600A892B09F490C489EA9D
:1036C00096E00E941E0A8C0180912C01882329F02B
:1036D000602F89EA96E00E94F809E091A806EE3191
:1036E00008F078C40D30110599F00A30110581F009
:1036F0000F3E110569F0C8018B7F8B3B910541F0AE
:1037000081E08E0F8093A806F0E0E45BFB4F00831E
:10371000E091A806F0E0E45BFB4F108280912C0161
:10372000882331F068EF77E089EA96E00E94690823
:1037300080912C01882331F06CE474E089EA96E0F2
:103740000E94A30D80912C01882331F066EF77E071
:1037500089EA96E00E943F0D8091A806882309F42B
:103760001CC21A8F098F89EA96E09093BB07809359
:10377000BA070D30110521F00A30110509F098CF74
:1037800080914C04082E000C990B0E942B2B8E3438
:1037900009F404C40CF093C1833409F400C30CF0A1
:1037A00043C08F3309F448C0823409F460C26AE22E
:1037B00077E089EA96E00E9469086CE474E089EA9F
:1037C00096E00E94A30D67E273E089EA96E00E940A
:1037D000120D6AE273E089EA96E00E94120D1092DF
:1037E0004C04D5C160E087E00E944A0661E037CC16
:1037F00080912C01882331F06FE371E089EA96E033
:103800000E943F0D0E94510DC2CD8DE290E09E8F2F
:103810008D8F60EE71E0898D9A8D0E943C2BE4CEF5
:10382000C8010E94160F02CF853409F483C10CF43D
:103830009DC3883409F0BBCF80914D04082E000C45
:10384000990B0E942B2B853409F4A1C1813509F411
:103850009EC167EA76E089EA96E00E943F0D89EA18
:1038600096E00E94FC0C6EE876E089EA96E00E9401
:103870003F0D6FE971E089EA96E00E94120D89EA36
:1038800096E00E94FC0C6CE776E089EA96E00E94E4
:103890003F0D6AE476E089EA96E00E94690860914B
:1038A000850670E089EA96E00E947B0E6AE176E088
:1038B00089EA96E00E94690889EA96E00E94FC0C79
:1038C00068EE75E089EA96E00E94690860917F06DB
:1038D000709180064AE050E089EA96E00E94000D6F
:1038E00066EB75E089EA96E00E94690860918106BE
:1038F000709182064AE050E089EA96E00E94000D4D
:1039000064E875E089EA96E00E946908809179068A
:1039100090917A06B3010E9483274AE050E089EA39
:1039200096E00E94000D62E575E089EA96E00E944B
:10393000690880917B0690917C06B3010E948327E1
:103940004AE050E089EA96E00E94000D60E275E0EE
:1039500089EA96E00E94690860918806709189065C
:103960004AE050E089EA96E00E94A90C69E175E01E
:1039700089EA96E00E943F0D6DEF74E089EA96E0D7
:103980000E94690860918606709187064AE050E0BF
:1039900089EA96E00E94A90C6BEF74E089EA96E050
:1039A0000E943F0D69EC74E089EA96E00E94690884
:1039B00060918C0670918D064AE050E089EA96E0AD
:1039C0000E94A90C62EC74E089EA96E00E943F0D27
:1039D00065EA74E089EA96E00E94690860918A06C7
:1039E00070918B064AE050E089EA96E00E94A90CAB
:1039F00063EA74E089EA96E00E943F0D65E774E0AF
:103A000089EA96E00E943F0D64E374E089EA96E05B
:103A10000E943F0D68EF73E089EA96E00E943F0D37
:103A20006BEB73E089EA96E00E943F0D6FE773E06D
:103A300089EA96E00E943F0D62E473E089EA96E02D
:103A40000E943F0D64E173E089EA96E00E943F0D19
:103A500062EE72E089EA96E00E943F0D68ED72E046
:103A600089EA96E00E943F0D63EB72E089EA96E0F6
:103A70000E94690840E150E060919A0689EA96E068
:103A80000E94AF0C89EA96E00E94FC0C6DE972E09E
:103A900089EA96E00E9469086091330170913401CF
:103AA00089EA96E00E947B0E63E972E089EA96E07B
:103AB0000E943F0D66EA76E089EA96E066C08435AA
:103AC00009F405C104F5813509F46BC297E7E92EC5
:103AD00096E0F92E10E000E0833509F068CEF7019A
:103AE000D1907F01C8010E945D27D81621F06D2D6D
:103AF000C8010E9465270F5F1F4F0632110579F735
:103B000066ED77E0D9CF813709F44BC28E3709F4DF
:103B1000ACC18A3509F04BCE0E94510D61E877E0C7
:103B200089EA96E00E943F0D80919A068170809309
:103B30002C012DC080914D04082E000C990B0E9481
:103B40002B2B8E3409F086C00D30110519F00A3088
:103B50001105E9F48EE494E00E94C3258C010297DC
:103B600040F16AE177E089EA96E00E94690860E244
:103B700072E08091BA079091BB070E94A30D6AEF93
:103B800076E08091BA079091BB070E943F0D10929A
:103B9000A8068091A80681118BCD80912C018823E5
:103BA00009F486CD66E373E089EA96E00E94A30DEE
:103BB0007FCD6AEE76E089EA96E00E946908E0909F
:103BC000BA07F090BB07809185061C8A1B8A1E8A63
:103BD0001D8A188E1F8A4AE0BE016F5F7F4F90E0FA
:103BE0000E94F325BE016F5F7F4FCE0143960E9476
:103BF000280FBE016D5E7F4FC7010E94240DCE01CC
:103C000043960E94860F01700093850665EE76E06C
:103C10008091BA079091BB070E94690860E272E048
:103C20008091BA079091BB070E94A30D6BED76E0DF
:103C30008091BA079091BB070E9469086091850640
:103C400070E08091BA079091BB070E947B0E65EBF4
:103C500076E097CF6DE372E089EA96E00E94A30DCB
:103C60006CE474E089EA96E00E94120D90CF809196
:103C70004D04082E000C990B0E942B2B8534D9F093
:103C8000863441F7912C812CA12CEEE5CE2EE2E07A
:103C9000DE2EFFE7EF2EF6E0FF2E8E010F5F1F4FA7
:103CA00020E048E55BE1BE01675E7F4F8DE494E074
:103CB0000E94E70F6CCF912C812CA12C64E7C62EBB
:103CC00062E0D62E71E8E72E76E0F72EE6CF8091FF
:103CD0004D04082E000C990B0E942B2B833429F0E5
:103CE000843481F16BEC72E0B7CF809179069091CA
:103CF0007A06B3010E9483277A836983912C812CF1
:103D0000A12C54E8C52E52E0D52E9E012F5F3F4FC7
:103D100079018E010D5E1F4F20E040E45FE1BE019E
:103D2000675E7F4F8DE494E00E94E70F29813A811E
:103D3000529EC001539E900D112490937A06809359
:103D4000790625CF80917B0690917C06B3010E9475
:103D500083277A836983912C812CA12C46EAC42E77
:103D600042E0D42EAE014F5F5F4F7A018E010D5EAF
:103D70001F4F20E040E45FE1BE01675E7F4F8DE4AE
:103D800094E00E94E70F29813A81529EC001539E20
:103D9000900D112490937C0680937B06F8CE809141
:103DA0004D04082E000C990B0E942B2B883481F1B6
:103DB0008C3409F04FCF80918806909189069A83C0
:103DC0008983912C812CA12C35EEC32E32E0D32E89
:103DD000CE0101967C018E010D5E1F4F20E040E474
:103DE0005FE1BE01675E7F4F8DE494E00E94E70FC4
:103DF000882309F4CCCE89819A8190938906809397
:103E000088060E94970E9093870680938606BFCE01
:103E100080918C0690918D069A838983912C812CB8
:103E2000A12C2AEFC22E22E0D22EFE0131967F0174
:103E30008E010D5E1F4F20E040E45FE1BE01675E32
:103E40007F4F8DE494E00E94E70F882309F49FCE12
:103E500089819A8190938D0680938C060E94970E9B
:103E600090938B0680938A0692CE6DE772E089EA82
:103E700096E00E94690810E000E0F12CE12CD12CC2
:103E8000C8018E0D9F1D0E945D278F3F11F0DD241C
:103E9000D394FFEFEF1AFF0A20E1E216F10481F755
:103EA0000115110519F0DD2009F452C068E772E030
:103EB00089EA96E00E94690866E772E089EA96E07E
:103EC0000E9469080F3F110509F078F464E772E079
:103ED00089EA96E00E9469080031110530F462E732
:103EE00072E089EA96E00E94690840E150E0B8017A
:103EF00089EA96E00E94A90C60E772E089EA96E000
:103F00000E9469086801F12CC6010E945D27E82E15
:103F10003FE0381730F06EE672E089EA96E00E94E2
:103F2000690840E150E06E2D89EA96E00E94AF0CEE
:103F30004FE0F41631F06CE672E089EA96E00E94F8
:103F400069085FEFC51AD50AF39480E1F812DCCF57
:103F5000005F1F4F011594E0190709F08ECF68E547
:103F600072E089EA96E00E94690811CE912C812CBA
:103F7000AA24A39482E1C82E83E0D82EFE013196B4
:103F80007F010AE916E021E04FEF50E0BE01675ED5
:103F90007F4F8CE494E00E94E70FC6CD61E677E0A6
:103FA0008BCD6DE477E089EA96E00E94690870E0C5
:103FB00060E089EA96E00E947B0E6DE377E089EA93
:103FC00096E00E94690870E060E089EA96E00E944D
:103FD0007B0EDDCD1092A80610924C04DACD8FEF47
:103FE00096E00E94CE0A80910807909107079111F0
:103FF00021C028EE33E040E050E0209303073093E7
:10400000040740930507509306079FB7F894409123
:104010009E0650919F066091A0067091A1069FBFD9
:104020004093FF06509300076093010770930207C7
:10403000B092070710920807882309F40DC284E0A4
:104040000E9421068C010E948305C0908806D090B2
:104050008906F12CE12C2090860630908706512CA1
:10406000412C20918C0630918D0650E040E02C19B7
:104070003D094E095F09BC01990F880B990B621924
:104080007309840995090E94732720918A0630914B
:104090008B0650E040E022193309440955090E947B
:1040A000B927C20ED31EE41EF51ED7FC59C2D0920A
:1040B0003401C092330180918506882309F472C2CD
:1040C000C0908106D0908206F12CE12C2091330122
:1040D00030913401032E000C440B550B2C193D0973
:1040E0004E095F09A4E6B0E00E94D82720917F0620
:1040F0003091800650E040E02C193D094E095F09DF
:104100000E94B927F12C37FD06C02536310514F081
:1041100024E630E0F22EF092320160917B0670913D
:104120007C0690E080E00E943E261B012C016F2D52
:1041300070E090E080E00E9440269B01AC01C2014B
:10414000B1010E949F2620E030E048EC52E40E943A
:1041500096281B012C0120E030E0A9010E943E2995
:1041600020E030E040E05FE387FDFFC1C201B10124
:104170000E942A280E94082970933101609330011F
:1041800080917506909176060115110509F4F2C12A
:104190008560909376068093750680917506909160
:1041A000760620912F01F212E7C191609093760676
:1041B000809375068091750690917606011511051C
:1041C00009F0DFC120917D0630917E0662177307EA
:1041D00008F0D4C182629093760680937506809130
:1041E00075069091760620912D0130912E011216C0
:1041F00013060CF0C8C19460909376068093750600
:1042000080912C01882331F06DE373E089EA96E018
:104210000E94120D80917506909176069C01207285
:104220003470232B09F4B5C198609093760680937F
:10423000750680912C01882331F060E573E089EAEE
:1042400096E00E94120D8091750690917606886026
:1042500090937606809375062091730630917406CC
:1042600082179307B9F490913201809172069813E6
:1042700011C02091300130913101809170069091F0
:1042800071062817390731F480916E0690916F06F8
:104290004B97F4F141E050E062E371E08CE090E094
:1042A0000E94F10B012B41F442E050E060E371E029
:1042B0008DE090E00E94F10B42E050E065E776E08F
:1042C00087E090E00E94F10B90936D0680936C065E
:1042D00010926F0610926E06209175063091760648
:1042E0003093740620937306209132012093720656
:1042F0002091300130913101309371062093700686
:1043000097FD4DC181E090E090936B0680936A0623
:1043100080918506882309F473C080912C0188233D
:1043200031F062E072E089EA96E00E94A30D80918C
:104330002C01882341F04AE050E06091320189EA83
:1043400096E00E94AF0C80912C01882331F062E648
:1043500073E089EA96E00E94A30D80912C018823E6
:1043600069F08091300190913101B3010E9483275F
:104370004AE050E089EA96E00E94A90C80912C0165
:10438000882331F064E773E089EA96E00E94A30D88
:1043900080912C01882371F080913001909131013E
:1043A000B3010E9483274AE050E0BC0189EA96E00D
:1043B0000E94A90C80912C01882331F066E773E0FC
:1043C00089EA96E00E94A30D80912C01882371F068
:1043D00040916C0650916D06052E000C660B770B14
:1043E00077FFE5C089EA96E00E947E0C80912C015F
:1043F000882331F066E973E089EA96E00E94A30D14
:10440000B0922C0169E973E089EA96E00E94A30D5D
:1044100080912C01882341F0609133017091340127
:1044200089EA96E00E947B0E69E973E08DE197E0EE
:104430000E94A30D60913301709134018DE197E0EA
:104440000E947B0E6AE674E08DE197E00E94A30D66
:104450008DE197E00E94C20980916A0690916B06F7
:104460008130910509F4A9C008F4B9C0029709F494
:10447000ADC083E197E00E94CE0A80911C078111B4
:1044800010921B0710921C07882341F1109212070B
:104490002FB7F89480919E0690919F06A091A00658
:1044A000B091A1062FBF8093090790930A07A093AC
:1044B0000B07B0930C07EF8DF8A1CF01B0E0A0E09F
:1044C00080930D0790930E07A0930F07B0931007EA
:1044D000B092110760E08DE00E944A0689E097E003
:1044E0000E94CE0A8091120781111092110710923A
:1044F0001207882341F110921C072FB7F89480917E
:104500009E0690919F06A091A006B091A1062FBF94
:104510008093130790931407A0931507B093160781
:1045200029A13AA1C901B0E0A0E0809317079093B8
:104530001807A0931907B0931A07B0921B0761E000
:104540008DE00E944A0680E090E0892B09F4AEC815
:104550000E944109882309F4A7C80E940000A4C84A
:104560001092340110923301A6CDC201B1010E9414
:10457000292800CE8A7F0DCE9E7F18CE8F7D826047
:104580002ACE8D7D28CE9B7F9093760680937506EC
:1045900041CE977F909376068093750654CE82E045
:1045A00090E0B2CE10926B0610926A06B1CE2AE06D
:1045B00089EA96E00E94320C19CF44E650E058A3F5
:1045C0004F8F84E893E09AA389A353CFE4E8F3E004
:1045D000F8A3EF8F24E630E03AA329A34ACF44EFB3
:1045E00051E058A34F8F84EF91E0EDCFCF93DF934D
:1045F000DC012D91FB013191EC013883EB01288323
:1046000041505109CD01BF01141615068CF3DF91FD
:10461000CF910895B0E0A0E0E0E1F3E20C94ED2743
:104620006C01D62FC72F8A017901F9010995B801CC
:1046300097FF15C08D2F9C2FF701099597FD08C096
:10464000B801C601F701099597FD16C0DC2DCD2DE7
:104650008D2F9C2FCDB7DEB7E8E00C9409288D2F65
:104660009C2FF70109951816190694F3B801C60195
:10467000F701099597FDEACFD02FC12FE9CFA8E028
:10468000B0E0E5E4F3E20C94E3278C0158874F8314
:1046900059019A013195219531093E832D836F800F
:1046A0007884600E711E6730710578F58F8198856A
:1046B000689F6001699FD00C789FD00C1124C00EB8
:1046C000D11E6C147D0420F02896E2E10C94FF27A3
:1046D000730113C047012F813885821A930AB701ED
:1046E000C401F50109951816190654F44F8158852F
:1046F000B401C7010E94F62274010E151F0550F384
:10470000EF81F8856E0E7F1EDCCFCB0196958795E5
:104710002F813885829F6001839FD00C929FD00C9F
:104720001124C00ED11ECB010197829F1001839FDF
:10473000300C929F300C11247801E20CF31C67308E
:10474000710509F442C0C701280169327105B0F151
:1047500083E0769567958A95E1F7629F4001639FB4
:10476000900C729F900C1124C401880F991F9A839A
:104770008983AC01400F511FB801680D791D950167
:10478000C8010E940A232C01A601480D591D9194CD
:10479000819491089501B601C601880D991D0E946A
:1047A0000A236C01B701680D791D9501A701C701A6
:1047B000E981FA818E1B9F0B0E940A239501AC01AF
:1047C000B601C2010E940A236C014F815885B601CF
:1047D000C8010E94F6224301630127011A8219824F
:1047E000EC14FD0408F446C0B801C601F5010995B2
:1047F0001816190654F1892B71F44F815885B601AA
:10480000C3010E94F6222F813885620E731E81E05B
:1048100090E09A838983EF81F885CE0EDF1EE0CF8A
:10482000892B71F44F815885B201C7010E94F6228D
:104830002D813E81420E531E81E090E09A83898350
:10484000EB80FC80EC14FD04A8F0B801C701F50171
:1048500009952D813E812E0D3F1D3C832B8397FFB3
:10486000DFCF4F815885B701C6010E94F622EB8049
:10487000FC80CDCFEF81F8852E0E3F1E200E311E1D
:1048800029813A81232B09F58214930408F01CCF67
:10489000740113C06701EF81F885CE1ADF0AB701F2
:1048A000C601F50109951816190654F44F8158856B
:1048B000B601C7010E94F62276010E151F0550F3BE
:1048C0008F819885880E991EDFCF4601861897083C
:1048D000A301401B510B841695060CF4A401141679
:1048E000150634F4B601641B750BC8010E94F6224C
:1048F00092012E193F097901A101441955098F81AF
:104900009885481B590B2417350708F4A90114167C
:10491000150634F4B101641B750BC6010E94F62222
:10492000EF81F885E815F90548F4C401BF010E943C
:1049300083279501AF01C8010E943F232F8138854D
:104940002E153F0508F0C0CE81010E191F09C701C1
:10495000B9010E948327A3CEB0E0A0E0E2EBF4E22D
:104960000C94E4275C016B017A016115710519F063
:10497000FB0191838083E114F10451F0C701029798
:10498000839730F040E030E020E090E072C05E01BC
:10499000E5012196F5011081812F90E00E94E1252B
:1049A000892BA9F71D3201F52196F501118101E04E
:1049B000E114F10409F4DAC0F0E1EF16F10409F0B2
:1049C00082C0103359F488818F7D883509F076C014
:1049D000198122960260F0E1EF2EF12C812C912CAE
:1049E000A12C88E0B82E8CC01B3221F4E501229660
:1049F000F501118100E0DCCFEAE0EE16F10409F4E4
:104A0000BBC0F0E1EF16F10409F06DC0E7CF78E02C
:104A1000E72EF12C812C912CA12C60E1B62E70C0D8
:104A20003FE9310F3A3128F439EA332E80C021E0D2
:104A30009AC0302F3170C114D10431F0222309F112
:104A40002197F601D183C08327FF21C060E070E089
:104A500080E090E8311104C06FEF7FEF8FEF9FE7A8
:104A600022E230E03093D4072093D307462F372F2C
:104A7000282F642F732F822FCDB7DEB7E1E10C947E
:104A8000002801FF04C02297F601D183C08333239D
:104A900041F090958095709561957F4F8F4F9F4F16
:104AA000E5CF97FFE3CF82E290E09093D407809325
:104AB000D3076FEF7FEF8FEF9FE7D8CF10E3E114BD
:104AC000F10409F4A4CF28E0E216F10409F4A2CF1E
:104AD0000CF092CF812C912CA12CE0E4BE2E82E030
:104AE000E816F10469F060E070E080E090E897017A
:104AF0000F2C000C440B550B0E94972749015A01BB
:104B000020E060E070E0CB0127010F2C000C66086C
:104B10007708FE0150ED352E310E39E0331540F4A3
:104B20003FEB310F3A3108F07BCF49EC342E310E98
:104B30003E141F040CF07DCF27FD15C08616970686
:104B4000A806B90678F0A30192010E947327630DAD
:104B5000711D811D911D61307105810520E892074D
:104B600008F465CF2FEF21961081D3CF103309F4CD
:104B70002ACF2AE0E22EF12C9CEC892E982CA82C2E
:104B80009CE0B92EBDCFFC0188279927E89421919C
:104B90002032E9F3293010F02E30C8F32B3241F0E7
:104BA0002D3239F4689404C00E94FE25820F911DB5
:104BB000219120532A30C0F31EF4909581959F4F88
:104BC000089591110C942B26803219F0895085504C
:104BD000C8F70895FC0105900020E9F780959095AD
:104BE0008E0F9F1F0895BB274A3031F4992322F47A
:104BF000BDE2909581959F4F0C9412267AE0979F85
:104C0000902D879F802D910D1124089545325105D7
:104C100020F4423010F00C941126FB011082CB01DD
:104C20000895BB27FB015527AA27880F991FAA1FA4
:104C3000A41710F0A41B83955051B9F7A05DAA33B7
:104C400008F0A95DA193009779F7B111B193119282
:104C5000CB010C942E26992788270895DC01FC01AE
:104C6000672F71917723E1F7329704C07C916D93A0
:104C700070836291AE17BF07C8F30895E89409C026
:104C800097FB3EF490958095709561957F4F8F4F7F
:104C90009F4F9923A9F0F92F96E9BB279395F69595
:104CA000879577956795B795F111F8CFFAF4BB0F13
:104CB00011F460FF1BC06F5F7F4F8F4F9F4F16C077
:104CC000882311F096E911C0772321F09EE8872F01
:104CD000762F05C0662371F096E8862F70E060E0BD
:104CE0002AF09A95660F771F881FDAF7880F969536
:104CF000879597F90895990F0008550FAA0BE0E8DA
:104D0000FEEF16161706E807F907C0F0121613068D
:104D1000E407F50798F0621B730B840B950B39F4CD
:104D20000A2661F0232B242B252B21F408950A2633
:104D300009F4A140A6958FEF811D811D08950E9461
:104D4000B2260C9423270E94152738F00E941C27B6
:104D500020F0952311F00C940C270C9412271124A9
:104D60000C9457270E94342770F3959FC1F3950F39
:104D700050E0551F629FF001729FBB27F00DB11DDF
:104D8000639FAA27F00DB11DAA1F649F6627B00D6F
:104D9000A11D661F829F2227B00DA11D621F739F58
:104DA000B00DA11D621F839FA00D611D221F749F66
:104DB0003327A00D611D231F849F600D211D822FAD
:104DC000762F6A2F11249F5750409AF0F1F08823D4
:104DD0004AF0EE0FFF1FBB1F661F771F881F915001
:104DE0005040A9F79E3F510580F00C940C270C947D
:104DF00057275F3FE4F3983ED4F386957795679500
:104E0000B795F795E7959F5FC1F7FE2B880F911D2A
:104E10009695879597F9089597F99F6780E870E0D0
:104E200060E008959FEF80EC089500240A94161620
:104E3000170618060906089500240A941216130688
:104E4000140605060895092E0394000C11F4882316
:104E500052F0BB0F40F4BF2B11F460FF04C06F5F32
:104E60007F4F8F4F9F4F089557FD9058440F551F08
:104E700059F05F3F71F04795880F97FB991F61F0DC
:104E80009F3F79F087950895121613061406551F53
:104E9000F2CF4695F1DF08C0161617061806991FBF
:104EA000F1CF86957105610508940895E894BB27B4
:104EB00066277727CB0197F90895F999FECF92BD20
:104EC00081BDF89A992780B50895262FF999FECFCC
:104ED0001FBA92BD81BD20BD0FB6F894FA9AF99A17
:104EE0000FBE01960895DB018F939F930E94D827F0
:104EF000BF91AF91A29F800D911DA39F900DB29F76
:104F0000900D11240895AA1BBB1B51E107C0AA1FD5
:104F1000BB1FA617B70710F0A61BB70B881F991F5A
:104F20005A95A9F780959095BC01CD010895A1E20D
:104F30001A2EAA1BBB1BFD010DC0AA1FBB1FEE1F13
:104F4000FF1FA217B307E407F50720F0A21BB30B5E
:104F5000E40BF50B661F771F881F991F1A9469F7DA
:104F600060957095809590959B01AC01BD01CF0136
:104F70000895052E97FB1EF400940E94D02757FD3C
:104F800007D00E94972707FC03D04EF40C94D0273B
:104F900050954095309521953F4F4F4F5F4F089565
:104FA00090958095709561957F4F8F4F9F4F089595
:104FB0000E941A28A59F900DB49F900DA49F800D6C
:104FC000911D112408952F923F924F925F926F92FC
:104FD0007F928F929F92AF92BF92CF92DF92EF9289
:104FE000FF920F931F93CF93DF93CDB7DEB7CA1B0A
:104FF000DB0B0FB6F894DEBF0FBECDBF09942A8835
:10500000398848885F846E847D848C849B84AA84DC
:10501000B984C884DF80EE80FD800C811B81AA8169
:10502000B981CE0FD11D0FB6F894DEBF0FBECDBF34
:10503000ED010895A29FB001B39FC001A39F700D21
:10504000811D1124911DB29F700D811D1124911D90
:1050500008955058BB27AA270E9441280C94232763
:105060000E94152738F00E941C2720F039F49F3F3A
:1050700019F426F40C9412270EF4E095E7FB0C9437
:105080000C27E92F0E94342758F3BA1762077307D9
:105090008407950720F079F4A6F50C9456270EF4B2
:1050A000E0950B2EBA2FA02D0B01B90190010C0138
:1050B000CA01A0011124FF27591B99F0593F50F450
:1050C000503E68F11A16F040A22F232F342F4427A8
:1050D000585FF3CF469537952795A795F0405395A0
:1050E000C9F77EF41F16BA0B620B730B840BBAF070
:1050F0009150A1F0FF0FBB1F661F771F881FC2F7DB
:105100000EC0BA0F621F731F841F48F487957795EE
:105110006795B795F7959E3F08F0B0CF9395880FA8
:1051200008F09927EE0F9795879508950E94AA2871
:105130000C9423270E941C2758F00E94152740F04A
:1051400029F45F3F29F00C940C2751110C94572738
:105150000C9412270E94342768F39923B1F3552346
:1051600091F3951B550BBB27AA276217730784077A
:1051700038F09F5F5F4F220F331F441FAA1FA9F310
:1051800035D00E2E3AF0E0E832D091505040E695FE
:10519000001CCAF72BD0FE2F29D0660F771F881F5F
:1051A000BB1F261737074807AB07B0E809F0BB0B52
:1051B000802DBF01FF2793585F4F3AF09E3F510566
:1051C00078F00C940C270C9457275F3FE4F3983E3B
:1051D000D4F3869577956795B795F7959F5FC9F74F
:1051E000880F911D9695879597F90895E1E0660FD0
:1051F000771F881FBB1F621773078407BA0720F049
:10520000621B730B840BBA0BEE1F88F7E0950895B1
:105210000E940F296894B1110C94572708950E9499
:105220003C2788F09F5798F0B92F9927B751B0F0D5
:10523000E1F0660F771F881F991F1AF0BA95C9F71A
:1052400014C0B13091F00E945627B1E008950C943B
:105250005627672F782F8827B85F39F0B93FCCF3EE
:10526000869577956795B395D9F73EF49095809597
:10527000709561957F4F8F4F9F4F08950E947B26B9
:1052800008F48FEF0895EE0FFF1F0590F491E02DC5
:1052900009940F931F93CF93DF938230910510F4FD
:1052A00082E090E0E091D707F091D80730E020E06D
:1052B000B0E0A0E0309799F42115310509F44AC017
:1052C000281B390B24303105D8F58A819B81611563
:1052D000710589F1FB0193838283FE0111C0408136
:1052E00051810281138148175907E0F04817590787
:1052F00099F4109761F012960C93129713961C93E1
:105300003296CF01DF91CF911F910F9108950093B5
:10531000D7071093D807F4CF2115310551F0421764
:10532000530738F0A901DB019A01BD01DF01F80143
:10533000C1CFEF01F9CF9093D8078093D707CDCF96
:10534000FE01E20FF31F81939193225031093983BB
:105350002883D7CF2091D5073091D607232B41F44E
:1053600020913701309138013093D6072093D5072B
:1053700020913501309136012115310541F42DB7C9
:105380003EB74091390150913A01241B350BE09111
:10539000D507F091D607E217F307A0F42E1B3F0BB9
:1053A0002817390778F0AC014E5F5F4F2417350797
:1053B00048F04E0F5F1F5093D6074093D507819357
:1053C00091939FCFF0E0E0E09CCFCF93DF930097E5
:1053D000E9F0FC01329713821282A091D707B091B5
:1053E000D807ED0130E020E01097A1F42081318151
:1053F000820F931F2091D5073091D60728173907C0
:1054000009F061C0F093D607E093D507DF91CF9103
:105410000895EA01CE17DF07E8F54A815B819E0116
:1054200041155105B1F7E901FB83EA83499159918F
:10543000C40FD51FEC17FD0761F48081918102969E
:10544000840F951FE90199838883828193819B83CF
:105450008A83F0E0E0E012968D919C91139700977B
:10546000B9F52D913C911197CD010296820F931FB2
:105470002091D5073091D6072817390739F630978C
:1054800051F51092D8071092D707B093D607A09382
:10549000D507BCCFD383C28340815181840F951F30
:1054A000C817D90761F44E5F5F4F88819981480F13
:1054B000591F518340838A819B8193838283211565
:1054C000310509F0B0CFF093D807E093D7079ECF0E
:1054D000FD01DC01C0CF13821282D7CFB0E0A0E083
:1054E000E4E7FAE20C94E5278C01009751F4CB0134
:1054F0000E9449298C01C801CDB7DEB7E0E10C94C8
:105500000128FC01E60FF71F9C0122503109E21728
:10551000F30708F49DC0D901CD91DC911197C6170E
:10552000D70798F0C530D10530F3CE010497861720
:10553000970708F3C61BD70B2297C193D1936D939E
:105540007C93CF010E94E529D6CF5B01AC1ABD0A3E
:105550004C018C0E9D1EA091D707B091D807512CFD
:10556000412CF12CE12C109731F58091D5079091C9
:10557000D6078815990509F05CC04616570608F04D
:1055800058C08091350190913601009741F48DB754
:105590009EB74091390150913A01841B950BE81751
:1055A000F90708F055C0F093D607E093D507F90145
:1055B00071836083A0CF8D919C91119712966C900E
:1055C000129713967C901397A815B90559F56C019D
:1055D00042E0C40ED11CCA14DB0420F1AC014A190C
:1055E0005B09DA011296159780F06282738251830B
:1055F0004083D9016D937C93E114F10471F0D701DC
:105600001396FC93EE93129776CF22968C0F9D1FE4
:10561000F90191838083F301EFCFF093D807E093F2
:10562000D70769CF4816590608F42C017D01D3012C
:105630009ACFCB010E9449297C01009749F0AE0125
:10564000B8010E94332BC8010E94E529870153CF7E
:1056500010E000E050CF9111089581568A5108F46E
:10566000805285580895FB01DC0102C001900D9223
:1056700041505040D8F70895FB01DC0101900D9294
:0A5680000020E1F70895F894FFCF31
:10568A0000C18081000000FFFFFFFF12010002EF4E
:10569A000201404123368000010102030100E100BA
:1056AA0000000000000214050201FFFF01FFFF6471
:1056BA00201C6414050000D907800012010002EFC3
:1056CA000201404123368000010102030112010058
:1056DA00020000004041233680000101020301005C
:1056EA000000007611100BF50DAB0D0101640504E5
:1056FA0064050000000076098D080409C20935090D
:10570A001309270900000000F809E209190A0E0A1C
:10571A00600A1E0A3C0A00000000B60C0D0A000AC4
:10572A00436F6D70696C65642061743A204D6172D3
:10573A0020323820323032342C2031393A35393A55
:10574A003438005374617274696E672E2E2E0A0DF6
:10575A00005553424344434E65656465643A2000EC
:10576A0053656E64696E6720696E697469616C203D
:10577A00616C6C2D676F6F64207265706F72742E26
:10578A00206952656D61696E696E673A20002C2046
:10579A0053746174757320426974733A20307800C7
:1057AA00456E61626C65205043205265706F727459
:1057BA00696E672F53687574646F776E004552522D
:1057CA004F523A2042616420422028426174746533
:1057DA0072792920636F6D6D616E643A20004261AF
:1057EA0074746572792046756C6C204368617267BF
:1057FA00652056004261747465727920456D707433
:10580A00792056004D696E7574657320746F206631
:10581A00756C6C79206368617267652066726F6D5A
:10582A002064656164004D696E7574657320746FD8
:10583A002066756C6C792064697363686172676548
:10584A002066726F6D2066756C6C004552524F521D
:10585A003A204261642054696D6520636F6D6D6101
:10586A006E643A2000562A313030206F66206C6F01
:10587A007720766F6C7461676500562A3130302064
:10588A006F662068696768657220766F6C746167F5
:10589A006500446562756720466C6167732028312C
:1058AA003A4D61696E29005D2E004820666F7220AC
:1058BA0048656C700A000A436D643A200073687583
:1058CA0074646F776E2072657175657374656400B0
:1058DA0073687574646F776E20696D6D696E656E35
:1058EA0074002C20546F20456D707479206D6D3AC8
:1058FA00737320003A002C20436F6D6D2077697412
:10590A006820504320286E656761746976653D6238
:10591A006164293A20002C2000426174562A3130F1
:04592A00303A2000EF
:00000001FF
