:100000000C94A0050C94C8050C94C8050C94C80564
:100010000C94C8050C94C8050C94C8050C94C8052C
:100020000C94C8050C94C8050C949A150C94DA1617
:100030000C94C8050C94C8050C94C8050C94C8050C
:100040000C94C8050C94C8050C94C8050C94C805FC
:100050000C94C8050C94C8050C94C8050C94DD13C9
:100060000C94C8050C944D140C9427140C94C805DA
:100070000C94C8050C94C8050C94C8050C94C805CC
:100080000C94C8050C94C8050C94C8050C94C805BC
:100090000C947F140C94C8050C94C8050C94C805E6
:1000A0000C94C8050C94C8050C94C805526573746B
:1000B0006F72656420666163746F7279206465662F
:1000C00061756C74732E00526573746F7265642071
:1000D000666163746F72792064656661756C7473B0
:1000E0002E000403090441726475696E6F204C4C44
:1000F000430041726475696E6F204C656F6E61726A
:10010000646F004D79436F6F6C55505300506241DE
:1001100063005550533130004552524F523A204EF1
:1001200065656420746F20646F20636F6E66696715
:1001300075726174696F6E20616E64207772697484
:100140006520746F20454550524F4D2E20557369E0
:100150006E672044656661756C74732E004552525B
:100160004F523A204E65656420746F20646F20639F
:100170006F6E66696775726174696F6E20616E6417
:1001800020777269746520746F20454550524F4D39
:100190002E205573696E672044656661756C7473B3
:1001A0002E00476F6F643A20454550524F4D2069ED
:1001B0007320696E697469616C697A65642E0047A1
:1001C0006F6F643A20454550524F4D206973206946
:1001D0006E697469616C697A65642E00433A5C5596
:1001E000736572735C557365725C446F63756D659E
:1001F0006E74735C4769744875625C736D61727488
:100200002D7570732D656D756C61746F725C536DB7
:10021000617274557073456D756C61746F725C5367
:100220006D617274557073456D756C61746F722E6B
:10023000696E6F00433A5C55736572735C55736504
:10024000725C446F63756D656E74735C4769744866
:1002500075625C736D6172742D7570732D656D754B
:100260006C61746F725C536D617274557073456D1F
:10027000756C61746F725C536D6172745570734507
:100280006D756C61746F722E696E6F00536D617263
:10029000742055505320456D756C61746F722076D3
:1002A000302E3100536D6172742055505320456DCE
:1002B000756C61746F722076302E31002C20002C0A
:1002C00020002C20005553422053657269616C2038
:1002D000626175642C20626974732C20706172698C
:1002E00074792C2073746F7020626974733A2000E3
:1002F0000D0A24242D454E4420454550524F4D0DA6
:100300000A0D0A00200030002000300030003000CC
:100310000D0A2420000D0A24242D454550524F4D2E
:1003200020434F4E54454E54533A00202020313A3A
:1003300064626720004261747465727920566F6C44
:10034000746167652A3130303A20004478202020DB
:100350002D20446562756720666C616773202020DC
:1003600020202020202020202020203A203078002B
:10037000202028562A31303029002020566F6C74F6
:10038000616765732077696C6C20616C7761797344
:1003900020626520656E746572656420696E2068F0
:1003A000756E647265647468732E2000202028497D
:1003B0006620796F75206D65617375726564203193
:1003C000322E343520766F6C74732C20656E746514
:1003D0007220434831323435290020207768657215
:1003E00065207676767620697320746865206D6561
:1003F00061737572656420766F6C746167652069DE
:100400006E2068756E647265746873206F66206113
:1004100020766F6C742E002020776974682061202C
:10042000676F6F64206469676974616C20766F6CB4
:1004300074206D657465722E20456E74657220742B
:10044000686520636F6D6D616E64204348767676D3
:10045000762E002020486F6F6B20746865206C65D5
:10046000616473206261636B20757020746F207407
:10047000686520626174746572792E204D656173C0
:100480007572652074686520766F6C7461676500AD
:10049000202053686F7274207468656D20746F67D4
:1004A00065746865722E20456E7465722074686587
:1004B00020636F6D6D616E6420434C3020285A6557
:1004C000726F2C206E6F74204F68292E00202044FC
:1004D0006973636F6E6E6563742074686520626112
:1004E000747465727920766F6C74616765207365CA
:1004F0006E7365206C656164732066726F6D207425
:10050000686520626174746572792E202000205421
:100510006F2063616C69627261746520766F6C74C0
:100520006167652073656E73696E6720666F722000
:100530007468697320626F6172643A002900202038
:10054000202020202020202848696768205620414C
:1005500032442076616C75653A200020562A31308D
:10056000300043486E6E6E6E202D2043616C6962D0
:1005700072617465206869676820766F6C74616762
:100580006520706F696E742028562A31303029201A
:10059000203A200029002020202020202020202870
:1005A0004C6F772056204132442076616C75653A55
:1005B000200020562A31303000434C6E6E6E6E2083
:1005C0002D2043616C696272617465206C6F7720C5
:1005D000766F6C7461676520706F696E7420285641
:1005E0002A313030292020203A200054446E6E6E8B
:1005F0006E202D204176652E2054696D6520666F32
:10060000722066756C6C20446973636861726765FB
:1006100020286D696E75746573293A200054436E05
:100620006E6E6E202D20417665726167652054697B
:100630006D6520746F2066756C6C792043686172FB
:10064000676520286D696E75746573293A200042CC
:10065000456E6E6E6E202D20426174746572792035
:10066000456D70747920766F6C7461676520202009
:100670002020202020202028562A313030293A20DE
:100680000042466E6E6E6E202D204261747465725B
:10069000792046756C6C2043686172676520766FBF
:1006A0006C746167652020202028562A313030295B
:1006B0003A200020202020202020202028303D4EDD
:1006C0006F205043207265706F7274696E672F736C
:1006D000687574646F776E2E20313D456E61626C73
:1006E000656400454E6E202020202D20454E61621D
:1006F0006C65207265706F7274696E672F536875D0
:1007000074646F776E20746F20746F207468652036
:1007100050433A200050726573656E7420536574BF
:1007200074696E67733A00536D617274205550534B
:1007300020456D756C61746F722076302E3100002B
:100740000A2D2D2D2D4D656E752D2D2D2D00446FEF
:100750006E277420666F7267657420746F2028534B
:100760002961766520746865206E65772076616CF6
:10077000756521002073657420746F3A20004E6502
:100780007720004F6C642076616C7565207761730B
:100790003A20002076616C756521204D61782069D2
:1007A0007320312028666F72206120626F6F6C2980
:1007B0002E0A004572726F723A20496E76616C693A
:1007C0006420000A556E6B6E6F776E20636F6D6DDF
:1007D000616E64205B004344435F41434D5F494E7B
:1007E000544552464143453A200042616420636FBC
:1007F0006D6D616E642E2053686F756C6420626548
:10080000204E4C206F72204E48000A526573746F60
:1008100072656420466163746F7279204465666115
:10082000756C74732E2E2E0D0A204D757374206412
:100830006F2027532720746F207361766520746FB3
:1008400020454550524F4D20286E6F6E2D766F6CAF
:100850006174696C65206D656D6F7279292E000A6F
:100860005361766564206E65772076616C756528C6
:10087000732920746F20454550524F4D2E0A005D5C
:10088000005D005B005B0000000000240027002AE0
:10089000002D00300000000000250028002B002E55
:1008A000003100000000002300260029002C002F4A
:1008B0000004040404040304050202020204030207
:1008C00002020206060606060604040202020404E8
:1008D000040802011040804010204080408008023F
:1008E00004018040201002011080102040402000B0
:1008F00000000200090F0000030401000C000000CA
:1009000000000000000000000000000000000706DA
:1009100005040100080A0B0C0D09446F6E277420B2
:10092000666F7267657420746F202853296176653D
:1009300020746865206E65772076616C756521008E
:100940003078002073657420746F3A20004E65770C
:1009500020003078004F6C642076616C75652077DC
:1009600061733A20002E0A00222076616C756521A1
:10097000204D696E20697320004572726F723A20B3
:10098000496E76616C69642022002E0A002076612F
:100990006C756521204D6178206973200045727265
:1009A0006F723A20496E76616C6964200005840993
:1009B00004A1010924A10275089501150026FF0074
:1009C000850109FE7902B123850209FF7903B1236C
:1009D000850309FD7901B12305858506098BB123BE
:1009E000851F09897904B1238520098F7905B123F1
:1009F0008516092CB1238510098D266400B1228546
:100A000018098EB123850E0967B18385170983B153
:100A100083850C096681A30966B1A3850F098CB192
:100A2000A285110929B1A285090985751027FFFF43
:100A30000000B1A3851A096A27FFFF0000660110B4
:100A40005500B1A3851C096981A30969B1A3850D6E
:100A5000096881A30968B1A38508092A751027646C
:100A60000500001678008122092AB1A205848512AA
:100A7000095716008027FF7F0000B1A28513095592
:100A8000B1A2850A0940150027FFFF00006721D1A8
:100A9000F0005505B123850B093081A30930B1A3BE
:100AA0008514095A75081501250365005500812232
:100AB000095AB1A20902A1028507058509447501F9
:100AC0001500250181A30944B1A3094581A3094566
:100AD000B1A309D081A309D0B1A309D181A309D1C0
:100AE000B1A3094281A30942B1A3094381A20943E9
:100AF000B1A2094B81A3094BB1A309DB81A309DB97
:100B0000B1A3094681A30946B1A3094781A30947B7
:100B1000B1A30584096881A20968B1A2096981A30A
:100B20000969B1A3097381A30973B1A3096581A3FD
:100B30000965B1A395028101B101C0C0C0004F1980
:100B400011241FBECFEFDAE0DEBFCDBF13E0A0E07F
:100B5000B1E0ECE9FBE502C005900D92A23CB107C3
:100B6000D9F726E0A2ECB3E001C01D92A932B2078A
:100B7000E1F715E0C0EAD5E004C02197FE010E942C
:100B8000CC2BCF39D107C9F70E94231A0C94CC2D56
:100B90000C940000E3E1F9E0E49190917B008E2F4A
:100BA000880F880F80729F7D892B80937B00E77070
:100BB000E064E0937C0080917A00806480937A0006
:100BC00080917A0086FDFCCF809178009091790029
:100BD0000895FC0180819181FB0120813181821B7C
:100BE000930B0895FC018091F604882311F13FB71F
:100BF000F89482E08093E9002091F200822F90E047
:100C00001816190614F481E090E0882339F028982A
:100C100044E64093F5044091F1004083222339F0EB
:100C20002091F200211103C02BE62093E8003FBF82
:100C300008958FEF9FEF089581508F3008F047C0DF
:100C4000E82FF0E0EA5DF94F0C94CC2B4306470601
:100C500035063B063F066706670667064A065006E6
:100C6000540658065E0667066206809180008F77FC
:100C7000809380000895809180008F7DF9CF8091CE
:100C80008000877FF5CF84B58F7784BD089584B5C4
:100C90008F7DFBCF809190008F7780939000089597
:100CA000809190008F7DF9CF80919000877FF5CF64
:100CB0008091C0008F778093C00008958091C0001C
:100CC0008F7DF9CF8091C200877F8093C200089505
:100CD000CF93DF93282F30E0F901E151F74F849152
:100CE000F901E053F74FD491F901EF54F74FC49154
:100CF000CC23A1F081110E941C06EC2FF0E0EE0F36
:100D0000FF1FED55F74FA591B491EC91ED2381E0D4
:100D100090E009F480E0DF91CF91089580E090E0C9
:100D2000FACF1F93CF93DF93282F30E0F901E151E1
:100D3000F74F8491F901E053F74FD491F901EF5443
:100D4000F74FC491CC23A9F0162F81110E941C06E5
:100D5000EC2FF0E0EE0FFF1FEB56F74FA591B4918B
:100D60008FB7F894EC91111108C0D095DE23DC9375
:100D70008FBFDF91CF911F910895DE2BF8CFCF93D6
:100D8000DF9390E0FC01E053F74F24918F54974F8D
:100D9000FC0184918823C9F090E0880F991FFC0121
:100DA000E957F74FA591B491FC01EB56F74FC59168
:100DB000D49161110DC09FB7F8948C912095822336
:100DC0008C938881282328839FBFDF91CF9108953A
:100DD000623051F49FB7F8943C91822F8095832321
:100DE0008C93E8812E2BEFCF8FB7F894EC912E2BBC
:100DF0002C938FBFEACF3FB7F8948091F104909184
:100E0000F204A091F304B091F40426B5A89B05C0A8
:100E10002F3F19F00196A11DB11D3FBFBA2FA92F79
:100E2000982F8827BC01CD01620F711D811D911D76
:100E300042E0660F771F881F991F4A95D1F70895E2
:100E40008F929F92AF92BF92CF92DF92EF92FF92DA
:100E50004B015C010E94FB066B017C010E94FB06BA
:100E60006C197D098E099F09683E734081059105C3
:100E7000A8F321E0821A9108A108B10888EEC80EF3
:100E800083E0D81EE11CF11C81149104A104B1047B
:100E900029F7FF90EF90DF90CF90BF90AF909F9099
:100EA0008F9008952FB7F8946091ED047091EE043F
:100EB0008091EF049091F0042FBF0895EF92FF927C
:100EC0000F931F93CF93DF938C017B01D0E0C0E0A1
:100ED000F701EC0FFD1F6491662361F0D801ED91DD
:100EE000FC910190F081E02DC8010995892B11F04A
:100EF0002196EECFCE01DF91CF911F910F91FF9000
:100F0000EF900895AF92BF92CF92DF92EF92FF924F
:100F10000F931F93CF93DF936C017B018B01040F21
:100F2000151FEB015E01AE18BF08C017D10759F0BD
:100F30006991D601ED91FC910190F081E02DC601FF
:100F40000995892B79F7C501DF91CF911F910F91F9
:100F5000FF90EF90DF90CF90BF90AF900895FC018D
:100F6000538D448D252F30E0842F90E0821B930B0E
:100F7000541710F0CF96089501970895FC01918DB4
:100F8000828D981761F0A28DAE0FBF2FB11D5D96B7
:100F90008C91928D9F5F9F73928F90E008958FEF59
:100FA0009FEF0895FC01918D828D981731F0828D0D
:100FB000E80FF11D858D90E008958FEF9FEF089564
:100FC000FC01918D228D892F90E0805C9F4F821BC8
:100FD00091098F73992708958FE095E00E94E007AB
:100FE00021E0892B09F420E0822F0895FC01A48DD3
:100FF000A80FB92FB11DA35ABF4F2C91848D90E03B
:1010000001968F739927848FA689B7892C93A0891D
:10101000B1898C9182748C93938D848D981306C0C2
:101020000288F389E02D80818F7D80830895EF927F
:10103000FF920F931F93CF93DF93EC0181E0888F92
:101040009B8D8C8D981319C0E889F989808185FF63
:1010500014C09FB7F894EE89FF896083E889F98905
:101060008081827480839FBF81E090E0DF91CF9187
:101070001F910F91FF90EF900895F62E0B8D10E0C9
:101080000F5F1F4F0F731127E02E8C8D8E110CC038
:101090000FB607FCFACFE889F989808185FFF5CF83
:1010A000CE010E94F607F1CFEB8DEC0FFD2FF11D65
:1010B000E35AFF4FF0829FB7F8940B8FEA89FB89C0
:1010C00080818062CFCFCF93DF93EC01888D88231E
:1010D000B9F0AA89BB89E889F9898C9185FD03C09B
:1010E000808186FD0DC00FB607FCF7CF8C9185FF80
:1010F000F2CF808185FFEDCFCE010E94F607E9CFC8
:10110000DF91CF91089580E090E0892B29F00E9433
:10111000EC0781110C94000008952091A204260F81
:101120003327331F21323105ECF42091C604FC0132
:1011300090E080E0243069F082E00895A091A2045C
:101140002191AC014E575B4FA40FB52FB11D2C93CD
:101150000196861798F38091A204680F6093A20409
:1011600080E0089581E0089508958FEF9FEF08953E
:101170008FEF9FEF089580917B0490E0919581958A
:1011800091090895CF93DF93CB01EA01642F0E9468
:101190008D08CE01DF91CF910895CF93DF931F92F9
:1011A000CDB7DEB7698361E0CE0101960E948D085C
:1011B00081E090E00F90DF91CF91089590E080E082
:1011C00008950F931F93CF93DF93EC010E94520772
:1011D000088119812A813B81601B710B820B930B63
:1011E0000C811D812E813F810617170728073907BB
:1011F00030F48885882319F0188681E08987DF918B
:10120000CF911F910F910895DC015296ED91FC91C1
:1012100030E020E03097A1F0DC0154964D915C91D4
:101220002417350758F4428153814617570741F078
:101230000190F081E02D2F5F3F4FECCFF0E0E0E038
:10124000CF0108954091D2035091D3032091D00350
:101250003091D10342175307B4F49091E800957090
:10126000E1F39091E80092FD19C08093F100809124
:10127000D2039091D30301968F739927892B19F488
:101280008EEF8093E8008091D2039091D303019672
:101290009093D3038093D20381E0089580E0089572
:1012A000EF92FF920F931F93CF93DF93F82E192F96
:1012B000E62E042F81E0860F880F0E94220983E02A
:1012C0000E942209CF2DD12FEC0EFD2EF11CCE1540
:1012D000DF05B9F007FF13C0FE0184910E942209C7
:1012E000182F80E00E942209812321968111EFCFDF
:1012F000DF91CF911F910F91FF90EF90089588811A
:10130000EDCF81E0F5CFDF92EF92FF920F931F9325
:10131000CF93DF93D82E8A01EB017B01E40EF51EFB
:10132000CE15DF0559F0D7FE12C0FE0184910E9450
:10133000220921968111F4CF0FEF1FEFC801DF9131
:10134000CF911F910F91FF90EF90DF9008958881CA
:10135000EECFCF93DF93CDB7DEB7A0970FB6F8945B
:10136000DEBF0FBECDBFFC01DB018C918F5F8C9384
:101370009E012D5F3F4F88E0D9011D928A95E9F7C4
:1013800099E0998384E08A8382E08D8383E08E8371
:101390009A8721E22B8791E09C879D872E879F87E4
:1013A00092E2988B47E04B8B95E09C8B24E82D8B49
:1013B0008E8B20E430E0388F2F8B54E1598F4A8F89
:1013C0009B8F9C8F8D8F3F8F2E8F8AE088A3828189
:1013D0008B8396858785998B8A8B40E250E0BE018E
:1013E0006F5F7F4F80E00E948309A0960FB6F8944C
:1013F000DEBF0FBECDBFDF91CF9108952FB7F89418
:1014000087708093E9009091E800892F807295FFA2
:1014100004C09091F20080E4891B2FBF08958F9241
:101420009F92AF92BF92CF92DF92EF92FF920F9373
:101430001F93CF93DF93B82E6B018A018091F6043E
:1014400081110FC08FEF9FEFDF91CF911F910F910F
:10145000FF90EF90DF90CF90BF90AF909F908F90D4
:1014600008958091D60380FF05C08091E0008260DE
:101470008093E000C02FD12FF12C8AEFE82E8B2D26
:101480008770982E8B2D8074882E9AE3A92E209732
:1014900019F4FF2009F443C08B2D0E94FE0981112D
:1014A0000AC0EA94EE2071F261E070E080E090E022
:1014B0000E942007ECCF8C171D0611F00CF08C2F2A
:1014C0009FB7F8949092E9002091E80025FD02C0B2
:1014D0009FBFDDCF282F30E0C21BD30BF601815018
:1014E00020F041914093F100FACFC20ED31EFF20AD
:1014F00021F0A092E800F12CEBCF8091E80085FD6F
:1015000007C0A092E800FF24F394209709F3F3CFDB
:101510002097F1F68820E1F2A092E800D9CF5D98FB
:1015200084E68093D503C8018FCF615030F02091BD
:10153000F100FC0120830196F8CF289884E680937F
:10154000F5040895AF92BF92DF92EF92FF920F934E
:101550001F93CF93DF935C018B01EB019BEFD92E9F
:101560002097C1F07E01C134D1051CF080E4E82E43
:10157000F12C8091E80082FFFCCFC8018C1B9D0BF1
:101580006E2D8A0D9B1D0E94950AD092E800CE19FF
:10159000DF09E6CFC801DF91CF911F910F91FF9036
:1015A000EF90DF90BF90AF9008958091C8038111B4
:1015B0000DC082E08093C40384E08093C503109241
:1015C000C7031092C60381E08093C80384EC93E0C4
:1015D0000895CF93DF93809173048111CDC082E091
:1015E00080935D0481E080935E0423E634E03093D1
:1015F000600420935F04109262041092610428E852
:1016000031E030935A0420935904109266041092EA
:1016100065041092680410926704809369048093B3
:101620006A0481EC8093630480EC809364040E94DC
:10163000D50AEC01898190915D04890F9927991F42
:1016400008970CF096C0EA81FB81309709F053C0EF
:1016500089E594E09B838A8362E082E00E94BF0672
:1016600080911A06882309F44FC081E080931A06FE
:1016700061E087E00E9491060E9452076093510446
:1016800070935204809353049093540480913904CE
:1016900090913A04A0913B04B0913C040196A11DA5
:1016A000B11D8093390490933A04A0933B04B09306
:1016B0003C0482E080935B0484E080935C04888136
:1016C00090915E04890F888330915D0490915F044E
:1016D000E92FF09160048E2F891B831708F049C011
:1016E00089812191A82FB0E0A059BE4F2C938F5F24
:1016F0008983F1CFFC01808591850097D9F789E531
:1017000094E091878087A8CF82E00E946806892BA9
:1017100009F4ABCF61E086E00E9491060E94520777
:101720009B01AC0188279927DC01821B930BA40B3A
:10173000B50B8093510490935204A0935304B0933B
:1017400054048091390490913A04A0913B04B091E3
:101750003C040196A11DB11D8093390490933A0475
:10176000A0933B04B0933C0410925B0410925C0481
:10177000A6CF81E08093730489E594E0DF91CF9157
:101780000895CF92DF92EF92FF920F931F93CF9322
:10179000DF9300D0CDB7DEB78C017B016A010E94D8
:1017A000E90A1A83098341E050E0BE016F5F7F4F71
:1017B00084E00E940F0A8C0197FD09C0A601B701C1
:1017C00084E40E940F0A080F191F97FD8C01C801BD
:1017D0000F900F90DF91CF911F910F91FF90EF909D
:1017E000DF90CF9008950F931F93CF93DF931F92B5
:1017F000CDB7DEB7198280911A06882309F441C05B
:101800000E94520760934D0470934E0480934F04DE
:10181000909350048091350490913604A091370440
:10182000B09138040196A11DB11D809335049093A9
:101830003604A0933704B093380489818E5F89837E
:1018400042E450E060E071E080E00E9483090E9481
:10185000D50ADC0112960D911C9101151105C1F1FB
:10186000D801ED91FC910280F381E02DBE016F5F04
:101870007F4FC801099597FD2BC0F80100851185A0
:10188000ECCF0E9452079B01AC0188279927DC010D
:10189000821B930BA40BB50B80934D0490934E04C5
:1018A000A0934F04B0935004809135049091360476
:1018B000A0913704B09138040196A11DB11D809309
:1018C000350490933604A0933704B0933804BFCF07
:1018D00089810F90DF91CF911F910F910895CF9340
:1018E000DF93EC0180915F01882331F083E00E9457
:1018F0000F0A1816190634F081E090E09B838A8362
:1019000080E090E0DF91CF910895CF93DF931F9215
:10191000CDB7DEB76983DC01ED91FC910280F381E4
:10192000E02D41E050E0BE016F5F7F4F09950F90C1
:10193000DF91CF91089583E08093E9008091F200D8
:10194000882319F08AE38093E800089583E00E94D9
:10195000FE0990E00895CF93DF931F92CDB7DEB7D5
:10196000FC018485958597FD08C02FEF3FEF3587F3
:1019700024870F90DF91CF910895CE0101960E94A8
:10198000F205019719F4898190E0F3CF8FEF9FEF73
:10199000F0CF0F931F93CF93DF931F92CDB7DEB796
:1019A0008C01FC018485958597FF0BC0CE010196C3
:1019B0000E94F205019771F4898190E0F801958702
:1019C0008487F801848595850F90DF91CF911F91D1
:1019D0000F9108958FEF9FEFF1CFFC0184859585DE
:1019E00097FD0BC09FB7F89482E08093E900809147
:1019F000F2009FBF90E0019608959FB7F89482E0AF
:101A00008093E9008091F2009FBF90E00895FB0170
:101A100001900020E9F73197AF01461B570BDC011D
:101A2000ED91FC910280F381E02D09948F929F92B9
:101A3000AF92BF92EF92FF920F931F93CF93DF93DA
:101A4000CDB7DEB7A1970FB6F894DEBF0FBECDBFFE
:101A50007C01FA01CB0119A2223008F42AE08E01A0
:101A60000F5D1F4F822E912CB12CA12CBF01A5011F
:101A700094010E94202AF901CA016A300CF5605DC8
:101A8000D8016E938D01232B242B252B79F790E021
:101A900080E0109721F0BD01C7010E94070DA196BB
:101AA0000FB6F894DEBF0FBECDBFDF91CF911F916F
:101AB0000F91FF90EF90BF90AF909F908F900895FF
:101AC000695CDECFCF92DF92EF92FF920F931F936C
:101AD000CF93DF93EC016A017B01E881F9810190EA
:101AE000F081E02D6DE209958C0144275527BA015C
:101AF0004C195D096E097F092AE0CE010E94160D7E
:101B0000800F911FDF91CF911F910F91FF90EF9068
:101B1000DF90CF900895AB01770F660B770B77FDC1
:101B20000C94620D2AE00C94160D0C94160D9A017B
:101B3000AB0170E060E00C94950D9A01462F50E0E7
:101B400070E060E00C94950D8F929F92AF92BF92DF
:101B5000CF92DF92EF92FF920F931F93CF93DF9379
:101B60007C01EB016C0182E0C80ED11C4701E5E06D
:101B70008E0E911C10E000E0F60161916F014AE0C9
:101B800050E0CE010E949D0D5C01E881F981019039
:101B9000F081E02D6EE2CE0109958A0D9B1D080FA4
:101BA000191FC814D90441F74AE050E0F7016581D4
:101BB000CE010E949D0D800F911FDF91CF911F914B
:101BC0000F91FF90EF90DF90CF90BF90AF909F90DC
:101BD0008F9008956AEB71E00C94070D0F931F939B
:101BE000CF93DF93EC01AB01770F660B770B77FF99
:101BF0000DC00E94620D8C01CE010E94EA0D800F83
:101C0000911FDF91CF911F910F9108952AE00E94BB
:101C1000160DF1CF0F931F93CF93DF93EC010E942A
:101C2000970D8C01CE010E94EA0D800F911FDF916C
:101C3000CF911F910F9108950F931F93CF93DF932F
:101C4000EC010E94070D8C01CE010E94EA0D800F6D
:101C5000911FDF91CF911F910F9108950F931F93C3
:101C6000CF93DF93EC01FB01448155816081718149
:101C7000E881F9810280F381E02D09958C01CE0184
:101C80000E94EA0D800F911FDF91CF911F910F915C
:101C900008950F931F93CF93DF93EC010E945E078B
:101CA0008C01CE010E94EA0D800F911FDF91CF9130
:101CB0001F910F91089581E0809326048AEA809312
:101CC000030485E58093040481E095EA9093280459
:101CD0008093270480E29CE190930604809305049E
:101CE000909308048093070488E592E090930A0497
:101CF0008093090484E695E090930C0480930B0490
:101D00008EE794E090930E0480930D0410921504D6
:101D100010921404109213041092120488E795E0B4
:101D2000909319048093180484E690E0909317042C
:101D3000809316048AE080930F0485E0809310045A
:101D40001092110480916701882379F080911A061E
:101D5000882331F06CEA70E08CEA95E00C94490E2F
:101D600067EC70E08FE095E0F9CF08950C94070DD3
:101D7000BF92CF92DF92EF92FF920F931F93CF9378
:101D8000DF93DC01EB0158968D919C915997892B3B
:101D9000B9F08D01B12CCB2CD12CF801E08CF18C59
:101DA000C7010E947328C816D90610F5F701EC0D7B
:101DB000FD1DE491DE01AC0DBD1DEC93B394EBCFA2
:101DC00088E4888389E4898384E48A831E968C91DD
:101DD0001E978F708F5B8B831E968D919C9124E054
:101DE000969587952A95E1F78F708F5B8C8385E0B8
:101DF000DF91CF911F910F91FF90EF90DF90CF90E7
:101E0000BF900895CF92DF92EF92FF920F931F93AE
:101E1000CF93DF9300D0CDB7DEB77C01FB011381F8
:101E2000133009F046C0628170E07F6F0E940409A0
:101E3000009709F46AC0DC011496FC90149715967B
:101E4000DC908F2D9D2D0E947328E82E1A8381E04F
:101E50008E0D880F898342E050E0BE016F5F7F4F97
:101E600080E00E948309CF2C0F2D1D2D802F8C190F
:101E70008E15E8F4F801849189831A8242E050E0DB
:101E8000BE016F5F7F4F80E00E9483090F5F1F4F8D
:101E9000892B61F780E090E00F900F90DF91CF9158
:101EA0001F910F91FF90EF90DF90CF90089581E008
:101EB000F2CF8081813849F5123239F5D701129677
:101EC0002C9112978481958128171906F1F41C969C
:101ED0000D911C91D12CC12C0115110589F0F8012F
:101EE000448155816281738180E80E9483098F3F1C
:101EF000980791F2C80ED91ED8010D911C91ECCF14
:101F000081E0F701808BC601C7CF90E080E0C4CFAD
:101F1000AF92BF92CF92DF92EF92FF920F931F93F7
:101F2000CF93DF93CDB7DEB7C857D1090FB6F8947A
:101F3000DEBF0FBECDBF80911B0690911C06DC0159
:101F4000ED91FC910680F781E02D09950E94CA056C
:101F50009A8389838E010F5F1F4F6E01BBE3CB0E07
:101F6000D11C78018FE9A82E86E0B82E0E94CA0500
:101F7000F801819391938F01C5010197F1F7CE1676
:101F8000DF06A1F729EE35E042E050E06DE170E0B8
:101F9000C7010E94C8258D8D9E8DC858DF4F0FB692
:101FA000F894DEBF0FBECDBFDF91CF911F910F918F
:101FB000FF90EF90DF90CF90BF90AF9008950F9378
:101FC0001F93CF93DF93EC0188819981009759F09B
:101FD0002A813B812617370730F081E0DF91CF91CE
:101FE0001F910F9108958B016F5F7F4F0E94F72C17
:101FF000009759F0998388831B830A832C813D8144
:10200000232B59F7FC011082E8CF80E0E7CFCF9374
:10201000DF93EC0188819981009711F00E946E2C6A
:10202000198218821D821C821B821A82DF91CF9135
:1020300008950F931F93CF93DF93EC010C811D81C3
:102040000F5E1F4FB8010E94DF0F882391F0288197
:1020500039818C819D816DEB71E0820F931F0E940D
:10206000C52D1D830C83CE01DF91CF911F910F9160
:102070000895CE010E940710F6CFCF93DF93EC01B5
:10208000198218821B821A821D821C826DE270E006
:102090000E94DF0F811105C0CE01DF91CF910C941A
:1020A00007108DE290E09D838C836FEC71E0888156
:1020B0009981DF91CF910C94C52DEF92FF920F93F0
:1020C0001F93CF93DF938C017B01EB0109900020DC
:1020D000E9F72197C61BD70BBE010E94DF0F8111C4
:1020E00009C0C801DF91CF911F910F91FF90EF9030
:1020F0000C940710F801D583C483B70180819181C6
:10210000DF91CF911F910F91FF90EF900C94C52D0F
:10211000EF92FF920F931F93CF93DF93EC01FB019C
:10212000E080F180E114F10411F1048115810115C1
:102130001105A9F08C819D81080F191FB801CE01EE
:102140000E94DF0F882399F0288139818C819D813D
:10215000B701820F931F0E94C52D1D830C83CE01F2
:10216000DF91CF911F910F91FF90EF900895CE01D5
:102170000E940710F4CFFC0180819181009711F03B
:102180000C946E2C08950F931F93CF93DF93CDB7CC
:10219000DEB761970FB6F894DEBF0FBECDBF8C01DE
:1021A000CB01F801118210821382128215821482EF
:1021B00050E0BE016F5F7F4F0E948F28BE016F5FAE
:1021C0007F4FC8010E945D1061960FB6F894DEBF84
:1021D0000FBECDBFDF91CF911F910F9108950F9347
:1021E0001F93CF93DF93CDB7DEB729970FB6F8943F
:1021F000DEBF0FBECDBF8C01862FF8011182108289
:10220000138212821582148250E0BE016F5F7F4FED
:1022100090E00E948F28BE016F5F7F4FC8010E942F
:102220005D1029960FB6F894DEBF0FBECDBFDF91CB
:10223000CF911F910F9108952F923F924F925F92ED
:102240006F927F928F929F92AF92BF92CF92DF92C6
:10225000EF92FF920F931F93CF93DF93CDB7DEB72B
:1022600028970FB6F894DEBF0FBECDBFE0E15E2E1B
:10227000A11002C03AE0532EFB01608171816D30E4
:10228000710521F06A30710509F0EEC0AF821701C7
:10229000380128877A01A52CB12CA50170E060E0F7
:1022A00001960E943527462E062F172F80911B0678
:1022B00090911C06E016F10608F040C06DE979E047
:1022C0000E945E07B60180911B0690911C060E9439
:1022D000B60E6DE879E080911B0690911C060E9475
:1022E0005E074AE050E0B70180911B0690911C0602
:1022F0000E94970D6AE879E080911B0690911C0678
:102300000E94490E80E01092F70428960FB6F894C8
:10231000DEBF0FBECDBFDF91CF911F910F91FF9018
:10232000EF90DF90CF90BF90AF909F908F907F9075
:102330006F905F904F903F902F900895081519056A
:10234000F8F469E779E00E945E07B60180911B0608
:1023500090911C060E94B60E68E679E080911B06FB
:1023600090911C060E945E074AE050E0B401809103
:102370001B0690911C060E94970D65E679E0BCCF84
:1023800065E579E00E945E07FF81FF2341F062E589
:1023900079E080911B0690911C060E945E07E090F8
:1023A0001B06F0901C068885882309F447C0452D3C
:1023B000F3016081CE0101960E94EF10BE016F5FB4
:1023C0007F4FC7010E942E0ECE0101960E94BB10C6
:1023D000F30140826DE479E080911B0690911C0628
:1023E0000E945E07B60180911B0690911C060E9418
:1023F000B60E63E479E080911B0690911C060E9462
:102400005E07FF81FF2341F060E479E080911B06C5
:1024100090911C060E945E07A501B80180911B06E1
:1024200090911C060E940A0E6AE179E080911B06D9
:1024300090911C060E94490E81E065CFF1016081F8
:102440007181452DCE0101960E94C310BE016F5FC0
:102450007F4FC7010E942E0ECE0101960E94BB1035
:10246000F10111830083B6CF80E04FCF1F93CF934C
:10247000DF9385ED8093BC0080917E0490917F0472
:10248000A0918004B09181040796A11DB11D23E0A5
:10249000B695A795979587952A95D1F72091BC0079
:1024A00024FD03C01092C60452C040917E04509196
:1024B0007F046091800470918104452B462B472B4B
:1024C00069F30097A105B10541F02AE22A95F1F7D9
:1024D00000C00197A109B109E1CF80917D04C1E05D
:1024E000C0937C04882399F1D091B8001091BA0070
:1024F0008091BC008A7B8093BC0060E082E00E94F7
:10250000910660E083E00E9491061092C604C09399
:10251000C8041092C70461E082E00E94910661E065
:1025200083E00E9491068091B9008E7F8093B9006C
:102530008091B9008D7F8093B90088E48093B800C2
:1025400085E48093BC001093BA00D093B800DF916B
:10255000CF911F910895EF92FF920F931F93CF9306
:10256000DF93FC014281FB01248135814217130670
:1025700011F020E029C0EB0131812081213A81F561
:10258000313051F52381233011F021E01DC06281EB
:1025900070E00E940409EC01009759F341E050E01B
:1025A000BC016E5F7F4F80E00E94830918161906F8
:1025B00004F74E815F816C817D8180E00E948309F8
:1025C00021E018161906ACF6822FDF91CF911F91EA
:1025D0000F91FF90EF90089521E0333051F6F4CF42
:1025E000213239F63B3021F42281FC01208BCDCF02
:1025F0003A3021F42281FC01218BC7CF393009F018
:10260000B8CF2381233009F0B4CF628170E00E94FB
:1026100004098C01009709F4ACCFEE80FF80FC0127
:10262000868197810196E816F90609F0A2CF81E02C
:1026300090E0E114F10409F0C7010E94D22BEC01F3
:10264000B7010E94A20A2881F8018281938128178C
:10265000190609F08ECF46815781BE016F5F7F4F0B
:10266000848195810E94BC2D209709F48ECFCE01E4
:102670000E946E2C8ACFAF92BF92CF92DF92EF92E0
:10268000FF920F931F93CF93DF937C016B015A014D
:10269000E901DC0152960D911C9190E080E001155A
:1026A000110531F589E090E00E94D22BFC011182E6
:1026B0001082D382C282B582A482DD27D783C683EB
:1026C000D70153969C938E935297F70184899589ED
:1026D0000196958B848BDF91CF911F910F91FF9085
:1026E000EF90DF90CF90BF90AF9008950196890151
:1026F000F801228133812C153D0569F32081318158
:102700002115310599F789E090E00E94D22BFC0158
:1027100011821082D382C282B582A482DD27D78340
:10272000C683D8018D939C93D0CFEF92FF920F93E5
:102730001F93CF93DF93EC018B017A010E94E90A8A
:102740009701A801BE01DF91CF911F910F91FF90DA
:10275000EF900C943B13CF92DF92EF92FF920F9386
:102760001F93CF93DF93C82F6B018A010E94E90A60
:102770006C2F70E021E030E0A6010E943B13EC01D9
:10278000892B89F00E94E90A7C01C8010E94732804
:10279000F601608170E07F6F9C01A801C7010E9473
:1027A0003B13C80FD91FCE01DF91CF911F910F911D
:1027B000FF90EF90DF90CF9008951F920F920FB689
:1027C0000F9211242F933F938F939F93AF93BF93B7
:1027D0008091ED049091EE04A091EF04B091F0048B
:1027E0003091EC0423E0230F2D3758F50196A11DFD
:1027F000B11D2093EC048093ED049093EE04A0931C
:10280000EF04B093F0048091F1049091F204A09150
:10281000F304B091F4040196A11DB11D8093F1045D
:102820009093F204A093F304B093F404BF91AF919A
:102830009F918F913F912F910F900FBE0F901F90FE
:10284000189526E8230F0296A11DB11DD2CF1F9225
:102850000F920FB60F9211242F933F934F935F93D4
:102860006F937F938F939F93AF93BF93EF93FF9358
:102870008FE095E00E94F607FF91EF91BF91AF9135
:102880009F918F917F916F915F914F913F912F9188
:102890000F900FBE0F901F9018951F920F920FB6BA
:1028A0000F9211242F938F939F93EF93FF93E091B7
:1028B0001F05F09120058081E0912505F091260506
:1028C00082FD1BC09081809128058F5F8F732091BE
:1028D0002905821741F0E0912805F0E0E15FFA4F09
:1028E000958F80932805FF91EF919F918F912F9164
:1028F0000F900FBE0F901F9018958081F4CF1F92FC
:102900000F920FB60F9211242F933F934F935F9323
:102910006F937F938F939F93AF93BF93EF93FF93A7
:102920008091B900887F803609F44AC0F0F588327A
:1029300009F4A5C018F5803109F499C0B8F48823CA
:1029400009F4F5C0883009F492C0FF91EF91BF916E
:10295000AF919F918F917F916F915F914F913F9137
:102960002F910F900FBE0F901F901895883109F48A
:1029700086C0803251F78093C50414C0803409F4B6
:102980009BC040F48033B9F38833F9F68093C504D3
:1029900085ECAEC0803509F483C0883509F494C055
:1029A000883499F60E943612D0CF883909F48AC04B
:1029B00038F5883729F050F4883611F0803729F639
:1029C00083E08093C6041092C40455C0883809F48B
:1029D00079C0803919F0803809F0B7CF8091C404EC
:1029E000803208F06FC0E091C40481E08E0F8093C4
:1029F000C4048091BB00F0E0EC55FB4F80833BC0EA
:102A0000803B39F0D0F4803A09F477C0883A09F075
:102A10009CCF84E08093C6041092A3041092A20479
:102A2000F0E0E0E009958091A20481110FC081E0FF
:102A30008093A2041092820409C0803C09F4A8CFBC
:102A4000883C09F4A5CF883B09F07FCFE091A3042F
:102A500081E08E0F8093A304F0E0EE57FB4F80815E
:102A60008093BB009091A3048091A20429C080911F
:102A7000EB048093BB0085EC8093BC0066CF909103
:102A8000EA048091E904981758F5E091EA0481E09E
:102A90008E0F8093EA04F0E0E753FB4F8081E9CF8B
:102AA000E091EA0481E08E0F8093EA048091BB00FC
:102AB000F0E0E753FB4F80839091EA048091E904B2
:102AC0009817C8F285E8D8CFE091EA0481E08E0F2C
:102AD0008093EA048091BB00F0E0E753FB4F8083D2
:102AE0008091C80481115ECF81E08093C70484EA9D
:102AF0008093BC001092C60428CF85EC8093BC0064
:102B00001092C6048091C404803230F4E091C40471
:102B1000F0E0EC55FB4F10826091C40470E084EA51
:102B200094E0F0E0E0E009951092C4040ECF10921A
:102B3000C50438CF1F920F920FB60F9211242F9316
:102B40003F934F935F936F937F938F939F93AF9335
:102B5000BF93CF93EF93FF93C091E1008091E10089
:102B6000837F8093E100C3FF96C082E1809346019A
:102B700081E08093470120E032E0309349012093C7
:102B8000480190911A06992309F4CEC09FEE9093C4
:102B90004A0192E090934B0180934C010E945207AE
:102BA00060934104709342048093430490934404DF
:102BB0008091290490912A04A0912B04B0912C04B7
:102BC0000196A11DB11D8093290490932A04A0931E
:102BD0002B04B0932C0480E480934D0181E493E2B4
:102BE00090934F0180934E0186E390E890935101BA
:102BF0008093500180911A0681110CC08DE195E0FF
:102C000090934F0180934E0183E090E090935101A7
:102C10008093500180E091E09093530180935201A2
:102C200081E08093540192E09093550193E090935A
:102C30005601809357011092E9008093EB001092A7
:102C4000EC0082E38093ED0080911A06882309F45A
:102C500085C00E9452076093450470934604809398
:102C600047049093480480912D0490912E04A091E4
:102C70002F04B09130040196A11DB11D80932D0445
:102C800090932E04A0932F04B09330041092F60476
:102C900088E08093F000C2FF22C083E08093E900C7
:102CA0008091F200882319F08AE38093E8008091F4
:102CB000D503882341F08091D50381508093D503BB
:102CC000811101C05D9A8091F504882341F08091C3
:102CD000F50481508093F504811101C0289AC4FF46
:102CE00057C08091E2008E7E81608093E2008091E7
:102CF000E1008F7E8093E1008091D6038E7E80611B
:102D00008093D603FF91EF91CF91BF91AF919F91A7
:102D10008F917F916F915F914F913F912F910F9084
:102D20000FBE0F901F90189510924A0110924B0100
:102D300010924C010E9452079B01AC0188279927F1
:102D4000DC01821B930BA40BB50B80934104909381
:102D50004204A0934304B09344042ACF10924A0142
:102D600010924B0110924C010E9452079B01AC0142
:102D700088279927DC01821B930BA40BB50B80934A
:102D8000450490934604A0934704B09348046BCF46
:102D9000C0FFB8CF8091E2008E7E80618093E20018
:102DA0008091E1008E7E8093E1008091D6038E7E3B
:102DB0008160A6CF1F920F920FB60F921124CF926F
:102DC000DF92EF92FF920F931F932F933F934F93B6
:102DD0005F936F937F938F939F93AF93BF93EF9383
:102DE000FF93CF93DF93CDB7DEB76C97DEBFCDBF38
:102DF0001092E9008091E80083FF25C068E0CE01D1
:102E000045960E94950A82EF8093E8008D8987FF9E
:102E100039C09091E80090FFFCCF982F907609F090
:102E20007CC19E894F89588D2F89F88C911131C0B2
:102E3000803861F58091D7038093F1001092F10002
:102E40008EEF8093E8006C960FB6F894DEBF0FBE4D
:102E5000CDBFDF91CF91FF91EF91BF91AF919F9146
:102E60008F917F916F915F914F913F912F911F9122
:102E70000F91FF90EF90DF90CF900F900FBE0F90CB
:102E80001F9018959EEF9093E800C7CF1092F10025
:102E9000D5CF913059F48111D3CF4130510581F60E
:102EA0008091D7038D7F8093D703CACF933049F4A5
:102EB0008111C6CF4130510519F68091D703826048
:102EC000F2CF953041F48091E80080FFFCCF20687C
:102ED0002093E300B5CF963009F0A9C00B8D1C8D6F
:102EE00022E01092E9001092D3031092D203F21262
:102EF0002EC01092D1031092D0030E94F30B1F82B8
:102F000099E09983FA8291E09E8390EA98879AEFFC
:102F100099872091D2033091D303275F3F4F3C83A1
:102F20002B838D831092E9001092D3031092D20369
:102F30001093D1030093D00349E050E0BE016F5FCE
:102F40007F4F80E00E9483090E94F30B79CF10939A
:102F5000D1030093D0030E94D50ADC0112960D9193
:102F60001C910115110509F491C1D801ED91FC9155
:102F70000480F581E02DBE016B5E7F4FC80109958D
:102F8000009709F07EC1F80100851185EACFF3E0D2
:102F9000FF120EC08F89882309F440C0823061F48B
:102FA00040E860E182EF90E00E945009811148CF33
:102FB00081E28093EB0047CF813029F440E86BE059
:102FC00086EE90E0F1CF833099F70E94D50ADC01BC
:102FD0001296ED90FC908E010F5F1F4F6801E11477
:102FE000F10479F0D701ED91FC910680F781E02D95
:102FF000B801C7010995080F111DF701E084F1849C
:10300000EECFD8011C92F60101900020E9F731972C
:10301000BF016C197D0940E0C601C6CFE2EEF0E0C9
:10302000449150E0BF0180E80E94830909CF9730A6
:1030300009F4BECF983021F481E08093F10000CFF5
:10304000993009F0FDCE837009F0B2CF80911A0655
:103050008823A1F10E9452076093490470934A04A7
:1030600080934B0490934C048091310490913204EE
:10307000A0913304B09134040196A11DB11D809339
:10308000310490933204A0933304B0933404E1E705
:10309000F1E081E031E096E321912223A9F18093D0
:1030A000E9003093EB00DF0111972C912093EC00A5
:1030B0009093ED008F5F873079F726C00E9452070A
:1030C0009B01AC0188279927DC01821B930BA40B81
:1030D000B50B8093490490934A04A0934B04B0939A
:1030E0004C048091310490913204A0913304B0914A
:1030F00034040196A11DB11D8093310490933204D4
:10310000A0933304B09334048EE78093EA001092C6
:10311000EA008F898093F60493CE8B8D9C8D10925C
:10312000E9001092D3031092D2039093D1038093BD
:10313000D003898D81118AC08E899D89913A41F48D
:10314000813209F035CF47E050E068E571E0A5C075
:10315000913209F02DCF833269F48F89988DB0E0D8
:10316000A0E08093420190934301A0934401B09367
:10317000450166CE803239F467E070E088E591E081
:103180000E94A20A5DCE823209F05ACE8F898093C6
:103190005F01EEEFFFE785919491E0E0F8E08B3F6F
:1031A0009C4D11F4EEEFFAE0809158019091590195
:1031B000A0915A01B0915B01803B9440A105B105FB
:1031C000D9F480915F0180FD17C0EE3F5AE0F5070A
:1031D00071F587E797E79183808380916000809302
:1031E000D40388E19BE00FB6F894A8958093600023
:1031F0000FBE9093600024CE8081918187379747DE
:1032000009F01ECEA89580916000886180936000CF
:103210008091D40380936000EE3F2AE0F20789F0AA
:103220008091FE0A9091FF0A9183808309CE80816C
:1032300091818737980769F29093FF0A8093FE0A7D
:10324000C8CF1092FF0A1092FE0AFACD0E94D50A4A
:10325000DC0112960D911C910115110509F4A8CEFF
:10326000D801ED91FC910190F081E02DBE016B5EE3
:103270007F4FC80109958111E3CDF80100851185C3
:10328000EBCF181619060CF4DBCD92CEF1E0FF124D
:103290007ECE42E150E066E471E080E0C5CE10925F
:1032A00012051092110588EE93E0A0E0B0E0809343
:1032B000130590931405A0931505B093160584E9A2
:1032C00091E09093100580930F058DEC90E0909322
:1032D0001C0580931B058CEC90E090931E05809359
:1032E0001D0588EC90E09093200580931F0589ECE4
:1032F00090E090932205809321058AEC90E09093D2
:103300002405809323058EEC90E09093260580930E
:103310002505109228051092290510922A05109271
:103320002B0588EB91E09093F9048093F8041092B8
:10333000FA041092FB041092FC041092FD0482E047
:1033400080930C0581E080930D0593E090930E052A
:1033500090910405911112C01092FF041092FE0486
:103360002DEA39E0309301052093000520E931E092
:103370003093030520930205809304050E94E90A17
:10338000FC01A485B585109709F050C08EEF94E03C
:10339000958784878685978520910205309103055E
:1033A000820F931F978786871092AF051092AE0504
:1033B00088EE93E0A0E0B0E08093B0059093B10573
:1033C000A093B205B093B30586EA91E09093AD0562
:1033D0008093AC058FEF9FEF9093B9058093B8056C
:1033E00088EB91E090931E0680931D0610921F06B5
:1033F00010922006109221061092220680911A0641
:1034000081111EC08FE095E090931C0680931B06EF
:10341000109219061092180610920F0610920E06BE
:1034200010920506109204060895DC018D919C917E
:1034300011970097D1F78EEF94E08D939C93AACFCC
:103440008CEA95E0E1CFCF93DF93CDB7DEB7A297BB
:103450000FB6F894DEBF0FBECDBFF89462E082E0F5
:103460000E94BF0682E00E946806892B19F481E061
:1034700080931A060E945207609355047093560475
:10348000809357049093580480913D0490913E049A
:10349000A0913F04B09140040196A11DB11D8093FD
:1034A0003D0490933E04A0933F04B093400478946D
:1034B000789484B5826084BD84B5816084BD85B50F
:1034C000826085BD85B5816085BD80916E0081601B
:1034D00080936E00109281008091810082608093C1
:1034E00081008091810081608093810080918000C3
:1034F0008160809380008091910082608093910030
:103500008091910081608093910080919000816012
:10351000809390008091C10084608093C10080916D
:10352000C10082608093C1008091C100816080935E
:10353000C1008091C30081608093C3008091C0006E
:1035400082608093C0008091C20081608093C2003D
:1035500080917A00846080937A0080917A00826002
:1035600080937A0080917A00816080937A008091C4
:103570007A00806880937A001092F6041092D70344
:103580001092D6038091D70081608093D70080EAA3
:103590008093D80089B5806189BD89B5826089BD75
:1035A00009B400FEFDCF61E070E080E090E00E9491
:1035B00020078091D8008F7C80618093D800809113
:1035C000E000807F8093E0008091E1008E7E809318
:1035D000E1008DE08093E200559A209A8FEF9FEFF3
:1035E0009093B9058093B80568E873E180E090E0B6
:1035F0000E94200765EC72E08CEA95E00E945E076D
:103600008FB7F894409158015091590160915A0137
:1036100070915B018FBF2AE030E08CEA95E00E9458
:10362000950D62EC72E08CEA95E00E945E07609175
:103630005E014AE050E08CEA95E00E949D0D6FEB40
:1036400072E08CEA95E00E945E0760915D014AE0BD
:1036500050E08CEA95E00E949D0D6CEB72E08CEAE4
:1036600095E00E945E0760915C014AE050E08CEAC0
:1036700095E00E949D0D8CEA95E00E94EA0DE09194
:103680001F05F091200582E08083E0911B05F091F9
:103690001C051082E0911D05F0911E0580E18083DC
:1036A00010922705E0912305F091240586E08083A0
:1036B000E0912105F0912205808180618083E09175
:1036C0002105F0912205808188608083E0912105A9
:1036D000F0912205808180688083E0912105F0913E
:1036E000220580818F7D808368EE73E080E090E02A
:1036F0000E94200780916701882349F080911A0673
:10370000882309F4A7C28CEA95E00E94EA0D809113
:103710006701882359F080911A06882309F49DC215
:1037200064EA72E08CEA95E00E94490E809167019C
:10373000882359F080911A06882309F493C264E320
:1037400072E08CEA95E00E94490E8091670188231F
:1037500059F080911A066DEF71E0882309F487C251
:103760008CEA95E00E941C0E80916701882359F035
:1037700080911A0661E272E0882309F47BC28CEA28
:1037800095E00E941C0E6FE272E08FE095E00E94CF
:10379000B60E60911A0670E08FE095E00E94EE0D83
:1037A00013E0E12E14E0F12E10E000E0C8010E94C9
:1037B000E629D7018D937D010F5F1F4F063211055A
:1037C000A9F7809103048A3A09F05CC2809104044D
:1037D000853509F057C280912704909128048130E3
:1037E000954A09F04FC28091260481708093670149
:1037F000882359F080911A06882309F43EC26FEBA2
:1038000071E08CEA95E00E94490E0E94E90A0E944C
:10381000E90A21E030E04CE055E061E070E00E9410
:103820003B130E94E90A21E030E04EE055E062E0FF
:1038300070E00E943B130E94E90A21E030E04DE075
:1038400055E063E070E00E943B130E94E90A22E128
:1038500031E0FC01318F208F0E94E90A2CEA35E02B
:10386000DC0157963C932E93569762E084E00E94C9
:10387000BF0660E087E10E94BF0661E08DE00E9424
:10388000910680910104909102048560916090936B
:1038900002048093010442E050E061E074E087E0BC
:1038A00090E00E94951342E050E06BE671E08DE0FD
:1038B00090E00E94951342E050E065E074E08AE1F8
:1038C00090E00E94951342E050E067E074E08CE1E4
:1038D00090E00E94951342E050E069E074E088E0D7
:1038E00090E00E94951342E050E065E671E083E1CC
:1038F00090E00E94951342E050E068E671E082E1BA
:1039000090E00E94951341E050E064E671E086E0AB
:1039100090E00E94951341E050E063E671E086E19B
:1039200090E00E94951342E050E062E871E08AE086
:1039300090E00E94951342E050E061E671E08BE078
:1039400090E00E9495134DE051E061E871E08FE155
:103950000E94AB1343E051E060E871E080E20E9416
:10396000AB1341E050E060E671E084E190E00E943A
:10397000951341E050E06FE771E087E190E00E942D
:10398000951341E050E06AE671E08EE090E00E941D
:10399000951341E050E06DE671E08CE090E00E940C
:1039A000951341E050E06FE074E08FE090E00E94FA
:1039B000951341E050E060E174E081E190E00E9405
:1039C000951341E050E06EE771E080E190E00E94E5
:1039D000951341E050E06DE771E088E190E00E94CE
:1039E000951380910B0490910C0490936F01809338
:1039F0006E0141E050E06DE671E08CE090E00E94E5
:103A0000C10B42E050E061E074E087E090E00E948A
:103A1000C10B9093F9038093F80380916701882389
:103A2000C1F1609101047091020480911A0640E195
:103A3000882309F43DC1CE0101960E94C3104AE0DB
:103A400060916D01CE0143960E94EF10CE01499620
:103A50000E943D10BE016D5E7F4FCE0149960E94CF
:103A600088100E941910BE016F5F7F4F0E9488105E
:103A7000BC018CEA95E00E942E0ECE0149960E9470
:103A8000BB10CE0143960E94BB10CE0101960E944E
:103A9000BB10109219060E94520760931006709393
:103AA000110680931206909313068AE090E0A0E03E
:103AB000B0E08093140690931506A0931606B09379
:103AC000170681E080931806BCE36B2E712CBB2493
:103AD000B394ACE35A2E80911A06882309F409C1E5
:103AE0008CEA95E00E94ED0C892B09F4BEC480910C
:103AF0001A06882309F402C18CEA95E00E94AB0CF7
:103B00007C0180911A0690916701992341F06E2DF6
:103B1000882309F4F8C08CEA95E00E94850CE091B6
:103B2000F704EE3108F099C4BDE0EB16F104A9F0FA
:103B3000FAE0EF16F10489F02FEEE216F10469F0D5
:103B4000C7018B7F8B3B910541F081E08E0F809305
:103B5000F704F0E0E852FC4FE082E091F704F0E077
:103B6000E852FC4F108280911A06909167019923C8
:103B700049F0882309F4CCC065E878E08CEA95E048
:103B80000E945E0780911A0690916701992349F07F
:103B900068ED73E0882309F4C0C08CEA95E00E94C8
:103BA000B60E80911A0690916701992349F08823F7
:103BB00009F4B6C061E878E08CEA95E00E94490E0D
:103BC00080911A069091F704992309F4E9C00CEA50
:103BD00015E0811102C00FE015E0FA8EE98E109316
:103BE0001C0600931B063DE0E316F10429F08AE071
:103BF000E816F10409F06FCF8091D803082E000C6D
:103C0000990B0E94B42D883409F455C20CF0D9C028
:103C1000833409F4E7C10CF088C08F3309F44BC238
:103C2000823409F455C163EC77E0C8010E945E0755
:103C300068ED73E0C8010E94B60E65E473E0C80148
:103C40000E941C0E68E473E0C8010E941C0E1092D2
:103C5000D803A0C08FE095E058CD6CE872E08FE00B
:103C600095E062CD6CED71E08FE095E06CCD8FE07A
:103C700095E078CD8FE095E084CD62EA71E08FE049
:103C800095E0C1CD80916701882351F080911A069B
:103C9000882349F06DE571E08CEA95E00E94490EB9
:103CA0000E945B0EB2CD68E171E08FE095E0F6CF47
:103CB000CE0101960E94C3104AE060916D01CE01D1
:103CC00043960E94EF10CE0149960E943D10BE011E
:103CD0006D5E7F4FCE0149960E9488100E94191098
:103CE000BE016F5F7F4F0E948810BC018FE095E09E
:103CF000C2CE8FE095E00E94E007F6CE8FE095E01F
:103D00000E94BE07FDCE8FE095E00E94170807CF06
:103D100063E878E08FE095E033CF8FE095E03FCF28
:103D20006FE778E08FE095E049CF843409F47AC3F7
:103D3000853409F078CF8091D903082E000C990BB7
:103D40000E94B42D8E3409F0B3C19DE0E916F10450
:103D500021F0AAE0EA16F104E9F48AED93E00E946A
:103D60004C287C01029708F462C063EB77E0C8013D
:103D70000E945E076EE372E080911B0690911C0624
:103D80000E94B60E63E977E080911B0690911C06B5
:103D90000E94490E1092F7048091F70481119BCE86
:103DA00080911A0690916701992309F494CE64E5F5
:103DB00073E0882309F456C38CEA95E00E94B60E9E
:103DC0008ACE833509F48CC28CF48E3409F442C354
:103DD000813509F028CF66ED77E0C8010E945E07C3
:103DE00070E060E0C8010E94EE0DD4CF8A3509F47E
:103DF00093C28E3709F49DC2843509F014CF8091A7
:103E0000D903082E000C990B0E94B42D833409F4B9
:103E100090C0843409F4B9C069EE72E0C8010E9410
:103E2000B60E68ED73E0C8010E941C0EB3CF63E8C4
:103E300077E0C8010E945E0700911B0610911C06E6
:103E4000809111041C8A1B8A1E8A1D8A188E1F8A63
:103E50004AE0BE016F5F7F4F90E00E947C28BE0168
:103E60006F5F7F4FCE0143960E945D10BE016D5E75
:103E70007F4FC8010E942E0ECE0143960E94BB10B8
:103E80008E2D8170809311046EE777E080911B0680
:103E900090911C060E945E076EE372E080911B0603
:103EA00090911C060E94B60E64E777E080911B0695
:103EB00090911C060E945E076091110470E0809151
:103EC0001B0690911C060E94EE0D6EE477E05CCF1D
:103ED0008091D903082E000C990B0E94B42D8534D3
:103EE000E1F0863409F0E4C0912C812CA12CECE7A0
:103EF000CE2EE2E0DE2EFBE0EF2EF4E0FF2E8E0170
:103F00000F5F1F4F20E048E55BE1BE01675E7F4F1A
:103F100089ED93E00E941C113DCF912C812CA12CA6
:103F200062E9C62E62E0D62E7DE0E72E74E0F72E21
:103F3000E6CF8091050490910604B3010E940C2AFB
:103F40007A836983912C812CA12C52EAC52E52E0F0
:103F5000D52EFE0131967F018E010D5E1F4F20E0B0
:103F600040E45FE1BE01675E7F4F89ED93E00E9410
:103F70001C1129813A81529EC001539E900D11243B
:103F8000909306048093050405CF809107049091D7
:103F90000804B3010E940C2A7A836983912C812C36
:103FA000A12C44ECC42E42E0D42E9E012F5F3F4F43
:103FB00079018E010D5E1F4F20E040E45FE1BE01FC
:103FC000675E7F4F89ED93E00E941C1129813A8141
:103FD000529EC001539E900D11249093080480932B
:103FE0000704D8CE8091D903082E000C990B0E94AB
:103FF000B42D883481F18C3409F05AC080911404B6
:10400000909115049A838983912C812CA12C33E003
:10401000C32E33E0D32ECE0101967C018E010D5EBE
:104020001F4F20E040E45FE1BE01675E7F4F89EDF6
:1040300093E00E941C11882309F4ACCE89819A81F7
:1040400090931504809314040E94880F9093130496
:10405000809312049FCE80911804909119049A8342
:104060008983912C812CA12C28E1C22E23E0D22E11
:10407000DE0111967D018E010D5E1F4F20E040E4B0
:104080005FE1BE01675E7F4F89ED93E00E941C11E6
:10409000882309F47FCE89819A81909319048093B3
:1040A00018040E94880F909317048093160472CE10
:1040B0006BE572E0B3CE8091D903082E000C990B0A
:1040C0000E94B42D853409F465CE813509F462CEA1
:1040D00060E477E0C8010E94490EC8010E94EA0D21
:1040E00067E277E0C8010E94490E6DEF71E0C801F8
:1040F0000E941C0EC8010E94EA0D65E177E0C8012C
:104100000E94490E63EE76E0C8010E945E0760914E
:10411000110470E0C8010E94EE0D63EB76E0C80167
:104120000E945E07C8010E94EA0D61E876E0C801BE
:104130000E945E0760910B0470910C044AE050E00D
:10414000C8010E940A0E6FE476E0C8010E945E0773
:1041500060910D0470910E044AE050E0C8010E9485
:104160000A0E6DE176E0C8010E945E0780910504A9
:1041700090910604B3010E940C2A4AE050E0C80165
:104180000E940A0E6BEE75E0C8010E945E078091E6
:10419000070490910804B3010E940C2A4AE050E001
:1041A000C8010E940A0E69EB75E0C8010E945E0713
:1041B00060911404709115044AE050E0C8010E9417
:1041C000970D62EB75E0C8010E94490E66E975E043
:1041D000C8010E945E0760911204709113044AE0C6
:1041E00050E0C8010E94970D64E975E0C8010E9483
:1041F000490E62E675E0C8010E945E0760911804EE
:10420000709119044AE050E0C8010E94970D6BE5D7
:1042100075E0C8010E94490E6EE375E0C8010E9476
:104220005E0760911604709117044AE050E0C801DF
:104230000E94970D6CE375E0C8010E94490E6EE084
:1042400075E0C8010E94490E6DEC74E0C8010E943F
:10425000490E60E974E0C8010E94490E63E574E00C
:10426000C8010E94490E67E174E0C8010E94490E2E
:104270006AED73E0C8010E94490E6CEA73E0C80160
:104280000E94490E6AE773E0C8010E94490E60E788
:1042900073E0C8010E94490E6BE473E0C8010E94FC
:1042A0005E0740E150E060912604C8010E949D0D28
:1042B000C8010E94EA0D65E373E0C8010E945E0731
:1042C00060916E0170916F01C8010E94EE0D6BE26A
:1042D00073E0C8010E94490E6FE377E0C80158CD32
:1042E00093E0C92E94E0D92EF12CE12CF6014190F7
:1042F0006F01C7010E94E629481621F0642DC7010D
:104300000E94EE29FFEFEF1AFF0A26E2E216F104FF
:1043100069F76FE578E0E2CF0E945B0E6AE078E033
:10432000C8010E94490E8091260481708093670124
:1043300031CD65E173E0C8010E945E07F12CE12CEC
:10434000D12CC12C412CC7018C0D9D1D0E94E6294A
:104350008F3F11F0442443943FEFC31AD30A80E106
:10436000C816D10481F7E114F10419F0442009F4CE
:104370004BC060E173E0C8010E945E076EE073E02D
:10438000C8010E945E079FEFE916F10409F070F47E
:104390006CE073E0C8010E945E07A0E1EA16F10438
:1043A00028F46AE073E0C8010E945E0740E150E033
:1043B000B701C8010E94970D68E073E0C8010E9430
:1043C0005E076701412CC6010E94E629382EBFE036
:1043D000B81728F066E073E0C8010E945E0740E16C
:1043E00050E0632DC8010E949D0DEFE04E1629F0AC
:1043F00064E073E0C8010E945E07FFEFCF1ADF0A96
:10440000439420E14212DFCF30E1E30EF11CE114CE
:1044100084E0F80609F094CF60EF72E0C8010E94D2
:104420005E07B8CC912C812CAA24A39480E3C82EDB
:1044300083E0D82EDE0111967D0106E214E021E032
:104440004FEF50E0BE01675E7F4F88ED93E00E9422
:104450001C1169CF6AEE77E041CF1092F7041092F9
:10446000D8039ACC8FE095E0A9CC8CEF95E00E9420
:10447000E1081091050680910406811118C088EEAC
:1044800093E0A0E0B0E08093000690930106A09333
:104490000206B09303060E9452076093FC057093D6
:1044A000FD058093FE059093FF05B09204061092DF
:1044B0000506112309F44AC284E00E9468068C01B3
:1044C0000E94CA05C0901404D0901504F12CE12C70
:1044D0002090120430901304512C412C2091180488
:1044E0003091190450E040E02C193D094E095F0954
:1044F000BC01990F880B990B6219730984099509FE
:104500000E94FC29209116043091170450E040E0ED
:1045100022193309440955090E94422AC20ED31EAA
:10452000E41EF51ED7FC84C2D0926F01C0926E01CA
:1045300080911104882309F4A3C2C0900D04D09087
:104540000E04F12CE12C20916E0130916F01032EAD
:10455000000C440B550B2C193D094E095F09A4E6CC
:10456000B0E00E94612A20910B0430910C0450E0CD
:1045700040E02C193D094E095F090E94422AF12CA6
:1045800037FD06C02536310514F024E630E0F22E62
:10459000F0926D01609107047091080490E080E052
:1045A0000E94C7281B012C016F2D70E090E080E075
:1045B0000E94C9289B01AC01C201B1010E942829B7
:1045C00020E030E048EC52E40E941F2B1B012C013C
:1045D00020E030E0A9010E94C72B20E030E040E05D
:1045E0005FE387FD2AC2C201B1010E94B32A0E9483
:1045F000912B70936C0160936B01809101049091F9
:1046000002040115110509F41DC28560909302048E
:1046100080930104809101049091020420916A0129
:10462000F21212C29160909302048093010480916F
:104630000104909102040115110509F00AC22091AC
:10464000090430910A046217730708F0FFC18262FF
:1046500090930204809301048091010490910204DC
:104660002091680130916901121613060CF0F6C111
:1046700094609093020480930104809167018823E1
:1046800059F080911A066BE573E0882309F4E3C1C1
:104690008CEA95E00E941C0E809101049091020426
:1046A0009C0120723470232B09F4E1C1986090932F
:1046B00002048093010480916701882359F080915E
:1046C0001A066EE673E0882309F4CEC18CEA95E001
:1046D0000E941C0E809101049091020488609093C6
:1046E0000204809301042091FF033091000482179B
:1046F0009307B9F490916D018091FE03981311C056
:1047000020916B0130916C018091FC039091FD032D
:104710002817390731F48091FA039091FB034B97E6
:10472000F4F141E050E06DE671E08CE090E00E9431
:10473000C10B012B41F442E050E06BE671E08DE0EB
:1047400090E00E94C10B42E050E061E074E087E03D
:1047500090E00E94C10B9093F9038093F8031092AC
:10476000FB031092FA03209101043091020430936C
:1047700000042093FF0320916D012093FE032091FC
:104780006B0130916C013093FD032093FC0397FD86
:1047900074C181E090E09093F7038093F6038091D9
:1047A0001104882309F49CC080911A069091670136
:1047B000992349F061EF71E0882309F466C18CEA1E
:1047C00095E00E94B60E80911A0690916701992398
:1047D00059F060916D014AE050E0882309F458C116
:1047E0008CEA95E00E949D0D80911A0690916701D8
:1047F000992349F060E873E0882309F44CC18CEAFE
:1048000095E00E94B60E20911A06809167018823D8
:1048100089F080916B0190916C01B3010E940C2A88
:104820004AE050E08CEA95E0211102C08FE095E06B
:104830000E94970D80911A0690916701992349F083
:1048400062E973E0882309F429C18CEA95E00E94AB
:10485000B60E20911A0680916701882391F080910D
:104860006B0190916C01B3010E940C2ABC014AE0DB
:1048700050E08CEA95E0211102C08FE095E00E94A3
:10488000970D80911A0690916701992349F064E988
:1048900073E0882309F405C18CEA95E00E94B60E06
:1048A00080911A0690916701992359F06091F8035D
:1048B0007091F903882309F4F7C08CEA95E00E940F
:1048C0008B0D80911A0690916701992349F064EB52
:1048D00073E0882309F4EBC08CEA95E00E94B60EE1
:1048E000B092670180911A0667EB73E0882309F4A0
:1048F000E1C08CEA95E00E94B60E80911A06909174
:104900006701992359F060916E0170916F018823BE
:1049100009F4D3C08CEA95E00E94EE0D80911A064E
:1049200067EB73E0882309F4CBC08CEA95E00E9422
:10493000B60E60916E0170916F0180911A06882306
:1049400009F4C1C08CEA95E00E94EE0D8091F60357
:104950009091F7038130910509F4B8C008F4C8C0FC
:10496000029709F4BCC080E196E00E94E1088091C2
:104970001906811110921806109219068823F9F071
:1049800010920F060E945207609306067093070666
:1049900080930806909309062F8D38A1C901B0E0D5
:1049A000A0E080930A0690930B06A0930C06B093A8
:1049B0000D06B0920E0660E08DE00E94910686E042
:1049C00096E00E94E10880910F06811110920E0678
:1049D00010920F068823F9F0109219060E945207D0
:1049E000609310067093110680931206909313063D
:1049F000E9A1FAA1CF01B0E0A0E080931406909362
:104A00001506A0931606B0931706B092180661E03B
:104A10008DE00E94910680E090E0892B09F459C84E
:104A20000E94EC07882309F452C80E9400004FC876
:104A300010926F0110926E017BCDC201B1010E94F4
:104A4000B22AD5CD8A7FE2CD9E7FEDCD8F7D82606B
:104A5000FFCD8D7DFDCD8FE095E01CCE9B7F9093AB
:104A600002048093010418CE8FE095E031CE977F49
:104A700090930204809301042DCE82E090E08BCECF
:104A80001092F7031092F6038ACE8FE095E099CE4C
:104A90008FE095E0A7CE8FE095E0B3CE8FE095E074
:104AA000D6CE8FE095E0FACE8FE095E008CF8FE08C
:104AB00095E014CF8FE095E01ECF8FE095E02CCFEE
:104AC0008FE095E034CF8FE095E03ECFA4E6B0E0F4
:104AD000B8A3AF8FE4E8F3E0FAA3E9A344CF24E856
:104AE00033E038A32F8F84E690E09AA389A33BCFCD
:104AF000A4EFB1E0B8A3AF8FE4EFF1E0EDCFCF9337
:104B0000DF93DC012D91FB013191EC013883EB0146
:104B1000288341505109CD01BF01141615068CF3AD
:104B2000DF91CF910895B0E0A0E0E9E9F5E20C94BF
:104B3000762A6C01D62FC72F8A017901F9010995D0
:104B4000B80197FF15C08D2F9C2FF701099597FD90
:104B500008C0B801C601F701099597FD16C0DC2D04
:104B6000CD2D8D2F9C2FCDB7DEB7E8E00C94922A87
:104B70008D2F9C2FF70109951816190694F3B8018B
:104B8000C601F701099597FDEACFD02FC12FE9CFD4
:104B9000A8E0B0E0EEECF5E20C946C2A8C015887AA
:104BA0004F8359019A013195219531093E832D8317
:104BB0006F807884600E711E6730710578F58F8183
:104BC0009885689F6001699FD00C789FD00C112454
:104BD000C00ED11E6C147D0420F02896E2E10C94E6
:104BE000882A730113C047012F813885821A930ADE
:104BF000B701C401F50109951816190654F44F813F
:104C00005885B401C7010E947F2574010E151F0548
:104C100050F3EF81F8856E0E7F1EDCCFCB019695A9
:104C200087952F813885829F6001839FD00C929F4A
:104C3000D00C1124C00ED11ECB010197829F100110
:104C4000839F300C929F300C11247801E20CF31CEE
:104C50006730710509F442C0C70128016932710546
:104C6000B0F183E0769567958A95E1F7629F400100
:104C7000639F900C729F900C1124C401880F991FA0
:104C80009A838983AC01400F511FB801680D791DCB
:104C90009501C8010E9493252C01A601480D591DBC
:104CA0009194819491089501B601C601880D991DD2
:104CB0000E9493256C01B701680D791D9501A7012C
:104CC000C701E981FA818E1B9F0B0E9493259501F4
:104CD000AC01B601C2010E9493256C014F81588539
:104CE000B601C8010E947F254301630127011A8292
:104CF0001982EC14FD0408F446C0B801C601F501A0
:104D000009951816190654F1892B71F44F815885AD
:104D1000B601C3010E947F252F813885620E731E64
:104D200081E090E09A838983EF81F885CE0EDF1EC3
:104D3000E0CF892B71F44F815885B201C7010E94E1
:104D40007F252D813E81420E531E81E090E09A83A3
:104D50008983EB80FC80EC14FD04A8F0B801C70146
:104D6000F50109952D813E812E0D3F1D3C832B833E
:104D700097FFDFCF4F815885B701C6010E947F257D
:104D8000EB80FC80CDCFEF81F8852E0E3F1E200EEC
:104D9000311E29813A81232B09F58214930408F0EE
:104DA0001CCF740113C06701EF81F885CE1ADF0AAA
:104DB000B701C601F50109951816190654F44F817B
:104DC0005885B601C7010E947F2576010E151F0583
:104DD00050F38F819885880E991EDFCF4601861883
:104DE0009708A301401B510B841695060CF4A401EF
:104DF0001416150634F4B601641B750BC8010E9425
:104E00007F2592012E193F097901A1014419550905
:104E10008F819885481B590B2417350708F4A90181
:104E20001416150634F4B101641B750BC6010E94FB
:104E30007F25EF81F885E815F90548F4C401BF0125
:104E40000E940C2A9501AF01C8010E94C8252F813C
:104E500038852E153F0508F0C0CE81010E191F09B7
:104E6000C701B9010E940C2AA3CEB0E0A0E0EBE399
:104E7000F7E20C946D2A5C016B017A0161157105F2
:104E800019F0FB0191838083E114F10451F0C70113
:104E90000297839730F040E030E020E090E072C06D
:104EA0005E01E5012196F5011081812F90E00E94BD
:104EB0006A28892BA9F71D3201F52196F501118188
:104EC00001E0E114F10409F4DAC0F0E1EF16F104B5
:104ED00009F082C0103359F488818F7D883509F03C
:104EE00076C0198122960260F0E1EF2EF12C812C20
:104EF000912CA12C88E0B82E8CC01B3221F4E50146
:104F00002296F501118100E0DCCFEAE0EE16F10413
:104F100009F4BBC0F0E1EF16F10409F06DC0E7CF72
:104F200078E0E72EF12C812C912CA12C60E1B62E9B
:104F300070C03FE9310F3A3128F439EA332E80C08E
:104F400021E09AC0302F3170C114D10431F02223F6
:104F500009F12197F601D183C08327FF21C060E0CA
:104F600070E080E090E8311104C06FEF7FEF8FEFC9
:104F70009FE722E230E03093240620932306462F59
:104F8000372F282F642F732F822FCDB7DEB7E1E1A3
:104F90000C94892A01FF04C02297F601D183C083B3
:104FA000332341F090958095709561957F4F8F4F99
:104FB0009F4FE5CF97FFE3CF82E290E090932406E6
:104FC000809323066FEF7FEF8FEF9FE7D8CF10E33B
:104FD000E114F10409F4A4CF28E0E216F10409F485
:104FE000A2CF0CF092CF812C912CA12CE0E4BE2E0C
:104FF00082E0E816F10469F060E070E080E090E89B
:1050000097010F2C000C440B550B0E94202A4901DC
:105010005A0120E060E070E0CB0127010F2C000C6A
:1050200066087708FE0150ED352E310E39E0331554
:1050300040F43FEB310F3A3108F07BCF49EC342E8E
:10504000310E3E141F040CF07DCF27FD15C08616CF
:105050009706A806B90678F0A30192010E94FC29E0
:10506000630D711D811D911D61307105810520E861
:10507000920708F465CF2FEF21961081D3CF10331C
:1050800009F42ACF2AE0E22EF12C9CEC892E982CF0
:10509000A82C9CE0B92EBDCFFC0188279927E89465
:1050A00021912032E9F3293010F02E30C8F32B3251
:1050B00041F02D3239F4689404C00E948728820F91
:1050C000911D219120532A30C0F31EF490958195B3
:1050D0009F4F089591110C94B428803219F0895093
:1050E0008550C8F70895FC0105900020E9F78095E8
:1050F00090958E0F9F1F0895BB274A3031F4992356
:1051000022F4BDE2909581959F4F0C949B287AE004
:10511000979F902D879F802D910D112408954532E2
:10512000510520F4423010F00C949A28FB011082B3
:10513000CB010895BB27FB015527AA27880F991F8C
:10514000AA1FA41710F0A41B83955051B9F7A05DB6
:10515000AA3308F0A95DA193009779F7B111B19333
:105160001192CB010C94B728992788270895DC0168
:10517000FC01672F71917723E1F7329704C07C918E
:105180006D9370836291AE17BF07C8F30895E894DA
:1051900009C097FB3EF490958095709561957F4F7F
:1051A0008F4F9F4F9923A9F0F92F96E9BB2793952D
:1051B000F695879577956795B795F111F8CFFAF43D
:1051C000BB0F11F460FF1BC06F5F7F4F8F4F9F4F6E
:1051D00016C0882311F096E911C0772321F09EE8CC
:1051E000872F762F05C0662371F096E8862F70E032
:1051F00060E02AF09A95660F771F881FDAF7880F0C
:105200009695879597F90895990F0008550FAA0B61
:10521000E0E8FEEF16161706E807F907C0F01216C9
:105220001306E407F50798F0621B730B840B950BCC
:1052300039F40A2661F0232B242B252B21F4089521
:105240000A2609F4A140A6958FEF811D811D0895BE
:105250000E943B290C94AC290E949E2938F00E94A0
:10526000A52920F0952311F00C9495290C949B29E5
:1052700011240C94E0290E94BD2970F3959FC1F37D
:10528000950F50E0551F629FF001729FBB27F00DF4
:10529000B11D639FAA27F00DB11DAA1F649F662749
:1052A000B00DA11D661F829F2227B00DA11D621F98
:1052B000739FB00DA11D621F839FA00D611D221F52
:1052C000749F3327A00D611D231F849F600D211D36
:1052D000822F762F6A2F11249F5750409AF0F1F0B9
:1052E00088234AF0EE0FFF1FBB1F661F771F881F22
:1052F00091505040A9F79E3F510580F00C9495299C
:105300000C94E0295F3FE4F3983ED4F386957795BB
:105310006795B795F795E7959F5FC1F7FE2B880FC7
:10532000911D9695879597F9089597F99F6780E85D
:1053300070E060E008959FEF80EC089500240A94E7
:105340001616170618060906089500240A94121660
:105350001306140605060895092E0394000C11F493
:10536000882352F0BB0F40F4BF2B11F460FF04C040
:105370006F5F7F4F8F4F9F4F089557FD9058440F99
:10538000551F59F05F3F71F04795880F97FB991FA4
:1053900061F09F3F79F08795089512161306140661
:1053A000551FF2CF4695F1DF08C0161617061806EE
:1053B000991FF1CF86957105610508940895E894C9
:1053C000BB2766277727CB0197F90895F999FECF78
:1053D00092BD81BDF89A992780B50895262FF99935
:1053E000FECF1FBA92BD81BD20BD0FB6F894FA9AC8
:1053F000F99A0FBE01960895DB018F939F930E9447
:10540000612ABF91AF91A29F800D911DA39F900D26
:10541000B29F900D11240895AA1BBB1B51E107C038
:10542000AA1FBB1FA617B70710F0A61BB70B881F34
:10543000991F5A95A9F780959095BC01CD010895C3
:10544000A1E21A2EAA1BBB1BFD010DC0AA1FBB1F88
:10545000EE1FFF1FA217B307E407F50720F0A21BFA
:10546000B30BE40BF50B661F771F881F991F1A9467
:1054700069F760957095809590959B01AC01BD0191
:10548000CF010895052E97FB1EF400940E94592A1F
:1054900057FD07D00E94202A07FC03D04EF40C943D
:1054A000592A50954095309521953F4F4F4F5F4F6A
:1054B000089590958095709561957F4F8F4F9F4F80
:1054C00008950E94A32AA59F900DB49F900DA49FBC
:1054D000800D911D112408952F923F924F925F925B
:1054E0006F927F928F929F92AF92BF92CF92DF92F4
:1054F000EF92FF920F931F93CF93DF93CDB7DEB759
:10550000CA1BDB0B0FB6F894DEBF0FBECDBF0994EC
:105510002A88398848885F846E847D848C849B8443
:10552000AA84B984C884DF80EE80FD800C811B8151
:10553000AA81B981CE0FD11D0FB6F894DEBF0FBE80
:10554000CDBFED010895A29FB001B39FC001A39FFD
:10555000700D811D1124911DB29F700D811D1124AC
:10556000911D08955058BB27AA270E94CA2A0C945F
:10557000AC290E949E2938F00E94A52920F039F418
:105580009F3F19F426F40C949B290EF4E095E7FB59
:105590000C949529E92F0E94BD2958F3BA17620788
:1055A00073078407950720F079F4A6F50C94DF299A
:1055B0000EF4E0950B2EBA2FA02D0B01B90190012E
:1055C0000C01CA01A0011124FF27591B99F0593F72
:1055D00050F4503E68F11A16F040A22F232F342FBA
:1055E0004427585FF3CF469537952795A795F04008
:1055F0005395C9F77EF41F16BA0B620B730B840B1D
:10560000BAF09150A1F0FF0FBB1F661F771F881FD4
:10561000C2F70EC0BA0F621F731F841F48F487952C
:1056200077956795B795F7959E3F08F0B0CF93951E
:10563000880F08F09927EE0F9795879508950E9497
:10564000332B0C94AC290E94A52958F00E949E2966
:1056500040F029F45F3F29F00C94952951110C94E6
:10566000E0290C949B290E94BD2968F39923B1F38A
:10567000552391F3951B550BBB27AA276217730778
:10568000840738F09F5F5F4F220F331F441FAA1F0C
:10569000A9F335D00E2E3AF0E0E832D091505040C8
:1056A000E695001CCAF72BD0FE2F29D0660F771F76
:1056B000881FBB1F261737074807AB07B0E809F05C
:1056C000BB0B802DBF01FF2793585F4F3AF09E3FE1
:1056D000510578F00C9495290C94E0295F3FE4F390
:1056E000983ED4F3869577956795B795F7959F5F24
:1056F000C9F7880F911D9695879597F90895E1E070
:10570000660F771F881FBB1F621773078407BA07CE
:1057100020F0621B730B840BBA0BEE1F88F7E09529
:1057200008950E94982B6894B1110C94E029089573
:105730000E94C52988F09F5798F0B92F9927B75133
:10574000B0F0E1F0660F771F881F991F1AF0BA9525
:10575000C9F714C0B13091F00E94DF29B1E008957B
:105760000C94DF29672F782F8827B85F39F0B93F6D
:10577000CCF3869577956795B395D9F73EF49095D8
:105780008095709561957F4F8F4F9F4F08950E9430
:10579000042908F48FEF0895EE0FFF1F0590F49190
:1057A000E02D09940F931F93CF93DF9382309105DF
:1057B00010F482E090E0E0912706F091280630E0B6
:1057C00020E0B0E0A0E0309799F42115310509F40C
:1057D0004AC0281B390B24303105D8F58A819B81BA
:1057E0006115710589F1FB0193838283FE0111C06C
:1057F000408151810281138148175907E0F0481711
:10580000590799F4109761F012960C93129713961A
:105810001C933296CF01DF91CF911F910F91089584
:105820000093270610932806F4CF2115310551F077
:105830004217530738F0A901DB019A01BD01DF01CE
:10584000F801C1CFEF01F9CF909328068093270686
:10585000CDCFFE01E20FF31F8193919322503109C6
:1058600039832883D7CF2091250630912606232B14
:1058700041F42091790130917A01309326062093EA
:10588000250620917701309178012115310541F4E9
:105890002DB73EB740917B0150917C01241B350B05
:1058A000E0912506F0912606E217F307A0F42E1BDF
:1058B0003F0B2817390778F0AC014E5F5F4F241774
:1058C000350748F04E0F5F1F50932606409325067C
:1058D000819391939FCFF0E0E0E09CCFCF93DF9353
:1058E0000097E9F0FC01329713821282A0912706FB
:1058F000B0912806ED0130E020E01097A1F420815E
:105900003181820F931F209125063091260628179A
:10591000390709F061C0F0932606E0932506DF9170
:10592000CF910895EA01CE17DF07E8F54A815B8140
:105930009E0141155105B1F7E901FB83EA834991C5
:105940005991C40FD51FEC17FD0761F48081918137
:105950000296840F951FE901998388838281938140
:105960009B838A83F0E0E0E012968D919C911397DF
:105970000097B9F52D913C911197CD010296820FB8
:10598000931F20912506309126062817390739F6EE
:10599000309751F51092280610922706B0932606EC
:1059A000A0932506BCCFD383C28340815181840F4D
:1059B000951FC817D90761F44E5F5F4F88819981A1
:1059C000480F591F518340838A819B81938382832F
:1059D0002115310509F0B0CFF0932806E093270692
:1059E0009ECFFD01DC01C0CF13821282D7CFB0E081
:1059F000A0E0EDEFFCE20C946E2A8C01009751F4CC
:105A0000CB010E94D22B8C01C801CDB7DEB7E0E1FB
:105A10000C948A2AFC01E60FF71F9C0122503109E1
:105A2000E217F30708F49DC0D901CD91DC911197DD
:105A3000C617D70798F0C530D10530F3CE010497CB
:105A40008617970708F3C61BD70B2297C193D193EC
:105A50006D937C93CF010E946E2CD6CF5B01AC1A64
:105A6000BD0A4C018C0E9D1EA0912706B091280600
:105A7000512C412CF12CE12C109731F58091250609
:105A8000909126068815990509F05CC046165706C0
:105A900008F058C08091770190917801009741F407
:105AA0008DB79EB740917B0150917C01841B950B73
:105AB000E817F90708F055C0F0932606E09325068D
:105AC000F90171836083A0CF8D919C9111971296FB
:105AD0006C90129713967C901397A815B90559F5F9
