:100000000C9410080C9438080C9438080C94380898
:100010000C9438080C9438080C9438080C94380860
:100020000C9438080C9438080C94561E0C94E51E59
:100030000C94311D0C9438080C9438080C94380832
:100040000C9438080C9438080C9438080C94380830
:100050000C9438080C9438080C9438080C948F1CB5
:100060000C9438080C94FF1C0C94D91C0C94380880
:100070000C9438080C9438080C9438080C94380800
:100080000C9438080C9438080C9438080C943808F0
:100090000C943B1D0C9438080C9438080C943808C8
:1000A0000C9438080C9438080C9438082C2053749D
:1000B00061747573203D203078002C2042617456A5
:1000C0003A20002C204261745620496E7465726E8D
:1000D000616C3A20003A00252C20004261747420A3
:1000E00052656D61696E696E67203D2000526573CF
:1000F000746F72656420666163746F7279206465E1
:100100006661756C74732E00526573746F726564EA
:1001100020666163746F72792064656661756C74C2
:10012000732E000403090441726475696E6F204CDC
:100130004C430041726475696E6F204C656F6E614F
:1001400072646F005553424344434E656564656471
:100150003A20005553424344434E65656465643A12
:1001600020004D79436F6F6C5550530050624163CE
:1001700000555053313000454550524F4D206E6F61
:100180007420696E697427642E205573696E672028
:10019000436F6D70696C65642044656661756C744D
:1001A000732E00476F6F643A20454550524F4D20E3
:1001B000697320696E697469616C697A65642E007F
:1001C0000D0A24242D454E4420454550524F4D0DD7
:1001D0000A0D0A00200030002000300030003000FE
:1001E0000D0A2420000D0A24242D454550524F4D60
:1001F00020434F4E54454E54533A0044782020201B
:100200002D20446562756720666C6167732020202D
:1002100020202020202020202020203A203078007C
:100220005A5346202D205361766520466163746FD2
:1002300072792064656661756C7473202846616309
:10024000746F727920757365206F6E6C7929005A0E
:100250004344202D20526573746F726520636F6D67
:1002600070696C656420666163746F72792064657F
:100270006661756C7473005A2020202D20526573BE
:10028000746F726520666163746F7279206465664D
:1002900061756C74730042596E6E2020202D2064AD
:1002A000656C74612063656E74692D566F6C747330
:1002B000206265666F7265207265706F72696E6725
:1002C0002020203A2000290020202020202020204B
:1002D000202020202020202020202020202020201E
:1002E0002020206952656D6E436170616369747985
:1002F0004C696D69743A20002900202020202020BC
:100300002020202848696768205620413244207602
:10031000616C75653A200020562A31303000434820
:100320006E6E6E6E202D2043616C69627261746521
:10033000206869676820766F6C7461676520706FEC
:10034000696E742028562A313030293A200029005D
:10035000202020202020202020284C6F772056208D
:100360004132442076616C75653A200020562A316E
:10037000303000434C6E6E6E6E202D2043616C69F0
:100380006272617465206C6F7720766F6C74616740
:100390006520706F696E742028562A31303029200C
:1003A0003A200054536E6E6E6E202D205368757483
:1003B00020646F776E2061742074686973206D61AA
:1003C0006E79206D696E75746573206C6566742036
:1003D0003A200042446E6E6E6E202D205368757474
:1003E00020446F776E206174206261747465727945
:1003F00020766F6C746167652028562A3130302969
:100400003A200042466E6E6E6E202D20426174745A
:100410006572792046756C6C20436861726765204F
:10042000766F6C74616765202028562A3130302938
:100430003A200042566E202020202D204261742058
:1004400053797374656D20566F6C747320313D3130
:10045000325620323D32345620343D343856202036
:100460003A2000544D6E6E6E6E202D2053797374B9
:10047000656D2064657369676E206361706163698F
:10048000747920696E204D696E7574657320202023
:100490003A20002020202020202020202020202062
:1004A000303D5062416320313D4C692D496F6E20D3
:1004B000323D4C465020333D41474D2020202020E6
:1004C0003A200042436E202020202D204261747487
:1004D000657279204368656D697374727900454E61
:1004E000526E2020202D205768696C6520696E208F
:1004F0004E6F726D616C2072756E206D6F64652039
:1005000020202020202020202020203A2000454E9E
:10051000436E2020202D205768696C6520696E206D
:10052000436F6E666967206D6F6465202020202010
:1005300020202020202020202020203A20002020C1
:100540002028303D4E6F205043207265706F7274CA
:10055000696E672F73687574646F776E2E20313DF6
:10056000456E61626C65642900456E61626C652050
:100570007265706F7274696E672F53687574646FFB
:10058000776E20746F20746F20746865205043204C
:100590000050726573656E742053657474696E677C
:1005A000733A00436F6D70696C65642061743A2022
:1005B00000536D6172742055505320456D756C6108
:1005C000746F722076302E31002320202D20574466
:1005D0006F67205265736574005A55202D2052654F
:1005E00073746F7265205573657220436F6E666910
:1005F00067005A20202D20526573746F7265204663
:100600006163746F72792044656661756C74730000
:100610004843202D2053686F7720436170616369E0
:10062000747920636F6E66696773004850202D20CF
:1006300053686F772048494420506172616D65743A
:10064000657273000A2D2D2D2D4D656E752D2D2D86
:100650002D00203D2043617061636974793A200068
:10066000566F6C74733A20000A0D557365722044FE
:1006700069736368617267652043757276653A00D5
:10068000203D2043617061636974793A2000566FA0
:100690006C74733A20004368617267652043757219
:1006A00076653A00203D2043617061636974793A50
:1006B0002000566F6C74733A20004C6F7744697356
:1006C00063682043757276653A00203D204361706F
:1006D00061636974793A2000566F6C74733A200034
:1006E0004869446973636820436170616369747920
:1006F00020437572766520706F696E74733A006C72
:100700006F5261746544697363684D696E3A200085
:1007100068695261746544697363684D696E3A2013
:100720000069734469734368617267696E67563A1A
:10073000200069734368617267696E67566F6C74F5
:100740003A200073687574646F776E566F6C7461CD
:10075000673A20000A0D2062617446756C6C566F12
:100760006C746167653A000A0D42617420547970B7
:10077000653A20004368656D697374727920436F30
:100780006E666967733A006950726573656E74537B
:1007900074617475732020203A203078006261748F
:1007A000566F6C74616765202020202020203A203D
:1007B0000052454D4E43415041434954594C494DD7
:1007C00049543A200052454D41494E494E47434114
:1007D0005041434954593A200052554E54494D45D1
:1007E000544F454D5054592020203A20004820664F
:1007F0006F722048656C700A005D2E000A556E6BA2
:100800006E6F776E20636F6D6D616E64205B004864
:1008100049445F494E544552464143453A200043BE
:1008200044435F41434D5F494E5445524641434521
:100830003A200042616420636F6D6D616E642E200A
:1008400053686F756C64206265204E4C206F722077
:100850004E4800446562756720466C6167732028C6
:10086000313A4D61696E29000A526573746F726581
:100870006420466163746F72792044656661756CAB
:1008800074732E2E2E0D0A204D75737420646F2004
:1008900027532720746F207361766520746F20457D
:1008A0004550524F4D20286E6F6E2D766F6C6174DF
:1008B000696C65206D656D6F7279292E00446F6ECD
:1008C00065000A464620746F20616C6C20454550D7
:1008D000524F4D2E2E2E000A526573746F7265644E
:1008E000205573657220436F6E6669670A000A536C
:1008F00061766564206E65772076616C7565287316
:100900002920746F20466163746F72792044656694
:1009100061756C740A000A526573746F72656420A5
:10092000436F6D70696C656420466163746F7279A2
:100930002044656661756C747321000A53617665A5
:1009400064206E65772076616C7565287329207444
:100950006F20454550524F4D2E0A004552524F527E
:100960003A204261642042202842617474657279A1
:100970002920636F6D6D616E643A2000562A313014
:1009800030206F662068696768657220766F6C74C6
:1009900061676500562A313030206F66206C6F77B2
:1009A00020766F6C74616765004552524F523A2051
:1009B0004261642054696D6520636F6D6D616E6482
:1009C0003A200053797374656D20436170616369E7
:1009D0007479204D696E757465730053687574641D
:1009E0006F776E206174204D696E75746573204C4D
:1009F000656674004552524F523A2042616420426B
:100A00002028426174746572792920636F6D6D616D
:100A10006E643A20004261742056204879737465F0
:100A20007265736973206265666F726520726570A6
:100A30006F7274696E6700313D31325620323D323B
:100A4000345620343D343856004261742043686582
:100A50006D69737472793A20303D50624163203180
:100A60003D4C692D496F6E20323D4C465020333D40
:100A700041474D0053687574646F776E2061742030
:100A800042617474657279205600426174746572B3
:100A9000792046756C6C204368617267652056004A
:100AA0004552524F523A2042616420454E61626C79
:100AB0006520636F6D6D616E6420636F6D6D616E37
:100AC000643A2000436F6E666967204D6F64653A33
:100AD00020456E61626C65205043205265706F72D4
:100AE00074696E672F53687574646F776E00527502
:100AF0006E20284E6F726D616C29204D6F64653ACF
:100B000020456E61626C65205043205265706F72A3
:100B100074696E672F53687574646F776E000A434B
:100B20006D643A20000A436D643A20005D005D0068
:100B30005B005B006952656D6E436170616369744F
:100B4000794C696D6974204348414E4745442C20D7
:100B50006E6F773A20006952656D6E436170616314
:100B60006974794C696D6974204348414E47454426
:100B70002C206E6F773A2000202849676E6F7265CF
:100B800064290023232050432053657474696E67E1
:100B90002052454D4E43415041434954594C494DD3
:100BA000495420746F20307800202849676E6F7296
:100BB00065642900202849676E6F726564290023E7
:100BC000232050432053657474696E672052454D4D
:100BD0004E43415041434954594C494D4954207466
:100BE0006F203078002323205043205365747469AC
:100BF0006E672052454D4E43415041434954594C34
:100C0000494D495420746F20307800426174562A4F
:100C10003130303A2000426174562A3130303A2067
:100C200000436F6D6D7320776974682050432028EE
:100C30006E65673D626164293A2000436F6D6D7394
:100C4000207769746820504320286E65673D626193
:100C500064293A200053656E64696E673A20005338
:100C6000656E64696E673A2000232053656E736574
:100C7000643A2000232053656E7365643A200000B7
:100C8000000000240027002A002D00300000000092
:100C900000250028002B002E00310000000000235A
:100CA00000260029002C002F00040404040403047F
:100CB00005020202020403020202020606060606FA
:100CC00006040402020204040408020110408040E9
:100CD0001020408040800802040180402010020162
:100CE000108010204040200000000200090F00008A
:100CF000030401000C0000000000000000000000E0
:100D000000000000000073687574646F776E2069DE
:100D10006D6D696E656E740073687574646F776E5F
:100D200020696D6D696E656E740073687574646FAB
:100D3000776E20726571756573746564007368758C
:100D400074646F776E207265717565737465640085
:100D50002C20426174563D002C20426174563D00A7
:100D600053687574646F776E206E6F7721205274AC
:100D70007465207365636F6E64733D0053687574AA
:100D8000646F776E206E6F772120527474652073C4
:100D900065636F6E64733D00070605040100080A71
:100DA0000B0C0D0950524F4752414D4D494E4720B3
:100DB0004552524F523A204D61782076616C7565EC
:100DC000203C3D204D696E2056616C756520666F34
:100DD000722075706461746546726F6D55736572CB
:100DE000496E7075742E2050726F76696465642048
:100DF0006D696E207761733A2000446F6E2774200E
:100E0000666F7267657420746F2028532961766558
:100E100020746865206E65772076616C75652100A9
:100E20003078002073657420746F3A20004E657727
:100E300020003078004F6C642076616C75652077F7
:100E400061733A20002E0A00222076616C756521BC
:100E5000204D696E20697320004572726F723A20CE
:100E6000496E76616C69642022002E0A002076614A
:100E70006C756521204D6178206973200045727280
:100E80006F723A20496E76616C69642000058409AE
:100E900004A1010924A10275089501150026FF008F
:100EA000850109FE7902B123850209FF7903B12387
:100EB000850309FD7901B12305858506098BB123D9
:100EC000851F09897904B1238520098F7905B1230C
:100ED0008516092CB1238510098D266400B1228561
:100EE00018098EB123850E0967B18385170983B16F
:100EF00083850C096681A30966B1A3850F098CB1AE
:100F0000A285110929B1A285090985751027FFFF5E
:100F10000000B1A3851A096A27FFFF0000660110CF
:100F20005500B1A3851C096981A30969B1A3850D89
:100F3000096881A30968B1A38508092A7510276487
:100F40000500001678008122092AB1A205848512C5
:100F5000095716008027FF7F0000B1A285130955AD
:100F6000B1A2850A0940150027FFFF00006721D1C3
:100F7000F0005505B123850B093081A30930B1A3D9
:100F80008514095A7508150125036500550081224D
:100F9000095AB1A20902A102850705850944750114
:100FA0001500250181A30944B1A3094581A3094581
:100FB000B1A309D081A309D0B1A309D181A309D1DB
:100FC000B1A3094281A30942B1A3094381A2094304
:100FD000B1A2094B81A3094BB1A309DB81A309DBB2
:100FE000B1A3094681A30946B1A3094781A30947D3
:100FF000B1A30584096881A20968B1A2096981A326
:101000000969B1A3097381A30973B1A3096581A318
:101010000965B1A395028101B101C0C0C0005E2184
:1010200011241FBECFEFDAE0DEBFCDBF13E0A0E09A
:10103000B1E0E2EFF8E602C005900D92A033B107EF
:10104000D9F726E0A0E3B3E001C01D92A73CB207A8
:10105000E1F718E0C0E1D8E004C02197FE010E944A
:101060007732CF30D107C9F70E9448220C947734E9
:101070000C940000EDE9FDE0E49190917B008E2F4F
:10108000880F880F80729F7D892B80937B00E7708B
:10109000E064E0937C0080917A00806480937A0021
:1010A00080917A0086FDFCCF809178009091790044
:1010B0000895FC0180911204882311F13FB7F89440
:1010C00082E08093E9002091F200822F90E01816D0
:1010D000190614F481E090E0882339F0289844E65A
:1010E000409311044091F1004083222339F0209174
:1010F000F200211103C02BE62093E8003FBF0895C2
:101100008FEF9FEF089583E08093E9008091F200D4
:10111000882319F08AE38093E800089581508F3086
:1011200008F047C0E82FF0E0E856F74F0C9477320C
:10113000B508B908A708AD08B108D908D908D90871
:10114000BC08C208C608CA08D008D908D4088091CB
:1011500080008F77809380000895809180008F7D3C
:10116000F9CF80918000877FF5CF84B58F7784BDDC
:10117000089584B58F7DFBCF809190008F77809309
:1011800090000895809190008F7DF9CF809190001C
:10119000877FF5CF8091C0008F778093C00008953E
:1011A0008091C0008F7DF9CF8091C200877F8093AE
:1011B000C2000895CF93DF93E9EEFCE08491EAEC5E
:1011C000FCE0D491EBEAFCE0C491CC23A1F08111C6
:1011D0000E948E08EC2FF0E0EE0FFF1FE556F34F54
:1011E000A591B491EC91ED2381E090E009F480E0C9
:1011F000DF91CF91089580E090E0FACF1F93CF93D5
:10120000DF93282F30E0F901E951F34F8491F90180
:10121000E853F34FD491F901E755F34FC491CC2330
:10122000A9F0162F81110E948E08EC2FF0E0EE0F2E
:10123000FF1FE357F34FA591B4918FB7F894EC914A
:10124000111108C0D095DE23DC938FBFDF91CF91C1
:101250001F910895DE2BF8CFCF93DF9390E0FC0130
:10126000E853F34F24918755934FFC0184918823D1
:10127000C9F090E0880F991FFC01E158F34FA59148
:10128000B491FC01E357F34FC591D49161110DC0A6
:101290009FB7F8948C91209582238C938881282382
:1012A00028839FBFDF91CF910895623051F49FB79B
:1012B000F8943C91822F809583238C93E8812E2B88
:1012C000EFCF8FB7F894EC912E2B2C938FBFEACFF2
:1012D0003FB7F89480910D0490910E04A0910F04F3
:1012E000B091100426B5A89B05C02F3F19F00196B8
:1012F000A11DB11D3FBFBA2FA92F982F8827BC0170
:10130000CD01620F711D811D911D42E0660F771F97
:10131000881F991F4A95D1F708958F929F92AF9297
:10132000BF92CF92DF92EF92FF924B015C010E943D
:1013300068096B017C010E9468096C197D098E099E
:101340009F09683E734081059105A8F321E0821A48
:101350009108A108B10888EEC80E83E0D81EE11CF0
:10136000F11C81149104A104B10429F7FF90EF90BE
:10137000DF90CF90BF90AF909F908F9008952FB740
:10138000F8946091090470910A0480910B04909183
:101390000C042FBF08954F925F926F927F928F92AD
:1013A0009F92AF92BF92CF92DF92EF92FF922091E5
:1013B000B8062223D1F18091B7068823D9F189E4B8
:1013C00096E02223A1F12091B706E9E4F6E022237A
:1013D00071F10190F081E02D0680F781E02D0995F3
:1013E0000E94BF092B013C01C12CD12C7601812C1C
:1013F000912C54010E94BF09641975098609970947
:101400006536710581059105C0F00E943A08092EE4
:10141000000CAA0BBB0B880E991EAA1EBB1E8FEFD9
:10142000C81AD80AE80AF80AE5CF8CEA95E0ECEA8F
:10143000F5E0CFCF8CEA95E0C4CFC114D104E1042C
:10144000F10471F4FF90EF90DF90CF90BF90AF90D8
:101450009F908F907F906F905F904F900C943A0880
:10146000C501B401A70196010E94E531C901FF90B1
:10147000EF90DF90CF90BF90AF909F908F907F9034
:101480006F905F904F900895EF92FF920F931F938C
:10149000CF93DF938C017B01D0E0C0E0F701EC0F2C
:1014A000FD1F6491662361F0D801ED91FC910190DC
:1014B000F081E02DC8010995892B11F02196EECF1E
:1014C000CE01DF91CF911F910F91FF90EF90089582
:1014D000AF92BF92CF92DF92EF92FF920F931F9342
:1014E000CF93DF936C017B018B01040F151FEB0180
:1014F0005E01AE18BF08C017D10759F06991D60137
:10150000ED91FC910190F081E02DC6010995892BA8
:1015100079F7C501DF91CF911F910F91FF90EF9067
:10152000DF90CF90BF90AF900895FC01538D448D14
:10153000252F30E0842F90E0821B930B541710F07E
:10154000CF96089501970895FC01918D828D98178B
:1015500061F0A28DAE0FBF2FB11D5D968C91928D63
:101560009F5F9F73928F90E008958FEF9FEF089594
:10157000FC01918D828D981731F0828DE80FF11D5D
:10158000858D90E008958FEF9FEF0895FC01918D78
:10159000228D892F90E0805C9F4F821B91098F7371
:1015A000992708958CEA95E00E94C60A21E0892BCC
:1015B00009F420E0822F0895FC01A48DA80FB92F13
:1015C000B11DA35ABF4F2C91848D90E001968F736B
:1015D0009927848FA689B7892C93A089B1898C918A
:1015E00082748C93938D848D981306C00288F3893E
:1015F000E02D80818F7D80830895EF92FF920F937D
:101600001F93CF93DF93EC0181E0888F9B8D8C8DAE
:10161000981319C0E889F989808185FF14C09FB7A4
:10162000F894EE89FF896083E889F9898081827462
:1016300080839FBF81E090E0DF91CF911F910F9158
:10164000FF90EF900895F62E0B8D10E00F5F1F4F67
:101650000F731127E02E8C8D8E110CC00FB607FC76
:10166000FACFE889F989808185FFF5CFCE010E9404
:10167000DC0AF1CFEB8DEC0FFD2FF11DE35AFF4F8C
:10168000F0829FB7F8940B8FEA89FB898081806292
:10169000CFCFCF93DF93EC01888D8823B9F0AA894F
:1016A000BB89E889F9898C9185FD03C0808186FD1D
:1016B0000DC00FB607FCF7CF8C9185FFF2CF80816C
:1016C00085FFEDCFCE010E94DC0AE9CFDF91CF91FB
:1016D000089580E090E0892B29F00E94D20A8111C0
:1016E0000C94000008952091BE03260F3327331F6A
:1016F00021323105ECF42091E203FC0190E080E01E
:10170000243069F082E00895A091BE032191AC01DC
:1017100042565C4FA40FB52FB11D2C93019686172E
:1017200098F38091BE03680F6093BE0380E0089534
:1017300081E0089508958FEF9FEF08958FEF9FEF59
:1017400008958091970390E091958195910908956E
:10175000CF93DF93CB01EA01642F0E94730BCE017C
:10176000DF91CF910895CF93DF931F92CDB7DEB76E
:10177000698361E0CE0101960E94730B81E090E0E5
:101780000F90DF91CF91089590E080E008950F933E
:101790001F93CF93DF93EC010E94BF090881198149
:1017A0002A813B81601B710B820B930B0C811D8185
:1017B0002E813F81061717072807390730F48885DF
:1017C000882319F0188681E08987DF91CF911F91D6
:1017D0000F910895DC015296ED91FC9130E020E0EC
:1017E0003097A1F0DC0154964D915C912417350798
:1017F00058F4428153814617570741F00190F08118
:10180000E02D2F5F3F4FECCFF0E0E0E0CF010895F7
:101810000C94830840913E0350913F0320913C0378
:1018200030913D0342175307B4F49091E80095704E
:10183000E1F39091E80092FD19C08093F10080914E
:101840003E0390913F0301968F739927892B19F4DA
:101850008EEF8093E80080913E0390913F030196C4
:1018600090933F0380933E0381E0089580E00895C4
:10187000DF92EF92FF920F931F93CF93DF93D82EB7
:101880008A01EB017B01E40EF51ECE15DF0559F050
:10189000D7FE12C0FE0184910E940A0C219681118C
:1018A000F4CF0FEF1FEFC801DF91CF911F910F9180
:1018B000FF90EF90DF9008958881EECFCF93DF9374
:1018C000CDB7DEB7A0970FB6F894DEBF0FBECDBF81
:1018D000FC01DB018C918F5F8C939E012D5F3F4F4C
:1018E00088E0D9011D928A95E9F799E0998384E00F
:1018F0008A8322E02D8383E08E839A8731E23B87BF
:1019000091E09C879D873E879F8792E2988B37E086
:101910003B8B95E09C8B44E84D8B8E8B40E450E0F4
:10192000588F4F8B64E1698F3A8F9B8F9C8F8D8F7F
:101930005F8F4E8F8AE088A382818B83968587850F
:10194000998B8A8B8091B806811103C081E88D8BB9
:101950002C8F40E250E0BE016F5F7F4F80E00E941D
:10196000380CA0960FB6F894DEBF0FBECDBFDF9146
:10197000CF9108952FB7F89487708093E9009091E4
:10198000E800892F807295FF04C09091F20080E4F6
:10199000891B2FBF08958F929F92AF92BF92CF92D3
:1019A000DF92EF92FF920F931F93CF93DF93B82EA6
:1019B0006B018A018091120481110FC08FEF9FEF9C
:1019C000DF91CF911F910F91FF90EF90DF90CF901B
:1019D000BF90AF909F908F9008958091420380FFB9
:1019E00005C08091E00082608093E000C02FD12F7D
:1019F000F12C8AEFE82E8B2D8770982E8B2D80741A
:101A0000882E9AE3A92E209719F4FF2009F443C0E9
:101A10008B2D0E94BA0C81110AC0EA94EE2071F25B
:101A200061E070E080E090E00E948D09ECCF8C17BF
:101A30001D0611F00CF08C2F9FB7F8949092E900DE
:101A40002091E80025FD02C09FBFDDCF282F30E0A8
:101A5000C21BD30BF601815020F041914093F1005D
:101A6000FACFC20ED31EFF2021F0A092E800F12C85
:101A7000EBCF8091E80085FD07C0A092E800FF242D
:101A8000F394209709F3F3CF2097F1F68820E1F241
:101A9000A092E800D9CF5D9884E680934103C80105
:101AA0008FCF615030F02091F100FC01208301962E
:101AB000F8CF289884E6809311040895AF92BF92DE
:101AC000DF92EF92FF920F931F93CF93DF935C010E
:101AD0008B01EB019BEFD92E2097C1F07E01C13421
:101AE000D1051CF080E4E82EF12C8091E80082FF03
:101AF000FCCFC8018C1B9D0B6E2D8A0D9B1D0E9477
:101B0000510DD092E800CE19DF09E6CFC801DF9170
:101B1000CF911F910F91FF90EF90DF90BF90AF900A
:101B200008958091340381110DC082E080933003C9
:101B300084E080933103109233031092320381E0EA
:101B40008093340380E393E00895CF93DF938091F3
:101B50008D03811172C082E08093770381E08093CE
:101B600078032DE733E030937A03209379031092C2
:101B70007C0310927B032AE132E0309374032093BC
:101B800073031092800310927F03109282031092CD
:101B90008103809383038093840381EC80937D038E
:101BA00080EC80937E030E94910DEC0189819091DD
:101BB0007703890F9927991F0897E4F5EA81FB813C
:101BC000309779F583E793E09B838A8362E082E034
:101BD0000E942C098091B806811137C00E94DA0852
:101BE000892B81F110927503109276038881909170
:101BF0007803890F88833091770390917903E92FD7
:101C0000F0917A038E2F891B8317A0F4898121918B
:101C1000A82FB0E0A359BE4F2C938F5F8983F2CFDA
:101C2000FC01808591850097D9F783E793E0918740
:101C30008087CCCF81E080938D0383E793E0DF91B1
:101C4000CF91089581E08093B80682E08093750378
:101C500084E080937603CACFCF92DF92EF92FF9217
:101C60000F931F93CF93DF9300D0CDB7DEB78C01D6
:101C70007B016A010E94A50D1A83098341E050E0AF
:101C8000BE016F5F7F4F84E00E94CB0C8C0197FDFB
:101C900009C0A601B70184E40E94CB0C080F191FEC
:101CA00097FD8C01C8010F900F90DF91CF911F918C
:101CB0000F91FF90EF90DF90CF9008950F931F93B7
:101CC000CF93DF931F92CDB7DEB719828091B8060C
:101CD000882349F082E0898342E450E060E071E0CB
:101CE00080E00E94380C0E94910DDC0112960D914B
:101CF0001C910115110589F0D801ED91FC9102802C
:101D0000F381E02DBE016F5F7F4FC801099597FDFC
:101D100004C0F80100851185ECCF89810F90DF9117
:101D2000CF911F910F910895CF93DF93EC01809194
:101D30005F01882331F083E00E94CB0C181619064E
:101D400034F081E090E09B838A8380E090E0DF9133
:101D5000CF910895CF93DF931F92CDB7DEB76983FC
:101D6000DC01ED91FC910280F381E02D41E050E037
:101D7000BE016F5F7F4F09950F90DF91CF9108955E
:101D800083E00E94BA0C90E00895CF93DF931F92F6
:101D9000CDB7DEB7FC018485958597FD08C02FEF90
:101DA0003FEF358724870F90DF91CF910895CE01C3
:101DB00001960E945908019719F4898190E0F3CFA8
:101DC0008FEF9FEFF0CF0F931F93CF93DF931F926F
:101DD000CDB7DEB78C01FC018485958597FF0BC0DC
:101DE000CE0101960E945908019771F4898190E013
:101DF000F80195878487F801848595850F90DF9198
:101E0000CF911F910F9108958FEF9FEFF1CFFC01BC
:101E10008485958597FD0BC09FB7F89482E08093E9
:101E2000E9008091F2009FBF90E0019608959FB76E
:101E3000F89482E08093E9008091F2009FBF90E0E7
:101E400008954F925F926F927F928F929F92AF927E
:101E5000BF92CF92DF92EF92FF920F931F93CF9397
:101E6000DF93409122045091230421E4429FC0015A
:101E70001124865E9B4FFC01EB5AFF4F208131817C
:101E8000895A9F4FFC0180809180C0908805D09036
:101E9000890580E29DEFF9E3CF16F4E0DF0630F428
:101EA0006CE36C9DC0016D9D900D112490931F04F7
:101EB00080931E0481E4849FE001859FD00D11244E
:101EC000C65EDB4F08E715E0C901B0E0A0E0F12CE9
:101ED000E12CC81AD90AEA0AFB0AB12CA12C881AEB
:101EE000990AAA0ABB0A498C5A8C712C612C29A523
:101EF0003AA550E040E02419350946095709C701C1
:101F0000B6010E94C131A50194010E940732420E20
:101F1000531E641E751EF801518240824B8C5C8CEE
:101F2000712C612C2BA53CA550E040E0241935090B
:101F300046095709C701B6010E94C131A5019401A4
:101F40000E940732420E531E641E751EF801538212
:101F5000428224960C5F1F4FF5E008381F0719F6E0
:101F6000DF91CF911F910F91FF90EF90DF90CF9075
:101F7000BF90AF909F908F907F906F905F904F90A9
:101F800008958F929F92AF92BF92CF92DF92EF927D
:101F9000FF920F931F93CF93DF93DC01EB018C81B2
:101FA0009D8120E0A817B90738F08885998521E040
:101FB000A817B90708F022E030E02F5F3F4F220F4B
:101FC000331F220F331FFE01E20FF31F245031098C
:101FD000C20FD31FCA80DB80F12CE12C888099804E
:101FE000B12CA12C0281138130E020E0A9019801DD
:101FF0002C193D094E095F09BD0190E080E0681988
:1020000079098A099B090E94C1312081318150E000
:1020100040E0281939094A095B090E940732C20EBB
:10202000D31EE41EF51EC601D7FC14C096018536EA
:10203000910514F024E630E0822FDF91CF911F91BB
:102040000F91FF90EF90DF90CF90BF90AF909F9057
:102050008F90089580E0F1CF0F931F93CF93DF937C
:10206000CAE1D4E08C010A511440C8018C0F9D1FB5
:102070000E94AB31899385E0CD38D807B1F78AE16A
:1020800094E0DF91CF911F910F910895AF92BF928D
:10209000DF92EF92FF920F931F93CF93DF935C0138
:1020A0000AE114E0D0E0C0E0F801D1908F017501A1
:1020B000EC0EFD1EC7010E94AB31D81621F06D2D2C
:1020C000C7010E94B3312196C337F1E0DF0761F702
:1020D0008AE194E0DF91CF911F910F91FF90EF90F3
:1020E000DF90BF90AF900895FB0101900020E9F7C9
:1020F0003197AF01461B570BDC01ED91FC9102803B
:10210000F381E02D09948F929F92AF92BF92EF924C
:10211000FF920F931F93CF93DF93CDB7DEB7A197B5
:102120000FB6F894DEBF0FBECDBF7C01FA01CB0124
:1021300019A2223008F42AE08E010F5D1F4F822E73
:10214000912CB12CA12CBF01A50194010E94E53175
:10215000F901CA016A300CF5605DD8016E938D01FA
:10216000232B242B252B79F790E080E0109721F08A
:10217000BD01C7010E947410A1960FB6F894DEBF8E
:102180000FBECDBFDF91CF911F910F91FF90EF90C8
:10219000BF90AF909F908F900895695CDECFCF92F3
:1021A000DF92EF92FF920F931F93CF93DF936B0118
:1021B000770FEE08FF08F7FE1FC0EC01E881F981F8
:1021C0000190F081E02D6DE209958C01442755279F
:1021D000BA014C195D096E097F092AE0CE010E94FF
:1021E0008310800F911FDF91CF911F910F91FF906E
:1021F000EF90DF90CF9008952AE0B701A601DF911C
:10220000CF911F910F91FF90EF90DF90CF900C94A2
:1022100083100C9483109A01AB0170E060E00C9481
:1022200009119A01462F50E070E060E00C9409110A
:102230008F929F92AF92BF92CF92DF92EF92FF92D6
:102240000F931F93CF93DF937C01EB016C0182E02E
:10225000C80ED11C4701E5E08E0E911C10E000E095
:10226000F60161916F014AE050E0CE010E94111128
:102270005C01E881F9810190F081E02D6EE2CE01F0
:1022800009958A0D9B1D080F191FC814D90441F721
:102290004AE050E0F7016581CE010E941111800FE4
:1022A000911FDF91CF911F910F91FF90EF90DF90E1
:1022B000CF90BF90AF909F908F9008956CE472E0A4
:1022C0000C9474100F931F93CF93DF93EC010E9433
:1022D000CF108C01CE010E945E11800F911FDF9103
:1022E000CF911F910F9108950F931F93CF93DF9379
:1022F000EC010E940B118C01CE010E945E11800F37
:10230000911FDF91CF911F910F9108950F931F930C
:10231000CF93DF93EC010E9411118C01CE010E943A
:102320005E11800F911FDF91CF911F910F91089542
:102330000F931F93CF93DF93EC010E9474108C01D5
:10234000CE010E945E11800F911FDF91CF911F91EE
:102350000F9108950F931F93CF93DF93EC01FB012F
:102360004481558160817181E881F9810280F38126
:10237000E02D09958C01CE010E945E11800F911F06
:10238000DF91CF911F910F9108950F931F93CF93DA
:10239000DF93EC010E94440A8C01CE010E945E1181
:1023A000800F911FDF91CF911F910F9108958F9210
:1023B0009F92AF92BF92CF92DF92EF92FF920F93D4
:1023C0001F93CF93DF930E94CB09C0902D04D09030
:1023D0002E04F12CE12C80902B0490902C04B12C35
:1023E000A12C209131043091320450E040E02C19AE
:1023F0003D094E095F09BC01990F880B990B6819BB
:1024000079098A099B090E94C13120912F043091DA
:10241000300450E040E0281939094A095B090E945C
:102420000732C20ED31EE41EF51ED7FC73C1D09234
:102430008101C0928001C0918001D0918101809181
:102440007F01882351F0D0931804C0931704D093D0
:102450007E01C0937D0110927F012091170430917D
:102460001804C9018C1B9D0B97FF03C091958195A2
:10247000910940912504481719067CF481E02C1736
:102480003D070CF080E080931604D0931804C093AD
:102490001704D0937E01C0937D0100912204109116
:1024A000230421E4209FC001219F900D1124865E0A
:1024B0009B4FFC01E15BFF4F208131812C173D07D1
:1024C0000CF02DC181E080931604E0901604E09298
:1024D0007501E092740181E0FE2CF826F09213045D
:1024E00080917D0190917E0168E775E0EE2041F0DA
:1024F00021E4209FB001219F700D11246D5A7B4F64
:102500000E94C10F80937C01D0907C01A09188052E
:10251000B09189052D2D30E00E9468329B01AC01FD
:102520002434F6EA3F07F1E04F07510508F403C1F0
:1025300080E29DEF90937B0180937A018091140457
:1025400090911504EE2009F405C18560909315045F
:1025500080931404809114049091150420917901C2
:10256000D212FAC091609093150480931404809164
:10257000140490911504FF2009F403C19C0122600A
:1025800030931504209314044091200450912104A9
:1025900020917A0130917B012417350770F021E4F6
:1025A000209FF001219FF00D1124E959FB4F20815C
:1025B0003181C217D3070CF0E1C08091B80688239F
:1025C00009F4CCC08091B706882309F4C7C06CE732
:1025D0007DE089E496E00E94440A60917A0170915E
:1025E0007B018091B8064AE050E0882309F4BBC023
:1025F0008091B706882309F4B6C089E496E00E946A
:102600000B118091B806882309F4B0C08091B706F9
:10261000882309F4ABC068E57DE089E496E00E9478
:10262000440A60918001709181018091B8068823ED
:1026300009F4A1C08091B706882309F49CC089E4FD
:1026400096E00E94621180911404909115048062BA
:1026500090931504809314048091140490911504B0
:102660002091770130917801121613060CF090C07A
:1026700094609093150480931404809176018823CC
:1026800081F08091B806882309F47DC08091B70657
:10269000882309F478C06DE37DE089E496E00E9428
:1026A000C51180911404909115049C01207234701E
:1026B000232B09F478C09860909315048093140438
:1026C00080917601882381F08091B806882309F4EF
:1026D00065C08091B706882309F460C068E17DE099
:1026E00089E496E00E94C51180911404909115042C
:1026F00088609093150480931404DF91CF911F910B
:102700000F91FF90EF90DF90CF90BF90AF909F9090
:102710008F90089510928101109280018CCE8F5A73
:102720009F4FFC0180819181C817D9070CF0CDCE55
:1027300010921604CACEACE3B0E00E94263224E622
:1027400030E040E050E00E94E53130937B0120937F
:102750007A01F4CE8A7FFACE9E7F05CF60E67DE0D7
:102760008CEA95E038CF8CEA95E049CF60E57DE0D2
:102770008CEA95E054CF8CEA95E063CF8F7D826040
:1027800067CF8D7D65CF6AE27DE08CEA95E087CFEB
:102790009B7F909315048093140483CF66E07DE0C3
:1027A0008CEA95E09FCF977F909315048093140453
:1027B0009BCF2F923F924F925F926F927F928F9218
:1027C0009F92AF92BF92CF92DF92EF92FF920F93C0
:1027D0001F93CF93DF9310928A058AEA80931A049D
:1027E00085E580931B0481E095EA90938C058093A6
:1027F0008B05C0E2DCE1D0931D04C0931C04D09390
:102800001F04C0931E048CE291E0909321048093F6
:10281000200483E090E0909323048093220481E0DD
:102820008093240488E08093250488E095E09093C9
:1028300064048093630462EE74E0709366046093B2
:10284000650424E734E03093680420936704909390
:102850006A048093690422E934E030936C04209385
:102860006B04D0936E04C0936D04109273044AE815
:1028700054E0509334044093330410923604109281
:10288000350430933804209337044AE050E05093E5
:102890003A04409339042EEF34E030933C04209303
:1028A0003B042AE530E030933E0420933D049093AE
:1028B000400480933F0484E690E090934204809328
:1028C0004104ECEBF4E0F0934404E09343041092F1
:1028D000460410924504E4ECF4E0F0934804E093DD
:1028E000470450934A0440934904E0E3F5E0F09331
:1028F0004C04E0934B0430934E0420934D04EAE3E0
:10290000F5E0F0935004E0934F04909352048093C9
:102910005104EEEEF4E0F0935404E093530410926B
:10292000560410925504E6EFF4E0F0935804E09357
:10293000570450935A0440935904E2E6F5E0F093AB
:102940005C04E0935B0430935E0420935D042CE60A
:1029500035E03093600420935F0490936204809389
:1029600061040FE010E01093700400936F0428E7F7
:10297000A22EB12CB0927204A092710421E4E4EC76
:10298000F1E0A6EFB4E001900D922A95E1F7A0E501
:10299000B5E0B093A504A093A4047093A70460933A
:1029A000A60438ED832E34E0932E9092A9048092F1
:1029B000A804E5E56E2EE5E07E2E7092AB046092F1
:1029C000AA04E0EBF4E0F093AD04E093AC04D09300
:1029D000AF04C093AE041092B40428EE422E23E05C
:1029E000522E509275044092740410927704109203
:1029F0007604F0937904E093780450937B04409339
:102A00007A0420E035E030937D0420937C0424E1B7
:102A100030E030937F0420937E04B0938104A09330
:102A2000800490938304809382040F2EFAE12F2E6A
:102A3000F4E03F2EF02D3092850420928404109211
:102A400087041092860470938904609388045093DD
:102A50008B0440938A040F2EF2E3CF2EF5E0DF2E95
:102A6000F02DD0928D04C0928C0430938F0420936B
:102A70008E040F2EF2E8CF2EF5E0DF2EF02DD0924F
:102A80009104C092900490939304809392040F2E2B
:102A9000FCE4CF2EF4E0DF2EF02DD0929504C0920E
:102AA000940410929704109296040F2EF4E1EF2EE6
:102AB000F5E0FF2EF02DF0929904E09298045093E7
:102AC0009B0440939A0444E655E050939D04409340
:102AD0009C0430939F0420939E0444EB55E0509354
:102AE000A1044093A0049093A3048093A2041093A4
:102AF000B1040093B004B092B304A092B204B093B6
:102B0000E604A093E5047093E8046093E7049092D0
:102B1000EA048092E9047092EC046092EB04F09372
:102B2000EE04E093ED04D093F004C093EF04109210
:102B3000F5045092B6044092B5041092B804109275
:102B4000B704F093BA04E093B90449E050E050931D
:102B5000BC044093BB04EAE0F5E0F093BE04E093CC
:102B6000BD043093C0042093BF04E6E4F5E0F09385
:102B7000C204E093C1049093C4048093C3043092D0
:102B8000C6042092C5041092C8041092C704709322
:102B9000CA046093C9045093CC044093CB046CE303
:102BA00075E07093CE046093CD043093D0042093ED
:102BB000CF0468E775E07093D2046093D1049093DA
:102BC000D4048093D304D092D604C092D50410923A
:102BD000D8041092D704F092DA04E092D90450930A
:102BE000DC044093DB044EE655E05093DE04409352
:102BF000DD043093E0042093DF042AEA35E03093CB
:102C0000E2042093E1049093E4048093E30410939E
:102C1000F2040093F104B092F404A092F30481E46E
:102C2000E6EFF4E0A7E3B5E001900D928A95E1F7B5
:102C300010922E0410922D0410922C0410922B044A
:102C400070933204609331048FEF93E090933004DB
:102C500080932F048CE390E09093890580938805FE
:102C60000E94210F8AE08093260485E08093280447
:102C70001092290481E080932A0480918A05982F7C
:102C8000917090937601869581708093650368E0DA
:102C900071E08CEA95E00E94C5118091B806882306
:102CA00011F1C0915F016AE070E080E090E00E9465
:102CB0008D09CC23C1F06DEE70E089E496E0DF91E0
:102CC000CF911F910F91FF90EF90DF90CF90BF9029
:102CD000AF909F908F907F906F905F904F903F90BC
:102CE0002F900C94C511DF91CF911F910F91FF9000
:102CF000EF90DF90CF90BF90AF909F908F907F909C
:102D00006F905F904F903F902F90089561157105DF
:102D100011F00C94741090E080E00895AF92BF928F
:102D2000CF92DF92EF92FF920F931F93CF93DF9397
:102D3000EC01B62E6A0179016BED70E00E94440A45
:102D40004AE050E06B2DCE010E94111167ED70E05A
:102D5000CE010E94440AC6016CE370E00E94D131AA
:102D60006C014AE050E0CE010E940B1165ED70E06D
:102D7000CE010E94440A4AE050E0B601CE010E9412
:102D80000B1163EC70E0CE010E94440A6091800157
:102D900070918101CE010E94CF106AEB70E0CE01EC
:102DA0000E94440A4AE050E0B701CE010E940B1194
:102DB0006CEA70E0CE010E94440A40E150E0B801A4
:102DC000CE010E940B118CEAC82E81E0D82EF12C86
:102DD000E12CAA24A394B12CC5010E2C02C0880FAB
:102DE000991F0A94E2F780239123892B59F08BE0F5
:102DF0006FE472E08E1518F0F60160817181CE01EA
:102E00000E948616FFEFEF1AFF0A82E0C80ED11C5F
:102E1000EFE0EE16F10401F7CE010E945E11E881A9
:102E2000F9810680F781E02DCE01DF91CF911F91CE
:102E30000F91FF90EF90DF90CF90BF90AF900994EB
:102E4000BF92CF92DF92EF92FF920F931F93CF9397
:102E5000DF93DC01EB0158968D919C915997892B5A
:102E6000B9F08D01B12CCB2CD12CF801E08CF18C78
:102E7000C7010E946A31C816D90610F5F701EC0D9A
:102E8000FD1DE491DE01AC0DBD1DEC93B394EBCFC1
:102E900088E4888389E4898384E48A831E968C91FC
:102EA0001E978F708F5B8B831E968D919C9124E073
:102EB000969587952A95E1F78F708F5B8C8385E0D7
:102EC000DF91CF911F910F91FF90EF90DF90CF9006
:102ED000BF900895CF92DF92EF92FF920F931F93CE
:102EE000CF93DF9300D0CDB7DEB77C01FB01138118
:102EF000133009F046C0628170E07F6F0E94EA0BD8
:102F0000009709F46AC0DC011496FC90149715969A
:102F1000DC908F2D9D2D0E946A31E82E1A8381E06E
:102F20008E0D880F898342E050E0BE016F5F7F4FB6
:102F300080E00E94380CCF2C0F2D1D2D802F8C1976
:102F40008E15E8F4F801849189831A8242E050E0FA
:102F5000BE016F5F7F4F80E00E94380C0F5F1F4FF4
:102F6000892B61F780E090E00F900F90DF91CF9177
:102F70001F910F91FF90EF90DF90CF90089581E027
:102F8000F2CF8081813849F5123239F5D701129696
:102F90002C9112978481958128171906F1F41C96BB
:102FA0000D911C91D12CC12C0115110589F0F8014E
:102FB000448155816281738180E80E94380C8F3F83
:102FC000980791F2C80ED91ED8010D911C91ECCF33
:102FD00081E0F701808BC601C7CF90E080E0C4CFCD
:102FE0000F931F93CF93DF93EC0188819981009712
:102FF00059F02A813B812617370730F081E0DF91B5
:10300000CF911F910F9108958B016F5F7F4F0E94A9
:10301000A233009759F0998388831B830A832C81FC
:103020003D81232B59F7FC011082E8CF80E0E7CFE8
:10303000CF93DF93EC0188819981009711F00E9472
:103040001933198218821D821C821B821A82DF9119
:10305000CF910895EF92FF920F931F93CF93DF9339
:10306000EC018B01CB010E946A317C01BC01CE01D5
:103070000E94F01781110BC0CE010E941818CE01DA
:10308000DF91CF911F910F91FF90EF900895FD82F6
:10309000EC82B801888199810E946331F0CFEF9270
:1030A000FF920F931F93CF93DF93EC017B018A0173
:1030B000BA010E94F01781110BC0CE010E941818AE
:1030C000CE01DF91CF911F910F91FF90EF90089566
:1030D0001D830C83B701888199810E947034F0CFE1
:1030E000FC0180819181009711F00C9419330895AF
:1030F000EF92FF920F931F93CF93DF93CDB7DEB77D
:1031000061970FB6F894DEBF0FBECDBF8C01CB0127
:10311000F80111821082138212821582148250E00B
:103120009E012F5F3F4F7901B9010E947331F70172
:1031300001900020E9F73197AF014E195F09B701FF
:10314000C8010E944F1861960FB6F894DEBF0FBEFB
:10315000CDBFDF91CF911F910F91FF90EF90089518
:10316000EF92FF920F931F93CF93DF93CDB7DEB70C
:1031700029970FB6F894DEBF0FBECDBF8C01862F06
:10318000F80111821082138212821582148250E09B
:103190009E012F5F3F4F7901B90190E00E9473318A
:1031A000F70101900020E9F73197AF014E195F094F
:1031B000B701C8010E944F1829960FB6F894DEBFD8
:1031C0000FBECDBFDF91CF911F910F91FF90EF9078
:1031D00008952F923F924F925F926F927F928F92BB
:1031E0009F92AF92BF92CF92DF92EF92FF920F9396
:1031F0001F93CF93DF93CDB7DEB728970FB6F89420
:10320000DEBF0FBECDBFE0E15E2EA11002C03AE0EE
:10321000532EFB01608171816D30710521F06A30A0
:10322000710509F0EEC0AF821701380128877A01D5
:10323000A52CB12CA50170E060E001960E944330FE
:10324000462E062F172F8091B9069091BA06E016E8
:10325000F10608F040C06DE77EE00E94440AB60126
:103260008091B9069091BA060E9486166DE67EE0BE
:103270008091B9069091BA060E94440A4AE050E053
:10328000B7018091B9069091BA060E940B116AE6C7
:103290007EE08091B9069091BA060E94C51180E047
:1032A0001092190428960FB6F894DEBF0FBECDBF5A
:1032B000DF91CF911F910F91FF90EF90DF90CF9012
:1032C000BF90AF909F908F907F906F905F904F9046
:1032D0003F902F90089508151905F8F469E57EE0F0
:1032E0000E94440AB6018091B9069091BA060E94E4
:1032F000861668E47EE08091B9069091BA060E9435
:10330000440A4AE050E0B4018091B9069091BA06AF
:103310000E940B1165E47EE0BCCF65E37EE00E9475
:10332000440AFF81FF2341F062E37EE08091B90609
:103330009091BA060E94440AE090B906F090BA064D
:103340008885882309F447C0452DF3016081CE01AB
:1033500001960E94B018BE016F5F7F4FC7010E94A7
:10336000AA11CE0101960E947018F30140826DE20D
:103370007EE08091B9069091BA060E94440AB60197
:103380008091B9069091BA060E94861663E27EE0AB
:103390008091B9069091BA060E94440AFF81FF23EA
:1033A00041F060E27EE08091B9069091BA060E94F9
:1033B000440AA501B8018091B9069091BA060E940D
:1033C00074116AEF7DE08091B9069091BA060E946F
:1033D000C51181E065CFF10160817181452DCE017C
:1033E00001960E947818BE016F5F7F4FC7010E944F
:1033F000AA11CE0101960E947018F1011183008379
:10340000B6CF80E04FCF2F923F924F925F926F9254
:103410007F928F929F92AF92CF92DF92EF92FF9224
:103420000F931F93CF93DF93CDB7DEB729970FB6D6
:10343000F894DEBF0FBECDBF3C012B0159874887F2
:103440001901B8011A8219821C821B821E821D82F8
:10345000CE0101960E942A18C980DA804701A12C6A
:1034600071018E01095F1F4F20E048855985B20127
:10347000C3010E94E918782ECE0101960E947018AF
:10348000872D29960FB6F894DEBF0FBECDBFDF9112
:10349000CF911F910F91FF90EF90DF90CF90AF9061
:1034A0009F908F907F906F905F904F903F902F9064
:1034B00008952F923F924F925F926F927F928F92D8
:1034C0009F92AF92CF92DF92EF92FF920F931F9352
:1034D000CF93DF93CDB7DEB72E970FB6F894DEBF4C
:1034E0000FBECDBF9E878D872B013A011901B80110
:1034F00018861F821A8619861C861B86CE0107969F
:103500000E942A188C2C912C8614970460F5CF8089
:10351000D884AE2CCE0101967C01810121E0A3016B
:10352000B2018D859E850E94E918782ECE010796FE
:103530000E947018872D2E960FB6F894DEBF0FBE2E
:10354000CDBFDF91CF911F910F91FF90EF90DF9052
:10355000CF90AF909F908F907F906F905F904F90A3
:103560003F902F90089564EA7DE08091B906909194
:10357000BA060E94440A8090B9069090BA064AE0C2
:103580006C2DCE0101960E94B018BE016F5F7F4F77
:10359000C4010E94AA11CE0101960E947018712CDC
:1035A000C5CF1F93CF93DF9385ED8093BC008091AF
:1035B0009A0390919B03A0919C03B0919D03079661
:1035C000A11DB11D23E0B695A795979587952A95DE
:1035D000D1F72091BC0024FD03C01092E20352C039
:1035E00040919A0350919B0360919C0370919D03BD
:1035F000452B462B472B69F30097A105B10541F0F8
:103600002AE22A95F1F700C00197A109B109E1CF9B
:1036100080919903C1E0C0939803882399F1D091D8
:10362000B8001091BA008091BC008A7B8093BC00E6
:1036300060E082E00E94FE0860E083E00E94FE08F5
:103640001092E203C093E4031092E30361E082E08E
:103650000E94FE0861E083E00E94FE088091B900AC
:103660008E7F8093B9008091B9008D7F8093B900DF
:1036700088E48093B80085E48093BC001093BA007E
:10368000D093B800DF91CF911F910895CF92DF9230
:10369000EF92FF920F931F93CF93DF93FC01428130
:1036A000FB01248135814217130611F020E029C067
:1036B000EB0131812081213A91F5313061F523818F
:1036C000233011F021E01DC0628170E00E94EA0BFE
:1036D000EC01009759F341E050E0BC016E5F7F4F71
:1036E00080E00E94380C1816190604F74E815F819D
:1036F0006C817D8180E00E94380C21E0181619064B
:10370000ACF6822FDF91CF911F910F91FF90EF9038
:10371000DF90CF90089521E0333041F6F2CF21328F
:1037200029F63B3021F42281FC01208BCBCF3A30AB
:1037300021F42281FC01218BC5CF393009F0B6CFAD
:103740002381233009F0B2CF628170E00E94EA0B3E
:103750007C01009709F4AACFCE80DF80FC0186812E
:1037600097810196C816D90609F0A0CF81E090E0B4
:10377000C114D10409F0C6010E947D328C01B6014A
:103780000E945E0DF80181812A81213121F59091FD
:1037900096039F5F909396038093950380E0F801D2
:1037A0009081F701228133819217130609F07ECFB1
:1037B000882349F046815781B8016F5F7F4F84812C
:1037C00095810E9467340115110509F47BCFC8016A
:1037D0000E94193377CF81E0E2CFAF92BF92CF92B0
:1037E000DF92EF92FF920F931F93CF93DF937C01B1
:1037F0006B015A01E901DC0152960D911C9190E098
:1038000080E00115110531F589E090E00E947D32DC
:10381000FC0111821082D382C282B582A482DD278C
:10382000D783C683D70153969C938E935297F70103
:10383000848995890196958B848BDF91CF911F9117
:103840000F91FF90EF90DF90CF90BF90AF900895D1
:1038500001968901F801228133812C153D0569F318
:10386000208131812115310599F789E090E00E948E
:103870007D32FC0111821082D382C282B582A48281
:10388000DD27D783C683D8018D939C93D0CFCF9269
:10389000DF92EF92FF920F931F93CF93DF93C82F86
:1038A0006B018A010E94A50D6C2F70E021E030E0D1
:1038B000A6010E94ED1BEC01892B89F00E94A50D49
:1038C0007C01C8010E946A31F601608170E07F6F5F
:1038D0009C01A801C7010E94ED1BC80FD91FCE0192
:1038E000DF91CF911F910F91FF90EF90DF90CF90DC
:1038F0000895EF92FF920F931F93CF93DF93EC0104
:103900008B017A010E94A50D9701A801BE01DF91EC
:10391000CF911F910F91FF90EF900C94ED1B1F9290
:103920000F920FB60F9211242F933F938F939F9373
:10393000AF93BF938091090490910A04A0910B0466
:10394000B0910C043091080423E0230F2D3758F573
:103950000196A11DB11D2093080480930904909342
:103960000A04A0930B04B0930C0480910D04909171
:103970000E04A0910F04B09110040196A11DB11D79
:1039800080930D0490930E04A0930F04B093100441
:10399000BF91AF919F918F913F912F910F900FBE4B
:1039A0000F901F90189526E8230F0296A11DB11DB8
:1039B000D2CF1F920F920FB60F9211242F933F93E5
:1039C0004F935F936F937F938F939F93AF93BF9327
:1039D000EF93FF938CEA95E00E94DC0AFF91EF9150
:1039E000BF91AF919F918F917F916F915F914F9117
:1039F0003F912F910F900FBE0F901F9018951F921F
:103A00000F920FB60F9211242F938F939F93EF93E2
:103A1000FF93E091BC05F091BD058081E091C20566
:103A2000F091C30582FD1BC090818091C5058F5F19
:103A30008F732091C605821741F0E091C505F0E033
:103A4000E455FA4F958F8093C505FF91EF919F91B3
:103A50008F912F910F900FBE0F901F90189580811E
:103A6000F4CF1F920F920FB60F9211240F900FBE3A
:103A70000F901F9018951F920F920FB60F9211245E
:103A80002F933F934F935F936F937F938F939F9366
:103A9000AF93BF93EF93FF938091B900887F8036F7
:103AA00009F44AC0F0F5883209F4A5C018F5803150
:103AB00009F499C0B8F4882309F4F5C0883009F4F2
:103AC00092C0FF91EF91BF91AF919F918F917F91A4
:103AD0006F915F914F913F912F910F900FBE0F907B
:103AE0001F901895883109F486C0803251F7809371
:103AF000E10314C0803409F49BC040F48033B9F36F
:103B00008833F9F68093E10385ECAEC0803509F483
:103B100083C0883509F494C0883499F60E94D11A7C
:103B2000D0CF883909F48AC038F5883729F050F4A5
:103B3000883611F0803729F683E08093E2031092F3
:103B4000E00355C0883809F479C0803919F080380D
:103B500009F0B7CF8091E003803208F06FC0E091A8
:103B6000E00381E08E0F8093E0038091BB00F0E0E2
:103B7000E054FC4F80833BC0803B39F0D0F4803A66
:103B800009F477C0883A09F09CCF84E08093E2037F
:103B90001092BF031092BE03F0E0E0E0099580911F
:103BA000BE0381110FC081E08093BE0310929E037B
:103BB00009C0803C09F4A8CF883C09F4A5CF883B14
:103BC00009F07FCFE091BF0381E08E0F8093BF03A8
:103BD000F0E0E256FC4F80818093BB009091BF03E0
:103BE0008091BE0329C0809107048093BB0085ECBF
:103BF0008093BC0066CF90910604809105049817CD
:103C000058F5E091060481E08E0F80930604F0E001
:103C1000EB51FC4F8081E9CFE091060481E08E0FEB
:103C2000809306048091BB00F0E0EB51FC4F808351
:103C300090910604809105049817C8F285E8D8CFC2
:103C4000E091060481E08E0F809306048091BB0012
:103C5000F0E0EB51FC4F80838091E40381115ECF53
:103C600081E08093E30384EA8093BC001092E20336
:103C700028CF85EC8093BC001092E2038091E00392
:103C8000803230F4E091E003F0E0E054FC4F108229
:103C90006091E00370E080EC93E0F0E0E0E00995F3
:103CA0001092E0030ECF1092E10338CF1F920F92D3
:103CB0000FB60F9211242F933F934F935F936F93FF
:103CC0007F938F939F93AF93BF93CF93EF93FF9384
:103CD000C091E1008091E100837F8093E100C3FF08
:103CE0001DC08091B806882309F459C082E1E8E834
:103CF000F1E0A6E4B1E001900D928A95E1F710920F
:103D0000E90081E08093EB001092EC0082E3809365
:103D1000ED001092120488E08093F000C2FF1AC0F8
:103D20000E94830880914103882341F080914103E0
:103D3000815080934103811101C05D9A80911104EB
:103D4000882341F0809111048150809311048111E6
:103D500001C0289AC4FF27C08091E2008E7E816056
:103D60008093E2008091E1008F7E8093E10080915A
:103D700042038E7E806180934203FF91EF91CF9149
:103D8000BF91AF919F918F917F916F915F914F9173
:103D90003F912F910F900FBE0F901F90189582E1C9
:103DA000EAE9F1E0A6CFC0FFE8CF8091E2008E7E85
:103DB00080618093E2008091E1008E7E8093E1003B
:103DC000809142038E7E8160D6CF1F920F920FB6F4
:103DD0000F921124CF92DF92EF92FF920F931F93D5
:103DE0002F933F934F935F936F937F938F939F9303
:103DF000AF93BF93EF93FF93CF93DF93CDB7DEB72E
:103E00006C97DEBFCDBF1092E9008091E80083FF80
:103E100025C068E0CE0145960E94510D82EF809347
:103E2000E8008D8987FF39C09091E80090FFFCCFB2
:103E3000982F907609F038C19E894F89588D2F8927
:103E4000F88C911131C0803861F5809143038093E3
:103E5000F1001092F1008EEF8093E8006C960FB69F
:103E6000F894DEBF0FBECDBFDF91CF91FF91EF91F0
:103E7000BF91AF919F918F917F916F915F914F9182
:103E80003F912F911F910F91FF90EF90DF90CF9076
:103E90000F900FBE0F901F9018959EEF9093E80023
:103EA000C7CF1092F100D5CF913059F48111D3CF03
:103EB0004130510581F6809143038D7F8093430308
:103EC000CACF933049F48111C6CF4130510519F65C
:103ED000809143038260F2CF953041F48091E800F5
:103EE00080FFFCCF20682093E300B5CF963009F027
:103EF000A9C00B8D1C8D22E01092E90010923F03A7
:103F000010923E03F2122EC010923D0310923C0319
:103F10000E945E0E1F8299E09983FA8291E09E834F
:103F200090EA98879AEF998720913E0330913F035A
:103F3000275F3F4F3C832B838D831092E9001092C3
:103F40003F0310923E0310933D0300933C0349E06E
:103F500050E0BE016F5F7F4F80E00E94380C0E94EE
:103F60005E0E79CF10933D0300933C030E94910DA8
:103F7000DC0112960D911C910115110509F452C135
:103F8000D801ED91FC910480F581E02DBE016B5EBE
:103F90007F4FC8010995009709F03FC1F8010085DE
:103FA0001185EACFF3E0FF120EC08F89882309F450
:103FB00040C0823061F440E860E183E391E00E9418
:103FC0002B21811148CF81E28093EB0047CF8130D4
:103FD00029F440E86BE087E291E0F1CF833099F774
:103FE0000E94910DDC011296ED90FC908E010F5F06
:103FF0001F4F6801E114F10479F0D701ED91FC91B4
:104000000680F781E02DB801C7010995080F111D41
:10401000F701E084F184EECFD8011C92F601019003
:104020000020E9F73197BF016C197D0940E0C60116
:10403000C6CFE3E2F1E0449150E0BF0180E80E9486
:10404000380C09CF973009F4BECF983021F481E0C5
:104050008093F10000CF993009F0FDCE837009F014
:10406000B2CF8091B8068823B1F0EEE6F1E081E0AE
:1040700031E096E32191222371F08093E90030939F
:10408000EB00DF0111972C912093EC009093ED0051
:104090008F5F873079F78EE78093EA001092EA000D
:1040A0008F8980931204D7CE8B8D9C8D1092E9005E
:1040B00010923F0310923E0390933D0380933C0384
:1040C0008091B806882309F48DC0898D81118AC03A
:1040D0008E899D89913A41F4813209F074CF47E08D
:1040E00050E068E571E0B5C0913209F06CCF8332E1
:1040F00069F48F89988DB0E0A0E08093420190939D
:104100004301A0934401B0934501A5CE803239F418
:1041100067E070E088E591E00E945E0D9CCE8232FF
:1041200009F099CE8F8980935F01EEEFFFE78591CB
:104130009491E0E0F8E08B3F9C4D11F4EEEFFAE053
:104140008091580190915901A0915A01B0915B0161
:10415000803B9440A105B105D9F480915F0180FDB9
:1041600017C0EE3F8AE0F80771F587E797E791837C
:104170008083809160008093400388E19BE00FB6CC
:10418000F894A895809360000FBE9093600063CE72
:10419000808191818737974709F05DCEA8958091FE
:1041A000600088618093600080914003809360008C
:1041B000EE3F2AE0F20789F08091FE0A9091FF0A13
:1041C0009183808348CE808191818737980769F2F7
:1041D0009093FF0A8093FE0AC8CF1092FF0A1092B4
:1041E000FE0A39CE0E94910DDC0112960D911C91B0
:1041F0000115110509F4E7CED801ED91FC9101906C
:10420000F081E02DBE016B5E7F4FC80109958111E1
:1042100022CEF80100851185EBCF181619060CF493
:104220001ACED1CEF1E0FF12BDCE8091B806811139
:104230000CC08DE195E090934F0180934E0183E097
:1042400090E0909351018093500142E150E066E488
:1042500071E080E0F4CEEF92FF920F931F93CF9323
:10426000DF93F82E192FE62E042F81E0860F880F9A
:104270000E940A0C83E00E940A0CCF2DD12FEC0E75
:10428000FD2EF11CCE15DF05B9F007FF13C0FE01AE
:1042900084910E940A0C182F80E00E940A0C81234E
:1042A00021968111EFCFDF91CF911F910F91FF9058
:1042B000EF9008958881EDCF81E0F5CF1092AF05A2
:1042C0001092AE0588EE93E0A0E0B0E08093B005D8
:1042D0009093B105A093B205B093B30586E292E046
:1042E0009093AD058093AC058DEC90E09093B9056B
:1042F0008093B8058CEC90E09093BB058093BA0551
:1043000088EC90E09093BD058093BC0589EC90E02B
:104310009093BF058093BE058AEC90E09093C10511
:104320008093C0058EEC90E09093C3058093C20506
:104330001092C5051092C6051092C7051092C805C7
:104340008FEF9FEF90938E0580938D058AE492E026
:104350009093900580938F0510929105109292058D
:10436000109293051092940590939605809395056D
:1043700010929705109298051092990510929A053F
:1043800082E08093A90581E08093AA0593E0909351
:10439000AB059091A105911112C010929C0510924D
:1043A0009B052DE83EE030939E0520939D0520E976
:1043B00031E03093A00520939F058093A1050E94D2
:1043C000A50DFC01A485B585109709F054C08BE9B3
:1043D00095E0958784878685978520919F05309104
:1043E000A005820F931F9787868710924C06109224
:1043F0004B0688EE93E0A0E0B0E080934D069093EA
:104400004E06A0934F06B093500688E392E0909337
:104410004A06809349068FEF9FEF9093560680934C
:1044200055068AE492E09093BC068093BB061092F6
:10443000BD061092BE061092BF061092C006809173
:10444000B806882311F18091B7068823F1F089E43A
:1044500096E09093BA068093B9061092B606109231
:10446000B5061092AC061092AB061092A2061092FE
:10447000A1060895DC018D919C9111970097D1F7C9
:104480008BE995E08D939C93A6CF8CEA95E0E1CFE4
:10449000CF93DF93CDB7DEB762970FB6F894DEBF48
:1044A0000FBECDBFF89462E082E00E942C090E940A
:1044B000DA08892B19F481E08093B806789461E0DA
:1044C00087E00E942C0961E086E00E942C0961E0EF
:1044D00085E00E942C0960E087E00E94FE0860E011
:1044E00086E00E94FE0860E085E00E94FE08809160
:1044F000B806882309F456C261E087E00E94FE08EE
:1045000060E086E00E94FE08789484B5826084BDF5
:1045100084B5816084BD85B5826085BD85B58160C7
:1045200085BD80916E00816080936E001092810045
:104530008091810082608093810080918100816000
:1045400080938100809180008160809380008091C1
:1045500091008260809391008091910081608093AE
:104560009100809190008160809390008091C100C3
:1045700084608093C1008091C10082608093C100FB
:104580008091C10081608093C1008091C3008160EF
:104590008093C3008091C00082608093C0008091AE
:1045A000C20081608093C20080917A008460809311
:1045B0007A0080917A00826080937A0080917A00FC
:1045C000816080937A0080917A00806880937A007D
:1045D0001092120410924303109242038091D7006C
:1045E00081608093D70080EA8093D80089B580618C
:1045F00089BD89B5826089BD09B400FEFDCF61E047
:1046000070E080E090E00E948D098091D8008F7C5E
:1046100080618093D8008091E000807F8093E000EB
:104620008091E1008E7E8093E1008DE08093E20036
:10463000559A209AE091BC05F091BD0582E08083F7
:10464000E091B805F091B9051082E091BA05F091BA
:10465000BB0580E180831092C405E091C005F09114
:10466000C10586E08083E091BE05F091BF058081A1
:1046700080618083E091BE05F091BF0580818860F4
:104680008083E091BE05F091BF05808180688083C2
:10469000E091BE05F091BF0580818F7D808389E028
:1046A00090E090938E0580938D0588E199E20FB696
:1046B000F894A895809360000FBE9093600063E526
:1046C00072E089E496E00E94861660E47FE189E466
:1046D00096E00E94CF106FE772E089E496E00E94B6
:1046E000981189E496E00E945E11A89590E080E020
:1046F0000E942C1090911A048091B8069A3A09F001
:1047000057C190911B04953509F052C120918B053A
:1047100030918C052130354A09F04AC1811106C01B
:1047200063EA71E08CEA95E00E94C51180918A05E8
:10473000982F917090937601869581708093650390
:1047400080912804809362030E94A50D0E94A50D0C
:1047500021E030E049EA55E061E070E00E94ED1BA5
:104760000E94A50D21E030E04BEA55E062E070E0E8
:104770000E94ED1B0E94A50D21E030E04AEA55E0C1
:1047800063E070E00E94ED1B0E94A50D21E731E07F
:10479000FC01318F208F8091B806882339F00E9468
:1047A000A50D29E436E0FC01378B268B62E084E01E
:1047B0000E942C0960E087E10E942C0961E08DE0F5
:1047C0000E94FE0861E088E00E942C0961E088E018
:1047D0000E94FE0880916F03909170038560916044
:1047E0009093700380936F03A89581E08093750187
:1047F00080937401109213048091220490912304F9
:1048000021E4289FF001299FF00D1124ED59FB4F61
:104810008081918190937E0180937D010E94D711C8
:1048200042E050E06FE673E087E090E00E94791C80
:1048300042E050E06AE671E08DE090E00E94791C71
:1048400042E050E06CE174E08AE190E00E94791C63
:1048500042E050E06EE174E08CE190E00E94791C4F
:1048600042E050E060E274E088E090E00E94791C51
:1048700042E050E063E671E083E190E00E94791C41
:1048800042E050E067E771E082E190E00E94791C2D
:1048900041E050E062E671E086E090E00E94791C21
:1048A00041E050E061E671E086E190E00E94791C11
:1048B00042E050E06AE072E08AE090E00E94791CF9
:1048C00042E050E068E671E08BE090E00E94791CE5
:1048D00041E050E060E671E084E190E00E94791CE4
:1048E00041E050E069E072E087E190E00E94791CCD
:1048F00041E050E069E771E08EE090E00E94791CB1
:1049000041E050E06CE671E08CE090E00E94791CA0
:1049100041E050E066E274E08FE090E00E94791C94
:1049200041E050E068E274E081E190E00E94791C8F
:1049300041E050E068E072E080E190E00E94791C84
:1049400041E050E067E072E088E190E00E94791C6D
:104950004CE651E066E072E08FE10E94471C42E6BF
:1049600051E065E072E080E20E94471C8091B80649
:10497000882309F444C08FEF9FEF909356068093ED
:10498000550610915F016AE070E080E090E00E94BF
:104990008D09111124C06AE070E080E090E00E946F
:1049A0008D09EFCF60E087E00E94FE0861E0A9CDAD
:1049B000811106C067E771E08CEA95E00E94C5119D
:1049C0000E94D91380E991E00E94461090E080E0B7
:1049D0000E94461080E991E00E942C10A7CE81E051
:1049E0008093B70663E571E089E496E00E94440A8B
:1049F0006091B80670E089E496E00E94621164E478
:104A000071E08CEA95E00E94440A6091B80670E07B
:104A10008CEA95E00E9462118CEA95E00E94490BB5
:104A200011E01093750110921304A89568EC70E0E2
:104A300080E090E00E948D091092B6060E94BF09A6
:104A40006093AD067093AE068093AF069093B00668
:104A50008AE090E0A0E0B0E08093B1069093B206C7
:104A6000A093B306B093B4061093B506B8EE4B2EE0
:104A7000B3E05B2E612C712CA895A1E4DA2EF090A6
:104A8000B806FF2009F4D3C08091B706882309F443
:104A9000CEC089E496E00E94070F892B09F43BC73A
:104AA0008091B706882309F4CBC089E496E00E9480
:104AB000C50E8C0180917601882369F0602FFF205C
:104AC00009F4C3C08091B706882309F4BEC089E405
:104AD00096E00E94AA0EE0911904EE3108F011C789
:104AE0000D30110599F00A30110581F00F3E1105C6
:104AF00069F0C8018B7F8B3B910541F081E08E0FFF
:104B000080931904F0E0EC5BFC4F0083E091190402
:104B1000F0E0EC5BFC4F108280917601882381F0FD
:104B20008091B806882309F495C08091B706882340
:104B300009F490C062E37BE089E496E00E94440AB5
:104B400080917601882381F08091B80664E473E057
:104B5000882309F484C08091B706882309F47FC0B4
:104B600089E496E00E94861680917601882381F080
:104B70008091B806882309F475C08091B706882310
:104B800009F470C06EE27BE089E496E00E94C511F2
:104B900080911904882309F49CC08091B806882369
:104BA00041F08091B706F9E4EF2EF6E0FF2E811177
:104BB00004C0ECEAEE2EE5E0FE2E1E870D87F09293
:104BC000BA06E092B9060D30110521F00A30110540
:104BD00009F055CF80914403082E000C990B0E94D8
:104BE0005F34883409F41FC20CF089C0823409F4A0
:104BF000FAC0ECF5833209F4D7C58F3309F413C238
:104C00006CEF77E0C7010E94440A64E473E0C701D7
:104C10000E94861669EF77E0C7010E94C5116DEE0C
:104C200077E0C7010E94C511109244034CC08CEA82
:104C300095E00E94C60A892B09F46DC6F11030CFA9
:104C40008CEA95E00E94A40A34CF8CEA95E00E9499
:104C5000FD0A41CF60E37BE08CEA95E06FCF8CEA00
:104C600095E080CF6CE27BE08CEA95E08FCF8434D6
:104C700009F433C60CF464C1853411F68091450300
:104C8000082E000C990B0E945F348E34910509F0B8
:104C90009FC080914603082E000C990B0E945F3440
:104CA0008334910509F08AC0C12CE12C0EEE1AE084
:104CB00029E234E041E050E0BE01635F7F4F86E4CB
:104CC00093E00E94591A10921904809119048111DD
:104CD000D6CE80917601882309F4D1CE8091B80692
:104CE000882309F413C68091B706882309F40EC6F9
:104CF00065E27BE089E496E00E94440AC0CE8335F9
:104D000009F4E3C4DCF48E3409F4F8C5813509F004
:104D100077CF6FE178E0C7010E94440A70E060E05D
:104D2000C7010E9462116FE078E0C7010E94440A47
:104D300070E060E0C7010E946211C5CF8A3509F4B6
:104D4000CEC48E3709F453C5843509F059CF80910C
:104D50004503082E000C990B0E945F348D3409F432
:104D6000DBC0833509F0E9C08091200490912104D3
:104D70006CE370E00E94D1317A836983F12CE12CDD
:104D80000BED19E09E012F5F3F4F42E454E0BE015E
:104D9000635F7F4F85E493E00E94031A882309F440
:104DA00092CF29813A81FCE3F29FC001F39F900DDD
:104DB0001124909321048093200485CF823591059E
:104DC00039F4C12CE12C04EC1AE02AE234E072CF71
:104DD00060EA7AE0C7010E94440A64E473E0C70114
:104DE0000E94981170CF80914503082E000C990BFA
:104DF0000E945F348634C1F04CF4833409F46BC0F4
:104E0000843409F44FC064EF79E0E4CF863509F4C7
:104E100074C08935C1F7C12CE12C05E11AE025E207
:104E200034E044E650E072C0809122049091230463
:104E3000D89EF001D99EF00D1124ED59FB4F409101
:104E4000240420813181429FC001439F900D112491
:104E50009A838983F12CE12C0AE81AE09E012F5FE6
:104E60003F4F48E55BE1BE01635F7F4F85E493E020
:104E70000E94031A882309F426CF8091220490917E
:104E80002304D89EF001D99EF00D1124ED59FB4F5B
:104E90006091240470E089819A810E94D1317183EC
:104EA000608311CF8091220490912304D89E9001B9
:104EB000D99E300D112429593B4FF12CE12C04E7E8
:104EC0001AE048E55BE1BE01635F7F4F85E493E054
:104ED0000E94031AF8CEC12CE12C09E41AE022E268
:104EE00034E044E050E0BE01635F7F4F85E493E02F
:104EF0000E94591A0E94210FE6CECC24C394E12CC3
:104F000007E31AE024E234E044E050E0BE01635FCE
:104F10007F4F85E493E0D5CE73E0E72EF12C03ECD0
:104F200019E028E835E040E458E3BE01635F7F4FB5
:104F300085E493E00E94031ADDCF69EA79E04ACF65
:104F400080914503082E000C990B0E945F34883431
:104F5000A9F18C3409F064C04091240420912D04FF
:104F600030912E04429FC001439F900D11249A83DB
:104F70008983F12CE12C04E919E09E012F5F3F4F5A
:104F800040E45FE1BE01635F7F4F85E493E00E94F0
:104F9000031A882309F497CE6091240470E0898174
:104FA0009A810E94D13170932E0460932D040E9447
:104FB000CB0990932C0480932B0485CE409124043C
:104FC0002091310430913204429FC001439F900DE3
:104FD00011249A838983F12CE12C0CE719E09E01BE
:104FE0002F5F3F4F40E45FE1BE01635F7F4F85E489
:104FF00093E00E94031A882309F465CE609124048B
:1050000070E089819A810E94D1317093320460935B
:1050100031040E94CB099093300480932F0453CE27
:105020006BE579E0D7CE80914503082E000C990BF3
:105030000E945F34853409F446CE803509F442C1BC
:10504000833409F083C164E777E0C7010E94C5118A
:105050002CE032E0388B2F8753E6A52E54E0B52E96
:105060006AE1862E64E0962E67E677E0C7010E942B
:10507000440AEF85F88961917191F88BEF87C70138
:105080000E94861664E577E0C7010E94440A2091D9
:105090002404F50180819181289FB001299F700D22
:1050A00011244AE050E0C7010E94741163E477E0E4
:1050B000C7010E94440A20912404F501848195814E
:1050C000289FB001299F700D11244AE050E0C701CC
:1050D0000E94741162E377E0C7010E94440AF5015F
:1050E000668177814AE050E0C7010E94741161E255
:1050F00077E0C7010E94440AF501608571854AE0A6
:1051000050E0C7010E94741160E177E0C7010E947E
:10511000440AF501648575854AE050E0C7010E94A4
:1051200074116FEF76E0C7010E94440AF5016685AD
:1051300077854AE050E0C7010E94741160EE76E086
:10514000C7010E94C5118401C12C68ED76E0C7013A
:105150000E94440A20912404F801818D928D289F99
:10516000B001299F700D11244AE050E0C7010E9450
:105170000B116AEC76E0C7010E94440AF801638DC6
:10518000748D4AE050E0C7010E947411C3940C5F13
:105190001F4FF4E0CF12D9CF6AEB76E0C7010E942F
:1051A000C5118401C12C62EB76E0C7010E94440A5C
:1051B00020912404F80181A592A5289FB001299F80
:1051C000700D11244AE050E0C7010E940B1164EAFF
:1051D00076E0C7010E94440AF80163A574A54AE07D
:1051E00050E0C7010E947411C3940C5F1F4FF4E09C
:1051F000CF12D9CF66E976E0C7010E94C5118401BC
:105200006EE876E0C7010E94440A20912404F80168
:1052100081AD92AD289FB001299F700D11244AE005
:1052200050E0C7010E940B1160E876E0C7010E94C0
:10523000440AF80163AD74AD4AE050E0C7010E9432
:105240007411CA940C5F1F4FC110DACFF1E4AF0E96
:10525000B11C21E4820E911C8F8598898651924061
:1052600009F002CF68E676E0C7010E94C51108E7A1
:1052700015E060E676E0C7010E94440A209124040C
:10528000F80180819181289FB001299F700D112420
:105290004AE050E0C7010E940B1162E576E0C701C9
:1052A0000E94440AF801628173814AE050E0C7011C
:1052B0000E9474110C5F1F4F28E835E0201731075A
:1052C000C1F601CDC7010E945E1169ED77E0C7010B
:1052D0000E94440A60916A0170916B014AE050E0BB
:1052E000C7010E94741165EC77E0C7010E94440A6F
:1052F0004AE050E060916C01C7010E94861161EBA9
:1053000077E0C7010E94440A4AE050E06091280417
:10531000C7010E9486116DE977E0C7010E94440A27
:1053200060917D0170917E01C7010E94621167E862
:1053300077E0C7010E94440A60916F037091700387
:1053400040E150E0C7010E947411BDCC64E476E0F6
:10535000C7010E94C511C7010E945E1161EB75E093
:10536000C7010E94C51163EA75E0C7010E94440AA3
:105370006EE872E0C7010E949811C7010E945E1199
:1053800061E975E0C7010E94C51169E675E0C701D2
:105390000E94C5116EE375E0C7010E94C5116EE061
:1053A00075E0C7010E94440A4AE050E06091290478
:1053B000C7010E9486116EED74E0C7010E94440A85
:1053C0004AE050E060912A04C7010E94861163EC14
:1053D00074E0C7010E94C51163E974E0C7010E942F
:1053E000440A6091220470912304C7010E94621153
:1053F00063E674E0C7010E94440A609188057091D9
:1054000089054AE050E0C7010E94741163E374E02B
:10541000C7010E94440A4AE050E060912404C70199
:105420000E94861163E074E0C7010E94440A8091E3
:10543000220490912304D89EF001D99EF00D1124EE
:10544000ED59FB4F2091240480819181289FB00168
:10545000299F700D11244AE050E0C7010E94741189
:1054600063ED73E0C7010E94440A80912204909189
:105470002304D89EF001D99EF00D1124E959FB4F69
:105480002091240480819181289FB001299F700D73
:1054900011244AE050E0C7010E94741163EA73E0EE
:1054A000C7010E94440A80912004909121046CE37A
:1054B00070E00E94D1314AE050E0C7010E947411AF
:1054C00063E773E0C7010E94440A2091240480919D
:1054D0002D0490912E04289FB001299F700D112456
:1054E0004AE050E0C7010E940B116CE673E0C7016F
:1054F0000E94C51160E573E0C7010E94440A6091F3
:105500002B0470912C044AE050E0C7010E940B115B
:105510006EE473E0C7010E94C5116EE173E0C7013C
:105520000E94440A20912404809131049091320415
:10553000289FB001299F700D11244AE050E0C70157
:105540000E940B1167E173E0C7010E94C5116AEF69
:1055500072E0C7010E94440A60912F0470913004E8
:105560004AE050E0C7010E940B1168EF72E0C701EA
:105570000E94C51168EC72E0C7010E94440A4AE02B
:1055800050E060912804C7010E94111166EC72E09E
:10559000C7010E94C51166E972E0C7010E94440A72
:1055A0004AE050E060912504C7010E94861167E738
:1055B00072E0C7010E94C5116FE472E0C7010E944A
:1055C000C51160E272E0C7010E94C5116BEF71E086
:1055D000C7010E94440A40E150E060918A05C7017A
:1055E0000E94861100916F031091700320917D013C
:1055F00030917E0140916A0150916B0160916C0184
:10560000C7010E948E166BE276E0C7010E94C511A9
:1056100060E176E0C7010E94C51162EF75E0C70145
:105620000E94C51169ED75E0C7010E94C51169ECC2
:1056300075E0C7010E94C5114AE063E771E0CE0141
:1056400001960E94781818861F821A8619861C8671
:105650001B8641E150E064EA72E0CE0107960E94A9
:105660004F180D811E81A980BA80A114B10441F1A7
:1056700001151105B1F08B859C85080F191FB80124
:10568000CE0107960E94F0178823D1F02F8138852C
:105690008B859C85B501820F931F0E9470341C87F7
:1056A0000B87BE01695F7F4FC7010E94AA11CE011F
:1056B00007960E947018CE0101960E94701803CBC5
:1056C000CE0107960E941818ECCF90E080E00E946F
:1056D00046106BE379E0C7010E94C511F4CA8091BE
:1056E0004503082E000C990B0E945F34833491050A
:1056F000E1F480914603082E000C990B0E945F3460
:105700008434910539F466E179E0C7010E94C5113E
:105710000E94D91380918A05982F917090937601F9
:105720008695817080936503CECA83359105A1F477
:1057300080914603082E000C990B0E945F3486343A
:10574000910541F780E991E00E9446106EEE78E005
:10575000C7010E94C511DECF8535910539F490E06F
:1057600080E00E942C1067ED78E0F2CF863491053E
:10577000A1F462EC78E0C7010E94C51110E000E0DE
:105780006FEFC8010E94B3310F5F1F4F011534E066
:105790001307B1F76DEB78E0DBCF80E991E00E9471
:1057A0002C1068E678E0D4CF66EB72E089E496E0EE
:1057B0000E94981183E090E090938E0580938D0570
:1057C00088E19BE00FB6F894A895809360000FBE27
:1057D0009093600062E370E080E090E00E948D09A9
:1057E00062ED72E089E496E00E949811F3CF65EED5
:1057F00071E0C7010E94440A10E000E0B12CA12C26
:10580000912CC501800F911F0E94AB318F3F11F089
:10581000992493944FEFA41AB40A80E1A816B10416
:1058200081F70115110519F0992009F449C060EEBE
:1058300071E0C7010E94440A6EED71E0C7010E9449
:10584000440A0F3F110509F068F46CED71E0C701DF
:105850000E94440A0031110528F46AED71E0C70185
:105860000E94440A40E150E0B801C7010E940B11B8
:1058700068ED71E0C7010E94440A5801912CC501EE
:105880000E94AB31882E9FE0981728F066ED71E0FA
:10589000C7010E94440A40E150E0682DC7010E9400
:1058A0001111EFE09E1629F064ED71E0C7010E942E
:1058B000440AFFEFAF1ABF0A939420E19212DFCFA0
:1058C000005F1F4F011534E0130709F097CF60EC1C
:1058D00071E0C7010E94440AF6C9C12CEE24E3948A
:1058E00003E518E02AE835E04FEF50E0BE01635FC2
:1058F0007F4F84E493E00E94591A0CCF63E378E071
:10590000EACE1092190410924403DFC96EE17BE0E5
:105910008CEA95E0F1C989E996E00E94C70B1091E5
:10592000A2068091A106811115C040929D06509259
:105930009E0660929F067092A0060E94BF09609327
:10594000990670939A0680939B0690939C0641E07B
:105950004093A1061092A206112309F40CC2809173
:105960007103909172030196909372038093710377
:105970000E94D7119091B80681E0209129049111DD
:1059800002C020912A04211101C080E0209114045A
:1059900030911504882309F491C280917C01809391
:1059A0006C013093700320936F0380917A01909182
:1059B0007B0190936B0180936A0120916F0330917A
:1059C000700380916B0390916C0328173907C1F421
:1059D00090916C0180916A03981312C020916A0122
:1059E00030916B0180916803909169032817390702
:1059F00039F480917103909172030B970CF42FC1CD
:105A000060E088E00E94FE088091B806882341F09B
:105A10008091B70649E4E42E46E0F42E811104C0DB
:105A20003CEAE32E35E0F32E41E050E06CE671E015
:105A30008CE090E00E942C0E9093670380936603A5
:105A400080916503811153C08091B806882309F4C1
:105A5000A6C28091B706882309F4A1C26FE57CE055
:105A600089E496E00E94440A00916F03109170034C
:105A700020917D0130917E0140916A0150916B012E
:105A800060916C01C7010E948E168091B806882330
:105A900009F48AC28091B706882309F485C26BE3B2
:105AA0007CE089E496E00E94440A6091660370916C
:105AB00067038091B806882309F47BC28091B706FA
:105AC000882309F476C289E496E00E94CF10809181
:105AD000B80664ED72E0882309F46EC28091B706BF
