:100000000C947B070C94A3070C94A3070C94A307F0
:100010000C94A3070C94A3070C94A3070C94A307B8
:100020000C94A3070C94A3070C94A21C0C94311DF0
:100030000C94A3070C94A3070C94A3070C94A30798
:100040000C94A3070C94A3070C94A3070C94A30788
:100050000C94A3070C94A3070C94A3070C94E51A23
:100060000C94A3070C94551B0C942F1B0C94A30702
:100070000C94A3070C94A3070C94A3070C94A30758
:100080000C94A3070C94A3070C94A3070C94A30748
:100090000C94871B0C94A3070C94A3070C94A30740
:1000A0000C94A3070C94A3070C94A30752657374D4
:1000B0006F72656420666163746F7279206465662F
:1000C00061756C74732E00526573746F7265642071
:1000D000666163746F72792064656661756C7473B0
:1000E0002E000403090441726475696E6F204C4C44
:1000F000430041726475696E6F204C656F6E61726A
:10010000646F005553424344434E65656465643AE9
:1001100020005553424344434E65656465643A206C
:10012000004D79436F6F6C5550530050624163002E
:10013000555053313000454550524F4D206E6F742D
:1001400020696E697427642E205573696E67204399
:100150006F6D70696C65642044656661756C74735D
:100160002E00476F6F643A20454550524F4D20692D
:100170007320696E697469616C697A65642E000D1B
:100180000A24242D454E4420454550524F4D0D0A1A
:100190000D0A002000300020003000300030000D3B
:1001A0000A2420000D0A24242D454550524F4D208D
:1001B000434F4E54454E54533A00417661696C6149
:1001C000626C65204D656D6F72793A20002C20536A
:1001D0007461747573203D203078004469736368DE
:1001E000617267696E673A20003A00252C20002C66
:1001F00020426174742052656D61696E696E67207A
:100200003D20004261747465727920566F6C746190
:1002100067652A3130303A200044782020202D2094
:10022000446562756720666C61677320202020201A
:100230002020202020202020203A203078005A43FF
:1002400044202D20526573746F726520636F6D704A
:10025000696C656420666163746F72792064656699
:1002600061756C7473005A2020202D2052657374C0
:100270006F726520666163746F7279206465666170
:10028000756C74730029002020202020202020205D
:10029000202020202020202020202020202020205E
:1002A0002020206952656D6E4361706163697479C5
:1002B0004C696D6974203A200029002020202020FC
:1002C0002020202028486967682056204132442099
:1002D00076616C75653A200020562A313030004333
:1002E000486E6E6E6E202D2043616C69627261747F
:1002F00065206869676820766F6C74616765207037
:100300006F696E742028562A3130302920203A2017
:10031000002900202020202020202020284C6F773A
:100320002056204132442076616C75653A200020C9
:10033000562A31303000434C6E6E6E6E202D2043B5
:10034000616C696272617465206C6F7720766F6C86
:100350007461676520706F696E742028562A313089
:1003600030292020203A200054446E6E6E6E202DDD
:10037000204176652E2054696D6520666F72206677
:10038000756C6C2044697363686172676520286DC1
:10039000696E75746573293A200054436E6E6E6EF3
:1003A000202D20417665726167652054696D652056
:1003B000746F2066756C6C79204368617267652084
:1003C000286D696E75746573293A200042456E6E1A
:1003D0006E6E202D204261747465727920456D70B7
:1003E000747920766F6C746167652020202020204E
:1003F0002020202028562A313030293A2000424639
:100400006E6E6E6E202D2042617474657279204686
:10041000756C6C2043686172676520766F6C7461DF
:1004200067652020202028562A313030293A2000C4
:1004300042566E202020202D204261742053797373
:1004400074656D20566F6C747320313D31325620C7
:10045000323D32345620343D343856202020203A64
:10046000200042596E6E2020202D2064656C74613E
:100470002063656E74692D566F6C747320626566B7
:100480006F7265207265706F72696E672020202020
:10049000203A200020202020202020202020202062
:1004A00020303D5062416320313D4C692D496F6ED3
:1004B00020323D4C465020333D41474D20202020E6
:1004C0002020203A200042436E202020202D204270
:1004D000617474657279204368656D6973747279AB
:1004E0000020202020202020202028303D4E6F207A
:1004F0005043207265706F7274696E672F736875F0
:1005000074646F776E2E20313D456E61626C656458
:100510002900454E526E2020202D205768696C65B9
:1005200020696E204E6F726D616C2072756E206D49
:100530006F646520202020202020202020202020E3
:10054000203A2000454E436E2020202D2057686918
:100550006C6520696E20436F6E666967206D6F64FD
:100560006520202020202020202020202020202046
:100570002020203A2000456E61626C652072657013
:100580006F7274696E672F53687574646F776E202D
:10059000746F20746F207468652050433A200050B7
:1005A000726573656E742053657474696E67733A0F
:1005B00000436F6D70696C65642061743A2000536C
:1005C0006D6172742055505320456D756C61746F68
:1005D000722076302E31005A20202D2052657374FF
:1005E0006F726520466163746F727920446566613D
:1005F000756C7473004850202D2053686F7720501D
:100600006172616D6574657273000A2D2D2D2D4D1B
:10061000656E752D2D2D2D006950726573656E7494
:100620005374617475732020203A20307800626121
:1006300074566F6C74616765202020202020203A5A
:10064000200052454D4E43415041434954594C4975
:100650004D49543A200052454D41494E494E474379
:10066000415041434954593A200052554E54494D46
:1006700045544F454D5054592020203A20004820E1
:10068000666F722048656C700A005D2E000A556E18
:100690006B6E6F776E20636F6D6D616E64205B00B3
:1006A0004849445F494E544552464143453A20002B
:1006B0004344435F41434D5F494E54455246414395
:1006C000453A200042616420636F6D6D616E642E57
:1006D0002053686F756C64206265204E4C206F72E9
:1006E000204E4800446562756720466C6167732040
:1006F00028313A4D61696E29000A526573746F7230
:10070000656420466163746F727920446566617523
:100710006C74732E2E2E0D0A204D75737420646F29
:100720002027532720746F207361766520746F2013
:10073000454550524F4D20286E6F6E2D766F6C617F
:1007400074696C65206D656D6F7279292E000A538E
:1007500061766564206E65772076616C75652873B7
:100760002920746F20466163746F72792044656636
:1007700061756C740A000A526573746F7265642047
:10078000436F6D70696C656420466163746F727944
:100790002044656661756C747321000A5361766547
:1007A00064206E65772076616C75652873292074E6
:1007B0006F20454550524F4D2E0A004552524F5220
:1007C0003A20426164204220284261747465727943
:1007D0002920636F6D6D616E643A2000562A3130B6
:1007E00030206F662068696768657220766F6C7468
:1007F00061676500562A313030206F66206C6F7754
:1008000020766F6C74616765004552524F523A20F2
:100810004261642054696D6520636F6D6D616E6423
:100820003A20004D696E7574657320746F2066758B
:100830006C6C7920646973636861726765206672A5
:100840006F6D2066756C6C004D696E7574657320F4
:10085000746F2066756C6C792063686172676520BF
:1008600066726F6D2064656164004552524F523A62
:1008700020426164204220284261747465727929A3
:1008800020636F6D6D616E643A2000426174205682
:100890002048797374657265736973206265666F49
:1008A0007265207265706F7274696E6700313D31D8
:1008B000325620323D32345620343D3438560042D0
:1008C0006174204368656D69737472793A20303DB4
:1008D0005062416320313D4C692D496F6E20323D9D
:1008E0004C465020333D41474D004261747465725F
:1008F0007920456D70747920560042617474657278
:10090000792046756C6C20436861726765205600DB
:100910004552524F523A2042616420454E61626C0A
:100920006520636F6D6D616E6420636F6D6D616EC8
:10093000643A2000436F6E666967204D6F64653AC4
:1009400020456E61626C65205043205265706F7265
:1009500074696E672F53687574646F776E00527593
:100960006E20284E6F726D616C29204D6F64653A60
:1009700020456E61626C65205043205265706F7235
:1009800074696E672F53687574646F776E000A43DD
:100990006D643A20000A436D643A20005D005D00FA
:1009A0005B005B006952656D6E43617061636974E1
:1009B000794C696D6974204348414E4745442C2069
:1009C0006E6F773A20006952656D6E4361706163A6
:1009D0006974794C696D6974204348414E474544B8
:1009E0002C206E6F773A2000417661696C61626CF1
:1009F00065204D656D6F72793A2000417661696CB2
:100A000061626C65204D656D6F72793A2000202817
:100A100049676E6F72656429002323205043205379
:100A2000657474696E672052454D4E434150414391
:100A30004954594C494D495420746F203078002056
:100A40002849676E6F7265642900202849676E6FB8
:100A50007265642900232320504320536574746910
:100A60006E672052454D4E43415041434954594CC5
:100A7000494D495420746F2030780023232050437F
:100A80002053657474696E672052454D4E43415042
:100A900041434954594C494D495420746F20307892
:100AA00000426174562A3130303A20004261745657
:100AB0002A3130303A2000436F6D6D7320776974AE
:100AC0006820504320286E65673D626164293A20A2
:100AD00000436F6D6D732077697468205043202840
:100AE0006E65673D626164293A200053656E6469F2
:100AF0006E673A200053656E64696E673A20002382
:100B00002053656E7365643A2000232053656E732D
:100B100065643A200000000000240027002A002D10
:100B200000300000000000250028002B002E0031BE
:100B300000000000002300260029002C002F0004E4
:100B40000404040403040502020202040302020274
:100B5000020606060606060404020202040404084D
:100B600002011040804010204080408008020401B3
:100B70008040201002011080102040402000000022
:100B80000200090F0000030401000C000000000037
:100B90000000000000000000000000002C20537442
:100BA00061747573203D203078002C2042617456AA
:100BB0003A20002C204261745620496E7465726E92
:100BC000616C3A20003A00252C20004261747420A8
:100BD00052656D61696E696E67203D2000736875AE
:100BE00074646F776E20696D6D696E656E740073E5
:100BF000687574646F776E20696D6D696E656E746B
:100C00000073687574646F776E20726571756573B3
:100C10007465640073687574646F776E20726571B3
:100C20007565737465640053687574646F776E20BE
:100C30006E6F772120527474653D0053687574643B
:100C40006F776E206E6F772120527474653D0007B8
:100C50000605040100080A0B0C0D09446F6E277489
:100C600020666F7267657420746F2028532961763F
:100C70006520746865206E65772076616C756521E6
:100C8000002073657420746F3A20004E6577200051
:100C90004F6C642076616C7565207761733A200033
:100CA0002076616C756521204D6178206973203153
:100CB0002028666F72206120626F6F6C292E0A00F7
:100CC0004572726F723A20496E76616C69642000D9
:100CD000446F6E277420666F7267657420746F208E
:100CE00028532961766520746865206E65772076C3
:100CF000616C756521003078002073657420746F15
:100D00003A20004E657720003078004F6C642076E2
:100D1000616C7565207761733A20002E0A002220ED
:100D200076616C756521204D696E206973200045E0
:100D300072726F723A20496E76616C69642022008B
:100D40002E0A002076616C756521204D617820693E
:100D50007320004572726F723A20496E76616C6939
:100D600064200005840904A1010924A102750895E5
:100D700001150026FF00850109FE7902B1238502D5
:100D800009FF7903B123850309FD7901B1230585A5
:100D90008506098BB123851F09897904B123852034
:100DA000098F7905B1238516092CB1238510098D8A
:100DB000266400B1228518098EB123850E0967B11A
:100DC0008385170983B183850C096681A30966B100
:100DD000A3850F098CB1A285110929B1A285090942
:100DE00085751027FFFF0000B1A3851A096A27FF48
:100DF000FF00006601105500B1A3851C096981A39D
:100E00000969B1A3850D096881A30968B1A38508A3
:100E1000092A751027640500001678008122092A26
:100E2000B1A205848512095716008027FF7F0000B4
:100E3000B1A285130955B1A2850A0940150027FF03
:100E4000FF00006721D1F0005505B123850B093063
:100E500081A30930B1A38514095A7508150125032A
:100E6000650055008122095AB1A20902A102850735
:100E70000585094475011500250181A30944B1A325
:100E8000094581A30945B1A309D081A309D0B1A324
:100E900009D181A309D1B1A3094281A30942B1A318
:100EA000094381A20943B1A2094B81A3094BB1A314
:100EB00009DB81A309DBB1A3094681A30946B1A3DC
:100EC000094781A30947B1A30584096881A209687C
:100ED000B1A2096981A30969B1A3097381A3097347
:100EE000B1A3096581A30965B1A395028101B1018F
:100EF000C0C0C000E11F11241FBECFEFDAE0DEBF8B
:100F0000CDBF13E0A0E0B1E0E6E2F7E602C0059055
:100F10000D92A830B107D9F727E0A8E0B3E001C0EF
:100F20001D92AD36B207E1F717E0CBE7D7E004C07A
:100F30002197FE010E94B632CA37D107C9F70E9435
:100F4000C5200C9491330C940000E4E5FCE0E4919E
:100F500090917B008E2F880F880F80729F7D892B48
:100F600080937B00E770E064E0937C0080917A00DE
:100F7000806480937A0080917A0086FDFCCF809116
:100F80007800909179000895FC0180819181FB01A6
:100F900020813181821B930B0895FC01809179059A
:100FA000882311F13FB7F89482E08093E900209103
:100FB000F200822F90E01816190614F481E090E0F8
:100FC000882339F0289844E6409378054091F10051
:100FD0004083222339F02091F200211103C02BE637
:100FE0002093E8003FBF08958FEF9FEF089583E0BF
:100FF0008093E9008091F200882319F08AE38093BE
:10100000E800089581508F3008F047C0E82FF0E0E5
:10101000E45FF74F0C94B63229082D081B0821080D
:1010200025084D084D084D08300836083A083E0896
:1010300044084D084808809180008F778093800095
:101040000895809180008F7DF9CF80918000877F07
:10105000F5CF84B58F7784BD089584B58F7DFBCFA0
:10106000809190008F7780939000089580919000F8
:101070008F7DF9CF80919000877FF5CF8091C00060
:101080008F778093C00008958091C0008F7DF9CF45
:101090008091C200877F8093C2000895CF93DF9331
:1010A000EFE7FBE08491E0E6FBE0D491E1E4FBE0D4
:1010B000C491CC23A1F081110E940208EC2FF0E032
:1010C000EE0FFF1FEF5CF44FA591B491EC91ED236F
:1010D00081E090E009F480E0DF91CF91089580E015
:1010E00090E0FACF1F93CF93DF93282F30E0F901E0
:1010F000E358F44F8491F901E25AF44FD491F90185
:10110000E15CF44FC491CC23A9F0162F81110E9409
:101110000208EC2FF0E0EE0FFF1FED5DF44FA591FC
:10112000B4918FB7F894EC91111108C0D095DE23DB
:10113000DC938FBFDF91CF911F910895DE2BF8CF05
:10114000CF93DF9390E0FC01E25AF44F2491815C4D
:10115000944FFC0184918823C9F090E0880F991F77
:10116000FC01EB5EF44FA591B491FC01ED5DF44FF1
:10117000C591D49161110DC09FB7F8948C912095C1
:1011800082238C938881282328839FBFDF91CF916E
:101190000895623051F49FB7F8943C91822F809566
:1011A00083238C93E8812E2BEFCF8FB7F894EC91AB
:1011B0002E2B2C938FBFEACF3FB7F8948091740504
:1011C00090917505A0917605B091770526B5A89BFD
:1011D00005C02F3F19F00196A11DB11D3FBFBA2FC9
:1011E000A92F982F8827BC01CD01620F711D811D89
:1011F000911D42E0660F771F881F991F4A95D1F70E
:1012000008958F929F92AF92BF92CF92DF92EF920A
:10121000FF924B015C010E94DC086B017C010E9483
:10122000DC086C197D098E099F09683E73408105B1
:101230009105A8F321E0821A9108A108B10888EE6F
:10124000C80E83E0D81EE11CF11C81149104A10496
:10125000B10429F7FF90EF90DF90CF90BF90AF904F
:101260009F908F900895EF92FF920F931F93CF93CB
:10127000DF938C017B01D0E0C0E0F701EC0FFD1F94
:101280006491662361F0D801ED91FC910190F081A9
:10129000E02DC8010995892B11F02196EECFCE01E2
:1012A000DF91CF911F910F91FF90EF900895AF9232
:1012B000BF92CF92DF92EF92FF920F931F93CF9343
:1012C000DF936C017B018B01040F151FEB015E01A5
:1012D000AE18BF08C017D10759F06991D601ED913A
:1012E000FC910190F081E02DC6010995892B79F7D9
:1012F000C501DF91CF911F910F91FF90EF90DF908B
:10130000CF90BF90AF900895FC01538D448D252F51
:1013100030E0842F90E0821B930B541710F0CF968F
:10132000089501970895FC01918D828D981761F0C1
:10133000A28DAE0FBF2FB11D5D968C91928D9F5FD8
:101340009F73928F90E008958FEF9FEF0895FC01B7
:10135000918D828D981731F0828DE80FF11D858D6A
:1013600090E008958FEF9FEF0895FC01918D228DFD
:10137000892F90E0805C9F4F821B91098F73992782
:10138000089582E596E00E94B50921E0892B09F4D1
:1013900020E0822F0895FC01A48DA80FB92FB11D64
:1013A000A35ABF4F2C91848D90E001968F7399279B
:1013B000848FA689B7892C93A089B1898C91827476
:1013C0008C93938D848D981306C00288F389E02D49
:1013D00080818F7D80830895EF92FF920F931F93FA
:1013E000CF93DF93EC0181E0888F9B8D8C8D9813D8
:1013F00019C0E889F989808185FF14C09FB7F894E6
:10140000EE89FF896083E889F9898081827480830D
:101410009FBF81E090E0DF91CF911F910F91FF90EE
:10142000EF900895F62E0B8D10E00F5F1F4F0F7396
:101430001127E02E8C8D8E110CC00FB607FCFACF51
:10144000E889F989808185FFF5CFCE010E94CB091B
:10145000F1CFEB8DEC0FFD2FF11DE35AFF4FF08222
:101460009FB7F8940B8FEA89FB8980818062CFCF88
:10147000CF93DF93EC01888D8823B9F0AA89BB89CB
:10148000E889F9898C9185FD03C0808186FD0DC0B6
:101490000FB607FCF7CF8C9185FFF2CF808185FFD7
:1014A000EDCFCE010E94CB09E9CFDF91CF91089516
:1014B00080E090E0892B29F00E94C10981110C94F1
:1014C0000000089520912505260F3327331F213270
:1014D0003105ECF420914905FC0190E080E02430D6
:1014E00069F082E00895A09125052191AC014B5F40
:1014F0005A4FA40FB52FB11D2C930196861798F360
:1015000080912505680F6093250580E0089581E0AE
:10151000089508958FEF9FEF08958FEF9FEF08953F
:101520008091FE0490E09195819591090895CF9363
:10153000DF93CB01EA01642F0E94620ACE01DF91A2
:10154000CF910895CF93DF931F92CDB7DEB7698314
:1015500061E0CE0101960E94620A81E090E00F9066
:10156000DF91CF91089590E080E00895FC012FB7BE
:10157000F8948091700590917105A0917205B091D9
:1015800073052FBF4081518162817381841B950B4C
:10159000A60BB70B4481558166817781481759079F
:1015A0006A077B0730F48085882319F0108681E074
:1015B00081870895DC015296ED91FC9130E020E0A6
:1015C0003097A1F0DC0154964D915C9124173507BA
:1015D00058F4428153814617570741F00190F0813A
:1015E000E02D2F5F3F4FECCFF0E0E0E0CF0108951A
:1015F0000C94F707409116035091170320911403A0
:101600003091150342175307B4F49091E800957098
:10161000E1F39091E80092FD19C08093F100809170
:1016200016039091170301968F739927892B19F44C
:101630008EEF8093E8008091160390911703019636
:10164000909317038093160381E0089580E0089536
:10165000DF92EF92FF920F931F93CF93DF93D82ED9
:101660008A01EB017B01E40EF51ECE15DF0559F072
:10167000D7FE12C0FE0184910E94FA0A21968111C0
:10168000F4CF0FEF1FEFC801DF91CF911F910F91A2
:10169000FF90EF90DF9008958881EECFCF93DF9396
:1016A000CDB7DEB7A0970FB6F894DEBF0FBECDBFA3
:1016B000FC01DB018C918F5F8C939E012D5F3F4F6E
:1016C00088E0D9011D928A95E9F799E0998384E031
:1016D0008A8322E02D8383E08E839A8731E23B87E1
:1016E00091E09C879D873E879F8792E2988B37E0A9
:1016F0003B8B95E09C8B44E84D8B8E8B40E450E017
:10170000588F4F8B64E1698F3A8F9B8F9C8F8D8FA1
:101710005F8F4E8F8AE088A382818B839685878531
:10172000998B8A8B80915E07811103C081E88D8B34
:101730002C8F40E250E0BE016F5F7F4F80E00E943F
:10174000280BA0960FB6F894DEBF0FBECDBFDF9179
:10175000CF9108952FB7F89487708093E900909106
:10176000E800892F807295FF04C09091F20080E418
:10177000891B2FBF08958F929F92AF92BF92CF92F5
:10178000DF92EF92FF920F931F93CF93DF93B82EC8
:101790006B018A018091790581110FC08FEF9FEF56
:1017A000DF91CF911F910F91FF90EF90DF90CF903D
:1017B000BF90AF909F908F90089580911A0380FF03
:1017C00005C08091E00082608093E000C02FD12F9F
:1017D000F12C8AEFE82E8B2D8770982E8B2D80743C
:1017E000882E9AE3A92E209719F4FF2009F443C00C
:1017F0008B2D0E94AA0B81110AC0EA94EE2071F28F
:1018000061E070E080E090E00E940109ECCF8C176D
:101810001D0611F00CF08C2F9FB7F8949092E90000
:101820002091E80025FD02C09FBFDDCF282F30E0CA
:10183000C21BD30BF601815020F041914093F1007F
:10184000FACFC20ED31EFF2021F0A092E800F12CA7
:10185000EBCF8091E80085FD07C0A092E800FF244F
:10186000F394209709F3F3CF2097F1F68820E1F263
:10187000A092E800D9CF5D9884E680931903C8014F
:101880008FCF615030F02091F100FC012083019650
:10189000F8CF289884E6809378050895AF92BF9298
:1018A000DF92EF92FF920F931F93CF93DF935C0130
:1018B0008B01EB019BEFD92E2097C1F07E01C13443
:1018C000D1051CF080E4E82EF12C8091E80082FF25
:1018D000FCCFC8018C1B9D0B6E2D8A0D9B1D0E9499
:1018E000410CD092E800CE19DF09E6CFC801DF91A4
:1018F000CF911F910F91FF90EF90DF90BF90AF902D
:10190000089580910C0381110DC082E0809308033B
:1019100084E08093090310920B0310920A0381E084
:1019200080930C0388E093E008950F931F93CF9367
:10193000DF931F92CDB7DEB7198280915E078823AF
:1019400049F082E0898342E450E060E071E080E0A9
:101950000E94280B0E94810CDC0112960D911C91B3
:101960000115110589F0D801ED91FC910280F381F8
:10197000E02DBE016F5F7F4FC801099597FD04C040
:10198000F80100851185ECCF89810F90DF91CF910F
:101990001F910F910895CF93DF93EC0180915F0128
:1019A000882331F083E00E94BB0B1816190634F02F
:1019B00081E090E09B838A8380E090E0DF91CF918B
:1019C0000895CF93DF931F92CDB7DEB76983DC0113
:1019D000ED91FC910280F381E02D41E050E0BE01E9
:1019E0006F5F7F4F09950F90DF91CF91089583E04E
:1019F0000E94AA0B90E00895CF93DF931F92CDB77A
:101A0000DEB7FC018485958597FD08C02FEF3FEF79
:101A1000358724870F90DF91CF910895CE010196ED
:101A20000E94CD07019719F4898190E0F3CF8FEFE1
:101A30009FEFF0CF0F931F93CF93DF931F92CDB7FC
:101A4000DEB78C01FC018485958597FF0BC0CE0124
:101A500001960E94CD07019771F4898190E0F80109
:101A600095878487F801848595850F90DF91CF91C4
:101A70001F910F9108958FEF9FEFF1CFFC018485A7
:101A8000958597FD0BC09FB7F89482E08093E9009D
:101A90008091F2009FBF90E0019608959FB7F8945F
:101AA00082E08093E9008091F2009FBF90E008956A
:101AB0000F931F93CF93DF93C1E8D5E08C010158BA
:101AC0001540C8018C0F9D1F0E94EA31899386E062
:101AD000C533D807B1F781E895E0DF91CF911F9129
:101AE0000F910895AF92BF92DF92EF92FF920F9302
:101AF0001F93CF93DF935C0101E815E0D0E0C0E0D5
:101B0000F801D1908F017501EC0EFD1EC7010E94F6
:101B1000EA31D81621F06D2DC7010E94F2312196CD
:101B2000C43BD10569F781E895E0DF91CF911F9122
:101B30000F91FF90EF90DF90BF90AF900895FB0161
:101B400001900020E9F73197AF01461B570BDC01EC
:101B5000ED91FC910280F381E02D09948F929F9288
:101B6000AF92BF92EF92FF920F931F93CF93DF93A9
:101B7000CDB7DEB7A1970FB6F894DEBF0FBECDBFCD
:101B80007C01FA01CB0119A2223008F42AE08E016F
:101B90000F5D1F4F822E912CB12CA12CBF01A501EE
:101BA00094010E942432F901CA016A300CF5605D8B
:101BB000D8016E938D01232B242B252B79F790E0F0
:101BC00080E0109721F0BD01C7010E949F0DA196F2
:101BD0000FB6F894DEBF0FBECDBFDF91CF911F913E
:101BE0000F91FF90EF90BF90AF909F908F900895CE
:101BF000695CDECFCF92DF92EF92FF920F931F933B
:101C0000CF93DF936B01770FEE08FF08F7FE1FC03D
:101C1000EC01E881F9810190F081E02D6DE20995F8
:101C20008C0144275527BA014C195D096E097F09BB
:101C30002AE0CE010E94AE0D800F911FDF91CF915F
:101C40001F910F91FF90EF90DF90CF9008952AE0C1
:101C5000B701A601DF91CF911F910F91FF90EF90F7
:101C6000DF90CF900C94AE0D0C94AE0D9A01AB01A9
:101C700070E060E00C94340E9A01462F50E070E062
:101C800060E00C94340E8F929F92AF92BF92CF92ED
:101C9000DF92EF92FF920F931F93CF93DF937C011C
:101CA000EB016C0182E0C80ED11C4701E5E08E0E0D
:101CB000911C10E000E0F60161916F014AE050E0F4
:101CC000CE010E943C0E5C01E881F9810190F08117
:101CD000E02D6EE2CE0109958A0D9B1D080F191F9C
:101CE000C814D90441F74AE050E0F7016581CE01FC
:101CF0000E943C0E800F911FDF91CF911F910F9199
:101D0000FF90EF90DF90CF90BF90AF909F908F901B
:101D1000089564E072E00C949F0D0F931F93CF938E
:101D2000DF93EC010E94FA0D8C01CE010E94890E16
:101D3000800F911FDF91CF911F910F9108950F9305
:101D40001F93CF93DF93EC010E94360E8C01CE01DE
:101D50000E94890E800F911FDF91CF911F910F91EB
:101D600008950F931F93CF93DF93EC010E943C0ED5
:101D70008C01CE010E94890E800F911FDF91CF91BF
:101D80001F910F9108950F931F93CF93DF938C01B1
:101D9000D0E0C0E06115710519F00E949F0DEC01C3
:101DA000C8010E94890E8C0F9D1FDF91CF911F915A
:101DB0000F9108950F931F93CF93DF93EC01FB01D5
:101DC0004481558160817181E881F9810280F381CC
:101DD000E02D09958C01CE010E94890E800F911F84
:101DE000DF91CF911F910F9108950F931F93CF9380
:101DF000DF93EC010E9433098C01CE010E94890E11
:101E0000800F911FDF91CF911F910F9108958F92B5
:101E10009F92AF92BF92CF92DF92EF92FF921F9369
:101E2000CF93DF930E94A507C0909405D0909505AD
:101E3000F12CE12C8090920590909305B12CA12C6F
:101E4000209198053091990550E040E02C193D090A
:101E50004E095F09BC01990F880B990B6819790924
:101E60008A099B090E9400322091960530919705BE
:101E700050E040E0281939094A095B090E944632BE
:101E8000C20ED31EE41EF51ED7FC6EC1D092840193
:101E9000C0928301809183019091840120918201FD
:101EA000222351F090937F0580937E0590938101CA
:101EB000809380011092820140917E0550917F05B0
:101EC0009A01281B390B37FF03C031952195310941
:101ED00060918C05621713067CF421E048175907BE
:101EE0000CF020E020937D0590937F0580937E0584
:101EF00090938101809380012091890530918A051A
:101F00004CE1429FF001439FF00D1124EF57FA4F2F
:101F100046A557A5481759070CF02BC181E08093BF
:101F20007D0510917D051093780110937701C1E034
:101F3000C127C0937A058CE1829FF001839FF00D49
:101F40001124EF57FA4FC4A4D5A4F12CE12C209111
:101F5000800130918101032E000C440B550B2C198C
:101F60003D094E095F09A4E6B0E00E94653222A552
:101F700033A550E040E02C193D094E095F090E944D
:101F80004632D0E037FD06C02536310514F024E690
:101F900030E0D22FD0937F01A0918505B0918605C6
:101FA0002D2F30E00E94A73224E630E040E050E0E0
:101FB0000E942432B90130937E0120937D018091EB
:101FC0007B0590917C05112309F4DCC0856090931A
:101FD0007C0580937B0580917B0590917C05209109
:101FE0007C01D213D1C0916090937C0580937B05D6
:101FF00080917B0590917C05CC2309F4DAC09C018B
:10200000226030937C0520937B05209187053091D9
:1020100088056217730708F0C9C080915E0788239E
:1020200009F4B4C080915D07882309F4AFC06BE365
:102030007CE08FEE96E00E94330960917D01709103
:102040007E0180915E074AE050E0882309F4A3C036
:1020500080915D07882309F49EC08FEE96E00E9470
:102060009F0E20915E07222309F498C080915D079E
:10207000882309F498C08FEE96E0222309F490C0DB
:1020800020915D07EFEEF6E0222309F489C001906C
:10209000F081E02D0680F781E02D099580917B0588
:1020A00090917C05806290937C0580937B05809164
:1020B0007B0590917C0520917A0130917B0112166D
:1020C00013060CF07DC0946090937C0580937B0593
:1020D00080917901882381F080915E07882309F43B
:1020E0006AC080915D07882309F465C064E17CE0E3
:1020F0008FEE96E00E94F50E80917B0590917C0515
:102100009C0120723470232B09F465C09860909371
:102110007C0580937B0580917901882381F08091F3
:102120005E07882309F452C080915D07882309F473
:102130004DC06FEE7BE08FEE96E00E94F50E809131
:102140007B0590917C05886090937C0580937B054E
:10215000DF91CF911F91FF90EF90DF90CF90BF90D4
:10216000AF909F908F9008951092840110928301F8
:1021700091CE40A951A9841795070CF0D2CE1092A8
:102180007D05CFCE8A7F23CF9E7F2ECF67E27CE076
:1021900082E596E050CF82E596E061CF82E596E059
:1021A000E2E5F6E074CF82E596E067CF8F7D82604E
:1021B0007ACF8D7D78CF61E07CE082E596E09ACFA2
:1021C0009B7F90937C0580937B0596CF6DED7BE0A4
:1021D00082E596E0B2CF977F90937C0580937B0554
:1021E000AECFAF92BF92CF92DF92EF92FF920F935A
:1021F0001F93CF93DF93CDB7DEB7C857D1090FB682
:10220000F894DEBF0FBECDBF80915F07909160074D
:10221000DC01ED91FC910680F781E02D09950E948B
:10222000A5079A8389838E010F5F1F4F6E01BBE361
:10223000CB0ED11C78018FE9A82E86E0B82E0E9423
:10224000A507F801819391938F01C5010197F1F7DB
:10225000CE16DF06A1F724EC37E042E050E06DE156
:1022600070E0C7010E94E42E8D8D9E8DC858DF4F0F
:102270000FB6F894DEBF0FBECDBFDF91CF911F9197
:102280000F91FF90EF90DF90CF90BF90AF900895A7
:10229000CF93DF93109232068AEA8093810585E519
:1022A0008093820581E095EA90933406809333060B
:1022B00080E29CE19093840580938305909386054A
:1022C0008093850528E532E03093880520938705C3
:1022D00023E030E030938A052093890571E0709304
:1022E0008B0528E020938C0528E035E03093AC0581
:1022F0002093AB05EAE8F4E0F093AE05E093AD057A
:102300003093B0052093AF0542E954E05093B205F5
:102310004093B10564E06093AA059093B40580935F
:10232000B3051092B505F0939B05E0939A051092C2
:10233000F1051092F00550939F0540939E054EEFD6
:1023400054E05093A3054093A2053093A705209332
:10235000A60524E630E03093FD052093FC0524E635
:1023600035E0309300062093FF052AE134E03093F6
:10237000020620930106C0E0D5E0D0930406C09386
:1023800003064EE754E0509306064093050660931B
:10239000FE05909308068093070610920906309375
:1023A000EF052093EE052FE734E03093F3052093FB
:1023B000F2052BEF34E03093F7052093F60522E089
:1023C00035E03093FB052093FA05E0E5F5E0F09366
:1023D000C805E093C70548EE53E05093CA05409303
:1023E000C905A5E5B5E0B093CC05A093CB0520EBDE
:1023F00034E03093CE052093CD056093C6059093CD
:10240000D0058093CF051092D1055093B705409326
:10241000B6053093BB052093BA05D093BF05C09392
:10242000BE05C4E1D0E0D093F905C093F805F09360
:10243000C305E093C205F093E405E093E3055093F0
:10244000E6054093E505B093E805A093E7053093D2
:10245000EA052093E9056093E2059093EC058093EB
:10246000EB051092ED055093D3054093D2053093C0
:10247000D7052093D60589E090E09093F5058093E9
:10248000F4058AE095E09093DB058093DA0586E415
:1024900095E09093DF058093DE058CE1EEEEF5E0AC
:1024A000AAE0B6E001900D928A95E1F710929505A9
:1024B00010929405109293051092920588E795E08A
:1024C00090939905809398058FEF93E090939705EB
:1024D000809396058AE080938D0585E080938F0533
:1024E00010929005709391051092790167EC70E05D
:1024F00082E596E00E94F50E80915E07882391F0B8
:10250000C0915F016AE070E080E090E00E94010904
:10251000CC2341F06CEA70E08FEE96E0DF91CF9132
:102520000C94F50EDF91CF9108956115710511F0AE
:102530000C949F0D90E080E00895AF92BF92CF92EF
:10254000DF92EF92FF920F931F93CF93DF93EC01F3
:10255000B62E6A0179016BEC7BE00E9433094AE0F8
:1025600050E06B2DCE010E943C0E67EC7BE0CE016B
:102570000E943309C6016CE370E00E9410326C01C6
:102580004AE050E0CE010E94360E65EC7BE0CE01C1
:102590000E9433094AE050E0B601CE010E94360E97
:1025A00063EB7BE0CE010E9433096091830170915F
:1025B0008401CE010E94FA0D6AEA7BE0CE010E94FE
:1025C00033094AE050E0B701CE010E94360E6CE9B3
:1025D0007BE0CE010E94330940E150E0B801CE011A
:1025E0000E94360E82ECC82E81E0D82EF12CE12C10
:1025F000AA24A394B12CC5010E2C02C0880F991FE8
:102600000A94E2F780239123892B59F08BE067E04D
:1026100072E08E1518F0F60160817181CE010E9482
:102620009512FFEFEF1AFF0A82E0C80ED11CEFE00F
:10263000EE16F10401F7CE010E94890EE881F981BE
:102640000680F781E02DCE01DF91CF911F910F9190
:10265000FF90EF90DF90CF90BF90AF900994BF9222
:10266000CF92DF92EF92FF920F931F93CF93DF935E
:10267000DC01EB0158968D919C915997892BB9F00B
:102680008D01B12CCB2CD12CF801E08CF18CC70141
:102690000E949631C816D90610F5F701EC0DFD1D04
:1026A000E491DE01AC0DBD1DEC93B394EBCF88E457
:1026B000888389E4898384E48A831E968C911E979B
:1026C0008F708F5B8B831E968D919C9124E09695E5
:1026D00087952A95E1F78F708F5B8C8385E0DF917A
:1026E000CF911F910F91FF90EF90DF90CF90BF900F
:1026F0000895CF92DF92EF92FF920F931F93CF93A3
:10270000DF9300D0CDB7DEB77C01FB01138113301E
:1027100009F046C0628170E07F6F0E94DA0A00977C
:1027200009F46AC0DC011496FC9014971596DC90AD
:102730008F2D9D2D0E949631E82E1A8381E08E0DFB
:10274000880F898342E050E0BE016F5F7F4F80E0D9
:102750000E94280BCF2C0F2D1D2D802F8C198E152C
:10276000E8F4F801849189831A8242E050E0BE01C6
:102770006F5F7F4F80E00E94280B0F5F1F4F892BF8
:1027800061F780E090E00F900F90DF91CF911F9163
:102790000F91FF90EF90DF90CF90089581E0F2CFFE
:1027A0008081813849F5123239F5D70112962C9182
:1027B00012978481958128171906F1F41C960D91C2
:1027C0001C91D12CC12C0115110589F0F80144810F
:1027D00055816281738180E80E94280B8F3F9807A2
:1027E00091F2C80ED91ED8010D911C91ECCF81E059
:1027F000F701808BC601C7CF90E080E0C4CF0F9374
:102800001F93CF93DF93EC0188819981009759F052
:102810002A813B812617370730F081E0DF91CF9185
:102820001F910F9108958B016F5F7F4F0E94BC3203
:10283000009759F0998388831B830A832C813D81FB
:10284000232B59F7FC011082E8CF80E0E7CFCF932C
:10285000DF93EC0188819981009711F00E94122E7C
:10286000198218821D821C821B821A82DF91CF91ED
:102870000895EF92FF920F931F93CF93DF938C01F4
:102880007B01EB0109900020E9F72197C61BD70BCC
:10289000BE010E94FF13811109C0C801DF91CF91D1
:1028A0001F910F91FF90EF900C942714F801D5839E
:1028B000C483B70180819181DF91CF911F910F91E6
:1028C000FF90EF900C948A33EF92FF920F931F9337
:1028D000CF93DF93EC018B01CB010E9496317C01F9
:1028E000BC01CE010E94FF1381110BC0CE010E94DA
:1028F0002714CE01DF91CF911F910F91FF90EF90A0
:102900000895FD82EC82B801888199810E948F31FF
:10291000F0CFFC0180819181009711F00C94122E70
:102920000895AF92BF92CF92DF92EF92FF920F93F2
:102930001F93CF93DF93CDB7DEB76E970FB6F894A2
:10294000DEBF0FBECDBF8C016B017A011A8E198ECE
:102950001C8E1B8E1E8E1D8EB901CE0149960E94C3
:102960006414F601808191818D30910519F00A97E8
:1029700009F08FC0C98CDA8CC80101960E946831B9
:102980008C0180915F07909160070230110560F122
:1029900060EC7CE00E943309B60180915F07909162
:1029A00060070E94951260EA7CE080915F07909139
:1029B00060070E94F50E10E010928005CE01499646
:1029C0000E948914812F6E960FB6F894DEBF0FBE59
:1029D000CDBFDF91CF911F910F91FF90EF90DF90CE
:1029E000CF90BF90AF90089560E97CE00E943309DA
:1029F000A0905F07B0906007F70180811C8A1B8A56
:102A00001E8A1D8A188E1F8A4AE0BE016F5F7F4FA3
:102A100090E00E949F31BE016F5F7F4FCE014396D1
:102A20000E943914BE016D5E7F4FC5010E94DA0E0F
:102A3000CE0143960E9489140170F70100836BE870
:102A40007CE080915F07909160070E943309B60196
:102A500080915F07909160070E94951261E87CE089
:102A600080915F07909160070E943309F7016081B0
:102A700070E080915F07909160070E948D0E6BE57A
:102A80007CE080915F07909160070E94F50E11E055
:102A900093CF10E093CF0F931F93CF93DF93CDB7D6
:102AA000DEB761970FB6F894DEBF0FBECDBF8C01C5
:102AB000CB01F801118210821382128215821482D6
:102AC00050E0BE016F5F7F4F0E94B231BE016F5F69
:102AD0007F4FC8010E94391461960FB6F894DEBF8B
:102AE0000FBECDBFDF91CF911F910F9108950F932E
:102AF0001F93CF93DF93CDB7DEB729970FB6F89426
:102B0000DEBF0FBECDBF8C01862FF801118210826F
:102B1000138212821582148250E0BE016F5F7F4FD4
:102B200090E00E94B231BE016F5F7F4FC8010E94EA
:102B3000391429960FB6F894DEBF0FBECDBFDF91D2
:102B4000CF911F910F9108952F923F924F925F92D4
:102B50006F927F928F929F92AF92BF92CF92DF92AD
:102B6000EF92FF920F931F93CF93DF93CDB7DEB712
:102B700028970FB6F894DEBF0FBECDBFE0E15E2E02
:102B8000A11002C03AE0532EFB01608171816D30CB
:102B9000710521F06A30710509F0EEC0AF821701AE
:102BA000380128877A01A52CB12CA50170E060E0DE
:102BB00001960E945130462E062F172F80915F07F5
:102BC00090916007E016F10608F040C063E57DE0F3
:102BD0000E943309B60180915F07909160070E94BF
:102BE000951263E47DE080915F07909160070E94F9
:102BF00033094AE050E0B70180915F079091600788
:102C00000E94360E60E47DE080915F07909160073E
:102C10000E94F50E80E01092800528960FB6F89479
:102C2000DEBF0FBECDBFDF91CF911F910F91FF90FF
:102C3000EF90DF90CF90BF90AF909F908F907F905C
:102C40006F905F904F903F902F9008950815190551
:102C5000F8F46FE27DE00E943309B60180915F07CE
:102C6000909160070E9495126EE17DE080915F0770
:102C7000909160070E9433094AE050E0B4018091CE
:102C80005F07909160070E94360E6BE17DE0BCCF3C
:102C90006BE07DE00E943309FF81FF2341F068E093
:102CA0007DE080915F07909160070E943309E0907A
:102CB0005F07F09060078885882309F447C0452D99
:102CC000F3016081CE0101960E947715BE016F5F0E
:102CD0007F4FC7010E94DA0ECE0101960E9489142F
:102CE000F301408263E07DE080915F07909160078F
:102CF0000E943309B60180915F07909160070E949E
:102D0000951269EF7CE080915F07909160070E94C7
:102D10003309FF81FF2341F066EF7CE080915F077C
:102D2000909160070E943309A501B80180915F0767
:102D3000909160070E949F0E60ED7CE080915F079C
:102D4000909160070E94F50E81E065CFF1016081EE
:102D50007181452DCE0101960E944B15BE016F5F1A
:102D60007F4FC7010E94DA0ECE0101960E9489149E
:102D7000F10111830083B6CF80E04FCF2F923F92B5
:102D80004F925F926F927F928F929F92AF92CF926B
:102D9000DF92EF92FF920F931F93CF93DF9300D0B8
:102DA00000D000D01F92CDB7DEB73C012B011A0135
:102DB0007901B8011A8219821C821B821E821D822F
:102DC000CE0101960E946414C980DA80912C812C76
:102DD000A12C8E01095F1F4F20E0A101B201C301A8
:102DE0000E94A415782ECE0101960E948914872D89
:102DF00027960FB6F894DEBF0FBECDBFDF91CF91FF
:102E00001F910F91FF90EF90DF90CF90AF909F9028
:102E10008F907F906F905F904F903F902F9008958C
:102E20002F923F924F925F926F927F928F929F92DA
:102E3000AF92CF92DF92EF92FF920F931F93CF93B7
:102E4000DF93CDB7DEB72A970FB6F894DEBF0FBE7B
:102E5000CDBF3C012B015A8749871901B8011A825D
:102E600019821C821B821E821D82CE0101960E9445
:102E700064148C2C912CC980DA80AE2CCE0107967C
:102E80007C01810121E049855A85B201C3010E947C
:102E9000A415C82ECE0101960E9489148C2D2A9665
:102EA0000FB6F894DEBF0FBECDBFDF91CF911F915B
:102EB0000F91FF90EF90DF90CF90AF909F908F9009
:102EC0007F906F905F904F903F902F9008951F9349
:102ED000CF93DF9385ED8093BC00809101059091A5
:102EE0000205A0910305B09104050796A11DB11D2F
:102EF00023E0B695A795979587952A95D1F72091C8
:102F0000BC0024FD03C01092490552C04091010548
:102F1000509102056091030570910405452B462BE5
:102F2000472B69F30097A105B10541F02AE22A95E4
:102F3000F1F700C00197A109B109E1CF8091000527
:102F4000C1E0C093FF04882399F1D091B80010919B
:102F5000BA008091BC008A7B8093BC0060E082E074
:102F60000E94720860E083E00E9472081092490596
:102F7000C0934B0510924A0561E082E00E947208FE
:102F800061E083E00E9472088091B9008E7F809397
:102F9000B9008091B9008D7F8093B90088E4809357
:102FA000B80085E48093BC001093BA00D093B800B9
:102FB000DF91CF911F9108950F931F93CF93DF93CC
:102FC000CDB7DEB7E2970FB6F894DEBF0FBECDBF28
:102FD0008091640381117FC082E080934E0381E081
:102FE00080934F0324E533E0309351032093500343
:102FF00010925303109252032AEB31E030934B03AB
:1030000020934A03109257031092560310925903CB
:103010001092580380935A0380935B0381EC809352
:10302000540380EC809355030E94810C8C01DC01D9
:1030300011968C91119790914E03890F9927991FA2
:1030400008970CF045C01296ED91FC9113973097BC
:10305000B1F58AE493E013969C938E93129762E005
:1030600082E00E94A00880915E0781116AC00E94E0
:103070004E08892BE9F110924C0310924D03F80190
:10308000808190914F03890F808330914E039091FE
:103090005003E92FF09151038E2F891B8317C0F441
:1030A000D80111968C912191A82FB0E0A059BE4F64
:1030B0002C938F5FD80111968C93EECFFC01808505
:1030C00091850097D9F78AE493E091878087C7CFED
:1030D00081E0809364038AE493E0E2960FB6F8946B
:1030E000DEBF0FBECDBFDF91CF911F910F9108952D
:1030F00082E3EBE0F2E0BE016F5F7F4FDB01019006
:103100000D928A95E1F78CE693E0FC010190002096
:10311000E9F7CF018D569340DB010D900020E9F7D0
:10312000AD01461B570B20E931E0281B390B421734
:10313000530720F484599C4F0E94813381E080938F
:103140005E0782E080934C0384E080934D0397CF29
:10315000CF92DF92EF92FF920F931F93CF93DF9363
:1031600000D0CDB7DEB78C017B016A010E94DC176D
:103170001A83098341E050E0BE016F5F7F4F84E016
:103180000E94BB0B8C0197FD09C0A601B70184E426
:103190000E94BB0B080F191F97FD8C01C8010F90EF
:1031A0000F90DF91CF911F910F91FF90EF90DF90E3
:1031B000CF9008957F928F929F92AF92BF92CF92BD
:1031C000DF92EF92FF920F931F93CF93DF93CDB7D0
:1031D000DEB7A8970FB6F894DEBF0FBECDBFFC01D7
:1031E0004281FB01248135814217130611F020E052
:1031F0002BC08B0131812081213A09F03FC0313051
:10320000C1F52381233011F021E01EC0628170E0FE
:103210000E94DA0A8C01009751F341E050E0BC01B2
:103220006E5F7F4F80E00E94280B18161906FCF68F
:10323000F801468157816481758180E00E94280BE6
:1032400021E0181619069CF6822FA8960FB6F8945E
:10325000DEBF0FBECDBFDF91CF911F910F91FF90C9
:10326000EF90DF90CF90BF90AF909F908F907F9026
:10327000089521E0333009F0BACFE6CF213209F0CA
:10328000B6CF3B3021F42281FC01208BBDCF3A30F8
:1032900021F42281FC01218BB7CF393009F0A7CF6F
:1032A0002381233009F0A3CF628170E00E94DA0A03
:1032B0005C01009709F49BCFF801E680F780FC01E0
:1032C000868197810196E816F90609F090CF81E092
:1032D00090E0E114F10409F0C7010E94762D6C0121
:1032E000B7010E944E0CF6018180912CF801868175
:1032F0009781039718F0F6018281982AF80182815C
:1033000077247394813141F48091FD048F5F809321
:10331000FD048092FC04712C8CE6E82E83E0F82EEC
:10332000F70101900020E9F78DEF94E08E1B9F0BD1
:10333000C39708F48CC081E1EDE3F2E0BE016F5F5A
:103340007F4FDB0101900D928A95E1F7FB0101901F
:103350000020E9F7AF01F70101900020E9F7CF0164
:10336000461B570B01970E948133F801628170E080
:103370008E010D5D1F4FC8010E94771FF80101905B
:103380000020E9F7AF01F70101900020E9F7CF0134
:10339000401B510BB80101970E94813387E0EEE496
:1033A000F2E0DE015C9601900D928A95E1F7BE0194
:1033B000645E7F4FFB0101900020E9F7AF01F70148
:1033C00001900020E9F7CF01461B570B01970E949F
:1033D0008133B401C8010E94771FF80101900020D9
:1033E000E9F7AF01F70101900020E9F7CF01401B99
:1033F000510BB80101970E94813371101BC08AE004
:10340000E5E5F2E0DE01529601900D928A95E1F732
:10341000BE016E5E7F4FFB0101900020E9F7AF0116
:10342000F70101900020E9F7CF01461B570B0197E8
:103430000E948133ACE6B3E00D900020E9F71197CC
:1034400083E0EAECF2E001900D928A95E1F7F60153
:103450002081F501828193812817190609F0C7CED2
:10346000772049F046815781B6016F5F7F4F848195
:1034700095810E948133C114D10409F4C5CEC601DF
:103480000E94122EC1CEAF92BF92CF92DF92EF92E6
:10349000FF920F931F93CF93DF937C016B015A012F
:1034A000E901DC0152960D911C9190E080E001153C
:1034B000110531F589E090E00E94762DFC01118222
:1034C0001082D382C282B582A482DD27D783C683CD
:1034D000D70153969C938E935297F70184899589CF
:1034E0000196958B848BDF91CF911F910F91FF9067
:1034F000EF90DF90CF90BF90AF9008950196890133
:10350000F801228133812C153D0569F32081318139
:103510002115310599F789E090E00E94762DFC0194
:1035200011821082D382C282B582A482DD27D78322
:10353000C683D8018D939C93D0CFCF92DF92EF9228
:10354000FF920F931F93CF93DF93C82F6B018A01D4
:103550000E94DC176C2F70E021E030E0A6010E9491
:10356000431AEC01892B89F00E94DC177C01C80109
:103570000E949631F601608170E07F6F9C01A80186
:10358000C7010E94431AC80FD91FCE01DF91CF9106
:103590001F910F91FF90EF90DF90CF900895EF92E1
:1035A000FF920F931F93CF93DF93EC018B017A016E
:1035B0000E94DC179701A801BE01DF91CF911F91F6
:1035C0000F91FF90EF900C94431A1F920F920FB639
:1035D0000F9211242F933F938F939F93AF93BF9399
:1035E0008091700590917105A0917205B09173055D
:1035F00030916F0523E0230F2D3758F50196A11D5B
:10360000B11D20936F058093700590937105A09371
:103610007205B09373058091740590917505A09122
:103620007605B09177050196A11DB11D80937405B3
:1036300090937505A0937605B0937705BF91AF91F0
:103640009F918F913F912F910F900FBE0F901F90E0
:10365000189526E8230F0296A11DB11DD2CF1F9207
:103660000F920FB60F9211242F933F934F935F93B6
:103670006F937F938F939F93AF93BF93EF93FF933A
:1036800082E596E00E94CB09FF91EF91BF91AF9147
:103690009F918F917F916F915F914F913F912F916A
:1036A0000F900FBE0F901F9018951F920F920FB69C
:1036B0000F9211242F938F939F93EF93FF93E09199
:1036C0006206F09163068081E0916806F0916906D8
:1036D00082FD1BC0908180916B068F5F8F7320915C
:1036E0006C06821741F0E0916B06F0E0EE5AF94F5C
:1036F000958F80936B06FF91EF919F918F912F9102
:103700000F900FBE0F901F9018958081F4CF1F92DD
:103710000F920FB60F9211242F933F934F935F9305
:103720006F937F938F939F93AF93BF93EF93FF9389
:103730008091B900887F803609F44AC0F0F588325C
:1037400009F4A5C018F5803109F499C0B8F48823AC
:1037500009F4F5C0883009F492C0FF91EF91BF9150
:10376000AF919F918F917F916F915F914F913F9119
:103770002F910F900FBE0F901F901895883109F46C
:1037800086C0803251F78093480514C0803409F414
:103790009BC040F48033B9F38833F9F68093480531
:1037A00085ECAEC0803509F483C0883509F494C037
:1037B000883499F60E946717D0CF883909F48AC0F7
:1037C00038F5883729F050F4883611F0803729F61B
:1037D00083E0809349051092470555C0883809F465
:1037E00079C0803919F0803809F0B7CF809147054A
:1037F000803208F06FC0E091470581E08E0F809322
:1038000047058091BB00F0E0E95DFA4F80833BC043
:10381000803B39F0D0F4803A09F477C0883A09F057
:103820009CCF84E0809349051092260510922505CF
:10383000F0E0E0E009958091250581110FC081E05D
:10384000809325051092050509C0803C09F4A8CF96
:10385000883C09F4A5CF883B09F07FCFE09126058D
:1038600081E08E0F80932605F0E0EB5FFA4F8081B8
:103870008093BB00909126058091250529C08091F9
:103880006E058093BB0085EC8093BC0066CF909161
:103890006D0580916C05981758F5E0916D0581E0F4
:1038A0008E0F80936D05F0E0E45BFA4F8081E9CFE5
:1038B000E0916D0581E08E0F80936D058091BB00D6
:1038C000F0E0E45BFA4F808390916D0580916C0588
:1038D0009817C8F285E8D8CFE0916D0581E08E0F8A
:1038E00080936D058091BB00F0E0E45BFA4F80832C
:1038F00080914B0581115ECF81E080934A0584EA77
:103900008093BC001092490528CF85EC8093BC00C1
:103910001092490580914705803230F4E0914705C7
:10392000F0E0E95DFA4F10826091470570E087E2B0
:1039300095E0F0E0E0E00995109247050ECF109277
:10394000480538CF1F920F920FB60F9211242F9374
:103950003F934F935F936F937F938F939F93AF9317
:10396000BF93CF93EF93FF93C091E1008091E1006B
:10397000837F8093E100C3FF1DC080915E07882391
:1039800009F459C082E1EBE8F1E0A6E4B1E001906E
:103990000D928A95E1F71092E90081E08093EB00A7
:1039A0001092EC0082E38093ED001092790588E09C
:1039B0008093F000C2FF1AC00E94F707809119039C
:1039C000882341F08091190381508093190381115C
:1039D00001C05D9A80917805882341F08091780537
:1039E000815080937805811101C0289AC4FF27C0B7
:1039F0008091E2008E7E81608093E2008091E10000
:103A00008F7E8093E10080911A038E7E8061809387
:103A10001A03FF91EF91CF91BF91AF919F918F9139
:103A20007F916F915F914F913F912F910F900FBEBA
:103A30000F901F90189582E1EDE9F1E0A6CFC0FF4D
:103A4000E8CF8091E2008E7E80618093E2008091D9
:103A5000E1008E7E8093E10080911A038E7E81606A
:103A6000D6CF1F920F920FB60F921124CF92DF92F2
:103A7000EF92FF920F931F932F933F934F935F9378
:103A80006F937F938F939F93AF93BF93EF93FF9326
:103A9000CF93DF93CDB7DEB76C97DEBFCDBF10926B
:103AA000E9008091E80083FF25C068E0CE014596DB
:103AB0000E94410C82EF8093E8008D8987FF39C016
:103AC0009091E80090FFFCCF982F907609F038C1D4
:103AD0009E894F89588D2F89F88C911131C080387B
:103AE00061F580911B038093F1001092F1008EEF3D
:103AF0008093E8006C960FB6F894DEBF0FBECDBF82
:103B0000DF91CF91FF91EF91BF91AF919F918F91F5
:103B10007F916F915F914F913F912F911F910F91E5
:103B2000FF90EF90DF90CF900F900FBE0F901F90FF
:103B300018959EEF9093E800C7CF1092F100D5CF73
:103B4000913059F48111D3CF4130510581F68091E4
:103B50001B038D7F80931B03CACF933049F48111DF
:103B6000C6CF4130510519F680911B038260F2CF18
:103B7000953041F48091E80080FFFCCF20682093CD
:103B8000E300B5CF963009F0A9C00B8D1C8D22E063
:103B90001092E9001092170310921603F2122EC031
:103BA00010921503109214030E94950C1F8299E045
:103BB0009983FA8291E09E8390EA98879AEF998799
:103BC0002091160330911703275F3F4F3C832B83CF
:103BD0008D831092E9001092170310921603109330
:103BE00015030093140349E050E0BE016F5F7F4F5F
:103BF00080E00E94280B0E94950C79CF109315034A
:103C0000009314030E94810CDC0112960D911C910B
:103C10000115110509F452C1D801ED91FC91048000
:103C2000F581E02DBE016B5E7F4FC80109950097BD
:103C300009F03FC1F80100851185EACFF3E0FF12DA
:103C40000EC08F89882309F440C0823061F440E8B7
:103C500060E182EF90E00E94AE1F811148CF81E2C7
:103C60008093EB0047CF813029F440E86BE086EE8B
:103C700090E0F1CF833099F70E94810CDC0112961D
:103C8000ED90FC908E010F5F1F4F6801E114F1046D
:103C900079F0D701ED91FC910680F781E02DB80114
:103CA000C7010995080F111DF701E084F184EECFDB
:103CB000D8011C92F60101900020E9F73197BF016D
:103CC0006C197D0940E0C601C6CFE2EEF0E04491F8
:103CD00050E0BF0180E80E94280B09CF973009F41B
:103CE000BECF983021F481E08093F10000CF99306D
:103CF00009F0FDCE837009F0B2CF80915E07882372
:103D0000B1F0E1E7F1E081E031E096E32191222397
:103D100071F08093E9003093EB00DF0111972C9153
:103D20002093EC009093ED008F5F873079F78EE75A
:103D30008093EA001092EA008F8980937905D7CEAC
:103D40008B8D9C8D1092E900109217031092160330
:103D5000909315038093140380915E07882309F4E0
:103D60008DC0898D81118AC08E899D89913A41F4D7
:103D7000813209F074CF47E050E068E571E0B5C0EA
:103D8000913209F06CCF833269F48F89988DB0E05D
:103D9000A0E08093420190934301A0934401B0932B
:103DA0004501A5CE803239F467E070E088E591E006
:103DB0000E944E0C9CCE823209F099CE8F8980935E
:103DC0005F01EEEFFFE785919491E0E0F8E08B3F33
:103DD0009C4D11F4EEEFFAE0809158019091590159
:103DE000A0915A01B0915B01803B9440A105B105BF
:103DF000D9F480915F0180FD17C0EE3F8AE0F8079B
:103E000071F587E797E791838083809160008093C5
:103E1000180388E19BE00FB6F894A89580936000A2
:103E20000FBE9093600063CE808191818737974762
:103E300009F05DCEA8958091600088618093600054
:103E40008091180380936000EE3F2AE0F20789F02A
:103E50008091FE0A9091FF0A9183808348CE8081F1
:103E600091818737980769F29093FF0A8093FE0A41
:103E7000C8CF1092FF0A1092FE0A39CE0E94810C20
:103E8000DC0112960D911C910115110509F4E7CE84
:103E9000D801ED91FC910190F081E02DBE016B5EA7
:103EA0007F4FC8010995811122CEF8010085118547
:103EB000EBCF181619060CF41ACED1CEF1E0FF1292
:103EC000BDCE80915E0781110CC08DE195E090938D
:103ED0004F0180934E0183E090E0909351018093D5
:103EE000500142E150E066E471E080E0F4CE0F93CF
:103EF0001F93CF93DF93AB0120E041155105F9F4F7
:103F000030E0EC01C20FD31FDE018901015011091D
:103F1000A817B907E9F0AB014F705527E4E0769593
:103F20006795EA95E1F7FD01E21BF30BE00FF11F46
:103F30004A30510558F4405D40831197E9CF2F5F17
:103F4000F4E056954795FA95E1F7D7CF495CF4CF61
:103F50001882DF91CF911F910F910895EF92FF92F8
:103F60000F931F93CF93DF93F82E192FE62E042F74
:103F700081E0860F880F0E94FA0A83E00E94FA0A05
:103F8000CF2DD12FEC0EFD2EF11CCE15DF05B9F093
:103F900007FF13C0FE0184910E94FA0A182F80E0E7
:103FA0000E94FA0A812321968111EFCFDF91CF91F0
:103FB0001F910F91FF90EF9008958881EDCF81E0E0
:103FC000F5CF109255061092540688EE93E0A0E0CB
:103FD000B0E08093560690935706A0935806B0938E
:103FE00059068EED91E090935306809352068DEC26
:103FF00090E090935F0680935E068CEC90E0909347
:1040000061068093600688EC90E09093630680934D
:10401000620689EC90E090936506809364068AECD2
:1040200090E090936706809366068EEC90E0909304
:1040300069068093680610926B0610926C061092C7
:104040006D0610926E0682E092E0909336068093A1
:1040500035061092370610923806109239061092E3
:104060003A0690933C0680933B0610923D061092D0
:104070003E0610923F061092400682E080934F0663
:1040800081E08093500693E090935106909147060B
:10409000911112C0109242061092410623E63DE0B3
:1040A000309344062093430620E931E030934606DE
:1040B00020934506809347060E94DC17FC01A485E7
:1040C000B585109709F054C081E496E09587848700
:1040D000868597852091450630914606820F931F6D
:1040E000978786871092F2061092F10688EE93E089
:1040F000A0E0B0E08093F3069093F406A093F50659
:10410000B093F60680EF91E09093F0068093EF066F
:104110008FEF9FEF9093FC068093FB0682E092E086
:10412000909362078093610710926307109264076F
:10413000109265071092660780915E07882311F13F
:1041400080915D078823F1F08FEE96E090936007F1
:1041500080935F0710925C0710925B0710925207E2
:104160001092510710924807109247070895DC01FA
:104170008D919C9111970097D1F781E496E08D93F2
:104180009C93A6CF82E596E0E1CFCF93DF93CDB7A6
:10419000DEB7E8970FB6F894DEBF0FBECDBF81E162
:1041A000EDE8F2E0DE01599601900D928A95E1F773
:1041B0008CE693E0FC0101900020E9F7CF018D56D9
:1041C0009340BE01675E7F4FFB0101900020E9F73D
:1041D000AF01461B570B20E931E0281B390B421772
:1041E000530720F484599C4F0E948133F89462E075
:1041F00082E00E94A0080E944E08892B19F481E0F9
:1042000080935E07789461E087E00E94A00861E0F7
:1042100086E00E94A00861E085E00E94A00860E0BE
:1042200087E00E94720860E086E00E94720860E009
:1042300085E00E94720880915E07882309F451C2CC
:1042400061E087E00E94720860E086E00E947208E8
:10425000789484B5826084BD84B5816084BD85B561
:10426000826085BD85B5816085BD80916E0081606D
:1042700080936E0010928100809181008260809313
:104280008100809181008160809381008091800015
:104290008160809380008091910082608093910082
:1042A0008091910081608093910080919000816065
:1042B000809390008091C10084608093C1008091C0
:1042C000C10082608093C1008091C10081608093B1
:1042D000C1008091C30081608093C3008091C000C1
:1042E00082608093C0008091C20081608093C20090
:1042F00080917A00846080937A0080917A00826055
:1043000080937A0080917A00816080937A00809116
:104310007A00806880937A001092790510921B03CE
:1043200010921A038091D70081608093D70080EAB1
:104330008093D80089B5806189BD89B5826089BDC7
:1043400009B400FEFDCF61E070E080E090E00E94E3
:1043500001098091D8008F7C80618093D800809182
:10436000E000807F8093E0008091E1008E7E80936A
:10437000E1008DE08093E200559A209A88E1EEE911
:10438000F2E09E012F5F3F4F5901D90101900D923C
:104390008A95E1F78CE693E0FC0101900020E9F7B3
:1043A000CF018D569340F90101900020E9F7AF014C
:1043B000421B530B20E931E0281B390B42175307EE
:1043C00028F4B50184599C4F0E948133E091620624
:1043D000F091630682E08083E0915E06F0915F06D3
:1043E0001082E0916006F091610680E18083109276
:1043F0006A06E0916606F091670686E08083E091A8
:104400006406F0916506808180618083E091640696
:10441000F0916506808188608083E0916406F09168
:104420006506808180688083E0916406F09165066E
:1044300080818F7D808390E080E00E94580D809184
:104440005E07909181059A3A09F051C190918205D9
:10445000953509F04CC12091330630913406213056
:10446000354A09F044C1811106C062E671E082E577
:1044700096E00E94F50E809132068170809379015A
:1044800080918F0580933A030E94DC170E94DC170D
:1044900021E030E04FE456E061E070E00E94431A12
:1044A0000E94DC1721E030E041E556E062E070E078
:1044B0000E94431A0E94DC1721E030E040E556E0FC
:1044C00063E070E00E94431A0E94DC1720E331E0B1
:1044D000FC01318F208F80915E07882339F00E9484
:1044E000DC172FEE36E0FC01378B268B62E084E090
:1044F0000E94A00860E087E10E94A00861E08DE0D2
:104500000E94720861E088E00E94A00861E088E0F3
:104510000E947208809146039091470385609160E4
:10452000909347038093460381E0809378018093C2
:10453000770110927A050E94070F42E050E066E48E
:1045400073E087E090E00E94CF1A42E050E06CE612
:1045500071E08DE090E00E94CF1A42E050E063E805
:1045600075E08AE190E00E94CF1A42E050E065E8F1
:1045700075E08CE190E00E94CF1A42E050E067E8DD
:1045800075E088E090E00E94CF1A42E050E063E6D8
:1045900071E083E190E00E94CF1A42E050E06AE7C8
:1045A00071E082E190E00E94CF1A41E050E062E6C3
:1045B00071E086E090E00E94CF1A41E050E061E6B1
:1045C00071E086E190E00E94CF1A42E050E064EB97
:1045D00071E08AE090E00E94CF1A42E050E06AE683
:1045E00071E08BE090E00E94CF1A41E050E060E67D
:1045F00071E084E190E00E94CF1A41E050E063EB6B
:1046000071E087E190E00E94CF1A41E050E06CE752
:1046100071E08EE090E00E94CF1A41E050E06EE63B
:1046200071E08CE090E00E94CF1A41E050E06DE82C
:1046300075E08FE090E00E94CF1A41E050E06FE813
:1046400075E081E190E00E94CF1A41E050E062EB1A
:1046500071E080E190E00E94CF1A41E050E061EB10
:1046600071E088E190E00E94CF1A4BE251E060EBEC
:1046700071E08FE10E949D1A41E251E06FEA71E022
:1046800080E20E949D1A8091890590918A052CE113
:10469000289FF001299FF00D1124EF57FA4F82A5B2
:1046A00093A5909381018093800180915E07882378
:1046B00009F444C08FEF9FEF9093FC068093FB06B4
:1046C00010915F016AE070E080E090E00E940109D3
:1046D000111124C06AE070E080E090E00E940109BE
:1046E000EFCF60E087E00E94720861E0AECD8111FB
:1046F00006C066E371E082E596E00E94F50E0E9436
:10470000481180E091E00E94720D90E080E00E94EC
:10471000720D80E091E00E94580DADCE81E0809353
:104720005D0762E171E08FEE96E00E9433096091CF
:104730005E0770E08FEE96E00E948D0E63E071E000
:1047400082E596E00E94330960915E0770E082E5A1
:1047500096E00E948D0E82E596E00E94380A11E0F4
:104760001093780110927A0568EC70E080E090E098
:104770000E94010910925C072FB7F8948091700590
:1047800090917105A0917205B09173052FBF809330
:10479000530790935407A0935507B09356078AE0A8
:1047A00090E0A0E0B0E08093570790935807A09363
:1047B0005907B0935A0710935B079CE3892E912CFD
:1047C00095012D56374038AF2FAB28EE422E23E00F
:1047D000522E612C712C80916F01882331F187E179
:1047E000E6EBF2E0D50101900D928A95E1F78CE6B7
:1047F00093E0FC0101900020E9F7CF018D56934032
:10480000F50101900020E9F7AF014A195B0920E9A1
:1048100031E0281B390B4217530728F4B50184599E
:104820009C4F0E94813310926F018CE1282E1091D1
:104830005E07112309F4D4C080915D07882309F431
:10484000CFC08FEE96E00E943E0D892B09F48FC5F4
:1048500080915D07882309F4CCC08FEE96E00E941A
:10486000FC0C7C0180917901882369F06E2D112365
:1048700009F4C4C080915D07882309F4BFC08FEE9E
:1048800096E00E94E10CE0918005EE3108F065C5EC
:10489000FDE0EF16F104A9F02AE0E216F10489F038
:1048A0003FEEE316F10469F0C7018B7F8B3B910566
:1048B00041F081E08E0F80938005F0E0E45EFC4FD4
:1048C000E082E0918005F0E0E45EFC4F1082809190
:1048D0007901882381F080915E07882309F493C0D1
:1048E00080915D07882309F48EC062EA79E08FEE3B
:1048F00096E00E94330980917901882381F08091AC
:104900005E076CE173E0882309F482C080915D0743
:10491000882309F47DC08FEE96E00E949512809165
:104920007901882381F080915E07882309F473C0A0
:1049300080915D07882309F46EC06EE979E08FEEFF
:1049400096E00E94F50E80918005882309F49BC0B3
:1049500080915E07882331F080915D070FEE16E0AD
:10496000811102C002E516E0F9AAE8AA10936007D7
:1049700000935F074DE0E416F10429F08AE0E816A1
:10498000F10409F054CF80911C03082E000C990B00
:104990000E947933883409F4C2C10CF08AC0833490
:1049A00009F46AC1ECF58F3309F4B9C1823409F412
:1049B000C3C06DE876E0C8010E9433096CE173E082
:1049C000C8010E9495126AE876E0C8010E94F50EBF
:1049D0006EE776E0C8010E94F50E10921C034DC0F0
:1049E00082E596E00E94B509892B09F4C0C4111133
:1049F0002FCF82E596E00E94930933CF82E596E0BF
:104A00000E94EC0940CF60EA79E082E596E071CF40
:104A100082E596E082CF6CE979E082E596E091CF7D
:104A2000843409F486C4853421F680911D03082E50
:104A3000000C990B0E9479338E34910509F071C0F6
:104A400080911E03082E000C990B0E9479332EE5ED
:104A500039E040E955E08334910541F08235910514
:104A600009F05FC024E339E041E955E0BE01605D33
:104A70007F4F8EE193E00E94911410928005809107
:104A800080058111D4CE80917901882309F4CFCE9D
:104A900080915E07882309F465C480915D078823AF
:104AA00009F460C465E979E08FEE96E00E9433096D
:104AB000BECE833509F47CC3DCF48E3409F44AC4D9
:104AC000813509F076CF60EB76E0C8010E943309AA
:104AD00070E060E0C8010E948D0E60EA76E0C801D7
:104AE0000E94330970E060E0C8010E948D0EC5CFBE
:104AF0008A3509F467C38E3709F4A3C3843509F0F6
:104B000058CF80911D03082E000C990B0E94793319
:104B1000833409F46DC0843409F48CC069E078E012
:104B200002C060E179E0C8010E9433096CE173E0E2
:104B3000C8010E94C30EA1CF80911D03082E000C56
:104B4000990B0E9479338634B1F03CF48334C1F17F
:104B5000853441F16AE678E0E6CF863509F440C055
:104B60008935C1F7C12CE12C0BE818E02CE835E0C1
:104B700044E650E02DC08091890590918A05289ED9
:104B80009001299E300D112425553A4F0AEF18E067
:104B900048E55BE1BE01605D7F4F8DE193E00E94DF
:104BA000BE166BCF8091890590918A05289E900151
:104BB000299E300D112423553A4F0AEE18E0E8CF14
:104BC000C12CE12C0FEB18E029E835E044E050E07F
:104BD000BE01605D7F4F8DE193E00E9410174DCFC5
:104BE000CC24C394E12C0DEA18E02BE835E0EECF9D
:104BF0008091830590918405B4010E9410327A83DC
:104C0000698308E418E0950140E45FE1BE01605D5E
:104C10007F4F8DE193E00E94BE1629813A81ECE33B
:104C2000E29FC001E39F900D11249093840580932F
:104C3000830523CF8091850590918605B4010E945C
:104C400010327A83698303E218E0950140E45FE162
:104C5000BE01605D7F4F8DE193E00E94BE16298109
:104C60003A81FCE3F29FC001F39F900D11249093D1
:104C700086058093850501CF80911D03082E000CC9
:104C8000990B0E947933883429F18C3409F044C09F
:104C900080919405909195059A83898304EF17E09C
:104CA000950140E45FE1BE01605D7F4F8DE193E0DF
:104CB0000E94BE16882309F4E0CE89819A819093E0
:104CC0009505809394050E94F1109093930580932D
:104CD0009205D3CE80919805909199059A83898306
:104CE0000CED17E0950140E45FE1BE01605D7F4F90
:104CF0008DE193E00E94BE16882309F4BECE89811F
:104D00009A8190939905809398050E94F110909351
:104D1000970580939605B1CE6BEB77E004CF809139
:104D20001D03082E000C990B0E947933853409F479
:104D3000A4CE803509F044C0C8010E94890E6AE6FD
:104D400076E0C8010E94330960916C0170916D0199
:104D50004AE050E0C8010E949F0E66E576E0C80177
:104D60000E9433094AE050E060916E01C8010E9440
:104D7000B10E62E476E0C8010E9433094AE050E0D7
:104D800060918F05C8010E94B10E6EE276E0C80105
:104D90000E9433096091800170918101C8010E94D5
:104DA0008D0E68E176E0C8010E94330960914603E8
:104DB0007091470340E150E0C8010E949F0E5DCE14
:104DC0006AE076E0C8010E94F50EC8010E94890ED3
:104DD0006FEB75E0C8010E94F50E61EB75E0C8014C
:104DE0000E94330963E672E0C8010E94C30EC80145
:104DF0000E94890E6FE975E0C8010E94F50E66E712
:104E000075E0C8010E9433096091900570E0C80107
:104E10000E948D0E64E475E0C8010E943309609120
:104E2000900570E0C8010E948D0E62E175E0C80136
:104E30000E9433096091910570E0C8010E948D0EB7
:104E400061EE74E0C8010E94F50E66EC74E0C801E2
:104E50000E94F50E64E974E0C8010E943309609174
:104E6000890570918A05C8010E948D0E62E674E082
:104E7000C8010E9433094AE050E060918C05C801E6
:104E80000E94B10E60E374E0C8010E9433094AE059
:104E900050E060918B05C8010E94B10E6EEF73E087
:104EA000C8010E9433098091890590918A05289E46
:104EB000F001299EF00D1124EF57FA4F62A573A55A
:104EC0004AE050E0C8010E949F0E6CEC73E0C801FC
:104ED0000E9433098091890590918A05289EF001EE
:104EE000299EF00D1124EF57FA4F64A575A54AE0ED
:104EF00050E0C8010E949F0E6AE973E0C8010E9459
:104F000033098091830590918405B4010E94103289
:104F10004AE050E0C8010E949F0E68E673E0C801B5
:104F20000E9433098091850590918605B4010E9405
:104F300010324AE050E0C8010E949F0E66E373E021
:104F4000C8010E94330960919405709195054AE06B
:104F500050E0C8010E94360E6FE273E0C8010E9463
:104F6000F50E63E173E0C8010E9433096091920578
:104F7000709193054AE050E0C8010E94360E61E14D
:104F800073E0C8010E94F50E6FED72E0C8010E9447
:104F9000330960919805709199054AE050E0C80185
:104FA0000E94360E68ED72E0C8010E94F50E6BEBB0
:104FB00072E0C8010E9433096091960570919705CF
:104FC0004AE050E0C8010E94360E69EB72E0C80169
:104FD0000E94F50E67E872E0C8010E9433094AE0BA
:104FE00050E060918F05C8010E943C0E65E872E0B8
:104FF000C8010E94F50E66E672E0C8010E94F50E37
:105000006EE372E0C8010E94F50E69E172E0C8012A
:105010000E94330940E150E060913206C8010E94CD
:10502000B10E63E072E0C8010E9433096091800113
:1050300070918101C8010E948D0E6FEE71E0C80170
:105040000E9433094AE050E060916E01C8010E945D
:105050003C0E6BEE71E0C8010E94330980916C0137
:1050600090916D01B4010E9410324AE050E0C801F5
:105070000E94360E69EE71E0C8010E9433098091EA
:105080006C0190916D01B4010E9410324AE050E031
:10509000BC01C8010E949F0E6BED71E0C8010E9427
:1050A000330980917A056FE572E0811102C061E6F3
:1050B00072E0C8010E9495126DEC71E0C8010E9477
:1050C0003309609146037091470340E150E0C80105
:1050D0000E949F0E6AEB71E0C8010E943309809123
:1050E000670790916807B501681B790B892B11F44C
:1050F0006FA978ADC8010E948D0E65EF75E0C801FB
:105100000E94F50E67ED75E0C8010E94F50E4AE0B9
:1051100064EB70E0CE018A960E944B151A821982C8
:105120001C821B821E821D8261E170E0C5010E940B
:10513000FF1381112EC0C5010E942714CAA4DBA44D
:10514000C114D10489F1EEA4FFA4E114F104A9F083
:105150008D819E81E80EF91EB701C5010E94FF13E3
:10516000882311F129813A818D819E81B601820FB8
:10517000931F0E948A33FE82ED82B501C8010E940E
:10518000DA0EC5010E948914CE018A960E94891404
:1051900074CC81E190E09E838D8369E772E0898120
:1051A0009A810E948A33CACFC5010E942714E5CF95
:1051B00090E080E00E94720D6BE977E0C8010E94E8
:1051C000F50E5BCC80911D03082E000C990B0E94FC
:1051D000793383349105B9F480911E03082E000CB5
:1051E000990B0E9479338434910539F466E777E0AE
:1051F000C8010E94F50E0E9448118091320681700C
:10520000809379013ACC83359105A1F480911E03F6
:10521000082E000C990B0E9479338634910569F7AA
:1052200080E091E00E94720D6EE477E0C8010E9478
:10523000F50EE3CF80E091E00E94580D69EF76E033
:10524000F5CF64EA71E0C8010E943309F12CE12C2A
:10525000D12CC12C312CC7018C0D9D1D0E94EA312F
:105260008F3F11F0332433942FEFC21AD20A30E16A
:10527000C316D10481F7E114F10419F0332009F4C5
:105280004AC06FE971E0C8010E9433096DE971E01D
:10529000C8010E9433094FEFE416F10409F070F4DD
:1052A0006BE971E0C8010E94330980E1E816F1045E
:1052B00028F469E971E0C8010E94330940E150E037
:1052C000B701C8010E94360E67E971E0C8010E946B
:1052D00033096701312CC6010E94EA318EAB80315F
:1052E00028F465E971E0C8010E94330940E150E00B
:1052F0006EA9C8010E943C0E9FE0391629F063E9AF
:1053000071E0C8010E943309EFEFCE1ADE0A339430
:10531000F0E13F12E0CF20E1E20EF11CE11434E0B5
:10532000F30609F095CF6FE771E0C8010E943309D9
:10533000A4CBC12CEE24E39404EE16E022E336E085
:105340004FEF50E0BE01605D7F4F8CE193E00E9423
:10535000101753CF64EC76E031CF10928005109295
:105360001C038DCB6EE879E082E596E09FCB8FE35E
:1053700097E00E94B60A80914807909147079111E3
:105380001EC04092430750924407609245077092B6
:1053900046079FB7F8944091700550917105609150
:1053A0007205709173059FBF40933F07509340076C
:1053B000609341077093420741E040934707109282
:1053C0004807882309F4C2C180914803909149039A
:1053D000019690934903809348030E94070F8091A0
:1053E0005E0790919005811102C0909191052091E6
:1053F0007B0530917C05992309F493C280917F014C
:1054000080936E01309347032093460380917D0182
:1054100090917E0190936D0180936C0120914603E1
:105420003091470380914203909143032817390735
:10543000C1F490916E0180914103981312C02091A4
:105440006C0130916D0180913F03909140032817CA
:10545000390739F480914803909149030B970CF474
:10546000D1C060E088E00E94720880915E078823C6
:1054700021F080915D07811130C36BEE7AE082E507
:1054800096E00E94330982E596E000914603109170
:105490004703209180013091810140916C0150912E
:1054A0006D0160916E010E949D1280915E078823BC
:1054B00009F4A8C280915D07882309F4A3C261EDB5
:1054C0007AE08FEE96E00E94330941E050E06EE60C
:1054D00071E08CE090E00E94A818BC0190933E031C
:1054E00080933D0380915E07882309F490C28091E8
:1054F0005D07882309F48BC28FEE96E00E94FA0DB7
:1055000080915E076BE872E0882309F483C2809182
:105510005D07882309F47EC28FEE96E00E94951203
:1055200080917A05882359F142E050E06CE671E001
:105530008DE090E00E94A818BC0190933E038093F8
:105540003D0380915E07882309F467C280915D075F
:10555000882309F462C28FEE96E00E94FA0D8091D2
:105560005E076BE872E0882309F45AC280915D07F8
:10557000882309F455C28FEE96E00E94951242E00E
:1055800050E066E473E087E090E00E94A818BC0158
:1055900090933E0380933D0380915E07882309F436
:1055A00042C280915D07882309F43DC28FEE96E0E8
:1055B0000E948D0E61E088E00E94720810924903FB
:1055C00010924803809146039091470390934303C0
:1055D0008093420380916E018093410380916C011E
:1055E00090916D019093400380933F0380913D0320
:1055F00090913E0397FD1AC281E090E090933C03A6
:1056000080933B0380917901882381F080915E072C
:10561000882309F40EC280915D07882309F409C22A
:105620006CEA7AE08FEE96E00E943309809179016E
:10563000882391F0609180017091810180915E07D3
:10564000882309F4FBC180915D07882309F4F6C122
:105650008FEE96E00E948D0E80916C038823E1F01E
:1056600080915E076CE673E0882309F4EAC18091BB
:105670005D07882309F4E5C18FEE96E00E94C30E12
:1056800080915E07882331F06CE673E082E596E056
:105690000E94951210926C038091FD04882309F4F6
:1056A0004EC080915E07882309F4CEC180915D07CA
:1056B000882309F4C9C16BE77AE08FEE96E00E9477
:1056C00033096091FC0480915E0740E150E088233B
:1056D00009F4BFC180915D07882309F4BAC18FEE38
:1056E00096E00E943C0E80915E07882309F4B4C1C5
:1056F00080915D07882309F4AFC16AE47AE08FEEF8
:1057000096E00E94F50E80915E078823A1F069E182
:105710007AE082E596E00E94330940E150E0609132
:10572000FC0482E596E00E943C0E6EE07AE082E5A1
:1057300096E00E94F50E1092FD041092FC048091F8
:105740005E07882309F48DC10E94F70780913B030F
:1057500090913C038130910509F488C108F498C107
:10576000029709F48CC183E597E00E94B60A809104
:105770005C07811110925B0710925C07882349F146
:10578000109252072FB7F89480917005909171058F
:10579000A0917205B09173052FBF80934907909334
:1057A0004A07A0934B07B0934C07EAA9FBA9CF0186
:1057B000B0E0A0E080934D0790934E07A0934F0771
:1057C000B0935007F1E0F093510760E08DE00E9444
:1057D000720889E497E00E94B60A8091520781110D
:1057E0001092510710925207882349F110925C07DA
:1057F0002FB7F8948091700590917105A091720572
:10580000B09173052FBF8093530790935407A093D3
:105810005507B09356072CA93DA9C901B0E0A0E0F7
:105820008093570790935807A0935907B0935A074E
:1058300031E030935B0761E08DE00E947208809157
:10584000670790916807009709F42BC1F501E81BE1
:10585000F90BCF0120916501309166018217930702
:1058600034F5909366018093650180915E078823EB
:1058700009F41AC180915D07882309F415C16BEF03
:1058800079E08FEE96E00E94330960916501709196
:10589000660180915E07882309F40BC180915D0742
:1058A000882309F406C18FEE96E00E948D0E809148
:1058B0008F0590913A03891721F180933A038091E3
:1058C0005E07882309F4F8C080915D07882309F4F6
:1058D000F3C066EC79E08FEE96E00E9433096091A8
:1058E0003A0380915E074AE050E0882309F4E9C05A
:1058F00080915D07882309F4E4C08FEE96E00E9452
:10590000B10E80E090E0892B11F40C94EB230E94FF
:10591000C109882311F40C94EB230E9400000C941D
:10592000EB2394E690936E0140E25CE150936D01AD
:1059300040936C0144E051E0509347034093460389
:1059400090918B056091AB057091AC05969FA0017D
:10595000979F500D112450936B0140936A01409121
:1059600044035091450342175307C9F420917F0126
:1059700090916901291313C040917D0150917E01DE
:1059800020916701309168014217530741F420913B
:105990004803309149032B3031050CF43FCD882367
:1059A00021F080915D0781118FC06FEF7AE082E571
:1059B00096E00E94330982E596E000917B05109104
:1059C0007C05209180013091810140917D015091B1
:1059D0007E0160917F010E949D1280917B059091D4
:1059E0007C05909345038093440380917D019091C1
:1059F0007E01909368018093670180917F0180937D
:105A000069010CCD67EB7AE082E596E05CCD82E53A
:105A100096E074CD82E596E081CD82E596E09DCD5D
:105A200082E596E0AACD82E596E0C2CD82E090E0E4
:105A3000E5CD61EA7AE082E596E0F6CD82E596E092
:105A400009CE82E596E01ACE65E57AE082E596E039
:105A500036CE82E596E045CE6FE37AE082E596E0C9
:105A600050CE82E596E00E94380A70CE84E690E03F
:105A70009BAB8AABE4E8F3E0FDABECAB74CE24E87F
:105A800033E03BAB2AAB84E690E09DAB8CAB6BCEB6
:105A9000E4EFF1E0FBABEAAB24EF31E03DAB2CAB44
:105AA00062CE8FA998ADD6CE68EE79E082E596E019
:105AB000EACE82E596E0F9CE64EA79E082E596E006
:105AC0000CCF82E596E01BCF6AE07BE08FEE96E09C
:105AD0000E9433098FEE96E070CF65EF7AE08FEE8B
