:100000000C94E0040C9408050C9408050C94080565
:100010000C9408050C9408050C9408050C9408052C
:100020000C9408050C9408050C94A7140C94361530
:100030000C9408050C9408050C9408050C9408050C
:100040000C9408050C9408050C9408050C940805FC
:100050000C9408050C9408050C9408050C94EA12FD
:100060000C9408050C945A130C9434130C94080542
:100070000C9408050C9408050C9408050C940805CC
:100080000C9408050C9408050C9408050C940805BC
:100090000C948C130C9408050C9408050C9408051A
:1000A0000C9408050C9408050C94080552657374AB
:1000B0006F72656420666163746F7279206465662F
:1000C00061756C74732E00526573746F7265642071
:1000D000666163746F72792064656661756C7473B0
:1000E0002E000403090441726475696E6F204C4C44
:1000F000430041726475696E6F204C656F6E61726A
:10010000646F004D79436F6F6C55505300506241DE
:1001100063005550533130004552524F523A204EF1
:1001200065656420746F20646F20636F6E66696715
:1001300075726174696F6E20616E64207772697484
:100140006520746F20454550524F4D2E20557369E0
:100150006E672044656661756C74732E00476F6F1F
:10016000643A20454550524F4D20697320696E69AD
:100170007469616C697A65642E000D0A24242D452A
:100180004E4420454550524F4D0D0A0D0A002000A7
:10019000300020003000300030000D0A2420000D17
:1001A0000A24242D454550524F4D20434F4E54456F
:1001B0004E54533A004261747465727920566F6CE4
:1001C000746167652A3130303A200044782020205D
:1001D0002D20446562756720666C6167732020205E
:1001E00020202020202020202020203A20307800AD
:1001F000202028562A31303029002020566F6C7478
:10020000616765732077696C6C20616C77617973C5
:1002100020626520656E746572656420696E206871
:10022000756E647265647468732E200020202849FE
:100230006620796F75206D65617375726564203114
:10024000322E343520766F6C74732C20656E746595
:100250007220434831323435290020207768657296
:1002600065207676767620697320746865206D65E2
:1002700061737572656420766F6C7461676520695F
:100280006E2068756E647265746873206F66206195
:1002900020766F6C742E00202077697468206120AE
:1002A000676F6F64206469676974616C20766F6C36
:1002B00074206D657465722E20456E7465722074AD
:1002C000686520636F6D6D616E6420434876767655
:1002D000762E002020486F6F6B20746865206C6557
:1002E000616473206261636B20757020746F207489
:1002F000686520626174746572792E204D65617342
:100300007572652074686520766F6C74616765002E
:10031000202053686F7274207468656D20746F6755
:1003200065746865722E20456E7465722074686508
:1003300020636F6D6D616E6420434C3020285A65D8
:10034000726F2C206E6F74204F68292E002020447D
:100350006973636F6E6E6563742074686520626193
:10036000747465727920766F6C746167652073654B
:100370006E7365206C656164732066726F6D2074A6
:10038000686520626174746572792E2020002054A3
:100390006F2063616C69627261746520766F6C7442
:1003A0006167652073656E73696E6720666F722082
:1003B0007468697320626F6172643A0029002020BA
:1003C00020202020202020284869676820562041CE
:1003D00032442076616C75653A200020562A31300F
:1003E000300043486E6E6E6E202D2043616C696252
:1003F00072617465206869676820766F6C746167E4
:100400006520706F696E742028562A31303029209B
:10041000203A2000290020202020202020202028F1
:100420004C6F772056204132442076616C75653AD6
:10043000200020562A31303000434C6E6E6E6E2004
:100440002D2043616C696272617465206C6F772046
:10045000766F6C7461676520706F696E74202856C2
:100460002A313030292020203A200054446E6E6E0C
:100470006E202D204176652E2054696D6520666FB3
:10048000722066756C6C204469736368617267657D
:1004900020286D696E75746573293A200054436E87
:1004A0006E6E6E202D2041766572616765205469FD
:1004B0006D6520746F2066756C6C7920436861727D
:1004C000676520286D696E75746573293A2000424E
:1004D000456E6E6E6E202D204261747465727920B7
:1004E000456D70747920766F6C746167652020208B
:1004F0002020202020202028562A313030293A2060
:100500000042466E6E6E6E202D20426174746572DC
:10051000792046756C6C2043686172676520766F40
:100520006C746167652020202028562A31303029DC
:100530003A200020202020202020202028303D4E5E
:100540006F205043207265706F7274696E672F73ED
:10055000687574646F776E2E20313D456E61626CF4
:10056000656400454E6E202020202D20454E61629E
:100570006C65207265706F7274696E672F53687551
:1005800074646F776E20746F20746F2074686520B8
:1005900050433A200050726573656E742053657441
:1005A00074696E67733A00536D61727420555053CD
:1005B00020456D756C61746F722076302E310000AD
:1005C0000A2D2D2D2D4D656E752D2D2D2D00446F71
:1005D0006E277420666F7267657420746F202853CD
:1005E0002961766520746865206E65772076616C78
:1005F000756521002073657420746F3A20004E6584
:100600007720004F6C642076616C7565207761738C
:100610003A20002076616C756521204D6178206953
:100620007320312028666F72206120626F6F6C2901
:100630002E0A004572726F723A20496E76616C69BB
:100640006420000A556E6B6E6F776E20636F6D6D60
:10065000616E64205B004344435F41434D5F494EFC
:10066000544552464143453A200042616420636F3D
:100670006D6D616E642E2053686F756C64206265C9
:10068000204E4C206F72204E48000A526573746FE2
:1006900072656420466163746F7279204465666197
:1006A000756C74732E2E2E0D0A204D757374206494
:1006B0006F2027532720746F207361766520746F35
:1006C00020454550524F4D20286E6F6E2D766F6C31
:1006D0006174696C65206D656D6F7279292E000AF1
:1006E0005361766564206E65772076616C75652848
:1006F000732920746F20454550524F4D2E0A005DDE
:10070000005D005B005B0000000000240027002A61
:10071000002D00300000000000250028002B002ED6
:10072000003100000000002300260029002C002FCB
:100730000004040404040304050202020204030288
:100740000202020606060606060404020202040469
:1007500004080201104080401020408040800802C0
:100760000401804020100201108010204040200031
:1007700000000200090F0000030401000C0000004B
:100780000000000000000000000000000000446FB6
:100790006E277420666F7267657420746F2028530B
:1007A0002961766520746865206E65772076616CB6
:1007B000756521003078002073657420746F3A20CD
:1007C000004E657720003078004F6C642076616CB5
:1007D0007565207761733A20002E0A002220766129
:1007E0006C756521204D696E206973200045727219
:1007F0006F723A20496E76616C69642022002E0A7D
:10080000002076616C756521204D61782069732028
:10081000004572726F723A20496E76616C6964208D
:1008200000070605040100080A0B0C0D09058409E0
:1008300004A1010924A10275089501150026FF00F5
:10084000850109FE7902B123850209FF7903B123ED
:10085000850309FD7901B12305858506098BB1233F
:10086000851F09897904B1238520098F7905B12372
:100870008516092CB1238510098D266400B12285C7
:1008800018098EB123850E0967B18385170983B1D5
:1008900083850C096681A30966B1A3850F098CB114
:1008A000A285110929B1A285090985751027FFFFC5
:1008B0000000B1A3851A096A27FFFF000066011036
:1008C0005500B1A3851C096981A30969B1A3850DF0
:1008D000096881A30968B1A38508092A75102764EE
:1008E0000500001678008122092AB1A2058485122C
:1008F000095716008027FF7F0000B1A28513095514
:10090000B1A2850A0940150027FFFF00006721D129
:10091000F0005505B123850B093081A30930B1A33F
:100920008514095A750815012503650055008122B3
:10093000095AB1A20902A10285070585094475017A
:100940001500250181A30944B1A3094581A30945E7
:10095000B1A309D081A309D0B1A309D181A309D141
:10096000B1A3094281A30942B1A3094381A209436A
:10097000B1A2094B81A3094BB1A309DB81A309DB18
:10098000B1A3094681A30946B1A3094781A3094739
:10099000B1A30584096881A20968B1A2096981A38C
:1009A0000969B1A3097381A30973B1A3096581A37F
:1009B0000965B1A395028101B101C0C0C0007C17D7
:1009C00011241FBECFEFDAE0DEBFCDBF13E0A0E001
:1009D000B1E0E2EAF3E502C005900D92AC3CB1074C
:1009E000D9F728E0ACECB3E001C01D92A130B2070A
:1009F000E1F714E0C0EED4E004C02197FE010E94AC
:100A0000CF27CF3DD107C9F70E9454180C94CF29A6
:100A10000C940000E6E2F8E0E49190917B008E2FC8
:100A2000880F880F80729F7D892B80937B00E770F1
:100A3000E064E0937C0080917A00806480937A0087
:100A400080917A0086FDFCCF8091780090917900AA
:100A50000895FC0180819181FB0120813181821BFD
:100A6000930B0895FC018091CD06882311F13FB7C7
:100A7000F89482E08093E9002091F200822F90E0C8
:100A80001816190614F481E090E0882339F02898AC
:100A900044E64093CC064091F1004083222339F094
:100AA0002091F200211103C02BE62093E8003FBF04
:100AB00008958FEF9FEF089583E08093E900809180
:100AC000F200882319F08AE38093E80008952FB795
:100AD000F89483E08093E9009091E800892F807278
:100AE00095FF04C09091F20080E4891B2FBF089508
:100AF00081508F3008F047C0E82FF0E0EE57FA4FF2
:100B00000C94CF279F05A305910597059B05C30569
:100B1000C305C305A605AC05B005B405BA05C305F4
:100B2000BE05809180008F7780938000089580912A
:100B300080008F7DF9CF80918000877FF5CF84B5CD
:100B40008F7784BD089584B58F7DFBCF8091900011
:100B50008F77809390000895809190008F7DF9CFDA
:100B600080919000877FF5CF8091C0008F77809330
:100B7000C00008958091C0008F7DF9CF8091C200A0
:100B8000877F8093C2000895CF93DF93282F30E0B2
:100B9000F901E159F84F8491F901E05BF84FD491E4
:100BA000F901EF5CF84FC491CC23A1F081110E94B0
:100BB0007805EC2FF0E0EE0FFF1FED5DF84FA591EB
:100BC000B491EC91ED2381E090E009F480E0DF91B5
:100BD000CF91089580E090E0FACF1F93CF93DF93F9
:100BE000282F30E0F901E159F84F8491F901E05BD9
:100BF000F84FD491F901EF5CF84FC491CC23A9F0E0
:100C0000162F81110E947805EC2FF0E0EE0FFF1FE8
:100C1000EB5EF84FA591B4918FB7F894EC91111158
:100C200008C0D095DE23DC938FBFDF91CF911F9159
:100C30000895DE2BF8CFCF93DF9390E0FC01E05BCB
:100C4000F84F24918F5C984FFC0184918823C9F060
:100C500090E0880F991FFC01E95FF84FA591B491CE
:100C6000FC01EB5EF84FC591D49161110DC09FB7A7
:100C7000F8948C91209582238C9388812823288353
:100C80009FBFDF91CF910895623051F49FB7F894E0
:100C90003C91822F809583238C93E8812E2BEFCF7C
:100CA0008FB7F894EC912E2B2C938FBFEACF3FB7E0
:100CB000F8948091C8069091C906A091CA06B09197
:100CC000CB0626B5A89B05C02F3F19F00196A11DA4
:100CD000B11D3FBFBA2FA92F982F8827BC01CD0186
:100CE000620F711D811D911D42E0660F771F881FE5
:100CF000991F4A95D1F708958F929F92AF92BF9214
:100D0000CF92DF92EF92FF924B015C010E94570657
:100D10006B017C010E9457066C197D098E099F09A1
:100D2000683E734081059105A8F321E0821A91087D
:100D3000A108B10888EEC80E83E0D81EE11CF11CA2
:100D400081149104A104B10429F7FF90EF90DF9082
:100D5000CF90BF90AF909F908F900895EF92FF92A9
:100D60000F931F93CF93DF938C017B01D0E0C0E002
:100D7000F701EC0FFD1F6491662361F0D801ED913E
:100D8000FC910190F081E02DC8010995892B11F0AB
:100D90002196EECFCE01DF91CF911F910F91FF9061
:100DA000EF900895AF92BF92CF92DF92EF92FF92B1
:100DB0000F931F93CF93DF936C017B018B01040F83
:100DC000151FEB015E01AE18BF08C017D10759F01F
:100DD0006991D601ED91FC910190F081E02DC60161
:100DE0000995892B79F7C501DF91CF911F910F915B
:100DF000FF90EF90DF90CF90BF90AF900895FC01EF
:100E0000538D448D252F30E0842F90E0821B930B6F
:100E1000541710F0CF96089501970895FC01918D15
:100E2000828D981761F0A28DAE0FBF2FB11D5D9618
:100E30008C91928D9F5F9F73928F90E008958FEFBA
:100E40009FEF0895FC01918D828D981731F0828D6E
:100E5000E80FF11D858D90E008958FEF9FEF0895C5
:100E6000FC01918D228D892F90E0805C9F4F821B29
:100E700091098F739927089586EE96E00E943007B6
:100E800021E0892B09F420E0822F0895FC01A48D34
:100E9000A80FB92FB11DA35ABF4F2C91848D90E09C
:100EA00001968F739927848FA689B7892C93A0897F
:100EB000B1898C9182748C93938D848D981306C024
:100EC0000288F389E02D80818F7D80830895EF92E1
:100ED000FF920F931F93CF93DF93EC0181E0888FF4
:100EE0009B8D8C8D981319C0E889F989808185FFC5
:100EF00014C09FB7F894EE89FF896083E889F98967
:100F00008081827480839FBF81E090E0DF91CF91E8
:100F10001F910F91FF90EF900895F62E0B8D10E02A
:100F20000F5F1F4F0F731127E02E8C8D8E110CC099
:100F30000FB607FCFACFE889F989808185FFF5CFE4
:100F4000CE010E944607F1CFEB8DEC0FFD2FF11D76
:100F5000E35AFF4FF0829FB7F8940B8FEA89FB8921
:100F600080818062CFCFCF93DF93EC01888D88237F
:100F7000B9F0AA89BB89E889F9898C9185FD03C0FC
:100F8000808186FD0DC00FB607FCF7CF8C9185FFE1
:100F9000F2CF808185FFEDCFCE010E944607E9CFD9
:100FA000DF91CF91089580E090E0892B29F00E9495
:100FB0003C0781110C940000089520917906260FBA
:100FC0003327331F21323105ECF420919D06FC01BB
:100FD00090E080E0243069F082E00895A0917906E5
:100FE0002191AC01475A594FA40FB52FB11D2C9335
:100FF0000196861798F380917906680F60937906B9
:1010000080E0089581E0089508958FEF9FEF08959F
:101010008FEF9FEF08958091520690E09195819512
:1010200091090895CF93DF93CB01EA01642F0E94C9
:10103000DD07CE01DF91CF910895CF93DF931F920B
:10104000CDB7DEB7698361E0CE0101960E94DD076E
:1010500081E090E00F90DF91CF91089590E080E0E3
:101060000895FC012FB7F8948091C4069091C506AD
:10107000A091C606B091C7062FBF40815181628101
:101080007381841B950BA60BB70B44815581668138
:101090007781481759076A077B0730F480858823D2
:1010A00019F0108681E081870895DC015296ED9158
:1010B000FC9130E020E03097A1F0DC0154964D9196
:1010C0005C912417350758F442815381461757071E
:1010D00041F00190F081E02D2F5F3F4FECCFF0E029
:1010E000E0E0CF0108950C945C054091DA03509143
:1010F000DB032091D8033091D90342175307B4F48E
:101100009091E8009570E1F39091E80092FD19C08C
:101110008093F1008091DA039091DB0301968F7345
:101120009927892B19F48EEF8093E8008091DA03D8
:101130009091DB0301969093DB038093DA0381E0C7
:10114000089580E00895EF92FF920F931F93CF933D
:10115000DF93F82E192FE62E042F81E0860F880FDB
:101160000E94750883E00E947508CF2DD12FEC0EE8
:10117000FD2EF11CCE15DF05B9F007FF13C0FE01EF
:1011800084910E947508182F80E00E9475088123C1
:1011900021968111EFCFDF91CF911F910F91FF9099
:1011A000EF9008958881EDCF81E0F5CFDF92EF9247
:1011B000FF920F931F93CF93DF93D82E8A01EB01F9
:1011C0007B01E40EF51ECE15DF0559F0D7FE12C0E7
:1011D000FE0184910E94750821968111F4CF0FEFD2
:1011E0001FEFC801DF91CF911F910F91FF90EF90FA
:1011F000DF9008958881EECFCF93DF93CDB7DEB730
:10120000A0970FB6F894DEBF0FBECDBFFC01DB0187
:101210008C918F5F8C939E012D5F3F4F88E0D901A9
:101220001D928A95E9F799E0998384E08A8322E008
:101230002D8383E08E839A8731E23B8791E09C8700
:101240009D873E879F8792E2988B37E03B8B95E0A6
:101250009C8B44E84D8B8E8B40E450E0588F4F8B35
:1012600064E1698F3A8F9B8F9C8F8D8F5F8F4E8F3C
:101270008AE088A382818B8396858785998B8A8B68
:101280008091F207811103C081E88D8B2C8F40E2A1
:1012900050E0BE016F5F7F4F80E00E94D608A096AD
:1012A0000FB6F894DEBF0FBECDBFDF91CF9108958A
:1012B000615030F02091F100FC0120830196F8CFBD
:1012C000289884E68093CC060895AF92BF92DF926F
:1012D000EF92FF920F931F93CF93DF935C018B01EB
:1012E000EB019BEFD92E2097C1F07E01C134D105CF
:1012F0001CF080E4E82EF12C8091E80082FFFCCF06
:10130000C8018C1B9D0B6E2D8A0D9B1D0E945809D8
:10131000D092E800CE19DF09E6CFC801DF91CF9166
:101320001F910F91FF90EF90DF90BF90AF900895C5
:101330008091D00381110DC082E08093CC0384E0C2
:101340008093CD031092CF031092CE0381E080935F
:10135000D0038CEC93E008950F931F93CF93DF930A
:101360001F92CDB7DEB719828091F207882349F02A
:1013700082E0898342E450E060E071E080E00E9416
:10138000D6080E949809DC0112960D911C91011556
:10139000110589F0D801ED91FC910280F381E02DD7
:1013A000BE016F5F7F4FC801099597FD04C0F8012A
:1013B00000851185ECCF89810F90DF91CF911F912E
:1013C0000F9108958F929F92AF92BF92CF92DF922A
:1013D000EF92FF920F931F93CF93DF936C017B01EA
:1013E0008A0180915F01882309F45CC08091CD0659
:1013F000882309F457C08091DE0380FF05C08091E7
:10140000E00082608093E000E801B12C8AEFA82E12
:1014100093E0892E2AE3922E209711F4BB20D9F174
:101420000E94670581110AC0AA94AA20D9F161E03F
:1014300070E080E090E00E947C06EECF8C171D06E5
:1014400011F00CF08C2F9FB7F8948092E900209156
:10145000E80025FD02C09FBFDFCF282F30E0C21B70
:10146000D30BF701815020F041914093F100FACF66
:10147000E20EF31EBB2021F09092E800B12CEBCFDE
:101480008091E80085FDE7CF9092E800BB24B394FB
:10149000209709F3F3CF5D9884E68093DD0310165F
:1014A00011063CF081E090E0F6019383828310E026
:1014B00000E0C801DF91CF911F910F91FF90EF9055
:1014C000DF90CF90BF90AF909F908F900895CF9373
:1014D000DF931F92CDB7DEB76983DC01ED91FC91FC
:1014E0000280F381E02D41E050E0BE016F5F7F4F4D
:1014F00009950F90DF91CF9108950E94670590E0C4
:101500000895CF93DF931F92CDB7DEB7FC0184859A
:10151000958597FD08C02FEF3FEF358724870F9003
:10152000DF91CF910895CE0101960E943205019777
:1015300019F4898190E0F3CF8FEF9FEFF0CF0F93F5
:101540001F93CF93DF931F92CDB7DEB78C01FC01C1
:101550008485958597FF0BC0CE0101960E943205C8
:10156000019771F4898190E0F80195878487F801EB
:10157000848595850F90DF91CF911F910F910895EC
:101580008FEF9FEFF1CFFC018485958597FD0BC010
:101590009FB7F89482E08093E9008091F2009FBFAA
:1015A00090E0019608959FB7F89482E08093E90057
:1015B0008091F2009FBF90E00895FB010190002010
:1015C000E9F73197AF01461B570BDC01ED91FC9118
:1015D0000280F381E02D09948F929F92AF92BF9287
:1015E000EF92FF920F931F93CF93DF93CDB7DEB7A8
:1015F000A1970FB6F894DEBF0FBECDBF7C01FA01F4
:10160000CB0119A2223008F42AE08E010F5D1F4F92
:10161000822E912CB12CA12CBF01A50194010E9416
:101620002326F901CA016A300CF5605DD8016E937A
:101630008D01232B242B252B79F790E080E0109748
:1016400021F0BD01C7010E94DD0AA1960FB6F894F2
:10165000DEBF0FBECDBFDF91CF911F910F91FF90E5
:10166000EF90BF90AF909F908F900895695CDECF10
:10167000242FAB0170E060E00C94EC0A8F929F92F3
:10168000AF92BF92CF92DF92EF92FF920F931F9390
:10169000CF93DF937C01EB016C0182E0C80ED11C7B
:1016A0004701E5E08E0E911C10E000E0F60141914B
:1016B0006F0150E070E060E02AE0CE010E94EC0A89
:1016C0005C01E881F9810190F081E02D6EE2CE01AC
:1016D00009958A0D9B1D080F191FC814D90431F7ED
:1016E000F701458150E070E060E02AE0CE010E9401
:1016F000EC0A800F911FDF91CF911F910F91FF9006
:10170000EF90DF90CF90BF90AF909F908F90089513
:1017100060EE71E00C94DD0ACF92DF92EF92FF92BF
:101720000F931F93CF93DF93EC016B01770FEE08BC
:10173000FF08F7FE23C0E881F9810190F081E02DD8
:101740006DE209958C0144275527BA014C195D09B2
:101750006E097F092AE0CE010E94EC0A080F191FCA
:10176000CE010E94880B800F911FDF91CF911F91B6
:101770000F91FF90EF90DF90CF9008952AE0B7018E
:10178000A6010E94EC0A8C01EBCF0F931F93CF931D
:10179000DF93EC010E94380B8C01CE010E94880B74
:1017A000800F911FDF91CF911F910F9108950F939B
:1017B0001F93CF93DF938C01D0E0C0E061157105DA
:1017C00019F00E94DD0AEC01C8010E94880B8C0F01
:1017D0009D1FDF91CF911F910F910895CF93DF93BC
:1017E00080914A06811173C082E08093340681E0C3
:1017F000809335062AE336E0309337062093360689
:1018000010923906109238062EEA31E030933106F4
:101810002093300610923D0610923C0610923F062F
:1018200010923E06809340068093410681EC80939F
:101830003A0680EC80933B060E949809EC0189816E
:1018400090913406890F9927991F0897ECF5EA8142
:10185000FB81309781F580E396E09B838A8362E089
:1018600082E00E941B068091F20781113EC082E057
:101870000E94C405892B81F1109232061092330622
:10188000888190913506890F888330913406909134
:101890003606E92FF09137068E2F891B8317A0F4A7
:1018A00089812191A82FB0E0AE58BE4F2C938F5F55
:1018B0008983F2CFFC01808591850097D9F780E379
:1018C00096E091878087CBCF81E080934A0680E3C2
:1018D00096E0DF91CF91089563EE71E086EE96E099
:1018E0000E94D70B81E08093F20782E0809332065A
:1018F00084E080933306C4CF8F929F92AF92BF92C1
:10190000CF92DF92EF92FF920F931F93CF93DF93CB
:10191000082F162FC42F0E940A05C0901906D090D8
:101920001A06F12CE12C8090170690901806B12C25
:10193000A12C20911D0630911E0650E040E02C198C
:101940003D094E095F09BC01990F880B990B681975
:1019500079098A099B090E94FF2520911B06309175
:101960001C0650E040E0281939094A095B090E9429
:101970004526C20ED31EE41EF51ED7FCF9C0D09238
:101980006B01C0926A01C0901206D0901306F12C30
:10199000E12C20916A0130916B01032E000C440B65
:1019A000550B2C193D094E095F09A4E6B0E00E94D1
:1019B0006426209110063091110650E040E02C1969
:1019C0003D094E095F090E944526D0E037FD06C05B
:1019D0002536310514F024E630E0D22FD0936F0184
:1019E00060910C0670910D0690E080E00E94CA2480
:1019F0006B017C016D2F70E090E080E00E94CC24B0
:101A00009B01AC01C701B6010E942B2520E030E00C
:101A100048EC52E40E9422276B017C0120E030E078
:101A2000A9010E94CA2720E030E040E05FE387FD83
:101A3000A4C0C701B6010E94B6260E9494277093E5
:101A40006E0160936D01809105069091060600235A
:101A500009F498C0816090930606809305068091F2
:101A6000050690910606112309F48EC084609093B8
:101A70000606809305068091050690910606209142
:101A800060012D1383C09160909306068093050634
:101A90008091050690910606CC2309F47CC0209124
:101AA0000E0630910F066217730708F071C082624C
:101AB0009093060680930506809105069091060690
:101AC0002091660130916701121613060CF068C070
:101AD0009460909306068093050680916C0188239C
:101AE00081F08091F20763E172E0882309F455C028
:101AF0008091F107882309F450C083E897E00E94A1
:101B0000D70B80910506909106069C0120723470D7
:101B1000232B09F44EC09860909306068093050627
:101B200080916C01882371F08091F20766E272E087
:101B30008823E1F18091F1078823C1F183E897E0E0
:101B40000E94D70B809105069091060688609093BD
:101B5000060680930506DF91CF911F910F91FF90AC
:101B6000EF90DF90CF90BF90AF909F908F900895AF
:101B700010926B0110926A0106CFC701B6010E9454
:101B8000B5265BCF8E7F67CF8B7F71CF9E7F7CCF5B
:101B90008F7D82608DCF8D7D8BCF86EE96E0AFCF2F
:101BA0009B7F9093060680930506ABCF86EE96E06A
:101BB000C7CF977F9093060680930506C3CF0F93F8
:101BC0001F93CF93DF93EC01FB014481558160812A
:101BD0007181E881F9810280F381E02D09958C0102
:101BE000CE010E94880B800F911FDF91CF911F9132
:101BF0000F9108950F931F93CF93DF93EC010E94F1
:101C0000AE068C01CE010E94880B800F911FDF91E0
:101C1000CF911F910F910895AF92BF92CF92DF9213
:101C2000EF92FF920F931F93CF93DF93CDB7DEB761
:101C3000C857D1090FB6F894DEBF0FBECDBF809153
:101C4000F3079091F407DC01ED91FC910680F78198
:101C5000E02D09950E940A059A8389838E010F5F02
:101C60001F4F6E01BBE3CB0ED11C78018FE9A82E6C
:101C700086E0B82E0E940A05F801819391938F01A6
:101C8000C5010197F1F7CE16DF06A1F729E235E08D
:101C900042E050E06DE170E0C7010E94CB218D8DE4
:101CA0009E8DC858DF4F0FB6F894DEBF0FBECDBF74
:101CB000DF91CF911F910F91FF90EF90DF90CF9028
:101CC000BF90AF900895CF9310922B068AEA80932D
:101CD000080685E58093090681E095EA90932D0634
:101CE00080932C0680E29CE190930B0680930A0679
:101CF00090930D0680930C0688E592E090930F0672
:101D000080930E0684E695E090931106809310066A
:101D100088EE93E0909313068093120610921A06B1
:101D200010921906109218061092170688E795E08F
:101D300090931E0680931D068FEF93E090931C06F0
:101D400080931B068AE08093140685E08093150635
:101D50001092160610926C0167EC70E086EE96E029
:101D60000E94FA0D8091F207882389F0C0915F01EB
:101D70006AE070E080E090E00E947C06CC2339F0BD
:101D80006CEA70E083E897E0CF910C94FA0DCF9164
:101D900008950C94DD0ABF92CF92DF92EF92FF92EA
:101DA0000F931F93CF93DF93DC01EB0158968D9136
:101DB0009C915997892BB9F08D01B12CCB2CD12C4A
:101DC000F801E08CF18CC7010E947624C816D90670
:101DD00010F5F701EC0DFD1DE491DE01AC0DBD1D0C
:101DE000EC93B394EBCF88E4888389E4898384E41B
:101DF0008A831E968C911E978F708F5B8B831E96A5
:101E00008D919C9124E0969587952A95E1F78F70A6
:101E10008F5B8C8385E0DF91CF911F910F91FF90B5
:101E2000EF90DF90CF90BF900895CF92DF92EF9226
:101E3000FF920F931F93CF93DF9300D0CDB7DEB700
:101E40007C01FB011381133009F046C0628170E010
:101E50007F6F0E945508009709F46AC0DC01149650
:101E6000FC9014971596DC908F2D9D2D0E94762462
:101E7000E82E1A8381E08E0D880F898342E050E0BE
:101E8000BE016F5F7F4F80E00E94D608CF2C0F2DE0
:101E90001D2D802F8C198E15E8F4F801849189830B
:101EA0001A8242E050E0BE016F5F7F4F80E00E94E7
:101EB000D6080F5F1F4F892B61F780E090E00F90ED
:101EC0000F90DF91CF911F910F91FF90EF90DF90D6
:101ED000CF90089581E0F2CF8081813849F51232A8
:101EE00039F5D70112962C91129784819581281784
:101EF0001906F1F41C960D911C91D12CC12C0115E1
:101F0000110589F0F801448155816281738180E86F
:101F10000E94D6088F3F980791F2C80ED91ED801AB
:101F20000D911C91ECCF81E0F701808BC601C7CFEA
:101F300090E080E0C4CFFC0180819181009711F096
:101F40000C9471280895EF92FF920F931F93CF93F3
:101F5000DF93EC017B01FB0101900020E9F7319751
:101F60008F01061B170B88819981009729F02A8120
:101F70003B812017310788F4B8016F5F7F4F0E94C3
:101F8000FA280097B9F0998388831B830A832C81F0
:101F90003D81232B11F4FC0110821D830C83B701BA
:101FA00088819981DF91CF911F910F91FF90EF90E0
:101FB0000C94C82988819981009711F00E9471289A
:101FC000198218821D821C821B821A82DF91CF9196
:101FD0001F910F91FF90EF9008950F931F93CF9350
:101FE000DF93CDB7DEB729970FB6F894DEBF0FBEEB
:101FF000CDBF8C01862FF8011182108213821282CC
:102000001582148250E0BE016F5F7F4F90E00E9406
:102010009224BE016F5F7F4FC8010E94A30F2996D3
:102020000FB6F894DEBF0FBECDBFDF91CF911F91E9
:102030000F9108952F923F924F925F926F927F92ED
:102040008F929F92AF92BF92CF92DF92EF92FF92C8
:102050000F931F93CF93DF93CDB7DEB769970FB67A
:10206000F894DEBF0FBECDBFAA2009F465C030E1F1
:10207000388FFB01608171816D30710521F06A300C
:10208000710509F0FEC05A2C17013801298F7A0119
:10209000F88DAF2EB12CA50170E060E001960E9492
:1020A0003823462E062F172F8091F3079091F407BF
:1020B000E016F10608F043C061E178E00E94AE0648
:1020C000B6018091F3079091F4070E94C90E61E078
:1020D00078E08091F3079091F4070E94AE064AE001
:1020E00050E0B7018091F3079091F4070E94380BFC
:1020F0006EEF77E08091F3079091F4070E94FA0D5C
:1021000080E01092CE0669960FB6F894DEBF0FBE3F
:10211000CDBFDF91CF911F910F91FF90EF90DF9096
:10212000CF90BF90AF909F908F907F906F905F9077
:102130004F903F902F900895EAE0E88F9ACF0815CE
:102140001905F8F46DEE77E00E94AE06B6018091B5
:10215000F3079091F4070E94C90E6CED77E080912F
:10216000F3079091F4070E94AE064AE050E0B401F4
:102170008091F3079091F4070E94380B69ED77E0A6
:10218000B9CF69EC77E00E94AE06552041F066ECCD
:1021900077E08091F3079091F4070E94AE06E090FB
:1021A000F307F090F407298D222309F446C0488DE7
:1021B000F3016081CE0101960E94ED0FBE016F5FB9
:1021C0007F4FC7010E94DF0DCE0101960E949B0F39
:1021D000F301408261EC77E08091F3079091F4077E
:1021E0000E94AE06B6018091F3079091F4070E9419
:1021F000C90E67EB77E08091F3079091F4070E9496
:10220000AE06552041F064EB77E08091F3079091A2
:10221000F4070E94AE06A501B8018091F3079091E2
:10222000F4070E94C50B6EE877E08091F307909168
:10223000F4070E94FA0D81E064CFF1018081918161
:102240001B8A1A8A1D8A1C8A1F8A1E8AA501BE0142
:102250006F5F7F4F0E949224BE016F5F7F4FCE0160
:1022600042960E94A30FBE016E5E7F4FC7010E947F
:10227000DF0DCE0142960E949B0FF1011183008376
:10228000A9CF80E040CF1F93CF93DF9385ED80935C
:10229000BC008091550690915606A0915706B091CA
:1022A00058060796A11DB11D23E0B695A7959795F1
:1022B00087952A95D1F72091BC0024FD03C0109288
:1022C0009D0652C0409155065091560660915706A2
:1022D00070915806452B462B472B69F30097A105B3
:1022E000B10541F02AE22A95F1F700C00197A10952
:1022F000B109E1CF80915406C1E0C0935306882311
:1023000099F1D091B8001091BA008091BC008A7BFD
:102310008093BC0060E082E00E94ED0560E083E015
:102320000E94ED0510929D06C0939F0610929E0696
:1023300061E082E00E94ED0561E083E00E94ED052E
:102340008091B9008E7F8093B9008091B9008D7F14
:102350008093B90088E48093B80085E48093BC0042
:102360001093BA00D093B800DF91CF911F910895D8
:10237000EF92FF920F931F93CF93DF93FC01428163
:10238000FB01248135814217130611F020E029C09A
:10239000EB0131812081213A81F5313051F52381E2
:1023A000233011F021E01DC0628170E00E945508C9
:1023B000EC01009759F341E050E0BC016E5F7F4FA4
:1023C00080E00E94D6081816190604F74E815F8136
:1023D0006C817D8180E00E94D60821E018161906E4
:1023E000ACF6822FDF91CF911F910F91FF90EF906C
:1023F000089521E0333051F6F4CF213239F63B30E5
:1024000021F42281FC01208BCDCF3A3021F42281AE
:10241000FC01218BC7CF393009F0B8CF238123309D
:1024200009F0B4CF628170E00E9455088C010097DA
:1024300009F4ACCFEE80FF80FC0186819781019684
:10244000E816F90609F0A2CF81E090E0E114F1046A
:1024500009F0C7010E94D527EC01B7010E94650968
:102460002881F801828193812817190609F08ECFFF
:1024700046815781BE016F5F7F4F848195810E94A5
:10248000BF29209709F48ECFCE010E9471288ACFF0
:10249000AF92BF92CF92DF92EF92FF920F931F9372
:1024A000CF93DF937C016B015A01E901DC01529665
:1024B0000D911C9190E080E00115110531F589E046
:1024C00090E00E94D527FC0111821082D382C28243
:1024D000B582A482DD27D783C683D70153969C9308
:1024E0008E935297F701848995890196958B848BF9
:1024F000DF91CF911F910F91FF90EF90DF90CF90E0
:10250000BF90AF90089501968901F801228133812F
:102510002C153D0569F3208131812115310599F78D
:1025200089E090E00E94D527FC0111821082D382BD
:10253000C282B582A482DD27D783C683D8018D935A
:102540009C93D0CFEF92FF920F931F93CF93DF9383
:10255000EC018B017A010E94EE0B9701A801BE01EC
:10256000DF91CF911F910F91FF90EF900C94481243
:10257000CF92DF92EF92FF920F931F93CF93DF934F
:10258000C82F6B018A010E94EE0B6C2F70E021E0D6
:1025900030E0A6010E944812EC01892B89F00E94CC
:1025A000EE0B7C01C8010E947624F601608170E088
:1025B0007F6F9C01A801C7010E944812C80FD91F54
:1025C000CE01DF91CF911F910F91FF90EF90DF909F
:1025D000CF9008951F920F920FB60F9211242F9350
:1025E0003F938F939F93AF93BF938091C406909135
:1025F000C506A091C606B091C7063091C30623E078
:10260000230F2D3758F50196A11DB11D2093C30648
:102610008093C4069093C506A093C606B093C706E0
:102620008091C8069091C906A091CA06B091CB06C8
:102630000196A11DB11D8093C8069093C906A09371
:10264000CA06B093CB06BF91AF919F918F913F91F6
:102650002F910F900FBE0F901F90189526E8230F13
:102660000296A11DB11DD2CF1F920F920FB60F92ED
:1026700011242F933F934F935F936F937F938F9387
:102680009F93AF93BF93EF93FF9386EE96E00E94E4
:102690004607FF91EF91BF91AF919F918F917F91ED
:1026A0006F915F914F913F912F910F900FBE0F90BF
:1026B0001F9018951F920F920FB60F9211242F930F
:1026C0008F939F93EF93FF93E091F606F091F706B7
:1026D0008081E091FC06F091FD0682FD1BC0908197
:1026E0008091FF068F5F8F7320910007821741F062
:1026F000E091FF06F0E0EA51F94F958F8093FF06D5
:10270000FF91EF919F918F912F910F900FBE0F909E
:102710001F9018958081F4CF1F920F920FB60F92E1
:1027200011242F933F934F935F936F937F938F93D6
:102730009F93AF93BF93EF93FF938091B900887FEE
:10274000803609F44AC0F0F5883209F4A5C018F5BE
:10275000803109F499C0B8F4882309F4F5C08830B1
:1027600009F492C0FF91EF91BF91AF919F918F912A
:102770007F916F915F914F913F912F910F900FBE7D
:102780000F901F901895883109F486C0803251F758
:1027900080939C0614C0803409F49BC040F48033BD
:1027A000B9F38833F9F680939C0685ECAEC080358A
:1027B00009F483C0883509F494C0883499F60E94DE
:1027C0004311D0CF883909F48AC038F5883729F009
:1027D00050F4883611F0803729F683E080939D0607
:1027E00010929B0655C0883809F479C0803919F0D9
:1027F000803809F0B7CF80919B06803208F06FC017
:10280000E0919B0681E08E0F80939B068091BB0038
:10281000F0E0E558F94F80833BC0803B39F0D0F4BD
:10282000803A09F477C0883A09F09CCF84E080931D
:102830009D0610927A0610927906F0E0E0E0099584
:102840008091790681110FC081E080937906109202
:10285000590609C0803C09F4A8CF883C09F4A5CFEB
:10286000883B09F07FCFE0917A0681E08E0F80935C
:102870007A06F0E0E75AF94F80818093BB0090918F
:102880007A068091790629C08091C2068093BB00A8
:1028900085EC8093BC0066CF9091C1068091C00604
:1028A000981758F5E091C10681E08E0F8093C1061C
:1028B000F0E0E056F94F8081E9CFE091C10681E078
:1028C0008E0F8093C1068091BB00F0E0E056F94F77
:1028D00080839091C1068091C0069817C8F285E860
:1028E000D8CFE091C10681E08E0F8093C106809120
:1028F000BB00F0E0E056F94F808380919F06811184
:102900005ECF81E080939E0684EA8093BC001092A3
:102910009D0628CF85EC8093BC0010929D06809187
:102920009B06803230F4E0919B06F0E0E558F94FC9
:10293000108260919B0670E08BE796E0F0E0E0E0AB
:10294000099510929B060ECF10929C0638CF1F92CD
:102950000F920FB60F9211242F933F934F935F93D3
:102960006F937F938F939F93AF93BF93CF93EF9387
:10297000FF93C091E1008091E100837F8093E100AB
:10298000C3FF1DC08091F207882309F459C082E17A
:10299000EFE7F1E0A6E4B1E001900D928A95E1F74E
:1029A0001092E90081E08093EB001092EC0082E34A
:1029B0008093ED001092CD0688E08093F000C2FF76
:1029C0001AC00E945C058091DD03882341F080914C
:1029D000DD0381508093DD03811101C05D9A8091F8
:1029E000CC06882341F08091CC0681508093CC06A0
:1029F000811101C0289AC4FF27C08091E2008E7E19
:102A000081608093E2008091E1008F7E8093E100FD
:102A10008091DE038E7E80618093DE03FF91EF91D3
:102A2000CF91BF91AF919F918F917F916F915F9166
:102A30004F913F912F910F900FBE0F901F901895BF
:102A400082E1E1E9F1E0A6CFC0FFE8CF8091E200AA
:102A50008E7E80618093E2008091E1008E7E809383
:102A6000E1008091DE038E7E8160D6CF1F920F92AF
:102A70000FB60F921124CF92DF92EF92FF920F9335
:102A80001F932F933F934F935F936F937F938F93F6
:102A90009F93AF93BF93EF93FF93CF93DF93CDB704
:102AA000DEB76C97DEBFCDBF1092E9008091E800E1
:102AB00083FF25C068E0CE0145960E94580982EF49
:102AC0008093E8008D8987FF39C09091E80090FFDE
:102AD000FCCF982F907609F038C19E894F89588D88
:102AE0002F89F88C911131C0803861F58091DF0316
:102AF0008093F1001092F1008EEF8093E8006C96C5
:102B00000FB6F894DEBF0FBECDBFDF91CF91FF911E
:102B1000EF91BF91AF919F918F917F916F915F9155
:102B20004F913F912F911F910F91FF90EF90DF9068
:102B3000CF900F900FBE0F901F9018959EEF90931F
:102B4000E800C7CF1092F100D5CF913059F4811130
:102B5000D3CF4130510581F68091DF038D7F809383
:102B6000DF03CACF933049F48111C6CF41305105FC
:102B700019F68091DF038260F2CF953041F48091A5
:102B8000E80080FFFCCF20682093E300B5CF9630AB
:102B900009F0A9C00B8D1C8D22E01092E900109263
:102BA000DB031092DA03F2122EC01092D9031092B6
:102BB000D8030E94AC091F8299E09983FA8291E0C0
:102BC0009E8390EA98879AEF99872091DA03309153
:102BD000DB03275F3F4F3C832B838D831092E900FB
:102BE0001092DB031092DA031093D9030093D803F9
:102BF00049E050E0BE016F5F7F4F80E00E94D60841
:102C00000E94AC0979CF1093D9030093D8030E9496
:102C10009809DC0112960D911C910115110509F41A
:102C200052C1D801ED91FC910480F581E02DBE01E7
:102C30006B5E7F4FC8010995009709F03FC1F8010D
:102C400000851185EACFF3E0FF120EC08F8988233B
:102C500009F440C0823061F440E860E182EF90E026
:102C60000E94A308811148CF81E28093EB0047CFF7
:102C7000813029F440E86BE086EE90E0F1CF8330BC
:102C800099F70E949809DC011296ED90FC908E0154
:102C90000F5F1F4F6801E114F10479F0D701ED9146
:102CA000FC910680F781E02DB801C7010995080F56
:102CB000111DF701E084F184EECFD8011C92F601DA
:102CC00001900020E9F73197BF016C197D0940E0C0
:102CD000C601C6CFE2EEF0E0449150E0BF0180E8CB
:102CE0000E94D60809CF973009F4BECF983021F45E
:102CF00081E08093F10000CF993009F0FDCE837020
:102D000009F0B2CF8091F2078823B1F0E3E7F1E058
:102D100081E031E096E32191222371F08093E90074
:102D20003093EB00DF0111972C912093EC009093EE
:102D3000ED008F5F873079F78EE78093EA0010927D
:102D4000EA008F898093CD06D7CE8B8D9C8D109213
:102D5000E9001092DB031092DA039093D903809379
:102D6000D8038091F207882309F48DC0898D8111E1
:102D70008AC08E899D89913A41F4813209F074CFDD
:102D800047E050E068E571E0B5C0913209F06CCFE2
:102D9000833269F48F89988DB0E0A0E0809342017E
:102DA00090934301A0934401B0934501A5CE803296
:102DB00039F467E070E088E591E00E9465099CCEF7
:102DC000823209F099CE8F8980935F01EEEFFFE7A1
:102DD00085919491E0E0F8E08B3F9C4D11F4EEEF8B
:102DE000FAE08091580190915901A0915A01B09157
:102DF0005B01803B9440A105B105D9F480915F014E
:102E000080FD17C0EE3F8AE0F80771F587E797E786
:102E100091838083809160008093DC0388E19BE054
:102E20000FB6F894A895809360000FBE9093600051
:102E300063CE808191818737974709F05DCEA89551
:102E4000809160008861809360008091DC038093B2
:102E50006000EE3F2AE0F20789F08091FE0A90912F
:102E6000FF0A9183808348CE8081918187379807BC
:102E700069F29093FF0A8093FE0AC8CF1092FF0A6E
:102E80001092FE0A39CE0E949809DC0112960D912B
:102E90001C910115110509F4E7CED801ED91FC91C3
:102EA0000190F081E02DBE016B5E7F4FC801099556
:102EB000811122CEF80100851185EBCF1816190675
:102EC0000CF41ACED1CEF1E0FF12BDCE8091F20704
:102ED00081110CC08DE195E090934F0180934E01DC
:102EE00083E090E0909351018093500142E150E0E3
:102EF00066E471E080E0F4CE1092E9061092E806F4
:102F000088EE93E0A0E0B0E08093EA069093EB06B1
:102F1000A093EC06B093ED068AEB91E09093E70660
:102F20008093E6068DEC90E09093F3068093F20692
:102F30008CEC90E09093F5068093F40688EC90E09A
:102F40009093F7068093F60689EC90E09093F9064B
:102F50008093F8068AEC90E09093FB068093FA0643
:102F60008EEC90E09093FD068093FC061092FF0695
:102F70001092000710920107109202078EED91E067
:102F80009093D0068093CF061092D1061092D2066D
:102F90001092D3061092D40682E08093E30681E07B
:102FA0008093E40693E09093E5069091DB069111FF
:102FB00012C01092D6061092D5062DE238E030935A
:102FC000D8062093D70620E931E03093DA06209323
:102FD000D9068093DB060E94EE0BFC01A485B58523
:102FE000109709F054C085ED96E095878487868513
:102FF00097852091D9063091DA06820F931F978723
:103000008687109286071092850788EE93E0A0E0ED
:10301000B0E08093870790938807A0938907B093C7
:103020008A078CEC91E090938407809383078FEF5D
:103030009FEF9093900780938F078EED91E0909390
:10304000F6078093F5071092F7071092F807109291
:10305000F9071092FA078091F207882311F1809105
:10306000F1078823F1F083E897E09093F4078093C9
:10307000F3071092F0071092EF071092E6071092F4
:10308000E5071092DC071092DB070895DC018D91B3
:103090009C9111970097D1F785ED96E08D939C93C5
:1030A000A6CF86EE96E0E1CFCF93DF93CDB7DEB724
:1030B0006E970FB6F894DEBF0FBECDBFF89462E0F6
:1030C00082E00E941B0682E00E94C405892B19F44D
:1030D00081E08093F207789461E087E00E941B060C
:1030E00061E086E00E941B0661E085E00E941B060D
:1030F00060E087E00E94ED0560E086E00E94ED055B
:1031000060E085E00E94ED058091F207882309F4D4
:1031100034C261E087E00E94ED0560E086E00E9435
:10312000ED05789484B5826084BD84B5816084BDEA
:1031300085B5826085BD85B5816085BD80916E0055
:10314000816080936E001092810080918100826086
:1031500080938100809181008160809381008091C3
:1031600080008160809380008091910082608093D4
:1031700091008091910081608093910080919000F6
:103180008160809390008091C10084608093C10031
:103190008091C10082608093C1008091C1008160F4
:1031A0008093C1008091C30081608093C3008091AF
:1031B000C00082608093C0008091C20081608093D3
:1031C000C20080917A00846080937A0080917A00B6
:1031D000826080937A0080917A00816080937A0087
:1031E00080917A00806880937A001092CD061092C8
:1031F000DF031092DE038091D70081608093D700B7
:1032000080EA8093D80089B5806189BD89B58260E4
:1032100089BD09B400FEFDCF61E070E080E090E080
:103220000E947C068091D8008F7C80618093D800BA
:103230008091E000807F8093E0008091E1008E7EAD
:103240008093E1008DE08093E200559A209AE0910E
:10325000F606F091F70682E08083E091F206F091A5
:10326000F3061082E091F406F091F50680E1808388
:103270001092FE06E091FA06F091FB0686E080834C
:10328000E091F806F091F906808180618083E091F9
:10329000F806F091F906808188608083E091F80655
:1032A000F091F906808180688083E091F806F091C2
:1032B000F90680818F7D808318E0E12E16E0F12EE3
:1032C00010E000E0C8010E94E925F70181937F0129
:1032D0000F5F1F4F06321105A9F79091F2078091F9
:1032E00008068A3A09F04FC180910906853509F030
:1032F0004AC120912C0630912D062130354A09F023
:1033000042C180912B06817080936C01911106C09F
:103310006DE571E086EE96E00E94FA0D0E94EE0BDC
:103320000E94EE0B21E030E043EE56E061E070E0F9
:103330000E9448120E94EE0B21E030E045EE56E07C
:1033400062E070E00E9448120E94EE0B21E030E043
:1033500044EE56E063E070E00E9448120E94EE0BDB
:1033600022E131E0FC01318F208F8091F207882328
:1033700039F00E94EE0B23E837E0FC01378B268BF7
:1033800062E084E00E941B0660E087E10E941B0669
:1033900061E08DE00E94ED0561E088E00E941B067F
:1033A00061E088E00E94ED05809105069091060697
:1033B00085609160909306068093050684E00E94E4
:1033C000C4059C0181E02115310509F480E080935A
:1033D00070018093710141E0232B09F040E040939C
:1033E0000706682F0E947C0C42E050E065E076E022
:1033F00087E090E00E94A21242E050E06DE671E0AA
:103400008DE090E00E94A21242E050E06AE076E097
:103410008AE190E00E94A21242E050E06CE076E087
:103420008CE190E00E94A21242E050E06EE076E073
:1034300088E090E00E94A21242E050E068E671E06D
:1034400083E190E00E94A21242E050E066E671E063
:1034500082E190E00E94A21241E050E065E671E056
:1034600086E090E00E94A21241E050E064E671E044
:1034700086E190E00E94A21242E050E068EA71E02A
:103480008AE090E00E94A21242E050E062E671E021
:103490008BE090E00E94A2124DE051E067EA71E0FB
:1034A0008FE10E94B81243E051E066EA71E080E2E9
:1034B0000E94B81241E050E061E671E084E190E0E2
:1034C0000E94A21241E050E065EA71E087E190E0DD
:1034D0000E94A21241E050E060E671E08EE090E0D0
:1034E0000E94A21241E050E06FE671E08CE090E0B3
:1034F0000E94A21241E050E064E176E08FE090E0AB
:103500000E94A21241E050E065E176E081E190E0A6
:103510000E94A21241E050E064EA71E080E190E094
:103520000E94A21241E050E063EA71E088E190E07D
:103530000E94A212809110069091110690936B0147
:1035400080936A018091F2078823C1F18FEF9FEF8A
:103550009093900780938F0710915F016AE070E06D
:1035600080E090E00E947C06111118C06AE070E0D3
:1035700080E090E00E947C06EFCF60E087E00E9450
:10358000ED0561E0CBCD911106C068E171E086EEFA
:1035900096E00E94FA0D0E94630EC0CE81E08093F7
:1035A000F1076CE372E083E897E00E94C90E609136
:1035B000F20770E083E897E00E948C0B6CE372E006
:1035C00086EE96E00E94C90E6091F20770E086EEEA
:1035D00096E00E948C0B86EE96E00E94B30760EDA9
:1035E00077E080E090E00E947C061092F0072FB711
:1035F000F8948091C4069091C506A091C606B0913A
:10360000C7062FBF8093E7079093E807A093E907C9
:10361000B093EA078AE090E0A0E0B0E08093EB0787
:103620009093EC07A093ED07B093EE0781E08093B1
:10363000EF07ACE36A2E712CB8EE2B2EB3E03B2ED5
:10364000412C512CBB24B3941091F207112309F49F
:10365000D4C08091F107882309F4CFC083E897E0B4
:103660000E94C30A892B09F4DDC48091F1078823E5
:1036700009F4CCC083E897E00E94810A7C01809124
:103680006C01882369F06E2D112309F4C4C0809168
:10369000F107882309F4BFC083E897E00E94670A16
:1036A000E091CE06EE3108F0B5C4FDE0EF16F1046E
:1036B000A9F02AE0E216F10489F03FEEE316F104E6
:1036C00069F0C7018B7F8B3B910541F081E08E0F44
:1036D0008093CE06F0E0E052FC4FE082E091CE060F
:1036E000F0E0E052FC4F108280916C01882381F061
:1036F0008091F207882309F493C08091F107882311
:1037000009F48EC065E077E083E897E00E94AE069A
:1037100080916C01882381F08091F20760EE73E064
:10372000882309F482C08091F107882309F47DC0C1
:1037300083E897E00E94C90E80916C01882381F094
:103740008091F207882309F473C08091F1078823E0
:1037500009F46EC061E077E083E897E00E94FA0D1B
:103760008091CE06882309F4A2C08091F2078823B5
:1037700031F08091F10703E817E0811102C006EEF5
:1037800016E0FA8EE98E1093F4070093F3074DE0EC
:10379000E416F10429F08AE0E816F10409F054CFA8
:1037A0008091E003082E000C990B0E94B729883401
:1037B00009F410C20CF091C0833409F4A1C1ECF5F6
:1037C0008F3309F407C2823409F40EC163E476E052
:1037D000C8010E94AE0660EE73E0C8010E94C90EE7
:1037E0006BEA73E0C8010E94D70B6EEA73E0C80170
:1037F0000E94D70B1092E00354C086EE96E00E9420
:103800003007892B09F40EC411112FCF86EE96E0F4
:103810000E940E0733CF86EE96E00E94670740CFE6
:1038200063E077E086EE96E071CF86EE96E082CF99
:103830006FEF76E086EE96E091CF843409F4CFC343
:10384000853421F68091E103082E000C990B0E942B
:10385000B7298E3409F0BBC19DE0E916F10421F0CF
:10386000EAE0EE16F104E9F482EE93E00E944F24C0
:103870007C01029708F467C063E376E0C8010E9408
:10388000AE066BE472E08091F3079091F4070E941A
:10389000C90E63E176E08091F3079091F4070E94EE
:1038A000FA0D1092CE068091CE068111CDCE809178
:1038B0006C01882309F4C8CE8091F2076AEB73E0AB
:1038C000882309F4ACC38091F107882309F4A7C3C6
:1038D00083E897E00E94C90EB7CE833509F4DBC2B6
:1038E0008CF48E3409F493C3813509F06FCF66E50B
:1038F00076E0C8010E94AE0670E060E0C8010E9458
:103900008C0BCFCF8A3509F4E2C28E3709F4ECC2B2
:10391000843509F05BCF8091E103082E000C990BF0
:103920000E94B729833409F490C0843409F4BBC0E1
:1039300066EF72E0C8010E94C90E60EE73E0C80134
:103940000E94D70BAECF63E076E0C8010E94AE06BE
:103950000091F3071091F407809116061C8A1B8AC8
:103960001E8A1D8A188E1F8A4AE0BE016F5F7F4F34
:1039700090E00E947F24BE016F5F7F4FCE0143968F
:103980000E94A30FBE016D5E7F4FC8010E94DF0D34
:10399000CE0143960E949B0F8E2D81708093160658
:1039A0006EEF75E08091F3079091F4070E94AE06E8
:1039B0006BE472E08091F3079091F4070E94C90EC6
:1039C00064EF75E08091F3079091F4070E94AE06D2
:1039D0006091160670E08091F3079091F4070E94C1
:1039E0008C0B6EEC75E057CF8091E103082E000C34
:1039F000990B0E94B7298534E1F0863409F0E7C0BD
:103A0000912C812CA12CE9E8CE2EE2E0DE2EF0E113
:103A1000EF2EF6E0FF2E8E010F5F1F4F20E048E5EE
:103A20005BE1BE01675E7F4F81EE93E00E941A105A
:103A300038CF912C812CA12C6FE9C62E62E0D62EB6
:103A400072E1E72E76E0F72EE6CF80910A0690919C
:103A50000B06B3010E940F267A836983912C812C77
:103A6000A12C5FEAC52E52E0D52E9E012F5F3F4F5D
:103A700079018E010D5E1F4F20E040E45FE1BE0141
:103A8000675E7F4F81EE93E00E941A1029813A8190
:103A90004CE3429FC001439F900D112490930B066D
:103AA00080930A06FECE80910C0690910D06B3011C
:103AB0000E940F267A836983912C812CA12C41EDE1
:103AC000C42E42E0D42ECE0101967C018E010D5E03
:103AD0001F4F20E040E45FE1BE01675E7F4F81EE53
:103AE00093E00E941A1029813A81ECE3E29FC00121
:103AF000E39F900D112490930D0680930C06D1CE78
:103B00008091E103082E000C990B0E94B72988349C
:103B100089F18C3409F05BC08091190690911A06E6
:103B20009A838983912C812CA12C30E1C32E33E020
:103B3000D32E9E012F5F3F4F79018E010D5E1F4FE7
:103B400020E040E45FE1BE01675E7F4F81EE93E0DD
:103B50000E941A10882309F4A4CE89819A81909337
:103B60001A06809319060E940C0E909318068093F3
:103B7000170697CE80911D0690911E069A83898321
:103B8000912C812CA12C25E2C22E23E0D22ECE0135
:103B900001967C018E010D5E1F4F20E040E45FE145
:103BA000BE01675E7F4F81EE93E00E941A1088236A
:103BB00009F477CE89819A8190931E0680931D0621
:103BC0000E940C0E90931C0680931B066ACE68E63A
:103BD00072E0B0CE8091E103082E000C990B0E9498
:103BE000B729853409F45DCE813509F45ACE60ECED
:103BF00075E0C8010E94FA0DC8010E94880B67EAAF
:103C000075E0C8010E94FA0D6DE373E0C8010E94DF
:103C1000D70BC8010E94880B65E975E0C8010E94B6
:103C2000FA0D63E675E0C8010E94AE0660911606C3
:103C300070E0C8010E948C0B63E375E0C8010E942C
:103C4000AE06C8010E94880B61E075E0C8010E94C1
:103C5000AE0660911006709111064AE050E0C8016E
:103C60000E94C50B6FEC74E0C8010E94AE06609123
:103C70001206709113064AE050E0C8010E94C50B7D
:103C80006DE974E0C8010E94AE0680910A06909129
:103C90000B06B3010E940F264AE050E0C8010E94C3
:103CA000C50B6BE674E0C8010E94AE0680910C065D
:103CB00090910D06B3010E940F264AE050E0C80122
:103CC0000E94C50B69E374E0C8010E94AE066091D2
:103CD000190670911A064AE050E0C8010E94380B9C
:103CE00062E374E0C8010E94FA0D66E174E0C80165
:103CF0000E94AE0660911706709118064AE050E0E7
:103D0000C8010E94380B64E174E0C8010E94FA0DFA
:103D100062EE73E0C8010E94AE0660911D067091CC
:103D20001E064AE050E0C8010E94380B6BED73E0BC
:103D3000C8010E94FA0D6EEB73E0C8010E94AE0646
:103D400060911B0670911C064AE050E0C8010E9479
:103D5000380B6CEB73E0C8010E94FA0D6EE873E05B
:103D6000C8010E94FA0D6DE473E0C8010E94FA0DCB
:103D700060E173E0C8010E94FA0D63ED72E0C801D2
:103D80000E94FA0D67E972E0C8010E94FA0D6AE527
:103D900072E0C8010E94FA0D6CE272E0C8010E9454
:103DA000FA0D6AEF71E0C8010E94FA0D60EF71E050
:103DB000C8010E94FA0D6BEC71E0C8010E94AE06CA
:103DC00040912B0650E070E060E020E1C8010E94C5
:103DD000EC0AC8010E94880B65EB71E0C8010E94E3
:103DE000AE0660916A0170916B01C8010E948C0B54
:103DF00060E673E0C8010E94C90E40916F0150E077
:103E000070E060E02AE0C8010E94EC0A64E773E019
:103E1000C8010E94C90E80916D0190916E01B3019D
:103E20000E940F264AE050E0C8010E94380B68E764
:103E300073E0C8010E94C90E80916D0190916E01DE
:103E4000B3010E940F264AE050E0BC01C8010E9465
:103E5000C50B6AE773E0C8010E94C90E809107068E
:103E600068E372E0811102C06AE372E0C8010E9457
:103E7000C90E68E873E0C8010E94C90E609105068A
:103E80007091060640E150E0C8010E94C50B6FEB3F
:103E900075E0C80104CD98E0C92E96E0D92EF12C2A
:103EA000E12CF601A1906F01C7010E94E925A81637
:103EB00021F06A2DC7010E94F125FFEFEF1AFF0ADA
:103EC00026E2E216F10469F76FED76E0E2CF0E9498
:103ED000630E6AE876E0C8010E94FA0D80912B0615
:103EE000817080936C01DDCC6FE971E0C8010E94A4
:103EF000AE06F12CE12CD12CC12CA12CC6018E0DCB
:103F00009F1D0E94E9258F3F11F0AA24A3943FEF43
:103F1000C31AD30A40E1C416D10481F7E114F104B5
:103F200019F0AA2009F44DC06AE971E0C8010E94A5
:103F3000AE0668E971E0C8010E94AE068FEFE81690
:103F4000F10409F070F466E971E0C8010E94AE0660
:103F500090E1E916F10428F464E971E0C8010E94D7
:103F6000AE0640E150E0B701C8010E94380B62E99B
:103F700071E0C8010E94AE066701A12CC6010E9433
:103F8000E925982EEFE0E81728F060E971E0C80114
:103F90000E94AE06492D50E070E060E020E1C801CB
:103FA0000E94EC0AFFE0AF1629F06EE871E0C8014C
:103FB0000E94AE062FEFC21AD20AA39430E1A312D8
:103FC000DDCF40E1E40EF11CE11484E0F80609F0D5
:103FD00092CF6AE771E0C8010E94AE0662CC912CD4
:103FE000812CAA24A39486E9C82E83E0D82EFE0152
:103FF00031967F010BE216E021E04FEF50E0BE0169
:10400000675E7F4F80EE93E00E941A1067CF6AE6EA
:1040100076E03FCF1092CE061092E00344CC86EEBD
:1040200096E058CC83ED97E00E9431088091DC0740
:104030009091DB0791111DC02092D7073092D807CD
:104040004092D9075092DA079FB7F8944091C4067E
:104050005091C5066091C6067091C7069FBF4093F8
:10406000D3075093D4076093D5077093D607B092C7
:10407000DB071092DC07882309F492C080912E069A
:1040800090912F06019690932F0680932E06809193
:104090001606882309F408C1409107066091710152
:1040A000809170010E947C0C40910506509106069B
:1040B000609103067091040620916F0180916D015B
:1040C00090916E014617570791F430910206231321
:1040D0000EC060910006709101066817790739F4E7
:1040E00060912E0670912F066B307105A4F010922E
:1040F0002F0610922E065093040640930306209339
:104100000206909301068093000621E030E0309390
:10411000FF052093FE0580916C01882381F080913A
:10412000F20761EC73E0882309F4C3C08091F107C2
:10413000882309F4BEC083E897E00E94C90E8091ED
:104140006C01882391F060916A0170916B018091FC
:10415000F207882309F4B0C08091F107882309F49D
:10416000ABC083E897E00E948C0B8091FE0388230C
:1041700081F08091F2076EEF73E0882309F49FC00D
:104180008091F107882309F49AC083E897E00E94A0
:10419000D70B8091F207882309F494C00E945C0534
:1041A0008091FE059091FF058130910509F48FC043
:1041B00008F49FC0029709F493C087EE97E00E942D
:1041C00031088091F00781111092EF071092F007EB
:1041D000882341F11092E6072FB7F8948091C40626
:1041E0009091C506A091C606B091C7062FBF8093D7
:1041F000DD079093DE07A093DF07B093E007EB8D18
:10420000FC8DCF01B0E0A0E08093E1079093E2073E
:10421000A093E307B093E407B092E50760E08DE078
:104220000E94ED058DED97E00E9431088091E60730
:1042300081111092E5071092E607882341F1109250
:10424000F0072FB7F8948091C4069091C506A0910D
:10425000C606B091C7062FBF8093E7079093E80783
:10426000A093E907B093EA072D8D3E8DC901B0E018
:10427000A0E08093EB079093EC07A093ED07B09339
:10428000EE07B092EF0761E08DE00E94ED0580E05F
:1042900090E0892B09F4D8C90E943C07882309F4CF
:1042A000D1C90E940000CEC91092FF051092FE05F0
:1042B00032CF86EE96E041CF86EE96E054CF86EE82
:1042C00096E065CF86EE96E00E94B30769CF84E65C
:1042D00090E09C8F8B8FE4E8F3E0FE8FED8F6DCF45
:1042E00024E833E03C8F2B8F84E690E09E8F8D8F07
:1042F00064CFE4EFF1E0FC8FEB8F24EF31E03E8FF1
:104300002D8F5BCFCF93DF93DC012D91FB0131919A
:10431000EC013883EB01288341505109CD01BF01E5
:10432000141615068CF3DF91CF910895B0E0A0E04C
:10433000ECE9F1E20C9479266C01D62FC72F8A01A3
:104340007901F9010995B80197FF15C08D2F9C2FB0
:10435000F701099597FD08C0B801C601F701099555
:1043600097FD16C0DC2DCD2D8D2F9C2FCDB7DEB740
:10437000E8E00C9495268D2F9C2FF70109951816CF
:10438000190694F3B801C601F701099597FDEACF24
:10439000D02FC12FE9CFA8E0B0E0E1EDF1E20C941D
:1043A0006F268C0158874F8359019A0131952195C9
:1043B00031093E832D836F807884600E711E6730D3
:1043C000710578F58F819885689F6001699FD00C91
:1043D000789FD00C1124C00ED11E6C147D0420F0E7
:1043E0002896E2E10C948B26730113C047012F81BC
:1043F0003885821A930AB701C401F5010995181688
:10440000190654F44F815885B401C7010E948221D6
:1044100074010E151F0550F3EF81F8856E0E7F1E97
:10442000DCCFCB01969587952F813885829F6001DF
:10443000839FD00C929FD00C1124C00ED11ECB01B3
:104440000197829F1001839F300C929F300C1124A2
:104450007801E20CF31C6730710509F442C0C70112
:10446000280169327105B0F183E0769567958A95E8
:10447000E1F7629F4001639F900C729F900C1124A2
:10448000C401880F991F9A838983AC01400F511F83
:10449000B801680D791D9501C8010E9496212C0173
:1044A000A601480D591D9194819491089501B6017A
:1044B000C601880D991D0E9496216C01B701680DF7
:1044C000791D9501A701C701E981FA818E1B9F0B18
:1044D0000E9496219501AC01B601C2010E9496216D
:1044E0006C014F815885B601C8010E9482214301A9
:1044F000630127011A821982EC14FD0408F446C0F6
:10450000B801C601F50109951816190654F1892B51
:1045100071F44F815885B601C3010E9482212F8119
:104520003885620E731E81E090E09A838983EF8163
:10453000F885CE0EDF1EE0CF892B71F44F815885B0
:10454000B201C7010E9482212D813E81420E531E7D
:1045500081E090E09A838983EB80FC80EC14FD0479
:10456000A8F0B801C701F50109952D813E812E0DF6
:104570003F1D3C832B8397FFDFCF4F815885B701C9
:10458000C6010E948221EB80FC80CDCFEF81F885AF
:104590002E0E3F1E200E311E29813A81232B09F554
:1045A0008214930408F01CCF740113C06701EF81DB
:1045B000F885CE1ADF0AB701C601F501099518166C
:1045C000190654F44F815885B601C7010E94822113
:1045D00076010E151F0550F38F819885880E991E60
:1045E000DFCF460186189708A301401B510B8416A4
:1045F00095060CF4A4011416150634F4B601641BD8
:10460000750BC8010E94822192012E193F09790180
:10461000A101441955098F819885481B590B24170E
:10462000350708F4A9011416150634F4B101641B0A
:10463000750BC6010E948221EF81F885E815F90506
:1046400048F4C401BF010E940F269501AF01C801C3
:104650000E94CB212F8138852E153F0508F0C0CE52
:1046600081010E191F09C701B9010E940F26A3CEAF
:10467000B0E0A0E0EEE3F3E20C9470265C016B0185
:104680007A016115710519F0FB0191838083E114B2
:10469000F10451F0C7010297839730F040E030E019
:1046A00020E090E072C05E01E5012196F5011081E5
:1046B000812F90E00E946D24892BA9F71D3201F50E
:1046C0002196F501118101E0E114F10409F4DAC049
:1046D000F0E1EF16F10409F082C0103359F488813B
:1046E0008F7D883509F076C0198122960260F0E14D
:1046F000EF2EF12C812C912CA12C88E0B82E8CC0AF
:104700001B3221F4E5012296F501118100E0DCCF96
:10471000EAE0EE16F10409F4BBC0F0E1EF16F10493
:1047200009F06DC0E7CF78E0E72EF12C812C912CB9
:10473000A12C60E1B62E70C03FE9310F3A3128F468
:1047400039EA332E80C021E09AC0302F3170C11475
:10475000D10431F0222309F12197F601D183C083DE
:1047600027FF21C060E070E080E090E8311104C0D4
:104770006FEF7FEF8FEF9FE722E230E03093FC078F
:104780002093FB07462F372F282F642F732F822F5C
:10479000CDB7DEB7E1E10C948C2601FF04C022976F
:1047A000F601D183C083332341F0909580957095B5
:1047B00061957F4F8F4F9F4FE5CF97FFE3CF82E209
:1047C00090E09093FC078093FB076FEF7FEF8FEFF4
:1047D0009FE7D8CF10E3E114F10409F4A4CF28E057
:1047E000E216F10409F4A2CF0CF092CF812C912CA7
:1047F000A12CE0E4BE2E82E0E816F10469F060E04E
:1048000070E080E090E897010F2C000C440B550BF2
:104810000E94232649015A0120E060E070E0CB01AC
:1048200027010F2C000C66087708FE0150ED352E8D
:10483000310E39E0331540F43FEB310F3A3108F0D7
:104840007BCF49EC342E310E3E141F040CF07DCF8B
:1048500027FD15C086169706A806B90678F0A301AD
:1048600092010E94FF25630D711D811D911D613014
:104870007105810520E8920708F465CF2FEF219696
:104880001081D3CF103309F42ACF2AE0E22EF12C85
:104890009CEC892E982CA82C9CE0B92EBDCFFC0155
:1048A00088279927E89421912032E9F3293010F0E4
:1048B0002E30C8F32B3241F02D3239F4689404C005
:1048C0000E948A24820F911D219120532A30C0F327
:1048D0001EF4909581959F4F089591110C94B724E3
:1048E000803219F089508550C8F70895FC01059071
:1048F0000020E9F7809590958E0F9F1F0895BB27A4
:104900004A3031F4992322F4BDE2909581959F4F6E
:104910000C949E247AE0979F902D879F802D910D77
:10492000112408954532510520F4423010F00C94C2
:104930009D24FB011082CB010895BB27FB01552765
:10494000AA27880F991FAA1FA41710F0A41B8395EC
:104950005051B9F7A05DAA3308F0A95DA193009763
:1049600079F7B111B1931192CB010C94BA24992724
:1049700088270895DC01FC01672F71917723E1F707
:10498000329704C07C916D9370836291AE17BF071C
:10499000C8F30895E89409C097FB3EF4909580957C
:1049A000709561957F4F8F4F9F4F9923A9F0F92FF5
:1049B00096E9BB279395F695879577956795B79573
:1049C000F111F8CFFAF4BB0F11F460FF1BC06F5F59
:1049D0007F4F8F4F9F4F16C0882311F096E911C06B
:1049E000772321F09EE8872F762F05C0662371F08C
:1049F00096E8862F70E060E02AF09A95660F771FA0
:104A0000881FDAF7880F9695879597F90895990F7B
:104A10000008550FAA0BE0E8FEEF16161706E80788
:104A2000F907C0F012161306E407F50798F0621BA9
:104A3000730B840B950B39F40A2661F0232B242B7E
:104A4000252B21F408950A2609F4A140A6958FEF9D
:104A5000811D811D08950E943E250C94AF250E9462
:104A6000A12538F00E94A82520F0952311F00C9480
:104A700098250C949E2511240C94E3250E94C025B2
:104A800070F3959FC1F3950F50E0551F629FF001A1
:104A9000729FBB27F00DB11D639FAA27F00DB11DBA
:104AA000AA1F649F6627B00DA11D661F829F222743
:104AB000B00DA11D621F739FB00DA11D621F839FCA
:104AC000A00D611D221F749F3327A00D611D231FA0
:104AD000849F600D211D822F762F6A2F11249F57EE
:104AE00050409AF0F1F088234AF0EE0FFF1FBB1FF1
:104AF000661F771F881F91505040A9F79E3F5105B0
:104B000080F00C9498250C94E3255F3FE4F3983EE5
:104B1000D4F3869577956795B795F795E7959F5F59
:104B2000C1F7FE2B880F911D9695879597F90895EB
:104B300097F99F6780E870E060E008959FEF80EC50
:104B4000089500240A9416161706180609060895F3
:104B500000240A9412161306140605060895092E59
:104B60000394000C11F4882352F0BB0F40F4BF2BC8
:104B700011F460FF04C06F5F7F4F8F4F9F4F089508
:104B800057FD9058440F551F59F05F3F71F04795FE
:104B9000880F97FB991F61F09F3F79F087950895E3
:104BA000121613061406551FF2CF4695F1DF08C002
:104BB000161617061806991FF1CF8695710561051F
:104BC00008940895E894BB2766277727CB0197F9C7
:104BD0000895F999FECF92BD81BDF89A992780B5C5
:104BE0000895262FF999FECF1FBA92BD81BD20BD31
:104BF0000FB6F894FA9AF99A0FBE01960895DB0160
:104C00008F939F930E946426BF91AF91A29F800DC6
:104C1000911DA39F900DB29F900D11240895AA1B82
:104C2000BB1B51E107C0AA1FBB1FA617B70710F097
:104C3000A61BB70B881F991F5A95A9F780959095C9
:104C4000BC01CD010895A1E21A2EAA1BBB1BFD01D8
:104C50000DC0AA1FBB1FEE1FFF1FA217B307E4075B
:104C6000F50720F0A21BB30BE40BF50B661F771FB3
:104C7000881F991F1A9469F7609570958095909593
:104C80009B01AC01BD01CF010895052E97FB1EF4D9
:104C900000940E945C2657FD07D00E94232607FC43
:104CA00003D04EF40C945C26509540953095219598
:104CB0003F4F4F4F5F4F0895909580957095619548
:104CC0007F4F8F4F9F4F08950E94A626A59F900D5E
:104CD000B49F900DA49F800D911D112408952F92D3
:104CE0003F924F925F926F927F928F929F92AF927C
:104CF000BF92CF92DF92EF92FF920F931F93CF93C9
:104D0000DF93CDB7DEB7CA1BDB0B0FB6F894DEBF5F
:104D10000FBECDBF09942A88398848885F846E8485
:104D20007D848C849B84AA84B984C884DF80EE80CF
:104D3000FD800C811B81AA81B981CE0FD11D0FB6D8
:104D4000F894DEBF0FBECDBFED010895A29FB00164
:104D5000B39FC001A39F700D811D1124911DB29FAF
:104D6000700D811D1124911D08955058BB27AA274D
:104D70000E94CD260C94AF250E94A12538F00E94F8
:104D8000A82520F039F49F3F19F426F40C949E25B1
:104D90000EF4E095E7FB0C949825E92F0E94C025BE
:104DA00058F3BA17620773078407950720F079F460
:104DB000A6F50C94E2250EF4E0950B2EBA2FA02D4B
:104DC0000B01B90190010C01CA01A0011124FF27B8
:104DD000591B99F0593F50F4503E68F11A16F040B3
:104DE000A22F232F342F4427585FF3CF46953795B2
:104DF0002795A795F0405395C9F77EF41F16BA0B77
:104E0000620B730B840BBAF09150A1F0FF0FBB1F24
:104E1000661F771F881FC2F70EC0BA0F621F731F6D
:104E2000841F48F4879577956795B795F7959E3FCA
:104E300008F0B0CF9395880F08F09927EE0F97955B
:104E4000879508950E9436270C94AF250E94A825C7
:104E500058F00E94A12540F029F45F3F29F00C94FE
:104E6000982551110C94E3250C949E250E94C02591
:104E700068F39923B1F3552391F3951B550BBB2789
:104E8000AA2762177307840738F09F5F5F4F220FCE
:104E9000331F441FAA1FA9F335D00E2E3AF0E0E8C5
:104EA00032D091505040E695001CCAF72BD0FE2F0F
:104EB00029D0660F771F881FBB1F261737074807A3
:104EC000AB07B0E809F0BB0B802DBF01FF2793585B
:104ED0005F4F3AF09E3F510578F00C9498250C9462
:104EE000E3255F3FE4F3983ED4F386957795679585
:104EF000B795F7959F5FC9F7880F911D9695879590
:104F000097F90895E1E0660F771F881FBB1F6217AE
:104F100073078407BA0720F0621B730B840BBA0B6C
:104F2000EE1F88F7E09508950E949B276894B111C1
:104F30000C94E32508950E94C82588F09F5798F0A7
:104F4000B92F9927B751B0F0E1F0660F771F881F8E
:104F5000991F1AF0BA95C9F714C0B13091F00E94A8
:104F6000E225B1E008950C94E225672F782F882779
:104F7000B85F39F0B93FCCF3869577956795B395CF
:104F8000D9F73EF490958095709561957F4F8F4F3E
:104F90009F4F08950E94072508F48FEF0895EE0FA4
:104FA000FF1F0590F491E02D09940F931F93CF9369
:104FB000DF938230910510F482E090E0E091FF07EA
:104FC000F091000830E020E0B0E0A0E0309799F4E4
:104FD0002115310509F44AC0281B390B243031054D
:104FE000D8F58A819B816115710589F1FB01938355
:104FF0008283FE0111C040815181028113814817D3
:105000005907E0F04817590799F4109761F0129684
:105010000C93129713961C933296CF01DF91CF9188
:105020001F910F9108950093FF0710930008F4CF8C
:105030002115310551F04217530738F0A901DB0162
:105040009A01BD01DF01F801C1CFEF01F9CF9093C3
:1050500000088093FF07CDCFFE01E20FF31F81937D
:1050600091932250310939832883D7CF2091FD07AE
:105070003091FE07232B41F420917B0130917C017C
:105080003093FE072093FD072091790130917A013A
:105090002115310541F42DB73EB740917D01509166
:1050A0007E01241B350BE091FD07F091FE07E2170E
:1050B000F307A0F42E1B3F0B2817390778F0AC013B
:1050C0004E5F5F4F2417350748F04E0F5F1F509318
:1050D000FE074093FD07819391939FCFF0E0E0E0BE
:1050E0009CCFCF93DF930097E9F0FC0132971382B6
:1050F0001282A091FF07B0910008ED0130E020E09E
:105100001097A1F420813181820F931F2091FD0718
:105110003091FE072817390709F061C0F093FE07A8
:10512000E093FD07DF91CF910895EA01CE17DF07E5
:10513000E8F54A815B819E0141155105B1F7E9010E
:10514000FB83EA8349915991C40FD51FEC17FD07E2
:1051500061F4808191810296840F951FE901998302
:105160008883828193819B838A83F0E0E0E01296BA
:105170008D919C9113970097B9F52D913C911197C2
:10518000CD010296820F931F2091FD073091FE07FB
:105190002817390739F6309751F510920008109208
:1051A000FF07B093FE07A093FD07BCCFD383C28354
:1051B00040815181840F951FC817D90761F44E5F54
:1051C0005F4F88819981480F591F518340838A819D
:1051D0009B81938382832115310509F0B0CFF09331
:1051E0000008E093FF079ECFFD01DC01C0CF1382D2
:1051F0001282D7CFB0E0A0E0E0E0F9E20C94712693
:105200008C01009751F4CB010E94D5278C01C80175
:10521000CDB7DEB7E0E10C948D26FC01E60FF71F59
:105220009C0122503109E217F30708F49DC0D9010F
:10523000CD91DC911197C617D70798F0C530D105ED
:1052400030F3CE0104978617970708F3C61BD70BD8
:105250002297C193D1936D937C93CF010E947128C3
:10526000D6CF5B01AC1ABD0A4C018C0E9D1EA091DD
:10527000FF07B0910008512C412CF12CE12C109724
:1052800031F58091FD079091FE078815990509F089
:105290005CC04616570608F058C08091790190917D
:1052A0007A01009741F48DB79EB740917D015091EE
:1052B0007E01841B950BE817F90708F055C0F093A1
:1052C000FE07E093FD07F90171836083A0CF8D9104
:1052D0009C91119712966C90129713967C9013974D
:1052E000A815B90559F56C0142E0C40ED11CCA14C9
:1052F000DB0420F1AC014A195B09DA01129615971B
:1053000080F06282738251834083D9016D937C93D4
:10531000E114F10471F0D7011396FC93EE93129708
:1053200076CF22968C0F9D1FF90191838083F30124
:10533000EFCFF0930008E093FF0769CF48165906B6
:1053400008F42C017D01D3019ACFCB010E94D5270F
:105350007C01009749F0AE01B8010E94BF29C80145
:105360000E947128870153CF10E000E050CF9111C7
:10537000089581568A5108F4805285580895FB019A
:10538000DC0102C001900D9241505040D8F70895C1
:10539000FB01DC0101900D920020E1F70895F894E3
:0253A000FFCF3D
:1053A200080B0002020200000904000001020200D0
:1053B2000005240010010524010101042402060550
:1053C20024060001070581031000400904010002C0
:1053D2000A000000070502024000000705830240A0
:1053E2000000FFFFFFFF12010002000000401D0548
:1053F200030000010102030100E1000000000000BF
:10540200640214050201FFFFFFFF140501201C6462
:10541200010100C18081000000000001088000122B
:10542200010002EF02014041233680000101020324
:105432000112010002000000401D050300000101ED
:105442000203010101640504640500000000B811B3
:10545200FC08150FCB0E000000006707D206FF06FE
:10546200B30730070E07220700000000670AE209AF
:105472007D0A7308C30A810A9F0A000000003E0BDE
:105482000D0A005553424344434E656564656420EA
:105492004E4F5420736574206265666F72652050AA
:1054A2006C75676761626C655553425F3A3A706C1E
:1054B20075670073687574646F776E2072657175B5
:1054C20065737465640073687574646F776E2069C0
:1054D2006D6D696E656E740059004E0055534243FE
:1054E20044434E65656465643A2000456E61626CB2
:1054F20065205043205265706F7274696E672F5336
:10550200687574646F776E004552524F523A20426A
:105512006164204220284261747465727929206393
:105522006F6D6D616E643A200042617474657279C8
:105532002046756C6C204368617267652056004294
:1055420061747465727920456D7074792056004DCE
:10555200696E7574657320746F2066756C6C792042
:105562006368617267652066726F6D20646561644D
:10557200004D696E7574657320746F2066756C6C6E
:1055820079206469736368617267652066726F6D02
:105592002066756C6C004552524F523A204261644B
:1055A2002054696D6520636F6D6D616E643A2000F1
:1055B200562A313030206F66206C6F7720766F6C00
:1055C2007461676500562A313030206F6620686941
:1055D2006768657220766F6C7461676500436F6DF2
:1055E20070696C65642061743A20417072203233B4
:1055F20020323032342C2031303A30383A303000D8
:105602002C20426174742052656D61696E696E6707
:10561200203D2000252C20003A0044697363686114
:105622007267696E673A20002C2053746174757337
:10563200203D20307800446562756720466C6167C2
:10564200732028313A4D61696E29005D2E00482091
:10565200666F722048656C700A000A436D643A20D6
:0C56620000426174562A3130303A2000BA
:00000001FF
