:100000000C940F080C9437080C9437080C9437089C
:100010000C9437080C9437080C9437080C94370864
:100020000C9437080C9437080C94261E0C94B51EBB
:100030000C9437080C9437080C9437080C94370844
:100040000C9437080C9437080C9437080C94370834
:100050000C9437080C9437080C9437080C94691CDE
:100060000C9437080C94D91C0C94B31C0C943708CE
:100070000C9437080C9437080C9437080C94370804
:100080000C9437080C9437080C9437080C943708F4
:100090000C940B1D0C9437080C9437080C943708FB
:1000A0000C9437080C9437080C9437082C205374A0
:1000B00061747573203D203078002C2042617456A5
:1000C0003A20002C204261745620496E7465726E8D
:1000D000616C3A20003A00252C20004261747420A3
:1000E00052656D61696E696E67203D2000526573CF
:1000F000746F72656420666163746F7279206465E1
:100100006661756C74732E00526573746F726564EA
:1001100020666163746F72792064656661756C74C2
:10012000732E000403090441726475696E6F204CDC
:100130004C430041726475696E6F204C656F6E614F
:1001400072646F005553424344434E656564656471
:100150003A20005553424344434E65656465643A12
:1001600020004D79436F6F6C5550530050624163CE
:1001700000555053313000454550524F4D206E6F61
:100180007420696E697427642E205573696E672028
:10019000436F6D70696C65642044656661756C744D
:1001A000732E00476F6F643A20454550524F4D20E3
:1001B000697320696E697469616C697A65642E007F
:1001C0000D0A24242D454E4420454550524F4D0DD7
:1001D0000A0D0A00200030002000300030003000FE
:1001E0000D0A2420000D0A24242D454550524F4D60
:1001F00020434F4E54454E54533A00417661696C4A
:1002000061626C65204D656D6F72793A20002C201B
:10021000537461747573203D2030780044697363B2
:1002200068617267696E673A20003A00252C2000E9
:100230002C20426174742052656D61696E696E672D
:10024000203D20002C2063617061636974794465EE
:100250006275673A20004261747465727920566F46
:100260006C746167652A3130303A20004478202070
:10027000202D20446562756720666C6167732020BD
:100280002020202020202020202020203A203078EC
:10029000005A4344202D20526573746F72652063A9
:1002A0006F6D70696C656420666163746F7279202C
:1002B00064656661756C7473005A2020202D20528D
:1002C0006573746F726520666163746F7279206400
:1002D000656661756C74730042596E6E2020202D26
:1002E0002064656C74612063656E74692D566F6C53
:1002F0007473206265666F7265207265706F7269D3
:100300006E6720202020203A200029002020202075
:1003100020202020202020202020202020202020DD
:1003200020202020202020206952656D6E436170BE
:1003300061636974794C696D6974203A2000290001
:10034000202020202020202020284869676820566F
:10035000204132442076616C75653A200020562A8F
:100360003130300043486E6E6E6E202D2043616C3C
:10037000696272617465206869676820766F6C7461
:1003800061676520706F696E742028562A3130309D
:100390002920203A20002900202020202020202071
:1003A00020284C6F772056204132442076616C75AE
:1003B000653A200020562A31303000434C6E6E6E74
:1003C0006E202D2043616C696272617465206C6FD0
:1003D0007720766F6C7461676520706F696E74202A
:1003E00028562A313030292020203A200054446EEB
:1003F0006E6E6E202D204176652E2054696D65202D
:10040000666F722066756C6C2044697363686172F4
:10041000676520286D696E75746573293A200054EC
:10042000536E6E6E6E202D205368757420646F7746
:100430006E2061742074686973206D616E79206D1F
:10044000696E75746573206C6566742020203A208F
:100450000042446E6E6E6E202D20536875742044E9
:100460006F776E2061742062617474657279207692
:100470006F6C7461676520202028562A313030293E
:100480003A200042466E6E6E6E202D2042617474DA
:100490006572792046756C6C2043686172676520CF
:1004A000766F6C746167652020202028562A3130D1
:1004B00030293A200042566E202020202D20426113
:1004C000742053797374656D20566F6C747320318A
:1004D0003D31325620323D32345620343D34385688
:1004E000202020203A200020202020202020202012
:1004F00020202020303D5062416320313D4C692D49
:10050000496F6E20323D4C465020333D41474D20CF
:100510002020202020203A200042436E202020204E
:100520002D2042617474657279204368656D69732A
:1005300074727900454E526E2020202D2057686934
:100540006C6520696E204E6F726D616C2072756EE5
:10055000206D6F6465202020202020202020202076
:100560002020203A2000454E436E2020202D205789
:1005700068696C6520696E20436F6E666967206DDF
:100580006F64652020202020202020202020202093
:1005900020202020203A200020202028303D4E6FAF
:1005A000205043207265706F7274696E672F736894
:1005B0007574646F776E2E20313D456E61626C6597
:1005C000642900456E61626C65207265706F72749B
:1005D000696E672F53687574646F776E20746F202F
:1005E000746F2074686520504320005072657365F5
:1005F0006E742053657474696E67733A00436F6D4F
:1006000070696C65642061743A2000536D61727486
:100610002055505320456D756C61746F7220763093
:100620002E31005A20202D20526573746F72652080
:10063000466163746F72792044656661756C74738A
:10064000004843202D2053686F7720436170616319
:1006500069747920636F6E66696773004850202D56
:100660002053686F772048494420506172616D655E
:1006700074657273000A2D2D2D2D4D656E752D2D0F
:100680002D2D00203D2043617061636974793A200B
:1006900000566F6C746167653A2000436170616356
:1006A00069747920437572766520706F696E747312
:1006B0003A0069734469734368617267696E67568B
:1006C0003A200069734368617267696E67566F6CA0
:1006D000743A200073687574646F776E566F6C742B
:1006E00061673A20007761726E696E67566F6C744D
:1006F0006167653A20000A0D2062617446756C6C72
:10070000566F6C746167653A000A0D42617420543B
:100710007970653A20004368656D69737472792059
:10072000436F6E666967733A006950726573656EF0
:10073000745374617475732020203A2030780062FD
:100740006174566F6C746167652020202020202022
:100750003A200052454D4E43415041434954594C73
:10076000494D49543A200052454D41494E494E4762
:1007700043415041434954593A200052554E54493F
:100780004D45544F454D5054592020203A200048A3
:1007900020666F722048656C700A005D2E000A5555
:1007A0006E6B6E6F776E20636F6D6D616E64205B34
:1007B000004849445F494E544552464143453A201A
:1007C000004344435F41434D5F494E5445524641C7
:1007D00043453A200042616420636F6D6D616E6431
:1007E0002E2053686F756C64206265204E4C206F1C
:1007F00072204E4800446562756720466C616773DD
:100800002028313A4D61696E29000A526573746F70
:1008100072656420466163746F7279204465666115
:10082000756C74732E2E2E0D0A204D757374206412
:100830006F2027532720746F207361766520746FB3
:1008400020454550524F4D20286E6F6E2D766F6CAF
:100850006174696C65206D656D6F7279292E000A6F
:100860005361766564206E65772076616C756528C6
:10087000732920746F20466163746F727920446518
:100880006661756C740A000A526573746F726564F0
:1008900020436F6D70696C656420466163746F728C
:1008A000792044656661756C747321000A53617622
:1008B0006564206E65772076616C756528732920E4
:1008C000746F20454550524F4D2E0A004552524FED
:1008D000523A204261642042202842617474657259
:1008E000792920636F6D6D616E643A2000562A315C
:1008F0003030206F662068696768657220766F6C9B
:100900007461676500562A313030206F66206C6F45
:100910007720766F6C74616765004552524F523A8A
:10092000204261642054696D6520636F6D6D616E56
:10093000643A20004D696E7574657320746F20668B
:10094000756C6C7920646973636861726765206691
:10095000726F6D2066756C6C0053687574646F7788
:100960006E206174204D696E75746573204C6566E8
:1009700074004552524F523A20426164204220286E
:10098000426174746572792920636F6D6D616E6464
:100990003A2000426174205620487973746572656C
:1009A000736973206265666F7265207265706F721D
:1009B00074696E6700313D31325620323D32345613
:1009C00020343D34385600426174204368656D69B7
:1009D000737472793A20303D5062416320313D4C4E
:1009E000692D496F6E20323D4C465020333D4147C2
:1009F0004D0053687574646F776E20617420426196
:100A0000747465727920560042617474657279203D
:100A100046756C6C204368617267652056004552CC
:100A2000524F523A2042616420454E61626C65200B
:100A3000636F6D6D616E6420636F6D6D616E643A9E
:100A40002000436F6E666967204D6F64653A2045EC
:100A50006E61626C65205043205265706F727469DC
:100A60006E672F53687574646F776E0052756E20D1
:100A7000284E6F726D616C29204D6F64653A204578
:100A80006E61626C65205043205265706F727469AC
:100A90006E672F53687574646F776E000A436D64D8
:100AA0003A20000A436D643A20005D005D005B005F
:100AB0005B006952656D6E43617061636974794C66
:100AC000696D6974204348414E4745442C206E6F40
:100AD000773A20006952656D6E4361706163697495
:100AE000794C696D6974204348414E4745442C2038
:100AF0006E6F773A2000417661696C61626C6520A7
:100B00004D656D6F72793A2000417661696C616262
:100B10006C65204D656D6F72793A20002028496719
:100B20006E6F72656429002323205043205365743F
:100B300074696E672052454D4E43415041434954BC
:100B4000594C494D495420746F2030780020284971
:100B5000676E6F7265642900202849676E6F726541
:100B600064290023232050432053657474696E6701
:100B70002052454D4E43415041434954594C494DF3
:100B8000495420746F203078002323205043205391
:100B9000657474696E672052454D4E434150414320
:100BA0004954594C494D495420746F2030780042C3
:100BB0006174562A3130303A2000426174562A312D
:100BC00030303A2000436F6D6D7320776974682070
:100BD000504320286E65673D626164293A200043D6
:100BE0006F6D6D73207769746820504320286E659F
:100BF000673D626164293A200053656E64696E67DF
:100C00003A200053656E64696E673A2000232053D2
:100C1000656E7365643A2000232053656E736564C6
:100C20003A20002C20002C2000204869563A200051
:100C3000204869563A20004C6F77563A20004C6F96
:100C400077563A20002C20002C20004372765573F2
:100C500065643A2000437276557365643A2000005B
:100C6000000000240027002A002D003000000000B2
:100C700000250028002B002E00310000000000237A
:100C800000260029002C002F00040404040403049F
:100C9000050202020204030202020206060606061A
:100CA0000604040202020404040802011040804009
:100CB0001020408040800802040180402010020182
:100CC000108010204040200000000200090F0000AA
:100CD000030401000C000000000000000000000000
:100CE00000000000000073687574646F776E2069FF
:100CF0006D6D696E656E740073687574646F776E80
:100D000020696D6D696E656E740073687574646FCB
:100D1000776E2072657175657374656400736875AC
:100D200074646F776E2072657175657374656400A5
:100D30002C20426174563D002C20426174563D00C7
:100D400053687574646F776E206E6F7721205274CC
:100D50007465207365636F6E64733D0053687574CA
:100D6000646F776E206E6F772120527474652073E4
:100D700065636F6E64733D00070605040100080A91
:100D80000B0C0D09446F6E277420666F72676574D3
:100D900020746F2028532961766520746865206E61
:100DA00065772076616C7565210020736574207409
:100DB0006F3A20004E657720004F6C642076616C9E
:100DC0007565207761733A20002076616C75652126
:100DD000204D617820697320312028666F72206170
:100DE00020626F6F6C292E0A004572726F723A2072
:100DF000496E76616C69642000446F6E27742066CA
:100E00006F7267657420746F20285329617665209E
:100E1000746865206E65772076616C756521003099
:100E200078002073657420746F3A20004E65772037
:100E3000003078004F6C642076616C7565207761B6
:100E4000733A20002E0A00222076616C75652120FD
:100E50004D696E20697320004572726F723A2049A5
:100E60006E76616C69642022002E0A002076616C27
:100E7000756521204D617820697320004572726F7D
:100E8000723A20496E76616C696420000584090419
:100E9000A1010924A10275089501150026FF00850E
:100EA0000109FE7902B123850209FF7903B1238587
:100EB0000309FD7901B12305858506098BB12385D9
:100EC0001F09897904B1238520098F7905B123850C
:100ED00016092CB1238510098D266400B1228518CE
:100EE000098EB123850E0967B18385170983B18304
:100EF000850C096681A30966B1A3850F098CB1A28F
:100F000085110929B1A285090985751027FFFF0000
:100F100000B1A3851A096A27FFFF0000660110557A
:100F200000B1A3851C096981A30969B1A3850D09D5
:100F30006881A30968B1A38508092A75102764058B
:100F400000001678008122092AB1A20584851209C1
:100F50005716008027FF7F0000B1A285130955B105
:100F6000A2850A0940150027FFFF00006721D1F084
:100F7000005505B123850B093081A30930B1A38544
:100F800014095A75081501250365005500812209C9
:100F90005AB1A20902A10285070585094475011508
:100FA00000250181A30944B1A3094581A30945B1E5
:100FB000A309D081A309D0B1A309D181A309D1B1DB
:100FC000A3094281A30942B1A3094381A20943B104
:100FD000A2094B81A3094BB1A309DB81A309DBB1B2
:100FE000A3094681A30946B1A3094781A30947B1D3
:100FF000A30584096881A20968B1A2096981A309CE
:1010000069B1A3097381A30973B1A3096581A30918
:1010100065B1A395028101B101C0C0C06521112451
:101020001FBECFEFDAE0DEBFCDBF13E0A0E0B1E03E
:10103000E4EBF9E602C005900D92A432B107D9F7AE
:1010400027E0A4E2B3E001C01D92A339B207E1F7A3
:1010500018E0CFE0D8E004C02197FE010E94FD33E4
:10106000CE30D107C9F70E9449220C94D8340C9491
:101070000000EDE7FDE0E49190917B008E2F880F5A
:10108000880F80729F7D892B80937B00E770E064DE
:10109000E0937C0080917A00806480937A00809154
:1010A0007A0086FDFCCF80917800909179000895B8
:1010B000FC0180919505882311F13FB7F89482E0F7
:1010C0008093E9002091F200822F90E01816190613
:1010D00014F481E090E0882339F0289844E64093A6
:1010E00094054091F1004083222339F02091F200D1
:1010F000211103C02BE62093E8003FBF08958FEF36
:101100009FEF089583E08093E9008091F2008823A7
:1011100019F08AE38093E800089581508F3008F039
:1011200047C0E82FF0E0E956F74F0C94FD33B408C0
:10113000B808A608AC08B008D808D808D808BB0872
:10114000C108C508C908CF08D808D3088091800015
:101150008F77809380000895809180008F7DF9CFF4
:1011600080918000877FF5CF84B58F7784BD089507
:1011700084B58F7DFBCF809190008F778093900016
:101180000895809190008F7DF9CF80919000877FA6
:10119000F5CF8091C0008F778093C0000895809133
:1011A000C0008F7DF9CF8091C200877F8093C200FD
:1011B0000895CF93DF93E9ECFCE08491EAEAFCE048
:1011C000D491EBE8FCE0C491CC23A1F081110E9402
:1011D0008D08EC2FF0E0EE0FFF1FE558F34FA591BF
:1011E000B491EC91ED2381E090E009F480E0DF918F
:1011F000CF91089580E090E0FACF1F93CF93DF93D3
:10120000282F30E0F901E953F34F8491F901E855B3
:10121000F34FD491F901E757F34FC491CC23A9F0D0
:10122000162F81110E948D08EC2FF0E0EE0FFF1FAA
:10123000E359F34FA591B4918FB7F894EC91111144
:1012400008C0D095DE23DC938FBFDF91CF911F9133
:101250000895DE2BF8CFCF93DF9390E0FC01E855A3
:10126000F34F24918757934FFC0184918823C9F051
:1012700090E0880F991FFC01E15AF34FA591B491BA
:10128000FC01E359F34FC591D49161110DC09FB793
:10129000F8948C91209582238C938881282328832D
:1012A0009FBFDF91CF910895623051F49FB7F894BA
:1012B0003C91822F809583238C93E8812E2BEFCF56
:1012C0008FB7F894EC912E2B2C938FBFEACF3FB7BA
:1012D000F8948091900590919105A0919205B0911C
:1012E000930526B5A89B05C02F3F19F00196A11DB7
:1012F000B11D3FBFBA2FA92F982F8827BC01CD0160
:10130000620F711D811D911D42E0660F771F881FBE
:10131000991F4A95D1F708958F929F92AF92BF92ED
:10132000CF92DF92EF92FF924B015C010E9467091E
:101330006B017C010E9467096C197D098E099F0968
:10134000683E734081059105A8F321E0821A910857
:10135000A108B10888EEC80E83E0D81EE11CF11C7C
:1013600081149104A104B10429F7FF90EF90DF905C
:10137000CF90BF90AF909F908F9008952FB7F89423
:1013800060918C0570918D0580918E0590918F05EF
:101390002FBF08954F925F926F927F928F929F928C
:1013A000AF92BF92CF92DF92EF92FF92209184078B
:1013B0002223D1F1809183078823D9F185E197E039
:1013C0002223A1F120918307E5E1F7E0222371F1C7
:1013D0000190F081E02D0680F781E02D09950E94B3
:1013E000BE092B013C01C12CD12C7601812C912C02
:1013F00054010E94BE09641975098609970965366A
:10140000710581059105C0F00E943908092E000C74
:10141000AA0BBB0B880E991EAA1EBB1E8FEFC81A03
:10142000D80AE80AF80AE5CF88E796E0E8E7F6E0A8
:10143000CFCF88E796E0C4CFC114D104E104F10412
:1014400071F4FF90EF90DF90CF90BF90AF909F909E
:101450008F907F906F905F904F900C943908C501EA
:10146000B401A70196010E946B33C901FF90EF9070
:10147000DF90CF90BF90AF909F908F907F906F90B4
:101480005F904F900895EF92FF920F931F93CF9329
:10149000DF938C017B01D0E0C0E0F701EC0FFD1F72
:1014A0006491662361F0D801ED91FC910190F08187
:1014B000E02DC8010995892B11F02196EECFCE01C0
:1014C000DF91CF911F910F91FF90EF900895AF9210
:1014D000BF92CF92DF92EF92FF920F931F93CF9321
:1014E000DF936C017B018B01040F151FEB015E0183
:1014F000AE18BF08C017D10759F06991D601ED9118
:10150000FC910190F081E02DC6010995892B79F7B6
:10151000C501DF91CF911F910F91FF90EF90DF9068
:10152000CF90BF90AF900895FC01538D448D252F2F
:1015300030E0842F90E0821B930B541710F0CF966D
:10154000089501970895FC01918D828D981761F09F
:10155000A28DAE0FBF2FB11D5D968C91928D9F5FB6
:101560009F73928F90E008958FEF9FEF0895FC0195
:10157000918D828D981731F0828DE80FF11D858D48
:1015800090E008958FEF9FEF0895FC01918D228DDB
:10159000892F90E0805C9F4F821B91098F73992760
:1015A000089588E796E00E94C50A21E0892B09F496
:1015B00020E0822F0895FC01A48DA80FB92FB11D42
:1015C000A35ABF4F2C91848D90E001968F73992779
:1015D000848FA689B7892C93A089B1898C91827454
:1015E0008C93938D848D981306C00288F389E02D27
:1015F00080818F7D80830895EF92FF920F931F93D8
:10160000CF93DF93EC0181E0888F9B8D8C8D9813B5
:1016100019C0E889F989808185FF14C09FB7F894C3
:10162000EE89FF896083E889F989808182748083EB
:101630009FBF81E090E0DF91CF911F910F91FF90CC
:10164000EF900895F62E0B8D10E00F5F1F4F0F7374
:101650001127E02E8C8D8E110CC00FB607FCFACF2F
:10166000E889F989808185FFF5CFCE010E94DB0AE8
:10167000F1CFEB8DEC0FFD2FF11DE35AFF4FF08200
:101680009FB7F8940B8FEA89FB8980818062CFCF66
:10169000CF93DF93EC01888D8823B9F0AA89BB89A9
:1016A000E889F9898C9185FD03C0808186FD0DC094
:1016B0000FB607FCF7CF8C9185FFF2CF808185FFB5
:1016C000EDCFCE010E94DB0AE9CFDF91CF910895E3
:1016D00080E090E0892B29F00E94D10A81110C94BE
:1016E0000000089520914105260F3327331F213232
:1016F0003105ECF420916505FC0190E080E0243098
:1017000069F082E00895A09141052191AC014F5DFF
:101710005A4FA40FB52FB11D2C930196861798F33D
:1017200080914105680F6093410580E0089581E054
:10173000089508958FEF9FEF08958FEF9FEF08951D
:1017400080911A0590E09195819591090895CF9324
:10175000DF93CB01EA01642F0E94720BCE01DF916F
:10176000CF910895CF93DF931F92CDB7DEB76983F2
:1017700061E0CE0101960E94720B81E090E00F9033
:10178000DF91CF91089590E080E008950F931F932B
:10179000CF93DF93EC010E94BE09088119812A8151
:1017A0003B81601B710B820B930B0C811D812E8181
:1017B0003F81061717072807390730F488858823E3
:1017C00019F0188681E08987DF91CF911F910F91E1
:1017D0000895DC015296ED91FC9130E020E03097C5
:1017E000A1F0DC0154964D915C912417350758F413
:1017F000428153814617570741F00190F081E02D57
:101800002F5F3F4FECCFF0E0E0E0CF0108950C9464
:10181000820840913203509133032091300330917C
:10182000310342175307B4F49091E8009570E1F347
:101830009091E80092FD19C08093F10080913203ED
:101840009091330301968F739927892B19F48EEFAA
:101850008093E80080913203909133030196909336
:1018600033038093320381E0089580E00895DF928E
:10187000EF92FF920F931F93CF93DF93D82E8A019D
:10188000EB017B01E40EF51ECE15DF0559F0D7FE06
:1018900012C0FE0184910E94090C21968111F4CF9F
:1018A0000FEF1FEFC801DF91CF911F910F91FF90B4
:1018B000EF90DF9008958881EECFCF93DF93CDB77F
:1018C000DEB7A0970FB6F894DEBF0FBECDBFFC0108
:1018D000DB018C918F5F8C939E012D5F3F4F88E0E1
:1018E000D9011D928A95E9F799E0998384E08A836A
:1018F00022E02D8383E08E839A8731E23B8791E05B
:101900009C879D873E879F8792E2988B37E03B8B31
:1019100095E09C8B44E84D8B8E8B40E450E0588FD3
:101920004F8B64E1698F3A8F9B8F9C8F8D8F5F8F78
:101930004E8F8AE088A382818B8396858785998BD9
:101940008A8B80918407811103C081E88D8B2C8F55
:1019500040E250E0BE016F5F7F4F80E00E94370C95
:10196000A0960FB6F894DEBF0FBECDBFDF91CF912A
:1019700008952FB7F89487708093E9009091E8005C
:10198000892F807295FF04C09091F20080E4891B3A
:101990002FBF08958F929F92AF92BF92CF92DF9206
:1019A000EF92FF920F931F93CF93DF93B82E6B01AB
:1019B0008A018091950581110FC08FEF9FEFDF9114
:1019C000CF911F910F91FF90EF90DF90CF90BF903C
:1019D000AF909F908F9008958091360380FF05C04F
:1019E0008091E00082608093E000C02FD12FF12C25
:1019F0008AEFE82E8B2D8770982E8B2D8074882E81
:101A00009AE3A92E209719F4FF2009F443C08B2DE7
:101A10000E94B90C81110AC0EA94EE2071F261E0D3
:101A200070E080E090E00E948C09ECCF8C171D06DE
:101A300011F00CF08C2F9FB7F8949092E900209150
:101A4000E80025FD02C09FBFDDCF282F30E0C21B7C
:101A5000D30BF601815020F041914093F100FACF71
:101A6000C20ED31EFF2021F0A092E800F12CEBCF94
:101A70008091E80085FD07C0A092E800FF24F39460
:101A8000209709F3F3CF2097F1F68820E1F2A09296
:101A9000E800D9CF5D9884E680933503C8018FCFE5
:101AA000615030F02091F100FC0120830196F8CFC5
:101AB000289884E6809394050895AF92BF92DF92B0
:101AC000EF92FF920F931F93CF93DF935C018B01F3
:101AD000EB019BEFD92E2097C1F07E01C134D105D7
:101AE0001CF080E4E82EF12C8091E80082FFFCCF0E
:101AF000C8018C1B9D0B6E2D8A0D9B1D0E94500DE5
:101B0000D092E800CE19DF09E6CFC801DF91CF916E
:101B10001F910F91FF90EF90DF90BF90AF900895CD
:101B20008091280381110DC082E08093240384E01A
:101B300080932503109227031092260381E080935F
:101B4000280384E293E008950F931F93CF93DF93CC
:101B50001F92CDB7DEB7198280918407882349F0A0
:101B600082E0898342E450E060E071E080E00E941E
:101B7000370C0E94900DDC0112960D911C910115FD
:101B8000110589F0D801ED91FC910280F381E02DDF
:101B9000BE016F5F7F4FC801099597FD04C0F80132
:101BA00000851185ECCF89810F90DF91CF911F9136
:101BB0000F910895CF93DF93EC0180915F0188230B
:101BC00031F083E00E94CA0C1816190634F081E047
:101BD00090E09B838A8380E090E0DF91CF9108952D
:101BE000CF93DF931F92CDB7DEB76983DC01ED9110
:101BF000FC910280F381E02D41E050E0BE016F5F77
:101C00007F4F09950F90DF91CF91089583E00E9457
:101C1000B90C90E00895CF93DF931F92CDB7DEB754
:101C2000FC018485958597FD08C02FEF3FEF358730
:101C300024870F90DF91CF910895CE0101960E94E5
:101C40005808019719F4898190E0F3CF8FEF9FEF47
:101C5000F0CF0F931F93CF93DF931F92CDB7DEB7D3
:101C60008C01FC018485958597FF0BC0CE01019600
:101C70000E945808019771F4898190E0F8019587D6
:101C80008487F801848595850F90DF91CF911F910E
:101C90000F9108958FEF9FEFF1CFFC01848595851B
:101CA00097FD0BC09FB7F89482E08093E900809184
:101CB000F2009FBF90E0019608959FB7F89482E0EC
:101CC0008093E9008091F2009FBF90E008950F9308
:101CD0001F93CF93DF93CDE9D5E08C010D591540CB
:101CE000C8018C0F9D1F0E943133899386E0CB354C
:101CF000D807B1F78DE995E0DF91CF911F910F9152
:101D00000895AF92BF92DF92EF92FF920F931F93CD
:101D1000CF93DF935C010DE915E0D0E0C0E0F8015E
:101D2000D1908F017501EC0EFD1EC7010E94313369
:101D3000D81621F06D2DC7010E9439332196CE3B74
:101D4000D10569F78DE995E0DF91CF911F910F9152
:101D5000FF90EF90DF90BF90AF900895FB0101904E
:101D60000020E9F73197AF01461B570BDC01ED91DD
:101D7000FC910280F381E02D09948F929F92AF92A3
:101D8000BF92EF92FF920F931F93CF93DF93CDB744
:101D9000DEB7A1970FB6F894DEBF0FBECDBF7C01B2
:101DA000FA01CB0119A2223008F42AE08E010F5D5E
:101DB0001F4F822E912CB12CA12CBF01A5019401A3
:101DC0000E946B33F901CA016A300CF5605DD801DD
:101DD0006E938D01232B242B252B79F790E080E047
:101DE000109721F0BD01C7010E94AE0EA1960FB65B
:101DF000F894DEBF0FBECDBFDF91CF911F910F9141
:101E0000FF90EF90BF90AF909F908F900895695C86
:101E1000DECFCF92DF92EF92FF920F931F93CF937B
:101E2000DF936B01770FEE08FF08F7FE1FC0EC0190
:101E3000E881F9810190F081E02D6DE209958C0136
:101E400044275527BA014C195D096E097F092AE01C
:101E5000CE010E94BD0E800F911FDF91CF911F9187
:101E60000F91FF90EF90DF90CF9008952AE0B70197
:101E7000A601DF91CF911F910F91FF90EF90DF901E
:101E8000CF900C94BD0E0C94BD0E9A01AB0170E086
:101E900060E00C94430F9A01462F50E070E060E040
:101EA0000C94430F8F929F92AF92BF92CF92DF928A
:101EB000EF92FF920F931F93CF93DF937C01EB017F
:101EC0006C0182E0C80ED11C4701E5E08E0E911C2A
:101ED00010E000E0F60161916F014AE050E0CE01B0
:101EE0000E944B0F5C01E881F9810190F081E02DA7
:101EF0006EE2CE0109958A0D9B1D080F191FC814AB
:101F0000D90441F74AE050E0F7016581CE010E9413
:101F10004B0F800F911FDF91CF911F910F91FF9079
:101F2000EF90DF90CF90BF90AF909F908F900895EB
:101F300062E372E00C94AE0E0F931F93CF93DF9386
:101F4000EC010E94090F8C01CE010E94980F800FB6
:101F5000911FDF91CF911F910F9108950F931F93C0
:101F6000CF93DF93EC010E94450F8C01CE010E94BC
:101F7000980F800F911FDF91CF911F910F910895BE
:101F80000F931F93CF93DF93EC010E944B0F8C01B3
:101F9000CE010E94980F800F911FDF91CF911F916A
:101FA0000F9108950F931F93CF93DF938C01D0E08F
:101FB000C0E06115710519F00E94AE0EEC01C80178
:101FC0000E94980F8C0F9D1FDF91CF911F910F9151
:101FD00008950F931F93CF93DF93EC01FB0144818E
:101FE000558160817181E881F9810280F381E02D62
:101FF00009958C01CE010E94980F800F911FDF91EF
:10200000CF911F910F9108950F931F93CF93DF935B
:10201000EC010E94430A8C01CE010E94980F800FB0
:10202000911FDF91CF911F910F9108952F923F92B1
:102030004F925F926F927F928F929F92AF92BF92D8
:10204000CF92DF92EF92FF920F931F93CF93DF9384
:1020500000D01F92CDB7DEB70E94CA09C090B0056C
:10206000D090B105F12CE12C8090AE059090AF0599
:10207000B12CA12C2091B4053091B50550E040E081
:102080002C193D094E095F09BC01990F880B990B6A
:10209000681979098A099B090E9447332091B20582
:1020A0003091B30550E040E0281939094A095B092D
:1020B0000E948D33C20ED31EE41EF51ED7FC00C253
:1020C000D0928A01C09289012091890130918A01C0
:1020D0003B832A8380918801882351F030939B05AC
:1020E00020939A05309387012093860110928801EE
:1020F00020919A0530919B05C9014A815B81841B1F
:10210000950B97FF03C09195819591094091A80582
:10211000481719069CF481E04A815B812417350732
:102120000CF080E0809399058A819B8190939B05B8
:1021300080939A0590938701809386010091A5056D
:102140001091A6058EE1809FF001819FF00D112472
:10215000E356FA4F80A991A92A813B818217930700
:102160000CF0B3C181E080939905209099052092ED
:102170007E0120927D0181E08225898380939605EE
:1021800060918601709187018EE1809FF001819FAF
:10219000F00D1124E356FA4F91A5312C81E0830D07
:1021A000891738F43496218D328D6217730708F041
:1021B00097C152E0531510F432E0332EA32DB0E056
:1021C000FD013196AA0FBB1FAA0FBB1F2EE1209F56
:1021D000C001219F900D1124A80FB91FA356BA4F1B
:1021E0005B968D909C905C97B12CA12CEE0FFF1FFD
:1021F000EE0FFF1FE80FF91FE356FA4FE18CF28C48
:102200005996CD90DC902601712C612C238D348D54
:1022100050E040E0281939094A095B0990E080E064
:1022200064197509860997090E944733970150E0A0
:1022300040E024193509460957090E948D33820E62
:10224000931EA41EB51E90927C0180927B0197FC88
:1022500049C185E6881691041CF084E6882E912CED
:1022600030927A01F0927901E0927801D092770170
:10227000C092760180928501A091A105B091A2053E
:10228000282D30E00E94EE3324E630E040E050E0BC
:102290000E946B33B90130938401209383018091B4
:1022A000970590919805222009F41EC185609093AE
:1022B00098058093970580919705909198052091B6
:1022C0008201281113C1916090939805809397051E
:1022D00080919705909198052981222309F423C1C3
:1022E0009C01226030939805209397052091A305C7
:1022F0003091A4056217730780F02EE1209FF00152
:10230000219FF00D1124E356FA4F26A537A54A81E7
:102310005B81421753070CF003C180918407882327
:1023200009F4E6C080918307882309F4E1C06CE5D5
:102330007DE085E197E00E94430A609183017091FE
:102340008401809184074AE050E0882309F4D5C0D5
:1023500080918307882309F4D0C085E197E00E942B
:10236000450F80918407882309F4CAC080918307B0
:10237000882309F4C5C068E37DE085E197E00E9409
:10238000430A6091890170918A01809184078823B2
:1023900009F4BBC080918307882309F4B6C085E1A6
:1023A00097E00E949C0F20918407222309F4B0C07B
:1023B00080918307882309F4B0C085E197E0222348
:1023C00009F4A8C020918307E5E1F7E0222309F48E
:1023D000A1C00190F081E02D0680F781E02D0995E4
:1023E00080919705909198058062909398058093CD
:1023F00097058091970590919805209180013091E3
:102400008101121613060CF095C094609093980504
:102410008093970580917F01882381F080918407C4
:10242000882309F482C080918307882309F47DC042
:102430006DE17DE085E197E00E94041080919705B1
:10244000909198059C0120723470232B09F47DC073
:102450009860909398058093970580917F018823D9
:1024600081F080918407882309F46AC080918307F2
:10247000882309F465C068EF7CE085E197E00E945D
:102480000410809197059091980588609093980525
:10249000809397050F900F900F90DF91CF911F9130
:1024A0000F91FF90EF90DF90CF90BF90AF909F90F3
:1024B0008F907F906F905F904F903F902F900895F6
:1024C00010928A0110928901FFCD82A993A94A81B5
:1024D0005B81481759070CF048CE1092990545CEFC
:1024E000382E5CCE812CBCCE8A7FE1CE9E7FECCE96
:1024F00060E47DE088E796E01ECF88E796E02FCF86
:1025000060E37DE088E796E03ACF88E796E049CF40
:1025100088E796E0E8E7F6E05CCF88E796E04FCF03
:102520008F7D826062CF8D7D60CF6AE07DE088E73D
:1025300096E082CF9B7F90939805809397057ECFFE
:1025400066EE7CE088E796E09ACF977F90939805B7
:102550008093970596CFCF92DF92EF92FF920F93E1
:102560001F93CF93DF93109258068AEA80939D05BC
:1025700085E580939E0581E095EA90935A068093C5
:10258000590680E29CE19093A00580939F0590936B
:10259000A2058093A1052CE231E03093A40520939D
:1025A000A30523E030E03093A6052093A50571E054
:1025B0007093A70528E02093A80528E035E0309324
:1025C000C8052093C705C2EED4E0D093CA05C093D6
:1025D000C90544E754E05093CC054093CB053093B4
:1025E000CE052093CD0542E954E05093D0054093A9
:1025F000CF0564E06093C6059093D2058093D10522
:102600001092D305EAE8F4E0F093B705E093B6053D
:102610001092B9051092B8055093BB054093BA05C6
:102620000AE010E01093BD050093BC054EEF54E0A6
:102630005093BF054093BE054AE550E05093C10555
:102640004093C0053093C3052093C20544E650E093
:102650005093C5054093C4052EE1EDECF1E0A0E1F7
:10266000B6E001900D922A95E1F7E0E5F5E0F093F0
:10267000E605E093E505D093E805C093E70528ED6E
:10268000C22E24E0D22ED092EA05C092E90535E5AB
:10269000E32E35E0F32EF092EC05E092EB0520EB13
:1026A00034E03093EE052093ED056093E4059093BC
:1026B000F0058093EF051092F105A8EEB3E0B0931A
:1026C000D505A093D4051092D7051092D605309366
:1026D000D9052093D8051093DB050093DA0500E0B7
:1026E00015E01093DD050093DC0504E110E0109384
:1026F000DF050093DE05F093E105E093E0055093DC
:10270000E3054093E205F0930406E0930306D093BB
:102710000606C0930506D0920806C0920706F092FE
:102720000A06E092090630930C0620930B0660938C
:10273000020690930E0680930D0610920F06B0933A
:10274000F305A093F2051092F5051092F40530936D
:10275000F7052093F60589E090E09093F9058093C2
:10276000F8058AE095E09093FB058093FA051093B5
:10277000FD050093FC0586E495E09093FF058093AA
:10278000FE0550930106409300068EE1E0E1F6E07D
:10279000AEE2B6E001900D928A95E1F71092B10594
:1027A0001092B0051092AF051092AE0588E795E043
:1027B0009093B5058093B4058FEF93E09093B305A4
:1027C0008093B2058AE08093A90585E08093AB05EC
:1027D0001092AC057093AD0510927F0168E071E036
:1027E00088E796E00E940410809184078823C1F056
:1027F000C0915F016AE070E080E090E00E948C0987
:10280000CC2371F06DEE70E085E197E0DF91CF9120
:102810001F910F91FF90EF90DF90CF900C940410D8
:10282000DF91CF911F910F91FF90EF90DF90CF90AC
:1028300008956115710511F00C94AE0E90E080E0E2
:102840000895AF92BF92CF92DF92EF92FF920F93D3
:102850001F93CF93DF93EC01B62E6A0179016BEDE4
:1028600070E00E94430A4AE050E06B2DCE010E94C6
:102870004B0F67ED70E0CE010E94430AC6016CE386
:1028800070E00E9457336C014AE050E0CE010E9494
:10289000450F65ED70E0CE010E94430A4AE050E02A
:1028A000B601CE010E94450F63EC70E0CE010E949C
:1028B000430A6091890170918A01CE010E94090F3B
:1028C0006AEB70E0CE010E94430A4AE050E0B70193
:1028D000CE010E94450F6CEA70E0CE010E94430ACF
:1028E00040E150E0B801CE010E94450F85EBC82EB3
:1028F00081E0D82EF12CE12CAA24A394B12CC5019F
:102900000E2C02C0880F991F0A94E2F780239123AE
:10291000892B59F08BE065E372E08E1518F0F60113
:1029200060817181CE010E941914FFEFEF1AFF0A36
:1029300082E0C80ED11CEFE0EE16F10401F7CE01E3
:102940000E94980FE881F9810680F781E02DCE0181
:10295000DF91CF911F910F91FF90EF90DF90CF907B
:10296000BF90AF900994BF92CF92DF92EF92FF9207
:102970000F931F93CF93DF93DC01EB0158968D915A
:102980009C915997892BB9F08D01B12CCB2CD12C6E
:10299000F801E08CF18CC7010E94DD32C816D9061F
:1029A00010F5F701EC0DFD1DE491DE01AC0DBD1D30
:1029B000EC93B394EBCF88E4888389E4898384E43F
:1029C0008A831E968C911E978F708F5B8B831E96C9
:1029D0008D919C9124E0969587952A95E1F78F70CB
:1029E0008F5B8C8385E0DF91CF911F910F91FF90DA
:1029F000EF90DF90CF90BF900895CF92DF92EF924B
:102A0000FF920F931F93CF93DF9300D0CDB7DEB724
:102A10007C01FB011381133009F046C0628170E034
:102A20007F6F0E94E90B009709F46AC0DC011496DD
:102A3000FC9014971596DC908F2D9D2D0E94DD3211
:102A4000E82E1A8381E08E0D880F898342E050E0E2
:102A5000BE016F5F7F4F80E00E94370CCF2C0F2D9F
:102A60001D2D802F8C198E15E8F4F801849189832F
:102A70001A8242E050E0BE016F5F7F4F80E00E940B
:102A8000370C0F5F1F4F892B61F780E090E00F90AC
:102A90000F90DF91CF911F910F91FF90EF90DF90FA
:102AA000CF90089581E0F2CF8081813849F51232CC
:102AB00039F5D70112962C911297848195812817A8
:102AC0001906F1F41C960D911C91D12CC12C011505
:102AD000110589F0F801448155816281738180E894
:102AE0000E94370C8F3F980791F2C80ED91ED8016B
:102AF0000D911C91ECCF81E0F701808BC601C7CF0F
:102B000090E080E0C4CF0F931F93CF93DF93EC014D
:102B100088819981009759F02A813B8126173707D0
:102B200030F081E0DF91CF911F910F9108958B01DB
:102B30006F5F7F4F0E940334009759F09983888319
:102B40001B830A832C813D81232B59F7FC011082C2
:102B5000E8CF80E0E7CFCF93DF93EC0188819981C4
:102B6000009711F00E940F31198218821D821C8279
:102B70001B821A82DF91CF910895EF92FF920F93FB
:102B80001F93CF93DF938C017B01EB010990002011
:102B9000E9F72197C61BD70BBE010E94831581114F
:102BA00009C0C801DF91CF911F910F91FF90EF9065
:102BB0000C94AB15F801D583C483B7018081918152
:102BC000DF91CF911F910F91FF90EF900C94D13432
:102BD000EF92FF920F931F93CF93DF93EC018B0142
:102BE000CB010E94DD327C01BC01CE010E94831525
:102BF00081110BC0CE010E94AB15CE01DF91CF91A8
:102C00001F910F91FF90EF900895FD82EC82B80123
:102C1000888199810E94D632F0CFFC018081918118
:102C2000009711F00C940F310895AF92BF92CF929C
:102C3000DF92EF92FF920F931F93CF93DF93CDB765
:102C4000DEB76E970FB6F894DEBF0FBECDBF8C0116
:102C50006B017A011A8E198E1C8E1B8E1E8E1D8E94
:102C6000B901CE0149960E94E815F6018081918153
:102C70008D30910519F00A9709F08FC0C98CDA8C54
:102C8000C80101960E94AF328C0180918507909116
:102C900086070230110560F169EE7DE00E94430A6B
:102CA000B60180918507909186070E94191469ECFE
:102CB0007DE080918507909186070E94041010E0C6
:102CC00010929C05CE0149960E940D16812F6E969A
:102CD0000FB6F894DEBF0FBECDBFDF91CF911F912D
:102CE0000F91FF90EF90DF90CF90BF90AF9008953D
:102CF00069EB7DE00E94430AA0908507B0908607AB
:102D0000F70180811C8A1B8A1E8A1D8A188E1F8AE1
:102D10004AE0BE016F5F7F4F90E00E94E632BE0145
:102D20006F5F7F4FCE0143960E94BD15BE016D5E61
:102D30007F4FC5010E94E90FCE0143960E940D16F8
:102D40000170F701008364EB7DE08091850790912D
:102D500086070E94430AB6018091850790918607F5
:102D60000E9419146AEA7DE0809185079091860798
:102D70000E94430AF701608170E08091850790917D
:102D800086070E949C0F64E87DE080918507909102
:102D900086070E94041011E093CF10E093CF0F93A9
:102DA0001F93CF93DF93CDB7DEB761970FB6F8943B
:102DB000DEBF0FBECDBF8C01CB01F80111821082A6
:102DC000138212821582148250E0BE016F5F7F4F22
:102DD0000E94F932BE016F5F7F4FC8010E94BD158E
:102DE00061960FB6F894DEBF0FBECDBFDF91CF91D5
:102DF0001F910F9108950F931F93CF93DF93CDB73A
:102E0000DEB729970FB6F894DEBF0FBECDBF8C0199
:102E1000862FF80111821082138212821582148289
:102E200050E0BE016F5F7F4F90E00E94F932BE011B
:102E30006F5F7F4FC8010E94BD1529960FB6F894A9
:102E4000DEBF0FBECDBFDF91CF911F910F910895CF
:102E50002F923F924F925F926F927F928F929F92AA
:102E6000AF92BF92CF92DF92EF92FF920F931F9398
:102E7000CF93DF93CDB7DEB728970FB6F894DEBFB8
:102E80000FBECDBFE0E15E2EA11002C03AE0532E8E
:102E9000FB01608171816D30710521F06A3071052F
:102EA00009F0EEC0AF821701380128877A01A52CFE
:102EB000B12CA50170E060E001960E949831462E89
:102EC000062F172F8091850790918607E016F1064F
:102ED00008F040C06CE77EE00E94430AB601809192
:102EE0008507909186070E9419146CE67EE0809118
:102EF0008507909186070E94430A4AE050E0B70197
:102F000080918507909186070E94450F69E67EE0D3
:102F100080918507909186070E94041080E01092AE
:102F20009C0528960FB6F894DEBF0FBECDBFDF918B
:102F3000CF911F910F91FF90EF90DF90CF90BF90B6
:102F4000AF909F908F907F906F905F904F903F9049
:102F50002F90089508151905F8F468E57EE00E94A1
:102F6000430AB60180918507909186070E94191443
:102F700067E47EE080918507909186070E94430A6E
:102F80004AE050E0B40180918507909186070E9445
:102F9000450F64E47EE0BCCF64E37EE00E94430A18
:102FA000FF81FF2341F061E37EE0809185079091EE
:102FB00086070E94430AE0908507F090860788857F
:102FC000882309F447C0452DF3016081CE010196A5
:102FD0000E94FB16BE016F5F7F4FC7010E94E90F81
:102FE000CE0101960E940D16F30140826CE27EE054
:102FF00080918507909186070E94430AB6018091CF
:103000008507909186070E94191462E27EE0809104
:103010008507909186070E94430AFF81FF2341F0B4
:103020006FE17EE080918507909186070E94430AB8
:10303000A501B80180918507909186070E94AE0F87
:1030400069EF7DE080918507909186070E940410CA
:1030500081E065CFF10160817181452DCE0101963E
:103060000E94CF16BE016F5F7F4FC7010E94E90F1C
:10307000CE0101960E940D16F10111830083B6CF97
:1030800080E04FCF2F923F924F925F926F927F924C
:103090008F929F92AF92CF92DF92EF92FF920F9317
:1030A0001F93CF93DF9300D000D000D01F92CDB7F5
:1030B000DEB73C012B011A017901B8011A8219828D
:1030C0001C821B821E821D82CE0101960E94E81581
:1030D000C980DA80912C812CA12C8E01095F1F4FB1
:1030E00020E0A101B201C3010E942817782ECE0171
:1030F00001960E940D16872D27960FB6F894DEBF15
:103100000FBECDBFDF91CF911F910F91FF90EF9038
:10311000DF90CF90AF909F908F907F906F905F9057
:103120004F903F902F9008952F923F924F925F9231
:103130006F927F928F929F92AF92CF92DF92EF9297
:10314000FF920F931F93CF93DF93CDB7DEB72A97EC
:103150000FB6F894DEBF0FBECDBF3C012B015A87DE
:1031600049871901B8011A8219821C821B821E82AA
:103170001D82CE0101960E94E8158C2C912CC980ED
:10318000DA80AE2CCE0107967C01810121E04985D1
:103190005A85B201C3010E942817C82ECE0101969C
:1031A0000E940D168C2D2A960FB6F894DEBF0FBE26
:1031B000CDBFDF91CF911F910F91FF90EF90DF90E6
:1031C000CF90AF909F908F907F906F905F904F9037
:1031D0003F902F9008951F93CF93DF9385ED8093B9
:1031E000BC0080911D0590911E05A0911F05B09116
:1031F00020050796A11DB11D23E0B695A7959795CB
:1032000087952A95D1F72091BC0024FD03C0109228
:10321000650552C040911D0550911E0560911F0526
:1032200070912005452B462B472B69F30097A1058C
:10323000B10541F02AE22A95F1F700C00197A109F2
:10324000B109E1CF80911C05C1E0C0931B05882323
:1032500099F1D091B8001091BA008091BC008A7B9E
:103260008093BC0060E082E00E94FD0860E083E0A3
:103270000E94FD0810926505C093670510926605CF
:1032800061E082E00E94FD0861E083E00E94FD08A9
:103290008091B9008E7F8093B9008091B9008D7FB5
:1032A0008093B90088E48093B80085E48093BC00E3
:1032B0001093BA00D093B800DF91CF911F91089579
:1032C0000F931F93CF93DF93CDB7DEB7E2970FB67F
:1032D000F894DEBF0FBECDBF8091800381117FC007
:1032E00082E080936A0381E080936B0320E733E000
:1032F00030936D0320936C0310926F0310926E0352
:1033000020E032E03093670320936603109273034A
:1033100010927203109275031092740380937603D7
:103320008093770381EC8093700380EC809371032A
:103330000E94900D8C01DC0111968C911197909157
:103340006A03890F9927991F08970CF045C01296B8
:10335000ED91FC9113973097B1F586E693E01396C3
:103360009C938E93129762E082E00E942B098091D9
:10337000840781116AC00E94D908892BE9F1109253
:10338000680310926903F801808190916B03890FA3
:10339000808330916A0390916C03E92FF0916D0363
:1033A0008E2F891B8317C0F4D80111968C9121911F
:1033B000A82FB0E0A159BE4F2C938F5FD801119672
:1033C0008C93EECFFC01808591850097D9F786E636
:1033D00093E091878087C7CF81E08093800386E662
:1033E00093E0E2960FB6F894DEBF0FBECDBFDF913B
:1033F000CF911F910F91089582E3E9E3F2E0BE01BE
:103400006F5F7F4FDB0101900D928A95E1F788E8AD
:1034100093E0FC0101900020E9F7CF018958934027
:10342000DB010D900020E9F7AD01461B570B20E9A9
:1034300031E0281B390B4217530720F488579C4F63
:103440000E94C83481E08093840782E080936803FF
:1034500084E08093690397CFCF92DF92EF92FF923F
:103460000F931F93CF93DF9300D0CDB7DEB78C01BE
:103470007B016A010E9460191A83098341E050E0D0
:10348000BE016F5F7F4F84E00E94CA0C8C0197FDE4
:1034900009C0A601B70184E40E94CA0C080F191FD5
:1034A00097FD8C01C8010F900F90DF91CF911F9174
:1034B0000F91FF90EF90DF90CF9008957F928F92C1
:1034C0009F92AF92BF92CF92DF92EF92FF920F93B3
:1034D0001F93CF93DF93CDB7DEB7A8970FB6F894BD
:1034E000DEBF0FBECDBFFC014281FB0124813581CF
:1034F0004217130611F020E02BC08B01318120818F
:10350000213A09F03FC03130C1F52381233011F059
:1035100021E01EC0628170E00E94E90B8C010097DF
:1035200051F341E050E0BC016E5F7F4F80E00E94AC
:10353000370C18161906FCF6F8014681578164818C
:10354000758180E00E94370C21E0181619069CF660
:10355000822FA8960FB6F894DEBF0FBECDBFDF91C5
:10356000CF911F910F91FF90EF90DF90CF90BF9080
:10357000AF909F908F907F90089521E0333009F0B5
:10358000BACFE6CF213209F0B6CF3B3021F4228109
:10359000FC01208BBDCF3A3021F42281FC01218B2C
:1035A000B7CF393009F0A7CF2381233009F0A3CF5B
:1035B000628170E00E94E90B5C01009709F49BCFE7
:1035C000F801E680F780FC01868197810196E81674
:1035D000F90609F090CF81E090E0E114F10409F0E0
:1035E000C7010E9473306C01B7010E945D0DF601A6
:1035F0008180912CF80186819781039718F0F6015C
:103600008281982AF801828177247394813141F470
:10361000809119058F5F8093190580921805712C90
:1036200088E8E82E83E0F82EF70101900020E9F702
:1036300089E195E08E1B9F0BC39708F48CC081E154
:10364000EBE6F2E0BE016F5F7F4FDB0101900D9270
:103650008A95E1F7FB0101900020E9F7AF01F7013E
:1036600001900020E9F7CF01461B570B01970E94FC
:10367000C834F801628170E08E010D5D1F4FC801F2
:103680000E94FB20F80101900020E9F7AF01F7014B
:1036900001900020E9F7CF01401B510BB8010197C1
:1036A0000E94C83487E0ECE7F2E0DE015C9601900E
:1036B0000D928A95E1F7BE01645E7F4FFB01019098
:1036C0000020E9F7AF01F70101900020E9F7CF01F1
:1036D000461B570B01970E94C834B401C8010E94D1
:1036E000FB20F80101900020E9F7AF01F7010190FC
:1036F0000020E9F7CF01401B510BB80101970E9450
:10370000C83471101BC08AE0E3E8F2E0DE01529693
:1037100001900D928A95E1F7BE016E5E7F4FFB012D
:1037200001900020E9F7AF01F70101900020E9F7CF
:10373000CF01461B570B01970E94C834A8E8B3E09D
:103740000D900020E9F7119783E0E7ECF2E001909B
:103750000D928A95E1F7F6012081F501828193812E
:103760002817190609F0C7CE772049F046815781FE
:10377000B6016F5F7F4F848195810E94C834C11468
:10378000D10409F4C5CEC6010E940F31C1CEAF925B
:10379000BF92CF92DF92EF92FF920F931F93CF933E
:1037A000DF937C016B015A01E901DC0152960D9116
:1037B0001C9190E080E00115110531F589E090E061
:1037C0000E947330FC0111821082D382C282B582C2
:1037D000A482DD27D783C683D70153969C938E930B
:1037E0005297F701848995890196958B848BDF9197
:1037F000CF911F910F91FF90EF90DF90CF90BF90EE
:10380000AF90089501968901F801228133812C152A
:103810003D0569F3208131812115310599F789E052
:1038200090E00E947330FC0111821082D382C28228
:10383000B582A482DD27D783C683D8018D939C935C
:10384000D0CFCF92DF92EF92FF920F931F93CF933F
:10385000DF93C82F6B018A010E9460196C2F70E002
:1038600021E030E0A6010E94C71BEC01892B89F002
:103870000E9460197C01C8010E94DD32F60160815E
:1038800070E07F6F9C01A801C7010E94C71BC80F91
:10389000D91FCE01DF91CF911F910F91FF90EF9033
:1038A000DF90CF900895EF92FF920F931F93CF93E5
:1038B000DF93EC018B017A010E9460199701A80146
:1038C000BE01DF91CF911F910F91FF90EF900C946B
:1038D000C71B1F920F920FB60F9211242F933F9385
:1038E0008F939F93AF93BF9380918C0590918D059B
:1038F000A0918E05B0918F0530918B0523E0230FA9
:103900002D3758F50196A11DB11D20938B0580938D
:103910008C0590938D05A0938E05B0938F058091B3
:10392000900590919105A0919205B0919305019613
:10393000A11DB11D8093900590939105A0939205D0
:10394000B0939305BF91AF919F918F913F912F912C
:103950000F900FBE0F901F90189526E8230F029628
:10396000A11DB11DD2CF1F920F920FB60F9211243D
:103970002F933F934F935F936F937F938F939F9377
:10398000AF93BF93EF93FF9388E796E00E94DB0A23
:10399000FF91EF91BF91AF919F918F917F916F9127
:1039A0005F914F913F912F910F900FBE0F901F90FD
:1039B00018951F920F920FB60F9211242F938F9389
:1039C0009F93EF93FF93E0918806F09189068081A1
:1039D000E0918E06F0918F0682FD1BC09081809150
:1039E00091068F5F8F7320919206821741F0E091CC
:1039F0009106F0E0E858F94F958F80939106FF917A
:103A0000EF919F918F912F910F900FBE0F901F906C
:103A100018958081F4CF1F920F920FB60F92112448
:103A20002F933F934F935F936F937F938F939F93C6
:103A3000AF93BF93EF93FF938091B900887F803657
:103A400009F44AC0F0F5883209F4A5C018F58031B0
:103A500009F499C0B8F4882309F4F5C0883009F452
:103A600092C0FF91EF91BF91AF919F918F917F9104
:103A70006F915F914F913F912F910F900FBE0F90DB
:103A80001F901895883109F486C0803251F78093D1
:103A9000640514C0803409F49BC040F48033B9F34A
:103AA0008833F9F68093640585ECAEC0803509F45F
:103AB00083C0883509F494C0883499F60E94EB18C5
:103AC000D0CF883909F48AC038F5883729F050F406
:103AD000883611F0803729F683E0809365051092CF
:103AE000630555C0883809F479C0803919F08038E9
:103AF00009F0B7CF80916305803208F06FC0E09184
:103B0000630581E08E0F809363058091BB00F0E038
:103B1000ED5BFA4F80833BC0803B39F0D0F4803AB4
:103B200009F477C0883A09F09CCF84E0809365055A
:103B30001092420510924105F0E0E0E00995809175
:103B4000410581110FC081E080934105109221054C
:103B500009C0803C09F4A8CF883C09F4A5CF883B74
:103B600009F07FCFE091420581E08E0F80934205FE
:103B7000F0E0EF5DFA4F80818093BB0090914205A9
:103B80008091410529C080918A058093BB0085EC16
:103B90008093BC0066CF9091890580918805981725
:103BA00058F5E091890581E08E0F80938905F0E05A
:103BB000E859FA4F8081E9CFE091890581E08E0FC5
:103BC000809389058091BB00F0E0E859FA4F80832B
:103BD00090918905809188059817C8F285E8D8CF1B
:103BE000E091890581E08E0F809389058091BB006B
:103BF000F0E0E859FA4F80838091670581115ECF2C
:103C000081E08093660584EA8093BC00109265058C
:103C100028CF85EC8093BC001092650580916305E8
:103C2000803230F4E0916305F0E0ED5BFA4F1082F2
:103C30006091630570E083E495E0F0E0E0E00995D1
:103C4000109263050ECF1092640538CF1F920F9229
:103C50000FB60F9211242F933F934F935F936F935F
:103C60007F938F939F93AF93BF93CF93EF93FF93E4
:103C7000C091E1008091E100837F8093E100C3FF68
:103C80001DC080918407882309F459C082E1E1E9CD
:103C9000F1E0A6E4B1E001900D928A95E1F710926F
:103CA000E90081E08093EB001092EC0082E38093C6
:103CB000ED001092950588E08093F000C2FF1AC0D5
:103CC0000E94820880913503882341F0809135035A
:103CD000815080933503811101C05D9A80919405D4
:103CE000882341F08091940581508093940581113F
:103CF00001C0289AC4FF27C08091E2008E7E8160B7
:103D00008093E2008091E1008F7E8093E1008091BA
:103D100036038E7E806180933603FF91EF91CF91C1
:103D2000BF91AF919F918F917F916F915F914F91D3
:103D30003F912F910F900FBE0F901F90189582E129
:103D4000E3EAF1E0A6CFC0FFE8CF8091E2008E7EEB
:103D500080618093E2008091E1008E7E8093E1009B
:103D6000809136038E7E8160D6CF1F920F920FB660
:103D70000F921124CF92DF92EF92FF920F931F9335
:103D80002F933F934F935F936F937F938F939F9363
:103D9000AF93BF93EF93FF93CF93DF93CDB7DEB78E
:103DA0006C97DEBFCDBF1092E9008091E80083FFE1
:103DB00025C068E0CE0145960E94500D82EF8093A9
:103DC000E8008D8987FF39C09091E80090FFFCCF13
:103DD000982F907609F038C19E894F89588D2F8988
:103DE000F88C911131C0803861F580913703809350
:103DF000F1001092F1008EEF8093E8006C960FB600
:103E0000F894DEBF0FBECDBFDF91CF91FF91EF9150
:103E1000BF91AF919F918F917F916F915F914F91E2
:103E20003F912F911F910F91FF90EF90DF90CF90D6
:103E30000F900FBE0F901F9018959EEF9093E80083
:103E4000C7CF1092F100D5CF913059F48111D3CF63
:103E50004130510581F6809137038D7F8093370380
:103E6000CACF933049F48111C6CF4130510519F6BC
:103E7000809137038260F2CF953041F48091E80061
:103E800080FFFCCF20682093E300B5CF963009F087
:103E9000A9C00B8D1C8D22E01092E9001092330313
:103EA00010923203F2122EC010923103109230039E
:103EB0000E94A40D1F8299E09983FA8291E09E836B
:103EC00090EA98879AEF99872091320330913303D3
:103ED000275F3F4F3C832B838D831092E900109224
:103EE000330310923203109331030093300349E0FF
:103EF00050E0BE016F5F7F4F80E00E94370C0E9450
:103F0000A40D79CF10933103009330030E94900DDC
:103F1000DC0112960D911C910115110509F452C195
:103F2000D801ED91FC910480F581E02DBE016B5E1E
:103F30007F4FC8010995009709F03FC1F80100853E
:103F40001185EACFF3E0FF120EC08F89882309F4B0
:103F500040C0823061F440E860E183E391E00E9478
:103F60003221811148CF81E28093EB0047CF81302D
:103F700029F440E86BE087E291E0F1CF833099F7D4
:103F80000E94900DDC011296ED90FC908E010F5F67
:103F90001F4F6801E114F10479F0D701ED91FC9114
:103FA0000680F781E02DB801C7010995080F111DA2
:103FB000F701E084F184EECFD8011C92F601019064
:103FC0000020E9F73197BF016C197D0940E0C60177
:103FD000C6CFE3E2F1E0449150E0BF0180E80E94E7
:103FE000370C09CF973009F4BECF983021F481E027
:103FF0008093F10000CF993009F0FDCE837009F075
:10400000B2CF809184078823B1F0E0E7F1E081E04E
:1040100031E096E32191222371F08093E9003093FF
:10402000EB00DF0111972C912093EC009093ED00B1
:104030008F5F873079F78EE78093EA001092EA006D
:104040008F8980939505D7CE8B8D9C8D1092E9003A
:104050001092330310923203909331038093300314
:1040600080918407882309F48DC0898D81118AC0CD
:104070008E899D89913A41F4813209F074CF47E0ED
:1040800050E068E571E0B5C0913209F06CCF833241
:1040900069F48F89988DB0E0A0E0809342019093FD
:1040A0004301A0934401B0934501A5CE803239F479
:1040B00067E070E088E591E00E945D0D9CCE823261
:1040C00009F099CE8F8980935F01EEEFFFE785912C
:1040D0009491E0E0F8E08B3F9C4D11F4EEEFFAE0B4
:1040E0008091580190915901A0915A01B0915B01C2
:1040F000803B9440A105B105D9F480915F0180FD1A
:1041000017C0EE3F8AE0F80771F587E797E79183DC
:104110008083809160008093340388E19BE00FB638
:10412000F894A895809360000FBE9093600063CED2
:10413000808191818737974709F05DCEA89580915E
:1041400060008861809360008091340380936000F8
:10415000EE3F2AE0F20789F08091FE0A9091FF0A73
:104160009183808348CE808191818737980769F257
:104170009093FF0A8093FE0AC8CF1092FF0A109214
:10418000FE0A39CE0E94900DDC0112960D911C9111
:104190000115110509F4E7CED801ED91FC910190CC
:1041A000F081E02DBE016B5E7F4FC8010995811142
:1041B00022CEF80100851185EBCF181619060CF4F4
:1041C0001ACED1CEF1E0FF12BDCE809184078111CD
:1041D0000CC08DE195E090934F0180934E0183E0F8
:1041E00090E0909351018093500142E150E066E4E9
:1041F00071E080E0F4CE0F931F93CF93DF93AB0178
:1042000020E041155105F9F430E0EC01C20FD31F55
:10421000DE01890101501109A817B907E9F0AB01C6
:104220004F705527E4E076956795EA95E1F7FD0133
:10423000E21BF30BE00FF11F4A30510558F4405DCB
:1042400040831197E9CF2F5FF4E056954795FA9593
:10425000E1F7D7CF495CF4CF1882DF91CF911F915E
:104260000F910895EF92FF920F931F93CF93DF93D7
:10427000F82E192FE62E042F81E0860F880F0E945A
:10428000090C83E00E94090CCF2DD12FEC0EFD2EDE
:10429000F11CCE15DF05B9F007FF13C0FE018491B4
:1042A0000E94090C182F80E00E94090C812321969E
:1042B0008111EFCFDF91CF911F910F91FF90EF9080
:1042C00008958881EDCF81E0F5CF10927B061092A2
:1042D0007A0688EE93E0A0E0B0E080937C069093AD
:1042E0007D06A0937E06B0937F068CE092E09093CB
:1042F0007906809378068DEC90E090938506809304
:1043000084068CEC90E0909387068093860688EC78
:1043100090E0909389068093880689EC90E09093D2
:104320008B0680938A068AEC90E090938D068093AA
:104330008C068EEC90E090938F0680938E06109200
:10434000910610929206109293061092940680E3C2
:1043500092E090935C0680935B0610925D0610924B
:104360005E0610925F06109260069093620680933C
:104370006106109263061092640610926506109210
:10438000660682E08093750681E08093760693E06E
:104390009093770690916D06911112C01092680665
:1043A000109267062CE83EE030936A062093690677
:1043B00020E931E030936C0620936B0680936D0604
:1043C0000E946019FC01A485B585109709F054C0BE
:1043D00087E696E0958784878685978520916B068A
:1043E00030916C06820F931F97878687109218076B
:1043F0001092170788EE93E0A0E0B0E080931907D1
:1044000090931A07A0931B07B0931C078EE192E0CC
:1044100090931607809315078FEF9FEF90932207D5
:104420008093210780E392E0909388078093870729
:104430001092890710928A0710928B0710928C07AE
:1044400080918407882311F1809183078823F1F0FC
:1044500085E197E090938607809385071092820705
:1044600010928107109278071092770710926E07CA
:1044700010926D070895DC018D919C911197009722
:10448000D1F787E696E08D939C93A6CF88E796E0D8
:10449000E1CFCF93DF93CDB7DEB7A7970FB6F894F0
:1044A000DEBF0FBECDBF81E1E9EBF2E0BE016F5F81
:1044B0007F4FDB0101900D928A95E1F788E893E048
:1044C000DC010D900020E9F7CD0189589340FB01F4
:1044D00001900020E9F7AF01461B570B20E931E0BE
:1044E000281B390B4217530720F488579C4F0E9412
:1044F000C834F89462E082E00E942B090E94D90837
:10450000892B19F481E080938407789461E087E037
:104510000E942B0961E086E00E942B0961E085E0A2
:104520000E942B0960E087E00E94FD0860E086E0C1
:104530000E94FD0860E085E00E94FD0880918407EC
:10454000882309F42BC261E087E00E94FD0860E047
:1045500086E00E94FD08789484B5826084BD84B5AD
:10456000816084BD85B5826085BD85B5816085BD6E
:1045700080916E00816080936E0010928100809126
:1045800081008260809381008091810081608093AE
:1045900081008091800081608093800080919100F3
:1045A000826080939100809191008160809391005E
:1045B000809190008160809390008091C100846020
:1045C0008093C1008091C10082608093C10080917E
:1045D000C10081608093C1008091C300816080939D
:1045E000C3008091C00082608093C0008091C200AF
:1045F00081608093C20080917A00846080937A0009
:1046000080917A00826080937A0080917A00816044
:1046100080937A0080917A00806880937A0010926B
:10462000950510923703109236038091D700816070
:104630008093D70080EA8093D80089B5806189BDD6
:1046400089B5826089BD09B400FEFDCF61E070E0EC
:1046500080E090E00E948C098091D8008F7C80617E
:104660008093D8008091E000807F8093E00080916B
:10467000E1008E7E8093E1008DE08093E200559A08
:10468000209AE0918806F091890682E08083E0918B
:104690008406F09185061082E0918606F0918706E7
:1046A00080E1808310929006E0918C06F0918D0657
:1046B00086E08083E0918A06F0918B06808180619C
:1046C0008083E0918A06F0918B06808188608083E8
:1046D000E0918A06F0918B06808180688083E0916A
:1046E0008A06F0918B0680818F7D808390E080E048
:1046F0000E94670E90919D05809184079A3A09F077
:1047000053C190919E05953509F04EC120915906EF
:1047100030915A062130354A09F046C1811106C050
:1047200063EA71E088E796E00E94041080915806E1
:10473000817080937F018091AB05809356030E9426
:1047400060190E94601921E030E045E756E061E021
:1047500070E00E94C71B0E94601921E030E047E72B
:1047600056E062E070E00E94C71B0E94601921E0E1
:1047700030E046E756E063E070E00E94C71B0E940D
:10478000601921E731E0DC0159963C932E9358974C
:1047900080918407882339F00E94601925E137E071
:1047A000FC01378B268B62E084E00E942B0960E0DD
:1047B00087E10E942B0961E08DE00E94FD0861E025
:1047C00088E00E942B0961E088E00E94FD0880914A
:1047D000620390916303856091609093630380937B
:1047E000620381E080937E0180937D0110929605A3
:1047F0008091A5059091A6052EE1289FF001299FA3
:10480000F00D1124E356FA4F82A593A590938701EA
:10481000809386010E94161042E050E062E673E049
:1048200087E090E00E94531C42E050E06CE671E0AB
:104830008DE090E00E94531C42E050E06FE975E08B
:104840008AE190E00E94531C42E050E061EA75E08A
:104850008CE190E00E94531C42E050E063EA75E076
:1048600088E090E00E94531C42E050E063E671E073
:1048700083E190E00E94531C42E050E060E871E068
:1048800082E190E00E94531C41E050E062E671E05A
:1048900086E090E00E94531C41E050E061E671E048
:1048A00086E190E00E94531C42E050E060EF71E02E
:1048B0008AE090E00E94531C42E050E06AE671E01A
:1048C0008BE090E00E94531C41E050E060E671E014
:1048D00084E190E00E94531C41E050E06FEE71E0F3
:1048E00087E190E00E94531C41E050E062E871E0F3
:1048F0008EE090E00E94531C41E050E06EE671E0D3
:104900008CE090E00E94531C41E050E069EA75E0C1
:104910008FE090E00E94531C41E050E06BEA75E0AC
:1049200081E190E00E94531C41E050E06EEE71E0A6
:1049300080E190E00E94531C41E050E06DEE71E098
:1049400088E190E00E94531C4CE651E06CEE71E06F
:104950008FE10E94211C42E651E06BEE71E080E2A3
:104960000E94211C80918407882309F444C08FEFA2
:104970009FEF909322078093210710915F016AE0D7
:1049800070E080E090E00E948C09111124C06AE080
:1049900070E080E090E00E948C09EFCF60E087E05B
:1049A0000E94FD0861E0D4CD811106C067E771E087
:1049B00088E796E00E9404100E94AB1280E091E02C
:1049C0000E94810E90E080E00E94810E80E091E0E4
:1049D0000E94670EABCE81E08093830763E571E0B0
:1049E00085E197E00E94430A6091840770E085E1C9
:1049F00097E00E949C0F64E471E088E796E00E94D3
:104A0000430A6091840770E088E796E00E949C0F5B
:104A100088E796E00E94480B11E010937E01109207
:104A2000960568EC70E080E090E00E948C0910929E
:104A300082070E94BE096093790770937A0780937A
:104A40007B0790937C078AE090E0A0E0B0E0809341
:104A50007D0790937E07A0937F07B0938007109304
:104A600081074CE3842E912C5E01F2E1AF0EB11C64
:104A700095012359374019013EE1732E10918407A7
:104A8000112309F4D4C080918307882309F4CFC08F
:104A900085E197E00E944D0E892B09F4CEC68091E6
:104AA0008307882309F4CCC085E197E00E940B0EB0
:104AB0007C0180917F01882369F06E2D112309F418
:104AC000C4C080918307882309F4BFC085E197E0C3
:104AD0000E94F00DE0919C05EE3108F0A4C63DE087
:104AE000E316F104A9F08AE0E816F10489F09FEEDC
:104AF000E916F10469F0C7018B7F8B3B910541F00A
:104B000081E08E0F80939C05F0E0E85CFC4FE08232
:104B1000E0919C05F0E0E85CFC4F108280917F0101
:104B2000882381F080918407882309F493C08091C1
:104B30008307882309F48EC060EB7AE085E197E073
:104B40000E94430A80917F01882381F0809184072D
:104B500068E373E0882309F482C080918307882387
:104B600009F47DC085E197E00E94191480917F01CE
:104B7000882381F080918407882309F473C0809191
:104B80008307882309F46EC06CEA7AE085E197E038
:104B90000E94041080919C05882309F49BC0809199
:104BA0008407882331F08091830705E117E08111A4
:104BB00002C008E716E0FF8EEE8E10938607009382
:104BC0008507ADE0EA16F10429F0BAE0EB16F1042E
:104BD00009F054CF80913803082E000C990B0E94E5
:104BE000C034883409F40EC20CF08AC0833409F44E
:104BF0009EC1ECF58F3309F405C2823409F4E5C097
:104C00006EE977E0C8010E94430A68E373E0C801D7
:104C10000E9419146BE977E0C8010E9404106FE844
:104C200077E0C8010E940410109238034DC088E755
:104C300096E00E94C50A892B09F4FFC511112FCFF8
:104C400088E796E00E94A30A33CF88E796E00E94A7
:104C5000FC0A40CF6EEA7AE088E796E071CF88E7F9
:104C600096E082CF6AEA7AE088E796E091CF8434D2
:104C700009F4C5C5853421F680913903082E000C4E
:104C8000990B0E94C0348E34910509F093C0809135
:104C90003A03082E000C990B0E94C0342CE63AE02F
:104CA0004CEA55E08334910541F08235910509F0D5
:104CB00081C022E43AE04DEA55E0BE01625E7F4FDA
:104CC0008AE393E00E94151610929C0580919C0542
:104CD0008111D4CE80917F01882309F4CFCE8091B9
:104CE0008407882309F4A4C580918307882309F4E5
:104CF0009FC563EA7AE085E197E00E94430ABECE51
:104D0000833509F4BAC4DCF48E3409F489C58135DD
:104D100009F076CF61EC77E0C8010E94430A70E0A9
:104D200060E0C8010E949C0F61EB77E0C8010E941F
:104D3000430A70E060E0C8010E949C0FC5CF8A352D
:104D400009F4A5C48E3709F4E1C4843509F058CFBD
:104D500080913903082E000C990B0E94C0348434D2
:104D600009F4BDC0833509F0DFC08091A30590919F
:104D7000A405B4010E9457337B8B6A8B09E519E0C7
:104D8000950142E454E0BE01625E7F4F89E393E007
:104D90000E944218882309F497CF2A893B894CE363
:104DA000429FC001439F900D11249093A4058093CE
:104DB000A3058ACF6EE17AE0C8010E94430A68E346
:104DC00073E0C8010E94D20F7FCF80913903082E73
:104DD000000C990B0E94C0348634C1F04CF483342B
:104DE00009F465C0843409F44BC062E779E0E4CF8C
:104DF000863509F46CC08935C1F7C12CE12C03E973
:104E000019E028EA35E044E650E059C08091A50554
:104E10009091A605789EF001799EF00D1124E3563D
:104E2000FA4F4091A70522A533A5429FC001439F99
:104E3000900D11249B8B8A8B08E01AE0950148E5C0
:104E40005BE1BE01625E7F4F89E393E00E944218FE
:104E5000882309F439CF8091A5059091A605789E05
:104E6000F001799EF00D1124E356FA4F6091A705E9
:104E700070E08A899B890E94573373A762A724CF69
:104E80008091A5059091A605789E9001799E300DA0
:104E9000112425533A4F02EF19E048E55BE1BE01CA
:104EA000625E7F4F89E393E00E9442180DCFC12CD0
:104EB000E12C07EC19E025EA35E044E050E0BE01C2
:104EC000625E7F4F89E393E00E949418FDCECC246C
:104ED000C394E12C05EB19E027EA35E0EECF809191
:104EE000A1059091A205B4010E9457337B8B6A8B78
:104EF00004E319E0950140E45FE1BE01625E7F4F8B
:104F000089E393E00E944218882309F4DDCE2A89C0
:104F10003B894CE3429FC001439F900D1124909325
:104F2000A2058093A105D0CE6AE179E045CF8091BA
:104F30003903082E000C990B0E94C034883489F183
:104F40008C3409F05CC04091A7052091B0053091E8
:104F5000B105429FC001439F900D11249B8B8A8B0A
:104F600005E019E0950140E45FE1BE01625E7F4F1C
:104F700089E393E00E944218882309F4A5CE60914A
:104F8000A70570E08A899B890E9457337093B10509
:104F90006093B0050E94CA099093AF058093AE0557
:104FA00093CE4091A7052091B4053091B505429F5D
:104FB000C001439F900D11249B8B8A8B0DEE18E04E
:104FC000950140E45FE1BE01625E7F4F89E393E0BB
:104FD0000E944218882309F477CE6091A70570E0FB
:104FE0008A899B890E9457337093B5056093B405F5
:104FF0000E94CA099093B3058093B20565CE6CEC0C
:1050000078E0DACE80913903082E000C990B0E94CB
:10501000C034853409F458CE803509F4BBC08334DC
:1050200009F008C166E177E0C8010E940410E2EFD0
:10503000F1E0FDA3ECA32DE9E22E25E0F22ED12C28
:10504000C12C69E077E0C8010E94430AACA1BDA170
:105050006D917D91BDA3ACA3C8010E94191466EFA8
:1050600076E0C8010E94430A2091A705F70182A5B6
:1050700093A5289FB001299F700D11244AE050E0AC
:10508000C8010E94AE0F65EE76E0C8010E94430A97
:105090002091A705D7019C968D919C91289FB001E6
:1050A000299F700D11244AE050E0C8010E94AE0F04
:1050B00064ED76E0C8010E94430A2091A705F7013C
:1050C00086A597A5289FB001299F700D11244AE05D
:1050D00050E0C8010E94AE0F63EC76E0C8010E9468
:1050E000430AD701D0966D917C914AE050E0C80107
:1050F0000E94AE0F62EB76E0C8010E94430AF701FE
:1051000062A973A94AE050E0C8010E94AE0F6BE9A2
:1051100076E0C8010E940410612C7C9C90017D9C6B
:10512000300D11243FA32EA3D70199968C916816B8
:1051300008F074C061E976E0C8010E94430AB4E057
:105140006B9E20011124EEA1FFA14E0E5F1E920165
:1051500023563A4F29012091A705D20159968D91E6
:105160009C91289FB001299F700D11244AE050E0C6
:10517000C8010E94450F63E876E0C8010E94430A17
:10518000F201638D748D4AE050E0C8010E94AE0FB9
:105190006394CACFC8010E94980F6BE777E0C801FB
:1051A0000E94430A60916C0170916D014AE050E0E9
:1051B000C8010E94AE0F67E677E0C8010E94430A6B
:1051C0004AE050E060916E01C8010E94C00F63E5A3
:1051D00077E0C8010E94430A4AE050E06091AB05C5
:1051E000C8010E94C00F6FE377E0C8010E94430A24
:1051F0006091860170918701C8010E949C0F69E24D
:1052000077E0C8010E94430A6091620370916303D2
:1052100040E150E0C8010E94AE0F56CDFFEFCF1A1B
:10522000DF0A2EE1E20EF11C35E0C316D10409F0CD
:1052300008CF4ACD65E776E0C8010E940410C80196
:105240000E94980F6BE076E0C8010E9404106DEF99
:1052500075E0C8010E94430A6FE872E0C8010E942D
:10526000D20FC8010E94980F6BEE75E0C8010E9432
:10527000041063EC75E0C8010E94041068E975E051
:10528000C8010E94041066E675E0C8010E94430A46
:105290006091AC0570E0C8010E949C0F64E375E06A
:1052A000C8010E94430A6091AD0570E0C8010E94E8
:1052B0009C0F69E175E0C8010E94041067EE74E07C
:1052C000C8010E94430A6091A5057091A605C80116
:1052D0000E949C0F65EB74E0C8010E94430A4AE0FB
:1052E00050E06091A705C8010E94C00F63E874E018
:1052F000C8010E94430A8091A5059091A605789E59
:10530000F001799EF00D1124E356FA4F2091A70584
:1053100082A593A5289FB001299F700D11244AE012
:1053200050E0C8010E94AE0F61E574E0C8010E9420
:10533000430A8091A5059091A605789EF001799E7B
:10534000F00D1124E356FA4F2091A70586A597A5E5
:10535000289FB001299F700D11244AE050E0C80138
:105360000E94AE0F6FE174E0C8010E94430A809171
:10537000A3059091A405B4010E9457334AE050E080
:10538000C8010E94AE0F6DEE73E0C8010E94430A8F
:105390008091A1059091A205B4010E9457334AE083
:1053A00050E0C8010E94AE0F6BEB73E0C8010E9491
:1053B000430A2091A7058091B0059091B105289FDF
:1053C000B001299F700D11244AE050E0C8010E94ED
:1053D000450F64EB73E0C8010E94041068E973E0B4
:1053E000C8010E94430A6091AE057091AF054AE082
:1053F00050E0C8010E94450F66E973E0C8010E94B1
:10540000041064E673E0C8010E94430A2091A705D6
:105410008091B4059091B505289FB001299F700D2A
:1054200011244AE050E0C8010E94450F6DE573E089
:10543000C8010E94041060E473E0C8010E94430A9E
:105440006091B2057091B3054AE050E0C8010E9436
:10545000450F6EE373E0C8010E9404106CE073E036
:10546000C8010E94430A4AE050E06091AB05C801C0
:105470000E944B0F6AE073E0C8010E94041068EDBF
:1054800072E0C8010E94430A4AE050E06091A8051A
:10549000C8010E94C00F69EB72E0C8010E940410AD
:1054A00061E972E0C8010E9404106CE672E0C80174
:1054B0000E94430A40E150E060915806C8010E94F2
:1054C000C00F66E572E0C8010E94430A6091860140
:1054D00070918701C8010E94090F64E472E0C8015D
:1054E0000E94430A60917B0170917C01C8010E9477
:1054F000090F60E372E0C8010E94430A4AE050E0ED
:1055000060916E01C8010E944B0F6CE272E0C8010D
:105510000E94430A80916C0190916D01B4010E9438
:1055200057334AE050E0C8010E94450F6AE272E03A
:10553000C8010E94430A80916C0190916D01B401F1
:105540000E9457334AE050E0BC01C8010E94AE0FF0
:105550006CE172E0C8010E94430A809196056DE8F3
:1055600072E0811102C063E173E0C8010E94191466
:105570006EE072E0C8010E94430A6091620370917C
:10558000630340E150E0C8010E94AE0F6BEF71E091
:10559000C8010E94430A80918D0790918E07B50142
:1055A000681B790B892B09F4B101C8010E949C0F7B
:1055B0006CE576E0C8010E94041061E476E0C80161
:1055C0000E94041063E276E0C8010E9404104AE0E1
:1055D0006EEB70E0C5010E94CF16198E188E1B8EDF
:1055E0001A8E1D8E1C8E61E170E0CE0148960E94DD
:1055F0008315811132C0CE0148960E94AB15EE880A
:10560000FF88CA88DB88C114D10491F1E114F10448
:10561000B1F08C8D9D8DE80EF91EB701CE01489634
:105620000E948315882321F1288D398D8C8D9D8DC5
:10563000B601820F931F0E94D134FD8EEC8EBE0105
:10564000685E7F4FC8010E94E90FCE0148960E9414
:105650000D16C5010E940D1637CB81E190E09D8F9C
:105660008C8F65EA72E0888D998D0E94D134C7CF06
:10567000CE0148960E94AB15E2CF90E080E00E94F8
:10568000810E6CEA78E0C8010E9404101DCB809165
:105690003903082E000C990B0E94C0348334910505
:1056A000B9F480913A03082E000C990B0E94C03483
:1056B0008434910539F467E878E0C8010E94041049
:1056C0000E94AB1280915806817080937F01FCCAC2
:1056D00083359105A1F480913A03082E000C990BB3
:1056E0000E94C0348634910569F780E091E00E9401
:1056F000810E6FE578E0C8010E940410E3CF80E0DE
:1057000091E00E94670E6AE078E0F5CF65EE71E007
:10571000C8010E94430AF12CE12CD12CC12C612C30
:10572000C7018C0D9D1D0E9431338F3F11F06624FF
:1057300063948FEFC81AD80A90E1C916D10481F793
:10574000E114F10419F0662009F44BC060EE71E039
:10575000C8010E94430A6EED71E0C8010E94430A2D
:10576000AFEFEA16F10409F070F46CED71E0C801D6
:105770000E94430AB0E1EB16F10428F46AED71E0EF
:10578000C8010E94430A40E150E0B701C8010E94ED
:10579000450F68ED71E0C8010E94430A6701612C62
:1057A000C6010E943133582EEFE0E81728F066ED6D
:1057B00071E0C8010E94430A40E150E0652DC80134
:1057C0000E944B0FFFE06F1629F064ED71E0C801F5
:1057D0000E94430A2FEFC21AD20A639430E1631287
:1057E000DFCF80E1E80EF11CE11494E0F90609F046
:1057F00094CF60EC71E0C8010E94430A65CAC12CD5
:10580000EE24E39405EF17E028E536E04FEF50E093
:10581000BE01625E7F4F88E393E00E94941852CFEE
:1058200065ED77E030CF10929C05109238034ECA98
:105830006CE97AE088E796E060CA85E697E00E9426
:10584000C60B10916E0780916D07811119C088EE0B
:1058500093E0A0E0B0E08093690790936A07A0937B
:105860006B07B0936C070E94BE0960936507709345
:105870006607809367079093680781E080936D07C0
:1058800010926E07112309F4C2C1809164039091B4
:105890006503019690936503809364030E9416103C
:1058A000809184079091AC05811102C09091AD0563
:1058B0002091970530919805992309F481C2809130
:1058C000850180936E01309363032093620380917E
:1058D00083019091840190936D0180936C012091DC
:1058E00062033091630380915E0390915F032817F8
:1058F0003907C1F490916E0180915D03981312C035
:1059000020916C0130916D0180915B0390915C035B
:105910002817390739F480916403909165030B9738
:105920000CF4D1C060E088E00E94FD0880918407FB
:10593000882321F0809183078111CCC369EF7BE03C
:1059400088E796E00E94430A88E796E000916203A8
:1059500010916303209186013091870140916C0181
:1059600050916D0160916E010E9421148091840715
:10597000882309F445C380918307882309F440C331
:105980006FED7BE085E197E00E94430A41E050E043
:105990006EE671E08CE090E00E942C1ABC019093BE
:1059A0005A038093590380918407882309F42DC3F7
:1059B00080918307882309F428C385E197E00E943A
:1059C000090F8091840767EB72E0882309F420C3F4
:1059D00080918307882309F41BC385E197E00E9427
:1059E000191480919605882359F142E050E06CE645
:1059F00071E08DE090E00E942C1ABC0190935A0354
:105A00008093590380918407882309F404C380910B
:105A10008307882309F4FFC285E197E00E94090FFC
:105A20008091840767EB72E0882309F4F7C28091C4
:105A30008307882309F4F2C285E197E00E941914D4
:105A400042E050E062E673E087E090E00E942C1AAA
:105A5000BC0190935A038093590380918407882353
:105A600009F4DFC280918307882309F4DAC285E153
:105A700097E00E949C0F61E088E00E94FD08109270
:105A80006503109264038091620390916303909385
:105A90005F0380935E0380916E0180935D0380912C
:105AA0006C0190916D0190935C0380935B038091F6
:105AB000590390915A0397FDB7C281E090E090930B
:105AC00058038093570380917F01882381F0809150
:105AD0008407882309F4ABC280918307882309F4E3
