:100000000C9455070C947D070C947D070C947D0788
:100010000C947D070C947D070C947D070C947D0750
:100020000C947D070C947D070C9449180C94D818F7
:100030000C947D070C947D070C947D070C947D0730
:100040000C947D070C947D070C947D070C947D0720
:100050000C947D070C947D070C947D070C948C16F2
:100060000C947D070C94FC160C94D6160C947D070A
:100070000C947D070C947D070C947D070C947D07F0
:100080000C947D070C947D070C947D070C947D07E0
:100090000C942E170C947D070C947D070C947D070F
:1000A0000C947D070C947D070C947D077368757420
:1000B000646F776E20696D6D696E656E740073682C
:1000C0007574646F776E20696D6D696E656E74000E
:1000D00073687574646F776E20726571756573747B
:1000E00065640073687574646F776E2072657175EE
:1000F00065737465640053687574646F776E206E01
:100100006F772120527474653D0053687574646F75
:10011000776E206E6F772120527474653D005265B2
:1001200073746F72656420666163746F72792064A2
:10013000656661756C74732E00526573746F7265B9
:100140006420666163746F72792064656661756CA2
:1001500074732E000403090441726475696E6F2084
:100160004C4C430041726475696E6F204C656F6E34
:100170006172646F005553424344434E6565646544
:10018000643A20005553424344434E6565646564B8
:100190003A20004D79436F6F6C55505300506241C7
:1001A00063005550533130004552524F523A204E61
:1001B00065656420746F20646F20636F6E66696785
:1001C00075726174696F6E20616E642077726974F4
:1001D0006520746F20454550524F4D2E2055736950
:1001E0006E672044656661756C74732E00476F6F8F
:1001F000643A20454550524F4D20697320696E691D
:100200007469616C697A65642E000D0A24242D4599
:100210004E4420454550524F4D0D0A0D0A00200016
:10022000300020003000300030000D0A2420000D86
:100230000A24242D454550524F4D20434F4E5445DE
:100240004E54533A00417661696C61626C65204D91
:10025000656D6F72793A20002C2053746174757348
:10026000203D203078004469736368617267696E6D
:10027000673A20003A00252C20002C20426174743B
:100280002052656D61696E696E67203D2000426194
:10029000747465727920566F6C746167652A3130A9
:1002A000303A200044782020202D20446562756774
:1002B00020666C61677320202020202020202020D1
:1002C000202020203A20307800202028562A313063
:1002D0003029002020566F6C746167657320776940
:1002E0006C6C20616C7761797320626520656E7437
:1002F0006572656420696E2068756E6472656474E9
:1003000068732E2000202028496620796F75206DA3
:10031000656173757265642031322E343520766FD5
:100320006C74732C20656E746572204348313234CE
:1003300035290020207768657265207676767620EC
:10034000697320746865206D6561737572656420DA
:10035000766F6C7461676520696E2068756E647273
:1003600065746873206F66206120766F6C742E0050
:10037000202077697468206120676F6F642064694A
:10038000676974616C20766F6C74206D657465723A
:100390002E20456E7465722074686520636F6D6DE4
:1003A000616E64204348767676762E002020486F72
:1003B0006F6B20746865206C656164732062616393
:1003C0006B20757020746F2074686520626174748E
:1003D0006572792E204D656173757265207468654C
:1003E00020766F6C7461676500202053686F7274AB
:1003F000207468656D20746F6765746865722E205F
:10040000456E7465722074686520636F6D6D616EF2
:100410006420434C3020285A65726F2C206E6F7414
:10042000204F68292E002020446973636F6E6E652B
:1004300063742074686520626174746572792076D3
:100440006F6C746167652073656E7365206C6561A0
:1004500064732066726F6D207468652062617474C5
:100460006572792E20200020546F2063616C6962D0
:100470007261746520766F6C746167652073656E58
:1004800073696E6720666F72207468697320626F8B
:100490006172643A002900202020202020202020A2
:1004A000202020202020202020202020202020204C
:1004B0002020206952656D6E4361706163697479B3
:1004C0004C696D6974203A200029002020202020EA
:1004D0002020202028486967682056204132442087
:1004E00076616C75653A200020562A313030004321
:1004F000486E6E6E6E202D2043616C69627261746D
:1005000065206869676820766F6C74616765207024
:100510006F696E742028562A3130302920203A2005
:10052000002900202020202020202020284C6F7728
:100530002056204132442076616C75653A200020B7
:10054000562A31303000434C6E6E6E6E202D2043A3
:10055000616C696272617465206C6F7720766F6C74
:100560007461676520706F696E742028562A313077
:1005700030292020203A200054446E6E6E6E202DCB
:10058000204176652E2054696D6520666F72206665
:10059000756C6C2044697363686172676520286DAF
:1005A000696E75746573293A200054436E6E6E6EE1
:1005B000202D20417665726167652054696D652044
:1005C000746F2066756C6C79204368617267652072
:1005D000286D696E75746573293A200042456E6E08
:1005E0006E6E202D204261747465727920456D70A5
:1005F000747920766F6C746167652020202020203C
:100600002020202028562A313030293A2000424626
:100610006E6E6E6E202D2042617474657279204674
:10062000756C6C2043686172676520766F6C7461CD
:1006300067652020202028562A313030293A2000B2
:1006400020202020202020202028303D4E6F2050C8
:1006500043207265706F7274696E672F736875746A
:10066000646F776E2E20313D456E61626C6564006B
:10067000454E6E202020202D20454E61626C652065
:100680007265706F7274696E672F53687574646FEA
:10069000776E20746F20746F207468652050433A21
:1006A000200050726573656E742053657474696EB2
:1006B00067733A00436F6D70696C65642061743ACA
:1006C0002000536D6172742055505320456D756C38
:1006D00061746F722076302E31005A20202D205206
:1006E0006573746F726520466163746F727920441C
:1006F000656661756C7473004850202D2053686FD7
:100700007720506172616D6574657273000A2D2DDA
:100710002D2D4D656E752D2D2D2D00695072657333
:10072000656E745374617475732020203A2030789C
:1007300000626174566F6C74616765202020202010
:1007400020203A200043504354594752414E554CC3
:100750004152495459323A20004350435459475268
:10076000414E554C4152495459313A200052454D61
:100770004E43415041434954594C494D49543A2004
:10078000005741524E43415041434954594C494D01
:1007900049543A200052454D41494E494E47434144
:1007A0005041434954593A200046554C4C43485215
:1007B000474543415041434954593A200044455329
:1007C00049474E43415041434954592020203A2043
:1007D0000041554449424C45414C41524D435452CD
:1007E0004C203A2000564F4C5441474520202020B1
:1007F0002020202020203A2000434F4E46494756D3
:100800004F4C54414745202020203A20004341507E
:1008100041434954594D4F444520202020203A203F
:1008200000524543484152474541424C4520202013
:1008300020203A200044454C415942453453485504
:1008400054444F574E203A200044454C41594245AC
:10085000345245424F4F542020203A200052454DFB
:1008600041494E54494D454C494D495420203A2068
:10087000004156455241474554494D4532454D503A
:1008800054593A20004156455241474554494D4537
:100890003246554C4C203A200052554E54494D4555
:1008A000544F454D5054592020203A2000446F6E3B
:1008B000277420666F7267657420746F202853292F
:1008C00061766520746865206E65772076616C7549
:1008D0006521002073657420746F3A20004E65779F
:1008E00020004F6C642076616C7565207761733AE7
:1008F00020002076616C756521204D617820697338
:1009000020312028666F72206120626F6F6C292E63
:100910000A004572726F723A20496E76616C6964A2
:1009200020004820666F722048656C700A005D2EBA
:10093000000A556E6B6E6F776E20636F6D6D616E22
:1009400064205B004849445F494E54455246414348
:10095000453A20004344435F41434D5F494E54456F
:1009600052464143453A200042616420636F6D6DF9
:10097000616E642E2053686F756C64206265204E32
:100980004C206F72204E48000A526573746F726576
:100990006420466163746F72792044656661756C8A
:1009A00074732E2E2E0D0A204D75737420646F20E3
:1009B00027532720746F207361766520746F20455C
:1009C0004550524F4D20286E6F6E2D766F6C6174BE
:1009D000696C65206D656D6F7279292E000A53610F
:1009E000766564206E65772076616C75652873295D
:1009F00020746F20454550524F4D2E0A00455252EB
:100A00004F523A204261642042202842617474654A
:100A100072792920636F6D6D616E643A20004552D2
:100A2000524F523A204261642054696D6520636FD1
:100A30006D6D616E643A20004552524F523A204229
:100A400061642042202842617474657279292063B0
:100A50006F6D6D616E643A20004552524F523A20DC
:100A600042616420422028426174746572792920B1
:100A7000636F6D6D616E643A20000A436D643A20C5
:100A8000000A436D643A20005D005D005B005B007E
:100A90006952656D6E43617061636974794C696D0B
:100AA0006974204348414E4745442C206E6F773A85
:100AB00020006952656D6E43617061636974794CA1
:100AC000696D6974204348414E4745442C206E6F40
:100AD000773A2000417661696C61626C65204D65F2
:100AE0006D6F72793A2000417661696C61626C6564
:100AF000204D656D6F72793A2000426174562A313B
:100B000030303A2000426174562A3130303A2000A9
:100B1000436F6D6D73207769746820504320286E91
:100B200065673D626164293A2000436F6D6D7320F3
:100B30007769746820504320286E65673D62616460
:100B4000293A20002C20537461747573203D2030A5
:100B500078002C20537461747573203D2030780028
:100B60002C204469736368617267696E673A20007C
:100B70002C204469736368617267696E673A20006C
:100B80003A003A00252C2000252C200053656E6485
:100B9000696E673A20426174742052656D61696EB6
:100BA000696E67203D200053656E64696E673A2068
:100BB000426174742052656D61696E696E67203D93
:100BC00020005553424344434E6565646564204E9E
:100BD0004F5420736574206265666F726520506C97
:100BE00075676761626C655553425F3A3A706C7520
:100BF000670000000000240027002A002D003000BC
:100C000000000000250028002B002E00310000000D
:100C100000002300260029002C002F0004040404F7
:100C20000403040502020202040302020202060691
:100C30000606060604040202020404040802011067
:100C40004080401020408040800802040180402005
:100C50001002011080102040402000000002000916
:100C60000F0000030401000C000000000000000061
:100C7000000000000000000000446F6E2774206632
:100C80006F7267657420746F202853296176652020
:100C9000746865206E65772076616C75652100301B
:100CA00078002073657420746F3A20004E657720B9
:100CB000003078004F6C642076616C756520776138
:100CC000733A20002E0A00222076616C756521207F
:100CD0004D696E20697320004572726F723A204927
:100CE0006E76616C69642022002E0A002076616CA9
:100CF000756521204D617820697320004572726FFF
:100D0000723A20496E76616C69642000070605041A
:100D10000100080A0B0C0D0905840904A10109242E
:100D2000A10275089501150026FF00850109FE79CD
:100D300002B123850209FF7903B123850309FD79F7
:100D400001B12305858506098BB123851F098979A2
:100D500004B1238520098F7905B1238516092CB1AB
:100D6000238510098D266400B1228518098EB123D0
:100D7000850E0967B18385170983B183850C0966E0
:100D800081A30966B1A3850F098CB1A28511092938
:100D9000B1A285090985751027FFFF0000B1A38561
:100DA0001A096A27FFFF00006601105500B1A385EC
:100DB0001C096981A30969B1A3850D096881A3098B
:100DC00068B1A38508092A75102764050000167804
:100DD000008122092AB1A2058485120957160080D4
:100DE00027FF7F0000B1A285130955B1A2850A092A
:100DF00040150027FFFF00006721D1F0005505B125
:100E000023850B093081A30930B1A38514095A75D4
:100E10000815012503650055008122095AB1A20970
:100E200002A1028507058509447501150025018188
:100E3000A30944B1A3094581A30945B1A309D08100
:100E4000A309D0B1A309D181A309D1B1A3094281DA
:100E5000A30942B1A3094381A20943B1A2094B816D
:100E6000A3094BB1A309DB81A309DBB1A309468127
:100E7000A30946B1A3094781A30947B1A305840982
:100E80006881A20968B1A2096981A30969B1A309AE
:100E90007381A30973B1A3096581A30965B1A39502
:100EA000028101B101C0C0C01E1B11241FBECFEFC3
:100EB000DAE0DEBFCDBF13E0A0E0B1E0E8EAF7E69C
:100EC00002C005900D92A032B107D9F726E0A0E24A
:100ED000B3E001C01D92AB35B207E1F717E0C5E5FD
:100EE000D7E004C02197FE010E945630C435D107D7
:100EF000C9F70E94F61B0C94D2330C940000E1E178
:100F0000FDE0E49190917B008E2F880F880F807216
:100F10009F7D892B80937B00E770E064E0937C00E9
:100F200080917A00806480937A0080917A0086FDB7
:100F3000FCCF80917800909179000895FC01808128
:100F40009181FB0120813181821B930B0895FC016B
:100F500080912705882311F13FB7F89482E08093B0
:100F6000E9002091F200822F90E01816190614F47F
:100F700081E090E0882339F0289844E640932605E4
:100F80004091F1004083222339F02091F200211199
:100F900003C02BE62093E8003FBF08958FEF9FEF3B
:100FA000089583E08093E9008091F200882319F08E
:100FB0008AE38093E800089581508F3008F047C09D
:100FC000E82FF0E0EA51F84F0C9456300308070878
:100FD000F507FB07FF072708270827080A08100856
:100FE000140818081E0827082208809180008F77AF
:100FF000809380000895809180008F7DF9CF80914B
:101000008000877FF5CF84B58F7784BD089584B540
:101010008F7DFBCF809190008F7780939000089513
:10102000809190008F7DF9CF80919000877FF5CFE0
:101030008091C0008F778093C00008958091C00098
:101040008F7DF9CF8091C200877F8093C200089581
:10105000CF93DF93282F30E0F901E65AF34F8491C4
:10106000F901E55CF34FD491F901E45EF34FC491CB
:10107000CC23A1F081110E94DC07EC2FF0E0EE0FF1
:10108000FF1FE25FF34FA591B491EC91ED2381E056
:1010900090E009F480E0DF91CF91089580E090E046
:1010A000FACF1F93CF93DF93282F30E0F901E65A50
:1010B000F34F8491F901E55CF34FD491F901E45EBB
:1010C000F34FC491CC23A9F0162F81110E94DC07A5
:1010D000EC2FF0E0EE0FFF1FE050F44FA591B4911C
:1010E0008FB7F894EC91111108C0D095DE23DC93F2
:1010F0008FBFDF91CF911F910895DE2BF8CFCF9353
:10110000DF9390E0FC01E55CF34F2491845E934F04
:10111000FC0184918823C9F090E0880F991FFC019D
:10112000EE50F44FA591B491FC01E050F44FC591FD
:10113000D49161110DC09FB7F8948C9120958223B2
:101140008C938881282328839FBFDF91CF910895B6
:10115000623051F49FB7F8943C91822F809583239D
:101160008C93E8812E2BEFCF8FB7F894EC912E2B38
:101170002C938FBFEACF3FB7F894809122059091CE
:101180002305A0912405B091250526B5A89B05C08F
:101190002F3F19F00196A11DB11D3FBFBA2FA92FF6
:1011A000982F8827BC01CD01620F711D811D911DF3
:1011B00042E0660F771F881F991F4A95D1F708955F
:1011C0008F929F92AF92BF92CF92DF92EF92FF9257
:1011D0004B015C010E94BB086B017C010E94BB08B3
:1011E0006C197D098E099F09683E73408105910540
:1011F000A8F321E0821A9108A108B10888EEC80E70
:1012000083E0D81EE11CF11C81149104A104B104F7
:1012100029F7FF90EF90DF90CF90BF90AF909F9015
:101220008F900895EF92FF920F931F93CF93DF93C8
:101230008C017B01D0E0C0E0F701EC0FFD1F649151
:10124000662361F0D801ED91FC910190F081E02DD1
:10125000C8010995892B11F02196EECFCE01DF91BF
:10126000CF911F910F91FF90EF900895AF92BF9291
:10127000CF92DF92EF92FF920F931F93CF93DF9362
:101280006C017B018B01040F151FEB015E01AE1891
:10129000BF08C017D10759F06991D601ED91FC91B3
:1012A0000190F081E02DC6010995892B79F7C501E0
:1012B000DF91CF911F910F91FF90EF90DF90CF9032
:1012C000BF90AF900895FC01538D448D252F30E0E1
:1012D000842F90E0821B930B541710F0CF96089543
:1012E00001970895FC01918D828D981761F0A28D70
:1012F000AE0FBF2FB11D5D968C91928D9F5F9F7336
:10130000928F90E008958FEF9FEF0895FC01918DEB
:10131000828D981731F0828DE80FF11D858D90E058
:1013200008958FEF9FEF0895FC01918D228D892FF5
:1013300090E0805C9F4F821B91098F7399270895DD
:1013400080E495E00E94940921E0892B09F420E0D3
:10135000822F0895FC01A48DA80FB92FB11DA35AA7
:10136000BF4F2C91848D90E001968F739927848FC5
:10137000A689B7892C93A089B1898C9182748C93AA
:10138000938D848D981306C00288F389E02D8081A7
:101390008F7D80830895EF92FF920F931F93CF93D9
:1013A000DF93EC0181E0888F9B8D8C8D981319C0A1
:1013B000E889F989808185FF14C09FB7F894EE8988
:1013C000FF896083E889F9898081827480839FBF67
:1013D00081E090E0DF91CF911F910F91FF90EF900E
:1013E0000895F62E0B8D10E00F5F1F4F0F7311271E
:1013F000E02E8C8D8E110CC00FB607FCFACFE88959
:10140000F989808185FFF5CFCE010E94AA09F1CF2D
:10141000EB8DEC0FFD2FF11DE35AFF4FF0829FB7CC
:10142000F8940B8FEA89FB8980818062CFCFCF93BC
:10143000DF93EC01888D8823B9F0AA89BB89E889FC
:10144000F9898C9185FD03C0808186FD0DC00FB6A2
:1014500007FCF7CF8C9185FFF2CF808185FFEDCF20
:10146000CE010E94AA09E9CFDF91CF91089580E0D3
:1014700090E0892B29F00E94A00981110C940000B2
:1014800008952091D304260F3327331F21323105CD
:10149000ECF42091F704FC0190E080E0243069F046
:1014A00082E00895A091D3042191AC014D545B4F8B
:1014B000A40FB52FB11D2C930196861798F3809138
:1014C000D304680F6093D30480E0089581E0089509
:1014D00008958FEF9FEF08958FEF9FEF089580910C
:1014E000AC0490E09195819591090895CF93DF9395
:1014F000CB01EA01642F0E94410ACE01DF91CF9116
:101500000895CF93DF931F92CDB7DEB7698361E073
:10151000CE0101960E94410A81E090E00F90DF9198
:10152000CF91089590E080E00895FC012FB7F894E2
:1015300080911E0590911F05A0912005B091210575
:101540002FBF4081518162817381841B950BA60B53
:10155000B70B4481558166817781481759076A071F
:101560007B0730F48085882319F0108681E081871D
:101570000895DC015296ED91FC9130E020E0309727
:10158000A1F0DC0154964D915C912417350758F475
:10159000428153814617570741F00190F081E02DB9
:1015A0002F5F3F4FECCFF0E0E0E0CF0108950C94C7
:1015B000D10740912E0350912F0320912C0330919D
:1015C0002D0342175307B4F49091E8009570E1F3AE
:1015D0009091E80092FD19C08093F10080912E0354
:1015E00090912F0301968F739927892B19F48EEF11
:1015F0008093E80080912E0390912F0301969093A1
:101600002F0380932E0381E0089580E00895EF92E8
:10161000FF920F931F93CF93DF93F82E192FE62E8F
:10162000042F81E0860F880F0E94D90A83E00E9470
:10163000D90ACF2DD12FEC0EFD2EF11CCE15DF05D2
:10164000B9F007FF13C0FE0184910E94D90A182F38
:1016500080E00E94D90A812321968111EFCFDF918A
:10166000CF911F910F91FF90EF9008958881EDCF5A
:1016700081E0F5CFDF92EF92FF920F931F93CF930C
:10168000DF93D82E8A01EB017B01E40EF51ECE1507
:10169000DF0559F0D7FE12C0FE0184910E94D90ADD
:1016A00021968111F4CF0FEF1FEFC801DF91CF9189
:1016B0001F910F91FF90EF90DF9008958881EECFFA
:1016C000CF93DF93CDB7DEB7A0970FB6F894DEBF08
:1016D0000FBECDBFFC01DB018C918F5F8C939E010F
:1016E0002D5F3F4F88E0D9011D928A95E9F799E077
:1016F000998384E08A8322E02D8383E08E839A8716
:1017000031E23B8791E09C879D873E879F8792E2ED
:10171000988B37E03B8B95E09C8B44E84D8B8E8B10
:1017200040E450E0588F4F8B64E1698F3A8F9B8F74
:101730009C8F8D8F5F8F4E8F8AE088A382818B83F1
:1017400096858785998B8A8B80914C06811103C081
:1017500081E88D8B2C8F40E250E0BE016F5F7F4FA0
:1017600080E00E943A0BA0960FB6F894DEBF0FBE41
:10177000CDBFDF91CF9108952FB7F89487708093F4
:10178000E9009091E800892F807295FF04C0909144
:10179000F20080E4891B2FBF08958F929F92AF9231
:1017A000BF92CF92DF92EF92FF920F931F93CF934E
:1017B000DF93B82E6B018A018091270581110FC03C
:1017C0008FEF9FEFDF91CF911F910F91FF90EF90DF
:1017D000DF90CF90BF90AF909F908F9008958091B1
:1017E000320380FF05C08091E00082608093E000BA
:1017F000C02FD12FF12C8AEFE82E8B2D8770982ED9
:101800008B2D8074882E9AE3A92E209719F4FF203F
:1018100009F443C08B2D0E94BC0B81110AC0EA94CD
:10182000EE2071F261E070E080E090E00E94E0085C
:10183000ECCF8C171D0611F00CF08C2F9FB7F8948D
:101840009092E9002091E80025FD02C09FBFDDCF06
:10185000282F30E0C21BD30BF601815020F04191BC
:101860004093F100FACFC20ED31EFF2021F0A092C8
:10187000E800F12CEBCF8091E80085FD07C0A09235
:10188000E800FF24F394209709F3F3CF2097F1F6B3
:101890008820E1F2A092E800D9CF5D9884E6809399
:1018A0003103C8018FCF615030F02091F100FC016D
:1018B00020830196F8CF289884E680932605089522
:1018C000AF92BF92DF92EF92FF920F931F93CF934D
:1018D000DF935C018B01EB019BEFD92E2097C1F0C8
:1018E0007E01C134D1051CF080E4E82EF12C8091FA
:1018F000E80082FFFCCFC8018C1B9D0B6E2D8A0D6A
:101900009B1D0E94530CD092E800CE19DF09E6CF50
:10191000C801DF91CF911F910F91FF90EF90DF9061
:10192000BF90AF9008958091240381110DC082E093
:101930008093200384E0809321031092230310926C
:10194000220381E08093240380E293E008950F93C3
:101950001F93CF93DF931F92CDB7DEB7198280918B
:101960004C06882349F082E0898342E450E060E03D
:1019700071E080E00E943A0B0E94930CDC01129609
:101980000D911C910115110589F0D801ED91FC9183
:101990000280F381E02DBE016F5F7F4FC801099582
:1019A00097FD04C0F80100851185ECCF89810F9067
:1019B000DF91CF911F910F910895CF93DF93EC01A9
:1019C00080915F01882331F083E00E94CD0B1816CF
:1019D000190634F081E090E09B838A8380E090E0F8
:1019E000DF91CF910895CF93DF931F92CDB7DEB7EC
:1019F0006983DC01ED91FC910280F381E02D41E0EF
:101A000050E0BE016F5F7F4F09950F90DF91CF913E
:101A1000089583E00E94BC0B90E00895CF93DF937C
:101A20001F92CDB7DEB7FC018485958597FD08C070
:101A30002FEF3FEF358724870F90DF91CF910895E7
:101A4000CE0101960E94A707019719F4898190E0C1
:101A5000F3CF8FEF9FEFF0CF0F931F93CF93DF93D1
:101A60001F92CDB7DEB78C01FC018485958597FF69
:101A70000BC0CE0101960E94A707019771F48981DE
:101A800090E0F80195878487F801848595850F900B
:101A9000DF91CF911F910F9108958FEF9FEFF1CFBD
:101AA000FC018485958597FD0BC09FB7F89482E073
:101AB0008093E9008091F2009FBF90E00196089525
:101AC0009FB7F89482E08093E9008091F2009FBF75
:101AD00090E00895FB0101900020E9F73197AF01F4
:101AE000461B570BDC01ED91FC910280F381E02D48
:101AF00009948F929F92AF92BF92EF92FF920F93B1
:101B00001F93CF93DF93CDB7DEB7A1970FB6F894AD
:101B1000DEBF0FBECDBF7C01FA01CB0119A222307E
:101B200008F42AE08E010F5D1F4F822E912CB12CFC
:101B3000A12CBF01A50194010E94AA2EF901CA019E
:101B40006A300CF5605DD8016E938D01232B242B38
:101B5000252B79F790E080E0109721F0BD01C701B7
:101B60000E946A0DA1960FB6F894DEBF0FBECDBFDE
:101B7000DF91CF911F910F91FF90EF90BF90AF90A9
:101B80009F908F900895695CDECFCF92DF92EF92A5
:101B9000FF920F931F93CF93DF93EC016A017B01B8
:101BA000E881F9810190F081E02D6DE209958C01C9
:101BB00044275527BA014C195D096E097F092AE0AF
:101BC000CE010E94790D800F911FDF91CF911F915F
:101BD0000F91FF90EF90DF90CF900895AB01770FBA
:101BE000660B770B77FD0C94C50D2AE00C94790DEC
:101BF0000C94790D9A01AB0170E060E00C94F80D43
:101C00009A01462F50E070E060E00C94F80D8F923E
:101C10009F92AF92BF92CF92DF92EF92FF920F937B
:101C20001F93CF93DF937C01EB016C0182E0C80E20
:101C3000D11C4701E5E08E0E911C10E000E0F6019A
:101C400061916F014AE050E0CE010E94000E5C01FC
:101C5000E881F9810190F081E02D6EE2CE010995D5
:101C60008A0D9B1D080F191FC814D90441F74AE0BB
:101C700050E0F7016581CE010E94000E800F911F98
:101C8000DF91CF911F910F91FF90EF90DF90CF9058
:101C9000BF90AF909F908F90089561E072E00C9498
:101CA0006A0D0F931F93CF93DF93EC01AB01770F76
:101CB000660B770B77FF0DC00E94C50D8C01CE011E
:101CC0000E944D0E800F911FDF91CF911F910F91B8
:101CD00008952AE00E94790DF1CF0F931F93CF93BF
:101CE000DF93EC010E94FA0D8C01CE010E944D0E93
:101CF000800F911FDF91CF911F910F9108950F9346
:101D00001F93CF93DF93EC010E94000E8C01CE0154
:101D10000E944D0E800F911FDF91CF911F910F9167
:101D200008950F931F93CF93DF938C01D0E0C0E011
:101D30006115710519F00E946A0DEC01C8010E943D
:101D40004D0E8C0F9D1FDF91CF911F910F91089524
:101D50000F931F93CF93DF93EC01FB0144815581D7
:101D600060817181E881F9810280F381E02D09951C
:101D70008C01CE010E944D0E800F911FDF91CF91FB
:101D80001F910F9108950F931F93CF93DF93EC0151
:101D90000E9412098C01CE010E944D0E800F911FEE
:101DA000DF91CF911F910F910895AF92BF92CF9283
:101DB000DF92EF92FF920F931F93CF93DF93CDB7F4
:101DC000DEB7C857D1090FB6F894DEBF0FBECDBF3E
:101DD00080914D0690914E06DC01ED91FC910680BC
:101DE000F781E02D09950E947F079A8389838E01F0
:101DF0000F5F1F4F6E01BBE3CB0ED11C78018FE943
:101E0000A82E86E0B82E0E947F07F8018193919357
:101E10008F01C5010197F1F7CE16DF06A1F72EE974
:101E200037E042E050E06DE170E0C7010E94522AC5
:101E30008D8D9E8DC858DF4F0FB6F894DEBF0FBE54
:101E4000CDBFDF91CF911F910F91FF90EF90DF9069
:101E5000CF90BF90AF900895CF93DF938091A2036E
:101E6000811173C082E080938C0381E080938D03A5
:101E700022E933E030938F0320938E031092910375
:101E80001092900320EB31E0309389032093880374
:101E90001092950310929403109297031092960358
:101EA000809398038093990381EC8093920380EC54
:101EB000809393030E94930CEC01898190918C0391
:101EC000890F9927991F0897ECF5EA81FB813097D4
:101ED00081F588E893E09B838A8362E082E00E9438
:101EE0007F0880914C0681113EC082E00E94280844
:101EF000892B81F110928A0310928B038881909133
:101F00008D03890F888330918C0390918E03E92F84
:101F1000F0918F038E2F891B8317A0F48981219163
:101F2000A82FB0E0AC58BE4F2C938F5F8983F2CFBF
:101F3000FC01808591850097D9F788E893E0918727
:101F40008087CBCF81E08093A20388E893E0DF9184
:101F5000CF91089562EC7BE080E495E00E94C30E8F
:101F600081E080934C0682E080938A0384E0809332
:101F70008B03C4CFCF92DF92EF92FF920F931F9308
:101F8000CF93DF9300D0CDB7DEB78C017B016A0120
:101F90000E942C0F1A83098341E050E0BE016F5F5D
:101FA0007F4F84E00E94CD0B8C0197FD09C0A601F4
:101FB000B70184E40E94CD0B080F191F97FD8C0117
:101FC000C8010F900F90DF91CF911F910F91FF905B
:101FD000EF90DF90CF900895CF93109283038AEA19
:101FE00080935F0385E58093600381E095EA909399
:101FF00085038093840380E29CE190936203809345
:102000006103909364038093630388E592E0909367
:1020100066038093650384E695E09093680380935C
:10202000670388EE93E090936A03809369031092AC
:102030007203109271031092700310926F0388E77D
:1020400095E090937603809375038FEF93E09093E0
:102050007403809373038AE080936B0385E080931D
:102060006D0381E080936E0310926E0169E371E06D
:1020700080E495E00E94C30E80914C06882389F08D
:10208000C0915F016AE070E080E090E00E94E008AB
:10209000CC2339F06EE171E08DED95E0CF910C9499
:1020A000C30ECF9108958F929F92AF92BF92CF921D
:1020B000DF92EF92FF920F931F93CF93DF93082F3E
:1020C000162FC42F0E947F07C0907103D090720317
:1020D000F12CE12C80906F0390907003B12CA12C17
:1020E000209175033091760350E040E02C193D09B2
:1020F0004E095F09BC01990F880B990B6819790982
:102100008A099B090E94862E2091730330917403E3
:1021100050E040E0281939094A095B090E94CC2E99
:10212000C20ED31EE41EF51ED7FC4CC1D0926D0129
:10213000C0926C01C0906903D0906A03F12CE12C2D
:1021400020916C0130916D01032E000C440B550B56
:102150002C193D094E095F09A4E6B0E00E94EB2E60
:10216000209167033091680350E040E02C193D094D
:102170004E095F090E94CC2ED0E037FD06C02536FF
:10218000310514F024E630E0D22FD0937101609134
:1021900063037091640390E080E00E94512D6B0115
:1021A0007C016D2F70E090E080E00E94532D9B0138
:1021B000AC01C701B6010E94B22D20E030E048EC2E
:1021C00052E40E94A92F6B017C0120E030E0A901BC
:1021D0000E94513020E030E040E05FE387FDF7C02F
:1021E000C701B6010E943D2F0E941B307093700101
:1021F00060936F0180915C0390915D03002309F46B
:10220000EBC0816090935D0380935C0380915C03DD
:1022100090915D03112309F4E1C0846090935D0304
:1022200080935C0380915C0390915D032091600139
:102230002D13D6C0916090935D0380935C038091D1
:102240005C0390915D03CC2309F4DFC09C01226004
:1022500030935D0320935C03209165033091660306
:102260006217730708F0CEC080914C06882309F4EA
:10227000B9C080914B06882309F4B4C06AE071E0CC
:102280008DED95E00E94120960916F0170917001CF
:1022900080914C064AE050E0882309F4A8C0809160
:1022A0004B06882309F4A3C08DED95E00E946D0EC6
:1022B00020914C06222309F49DC080914B0688236F
:1022C00009F49DC08DED95E0222309F495C020917D
:1022D0004B06EDEDF5E0222309F48EC00190F0816C
:1022E000E02D0680F781E02D099564EF71E080E034
:1022F00090E00E94E00880915C0390915D03806211
:1023000090935D0380935C0380915C0390915D03E7
:102310002091660130916701121613060CF07CC003
:10232000946090935D0380935C0380916E01882399
:1023300081F080914C06882309F469C080914B0696
:10234000882309F464C063EE70E08DED95E00E948F
:10235000C30E80915C0390915D039C0120723470E8
:10236000232B09F464C0986090935D0380935C0311
:1023700080916E01882381F080914C06882309F4B6
:1023800051C080914B06882309F44CC06EEB70E07D
:102390008DED95E00E94C30E80915C0390915D03EA
:1023A000886090935D0380935C03DF91CF911F91D0
:1023B0000F91FF90EF90DF90CF90BF90AF909F90E4
:1023C0008F90089510926D0110926C01B3CEC701E9
:1023D000B6010E943C2F08CF8E7F14CF8B7F1ECF7B
:1023E0009E7F29CF66EF70E080E495E04BCF80E4DC
:1023F00095E05CCF80E495E0E0E4F5E06FCF80E429
:1024000095E062CF8F7D82607BCF8D7D79CF60ED4F
:1024100070E080E495E09BCF9B7F90935D03809379
:102420005C0397CF6CEA70E080E495E0B3CF977FD0
:1024300090935D0380935C03AFCF6115710511F03C
:102440000C946A0D90E080E00895BF92CF92DF92E5
:10245000EF92FF920F931F93CF93DF93DC01EB0179
:1024600058968D919C915997892BB9F08D01B12C7B
:10247000CB2CD12CF801E08CF18CC7010E94FD2CF3
:10248000C816D90610F5F701EC0DFD1DE491DE012B
:10249000AC0DBD1DEC93B394EBCF88E4888389E445
:1024A000898384E48A831E968C911E978F708F5B3C
:1024B0008B831E968D919C9124E0969587952A9505
:1024C000E1F78F708F5B8C8385E0DF91CF911F9157
:1024D0000F91FF90EF90DF90CF90BF900895CF9233
:1024E000DF92EF92FF920F931F93CF93DF9300D071
:1024F000CDB7DEB77C01FB011381133009F046C074
:10250000628170E07F6F0E94B90A009709F46AC087
:10251000DC011496FC9014971596DC908F2D9D2D60
:102520000E94FD2CE82E1A8381E08E0D880F89838E
:1025300042E050E0BE016F5F7F4F80E00E943A0BA7
:10254000CF2C0F2D1D2D802F8C198E15E8F4F8013E
:10255000849189831A8242E050E0BE016F5F7F4F11
:1025600080E00E943A0B0F5F1F4F892B61F780E0DC
:1025700090E00F900F90DF91CF911F910F91FF90FE
:10258000EF90DF90CF90089581E0F2CF8081813885
:1025900049F5123239F5D70112962C9112978481A0
:1025A000958128171906F1F41C960D911C91D12CD8
:1025B000C12C0115110589F0F80144815581628112
:1025C000738180E80E943A0B8F3F980791F2C80E02
:1025D000D91ED8010D911C91ECCF81E0F701808BC1
:1025E000C601C7CF90E080E0C4CFFC01808191811B
:1025F000009711F00C9480290895EF92FF920F93A9
:102600001F93CF93DF93EC017B01FB01019000202E
:10261000E9F731978F01061B170B88819981009785
:1026200029F02A813B812017310788F4B8016F5FB8
:102630007F4F0E945C300097B9F0998388831B8399
:102640000A832C813D81232B11F4FC0110821D8310
:102650000C83B70188819981DF91CF911F910F91F0
:10266000FF90EF900C942A3188819981009711F0A6
:102670000E948029198218821D821C821B821A8264
:10268000DF91CF911F910F91FF90EF9008950F93DD
:102690001F93CF93DF93CDB7DEB729970FB6F8948A
:1026A000DEBF0FBECDBF8C01862FF80111821082D4
:1026B000138212821582148250E0BE016F5F7F4F39
:1026C00090E00E94192DBE016F5F7F4FC8010E94EC
:1026D000FD1229960FB6F894DEBF0FBECDBFDF9175
:1026E000CF911F910F9108952F923F924F925F9239
:1026F0006F927F928F929F92AF92BF92CF92DF9212
:10270000EF92FF920F931F93CF93DF93CDB7DEB776
:1027100069970FB6F894DEBF0FBECDBFAA2009F4AB
:1027200065C030E1388FFB01608171816D307105CA
:1027300021F06A30710509F0FEC05A2C17013801EA
:10274000298F7A01F88DAF2EB12CA50170E060E0E1
:1027500001960E94BF2B462E062F172F80914D0603
:1027600090914E06E016F10608F043C06CEF7CE055
:102770000E941209B60180914D0690914E060E946A
:102780001D126CEE7CE080914D0690914E060E94E9
:1027900012094AE050E0B70180914D0690914E0633
:1027A0000E94FA0D69EE7CE080914D0690914E06F4
:1027B0000E94C30E80E01092280569960FB6F89427
:1027C000DEBF0FBECDBFDF91CF911F910F91FF9064
:1027D000EF90DF90CF90BF90AF909F908F907F90C1
:1027E0006F905F904F903F902F900895EAE0E88FB0
:1027F0009ACF08151905F8F468ED7CE00E941209DB
:10280000B60180914D0690914E060E941D1267EC14
:102810007CE080914D0690914E060E9412094AE09C
:1028200050E0B40180914D0690914E060E94FA0D41
:1028300064EC7CE0B9CF64EB7CE00E941209552087
:1028400041F061EB7CE080914D0690914E060E9434
:102850001209E0904D06F0904E06298D222309F4CE
:1028600046C0488DF3016081CE0101960E94471356
:10287000BE016F5F7F4FC7010E94A80ECE01019677
:102880000E94F512F30140826CEA7CE080914D06D3
:1028900090914E060E941209B60180914D069091CA
:1028A0004E060E941D1262EA7CE080914D069091D6
:1028B0004E060E941209552041F06FE97CE080919C
:1028C0004D0690914E060E941209A501B801809113
:1028D0004D0690914E060E946D0E69E77CE0809156
:1028E0004D0690914E060E94C30E81E064CFF10127
:1028F000808191811B8A1A8A1D8A1C8A1F8A1E8ADE
:10290000A501BE016F5F7F4F0E94192DBE016F5F51
:102910007F4FCE0142960E94FD12BE016E5E7F4F38
:10292000C7010E94A80ECE0142960E94F512F10145
:1029300011830083A9CF80E040CF1F93CF93DF9313
:1029400085ED8093BC008091AF049091B004A0917C
:10295000B104B091B2040796A11DB11D23E0B69554
:10296000A795979587952A95D1F72091BC0024FDCE
:1029700003C01092F70452C04091AF045091B004CC
:102980006091B1047091B204452B462B472B69F33B
:102990000097A105B10541F02AE22A95F1F700C0A0
:1029A0000197A109B109E1CF8091AE04C1E0C093C4
:1029B000AD04882399F1D091B8001091BA008091AC
:1029C000BC008A7B8093BC0060E082E00E945108DA
:1029D00060E083E00E9451081092F704C093F9046C
:1029E0001092F80461E082E00E94510861E083E007
:1029F0000E9451088091B9008E7F8093B900809128
:102A0000B9008D7F8093B90088E48093B80085E495
:102A10008093BC001093BA00D093B800DF91CF919F
:102A20001F910895CF92DF92EF92FF920F931F9321
:102A3000CF93DF93FC014281FB0124813581421752
:102A4000130611F020E029C0EB0131812081213AE9
:102A500091F5313061F52381233011F021E01DC063
:102A6000628170E00E94B90AEC01009759F341E0DD
:102A700050E0BC016E5F7F4F80E00E943A0B181659
:102A8000190604F74E815F816C817D8180E00E9490
:102A90003A0B21E018161906ACF6822FDF91CF9180
:102AA0001F910F91FF90EF90DF90CF90089521E05C
:102AB000333041F6F2CF213229F63B3021F4228126
:102AC000FC01208BCBCF3A3021F42281FC01218BF9
:102AD000C5CF393009F0B6CF2381233009F0B2CF0A
:102AE000628170E00E94B90A7C01009709F4AACFC4
:102AF000CE80DF80FC01868197810196C816D906B9
:102B000009F0A0CF81E090E0C114D10409F0C60122
:102B10000E94E4288C01B6010E94600CF80121811A
:102B200030E08E819F81039710F08281382B6A817B
:102B3000613121F58091AB048F5F8093AB042093CA
:102B4000AA0480E0F8019081F70122813381921775
:102B5000130609F077CF882349F046815781B801E1
:102B60006F5F7F4F848195810E942131011511058E
:102B700009F474CFC8010E94802970CF8AEA93E0DB
:102B8000FC0101900020E9F7CF018B5A934040E00F
:102B900051E0481B590B43335105D0F043E052E05C
:102BA0005F934F933F932F931F926F9322EE31E0E9
:102BB0003F932F9386559C4F9F938F930E94313163
:102BC0008DB79EB70A960FB6F8949EBF0FBE8DBF05
:102BD00081E0B8CFAF92BF92CF92DF92EF92FF9297
:102BE0000F931F93CF93DF937C016B015A01E9018F
:102BF000DC0152960D911C9190E080E001151105C9
:102C000031F589E090E00E94E428FC0111821082F5
:102C1000D382C282B582A482DD27D783C683D7013F
:102C200053969C938E935297F701848995890196C8
:102C3000958B848BDF91CF911F910F91FF90EF9037
:102C4000DF90CF90BF90AF90089501968901F80171
:102C5000228133812C153D0569F3208131812115B5
:102C6000310599F789E090E00E94E428FC01118287
:102C70001082D382C282B582A482DD27D783C68325
:102C8000D8018D939C93D0CFCF92DF92EF92FF9299
:102C90000F931F93CF93DF93C82F6B018A010E947C
:102CA0002C0F6C2F70E021E030E0A6010E94EA15A5
:102CB000EC01892B89F00E942C0F7C01C8010E9435
:102CC000FD2CF601608170E07F6F9C01A801C701B7
:102CD0000E94EA15C80FD91FCE01DF91CF911F9135
:102CE0000F91FF90EF90DF90CF900895EF92FF92B9
:102CF0000F931F93CF93DF93EC018B017A010E9416
:102D00002C0F9701A801BE01DF91CF911F910F9168
:102D1000FF90EF900C94EA151F920F920FB60F924E
:102D200011242F933F938F939F93AF93BF938091E1
:102D30001E0590911F05A0912005B09121053091AD
:102D40001D0523E0230F2D3758F50196A11DB11D58
:102D500020931D0580931E0590931F05A0932005C9
:102D6000B09321058091220590912305A09124051F
:102D7000B09125050196A11DB11D80932205909368
:102D80002305A0932405B0932505BF91AF919F9192
:102D90008F913F912F910F900FBE0F901F9018951C
:102DA00026E8230F0296A11DB11DD2CF1F920F92CC
:102DB0000FB60F9211242F933F934F935F936F930E
:102DC0007F938F939F93AF93BF93EF93FF9380E491
:102DD00095E00E94AA09FF91EF91BF91AF919F9159
:102DE0008F917F916F915F914F913F912F910F90B4
:102DF0000FBE0F901F9018951F920F920FB60F9253
:102E000011242F938F939F93EF93FF93E09150059D
:102E1000F09151058081E0915605F091570582FDB2
:102E20001BC09081809159058F5F8F7320915A0547
:102E3000821741F0E0915905F0E0E05CFA4F958F80
:102E400080935905FF91EF919F918F912F910F9052
:102E50000FBE0F901F9018958081F4CF1F920F9294
:102E60000FB60F9211242F933F934F935F936F935D
:102E70007F938F939F93AF93BF93EF93FF93809133
:102E8000B900887F803609F44AC0F0F5883209F429
:102E9000A5C018F5803109F499C0B8F4882309F465
:102EA000F5C0883009F492C0FF91EF91BF91AF91C6
:102EB0009F918F917F916F915F914F913F912F9152
:102EC0000F900FBE0F901F901895883109F486C09F
:102ED000803251F78093F60414C0803409F49BC00B
:102EE00040F48033B9F38833F9F68093F60485EC27
:102EF000AEC0803509F483C0883509F494C08834A5
:102F000099F60E949D14D0CF883909F48AC038F50B
:102F1000883729F050F4883611F0803729F683E09D
:102F20008093F7041092F50455C0883809F479C0ED
:102F3000803919F0803809F0B7CF8091F5048032DC
:102F400008F06FC0E091F50481E08E0F8093F504E6
:102F50008091BB00F0E0EB52FB4F80833BC0803B95
:102F600039F0D0F4803A09F477C0883A09F09CCF60
:102F700084E08093F7041092D4041092D304F0E01C
:102F8000E0E009958091D30481110FC081E0809326
:102F9000D3041092B30409C0803C09F4A8CF883C44
:102FA00009F4A5CF883B09F07FCFE091D40481E0FC
:102FB0008E0F8093D404F0E0ED54FB4F808180931A
:102FC000BB009091D4048091D30429C080911C054A
:102FD0008093BB0085EC8093BC0066CF90911B056D
:102FE00080911A05981758F5E0911B0581E08E0F26
:102FF00080931B05F0E0E650FB4F8081E9CFE09124
:103000001B0581E08E0F80931B058091BB00F0E0D3
:10301000E650FB4F808390911B0580911A0598170D
:10302000C8F285E8D8CFE0911B0581E08E0F809330
:103030001B058091BB00F0E0E650FB4F8083809140
:10304000F90481115ECF81E08093F80484EA8093D3
:10305000BC001092F70428CF85EC8093BC0010923E
:10306000F7048091F504803230F4E091F504F0E04B
:10307000EB52FB4F10826091F50470E085ED94E017
:10308000F0E0E0E009951092F5040ECF1092F604FE
:1030900038CF1F920F920FB60F9211242F933F93A8
:1030A0004F935F936F937F938F939F93AF93BF9350
:1030B000CF93EF93FF93C091E1008091E100837F74
:1030C0008093E100C3FF1DC080914C06882309F462
:1030D00059C082E1E1E8F1E0A6E4B1E001900D928F
:1030E0008A95E1F71092E90081E08093EB0010925D
:1030F000EC0082E38093ED001092270588E0809336
:10310000F000C2FF1AC00E94D107809131038823CA
:1031100041F080913103815080933103811101C0CE
:103120005D9A80912605882341F080912605815083
:1031300080932605811101C0289AC4FF27C0809181
:10314000E2008E7E81608093E2008091E1008F7EBC
:103150008093E100809132038E7E80618093320300
:10316000FF91EF91CF91BF91AF919F918F917F91FF
:103170006F915F914F913F912F910F900FBE0F90E4
:103180001F90189582E1E3E9F1E0A6CFC0FFE8CFF8
:103190008091E2008E7E80618093E2008091E10068
:1031A0008E7E8093E100809132038E7E8160D6CF47
:1031B0001F920F920FB60F921124CF92DF92EF92CF
:1031C000FF920F931F932F933F934F935F936F93B0
:1031D0007F938F939F93AF93BF93EF93FF93CF937F
:1031E000DF93CDB7DEB76C97DEBFCDBF1092E9009D
:1031F0008091E80083FF25C068E0CE0145960E94DB
:10320000530C82EF8093E8008D8987FF39C090913D
:10321000E80090FFFCCF982F907609F038C19E8986
:103220004F89588D2F89F88C911131C0803861F504
:10323000809133038093F1001092F1008EEF809320
:10324000E8006C960FB6F894DEBF0FBECDBFDF91DD
:10325000CF91FF91EF91BF91AF919F918F917F910E
:103260006F915F914F913F912F911F910F91FF901F
:10327000EF90DF90CF900F900FBE0F901F9018959A
:103280009EEF9093E800C7CF1092F100D5CF913018
:1032900059F48111D3CF4130510581F68091330328
:1032A0008D7F80933303CACF933049F48111C6CF09
:1032B0004130510519F6809133038260F2CF953089
:1032C00041F48091E80080FFFCCF20682093E30068
:1032D000B5CF963009F0A9C00B8D1C8D22E010925D
:1032E000E90010922F0310922E03F2122EC01092BA
:1032F0002D0310922C030E94A70C1F8299E0998342
:10330000FA8291E09E8390EA98879AEF99872091BC
:103310002E0330912F03275F3F4F3C832B838D83F8
:103320001092E90010922F0310922E0310932D0398
:1033300000932C0349E050E0BE016F5F7F4F80E0B7
:103340000E943A0B0E94A70C79CF10932D03009393
:103350002C030E94930CDC0112960D911C91011517
:10336000110509F452C1D801ED91FC910480F58159
:10337000E02DBE016B5E7F4FC8010995009709F0F3
:103380003FC1F80100851185EACFF3E0FF120EC0BE
:103390008F89882309F440C0823061F440E860E1FD
:1033A00084E691E00E94070B811148CF81E280936F
:1033B000EB0047CF813029F440E86BE088E591E0ED
:1033C000F1CF833099F70E94930CDC011296ED90B7
:1033D000FC908E010F5F1F4F6801E114F10479F03A
:1033E000D701ED91FC910680F781E02DB801C7016E
:1033F0000995080F111DF701E084F184EECFD80183
:103400001C92F60101900020E9F73197BF016C1979
:103410007D0940E0C601C6CFE4E5F1E0449150E00B
:10342000BF0180E80E943A0B09CF973009F4BECF64
:10343000983021F481E08093F10000CF993009F0B9
:10344000FDCE837009F0B2CF80914C068823B1F095
:10345000E5E7F1E081E031E096E32191222371F08C
:103460008093E9003093EB00DF0111972C912093BA
:10347000EC009093ED008F5F873079F78EE78093B3
:10348000EA001092EA008F8980932705D7CE8B8DB2
:103490009C8D1092E90010922F0310922E039093AE
:1034A0002D0380932C0380914C06882309F48DC052
:1034B000898D81118AC08E899D89913A41F481322A
:1034C00009F074CF47E050E068E571E0B5C0913293
:1034D00009F06CCF833269F48F89988DB0E0A0E059
:1034E0008093420190934301A0934401B09345011E
:1034F000A5CE803239F467E070E088E591E00E9463
:10350000600C9CCE823209F099CE8F8980935F0146
:10351000EEEFFFE785919491E0E0F8E08B3F9C4D62
:1035200011F4EEEFFAE08091580190915901A091C9
:103530005A01B0915B01803B9440A105B105D9F4DB
:1035400080915F0180FD17C0EE3F8AE0F80771F5BA
:1035500087E797E7918380838091600080933003B1
:1035600088E19BE00FB6F894A895809360000FBEA9
:103570009093600063CE808191818737974709F0EF
:103580005DCEA895809160008861809360008091F5
:10359000300380936000EE3F2AE0F20789F08091CB
:1035A000FE0A9091FF0A9183808348CE80819181A9
:1035B0008737980769F29093FF0A8093FE0AC8CF75
:1035C0001092FF0A1092FE0A39CE0E94930CDC0181
:1035D00012960D911C910115110509F4E7CED80141
:1035E000ED91FC910190F081E02DBE016B5E7F4F6B
:1035F000C8010995811122CEF80100851185EBCF14
:10360000181619060CF41ACED1CEF1E0FF12BDCE79
:1036100080914C0681110CC08DE195E090934F0193
:1036200080934E0183E090E090935101809350018C
:1036300042E150E066E471E080E0F4CE1092430590
:103640001092420588EE93E0A0E0B0E0809344053C
:1036500090934505A0934605B09347058CEB91E008
:1036600090934105809340058DEC90E090934D053B
:1036700080934C058CEC90E090934F0580934E0521
:1036800088EC90E0909351058093500589EC90E090
:1036900090935305809352058AEC90E090935505E2
:1036A000809354058EEC90E09093570580935605D7
:1036B0001092590510925A0510925B0510925C0504
:1036C00080EE91E090932A058093290510922B05B6
:1036D00010922C0510922D0510922E0582E08093F9
:1036E0003D0581E080933E0593E090933F059091E6
:1036F0003505911112C01092300510922F0528E166
:103700003DE0309332052093310520E931E03093DC
:10371000340520933305809335050E942C0FFC015E
:10372000A485B585109709F054C08FE295E0958780
:103730008487868597852091330530913405820FE3
:10374000931F978786871092E0051092DF0588EE19
:1037500093E0A0E0B0E08093E1059093E205A093B0
:10376000E305B093E4058EEC91E09093DE05809341
:10377000DD058FEF9FEF9093EA058093E90580EEDA
:1037800091E09093500680934F061092510610924C
:103790005206109253061092540680914C068823CC
:1037A00011F180914B068823F1F08DED95E0909317
:1037B0004E0680934D0610924A06109249061092CA
:1037C000400610923F061092360610923506089574
:1037D000DC018D919C9111970097D1F78FE295E0D4
:1037E0008D939C93A6CF80E495E0E1CFCF93DF93B8
:1037F000CDB7DEB7C854D1090FB6F894DEBF0FBEFF
:10380000CDBFF89462E082E00E947F0882E00E94CF
:103810002808892B19F481E080934C06789461E0A4
:1038200087E00E947F0861E086E00E947F0861E0F7
:1038300085E00E947F0860E087E00E94510860E018
:1038400086E00E94510860E085E00E945108809166
:103850004C06882309F438C261E087E00E945108D1
:1038600060E086E00E945108789484B5826084BD4F
:1038700084B5816084BD85B5826085BD85B5816074
:1038800085BD80916E00816080936E0010928100F2
:1038900080918100826080938100809181008160AD
:1038A000809381008091800081608093800080916E
:1038B000910082608093910080919100816080935B
:1038C0009100809190008160809390008091C10070
:1038D00084608093C1008091C10082608093C100A8
:1038E0008091C10081608093C1008091C30081609C
:1038F0008093C3008091C00082608093C00080915B
:10390000C20081608093C20080917A0084608093BD
:103910007A0080917A00826080937A0080917A00A8
:10392000816080937A0080917A00806880937A0029
:103930001092270510923303109232038091D70022
:1039400081608093D70080EA8093D80089B5806138
:1039500089BD89B5826089BD09B400FEFDCF61E0F3
:1039600070E080E090E00E94E0088091D8008F7CB9
:1039700080618093D8008091E000807F8093E00098
:103980008091E1008E7E8093E1008DE08093E200E3
:10399000559A209AE0915005F091510582E080837C
:1039A000E0914C05F0914D051082E0914E05F091AB
:1039B0004F0580E1808310925805E0915405F09105
:1039C000550586E08083E0915205F0915305808192
:1039D00080618083E0915205F09153058081886079
:1039E0008083E0915205F091530580818068808347
:1039F000E0915205F091530580818F7D8083BFE572
:103A0000EB2EB3E0FB2E10E000E0C8010E94702E08
:103A1000F70181937F010F5F1F4F07321105A9F74F
:103A200090914C0680915F038A3A09F053C18091CE
:103A30006003853509F04EC12091840330918503E0
:103A40002130354A09F046C180918303817080930B
:103A50006E01911106C06DEE71E080E495E00E9468
:103A6000C30E80916D03809352030E942C0F0E941D
:103A70002C0F21E030E04DE355E061E070E00E9462
:103A8000EA150E942C0F21E030E04FE355E062E0A0
:103A900070E00E94EA150E942C0F21E030E04EE316
:103AA00055E063E070E00E94EA150E942C0F22EAC4
:103AB00031E0FC01318F208F80914C06882339F052
:103AC0000E942C0F2DED35E0FC01378B268B62E038
:103AD00084E00E947F0860E087E10E947F0861E047
:103AE0008DE00E94510861E088E00E947F0861E05B
:103AF00088E00E94510880915C0390915D0385608D
:103B0000916090935D0380935C0384E00E94280899
:103B10009C0181E02115310509F480E08093720158
:103B20008093730141E0232B09F040E040935E0352
:103B3000682F0E94531042E050E06CE573E087E08C
:103B400090E00E94761642E050E06FE671E08DE072
:103B500090E00E94761642E050E061E673E08AE170
:103B600090E00E94761642E050E063E673E08CE15C
:103B700090E00E94761642E050E065E673E088E04F
:103B800090E00E94761642E050E068E671E083E142
:103B900090E00E94761642E050E066E671E082E135
:103BA00090E00E94761641E050E065E671E086E024
:103BB00090E00E94761641E050E064E671E086E114
:103BC00090E00E94761642E050E06AEA71E08AE0F6
:103BD00090E00E94761642E050E062E671E08BE0F1
:103BE00090E00E94761641E050E061E671E084E1E9
:103BF00090E00E94761641E050E069EA71E087E1CA
:103C000090E00E94761641E050E060E671E08EE0C0
:103C100090E00E94761641E050E061E771E08CE0B0
:103C200090E00E94761641E050E06BE673E08FE092
:103C300090E00E94761641E050E06DE673E081E18D
:103C400090E00E94761641E050E068EA71E080E181
:103C500090E00E94761641E050E067EA71E088E16A
:103C600090E00E9476164DE951E066EA71E08FE13E
:103C70000E94441643E951E065EA71E080E20E9447
:103C80004416809167039091680390936D0180932F
:103C90006C0180914C068823C1F18FEF9FEF9093C8
:103CA000EA058093E90510915F016AE070E080E029
:103CB00090E00E94E008111118C06AE070E080E016
:103CC00090E00E94E008EFCF60E087E00E9451089A
:103CD00061E0C7CD911106C068EA71E080E495E02B
:103CE0000E94C30E0E94EC0FBCCE81E080934B0675
:103CF00064E871E08DED95E00E94120960914C0638
:103D000070E08DED95E00E94510E65E771E080E472
:103D100095E00E94120960914C0670E080E495E005
:103D20000E94510E80E495E00E94170A10925E03F3
:103D300068EC70E080E090E00E94E00810924A0693
:103D40002FB7F89480911E0590911F05A091200532
:103D5000B09121052FBF8093410690934206A09316
:103D60004306B09344068AE090E0A0E0B0E0809380
:103D7000450690934606A0934706B093480681E017
:103D8000809349069E012F5F3F4F3901C9018B5532
:103D900096401C01ACE34A2E512C10914C06112385
:103DA00009F4D6C080914B06882309F4D1C08DED6B
:103DB00095E00E94500D892B09F403C680914B06B3
:103DC000882309F4CEC08DED95E00E940E0D7C0194
:103DD00080916E01882369F06E2D112309F4C6C00D
:103DE00080914B06882309F4C1C08DED95E00E94B7
:103DF000F30CE0912805EE3108F0D9C59DE0E916F5
:103E0000F104A9F0FAE0EF16F10489F02FEEE216C2
:103E1000F10469F0C7018B7F8B3B910541F081E094
:103E20008E0F80932805F0E0EC5CFC4FE082E0917F
:103E30002805F0E0EC5CFC4F108280916E01882335
:103E400081F080914C06882309F495C080914B063F
:103E5000882309F490C06EE87AE08DED95E00E9429
:103E6000120980916E01882381F080914C0664E3F1
:103E700073E0882309F484C080914B06882309F4F9
:103E80007FC08DED95E00E941D1280916E01882308
:103E900081F080914C06882309F475C080914B060F
:103EA000882309F470C06AE87AE08DED95E00E94FD
:103EB000C30E80912805882309F4A4C080914C0684
:103EC000882331F080914B060DED15E0811102C081
:103ED00000E415E02596FFAEEEAE259710934E0652
:103EE00000934D063DE0E316F10429F08AE0E81660
:103EF000F10409F052CF80913403082E000C990B85
:103F00000E941931883409F413C20CF091C0833433
:103F100009F4A9C1ECF58F3309F40AC2823409F41B
:103F20001BC161E379E0C8010E94120964E373E0F8
:103F3000C8010E941D126EE279E0C8010E94C30E02
:103F400062E279E0C8010E94C30E1092340354C0AB
:103F500080E495E00E949409892B09F432C511117F
:103F60002DCF80E495E00E94720931CF80E495E086
:103F70000E94CB093ECF6CE87AE080E495E06FCFF9
:103F800080E495E080CF68E87AE080E495E08FCF28
:103F9000843409F4F3C4853421F680913503082E66
:103FA000000C990B0E9419318E3409F0CAC09DE0B3
:103FB000E916F10421F0EAE0EE16F104E9F486E3F3
:103FC00093E00E94D62C7C01029708F469C062E15C
:103FD00079E0C8010E94120968E072E080914D0604
:103FE00090914E060E941D1262EF78E080914D067E
:103FF00090914E060E94C30E1092280580912805CC
:104000008111CBCE80916E01882309F4C6CE8091B8
:104010004C06882309F4D0C480914B06882309F408
:10402000CBC461E87AE08DED95E00E941209B5CE2F
:10403000833509F401C4DCF48E3409F4B5C4813548
:1040400009F06FCF64E579E0C8010E94120970E0C1
:1040500060E0C8010E94510E64E479E0C8010E944A
:10406000120970E060E0C8010E94510EC5CF8A3588
:1040700009F4FEC38E3709F408C4843509F051CF22
:1040800080913503082E000C990B0E94193183345E
:1040900009F493C0843409F4BBC06EE17AE053C0E4
:1040A00062EE78E0C8010E94120900914D0610915D
:1040B0004E0680916E031EAE1DAE21961FAE1EAE43
:1040C000219723961FAE1EAE23974AE0B30190E0DE
:1040D0000E94062DB301CE01CD960E94FD12BE01B5
:1040E000635C7F4FC8010E94A80ECE01CD960E944E
:1040F000F5128E2D817080936E036DED78E08091C6
:104100004D0690914E060E94120968E072E080917F
:104110004D0690914E060E941D1263ED78E080914D
:104120004D0690914E060E94120960916E0370E058
:1041300080914D0690914E060E94510E6DEA78E0F6
:1041400055CF69E57AE0C8010E94120964E373E083
:10415000C8010E94910E50CF80913503082E000CAB
:10416000990B0E9419318534C9F0863419F5912CC8
:10417000812CA12CE5E2CE2EE2E0DE2EF7E6EF2E3A
:10418000F3E0FF2E830120E048E55BE1BE016D5BBB
:104190007F4F85E393E00E9474132ECF912C812CE6
:1041A000A12C6BE3C62E62E0D62E79E6E72E73E0F3
:1041B000F72EE8CF68E37AE0C6CF80916103909153
:1041C0006203B2010E94962E7A836983912C812C1E
:1041D000A12C5BE4C52E52E0D52E73018E01035C49
:1041E0001F4F20E040E45FE1BE016D5B7F4F85E340
:1041F00093E00E94741329813A814CE3429FC001ED
:10420000439F900D11249093620380936103F4CE39
:104210008091630390916403B2010E94962E7A8389
:104220006983912C812CA12C4DE6C42E42E0D42E22
:1042300073018E01035C1F4F20E040E45FE1BE018B
:104240006D5B7F4F85E393E00E94741329813A816F
:104250004CE3429FC001439F900D1124909364034F
:1042600080936303C9CE80913503082E000C990B0F
:104270000E941931883471F18C3409F056C0809154
:104280007103909172039A838983912C812CA12CC4
:1042900032E9C32E32E0D32E73018E01035C1F4F2F
:1042A00020E040E45FE1BE016D5B7F4F85E393E07A
:1042B0000E947413882309F49FCE89819A81909378
:1042C0007203809371030E94D50E909370038093C4
:1042D0006F0392CE80917503909176039A838983C0
:1042E000912C812CA12C27EAC22E22E0D22E730120
:1042F0008E01035C1F4F20E040E45FE1BE016D5B77
:104300007F4F85E393E00E947413882309F474CEF1
:1043100089819A8190937603809375030E94D50ECC
:10432000909374038093730367CE6DEF79E00BCFA6
:1043300080913503082E000C990B0E9419318534A9
:1043400009F45ACE803509F0FDC0C8010E944D0E17
:1043500069E978E0C8010E94120960916F017091CB
:1043600070014AE050E0C8010E946D0E65E878E0F7
:10437000C8010E94120960916103709162034AE0D2
:1043800050E0C8010E946D0E61E778E0C8010E940C
:10439000120960916303709164034AE050E0C80120
:1043A0000E946D0E6DE578E0C8010E9412096091CF
:1043B0006503709166034AE050E0C8010E946D0EEB
:1043C00069E478E0C8010E94120960916801709167
:1043D0006901C8010E94510E65E378E0C8010E949E
:1043E00012096091660170916701C8010E94510E27
:1043F00061E278E0C8010E9412094AE050E0609151
:104400006501C8010E947F0E6DE078E0C8010E943E
:1044100012094AE050E060916401C8010E947F0ED9
:1044200069EF77E0C8010E9412094AE050E064E6B3
:1044300075E0C8010E946D0E65EE77E0C8010E942C
:10444000120960916201709163014AE050E0C80175
:104450000E946D0E61ED77E0C8010E9412094AE0EA
:1044600050E060916101C8010E947F0E6DEB77E022
:10447000C8010E9412094AE050E064E6C8010E94A7
:104480007F0E69EA77E0C8010E9412094AE050E015
:1044900060916001C8010E947F0E65E977E0C80164
:1044A0000E9412094AE050E060917101C8010E9427
:1044B0007F0E61E877E0C8010E9412094AE050E0EF
:1044C00060916B03C8010E947F0E6DE677E0C80122
:1044D0000E9412094AE050E060916D03C8010E94F9
:1044E0007F0E69E577E0C8010E9412094AE050E0BA
:1044F00061E0C8010E947F0E65E477E0C8010E9478
:1045000012094AE050E061E0C8010E947F0E61E3B9
:1045100077E0C8010E94120960916C0170916D01F1
:10452000C8010E94510E6BE177E0C8010E94120998
:1045300060915C0370915D0340E150E0C8010E940E
:104540006D0E5ACD6DE077E0C8010E94C30EC80120
:104550000E944D0E62EC76E0C8010E94C30E64EB2F
:1045600076E0C8010E9412096FEB72E0C8010E9458
:10457000910EC8010E944D0E62EA76E0C8010E94C9
:10458000C30E60E776E0C8010E94120960916E03D5
:1045900070E0C8010E94510E60E476E0C8010E94FC
:1045A0001209C8010E944D0E6EE076E0C8010E941B
:1045B000120960916703709168034AE050E0C801F6
:1045C0000E946D0E6CED75E0C8010E9412096091A9
:1045D000690370916A034AE050E0C8010E946D0EC1
:1045E0006AEA75E0C8010E94120980916103909106
:1045F0006203B2010E94962E4AE050E0C8010E9478
:104600006D0E68E775E0C8010E941209809163038E
:1046100090916403B2010E94962E4AE050E0C801D6
:104620000E946D0E66E475E0C8010E941209609157
:104630007103709172034AE050E0C8010E94FA0DC4
:104640006FE375E0C8010E94C30E63E275E0C80124
:104650000E94120960916F03709170034AE050E06C
:10466000C8010E94FA0D61E275E0C8010E94C30E04
:104670006FEE74E0C8010E94120960917503709199
:1046800076034AE050E0C8010E94FA0D68EE74E03B
:10469000C8010E94C30E6BEC74E0C8010E941209AD
:1046A00060917303709174034AE050E0C8010E9466
:1046B000FA0D69EC74E0C8010E94C30E67E974E06A
:1046C000C8010E9412094AE050E060916D03C801E0
:1046D0000E94000E65E974E0C8010E94C30E67E6FF
:1046E00074E0C8010E94C30E66E274E0C8010E9433
:1046F000C30E69EE73E0C8010E94C30E6CEA73E05A
:10470000C8010E94C30E60E773E0C8010E94C30E97
:1047100063E373E0C8010E94C30E65E073E0C80163
:104720000E94C30E63ED72E0C8010E94C30E69ECE3
:1047300072E0C8010E94C30E64EA72E0C8010E94E0
:10474000120940E150E060918303C8010E947F0E8E
:104750006EE872E0C8010E94120960916C017091CC
:104760006D01C8010E94510E6AE772E0C8010E9403
:1047700012094AE050E060917101C8010E94000EE8
:1047800066E772E0C8010E94120980916F01909162
:104790007001B2010E94962E4AE050E0C8010E94CA
:1047A000FA0D64E772E0C8010E94120980916F015E
:1047B00090917001B2010E94962E4AE050E0BC0137
:1047C000C8010E946D0E66E672E0C8010E941209DF
:1047D00080915E0364E072E0811102C066E072E0E5
:1047E000C8010E941D1268E572E0C8010E9412090A
:1047F00060915C0370915D0340E150E0C8010E944C
:104800006D0E65E472E0C8010E94120980915506A0
:1048100090915606B301681B790B892B09F4B101FD
:10482000C8010E94510E68EF76E0C8010E94C30ED5
:104830006AED76E0C801DECB9FE5C92E93E0D92E64
:10484000F12CE12CF601B1906F01C7010E94702E8E
:10485000B81621F06B2DC7010E94782EFFEFEF1ADA
:10486000FF0A27E2E216F10469F76DED79E0E2CF85
:104870000E94EC0F68E879E0C8010E94C30E8091A5
:104880008303817080936E01B7CB6FE272E0C80141
:104890000E941209F12CE12CD12CC12CB12CC701A2
:1048A0008C0D9D1D0E94702E8F3F11F0BB24B39480
:1048B0003FEFC31AD30A80E1C816D10481F7E1148F
:1048C000F10419F0BB2009F44BC06AE272E0C801A0
:1048D0000E94120968E272E0C8010E9412099FEF6B
:1048E000E916F10409F070F466E272E0C8010E9472
:1048F0001209E0E1EE16F10428F464E272E0C80166
:104900000E94120940E150E0B701C8010E94FA0D6F
:1049100062E272E0C8010E9412096701B12CC6016F
:104920000E94702EA82EFFE0F81728F060E272E0D7
:10493000C8010E94120940E150E06A2DC8010E949E
:10494000000E2FE0B21629F06EE172E0C8010E945D
:1049500012093FEFC31AD30AB39480E1B812DFCF34
:1049600090E1E90EF11CE114E4E0FE0609F094CFB9
:104970006AE072E0C8010E9412093ECB912C812CA2
:10498000AA24A39485EDC82E82E0D82E730103E8F3
:1049900013E021E04FEF50E0BE016D5B7F4F84E3F9
:1049A00093E00E9474136BCF68E679E043CF1092D6
:1049B00028051092340322CB6AE77AE080E495E080
:1049C00034CB8DE296E00E94950A80913606909154
:1049D0003506911122C048EE53E060E070E040934C
:1049E00031065093320660933306709334069FB7B6
:1049F000F89440911E0550911F056091200570911B
:104A000021059FBF40932D0650932E0660932F06DD
:104A10007093300691E09093350610923606882305
:104A200009F445C280918603909187030196909383
:104A300087038093860380916E03882309F473C3F0
:104A400040915E0360917301809172010E94531046
:104A500020915C0330915D0380915A0390915B0338
:104A600028173907C1F49091710180915903981367
:104A700012C020916F013091700180915703909185
:104A800058032817390739F48091860390918703DA
:104A90000B970CF489C160E088E00E945108809176
:104AA0004C06882309F4F2C280914B06882309F44E
:104AB000EDC267EA7BE08DED95E00E9412096091FE
:104AC000710180914C064AE050E0882309F4E3C26A
:104AD00080914B06882309F4DEC28DED95E00E949B
:104AE000000E80914C06882309F4D8C280914B06B1
:104AF000882309F4D3C268E87BE08DED95E00E943D
:104B0000120980916F0190917001B2010E94962E5E
:104B100080914C064AE050E0882309F4C4C2809199
:104B20004B06882309F4BFC28DED95E00E94FA0D73
:104B300080914C06882309F4B9C280914B068823E2
:104B400009F4B4C262E87BE08DED95E00E941209A1
:104B500080916F0190917001B2010E94962EBC016C
:104B600080914C064AE050E0882309F4A4C2809169
:104B70004B06882309F49FC28DED95E00E94FA0D43
:104B800080914C06882309F499C280914B068823B2
:104B900009F494C260E77BE08DED95E00E94120974
:104BA00080915E0390914C06992309F48CC29091F8
:104BB0004B06992309F487C264E072E0811102C0B8
:104BC00066E072E08DED95E00E941D1280914C062A
:104BD000882309F481C280914B06882309F47CC2A2
:104BE00062E57BE08DED95E00E94120960915C0327
:104BF00070915D0380914C0640E150E0882309F4F8
:104C000070C280914B06882309F46BC28DED95E04C
:104C10000E946D0E20914C06222309F465C28091FA
:104C20004B06882309F465C28DED95E0222309F433
:104C30005DC220914B06EDEDF5E0222309F456C24A
:104C40000190F081E02D0680F781E02D099580919B
:104C50004C06882309F450C280914B06882309F43E
:104C60004BC26AE27BE08DED95E00E94120941E0C3
:104C700050E061E771E08CE090E00E94BA0FBC0167
:104C8000909356038093550380914C06882309F432
:104C900038C280914B06882309F433C28DED95E02C
:104CA0000E94EE0D80914C066AEE72E0882309F4B2
:104CB0002BC280914B06882309F426C28DED95E026
:104CC0000E941D1280915E03882359F142E050E05A
:104CD0006FE671E08DE090E00E94BA0FBC01909306
:104CE00056038093550380914C06882309F40FC224
:104CF00080914B06882309F40AC28DED95E00E944D
:104D0000EE0D80914C066AEE72E0882309F402C22F
:104D100080914B06882309F4FDC18DED95E00E943A
:104D20001D1242E050E06CE573E087E090E00E94E5
:104D3000BA0FBC01909356038093550380914C06A3
:104D4000882309F4EAC180914B06882309F4E5C160
:104D50008DED95E00E94510E61E088E00E945108BF
:104D6000109287031092860380915C0390915D03FB
:104D700090935B0380935A03809171018093590350
:104D800080916F0190917001909358038093570325
:104D9000809155039091560397FDC2C181E090E048
:104DA000909354038093530380916E01882381F084
:104DB00080914C06882309F4BBC180914B0688235F
:104DC00009F4B6C165E07BE08DED95E00E94120923
:104DD00080916E01882391F060916C0170916D015A
:104DE00080914C06882309F4A8C180914B06882342
:104DF00009F4A3C18DED95E00E94510E8091AA03A4
:104E00008823E1F080914C066AEA73E0882309F474
:104E100097C180914B06882309F492C18DED95E0EE
:104E20000E94910E80914C06882331F06AEA73E06B
:104E300080E495E00E941D121092AA038091AB04B9
:104E4000882371F18091AA041F928F938CEE92E0D7
:104E50009F938F937F926F920E9431311092AB0497
:104E60001092AA040F900F900F900F900F900F9038
:104E700080914C06B301882309F465C180914B06EB
:104E8000882309F460C18DED95E00E941D12809188
:104E90004C06882329F0B30180E495E00E941D129E
:104EA00080914C06882309F451C10E94D10780915A
:104EB0005303909154038130910509F44CC108F4D7
:104EC00064C1029709F454C181E496E00E94950AF6
:104ED00080914A0681111092490610924A06882351
:104EE00059F1109240062FB7F89480911E059091C9
:104EF0001F05A0912005B09121052FBF8093370693
:104F000090933806A0933906B0933A0627962EADB3
:104F10003FAD2797C901B0E0A0E080933B06909396
:104F20003C06A0933D06B0933E0681E080933F0689
:104F300060E08DE00E94510887E396E00E94950AA8
:104F400080914006811110923F06109240068823FE
:104F500059F110924A062FB7F89480911E0590914E
:104F60001F05A0912005B09121052FBF8093410618
:104F700090934206A0934306B09344062996EEAD63
:104F8000FFAD2997CF01B0E0A0E080934506909354
:104F90004606A0934706B093480681E080934906F1
:104FA00061E08DE00E94510880915506909156066F
:104FB000009709F4F7C09301281B390BC901209110
:104FC0006A0130916B018217930734F590936B015E
:104FD00080936A0180914C06882309F4E5C0809192
:104FE0004B06882309F4E0C067EE7AE08DED95E08A
:104FF0000E94120960916A0170916B0180914C06C8
:10500000882309F4D6C080914B06882309F4D1C0C7
:105010008DED95E00E94510E80916D0390915203A9
:10502000891721F18093520380914C06882309F45B
:10503000C3C080914B06882309F4BEC062EB7AE0BE
:105040008DED95E00E9412096091520380914C060B
:105050004AE050E0882309F4B4C080914B068823CD
:1050600009F4AFC08DED95E00E947F0E80E090E0E6
:10507000892B11F40C94CD1E0E94A009882311F4F1
:105080000C94CA1E0E9400000C94CA1E6CE87BE0BF
:1050900080E495E012CD80E495E021CD64E87BE0EA
:1050A00080E495E02CCD80E495E040CD60E87BE0A5
:1050B00080E495E04BCD80E495E060CD60E67BE058
:1050C00080E495E06BCD64E072E0811102C066E09F
:1050D00072E080E495E078CD64E47BE080E495E0E4
:1050E00083CD80E495E094CD80E495E0E0E4F5E0C4
:1050F000A7CD80E495E09ACD60E17BE080E495E087
:10510000B4CD80E495E0CCCD80E495E0D9CD80E4C9
:1051100095E0F5CD80E495E002CE80E495E01ACEEE
:1051200082E090E03DCE10925403109253033CCEA7
:105130006AEF7AE080E495E049CE80E495E05CCEC9
:1051400080E495E06DCE80E495E09FCE80E495E02C
:105150000E94170AACCE24E630E027963FAF2EAF70
:10516000279784E893E029969FAF8EAF2997ACCE1E
:10517000E4E8F3E02796FFAFEEAF279724E630E0B0
:1051800029963FAF2EAF29979FCE84EF91E02796C7
:105190009FAF8EAF2797E4EFF1E02996FFAFEEAF18
:1051A000299792CEC1010BCF64ED7AE080E495E0BF
:1051B0001FCF80E495E02ECF60E97AE080E495E0AF
:1051C00041CF80E495E050CF0F931F93CF93DF93AF
:1051D0008230910510F482E090E0E0915706F09162
:1051E000580630E020E0B0E0A0E0309799F42115B7
:1051F000310509F44AC0281B390B24303105D8F594
:105200008A819B816115710589F1FB0193838283FA
:10521000FE0111C040815181028113814817590755
:10522000E0F04817590799F4109761F012960C9323
:10523000129713961C933296CF01DF91CF911F9155
:105240000F9108950093570610935806F4CF211537
:10525000310551F04217530738F0A901DB019A01DB
:10526000BD01DF01F801C1CFEF01F9CF90935806DE
:1052700080935706CDCFFE01E20FF31F81939193E8
:105280002250310939832883D7CF20915506309198
:105290005606232B41F420917D0130917E013093FD
:1052A00056062093550620917B0130917C012115F3
:1052B000310541F42DB73EB740917F0150918001F7
:1052C000241B350BE0915506F0915606E217F307C3
:1052D000A0F42E1B3F0B2817390778F0AC014E5F66
:1052E0005F4F2417350748F04E0F5F1F5093560647
:1052F00040935506819391939FCFF0E0E0E09CCFDF
:10530000CF93DF930097E9F0FC013297138212826A
:10531000A0915706B0915806ED0130E020E01097BB
:10532000A1F420813181820F931F20915506309185
:1053300056062817390709F061C0F0935606E09326
:105340005506DF91CF910895EA01CE17DF07E8F502
:105350004A815B819E0141155105B1F7E901FB834B
:10536000EA8349915991C40FD51FEC17FD0761F4E9
:10537000808191810296840F951FE901998388832A
:10538000828193819B838A83F0E0E0E012968D9185
:105390009C9113970097B9F52D913C911197CD01F0
:1053A0000296820F931F20915506309156062817BA
:1053B000390739F6309751F5109258061092570672
:1053C000B0935606A0935506BCCFD383C2834081C9
:1053D0005181840F951FC817D90761F44E5F5F4F45
:1053E00088819981480F591F518340838A819B810D
:1053F000938382832115310509F0B0CFF0935806CD
:10540000E09357069ECFFD01DC01C0CF13821282CC
:10541000D7CFCF93DF93DC012D91FB013191EC01CC
:105420003883EB01288341505109CD01BF01141687
:1054300015068CF3DF91CF910895B0E0A0E0E3E290
:10544000FAE20C94002F6C01D62FC72F8A01790144
:10545000F9010995B80197FF15C08D2F9C2FF70111
:10546000099597FD08C0B801C601F701099597FD98
:1054700016C0DC2DCD2D8D2F9C2FCDB7DEB7E8E0EB
:105480000C941C2F8D2F9C2FF701099518161906C7
:1054900094F3B801C601F701099597FDEACFD02F23
:1054A000C12FE9CFA8E0B0E0E8E5FAE20C94F62ECF
:1054B0008C0158874F8359019A0131952195310903
:1054C0003E832D836F807884600E711E6730710576
:1054D00078F58F819885689F6001699FD00C789FCF
:1054E000D00C1124C00ED11E6C147D0420F028961F
:1054F000E2E10C94122F730113C047012F8138850C
:10550000821A930AB701C401F50109951816190604
:1055100054F44F815885B401C7010E94092A7401CF
:105520000E151F0550F3EF81F8856E0E7F1EDCCF40
:10553000CB01969587952F813885829F6001839F47
:10554000D00C929FD00C1124C00ED11ECB0101971C
:10555000829F1001839F300C929F300C11247801A0
:10556000E20CF31C6730710509F442C0C701280141
:1055700069327105B0F183E0769567958A95E1F718
:10558000629F4001639F900C729F900C1124C40194
:10559000880F991F9A838983AC01400F511FB8016E
:1055A000680D791D9501C8010E941D2A2C01A601D4
:1055B000480D591D9194819491089501B601C60139
:1055C000880D991D0E941D2A6C01B701680D791D77
:1055D0009501A701C701E981FA818E1B9F0B0E94EB
:1055E0001D2A9501AC01B601C2010E941D2A6C0161
:1055F0004F815885B601C8010E94092A4301630101
:1056000027011A821982EC14FD0408F446C0B8017F
:10561000C601F50109951816190654F1892B71F484
:105620004F815885B601C3010E94092A2F81388510
:10563000620E731E81E090E09A838983EF81F88582
:10564000CE0EDF1EE0CF892B71F44F815885B20159
:10565000C7010E94092A2D813E81420E531E81E01E
:1056600090E09A838983EB80FC80EC14FD04A8F021
:10567000B801C701F50109952D813E812E0D3F1D11
:105680003C832B8397FFDFCF4F815885B701C6013D
:105690000E94092AEB80FC80CDCFEF81F8852E0E89
:1056A0003F1E200E311E29813A81232B09F58214D9
:1056B000930408F01CCF740113C06701EF81F885D3
:1056C000CE1ADF0AB701C601F501099518161906A9
:1056D00054F44F815885B601C7010E94092A76010A
:1056E0000E151F0550F38F819885880E991EDFCF08
:1056F000460186189708A301401B510B8416950696
:105700000CF4A4011416150634F4B601641B750BD1
:10571000C8010E94092A92012E193F097901A101AD
:10572000441955098F819885481B590B2417350753
:1057300008F4A9011416150634F4B101641B750BA5
:10574000C6010E94092AEF81F885E815F90548F499
:10575000C401BF010E94962E9501AF01C8010E94AD
:10576000522A2F8138852E153F0508F0C0CE8101C1
:105770000E191F09C701B9010E94962EA3CEB0E0F1
:10578000A0E0E5ECFBE20C94F72E5C016B017A01E2
:105790006115710519F0FB0191838083E114F10417
:1057A00051F0C7010297839730F040E030E020E0ED
:1057B00090E072C05E01E5012196F5011081812F14
:1057C00090E00E94F42C892BA9F71D3201F5219657
:1057D000F501118101E0E114F10409F4DAC0F0E10E
:1057E000EF16F10409F082C0103359F488818F7DDF
:1057F000883509F076C0198122960260F0E1EF2E1B
:10580000F12C812C912CA12C88E0B82E8CC01B325D
:1058100021F4E5012296F501118100E0DCCFEAE0F8
:10582000EE16F10409F4BBC0F0E1EF16F10409F043
:105830006DC0E7CF78E0E72EF12C812C912CA12CC4
:1058400060E1B62E70C03FE9310F3A3128F439EAF1
:10585000332E80C021E09AC0302F3170C114D104A2
:1058600031F0222309F12197F601D183C08327FF6C
:1058700021C060E070E080E090E8311104C06FEF7B
:105880007FEF8FEF9FE722E230E030935A062093BC
:105890005906462F372F282F642F732F822FCDB70D
:1058A000DEB7E1E10C94132F01FF04C02297F6014B
:1058B000D183C083332341F0909580957095619595
:1058C0007F4F8F4F9F4FE5CF97FFE3CF82E290E06E
:1058D00090935A06809359066FEF7FEF8FEF9FE703
:1058E000D8CF10E3E114F10409F4A4CF28E0E216C4
:1058F000F10409F4A2CF0CF092CF812C912CA12CB1
:10590000E0E4BE2E82E0E816F10469F060E070E0A9
:1059100080E090E897010F2C000C440B550B0E947F
:10592000AA2E49015A0120E060E070E0CB01270176
:105930000F2C000C66087708FE0150ED352E310E55
:1059400039E0331540F43FEB310F3A3108F07BCFAB
:1059500049EC342E310E3E141F040CF07DCF27FD90
:1059600015C086169706A806B90678F0A30192011D
:105970000E94862E630D711D811D911D6130710580
:10598000810520E8920708F465CF2FEF219610815A
:10599000D3CF103309F42ACF2AE0E22EF12C9CEC6D
:1059A000892E982CA82C9CE0B92EBDCFFC0188270D
:1059B0009927E89421912032E9F3293010F02E3014
:1059C000C8F32B3241F02D3239F4689404C00E94A0
:1059D000112D820F911D219120532A30C0F31EF406
:1059E000909581959F4F089591110C943E2D803292
:1059F00019F089508550C8F70895FC0105900020E2
:105A0000E9F7809590958E0F9F1F0895BB274A3028
:105A100031F4992322F4BDE2909581959F4F0C9427
:105A2000252D7AE0979F902D879F802D910D112431
:105A300008954532510520F4423010F00C94242D85
:105A4000FB011082CB010895BB27FB015527AA2734
:105A5000880F991FAA1FA41710F0A41B83955051FB
:105A6000B9F7A05DAA3308F0A95DA193009779F773
:105A7000B111B1931192CB010C94412D9927882734
:105A80000895DC01FC01672F71917723E1F73297CC
:105A900004C07C916D9370836291AE17BF07C8F309
:105AA0000895E89409C097FB3EF490958095709511
:105AB00061957F4F8F4F9F4F9923A9F0F92F96E95A
:105AC000BB279395F695879577956795B795F111CF
:105AD000F8CFFAF4BB0F11F460FF1BC06F5F7F4F6C
