:100000000C9482080C94AA080C94AA080C94AA08D0
:100010000C94AA080C94AA080C94AA080C94AA0898
:100020000C94AA080C94AA080C947B1E0C940A1F2A
:100030000C94561D0C94AA080C94AA080C94AA08B7
:100040000C94AA080C94AA080C94AA080C94AA0868
:100050000C94AA080C94AA080C94AA080C94B41C3A
:100060000C94AA080C94241D0C94FE1C0C94AA0851
:100070000C94AA080C94AA080C94AA080C94AA0838
:100080000C94AA080C94AA080C94AA080C94AA0828
:100090000C94601D0C94AA080C94AA080C94AA084D
:1000A0000C94AA080C94AA080C94AA082C20537447
:1000B00061747573203D203078002C2042617456A5
:1000C0003A20002C204261745620496E7465726E8D
:1000D000616C3A20003A00252C20004261747420A3
:1000E00052656D61696E696E67203D2000526573CF
:1000F000746F72656420666163746F7279206465E1
:100100006661756C74732E00526573746F726564EA
:1001100020666163746F72792064656661756C74C2
:10012000732E000403090441726475696E6F204CDC
:100130004C430041726475696E6F204C656F6E614F
:1001400072646F005553424344434E656564656471
:100150003A20005553424344434E65656465643A12
:1001600020004D79436F6F6C5550530050624163CE
:1001700000555053313000454550524F4D206E6F61
:100180007420696E697427642E205573696E672028
:10019000436F6D70696C65642044656661756C744D
:1001A000732E00476F6F643A20454550524F4D20E3
:1001B000697320696E697469616C697A65642E007F
:1001C0000D0A24242D454E4420454550524F4D0DD7
:1001D0000A0D0A00200030002000300030003000FE
:1001E0000D0A2420000D0A24242D454550524F4D60
:1001F00020434F4E54454E54533A00556E75736527
:1002000064204D656D3A2000417661696C61626CD5
:1002100065204D656D6F72793A20002C2053746112
:10022000747573203D20307800446973636861728F
:1002300067696E673A20003A00252C20002C204286
:100240006174742052656D61696E696E67203D202E
:10025000002C20636170616369747944656275671D
:100260003A20004261747465727920566F6C746133
:1002700067652A3130303A200044782020202D2034
:10028000446562756720666C6167732020202020BA
:100290002020202020202020203A203078005A538F
:1002A00046202D205361766520466163746F727914
:1002B0002064656661756C74732028466163746F91
:1002C000727920757365206F6E6C7929005A4344EA
:1002D000202D20526573746F726520636F6D706995
:1002E0006C656420666163746F7279206465666111
:1002F000756C7473005A2020202D20526573746F22
:10030000726520666163746F7279206465666175D9
:100310006C74730042596E6E2020202D2064656C31
:1003200074612063656E74692D566F6C74732062FE
:1003300065666F7265207265706F72696E672020E6
:100340002020203A200029002020202020202020CA
:10035000202020202020202020202020202020209D
:10036000202020206952656D6E436170616369745D
:10037000794C696D6974203A2000290020202020E2
:1003800020202020202848696768205620413244D8
:100390002076616C75653A200020562A3130300095
:1003A00043486E6E6E6E202D2043616C69627261EF
:1003B0007465206869676820766F6C746167652072
:1003C000706F696E742028562A3130302920203A07
:1003D00020002900202020202020202020284C6FD1
:1003E000772056204132442076616C75653A2000B2
:1003F00020562A31303000434C6E6E6E6E202D2018
:1004000043616C696272617465206C6F7720766FEE
:100410006C7461676520706F696E742028562A318C
:100420003030292020203A200054446E6E6E6E2019
:100430002D204176652E2054696D6520666F7220EF
:1004400066756C6C20446973636861726765202807
:100450006D696E75746573293A200054536E6E6E23
:100460006E202D205368757420646F776E20617440
:100470002074686973206D616E79206D696E757482
:100480006573206C6566742020203A200042446E1B
:100490006E6E6E202D205368757420446F776E2029
:1004A0006174206261747465727920766F6C746116
:1004B000676520202028562A313030293A20004212
:1004C000466E6E6E6E202D204261747465727920C6
:1004D00046756C6C2043686172676520766F6C743A
:1004E0006167652020202028562A313030293A20A3
:1004F0000042566E202020202D2042617420537926
:100500007374656D20566F6C747320313D313256B3
:1005100020323D32345620343D34385620202020BD
:100520003A200020202020202020202020202020D1
:10053000303D5062416320313D4C692D496F6E2042
:10054000323D4C465020333D41474D202020202055
:1005500020203A200042436E202020202D2042619E
:100560007474657279204368656D6973747279007B
:10057000454E526E2020202D205768696C652069F9
:100580006E204E6F726D616C2072756E206D6F649F
:100590006520202020202020202020202020203AFC
:1005A0002000454E436E2020202D205768696C6541
:1005B00020696E20436F6E666967206D6F646520E9
:1005C000202020202020202020202020202020202B
:1005D000203A200020202028303D4E6F205043201C
:1005E0007265706F7274696E672F73687574646F6B
:1005F000776E2E20313D456E61626C656429004541
:100600006E61626C65207265706F7274696E672FBF
:1006100053687574646F776E20746F20746F2074E4
:100620006865205043200050726573656E742053D6
:10063000657474696E67733A00436F6D70696C65B9
:10064000642061743A2000536D61727420555053D8
:1006500020456D756C61746F722076302E310023E9
:1006600020202D2057446F67205265736574005A0F
:1006700055202D20526573746F7265205573657215
:1006800020436F6E666967005A20202D20526573E3
:10069000746F726520466163746F72792044656679
:1006A00061756C7473004843202D2053686F772068
:1006B000436170616369747920636F6E6669677303
:1006C000004850202D2053686F772048494420501F
:1006D0006172616D6574657273000A2D2D2D2D4D4B
:1006E000656E752D2D2D2D00203D204361706163B9
:1006F0006974793A2000566F6C74733A200043682D
:10070000617267652043757276653A00203D20432B
:10071000617061636974793A2000566F6C74733A42
:1007200020004C6F77446973636820437572766567
:100730003A00203D2043617061636974793A20007A
:10074000566F6C74733A200048694469736368207B
:1007500043617061636974792043757276652070B6
:100760006F696E74733A00697344697343686172A8
:1007700067696E67563A20006973436861726769FA
:100780006E67566F6C743A200073687574646F7787
:100790006E566F6C7461673A20007761726E696E95
:1007A00067566F6C746167653A20000A0D206261BC
:1007B0007446756C6C566F6C746167653A000A0D0F
:1007C00042617420547970653A20004368656D6910
:1007D0007374727920436F6E666967733A0069506B
:1007E000726573656E745374617475732020203A5A
:1007F00020307800626174566F6C746167652020E8
:1008000020202020203A200052454D4E43415041A7
:10081000434954594C494D49543A200052454D41A1
:10082000494E494E4743415041434954593A2000AB
:1008300052554E54494D45544F454D505459202022
:10084000203A20004820666F722048656C700A00CC
:100850005D2E000A556E6B6E6F776E20636F6D6D47
:10086000616E64205B004849445F494E54455246DE
:100870004143453A20004344435F41434D5F494E65
:10088000544552464143453A200042616420636F1B
:100890006D6D616E642E2053686F756C64206265A7
:1008A000204E4C206F72204E4800446562756720D0
:1008B000466C6167732028313A4D61696E29000AE0
:1008C000526573746F72656420466163746F7279E8
:1008D0002044656661756C74732E2E2E0D0A204DB2
:1008E00075737420646F2027532720746F20736101
:1008F000766520746F20454550524F4D20286E6F0D
:100900006E2D766F6C6174696C65206D656D6F72AC
:1009100079292E00446F6E65000A464620746F20C8
:10092000616C6C20454550524F4D2E2E2E000A52C0
:100930006573746F726564205573657220436F6EC2
:100940006669670A000A5361766564206E657720E0
:1009500076616C756528732920746F204661637415
:100960006F72792044656661756C740A000A52657D
:1009700073746F72656420436F6D70696C65642079
:10098000466163746F72792044656661756C747337
:1009900021000A5361766564206E65772076616C6C
:1009A000756528732920746F20454550524F4D2E90
:1009B0000A004552524F523A204261642042202898
:1009C000426174746572792920636F6D6D616E6424
:1009D0003A2000562A313030206F662068696768F7
:1009E000657220766F6C7461676500562A3130300D
:1009F000206F66206C6F7720766F6C74616765007E
:100A00004552524F523A204261642054696D65202C
:100A1000636F6D6D616E643A20004D696E7574652B
:100A20007320746F2066756C6C79206469736368D9
:100A3000617267652066726F6D2066756C6C00531D
:100A4000687574646F776E206174204D696E75747B
:100A50006573204C656674004552524F523A2042ED
:100A60006164204220284261747465727929206390
:100A70006F6D6D616E643A200042617420562048AB
:100A8000797374657265736973206265666F7265E8
:100A9000207265706F7274696E6700313D31325635
:100AA00020323D32345620343D3438560042617491
:100AB000204368656D69737472793A20303D5062E5
:100AC000416320313D4C692D496F6E20323D4C46CB
:100AD0005020333D41474D0053687574646F776E05
:100AE00020617420426174746572792056004261FD
:100AF00074746572792046756C6C20436861726706
:100B0000652056004552524F523A204261642045BA
:100B10004E61626C6520636F6D6D616E6420636F02
:100B20006D6D616E643A2000436F6E666967204D9B
:100B30006F64653A20456E61626C652050432052B7
:100B400065706F7274696E672F53687574646F7720
:100B50006E0052756E20284E6F726D616C29204DAB
:100B60006F64653A20456E61626C65205043205287
:100B700065706F7274696E672F53687574646F77F0
:100B80006E000A436D643A20000A436D643A200007
:100B90005D005D005B005B006952656D6E436170D6
:100BA00061636974794C696D6974204348414E47AB
:100BB00045442C206E6F773A20006952656D6E4374
:100BC000617061636974794C696D6974204348414F
:100BD0004E4745442C206E6F773A2000417661697C
:100BE0006C61626C65204D656D6F72793A200041D1
:100BF0007661696C61626C65204D656D6F72793AE2
:100C00002000202849676E6F726564290023232025
:100C100050432053657474696E672052454D4E43AE
:100C2000415041434954594C494D495420746F2017
:100C3000307800202849676E6F726564290020288B
:100C400049676E6F72656429002323205043205347
:100C5000657474696E672052454D4E43415041435F
:100C60004954594C494D495420746F203078002321
:100C7000232050432053657474696E672052454D9C
:100C80004E43415041434954594C494D49542074B5
:100C90006F20307800426174562A3130303A20009B
:100CA000426174562A3130303A2000436F6D6D73C3
:100CB000207769746820504320286E65673D626123
:100CC00064293A2000436F6D6D7320776974682042
:100CD000504320286E65673D626164293A200053C5
:100CE000656E64696E673A200053656E64696E676D
:100CF0003A2000232053656E7365643A2000232058
:100D000053656E7365643A20002C20002C2000206F
:100D10004869563A2000204869563A20004C6F77BF
:100D2000563A20004C6F77563A20002C20002C2099
:100D300000437276557365643A20004372765573AA
:100D400065643A200000000000240027002A002DDE
:100D500000300000000000250028002B002E00318C
:100D600000000000002300260029002C002F0004B2
:100D70000404040403040502020202040302020242
:100D8000020606060606060404020202040404081B
:100D90000201104080401020408040800802040181
:100DA00080402010020110801020404020000000F0
:100DB0000200090F0000030401000C000000000005
:100DC000000000000000000000000000736875745F
:100DD000646F776E20696D6D696E656E74007368FF
:100DE0007574646F776E20696D6D696E656E7400E1
:100DF00073687574646F776E20726571756573744E
:100E000065640073687574646F776E2072657175C0
:100E10006573746564002C20426174563D002C207B
:100E2000426174563D0053687574646F776E206E2E
:100E30006F77212052747465207365636F6E6473DD
:100E40003D0053687574646F776E206E6F77212054
:100E500052747465207365636F6E64733D0007069A
:100E600005040100080A0B0C0D09446F6E2774205D
:100E7000666F7267657420746F20285329617665E8
:100E800020746865206E65772076616C7565210039
:100E90002073657420746F3A20004E657720004FF0
:100EA0006C642076616C7565207761733A20002050
:100EB00076616C756521204D617820697320312041
:100EC00028666F72206120626F6F6C292E0A0045C0
:100ED00072726F723A20496E76616C6964200044C8
:100EE0006F6E277420666F7267657420746F202898
:100EF000532961766520746865206E657720766178
:100F00006C756521003078002073657420746F3A29
:100F100020004E657720003078004F6C64207661A9
:100F20006C7565207761733A20002E0A00222076C6
:100F3000616C756521204D696E20697320004572D2
:100F4000726F723A20496E76616C69642022002EBD
:100F50000A002076616C756521204D6178206973E7
:100F600020004572726F723A20496E76616C696436
:100F7000200005840904A1010924A1027508950136
:100F8000150026FF00850109FE7902B123850209BB
:100F9000FF7903B123850309FD7901B12305858517
:100FA00006098BB123851F09897904B1238520099E
:100FB0008F7905B1238516092CB1238510098D265B
:100FC0006400B1228518098EB123850E0967B183AB
:100FD00085170983B183850C096681A30966B1A3CE
:100FE000850F098CB1A285110929B1A2850909854E
:100FF000751027FFFF0000B1A3851A096A27FFFFBC
:1010000000006601105500B1A3851C096981A30980
:1010100069B1A3850D096881A30968B1A385080991
:101020002A751027640500001678008122092AB16C
:10103000A205848512095716008027FF7F0000B1A2
:10104000A285130955B1A2850A0940150027FFFFA3
:1010500000006721D1F0005505B123850B093081CF
:10106000A30930B1A38514095A7508150125036534
:101070000055008122095AB1A20902A10285070583
:1010800085094475011500250181A30944B1A3090F
:101090004581A30945B1A309D081A309D0B1A30912
:1010A000D181A309D1B1A3094281A30942B1A30906
:1010B0004381A20943B1A2094B81A3094BB1A30902
:1010C000DB81A309DBB1A3094681A30946B1A309CA
:1010D0004781A30947B1A30584096881A20968B1C2
:1010E000A2096981A30969B1A3097381A30973B135
:1010F000A3096581A30965B1A395028101B101C06E
:10110000C0C0832111241FBECFEFDAE0DEBFCDBF08
:1011100013E0A0E0B1E0E6E6FBE602C005900D9228
:10112000A633B107D9F726E0A6E3B3E001C01D92CC
:10113000A23BB207E1F718E0C2E8D8E004C021976B
:10114000FE010E94D634C138D107C9F70E946D2232
:101150000C94B1350C940000E3E6FEE0E49190912C
:101160007B008E2F880F880F80729F7D892B809344
:101170007B00E770E064E0937C0080917A008064FB
:1011800080937A0080917A0086FDFCCF8091780070
:10119000909179000895FC0180911704882311F142
:1011A0003FB7F89482E08093E9002091F200822F0B
:1011B00090E01816190614F481E090E0882339F0C5
:1011C000289844E6409316044091F100408322237E
:1011D00039F02091F200211103C02BE62093E800A2
:1011E0003FBF08958FEF9FEF089583E08093E9005C
:1011F0008091F200882319F08AE38093E800089533
:1012000081508F3008F047C0E82FF0E0E65FF64FDE
:101210000C94D63427092B0919091F0923094B09F6
:101220004B094B092E09340938093C0942094B097D
:101230004609809180008F77809380000895809187
:1012400080008F7DF9CF80918000877FF5CF84B5B6
:101250008F7784BD089584B58F7DFBCF80919000FA
:101260008F77809390000895809190008F7DF9CFC3
:1012700080919000877FF5CF8091C0008F77809319
:10128000C00008958091C0008F7DF9CF8091C20089
:10129000877F8093C2000895CF93DF93EFEAFDE04C
:1012A0008491E0E9FDE0D491E1E7FDE0C491CC2335
:1012B000A1F081110E940009EC2FF0E0EE0FFF1F5A
:1012C000EF59F24FA591B491EC91ED2381E090E0BC
:1012D00009F480E0DF91CF91089580E090E0FACFAB
:1012E0001F93CF93DF93282F30E0F901E355F24F9E
:1012F0008491F901E257F24FD491F901E159F24F8B
:10130000C491CC23A9F0162F81110E940009EC2F63
:10131000F0E0EE0FFF1FED5AF24FA591B4918FB799
:10132000F894EC91111108C0D095DE23DC938FBFA7
:10133000DF91CF911F910895DE2BF8CFCF93DF93EC
:1013400090E0FC01E257F24F24918159924FFC0149
:1013500084918823C9F090E0880F991FFC01EB5B12
:10136000F24FA591B491FC01ED5AF24FC591D49181
:1013700061110DC09FB7F8948C91209582238C93B6
:101380008881282328839FBFDF91CF910895623001
:1013900051F49FB7F8943C91822F809583238C93CE
:1013A000E8812E2BEFCF8FB7F894EC912E2B2C9356
:1013B0008FBFEACF3FB7F894809112049091130445
:1013C000A0911404B091150426B5A89B05C02F3F29
:1013D00019F00196A11DB11D3FBFBA2FA92F982F5B
:1013E0008827BC01CD01620F711D811D911D42E056
:1013F000660F771F881F991F4A95D1F708958F921E
:101400009F92AF92BF92CF92DF92EF92FF924B01E9
:101410005C010E94DA096B017C010E94DA096C19F7
:101420007D098E099F09683E734081059105A8F3E7
:1014300021E0821A9108A108B10888EEC80E83E065
:10144000D81EE11CF11C81149104A104B10429F7F8
:10145000FF90EF90DF90CF90BF90AF909F908F90D4
:1014600008952FB7F89460910E0470910F04809145
:101470001004909111042FBF08954F925F926F92C4
:101480007F928F929F92AF92BF92CF92DF92EF9214
:10149000FF922091A3062223D1F18091A2068823F6
:1014A000D9F184E396E02223A1F12091A206E4E39E
:1014B000F6E0222371F10190F081E02D0680F781A2
:1014C000E02D09950E94310A2B013C01C12CD12C41
:1014D0007601812C912C54010E94310A64197509FE
:1014E000860997096536710581059105C0F00E944E
:1014F000AC08092E000CAA0BBB0B880E991EAA1E65
:10150000BB1E8FEFC81AD80AE80AF80AE5CF87E9A8
:1015100095E0E7E9F5E0CFCF87E995E0C4CFC114C6
:10152000D104E104F10471F4FF90EF90DF90CF90CB
:10153000BF90AF909F908F907F906F905F904F90F3
:101540000C94AC08C501B401A70196010E94443473
:10155000C901FF90EF90DF90CF90BF90AF909F9028
:101560008F907F906F905F904F900895EF92FF92D1
:101570000F931F93CF93DF938C017B01D0E0C0E0EA
:10158000F701EC0FFD1F6491662361F0D801ED9126
:10159000FC910190F081E02DC8010995892B11F093
:1015A0002196EECFCE01DF91CF911F910F91FF9049
:1015B000EF900895AF92BF92CF92DF92EF92FF9299
:1015C0000F931F93CF93DF936C017B018B01040F6B
:1015D000151FEB015E01AE18BF08C017D10759F007
:1015E0006991D601ED91FC910190F081E02DC60149
:1015F0000995892B79F7C501DF91CF911F910F9143
:10160000FF90EF90DF90CF90BF90AF900895FC01D6
:10161000538D448D252F30E0842F90E0821B930B57
:10162000541710F0CF96089501970895FC01918DFD
:10163000828D981761F0A28DAE0FBF2FB11D5D9600
:101640008C91928D9F5F9F73928F90E008958FEFA2
:101650009FEF0895FC01918D828D981731F0828D56
:10166000E80FF11D858D90E008958FEF9FEF0895AD
:10167000FC01918D228D892F90E0805C9F4F821B11
:1016800091098F739927089587E995E00E94380B97
:1016900021E0892B09F420E0822F0895FC01A48D1C
:1016A000A80FB92FB11DA35ABF4F2C91848D90E084
:1016B00001968F739927848FA689B7892C93A08967
:1016C000B1898C9182748C93938D848D981306C00C
:1016D0000288F389E02D80818F7D80830895EF92C9
:1016E000FF920F931F93CF93DF93EC0181E0888FDC
:1016F0009B8D8C8D981319C0E889F989808185FFAD
:1017000014C09FB7F894EE89FF896083E889F9894E
:101710008081827480839FBF81E090E0DF91CF91D0
:101720001F910F91FF90EF900895F62E0B8D10E012
:101730000F5F1F4F0F731127E02E8C8D8E110CC081
:101740000FB607FCFACFE889F989808185FFF5CFCC
:10175000CE010E944E0BF1CFEB8DEC0FFD2FF11D52
:10176000E35AFF4FF0829FB7F8940B8FEA89FB8909
:1017700080818062CFCFCF93DF93EC01888D882367
:10178000B9F0AA89BB89E889F9898C9185FD03C0E4
:10179000808186FD0DC00FB607FCF7CF8C9185FFC9
:1017A000F2CF808185FFEDCFCE010E944E0BE9CFB5
:1017B000DF91CF91089580E090E0892B29F00E947D
:1017C000440B81110C94000008952091C303260F4F
:1017D0003327331F21323105ECF42091E703FC015C
:1017E00090E080E0243069F082E00895A091C30386
:1017F0002191AC014D555C4FA40FB52FB11D2C9319
:101800000196861798F38091C303680F6093C30312
:1018100080E0089581E0089508958FEF9FEF089587
:101820008FEF9FEF089580919C0390E091958195B3
:1018300091090895CF93DF93CB01EA01642F0E94B1
:10184000E50BCE01DF91CF910895CF93DF931F92E7
:10185000CDB7DEB7698361E0CE0101960E94E50B4A
:1018600081E090E00F90DF91CF91089590E080E0CB
:1018700008950F931F93CF93DF93EC010E94310AD9
:10188000088119812A813B81601B710B820B930BAC
:101890000C811D812E813F81061717072807390704
:1018A00030F48885882319F0188681E08987DF91D4
:1018B000CF911F910F910895DC015296ED91FC910B
:1018C00030E020E03097A1F0DC0154964D915C911E
:1018D0002417350758F4428153814617570741F0C2
:1018E0000190F081E02D2F5F3F4FECCFF0E0E0E082
:1018F000CF0108950C94F50840914403509145039D
:10190000209142033091430342175307B4F490915E
:10191000E8009570E1F39091E80092FD19C0809382
:10192000F100809144039091450301968F739927AC
:10193000892B19F48EEF8093E800809144039091F5
:1019400045030196909345038093440381E00895F5
:1019500080E00895DF92EF92FF920F931F93CF9351
:10196000DF93D82E8A01EB017B01E40EF51ECE1524
:10197000DF0559F0D7FE12C0FE0184910E947C0C55
:1019800021968111F4CF0FEF1FEFC801DF91CF91A6
:101990001F910F91FF90EF90DF9008958881EECF17
:1019A000CF93DF93CDB7DEB7A0970FB6F894DEBF25
:1019B0000FBECDBFFC01DB018C918F5F8C939E012C
:1019C0002D5F3F4F88E0D9011D928A95E9F799E094
:1019D000998384E08A8322E02D8383E08E839A8733
:1019E00031E23B8791E09C879D873E879F8792E20B
:1019F000988B37E03B8B95E09C8B44E84D8B8E8B2E
:101A000040E450E0588F4F8B64E1698F3A8F9B8F91
:101A10009C8F8D8F5F8F4E8F8AE088A382818B830E
:101A200096858785998B8A8B8091A306811103C047
:101A300081E88D8B2C8F40E250E0BE016F5F7F4FBD
:101A400080E00E94AA0CA0960FB6F894DEBF0FBEED
:101A5000CDBFDF91CF9108952FB7F8948770809311
:101A6000E9009091E800892F807295FF04C0909161
:101A7000F20080E4891B2FBF08958F929F92AF924E
:101A8000BF92CF92DF92EF92FF920F931F93CF936B
:101A9000DF93B82E6B018A018091170481110FC06A
:101AA0008FEF9FEFDF91CF911F910F91FF90EF90FC
:101AB000DF90CF90BF90AF909F908F9008958091CE
:101AC000480380FF05C08091E00082608093E000C1
:101AD000C02FD12FF12C8AEFE82E8B2D8770982EF6
:101AE0008B2D8074882E9AE3A92E209719F4FF205D
:101AF00009F443C08B2D0E942C0D81110AC0EA9479
:101B0000EE2071F261E070E080E090E00E94FF0959
:101B1000ECCF8C171D0611F00CF08C2F9FB7F894AA
:101B20009092E9002091E80025FD02C09FBFDDCF23
:101B3000282F30E0C21BD30BF601815020F04191D9
:101B40004093F100FACFC20ED31EFF2021F0A092E5
:101B5000E800F12CEBCF8091E80085FD07C0A09252
:101B6000E800FF24F394209709F3F3CF2097F1F6D0
:101B70008820E1F2A092E800D9CF5D9884E68093B6
:101B80004703C8018FCF615030F02091F100FC0174
:101B900020830196F8CF289884E680931604089550
:101BA000AF92BF92DF92EF92FF920F931F93CF936A
:101BB000DF935C018B01EB019BEFD92E2097C1F0E5
:101BC0007E01C134D1051CF080E4E82EF12C809117
:101BD000E80082FFFCCFC8018C1B9D0B6E2D8A0D87
:101BE0009B1D0E94C30DD092E800CE19DF09E6CFFD
:101BF000C801DF91CF911F910F91FF90EF90DF907F
:101C0000BF90AF90089580913A0381110DC082E09A
:101C10008093360384E08093370310923903109247
:101C2000380381E080933A0386E393E00895CF93ED
:101C3000DF9380919203811172C082E080937C03D4
:101C400081E080937D0322E833E030937F0320938B
:101C50007E0310928103109280032FE132E03093D3
:101C600079032093780310928503109284031092D5
:101C7000870310928603809388038093890381EC05
:101C80008093820380EC809383030E94030EEC0117
:101C9000898190917C03890F9927991F0897E4F512
:101CA000EA81FB81309779F588E793E09B838A830B
:101CB00062E082E00E949E098091A306811137C0F4
:101CC0000E944C09892B81F110927A0310927B03B8
:101CD000888190917D03890F888330917C03909156
:101CE0007E03E92FF0917F038E2F891B8317A0F4C9
:101CF00089812191A82FB0E0A159BE4F2C938F5F0D
:101D00008983F2CFFC01808591850097D9F788E718
:101D100093E091878087CCCF81E08093920388E71E
:101D200093E0DF91CF91089581E08093A30682E054
:101D300080937A0384E080937B03CACFCF92DF92B3
:101D4000EF92FF920F931F93CF93DF9300D0CDB705
:101D5000DEB78C017B016A010E94170E1A8309838A
:101D600041E050E0BE016F5F7F4F84E00E943D0D77
:101D70008C0197FD09C0A601B70184E40E943D0DC6
:101D8000080F191F97FD8C01C8010F900F90DF916C
:101D9000CF911F910F91FF90EF90DF90CF9008951A
:101DA0000F931F93CF93DF931F92CDB7DEB71982A6
:101DB0008091A306882349F082E0898342E450E0C1
:101DC00060E071E080E00E94AA0C0E94030EDC013A
:101DD00012960D911C910115110589F0D801ED9114
:101DE000FC910280F381E02DBE016F5F7F4FC8013F
:101DF000099597FD04C0F80100851185ECCF898114
:101E00000F90DF91CF911F910F910895CF93DF93A2
:101E1000EC0180915F01882331F083E00E943D0D49
:101E20001816190634F081E090E09B838A8380E0E5
:101E300090E0DF91CF910895CF93DF931F92CDB7BC
:101E4000DEB76983DC01ED91FC910280F381E02D26
:101E500041E050E0BE016F5F7F4F09950F90DF9129
:101E6000CF91089583E00E942C0D90E00895CF93C8
:101E7000DF931F92CDB7DEB7FC018485958597FD72
:101E800008C02FEF3FEF358724870F90DF91CF9168
:101E90000895CE0101960E94CB08019719F489811B
:101EA00090E0F3CF8FEF9FEFF0CF0F931F93CF937F
:101EB000DF931F92CDB7DEB78C01FC018485958539
:101EC00097FF0BC0CE0101960E94CB08019771F4D9
:101ED000898190E0F80195878487F801848595854C
:101EE0000F90DF91CF911F910F9108958FEF9FEF8A
:101EF000F1CFFC018485958597FD0BC09FB7F894C1
:101F000082E08093E9008091F2009FBF90E001960B
:101F100008959FB7F89482E08093E9008091F200E1
:101F20009FBF90E008950F931F93CF93DF93CFE16E
:101F3000D4E08C010F511440C8018C0F9D1F0E94EA
:101F40000A34899385E0C837D807B1F78FE194E068
:101F5000DF91CF911F910F910895AF92BF92DF92C1
:101F6000EF92FF920F931F93CF93DF935C010FE1EA
:101F700014E0D0E0C0E0F801D1908F017501EC0EC3
:101F8000FD1EC7010E940A34D81621F06D2DC7012D
:101F90000E9412342196C935F1E0DF0761F78FE125
:101FA00094E0DF91CF911F910F91FF90EF90DF9020
:101FB000BF90AF900895FB0101900020E9F73197A1
:101FC000AF01461B570BDC01ED91FC910280F381C0
:101FD000E02D09948F929F92AF92BF92EF92FF9261
:101FE0000F931F93CF93DF93CDB7DEB7A1970FB6B3
:101FF000F894DEBF0FBECDBF7C01FA01CB0119A260
:10200000223008F42AE08E010F5D1F4F822E912CA2
:10201000B12CA12CBF01A50194010E944434F90107
:10202000CA016A300CF5605DD8016E938D01232BD7
:10203000242B252B79F790E080E0109721F0BD014B
:10204000C7010E94DB0FA1960FB6F894DEBF0FBE4A
:10205000CDBFDF91CF911F910F91FF90EF90BF9077
:10206000AF909F908F900895695CDECFCF92DF9202
:10207000EF92FF920F931F93CF93DF936B01770F34
:10208000EE08FF08F7FE1FC0EC01E881F98101901E
:10209000F081E02D6DE209958C0144275527BA01A6
:1020A0004C195D096E097F092AE0CE010E94EA0FF2
:1020B000800F911FDF91CF911F910F91FF90EF90B3
:1020C000DF90CF9008952AE0B701A601DF91CF916C
:1020D0001F910F91FF90EF90DF90CF900C94EA0F3B
:1020E0000C94EA0F9A01AB0170E060E00C94701060
:1020F0009A01462F50E070E060E00C9470108F92CF
:102100009F92AF92BF92CF92DF92EF92FF920F9386
:102110001F93CF93DF937C01EB016C0182E0C80E2B
:10212000D11C4701E5E08E0E911C10E000E0F601A5
:1021300061916F014AE050E0CE010E9478105C018D
:10214000E881F9810190F081E02D6EE2CE010995E0
:102150008A0D9B1D080F191FC814D90441F74AE0C6
:1021600050E0F7016581CE010E947810800F911F29
:10217000DF91CF911F910F91FF90EF90DF90CF9063
:10218000BF90AF909F908F90089561E572E00C949E
:10219000DB0F0F931F93CF93DF93EC010E94361058
:1021A0008C01CE010E94C510800F911FDF91CF914D
:1021B0001F910F9108950F931F93CF93DF93EC011D
:1021C0000E9472108C01CE010E94C510800F911FD9
:1021D000DF91CF911F910F9108950F931F93CF938C
:1021E000DF93EC010E9478108C01CE010E94C51093
:1021F000800F911FDF91CF911F910F9108950F9341
:102200001F93CF93DF93EC010E94DB0F8C01CE0173
:102210000E94C510800F911FDF91CF911F910F91E8
:1022200008950F931F93CF93DF93EC01FB0144813B
:10223000558160817181E881F9810280F381E02D0F
:1022400009958C01CE010E94C510800F911FDF916E
:10225000CF911F910F9108950F931F93CF93DF9309
:10226000EC010E94B60A8C01CE010E94C510800FBD
:10227000911FDF91CF911F910F9108952F923F925F
:102280004F925F926F927F928F929F92AF92BF9286
:10229000CF92DF92EF92FF920F931F93CF93DF9332
:1022A00000D01F92CDB7DEB70E943D0AC090320425
:1022B000D0903304F12CE12C8090300490903104C4
:1022C000B12CA12C209136043091370450E040E02D
:1022D0002C193D094E095F09BC01990F880B990B18
:1022E000681979098A099B090E94203420913404D5
:1022F0003091350450E040E0281939094A095B095A
:102300000E946634C20ED31EE41EF51ED7FCE3C144
:10231000D0928A01C09289012091890130918A016D
:102320003B832A8380918801882351F030931D04D8
:1023300020931C043093870120938601109288011A
:1023400020911C0430911D04C9014A815B81841BCA
:10235000950B97FF03C091958195910940912A04AF
:10236000481719069CF481E0EA81FB812E173F078C
:102370000CF080E080931B042A813B8130931D0484
:1023800020931C0430938701209386010091270439
:10239000109128042DE3209FC001219F900D11244E
:1023A000815E9B4FFC01E15BFF4F208131814A81BF
:1023B0005B81241735070CF093C181E080931B04E7
:1023C00020901B0420927E0120927D0181E08225D5
:1023D00089838093180460918601709187018DE351
:1023E000809FF001819FF00D1124E15EFB4F858DF0
:1023F000968D312C6817790748F081A192A132E0BF
:10240000332E6817790710F433243394A32DB0E0EA
:10241000FD013196AA0FBB1FAA0FBB1F2DE3209F02
:10242000C001219F900D1124A80FB91FA15EBB4FC1
:102430005B968D909C905C97B12CA12CEE0FFF1FAA
:10244000EE0FFF1FE80FF91FE15EFB4FE18CF28CEE
:102450005996CD90DC902601712C612C238D348D02
:1024600050E040E0281939094A095B0990E080E012
:1024700064197509860997090E942034970150E074
:1024800040E024193509460957090E946634820E36
:10249000931EA41EB51E90927C0180927B0197FC36
:1024A0002DC135E6831691041CF084E6882E912C0C
:1024B00030927A01F0927901E0927801D09277011E
:1024C000C092760180928501A0912304B0912404EA
:1024D000282D30E00E94C73424E630E040E050E090
:1024E0000E944434B9013093840120938301809188
:1024F000190490911A04222009F402C18560909376
:102500001A04809319048091190490911A0420915F
:1025100082012811F7C0916090931A0480931904E6
:102520008091190490911A044981442309F4FFC051
:102530009C01226030931A042093190420912504F1
:10254000309126046217730780F02DE3209FF0017D
:10255000219FF00D1124E459FB4F20813181EA8144
:10256000FB81E217F3070CF0DFC08091A3068823FC
:1025700009F4CAC08091A206882309F4C5C062E4A8
:102580007EE084E396E00E94B60A60918301709138
:1025900084018091A3064AE050E0882309F4B9C081
:1025A0008091A206882309F4B4C084E396E00E94D7
:1025B00072108091A306882309F4AEC08091A20610
:1025C000882309F4A9C06EE17EE084E396E00E94CE
:1025D000B60A6091890170918A018091A3068823CF
:1025E00009F49FC08091A206882309F49AC084E36D
:1025F00096E00E94C9108091190490911A0480629B
:1026000090931A04809319048091190490911A04EC
:102610002091800130918101121613060CF08EC0BA
:10262000946090931A048093190480917F01882309
:1026300081F08091A306882309F47BC08091A206D3
:10264000882309F476C063E07EE084E396E00E948C
:102650002C118091190490911A049C0120723470FD
:10266000232B09F476C0986090931A048093190480
:1026700080917F01882381F08091A306882309F44B
:1026800063C08091A206882309F45EC06EED7DE0F0
:1026900084E396E00E942C118091190490911A0411
:1026A000886090931A04809319040F900F900F90F4
:1026B000DF91CF911F910F91FF90EF90DF90CF901E
:1026C000BF90AF909F908F907F906F905F904F9052
:1026D0003F902F90089510928A01109289011CCE8C
:1026E0008F5A9F4FFC01808191812A813B8128175D
:1026F00039070CF065CE10921B0462CE812CD8CE27
:102700008A7FFDCE9E7F08CF66E27EE087E995E076
:102710003ACF87E995E04BCF66E17EE087E995E027
:1027200056CF87E995E065CF8F7D826069CF8D7D3B
:1027300067CF60EF7DE087E995E089CF9B7F90933D
:102740001A048093190485CF6CEC7DE087E995E04D
:10275000A1CF977F90931A04809319049DCF5F9225
:102760006F927F928F929F92AF92BF92CF92DF92A1
:10277000EF92FF920F931F93CF93DF931092750503
:102780008AEA80931F0485E58093200481E095EA1E
:102790009093770580937605C0E2DCE1D093220424
:1027A000C0932104D0932404C09323048CE291E0CD
:1027B000909326048093250483E090E0909328046E
:1027C00080932704552453945092290488E08093E1
:1027D0002A0488E095E0909369048093680462EE8F
:1027E00074E070936B0460936A0424E734E03093E0
:1027F0006D0420936C0490936F0480936E0422E91F
:1028000034E03093710420937004D0937304C09328
:102810007204109274044AE854E0509339044093CF
:10282000380410923B0410923A0430933D042093F4
:102830003C044AE050E050933F0440933E042EEFA6
:1028400034E030934104209340042AE530E0309393
:10285000430420934204909345048093440484E607
:1028600090E09093470480934604ECEBF4E0F093FF
:102870004904E093480410924B0410924A04E4EC9B
:10288000F4E0F0934D04E0934C0450934F044093D4
:102890004E04E0E3F5E0F0935104E09350043093EC
:1028A000530420935204EAE3F5E0F0935504E093D7
:1028B00054049093570480935604EEEEF4E0F093A2
:1028C0005904E093580410925B0410925A04E6EF06
:1028D000F4E0F0935D04E0935C0450935F04409354
:1028E0005E04E2E6F5E0F0936104E0936004309367
:1028F0006304209362042CE635E030936504209352
:10290000640490936704809366042DE3EDECF1E09A
:10291000AFEEB4E001900D922A95E1F7A0E5B5E0A5
:10292000B093A604A093A5047093A8046093A70491
:1029300028EDC22E24E0D22ED092AA04C092A9047F
:1029400035E5E32E35E0F32EF092AC04E092AB04D3
:10295000E0EBF4E0F093AE04E093AD04D093B00468
:10296000C093AF041092B10408EE13E01093760404
:10297000009375041092780410927704F0937A040F
:10298000E093790450937C0440937B0420E035E08D
:1029900030937E0420937D0424E130E03093800462
:1029A00020937F04B0938204A093810490938404C5
:1029B000809383040F2EFAE1AF2EF4E0BF2EF02DAA
:1029C000B0928604A0928504109288041092870425
:1029D00070938A046093890450938C0440938B0411
:1029E0000F2EF2E38F2EF5E09F2EF02D90928E04A5
:1029F00080928D043093900420938F040F2EF2E880
:102A00008F2EF5E09F2EF02D9092920480929104EB
:102A100090939404809393040F2EFCE48F2EF4E0A3
:102A20009F2EF02D90929604809295041092980417
:102A3000109297040F2EF4E16F2EF5E07F2EF02D0B
:102A400070929A046092990450939C0440939B0462
:102A500044E655E050939E0440939D043093A004B7
:102A600020939F0444EB55E05093A2044093A104AB
:102A70009093A4048093A304B093E304A093E2048E
:102A80007093E5046093E404D092E704C092E604F6
:102A9000F092E904E092E804F093EB04E093EA0496
:102AA000D093ED04C093EC041092EE041093B304A1
:102AB0000093B2041092B5041092B404F093B704DA
:102AC000E093B60449E050E05093B9044093B80451
:102AD000EAE0F5E0F093BB04E093BA043093BD0460
:102AE0002093BC04E6E4F5E0F093BF04E093BE0459
:102AF0009093C1048093C004B092C304A092C20416
:102B00001092C5041092C4047093C7046093C60465
:102B10005093C9044093C8046CE375E07093CB04F0
:102B20006093CA043093CD042093CC0468E775E029
:102B30007093CF046093CE049093D1048093D0041B
:102B40009092D3048092D2041092D5041092D404AF
:102B50007092D7046092D6045093D9044093D8045D
:102B60004EE655E05093DB044093DA043093DD04E5
:102B70002093DC042AEA35E03093DF042093DE045E
:102B80009093E1048093E0048DE3EFEEF4E0ACE297
:102B9000B5E001900D928A95E1F7109233041092FE
:102BA0003204109231041092300470933704609311
:102BB00036048FEF93E090933504809334048AE0D9
:102BC00080932B0485E080932D0410922E04509264
:102BD0002F0410927F0168E071E087E995E00E9480
:102BE0002C118091A3068823F9F0C0915F016AE05F
:102BF00070E080E090E00E94FF09CC23A9F06DEE28
:102C000070E084E396E0DF91CF911F910F91FF90E8
:102C1000EF90DF90CF90BF90AF909F908F907F907C
:102C20006F905F900C942C11DF91CF911F910F91B9
:102C3000FF90EF90DF90CF90BF90AF909F908F90DC
:102C40007F906F905F9008956115710511F00C945D
:102C5000DB0F90E080E00895AF92BF92CF92DF92B9
:102C6000EF92FF920F931F93CF93DF93EC01B62E59
:102C70006A0179016BED70E00E94B60A4AE050E00B
:102C80006B2DCE010E94781067ED70E0CE010E949E
:102C9000B60AC6016CE370E00E9430346C014AE071
:102CA00050E0CE010E94721065ED70E0CE010E94EE
:102CB000B60A4AE050E0B601CE010E94721063EC01
:102CC00070E0CE010E94B60A6091890170918A017C
:102CD000CE010E9436106AEB70E0CE010E94B60A67
:102CE0004AE050E0B701CE010E9472106CEA70E039
:102CF000CE010E94B60A40E150E0B801CE010E9428
:102D0000721085EBC82E81E0D82EF12CE12CAA247C
:102D1000A394B12CC5010E2C02C0880F991F0A94F0
:102D2000E2F780239123892B59F08BE064E572E070
:102D30008E1518F0F60160817181CE010E94241673
:102D4000FFEFEF1AFF0A82E0C80ED11CEFE0EE168B
:102D5000F10401F7CE010E94C510E881F9810680D7
:102D6000F781E02DCE01DF91CF911F910F91FF9060
:102D7000EF90DF90CF90BF90AF900994BF92CF9229
:102D8000DF92EF92FF920F931F93CF93DF93DC01BB
:102D9000EB0158968D919C915997892BB9F08D0133
:102DA000B12CCB2CD12CF801E08CF18CC7010E9406
:102DB000B633C816D90610F5F701EC0DFD1DE491E8
:102DC000DE01AC0DBD1DEC93B394EBCF88E488839A
:102DD00089E4898384E48A831E968C911E978F7080
:102DE0008F5B8B831E968D919C9124E096958795A1
:102DF0002A95E1F78F708F5B8C8385E0DF91CF910F
:102E00001F910F91FF90EF90DF90CF90BF900895AA
:102E1000CF92DF92EF92FF920F931F93CF93DF93A6
:102E200000D0CDB7DEB77C01FB011381133009F070
:102E300046C0628170E07F6F0E945C0C009709F4CD
:102E40006AC0DC011496FC9014971596DC908F2DC7
:102E50009D2D0E94B633E82E1A8381E08E0D880FD7
:102E6000898342E050E0BE016F5F7F4F80E00E94A7
:102E7000AA0CCF2C0F2D1D2D802F8C198E15E8F448
:102E8000F801849189831A8242E050E0BE016F5FAD
:102E90007F4F80E00E94AA0C0F5F1F4F892B61F7C4
:102EA00080E090E00F900F90DF91CF911F910F91F4
:102EB000FF90EF90DF90CF90089581E0F2CF808176
:102EC000813849F5123239F5D70112962C911297B3
:102ED0008481958128171906F1F41C960D911C9197
:102EE000D12CC12C0115110589F0F80144815581BF
:102EF0006281738180E80E94AA0C8F3F980791F24B
:102F0000C80ED91ED8010D911C91ECCF81E0F701BC
:102F1000808BC601C7CF90E080E0C4CF0F931F9392
:102F2000CF93DF93EC0188819981009759F02A8132
:102F30003B812617370730F081E0DF91CF911F9159
:102F40000F9108958B016F5F7F4F0E94DC340097D3
:102F500059F0998388831B830A832C813D81232B1D
:102F600059F7FC011082E8CF80E0E7CFCF93DF93E1
:102F7000EC0188819981009711F00E94E831198253
:102F800018821D821C821B821A82DF91CF910895C4
:102F9000EF92FF920F931F93CF93DF938C017B01EE
:102FA000EB0109900020E9F72197C61BD70BBE0162
:102FB0000E948E17811109C0C801DF91CF911F9126
:102FC0000F91FF90EF900C94B617F801D583C4834E
:102FD000B70180819181DF91CF911F910F91FF9077
:102FE000EF900C94AA35EF92FF920F931F93CF931B
:102FF000DF93EC018B01CB010E94B6337C01BC0155
:10300000CE010E948E1781110BC0CE010E94B6170F
:10301000CE01DF91CF911F910F91FF90EF90089516
:10302000FD82EC82B801888199810E94AF33F0CF94
:10303000FC0180819181009711F00C94E831089592
:10304000AF92BF92CF92DF92EF92FF920F931F93B6
:10305000CF93DF93CDB7DEB76E970FB6F894DEBF90
:103060000FBECDBF8C016B017A011A8E198E1C8E9A
:103070001B8E1E8E1D8EB901CE0149960E94F3173C
:10308000F601808191818D30910519F00A9709F040
:103090008FC0C98CDA8CC80101960E9488338C01DC
:1030A0008091A4069091A5060230110560F16FECA5
:1030B0007EE00E94B60AB6018091A4069091A50612
:1030C0000E9424166FEA7EE08091A4069091A506E6
:1030D0000E942C1110E010921E04CE0149960E940D
:1030E0001818812F6E960FB6F894DEBF0FBECDBFB5
:1030F000DF91CF911F910F91FF90EF90DF90CF90D4
:10310000BF90AF9008956FE97EE00E94B60AA0904C
:10311000A406B090A506F70180811C8A1B8A1E8A2E
:103120001D8A188E1F8A4AE0BE016F5F7F4F90E0B4
:103130000E94BF33BE016F5F7F4FCE0143960E9456
:10314000C817BE016D5E7F4FC5010E941111CE01EF
:1031500043960E9418180170F70100836AE97EE027
:103160008091A4069091A5060E94B60AB6018091AE
:10317000A4069091A5060E94241660E97EE0809145
:10318000A4069091A5060E94B60AF701608170E03E
:103190008091A4069091A5060E94C9106AE67EE07F
:1031A0008091A4069091A5060E942C1111E093CF66
:1031B00010E093CF0F931F93CF93DF93CDB7DEB77C
:1031C00061970FB6F894DEBF0FBECDBF8C01CB0167
:1031D000F80111821082138212821582148250E04B
:1031E000BE016F5F7F4F0E94D233BE016F5F7F4F82
:1031F000C8010E94C81761960FB6F894DEBF0FBED3
:10320000CDBFDF91CF911F910F9108950F931F9321
:10321000CF93DF93CDB7DEB729970FB6F894DEBF13
:103220000FBECDBF8C01862FF80111821082138250
:1032300012821582148250E0BE016F5F7F4F90E0D2
:103240000E94D233BE016F5F7F4FC8010E94C81732
:1032500029960FB6F894DEBF0FBECDBFDF91CF9198
:103260001F910F9108952F923F924F925F926F920C
:103270007F928F929F92AF92BF92CF92DF92EF9206
:10328000FF920F931F93CF93DF93CDB7DEB72897AD
:103290000FB6F894DEBF0FBECDBFE0E15E2EA110E9
:1032A00002C03AE0532EFB01608171816D307105DF
:1032B00021F06A30710509F0EEC0AF8217013801C4
:1032C00028877A01A52CB12CA50170E060E0019659
:1032D0000E947132462E062F172F8091A4069091DE
:1032E000A506E016F10608F040C062E67FE00E9405
:1032F000B60AB6018091A4069091A5060E942416F4
:1033000062E57FE08091A4069091A5060E94B60A2E
:103310004AE050E0B7018091A4069091A5060E9472
:1033200072106FE47FE08091A4069091A5060E9440
:103330002C1180E010921E0428960FB6F894DEBF80
:103340000FBECDBFDF91CF911F910F91FF90EF90F6
:10335000DF90CF90BF90AF909F908F907F906F90B5
:103360005F904F903F902F90089508151905F8F43D
:103370006EE37FE00E94B60AB6018091A4069091A8
:10338000A5060E9424166DE27FE08091A40690912C
:10339000A5060E94B60A4AE050E0B4018091A40656
:1033A0009091A5060E9472106AE27FE0BCCF6AE1AC
:1033B0007FE00E94B60AFF81FF2341F067E17FE0D2
:1033C0008091A4069091A5060E94B60AE090A406FA
:1033D000F090A5068885882309F447C0452DF301A0
:1033E0006081CE0101960E940619BE016F5F7F4F7A
:1033F000C7010E941111CE0101960E941818F30115
:10340000408262E17FE08091A4069091A5060E942F
:10341000B60AB6018091A4069091A5060E942416D2
:1034200068E07FE08091A4069091A5060E94B60A0C
:10343000FF81FF2341F065E07FE08091A406909139
:10344000A5060E94B60AA501B8018091A406909134
:10345000A5060E94DB106FED7EE08091A40690919E
:10346000A5060E942C1181E065CFF1016081718178
:10347000452DCE0101960E94DA18BE016F5F7F4F85
:10348000C7010E941111CE0101960E941818F10186
:1034900011830083B6CF80E04FCF2F923F924F929F
:1034A0005F926F927F928F929F92AF92CF92DF92B4
:1034B000EF92FF920F931F93CF93DF9300D000D032
:1034C00000D01F92CDB7DEB73C012B011A01790164
:1034D000B8011A8219821C821B821E821D82CE01B3
:1034E00001960E94F317C980DA80912C812CA12CBF
:1034F0008E01095F1F4F20E0A101B201C3010E94AC
:103500003319782ECE0101960E941818872D279620
:103510000FB6F894DEBF0FBECDBFDF91CF911F91E4
:103520000F91FF90EF90DF90CF90AF909F908F9092
:103530007F906F905F904F903F902F9008952F92C3
:103540003F924F925F926F927F928F929F92AF9233
:10355000CF92DF92EF92FF920F931F93CF93DF935F
:10356000CDB7DEB72A970FB6F894DEBF0FBECDBF3A
:103570003C012B015A8749871901B8011A82198227
:103580001C821B821E821D82CE0101960E94F317AF
:103590008C2C912CC980DA80AE2CCE0107967C0150
:1035A000810121E049855A85B201C3010E94331986
:1035B000C82ECE0101960E9418188C2D2A960FB69F
:1035C000F894DEBF0FBECDBFDF91CF911F910F9159
:1035D000FF90EF90DF90CF90AF909F908F907F9073
:1035E0006F905F904F903F902F9008951F93CF93CF
:1035F000DF9385ED8093BC0080919F039091A003A1
:10360000A091A103B091A2030796A11DB11D23E0D3
:10361000B695A795979587952A95D1F72091BC00E7
:1036200024FD03C01092E70352C040919F035091C4
:10363000A0036091A1037091A203452B462B472B59
:1036400069F30097A105B10541F02AE22A95F1F747
:1036500000C00197A109B109E1CF80919E03C1E0AB
:10366000C0939D03882399F1D091B8001091BA00BE
:103670008091BC008A7B8093BC0060E082E00E9465
:10368000700960E083E00E9470091092E703C09324
:10369000E9031092E80361E082E00E94700961E0B2
:1036A00083E00E9470098091B9008E7F8093B900F9
:1036B0008091B9008D7F8093B90088E48093B80031
:1036C00085E48093BC001093BA00D093B800DF91DA
:1036D000CF911F910895CF92DF92EF92FF920F93B7
:1036E0001F93CF93DF93FC014281FB01248135813D
:1036F0004217130611F020E029C0EB01318120812F
:10370000213A91F5313061F52381233011F021E028
:103710001DC0628170E00E945C0CEC01009759F3BF
:1037200041E050E0BC016E5F7F4F80E00E94AA0C38
:103730001816190604F74E815F816C817D8180E047
:103740000E94AA0C21E018161906ACF6822FDF9110
:10375000CF911F910F91FF90EF90DF90CF90089540
:1037600021E0333041F6F2CF213229F63B3021F40B
:103770002281FC01208BCBCF3A3021F42281FC0145
:10378000218BC5CF393009F0B6CF2381233009F022
:10379000B2CF628170E00E945C0C7C01009709F45A
:1037A000AACFCE80DF80FC01868197810196C81662
:1037B000D90609F0A0CF81E090E0C114D10409F04E
:1037C000C6010E944C318C01B6010E94D00DF80157
:1037D00081812A81213121F590919B039F5F9093F4
:1037E0009B0380939A0380E0F8019081F701228186
:1037F00033819217130609F07ECF882349F0468162
:103800005781B8016F5F7F4F848195810E94A135F8
:103810000115110509F47BCFC8010E94E83177CF6B
:1038200081E0E2CFAF92BF92CF92DF92EF92FF9210
:103830000F931F93CF93DF937C016B015A01E90132
:10384000DC0152960D911C9190E080E0011511056C
:1038500031F589E090E00E944C31FC011182108228
:10386000D382C282B582A482DD27D783C683D701E3
:1038700053969C938E935297F7018489958901966C
:10388000958B848BDF91CF911F910F91FF90EF90DB
:10389000DF90CF90BF90AF90089501968901F80115
:1038A000228133812C153D0569F320813181211559
:1038B000310599F789E090E00E944C31FC011182BA
:1038C0001082D382C282B582A482DD27D783C683C9
:1038D000D8018D939C93D0CFCF92DF92EF92FF923D
:1038E0000F931F93CF93DF93C82F6B018A010E9420
:1038F000170E6C2F70E021E030E0A6010E94121C30
:10390000EC01892B89F00E94170E7C01C8010E94EE
:10391000B633F601608170E07F6F9C01A801C7019A
:103920000E94121CC80FD91FCE01DF91CF911F91A9
:103930000F91FF90EF90DF90CF900895EF92FF925C
:103940000F931F93CF93DF93EC018B017A010E94B9
:10395000170E9701A801BE01DF91CF911F910F9122
:10396000FF90EF900C94121C1F920F920FB60F92C3
:1039700011242F933F938F939F93AF93BF93809185
:103980000E0490910F04A0911004B0911104309195
:103990000D0423E0230F2D3758F50196A11DB11D0D
:1039A00020930D0480930E0490930F04A0931004B1
:1039B000B09311048091120490911304A091140407
:1039C000B09115040196A11DB11D8093120490932E
:1039D0001304A0931404B0931504BF91AF919F9169
:1039E0008F913F912F910F900FBE0F901F901895C0
:1039F00026E8230F0296A11DB11DD2CF1F920F9270
:103A00000FB60F9211242F933F934F935F936F93B1
:103A10007F938F939F93AF93BF93EF93FF9387E928
:103A200095E00E944E0BFF91EF91BF91AF919F9156
:103A30008F917F916F915F914F913F912F910F9057
:103A40000FBE0F901F9018951F920F920FB60F92F6
:103A500011242F938F939F93EF93FF93E091A705EA
:103A6000F091A8058081E091AD05F091AE0582FD51
:103A70001BC090818091B0058F5F8F732091B1053D
:103A8000821741F0E091B005F0E0E956FA4F958FCA
:103A90008093B005FF91EF919F918F912F910F909F
:103AA0000FBE0F901F9018958081F4CF1F920F9238
:103AB0000FB60F9211240F900FBE0F901F90189504
:103AC0001F920F920FB60F9211242F933F934F9393
:103AD0005F936F937F938F939F93AF93BF93EF9376
:103AE000FF938091B900887F803609F44AC0F0F5D1
:103AF000883209F4A5C018F5803109F499C0B8F4EA
:103B0000882309F4F5C0883009F492C0FF91EF9141
:103B1000BF91AF919F918F917F916F915F914F91E5
:103B20003F912F910F900FBE0F901F9018958831E5
:103B300009F486C0803251F78093E60314C08034C4
:103B400009F49BC040F48033B9F38833F9F68093CD
:103B5000E60385ECAEC0803509F483C0883509F4EE
:103B600094C0883499F60E94F61AD0CF883909F4A7
:103B70008AC038F5883729F050F4883611F080373C
:103B800029F683E08093E7031092E50355C0883857
:103B900009F479C0803919F0803809F0B7CF8091E5
:103BA000E503803208F06FC0E091E50381E08E0FFD
:103BB0008093E5038091BB00F0E0EB53FC4F8083E2
:103BC0003BC0803B39F0D0F4803A09F477C0883AA2
:103BD00009F09CCF84E08093E7031092C403109215
:103BE000C303F0E0E0E009958091C30381110FC0A9
:103BF00081E08093C3031092A30309C0803C09F4C1
:103C0000A8CF883C09F4A5CF883B09F07FCFE0918D
:103C1000C40381E08E0F8093C403F0E0ED55FC4FA8
:103C200080818093BB009091C4038091C30329C01D
:103C300080910C048093BB0085EC8093BC0066CF20
:103C400090910B0480910A04981758F5E0910B04A9
:103C500081E08E0F80930B04F0E0E651FC4F8081F1
:103C6000E9CFE0910B0481E08E0F80930B048091EB
:103C7000BB00F0E0E651FC4F808390910B048091F3
:103C80000A049817C8F285E8D8CFE0910B0481E0C8
:103C90008E0F80930B048091BB00F0E0E651FC4F47
:103CA00080838091E90381115ECF81E08093E803F6
:103CB00084EA8093BC001092E70328CF85EC8093C0
:103CC000BC001092E7038091E503803230F4E0916C
:103CD000E503F0E0EB53FC4F10826091E50370E0E8
:103CE00085EC93E0F0E0E0E009951092E5030ECF5B
:103CF0001092E60338CF1F920F920FB60F92112445
:103D00002F933F934F935F936F937F938F939F93E3
:103D1000AF93BF93CF93EF93FF93C091E100809156
:103D2000E100837F8093E100C3FF1DC08091A30663
:103D3000882309F459C082E1E1E9F1E0A6E4B1E0A9
:103D400001900D928A95E1F71092E90081E080934D
:103D5000EB001092EC0082E38093ED0010921704C8
:103D600088E08093F000C2FF1AC00E94F50880919D
:103D70004703882341F08091470381508093470394
:103D8000811101C05D9A80911604882341F08091D1
:103D90001604815080931604811101C0289AC4FF33
:103DA00027C08091E2008E7E81608093E200809146
:103DB000E1008F7E8093E100809148038E7E8061D8
:103DC00080934803FF91EF91CF91BF91AF919F9165
:103DD0008F917F916F915F914F913F912F910F90B4
:103DE0000FBE0F901F90189582E1E3EAF1E0A6CF95
:103DF000C0FFE8CF8091E2008E7E80618093E20078
:103E00008091E1008E7E8093E100809148038E7E58
:103E10008160D6CF1F920F920FB60F921124CF92CE
:103E2000DF92EF92FF920F931F932F933F934F9345
:103E30005F936F937F938F939F93AF93BF93EF9312
:103E4000FF93CF93DF93CDB7DEB76C97DEBFCDBFC7
:103E50001092E9008091E80083FF25C068E0CE0160
:103E600045960E94C30D82EF8093E8008D8987FFFD
:103E700039C09091E80090FFFCCF982F907609F020
:103E800038C19E894F89588D2F89F88C911131C086
:103E9000803861F5809149038093F1001092F10020
:103EA0008EEF8093E8006C960FB6F894DEBF0FBEDD
:103EB000CDBFDF91CF91FF91EF91BF91AF919F91D6
:103EC0008F917F916F915F914F913F912F911F91B2
:103ED0000F91FF90EF90DF90CF900F900FBE0F905B
:103EE0001F9018959EEF9093E800C7CF1092F100B5
:103EF000D5CF913059F48111D3CF4130510581F69E
:103F0000809149038D7F80934903CACF933049F450
:103F10008111C6CF4130510519F680914903826065
:103F2000F2CF953041F48091E80080FFFCCF20680B
:103F30002093E300B5CF963009F0A9C00B8D1C8DFE
:103F400022E01092E9001092450310924403F2120D
:103F50002EC010924303109242030E94D00E1F8283
:103F600099E09983FA8291E09E8390EA98879AEF8C
:103F700099872091440330914503275F3F4F3C834D
:103F80002B838D831092E900109245031092440315
:103F9000109343030093420349E050E0BE016F5F7A
:103FA0007F4F80E00E94AA0C0E94D00E79CF109320
:103FB0004303009342030E94030EDC0112960D910D
:103FC0001C910115110509F452C1D801ED91FC9124
:103FD0000480F581E02DBE016B5E7F4FC80109951D
:103FE000009709F03FC1F80100851185EACFF3E0A1
:103FF000FF120EC08F89882309F440C0823061F41B
:1040000040E860E183E391E00E945021811148CFB4
:1040100081E28093EB0047CF813029F440E86BE0E8
:1040200087E291E0F1CF833099F70E94030EDC0123
:104030001296ED90FC908E010F5F1F4F6801E11406
:10404000F10479F0D701ED91FC910680F781E02D24
:10405000B801C7010995080F111DF701E084F1842B
:10406000EECFD8011C92F60101900020E9F73197BC
:10407000BF016C197D0940E0C601C6CFE3E2F1E063
:10408000449150E0BF0180E80E94AA0C09CF97300C
:1040900009F4BECF983021F481E08093F10000CF85
:1040A000993009F0FDCE837009F0B2CF8091A3065C
:1040B0008823B1F0E0E7F1E081E031E096E321917F
:1040C000222371F08093E9003093EB00DF01119718
:1040D0002C912093EC009093ED008F5F873079F75F
:1040E0008EE78093EA001092EA008F89809317048C
:1040F000D7CE8B8D9C8D1092E900109245031092C3
:10410000440390934303809342038091A306882342
:1041100009F48DC0898D81118AC08E899D89913A5B
:1041200041F4813209F074CF47E050E068E571E076
:10413000B5C0913209F06CCF833269F48F89988DC4
:10414000B0E0A0E08093420190934301A09344012A
:10415000B0934501A5CE803239F467E070E088E580
:1041600091E00E94D00D9CCE823209F099CE8F89C9
:1041700080935F01EEEFFFE785919491E0E0F8E036
:104180008B3F9C4D11F4EEEFFAE080915801909135
:104190005901A0915A01B0915B01803B9440A10567
:1041A000B105D9F480915F0180FD17C0EE3F8AE030
:1041B000F80771F587E797E7918380838091600026
:1041C0008093460388E19BE00FB6F894A89580930E
:1041D00060000FBE9093600063CE8081918187372D
:1041E000974709F05DCEA895809160008861809323
:1041F00060008091460380936000EE3F2AE0F20762
:1042000089F08091FE0A9091FF0A9183808348CEC5
:10421000808191818737980769F29093FF0A809394
:10422000FE0AC8CF1092FF0A1092FE0A39CE0E94F1
:10423000030EDC0112960D911C910115110509F474
:10424000E7CED801ED91FC910190F081E02DBE0107
:104250006B5E7F4FC8010995811122CEF801008560
:104260001185EBCF181619060CF41ACED1CEF1E059
:10427000FF12BDCE8091A30681110CC08DE195E0A7
:1042800090934F0180934E0183E090E09093510111
:104290008093500142E150E066E471E080E0F4CEAA
:1042A000EF92FF920F931F93CF93DF93F82E192F66
:1042B000E62E042F81E0860F880F0E947C0C83E09D
:1042C0000E947C0CCF2DD12FEC0EFD2EF11CCE15B3
:1042D000DF05B9F007FF13C0FE0184910E947C0C3A
:1042E000182F80E00E947C0C812321968111EFCF52
:1042F000DF91CF911F910F91FF90EF9008958881EA
:10430000EDCF81E0F5CF10929A051092990588EED5
:1043100093E0A0E0B0E080939B0590939C05A09370
:104320009D05B0939E058BE292E090939805809353
:1043300097058DEC90E09093A4058093A3058CECF9
:1043400090E09093A6058093A50588EC90E090936B
:10435000A8058093A70589EC90E09093AA05809327
:10436000A9058AEC90E09093AC058093AB058EECA8
:1043700090E09093AE058093AD051092B005109239
:10438000B1051092B2051092B3058FEF9FEF909395
:104390007905809378058FE492E090937B05809374
:1043A0007A0510927C0510927D0510927E05109280
:1043B0007F0590938105809380051092820510926D
:1043C0008305109284051092850582E08093940500
:1043D00081E08093950593E09093960590918C05EC
:1043E000911112C0109287051092860522E73FE0D6
:1043F000309389052093880520E931E030938B05BF
:1044000020938A0580938C050E94170EFC01A485D9
:10441000B585109709F054C086E895E095878487A4
:104420008685978520918A0530918B05820F931F91
:1044300097878687109237061092360688EE93E0AB
:10444000A0E0B0E08093380690933906A0933A0636
:10445000B0933B068DE392E090933506809334064B
:104460008FEF9FEF90934106809340068FE492E098
:104470009093A7068093A6061092A8061092A9060C
:104480001092AA061092AB068091A306882311F120
:104490008091A2068823F1F084E396E09093A5062C
:1044A0008093A4061092A1061092A006109297067F
:1044B0001092960610928D0610928C060895DC01DB
:1044C0008D919C9111970097D1F786E895E08D9397
:1044D0009C93A6CF87E995E0E1CFCF93DF93CDB74B
:1044E000DEB764970FB6F894DEBF0FBECDBFF89469
:1044F00062E082E00E949E090E944C09892B19F417
:1045000081E08093A306789461E087E00E949E0991
:1045100061E086E00E949E0961E085E00E949E09BC
:1045200060E087E00E94700960E086E00E94700908
:1045300060E085E00E9470098091A306882309F459
:1045400053C261E087E00E94700960E086E00E944B
:104550007009789484B5826084BD84B5816084BD1F
:1045600085B5826085BD85B5816085BD80916E0011
:10457000816080936E001092810080918100826042
:10458000809381008091810081608093810080917F
:104590008000816080938000809191008260809390
:1045A00091008091910081608093910080919000B2
:1045B0008160809390008091C10084608093C100ED
:1045C0008091C10082608093C1008091C1008160B0
:1045D0008093C1008091C30081608093C30080916B
:1045E000C00082608093C0008091C200816080938F
:1045F000C20080917A00846080937A0080917A0072
:10460000826080937A0080917A00816080937A0042
:1046100080917A00806880937A001092170410923B
:104620004903109248038091D70081608093D7009E
:1046300080EA8093D80089B5806189BD89B58260A0
:1046400089BD09B400FEFDCF61E070E080E090E03C
:104650000E94FF098091D8008F7C80618093D800F0
:104660008091E000807F8093E0008091E1008E7E69
:104670008093E1008DE08093E200559A209AE091CA
:10468000A705F091A80582E08083E091A305F09151
:10469000A4051082E091A505F091A60580E1808334
:1046A0001092AF05E091AB05F091AC0586E08083F8
:1046B000E091A905F091AA05808180618083E09155
:1046C000A905F091AA05808188608083E091A90501
:1046D000F091AA05808180688083E091A905F0911E
:1046E000AA0580818F7D808389E090E09093790591
:1046F0008093780588E199E20FB6F894A8958093A5
:1047000060000FBE909360006AE572E084E396E07B
:104710000E94241660E47FE184E396E00E94361054
:1047200066E872E084E396E00E94FF1084E396E07E
:104730000E94C510A89590E080E00E94930F909190
:104740001F048091A3069A3A09F054C19091200465
:10475000953509F04FC120917605309177052130CC
:10476000354A09F047C1811106C063EA71E087E963
:1047700095E00E942C1180917505817080937F01D6
:1047800080912D04809368030E94170E0E94170EDB
:1047900021E030E044E955E061E070E00E94121C45
:1047A0000E94170E21E030E046E955E062E070E03B
:1047B0000E94121C0E94170E21E030E045E955E0EE
:1047C00063E070E00E94121C0E94170E21E731E0A6
:1047D000DC0159963C932E9358978091A306882329
:1047E00039F00E94170E24E336E0FC01378B268B4C
:1047F00062E084E00E949E0960E087E10E949E09D9
:1048000061E08DE00E94700961E088E00E949E09ED
:1048100061E088E00E9470098091740390917503B3
:10482000856091609093750380937403A89581E0EF
:1048300080937E0180937D0110921804809127045B
:10484000909128042DE3289FF001299FF00D112459
:10485000E859FB4F80819181909387018093860175
:104860000E943E1142E050E064E773E087E090E090
:104870000E949E1C42E050E06CE671E08DE090E00A
:104880000E949E1C42E050E061E274E08AE190E008
:104890000E949E1C42E050E063E274E08CE190E0F4
:1048A0000E949E1C42E050E065E274E088E090E0E7
:1048B0000E949E1C42E050E063E671E083E190E0DC
:1048C0000E949E1C42E050E060E871E082E190E0CE
:1048D0000E949E1C41E050E062E671E086E090E0BC
:1048E0000E949E1C41E050E061E671E086E190E0AC
:1048F0000E949E1C42E050E06FE072E08AE090E08F
:104900000E949E1C42E050E06AE671E08BE090E07D
:104910000E949E1C41E050E060E671E084E190E07E
:104920000E949E1C41E050E06EE072E087E190E062
:104930000E949E1C41E050E062E871E08EE090E051
:104940000E949E1C41E050E06EE671E08CE090E039
:104950000E949E1C41E050E06BE274E08FE090E02A
:104960000E949E1C41E050E06DE274E081E190E025
:104970000E949E1C41E050E06DE072E080E190E01A
:104980000E949E1C41E050E06CE072E088E190E003
:104990000E949E1C4CE651E06BE072E08FE10E94A9
:1049A0006C1C42E651E06AE072E080E20E946C1CFE
:1049B0008091A306882309F444C08FEF9FEF909362
:1049C00041068093400610915F016AE070E080E04C
:1049D00090E00E94FF09111124C06AE070E080E0BD
:1049E00090E00E94FF09EFCF60E087E00E9470092D
:1049F00061E0ACCD811106C067E771E087E995E021
:104A00000E942C110E94AF1380E991E00E94AD0F2B
:104A100090E080E00E94AD0F80E991E00E94930F4A
:104A2000AACE81E08093A20663E571E084E396E07C
:104A30000E94B60A6091A30670E084E396E00E94AB
:104A4000C91064E471E087E995E00E94B60A6091BC
:104A5000A30670E087E995E00E94C91087E995E018
:104A60000E94BB0B81E080937E0110921804A895F0
:104A700068EC70E080E090E00E94FF098091AC0655
:104A80009091AD06FC013196FA83E983892B31F0D0
:104A900085E5EC17FD0714F48193FBCF1092A10676
:104AA0000E94310A609398067093990680939A0643
:104AB00090939B068AE090E0A0E0B0E080939C0693
:104AC00090939D06A0939E06B0939F0681E08093ED
:104AD000A0066CE3862E912C9E012F5F3F4F59015B
:104AE000C901825B96409C8B8B8BA8955DE3752EEC
:104AF0001091A306112309F4D4C08091A206882343
:104B000009F4CFC084E396E00E94790F892B09F461
:104B10008FC78091A206882309F4CCC084E396E075
:104B20000E94370F7C0180917F01882369F06E2DF0
:104B3000112309F4C4C08091A206882309F4BFC0E0
:104B400084E396E00E941C0FE0911E04EE3108F011
:104B500065C79DE0E916F104A9F0AAE0EA16F104A0
:104B600089F0BFEEEB16F10469F0C7018B7F8B3B38
:104B7000910541F081E08E0F80931E04F0E0E65B2A
:104B8000FC4FE082E0911E04F0E0E65BFC4F1082F7
:104B900080917F01882381F08091A306882309F406
:104BA00093C08091A206882309F48EC066E97BE059
:104BB00084E396E00E94B60A80917F01882381F009
:104BC0008091A3066AE473E0882309F482C080918F
:104BD000A206882309F47DC084E396E00E9424168F
:104BE00080917F01882381F08091A306882309F4B6
:104BF00073C08091A206882309F46EC062E97BE04D
:104C000084E396E00E942C1180911E04882309F40D
:104C10009DC08091A306882331F08091A20604E311
:104C200016E0811102C007E915E0FE86ED861093BB
:104C3000A5060093A406EDE0EE16F10429F0FAE0D3
:104C4000EF16F10409F054CF80914A03082E000CAE
:104C5000990B0E949935883409F410C20CF08CC06D
:104C6000823409F4EEC0ECF5833209F427C68F33A1
:104C700009F404C263E578E0C8010E94B60A6AE458
:104C800073E0C8010E94241660E578E0C8010E9424
:104C90002C1164E478E0C8010E942C1110924A03A0
:104CA0004FC087E995E00E94380B892B09F4C0C6F4
:104CB00011112FCF87E995E00E94160B33CF87E9BA
:104CC00095E00E946F0B40CF64E97BE087E995E0B7
:104CD00071CF87E995E082CF60E97BE087E995E0D5
:104CE00091CF843409F486C60CF45DC1853411F685
:104CF00080914B03082E000C990B0E9499358E343D
:104D0000910509F093C080914C03082E000C990B7B
:104D10000E94993522E53BE04EE254E08334910550
:104D200041F08235910509F081C028E23BE04FE275
:104D300054E0BE01635F7F4F8CE493E00E94201833
:104D400010921E0480911E048111D2CE80917F01A9
:104D5000882309F4CDCE8091A306882309F463C685
:104D60008091A206882309F45EC669E87BE084E3AB
:104D700096E00E94B60ABCCE833509F434C5DCF453
:104D80008E3409F448C6813509F074CF66E778E0BF
:104D9000C8010E94B60A70E060E0C8010E94C91014
:104DA00066E678E0C8010E94B60A70E060E0C801DB
:104DB0000E94C910C5CF8A3509F41FC58E3709F482
:104DC000A0C5843509F056CF80914B03082E000C06
:104DD000990B0E949935843409F4BDC0833509F0DC
:104DE000DFC08091250490912604B4010E943034E4
:104DF0007A8369830FE31AE0950142E454E0BE012F
:104E0000635F7F4F8BE493E00E944D1A882309F47F
:104E100097CF29813A814CE3429FC001439F900D77
:104E2000112490932604809325048ACF64E07BE0CC
:104E3000C8010E94B60A6AE473E0C8010E94FF102C
:104E40007FCF80914B03082E000C990B0E9499355F
:104E50008634C1F04CF4833409F465C0843409F419
:104E60004BC068E57AE0E4CF863509F46CC089353B
:104E7000C1F7C12CE12C09E71AE02AE234E044E64C
:104E800050E059C08091270490912804789EF00149
:104E9000799EF00D1124E859FB4F4091290420819F
:104EA0003181429FC001439F900D11249A838983D1
:104EB0000EEE1AE0950148E55BE1BE01635F7F4FAE
:104EC0008BE493E00E944D1A882309F439CF809136
:104ED000270490912804789EF001799EF00D11240A
:104EE000E859FB4F6091290470E089819A810E9402
:104EF00030347183608324CF8091270490912804FB
:104F0000789E9001799E300D112424593B4F08ED75
:104F10001AE048E55BE1BE01635F7F4F8BE493E0FD
:104F20000E944D1A0DCFC12CE12C0DEA1AE027E2A8
:104F300034E044E050E0BE01635F7F4F8BE493E0D8
:104F40000E949F1AFDCECC24C394E12C0BE91AE0F9
:104F500029E234E0EECF8091230490912404B4013F
:104F60000E9430347A8369830AE11AE0950140E4B3
:104F70005FE1BE01635F7F4F8BE493E00E944D1AB7
:104F8000882309F4DDCE29813A81ACE3A29FC001D8
:104F9000A39F900D11249093240480932304D0CEDA
:104FA00060E07AE045CF80914B03082E000C990B0E
:104FB0000E949935883489F18C3409F05CC04091A5
:104FC00029042091320430913304429FC001439F51
:104FD000900D11249A8389830BEE19E0950140E42A
:104FE0005FE1BE01635F7F4F8BE493E00E944D1A47
:104FF000882309F4A5CE6091290470E089819A8103
:105000000E94303470933304609332040E943D0A4E
:10501000909331048093300493CE409129042091E1
:10502000360430913704429FC001439F900D1124F4
:105030009A83898303ED19E0950140E45FE1BE01A5
:10504000635F7F4F8BE493E00E944D1A882309F43D
:1050500077CE6091290470E089819A810E94303472
:1050600070933704609336040E943D0A9093350490
:105070008093340465CE62EB79E0DACE80914B0305
:10508000082E000C990B0E949935853409F458CEEE
:10509000803509F413C1833409F054C16BEC77E017
:1050A000C8010E942C1121E1222E22E0322E38E686
:1050B000432E34E0532E4FE1C42E44E0D42E6EEB49
:1050C00077E0C8010E94B60AF101619171911F0158
:1050D000C8010E9424166BEA77E0C8010E94B60A54
:1050E00020912904D2018D919C91289FB001299F84
:1050F000700D11244AE050E0C8010E94DB106AE9FB
:1051000077E0C8010E94B60A20912904F201828149
:105110009381289FB001299F700D11244AE050E02F
:10512000C8010E94DB1069E877E0C8010E94B60A56
:1051300020912904D20114968D919C91289FB00151
:10514000299F700D11244AE050E0C8010E94DB1035
:1051500068E777E0C8010E94B60AF20166817781AC
:105160004AE050E0C8010E94DB1067E677E0C80122
:105170000E94B60AD20118966D917C914AE050E0E7
:10518000C8010E94DB1068E477E0C8010E942C117E
:105190007601612C60E477E0C8010E94B60A209194
:1051A0002904F701818D928D289FB001299F700DF0
:1051B00011244AE050E0C8010E94721062E377E0D7
:1051C000C8010E94B60AD7015B966D917C914AE0B6
:1051D00050E0C8010E94DB106394B4E0EB0EF11CB8
:1051E000E4E06E12D7CF62E277E0C8010E942C1192
:1051F0007601612C6AE177E0C8010E94B60A20912D
:105200002904D70199968D919C91289FB001299FDF
:10521000700D11244AE050E0C8010E9472106CE049
:1052200077E0C8010E94B60AF70163A574A54AE0B9
:1052300050E0C8010E94DB106394F4E0EF0EF11C13
:1052400024E06212D7CF6EEF76E0C8010E942C11E5
:10525000760166EF76E0C8010E94B60A2091290423
:10526000D701D9968D919C91289FB001299F700DEF
:1052700011244AE050E0C8010E94721068EE76E006
:10528000C8010E94B60AF70163AD74AD4AE050E070
:10529000C8010E94DB106A94F4E0EF0EF11C61106B
:1052A000D8CF2DE3420E511C3DE3C30ED11C4BE180
:1052B000241642E0340609F002CF42CDC8010E9414
:1052C000C51060E378E0C8010E94B60A60916C01E5
:1052D00070916D014AE050E0C8010E94DB106CE162
:1052E00078E0C8010E94B60A4AE050E060916E0181
:1052F000C8010E94ED1068E078E0C8010E94B60A7B
:105300004AE050E060912D04C8010E94ED1064EF66
:1053100077E0C8010E94B60A60918601709187010A
:10532000C8010E94C9106EED77E0C8010E94B60A5C
:10533000609174037091750340E150E0C8010E94D0
:10534000DB10FECC6AED76E0C8010E942C11C8018A
:105350000E94C51067E476E0C8010E942C1169E341
:1053600076E0C8010E94B60A65E972E0C8010E94B1
:10537000FF10C8010E94C51067E276E0C8010E94D4
:105380002C116FEF75E0C8010E942C1164ED75E0DF
:10539000C8010E942C1162EA75E0C8010E94B60A99
:1053A00060912E0470E0C8010E94C91060E775E0AA
:1053B000C8010E94B60A60912F0470E0C8010E94E3
:1053C000C91065E575E0C8010E942C1163E275E023
:1053D000C8010E94B60A6091270470912804C80190
:1053E0000E94C91061EF74E0C8010E94B60A4AE049
:1053F00050E060912904C8010E94ED106FEB74E049
:10540000C8010E94B60A8091270490912804789ED2
:10541000F001799EF00D1124E859FB4F20912904E9
:1054200080819181289FB001299F700D11244AE04D
:1054300050E0C8010E94DB106DE874E0C8010E94D2
:10544000B60A8091270490912804789EF001799EF5
:10545000F00D1124E459FB4F2091290480819181A2
:10546000289FB001299F700D11244AE050E0C80127
:105470000E94DB106BE574E0C8010E94B60A8091BF
:10548000250490912604B4010E9430344AE050E093
:10549000C8010E94DB1069E274E0C8010E94B60AEC
:1054A0008091230490912404B4010E9430344AE096
:1054B00050E0C8010E94DB1067EF73E0C8010E9452
:1054C000B60A209129048091320490913304289FD8
:1054D000B001299F700D11244AE050E0C8010E94DC
:1054E000721060EF73E0C8010E942C1164ED73E04C
:1054F000C8010E94B60A60913004709131044AE0FC
:1055000050E0C8010E94721062ED73E0C8010E9471
:105510002C1160EA73E0C8010E94B60A20912904A8
:105520008091360490913704289FB001299F700D17
:1055300011244AE050E0C8010E94721069E973E04A
:10554000C8010E942C116CE773E0C8010E94B60AE2
:1055500060913404709135044AE050E0C8010E9423
:1055600072106AE773E0C8010E942C1168E473E0CE
:10557000C8010E94B60A4AE050E060912D04C801BB
:105580000E94781066E473E0C8010E942C1164E167
:1055900073E0C8010E94B60A4AE050E060912A0414
:1055A000C8010E94ED1065EF72E0C8010E942C1145
:1055B0006DEC72E0C8010E942C116EE972E0C80126
:1055C0000E942C1169E772E0C8010E94B60A40E10E
:1055D00050E060917505C8010E94ED1063E672E02D
:1055E000C8010E94B60A6091860170918701C801C6
:1055F0000E94361061E572E0C8010E94B60A60910F
:105600007B0170917C01C8010E9436106DE372E04D
:10561000C8010E94B60A4AE050E060916E01C801DC
:105620000E94781069E372E0C8010E94B60A809176
:105630006C0190916D01B4010E9430344AE050E059
:10564000C8010E94721067E372E0C8010E94B60AA6
:1056500080916C0190916D01B4010E9430344AE058
:1056600050E0BC01C8010E94DB1069E272E0C80191
:105670000E94B60A8091180468E572E0811102C0A8
:1056800066E273E0C8010E9424166BE172E0C80173
:105690000E94B60A609174037091750340E150E076
:1056A000C8010E94DB1068E072E0C8010E94B60ADF
:1056B0008091AC069091AD06B501681B790B892BE2
:1056C00011F46B897C89C8010E94C9106BEF71E0ED
:1056D000C8010E94B60AE091AC06F091AD06FA83CB
:1056E000E98370E060E0309761F0EA15FB054CF467
:1056F0008191853519F46F5F7F4FF7CF6115710583
:10570000A1F3C8010E94C91061EC76E0C8010E94B3
:105710002C1166EA76E0C8010E942C1168E876E058
:10572000C8010E942C116FE676E0C8010E942C117E
:105730006FE576E0C8010E942C114AE069E571E04E
:10574000C5010E94DA1818861F821A8619861C86DF
:105750001B8661E170E0CE0107960E948E178111D1
:1057600032C0CE0107960E94B617ED80FE80C98038
:10577000DA80C114D10491F1E114F104B1F08B8508
:105780009C85E80EF91EB701CE0107960E948E1780
:10579000882321F12F8138858B859C85B601820F66
:1057A000931F0E94AA35FC86EB86BE01695F7F4F7E
:1057B000C8010E941111CE0107960E941818C50158
:1057C0000E941818BDCA81E190E09C878B876BEA24
:1057D00072E08F8198850E94AA35C7CFCE010796C7
:1057E0000E94B617E2CF90E080E00E94AD0F62E920
:1057F00079E0C8010E942C11A3CA80914B03082EA6
:10580000000C990B0E94993583349105B9F480916D
:105810004C03082E000C990B0E9499358434910595
:1058200039F46DE679E0C8010E942C110E94AF1393
:1058300080917505817080937F0182CA83359105BF
:10584000A1F480914C03082E000C990B0E9499350D
:105850008634910569F780E991E00E94AD0F65E417
:1058600079E0C8010E942C11E3CF8535910539F408
:1058700090E080E00E94930F6EE279E0F2CF8634F0
:105880009105A9F469E179E0C8010E942C11F12C7D
:10589000E12C6FEFC7010E9412348FEFE81AF80A6B
:1058A000E11494E0F906A9F764E179E0DACF80E940
:1058B00091E00E94930F6FEB78E0D3CF6DEB72E035
:1058C00084E396E00E94FF1083E090E090937905D6
:1058D0008093780588E19BE00FB6F894A8958093B3
:1058E00060000FBE9093600062E370E080E090E0A3
:1058F0000E94FF0969ED72E084E396E00E94FF10C8
:10590000F3CF65EE71E0C8010E94B60AF12CE12CDC
:10591000D12CC12C512CC7018C0D9D1D0E940A3425
:105920008F3F11F055245394AFEFCA1ADA0AB0E151
:10593000CB16D10481F7E114F10419F0552009F4D4
:105940004BC060EE71E0C8010E94B60A6EED71E0D6
:10595000C8010E94B60AEFEFEE16F10409F070F4E8
:105960006CED71E0C8010E94B60AF0E1EF16F10497
:1059700028F46AED71E0C8010E94B60A40E150E0E7
:10598000B701C8010E94721068ED71E0C8010E9461
:10599000B60A6701512CC6010E940A34482E2FE036
:1059A000281728F066ED71E0C8010E94B60A40E1B0
:1059B00050E0642DC8010E9478103FE0531629F092
:1059C00064ED71E0C8010E94B60A4FEFC41AD40A10
:1059D000539480E15812DFCF90E1E90EF11CE114FD
:1059E000A4E0FA0609F094CF60EC71E0C8010E94CF
:1059F000B60AA6C9C12CEE24E3940AEA18E025E70A
:105A000035E04FEF50E0BE01635F7F4F8AE493E0E3
:105A10000E949F1A0DCF6AE878E0EBCE10921E0428
:105A200010924A038FC962E87BE087E995E0A1C93B
:105A300084E896E00E94390C10918D0680918C06C6
:105A4000811119C088EE93E0A0E0B0E08093880651
:105A500090938906A0938A06B0938B060E94310A20
:105A600060938406709385068093860690938706DC
:105A700081E080938C0610928D06112309F4A2C157
:105A800080917603909177030196909377038093AA
:105A900076030E943E118091A30690912E048111FD
:105AA00002C090912F042091190430911A04992377
:105AB00009F461C28091850180936E013093750372
:105AC00020937403809183019091840190936D01E0
:105AD00080936C0120917403309175038091700361
