:100000000C942D050C9455050C9455050C94550530
:100010000C9455050C9455050C9455050C945505F8
:100020000C9455050C9455050C94FD100C946C1112
:100030000C9455050C9455050C9455050C945505D8
:100040000C9455050C9455050C9455050C945505C8
:100050000C9455050C9455050C9455050C94B3104F
:100060000C9455050C9455050C9455050C945505A8
:100070000C9455050C9455050C9455050C94550598
:100080000C9455050C9455050C9455050C94550588
:100090000C9498130C9455050C9455050C94550527
:1000A0000C9455050C9455050C94550552657374C4
:1000B0006F72656420666163746F7279206465662F
:1000C00061756C74732E00080B00020202000009B7
:1000D00004000001020200000524001001052401B3
:1000E000010104240206052406000107058103100E
:1000F000004009040100020A000000070502024056
:1001000000000705830240000004030904120100F7
:1001100002EF020140412336800001010203014148
:10012000726475696E6F204C4C430041726475694E
:100130006E6F204C656F6E6172646F00000000008E
:10014000240027002A002D0030004D79436F6F6C8A
:1001500055505300506241630055505331300045B3
:1001600052524F523A204E65656420746F20646F7E
:1001700020636F6E66696775726174696F6E206166
:100180006E6420777269746520746F204545505203
:100190004F4D2E205573696E672044656661756CFE
:1001A00074732E00476F6F643A20454550524F4D8F
:1001B00020697320696E697469616C697A65642E5F
:1001C00000433A5C55736572735C557365725C44A9
:1001D0006F63756D656E74735C4769744875625CB6
:1001E000736D6172742D7570732D656D756C6174AE
:1001F0006F725C536D617274557073456D756C618F
:10020000746F725C536D617274557073456D756C6B
:1002100061746F722E696E6F00536D617274205538
:10022000505320456D756C61746F722076302E319D
:10023000000D0A24242D454E4420454550524F4D73
:100240000D0A0D0A00200030002000300030003080
:10025000000D0A2420000D0A24242D454550524F3C
:100260004D20434F4E54454E54533A0020202031E8
:100270003A64626720004261747465727920566F37
:100280006C746167652A3130303A20004478202050
:10029000202D20446562756720666C61677320209D
:1002A0002020202020202020202020203A203078CC
:1002B00000202028562A31303029002020566F6C2B
:1002C00074616765732077696C6C20616C77617904
:1002D0007320626520656E746572656420696E20A6
:1002E00068756E647265647468732E20002020281F
:1002F000496620796F75206D65617375726564203C
:1003000031322E343520766F6C74732C20656E7408
:1003100065722043483132343529002020776865E2
:100320007265207676767620697320746865206D14
:100330006561737572656420766F6C7461676520A2
:10034000696E2068756E647265746873206F6620CC
:100350006120766F6C742E002020776974682061AC
:1003600020676F6F64206469676974616C20766FC1
:100370006C74206D657465722E20456E74657220F4
:1003800074686520636F6D6D616E64204348767696
:1003900076762E002020486F6F6B20746865206C85
:1003A00065616473206261636B20757020746F20D7
:1003B00074686520626174746572792E204D656180
:1003C000737572652074686520766F6C74616765FB
:1003D00000202053686F72742074686520746F6702
:1003E00065746865722E20456E7465722074686548
:1003F00020636F6D6D616E6420434C3020285A6518
:10040000726F2C206E6F74204F68292E00202044BC
:100410006973636F6E6E65637420746865206261D2
:10042000747465727920766F6C746167652073658A
:100430006E7365206C656164732066726F6D2074E5
:10044000686520626174746572792E2020002054E2
:100450006F2063616C69627261746520766F6C7481
:100460006167652073656E73696E6720666F7220C1
:100470007468697320626F6172643A0029002020F9
:10048000202020202020202848696768205620410D
:1004900032442076616C75653A200020562A31304E
:1004A000300043486E6E6E6E202D2043616C696291
:1004B00072617465206869676820766F6C74616723
:1004C0006520706F696E742028562A3130302920DB
:1004D000203A200029002020202020202020202831
:1004E0004C6F772056204132442076616C75653A16
:1004F000200020562A31303000434C6E6E6E6E2044
:100500002D2043616C696272617465206C6F772085
:10051000766F6C7461676520706F696E7420285601
:100520002A313030292020203A200054446E6E6E4B
:100530006E202D204176652E2054696D6520666FF2
:10054000722066756C6C20446973636861726765BC
:1005500020286D696E75746573293A200054436EC6
:100560006E6E6E202D20417665726167652054693C
:100570006D6520746F2066756C6C792043686172BC
:10058000676520286D696E75746573293A2000428D
:10059000456E6E6E6E202D204261747465727920F6
:1005A000456D70747920766F6C74616765202020CA
:1005B0002020202020202028562A313030293A209F
:1005C0000042466E6E6E6E202D204261747465721C
:1005D000792046756C6C2043686172676520766F80
:1005E0006C746167652020202028562A313030291C
:1005F0003A200020202020202020202028303D4E9E
:100600006F205043207265706F7274696E672F732C
:10061000687574646F776E2E20313D456E61626C33
:10062000656400454E6E202020202D20454E6162DD
:100630006C65207265706F7274696E672F53687590
:1006400074646F776E20746F20746F2074686520F7
:1006500050433A200050726573656E742053657480
:1006600074696E67733A00536D617274205550530C
:1006700020456D756C61746F722076302E310000EC
:100680000A2D2D2D2D4D656E752D2D2D2D00446FB0
:100690006E277420666F7267657420746F2028530C
:1006A0002961766520746865206E65772076616CB7
:1006B000756521002073657420746F3A20004E65C3
:1006C0007720004F6C642076616C756520776173CC
:1006D0003A20002076616C756521204D6178206993
:1006E0007320312028666F72206120626F6F6C2941
:1006F0002E0A004572726F723A20496E76616C69FB
:100700006420000A556E6B6E6F776E20636F6D6D9F
:10071000616E64205B0042616420636F6D6D616E89
:10072000642E2053686F756C64206265204E4C20E7
:100730006F72204E48000A526573746F72656420B0
:10074000466163746F72792044656661756C747379
:100750002E2E2E0D0A204D75737420646F202753A2
:100760002720746F207361766520746F2045455093
:10077000524F4D20286E6F6E2D766F6C6174696CD0
:1007800065206D656D6F7279292E000A536176655B
:1007900064206E65772076616C75652873292074F6
:1007A0006F20454550524F4D2E0A005D005B000002
:1007B0000000002300260029002C002F000000006C
:1007C00000250028002B002E00310004040404043E
:1007D00003040502020202040302020202060606E4
:1007E0000606060404020202040404080201104082
:1007F000804010204080408008020401804020108A
:100800000201108010204040200000000200090F6B
:100810000000030401000C000000000000000000C4
:100820000000000000000000070605040100080A9F
:100830000B0C0D09446F6E277420666F7267657428
:1008400020746F2028532961766520746865206EB6
:1008500065772076616C75652100307800207365BE
:100860007420746F3A20004E657720003078004F76
:100870006C642076616C7565207761733A20002E78
:100880000A00222076616C756521204D696E206911
:100890007320004572726F723A20496E76616C69FE
:1008A000642022002E0A002076616C756521204D9F
:1008B000617820697320004572726F723A20496E28
:1008C00076616C6964200005840904A1010924A1F2
:1008D0000275089501150026FF00850109FE7902C1
:1008E000B123850209FF7903B123850309FD79014D
:1008F000B12305858506098BB123851F09897904F4
:10090000B1238520098F7905B1238516092CB123E0
:100910008510098D266400B1228518098EB12385C2
:100920000E0967B18385170983B183850C09668138
:10093000A30966B1A3850F098CB1A285110929B15C
:10094000A285090985751027FFFF0000B1A3851A4C
:10095000096A27FFFF00006601105500B1A3851C3E
:10096000096981A30969B1A3850D096881A3096893
:10097000B1A38508092A75102764050000167800C0
:100980008122092AB1A20584851209571600802701
:10099000FF7F0000B1A285130955B1A2850A094065
:1009A000150027FFFF00006721D1F0005505B12396
:1009B000850B093081A30930B1A38514095A750844
:1009C00015012503650055008122095AB1A20902CB
:1009D000A10285070585094475011500250181A33C
:1009E0000944B1A3094581A30945B1A309D081A355
:1009F00009D0B1A309D181A309D1B1A3094281A32F
:100A00000942B1A3094381A20943B1A2094B81A3C1
:100A1000094BB1A309DB81A309DBB1A3094681A37B
:100A20000946B1A3094781A30947B1A30584096811
:100A300081A20968B1A2096981A30969B1A30973F7
:100A400081A30973B1A3096581A30965B1A39502C7
:100A50008101B101C0C0C000E61411241FBECFEF58
:100A6000DAE0DEBFCDBF13E0A0E0B1E0E2E3F0E505
:100A700002C005900D92AE34B107D9F724E0AEE480
:100A8000B3E001C01D92A53EB207E1F715E0CDE24B
:100A9000D5E004C02197FE010E941726CC32D10771
:100AA000C9F70E9470150C9417280C940000EDE211
:100AB000F8E0E49190917B008E2F880F880F807270
:100AC0009F7D892B80937B00E770E064E0937C003E
:100AD00080917A00806480937A0080917A0086FD0C
:100AE000FCCF80917800909179000895FC0180817D
:100AF0009181FB0120813181821B930B0895FC01C0
:100B000080915004882311F13FB7F89482E08093DC
:100B1000E9002091F200822F90E01816190614F4D3
:100B200081E090E0882339F0289844E640934F0410
:100B30004091F1004083222339F02091F2002111ED
:100B400003C02BE62093E8003FBF08958FEF9FEF8F
:100B5000089581508F3008F047C0E82FF0E0ED5441
:100B6000FA4F0C941726D005D405C205C805CC054C
:100B7000F405F405F405D705DD05E105E505EB050C
:100B8000F405EF05809180008F77809380000895B1
:100B9000809180008F7DF9CF80918000877FF5CF95
:100BA00084B58F7784BD089584B58F7DFBCF809108
:100BB00090008F77809390000895809190008F7DB2
:100BC000F9CF80919000877FF5CF8091C0008F771B
:100BD0008093C00008958091C0008F7DF9CF8091EF
:100BE000C200877F8093C20008951F93CF93DF9345
:100BF000282F30E0F901E75FF74F8491F901E651C2
:100C0000F84FD491F901E553F84FC491CC23A9F0E2
:100C1000162F81110E94A905EC2FF0E0EE0FFF1FA7
:100C2000E354F84FA591B4918FB7F894EC9111115A
:100C300008C0D095DE23DC938FBFDF91CF911F9149
:100C40000895DE2BF8CF3FB7F89480914B04909134
:100C50004C04A0914D04B0914E0426B5A89B05C04C
:100C60002F3F19F00196A11DB11D3FBFBA2FA92F2B
:100C7000982F8827BC01CD01620F711D811D911D28
:100C800042E0660F771F881F991F4A95D1F7089594
:100C90008F929F92AF92BF92CF92DF92EF92FF928C
:100CA0004B015C010E9423066B017C010E9423061C
:100CB0006C197D098E099F09683E73408105910575
:100CC000A8F321E0821A9108A108B10888EEC80EA5
:100CD00083E0D81EE11CF11C81149104A104B1042D
:100CE00029F7FF90EF90DF90CF90BF90AF909F904B
:100CF0008F9008954091EF035091F0032091ED0300
:100D00003091EE0342175307B4F49091E8009570C8
:100D1000E1F39091E80092FD19C08093F100809179
:100D2000EF039091F00301968F739927892B19F4A3
:100D30008EEF8093E8008091EF039091F00301968D
:100D40009093F0038093EF0381E0089580E008958D
:100D5000DF92EF92FF920F931F93CF93DF93D82EE2
:100D60008A01EB017B01E40EF51ECE15DF0559F07B
:100D7000D7FE12C0FE0184910E947A06219681114D
:100D8000F4CF0FEF1FEFC801DF91CF911F910F91AB
:100D9000FF90EF90DF9008958881EECF2FB7F89401
:100DA00087708093E9009091E800892F807295FF09
:100DB00004C09091F20080E4891B2FBF08958F92A8
:100DC0009F92AF92BF92CF92DF92EF92FF920F93DA
:100DD0001F93CF93DF93B82E6B018A01809150044B
:100DE00081110FC08FEF9FEFDF91CF911F910F9176
:100DF000FF90EF90DF90CF90BF90AF909F908F903B
:100E000008958091F30380FF05C08091E000826027
:100E10008093E000C02FD12FF12C8AEFE82E8B2D8C
:100E20008770982E8B2D8074882E9AE3A92E209798
:100E300019F4FF2009F443C08B2D0E94CE068111C6
:100E40000AC0EA94EE2071F261E070E080E090E088
:100E50000E944806ECCF8C171D0611F00CF08C2F69
:100E60009FB7F8949092E9002091E80025FD02C018
:100E70009FBFDDCF282F30E0C21BD30BF60181507E
:100E800020F041914093F100FACFC20ED31EFF2013
:100E900021F0A092E800F12CEBCF8091E80085FDD5
:100EA00007C0A092E800FF24F394209709F3F3CF42
:100EB0002097F1F68820E1F2A092E800D9CF5D9862
:100EC00084E68093F203C8018FCF615030F0209107
:100ED000F100FC0120830196F8CF289884E68093E6
:100EE0004F040895AF92BF92DF92EF92FF920F935B
:100EF0001F93CF93DF935C018B01EB019BEFD92E06
:100F00002097C1F07E01C134D1051CF080E4E82EA9
:100F1000F12C8091E80082FFFCCFC8018C1B9D0B57
:100F20006E2D8A0D9B1D0E946507D092E800CE1998
:100F3000DF09E6CFC801DF91CF911F910F91FF909C
:100F4000EF90DF90BF90AF900895EF92FF920F93D4
:100F50001F93CF93DF938C017B01D0E0C0E0F701BA
:100F6000EC0FFD1F6491662361F0D801ED91FC91B7
:100F70000190F081E02DC8010995892B11F021968F
:100F8000EECFCE01DF91CF911F910F91FF90EF90A7
:100F900008958091E50381110DC082E08093E10303
:100FA00084E08093E2031092E4031092E30381E073
:100FB0008093E50381EE93E008950F931F93CF9301
:100FC000DF931F92CDB7DEB782E0898342E450E021
:100FD00067EC70E080E80E94A8060E94C907DC0167
:100FE00012960D911C910115110589F0D801ED9112
:100FF000FC910280F381E02DBE016F5F7F4FC8013D
:10100000099597FD04C0F80100851185ECCF898111
:101010000F90DF91CF911F910F910895CF93DF93A0
:10102000EC0180911201882331F083E00E94DF06F9
:101030001816190634F081E090E09B838A8380E0E3
:1010400090E0DF91CF910895CF93DF931F92CDB7BA
:10105000DEB76983DC01ED91FC910280F381E02D24
:1010600041E050E0BE016F5F7F4F09950F90DF9127
:10107000CF91089583E08093E9008091F200882366
:1010800019F08AE38093E800089583E00E94CE0679
:1010900090E00895CF93DF931F92CDB7DEB7FC01A8
:1010A0008485958597FD08C02FEF3FEF358724870E
:1010B0000F90DF91CF910895CE0101960E947F0598
:1010C000019719F4898190E0F3CF8FEF9FEFF0CF74
:1010D0000F931F93CF93DF931F92CDB7DEB78C0191
:1010E000FC018485958597FF0BC0CE0101960E9477
:1010F0007F05019771F4898190E0F80195878487D5
:10110000F801848595850F90DF91CF911F910F9104
:1011100008958FEF9FEFF1CFFC018485958597FDB2
:101120000BC09FB7F89482E08093E9008091F200B1
:101130009FBF90E0019608959FB7F89482E0809356
:10114000E9008091F2009FBF90E0089520919703FD
:10115000260F3327331F21323105ECF42091BB03D6
:10116000FC0190E080E0243069F082E00895A091D5
:1011700097032191AC0149585C4FA40FB52FB11DC5
:101180002C930196861798F380919703680F6093CC
:10119000970380E0089581E0089508958FEF9FEF11
:1011A00008958FEF9FEF08958091700390E09195DF
:1011B000819591090895CF93DF93CB01EA01642FC4
:1011C0000E94A608CE01DF91CF910895CF93DF93BF
:1011D0001F92CDB7DEB7698361E0CE0101960E9410
:1011E000A60881E090E00F90DF91CF91089590E004
:1011F00080E00895FC012FB7F89480914704909106
:101200004804A0914904B0914A042FBF4081518104
:1012100062817381841B950BA60BB70B44815581AA
:1012200066817781481759076A077B0730F4808504
:10123000882319F0108681E081870895DC01529699
:10124000ED91FC9130E020E03097A1F0DC01549664
:101250004D915C912417350758F44281538146170C
:10126000570741F00190F081E02D2F5F3F4FECCF09
:10127000F0E0E0E0CF010895CF93DF93CDB7DEB784
:10128000A0970FB6F894DEBF0FBECDBFFC01DB0107
:101290008C918F5F8C939E012D5F3F4F88E0D90129
:1012A0001D928A95E9F799E0998384E08A8382E028
:1012B0008D8383E08E839A8721E22B8791E09C8740
:1012C0009D872E879F8792E2988B47E04B8B95E016
:1012D0009C8B24E82D8B8E8B20E430E0388F2F8B75
:1012E00054E1598F4A8F9B8F9C8F8D8F3F8F2E8F0C
:1012F0008AE088A382818B8396858785998B8A8BE8
:1013000040E250E0BE016F5F7F4F80E00E94A80680
:10131000A0960FB6F894DEBF0FBECDBFDF91CF9180
:101320000895CF93DF938091680381116BC082E0B1
:101330008093520381E08093530328E533E0309398
:1013400055032093540310925703109256032DE235
:1013500031E030934F0320934E0310925B031092C1
:101360005A0310925D0310925C0380935E03809396
:101370005F0381EC8093580380EC809359030E94B3
:10138000C907FC01818190915203482F490F5527CD
:10139000551F483051059CF5A281B381109709F57E
:1013A0002EE433E033832283208120935003809303
:1013B000510380915303820F808320915403A22F05
:1013C000B09155038A2F821B8917C8F481813D9102
:1013D000C82FD0E0C050DF4F38838F5F8183F2CFBA
:1013E000D90118962D913C91199721153105C1F716
:1013F0002EE433E019963C932E931897D5CF81E0D5
:10140000809368038EE493E0DF91CF910895CF92AB
:10141000DF92EF92FF920F931F93CF93DF9300D051
:10142000CDB7DEB78C017B016A010E9491091A8356
:10143000098341E050E0BE016F5F7F4F84E00E946E
:10144000DF068C0197FD09C0A601B70184E40E9464
:10145000DF06080F191F97FD8C01C8010F900F9030
:10146000DF91CF911F910F91FF90EF90DF90CF9080
:101470000895FB0101900020E9F73197AF01461B69
:10148000570BDC01ED91FC910280F381E02D099472
:101490008F929F92AF92BF92EF92FF920F931F9302
:1014A000CF93DF93CDB7DEB7A1970FB6F894DEBF29
:1014B0000FBECDBF7C01FA01CB0119A2223008F486
:1014C0002AE08E010F5D1F4F822E912CB12CA12C92
:1014D000BF01A50194010E946B24F901CA016A3081
:1014E0000CF5605DD8016E938D01232B242B252BE9
:1014F00079F790E080E0109721F0BD01C7010E94CC
:10150000390AA1960FB6F894DEBF0FBECDBFDF91AA
:10151000CF911F910F91FF90EF90BF90AF909F9050
:101520008F900895695CDECF242FAB0170E060E0FE
:101530000C94480ACF92DF92EF92FF920F931F9381
:10154000CF93DF93EC016A017B01E881F98101907F
:10155000F081E02D6DE209958C0144275527BA01F1
:101560004C195D096E097F092AE0CE010E94480AE4
:10157000800F911FDF91CF911F910F91FF90EF90FE
:10158000DF90CF9008958F929F92AF92BF92CF92AB
:10159000DF92EF92FF920F931F93CF93DF937C0123
:1015A000EB016C0182E0C80ED11C4701E5E08E0E14
:1015B000911C10E000E0F60141916F0150E070E0F5
:1015C00060E02AE0CE010E94480A5C01E881F981CE
:1015D0000190F081E02D6EE2CE0109958A0D9B1DF0
:1015E000080F191FC814D90431F7F701458150E0DD
:1015F00070E060E02AE0CE010E94480A800F911F4F
:10160000DF91CF911F910F91FF90EF90DF90CF90DE
:10161000BF90AF909F908F90089564E571E00C9417
:10162000390A0F931F93CF93DF93EC01AB01770F30
:10163000660B770B77FF0DC00E949A0A8C01CE01D2
:101640000E940D0B800F911FDF91CF911F910F9181
:1016500008952AE00E94480AF1CF0F931F93CF9379
:10166000DF93EC010E94940A8C01CE010E940D0BC5
:10167000800F911FDF91CF911F910F9108950F93CC
:101680001F93CF93DF93EC010E94390A8C01CE01A6
:101690000E940D0B800F911FDF91CF911F910F9131
:1016A00008950F931F93CF93DF93EC01FB014481C7
:1016B000558160817181E881F9810280F381E02D9B
:1016C00009958C01CE010E940D0B800F911FDF91B7
:1016D000CF911F910F9108950F931F93CF93DF9395
:1016E000EC010E94A5078C01CE010E940D0B800F1A
:1016F000911FDF91CF911F910F91089581E0809309
:1017000043048AEA8093200485E58093210481E0E4
:1017100095EA909345048093440480E29CE1909381
:10172000230480932204909325048093240488E565
:1017300092E0909327048093260484E695E09093AA
:101740002904809328048EE794E090932B048093DF
:101750002A04109232041092310410923004109234
:101760002F0488E795E0909336048093350484E64F
:1017700090E090933404809333048AE080932C04A7
:1017800085E080932D0410922E0480911A01882305
:1017900031F06CEA70E087E894E00C946C0B0895EB
:1017A0000C94390ABF92CF92DF92EF92FF920F937F
:1017B0001F93CF93DF93DC01EB0158968D919C91A1
:1017C0005997892BB9F08D01B12CCB2CD12CF80174
:1017D000E08CF18CC7010E94BE22C816D90610F514
:1017E000F701EC0DFD1DE491DE01AC0DBD1DEC9388
:1017F000B394EBCF88E4888389E4898384E48A8383
:101800001E968C911E978F708F5B8B831E968D9189
:101810009C9124E0969587952A95E1F78F708F5BD0
:101820008C8385E0DF91CF911F910F91FF90EF9016
:10183000DF90CF90BF900895CF92DF92EF92FF920A
:101840000F931F93CF93DF9300D0CDB7DEB77C010A
:10185000FB011381133009F046C0628170E07F6F95
:101860000E941E09009709F46AC0DC011496FC90DE
:1018700014971596DC908F2D9D2D0E94BE22E82E88
:101880001A8381E08E0D880F898342E050E0BE010B
:101890006F5F7F4F80E00E94A806CF2C0F2D1D2D7B
:1018A000802F8C198E15E8F4F801849189831A82AF
:1018B00042E050E0BE016F5F7F4F80E00E94A806CB
:1018C0000F5F1F4F892B61F780E090E00F900F9022
:1018D000DF91CF911F910F91FF90EF90DF90CF900C
:1018E000089581E0F2CF8081813849F5123239F5CF
:1018F000D70112962C911297848195812817190689
:10190000F1F41C960D911C91D12CC12C01151105DF
:1019100089F0F801448155816281738180E80E94D9
:10192000A8068F3F980791F2C80ED91ED8010D91D5
:101930001C91ECCF81E0F701808BC601C7CF90E00E
:1019400080E0C4CFAF92BF92CF92DF92EF92FF922E
:101950000F931F93CF93DF93CDB7DEB7C857D1094D
:101960000FB6F894DEBF0FBECDBF8091D704909123
:10197000D804DC01ED91FC910680F781E02D0995FA
:101980000E9457059A8389838E010F5F1F4F6E0156
:10199000BBE3CB0ED11C78018FE9A82E86E0B82ED0
:1019A0000E945705F801819391938F01C50101971A
:1019B000F1F7CE16DF06A1F726E735E042E050E06A
:1019C0006DE170E0C7010E9413208D8D9E8DC85877
:1019D000DF4F0FB6F894DEBF0FBECDBFDF91CF91C2
:1019E0001F910F91FF90EF90DF90CF90BF90AF903D
:1019F00008950F931F93CF93DF93EC018881998112
:101A0000009759F02A813B812617370730F081E093
:101A1000DF91CF911F910F9108958B016F5F7F4FE1
:101A20000E944227009759F0998388831B830A8379
:101A30002C813D81232B59F7FC011082E8CF80E0F7
:101A4000E7CFCF93DF93EC0188819981009711F064
:101A50000E94B926198218821D821C821B821A825A
:101A6000DF91CF910895EF92FF920F931F93CF9341
:101A7000DF938C017B01EB0109900020E9F72197AE
:101A8000C61BD70BBE010E94F90C811109C0C80109
:101A9000DF91CF911F910F91FF90EF900C94210D4A
:101AA000F801D583C483B70180819181DF91CF9103
:101AB0001F910F91FF90EF900C941028EF92FF92DE
:101AC0000F931F93CF93DF93EC01FB01E080F18034
:101AD000E114F10411F10481158101151105A9F03A
:101AE0008C819D81080F191FB801CE010E94F90C4D
:101AF000882399F0288139818C819D81B701820FDB
:101B0000931F0E9410281D830C83CE01DF91CF917B
:101B10001F910F91FF90EF900895CE010E94210D2B
:101B2000F4CFFC0180819181009711F00C94B926CB
:101B300008950F931F93CF93DF93CDB7DEB76197CF
:101B40000FB6F894DEBF0FBECDBF8C01CB01F801FC
:101B500011821082138212821582148250E0BE011B
:101B60006F5F7F4F0E94DA22BE016F5F7F4FC80117
:101B70000E94330D61960FB6F894DEBF0FBECDBF45
:101B8000DF91CF911F910F9108950F931F93CF93E2
:101B9000DF93CDB7DEB729970FB6F894DEBF0FBE3F
:101BA000CDBF8C01862FF801118210821382128220
:101BB0001582148250E0BE016F5F7F4F90E00E945B
:101BC000DA22BE016F5F7F4FC8010E94330D299654
:101BD0000FB6F894DEBF0FBECDBFDF91CF911F913E
:101BE0000F9108952F923F924F925F926F927F9242
:101BF0008F929F92AF92BF92CF92DF92EF92FF921D
:101C00000F931F93CF93DF93CDB7DEB728970FB60F
:101C1000F894DEBF0FBECDBFE0E15E2EA11002C082
:101C20003AE0532EFB01608171816D30710521F026
:101C30006A30710509F0EEC0AF82170138012887BC
:101C40007A01A52CB12CA50170E060E001960E94FC
:101C50008021462E062F172F8091D7049091D8040B
:101C6000E016F10608F040C067EB78E00E94A50797
:101C7000B6018091D7049091D8040E94D00B67EAF6
:101C800078E08091D7049091D8040E94A5074AE09B
:101C900050E0B7018091D7049091D8040E94940A33
:101CA00064EA78E08091D7049091D8040E946C0B8C
:101CB00080E01092510428960FB6F894DEBF0FBE54
:101CC000CDBFDF91CF911F910F91FF90EF90DF90EB
:101CD000CF90BF90AF909F908F907F906F905F90CC
:101CE0004F903F902F90089508151905F8F463E977
:101CF00078E00E94A507B6018091D7049091D8049E
:101D00000E94D00B62E878E08091D7049091D804CB
:101D10000E94A5074AE050E0B4018091D704909159
:101D2000D8040E94940A6FE778E0BCCF6FE678E0B1
:101D30000E94A507FF81FF2341F06CE678E08091C7
:101D4000D7049091D8040E94A507E090D704F090A2
:101D5000D8048885882309F447C0452DF3016081A4
:101D6000CE0101960E94C50DBE016F5F7F4FC70176
:101D70000E94510BCE0101960E94910DF301408209
:101D800067E678E08091D7049091D8040E94A50777
:101D9000B6018091D7049091D8040E94D00B6DE5D4
:101DA00078E08091D7049091D8040E94A507FF8124
:101DB000FF2341F06AE578E08091D7049091D80440
:101DC0000E94A507A501B8018091D7049091D8047D
:101DD0000E942D0B64E378E08091D7049091D804A1
:101DE0000E946C0B81E065CFF10160817181452D0E
:101DF000CE0101960E94990DBE016F5F7F4FC70112
:101E00000E94510BCE0101960E94910DF1011183A8
:101E10000083B6CF80E04FCF1F93CF93DF9385ED44
:101E20008093BC008091730390917403A09175031B
:101E3000B09176030796A11DB11D23E0B695A79535
:101E4000979587952A95D1F72091BC0024FD03C072
:101E50001092BB0352C04091730350917403609180
:101E6000750370917603452B462B472B69F300973A
:101E7000A105B10541F02AE22A95F1F700C00197CA
:101E8000A109B109E1CF80917203C1E0C093710350
:101E9000882399F1D091B8001091BA008091BC00CC
:101EA0008A7B8093BC0060E082E00E94F50560E0E0
:101EB00083E00E94F5051092BB03C093BD0310920E
:101EC000BC0361E082E00E94F50561E083E00E94CE
:101ED000F5058091B9008E7F8093B9008091B9009B
:101EE0008D7F8093B90088E48093B80085E4809367
:101EF000BC001093BA00D093B800DF91CF911F912E
:101F00000895EF92FF920F931F93CF93DF93FC01FD
:101F10004281FB01248135814217130611F020E034
:101F200029C0EB0131812081213A81F5313051F511
:101F30002381233011F021E01DC0628170E00E94F6
:101F40001E09EC01009759F341E050E0BC016E5FBF
:101F50007F4F80E00E94A8061816190604F74E81EC
:101F60005F816C817D8180E00E94A80621E01816C7
:101F70001906ACF6822FDF91CF911F910F91FF9040
:101F8000EF90089521E0333051F6F4CF213239F645
:101F90003B3021F42281FC01208BCDCF3A3021F45B
:101FA0002281FC01218BC7CF393009F0B8CF2381C2
:101FB000233009F0B4CF628170E00E941E098C01C9
:101FC000009709F4ACCFEE80FF80FC0186819781F9
:101FD0000196E816F90609F0A2CF81E090E0E1143D
:101FE000F10409F0C7010E941D26EC01B7010E940F
:101FF00072072881F801828193812817190609F058
:102000008ECF46815781BE016F5F7F4F848195815E
:102010000E940728209709F48ECFCE010E94B9268E
:102020008ACFAF92BF92CF92DF92EF92FF920F933F
:102030001F93CF93DF937C016B015A01E901DC010F
:1020400052960D911C9190E080E00115110531F53B
:1020500089E090E00E941D26FC0111821082D3824B
:10206000C282B582A482DD27D783C683D701539667
:102070009C938E935297F701848995890196958B4D
:10208000848BDF91CF911F910F91FF90EF90DF90A4
:10209000CF90BF90AF90089501968901F8012281F9
:1020A00033812C153D0569F32081318121153105DE
:1020B00099F789E090E00E941D26FC0111821082B0
:1020C000D382C282B582A482DD27D783C683D8019A
:1020D0008D939C93D0CFEF92FF920F931F93CF934A
:1020E000DF93EC018B017A010E9491099701A8010D
:1020F000BE01DF91CF911F910F91FF90EF900C9453
:102100001110CF92DF92EF92FF920F931F93CF9314
:10211000DF93C82F6B018A010E9491096C2F70E038
:1021200021E030E0A6010E941110EC01892B89F01A
:102130000E9491097C01C8010E94BE22F6016081C3
:1021400070E07F6F9C01A801C7010E941110C80FA9
:10215000D91FCE01DF91CF911F910F91FF90EF908A
:10216000DF90CF9008951F920F920FB60F92112417
:102170002F933F938F939F93AF93BF938091470487
:1021800090914804A0914904B0914A0430914604CA
:1021900023E0230F2D3758F50196A11DB11D209383
:1021A00046048093470490934804A0934904B09355
:1021B0004A0480914B0490914C04A0914D04B0913D
:1021C0004E040196A11DB11D80934B0490934C04C5
:1021D000A0934D04B0934E04BF91AF919F918F9106
:1021E0003F912F910F900FBE0F901F90189526E8EA
:1021F000230F0296A11DB11DD2CF1F920F920FB6D1
:102200000F9211248F939F938091E1009091E100B0
:10221000937F9093E10083FF0FC01092E90091E05B
:102220009093EB001092EC0092E39093ED001092EB
:10223000500498E09093F00082FF22C093E09093C6
:10224000E9009091F200992319F09AE39093E80045
:102250009091F203992341F09091F2039150909361
:10226000F203911101C05D9A90914F04992341F0BE
:1022700090914F04915090934F04911101C0289A6E
:1022800084FF18C08091E2008E7E81608093E2001E
:102290008091E1008F7E8093E1008091F3038E7E38
:1022A00080618093F3039F918F910F900FBE0F90E9
:1022B0001F90189580FFF7CF8091E2008E7E80619D
:1022C0008093E2008091E1008E7E8093E100809116
:1022D000F3038E7E8160E5CF1F920F920FB60F92AF
:1022E0001124CF92DF92EF92FF920F931F932F93BF
:1022F0003F934F935F936F937F938F939F93AF938E
:10230000BF93EF93FF93CF93DF93CDB7DEB76C9777
:10231000DEBFCDBF1092E9008091E80083FF25C0A9
:1023200068E0CE0145960E94650782EF8093E80041
:102330008D8987FF39C09091E80090FFFCCF982FDE
:10234000907609F034C19E894F89588D2F89F88C79
:10235000911131C0803861F58091F4038093F100D0
:102360001092F1008EEF8093E8006C960FB6F8940F
:10237000DEBF0FBECDBFDF91CF91FF91EF91BF9137
:10238000AF919F918F917F916F915F914F913F910D
:102390002F911F910F91FF90EF90DF90CF900F90B2
:1023A0000FBE0F901F9018959EEF9093E800C7CF37
:1023B0001092F100D5CF913059F48111D3CF413033
:1023C000510581F68091F4038D7F8093F403CACF89
:1023D000933049F48111C6CF4130510519F68091EF
:1023E000F4038260F2CF953041F48091E80080FFE1
:1023F000FCCF20682093E300B5CF963009F0A9C048
:102400000B8D1C8D22E01092E9001092F0031092C7
:10241000EF03F2122EC01092EE031092ED030E9411
:10242000DD071F8299E09983FA8291E09E8390EA0A
:1024300098879AEF99872091EF033091F003275FF7
:102440003F4F3C832B838D831092E9001092F00361
:102450001092EF031093EE030093ED0349E050E078
:10246000BE016F5F7F4F80E00E94A8060E94DD07DB
:1024700079CF1093EE030093ED030E94C907DC01AE
:1024800012960D911C910115110509F44BC1D8014B
:10249000ED91FC910480F581E02DBE016B5E7F4FD4
:1024A000C8010995009709F038C1F8010085118528
:1024B000EACFF3E0FF120EC08F89882309F440C0F1
:1024C000823061F440E860E18BE291E00E94B31455
:1024D000811148CF81E28093EB0047CF813029F40E
:1024E00040E86BE08FE191E0F1CF833099F70E94F3
:1024F000C907DC011296ED90FC908E010F5F1F4F13
:102500006801E114F10479F0D701ED91FC910680A6
:10251000F781E02DB801C7010995080F111DF701DA
:10252000E084F184EECFD8011C92F60101900020E6
:10253000E9F73197BF016C197D0940E0C601C6CFAC
:1025400069E071E0FB01449150E080E80E94A80638
:1025500009CF973009F4BECF983021F481E0809301
:10256000F10000CF993009F0FDCE837009F0B2CFB1
:10257000E1E0F1E081E031E096E32191222371F086
:102580008093E9003093EB00DF0111972C912093A9
:10259000EC009093ED008F5F873079F78EE78093A2
:1025A000EA001092EA008F8980935004DBCE8B8D75
:1025B0009C8D1092E9001092F0031092EF0390931B
:1025C000EE038093ED03898D81118CC08E899D89E6
:1025D000913A49F4813209F07DCF47E050E06BE059
:1025E00071E080E0B3CF913209F074CF833269F4A7
:1025F0008F89988DB0E0A0E0809307019093080147
:10260000A0930901B0930A01ADCE803239F467E09E
:1026100070E08BE091E00E947207A4CE823209F054
:10262000A1CE8F8980931201EEEFFFE785919491FF
:102630008B3F9C4D51F1E0E0F8E080910B019091CF
:102640000C01A0910D01B0910E01803B9440A105B9
:10265000B105F1F48091120180FD1AC0EE3F8AE0CD
:10266000F80789F587E797E7918380838091600079
:102670008093F10388E19BE00FB6F894A8958093CE
:1026800060000FBE909360006DCEEEEFFAE0D5CF04
:10269000808191818737974709F064CEA895809112
:1026A00060008861809360008091F10380936000F6
:1026B000EE3F2AE0F20789F08091FE0A9091FF0A2E
:1026C000918380834FCE808191818737980751F223
:1026D0009093FF0A8093FE0AC5CF1092FF0A1092D2
:1026E000FE0A40CE0E94C907DC0112960D911C9192
:1026F0000115110509F4EECED801ED91FC91019080
:10270000F081E02DBE016B5E7F4FC80109958111FC
:1027100029CEF80100851185EBCF181619060CF4A7
:1027200021CED8CEF1E0FF12C4CE6DE071E00ACF29
:102730001F920F920FB60F9211242F933F934F9336
:102740005F936F937F938F939F93AF93BF93EF9319
:10275000FF938091B900887F803609F44AC0F0F574
:10276000883209F4A5C018F5803109F499C0B8F48D
:10277000882309F4F5C0883009F492C0FF91EF91E5
:10278000BF91AF919F918F917F916F915F914F9189
:102790003F912F910F900FBE0F901F901895883189
:1027A00009F486C0803251F78093BA0314C0803494
:1027B00009F49BC040F48033B9F38833F9F6809371
:1027C000BA0385ECAEC0803509F483C0883509F4BE
:1027D00094C0883499F60E940C0FD0CF883909F440
:1027E0008AC038F5883729F050F4883611F08037E0
:1027F00029F683E08093BB031092B90355C0883853
:1028000009F479C0803919F0803809F0B7CF809188
:10281000B903803208F06FC0E091B90381E08E0FF8
:102820008093B9038091BB00F0E0E756FC4F8083B2
:102830003BC0803B39F0D0F4803A09F477C0883A45
:1028400009F09CCF84E08093BB0310929803109210
:102850009703F0E0E0E009958091970381110FC0A4
:1028600081E0809397031092770309C0803C09F4BC
:10287000A8CF883C09F4A5CF883B09F07FCFE09131
:10288000980381E08E0F80939803F0E0E958FC4FA5
:1028900080818093BB00909198038091970329C019
:1028A0008091E0038093BB0085EC8093BC0066CFF1
:1028B0009091DF038091DE03981758F5E091DF03D4
:1028C00081E08E0F8093DF03F0E0E254FC4F8081C3
:1028D000E9CFE091DF0381E08E0F8093DF038091E9
:1028E000BB00F0E0E254FC4F80839091DF038091C5
:1028F000DE039817C8F285E8D8CFE091DF0381E0C6
:102900008E0F8093DF038091BB00F0E0E254FC4F18
:1029100080838091BD0381115ECF81E08093BC03F1
:1029200084EA8093BC001092BB0328CF85EC80938F
:10293000BC001092BB038091B903803230F4E09167
:10294000B903F0E0E756FC4F10826091B90370E0E4
:1029500089E993E0F0E0E0E009951092B9030ECF29
:102960001092BA0338CFEF92FF920F931F93CF9339
:10297000DF93F82E192FE62E042F81E0860F880FA3
:102980000E947A0683E00E947A06CF2DD12FEC0EAA
:10299000FD2EF11CCE15DF05B9F007FF13C0FE01B7
:1029A00084910E947A06182F80E00E947A06812383
:1029B00021968111EFCFDF91CF911F910F91FF9061
:1029C000EF9008958881EDCF81E0F5CF10928A04D1
:1029D0001092890488EE93E0A0E0B0E080938B042D
:1029E00090938C04A0938D04B0938E0480E491E0C6
:1029F00090938804809387048FEF9FEF90939404C3
:102A00008093930482E591E0909353048093520461
:102A100010925404109255041092560410925704C8
:102A200082E08093660481E08093670493E0909352
:102A3000680490915E04911112C010925904109292
:102A4000580427EC38E030935B0420935A0420E9C3
:102A500031E030935D0420935C0480935E040E9417
:102A60009109FC01A485B585109781F588E594E06E
:102A7000958784878685978520915C0430915D04D5
:102A8000820F931F9787868782E591E09093DA04FF
:102A90008093D9041092DB041092DC041092DD04C0
:102AA0001092DE0487E894E09093D8048093D704D2
:102AB000109286041092850410927C0410927B047C
:102AC00010927204109271040895DC018D919C9112
:102AD00011970097D1F788E594E08D939C93CACF26
:102AE000CF93DF93CDB7DEB7A2970FB6F894DEBFD2
:102AF0000FBECDBF789484B5826084BD84B58160FB
:102B000084BD85B5826085BD85B5816085BD8091B8
:102B10006E00816080936E00109281008091810030
:102B20008260809381008091810081608093810028
:102B3000809180008160809380008091910082600C
:102B400080939100809191008160809391008091A9
:102B500090008160809390008091C1008460809398
:102B6000C1008091C10082608093C1008091C1004A
:102B700081608093C1008091C30081608093C30015
:102B80008091C00082608093C0008091C20081600B
:102B90008093C20080917A00846080937A00809153
:102BA0007A00826080937A0080917A0081608093BD
:102BB0007A0080917A00806880937A0010925004A5
:102BC0001092F4031092F3038091D70081608093F8
:102BD000D70080EA8093D80089B5806189BD89B526
:102BE000826089BD09B400FEFDCF61E070E080E045
:102BF00090E00E9448068091D8008F7C806180938D
:102C0000D8008091E000807F8093E0008091E10017
:102C10008E7E8093E1008DE08093E200559A209AA9
:102C20008FEF9FEF909394048093930464EF71E08F
:102C300080E090E00E94480680911A01882321F0EC
:102C400087E894E00E940D0B80911A01882331F0EF
:102C500069E172E087E894E00E946C0B80911A01B0
:102C6000882331F061EC71E087E894E00E946C0BFE
:102C700080911A01882331F067E571E087E894E0DC
:102C80000E943F0B80911A01882331F06BE771E0BD
:102C900087E894E00E943F0B40E2E42E44E0F42EEB
:102CA00010E000E0C8010E943124D7018D937D011E
:102CB0000F5F1F4F06321105A9F7809120048A3A51
:102CC00009F083C280912104853509F07EC280918C
:102CD0004404909145048130954A09F076C2809170
:102CE0004304817080931A01882331F064EA71E013
:102CF00087E894E00E946C0B0E9491090E94910960
:102D000021E030E046E654E061E070E00E941110FE
:102D10000E94910921E030E048E654E062E070E072
:102D20000E9411100E94910921E030E047E654E032
:102D300063E070E00E9411100E94910929E531E0E2
:102D4000FC01318F208F0E94910927E834E0DC01DB
:102D500057963C932E935697EEEEF7E02491EFECC6
:102D6000F7E084918823C9F090E0880F991FFC0157
:102D7000E45CFE4FA591B491FC01E354F84F4591FA
:102D800054919FB7F8943C91822F809583238C9324
:102D9000DA018C91282B2C939FBFE1E0F8E024917D
:102DA000E2EEF7E084918823C9F090E0880F991F44
:102DB000FC01E45CFE4FA591B491FC01E354F84F93
:102DC000459154919FB7F8948C91E22FE0958E2312
:102DD0008C93DA018C91E823EC939FBF61E08DE046
:102DE0000E94F50580911E0490911F0485609160FA
:102DF00090931F0480931E0442E050E06EE174E063
:102E000087E090E00E946B1042E050E06EE171E0DC
:102E10008DE090E00E946B1042E050E062E274E0CE
:102E20008AE190E00E946B1042E050E064E274E0BE
:102E30008CE190E00E946B1042E050E066E274E0AA
:102E400088E090E00E946B1042E050E068E171E0A1
:102E500083E190E00E946B1042E050E06BE171E092
:102E600082E190E00E946B1041E050E067E171E088
:102E700086E090E00E946B1041E050E066E171E076
:102E800086E190E00E946B1042E050E06AE371E05E
:102E90008AE090E00E946B1042E050E064E171E053
:102EA0008BE090E00E946B1044E551E069E371E033
:102EB0008FE10E9481104AE451E068E371E080E212
:102EC0000E94811041E050E063E171E084E190E014
:102ED0000E946B1041E050E067E371E087E190E011
:102EE0000E946B1041E050E06DE171E08EE090E0F7
:102EF0000E946B1041E050E060E271E08CE090E0F5
:102F00000E946B1041E050E06CE274E08FE090E0D2
:102F10000E946B1041E050E06DE274E081E190E0CE
:102F20000E946B1041E050E066E371E080E190E0C8
:102F30000E946B1041E050E065E371E088E190E0B1
:102F40000E946B1080912804909129049093220193
:102F50008093210141E050E060E271E08CE090E07C
:102F60000E94070A42E050E06EE174E087E090E0E2
:102F70000E94070A909316048093150480911A0109
:102F8000882309F45DC060911E0470911F0440E124
:102F9000CE0101960E94990D4AE060912001CE0178
:102FA00043960E94C50D1A8E198E1C8E1B8E1E8E86
:102FB0001D8E6DE270E0CE0149960E94F90C8111E0
:102FC00011C1CE0149960E94210DBE016D5E7F4F59
:102FD000CE0149960E945E0D8C01FC01E480F580D3
:102FE000F1E1EF0EF11CB7010E94F90C882309F4FE
:102FF00004C1D8012D913C91119714968D919C910B
:1030000067EB71E0820F931F0E941028F801F58290
:10301000E482BE016F5F7F4FC8010E945E0DBC015C
:1030200087E894E00E94510BCE0149960E94910DD1
:10303000CE0143960E94910DCE0101960E94910D02
:10304000109286042FB7F894809147049091480419
:10305000A0914904B0914A042FBF80937D049093BE
:103060007E04A0937F04B09380048AE090E0A0E007
:10307000B0E08093810490938204A0938304B09382
:10308000840481E0809385041CE3612E712CBB24B1
:10309000B394BCE35B2E87E894E00E948C088C011B
:1030A000892B09F46FC487E894E00E944A088C01D8
:1030B00080911A01882329F0602F87E894E00E940C
:1030C0002408E0915104EE3108F057C40D30110589
:1030D00099F00A30110581F00F3E110569F0C80121
:1030E0008B7F8B3B910541F081E08E0F80935104E3
:1030F000F0E0EB50FC4F0083E0915104F0E0EB5026
:10310000FC4F108280911A01882331F06DEA77E03C
:1031100087E894E00E94A50780911A01882331F086
:1031200065EF73E087E894E00E94D00B80911A016C
:10313000882331F06BEA77E087E894E00E946C0B1B
:1031400080915104882309F495C01A8F098F87E86C
:1031500094E09093D8048093D7040D30110521F0AA
:103160000A30110509F097CF8091F503082E000C65
:10317000990B0E94FF27883409F491C20CF086C095
:10318000833409F426C2ECF58F3309F488C2823403
:1031900009F487C163E077E087E894E00E94A5071F
:1031A00065EF73E087E894E00E94D00B60ED72E079
:1031B00087E894E00E943F0B63ED72E087E894E0BB
:1031C0000E943F0B1092F5034FC080911A01882393
:1031D00031F06FE571E087E894E00E946C0B0E948B
:1031E0007E0B8ACD8DE290E09E8F8D8F69E871E035
:1031F000898D9A8D0E941028E8CEC8010E94210D69
:1032000008CF843409F49EC3853421F68091F603F7
:10321000082E000C990B0E94FF278E3409F034C150
:103220000D30110519F00A301105F1F487EF93E024
:103230000E9497228C01029708F4D5C063EF76E0D4
:1032400087E894E00E94A50769EC71E08091D704BB
:103250009091D8040E94D00B63ED76E08091D70462
:103260009091D8040E946C0B1092510480915104EB
:10327000811111CF80911A01882309F40CCF6FEDD1
:1032800072E087E894E00E94D00B05CF843509F402
:1032900038C104F58E3409F46DC320E2E22E24E037
:1032A000F22E10E000E0833509F074CFF701D190E1
:1032B0007F01C8010E943124D81621F06D2DC8016C
:1032C0000E9439240F5F1F4F0632110579F76BE812
:1032D00077E027C38A3509F427C38E3709F05ACF20
:1032E00066E572E087E894E00E94A50710E000E040
:1032F000F12CE12CD12CC701800F911F0E943124A9
:103300008F3F11F0DD24D394FFEFEF1AFF0A20E185
:10331000E216F10481F70115110519F0DD2009F419
:1033200054C061E572E087E894E00E94A5076FE46D
:1033300072E087E894E00E94A5070F3F110509F0AD
:1033400078F46DE472E087E894E00E94A50700310C
:10335000110530F46BE472E087E894E00E94A50761
:1033600040E150E0B80187E894E00E94940A69E4E3
:1033700072E087E894E00E94A5076801F12CC6017D
:103380000E943124E82E3FE0381730F067E472E005
:1033900087E894E00E94A5074E2D50E070E060E0C1
:1033A00020E187E894E00E94480A4FE0F41631F0EB
:1033B00065E472E087E894E00E94A5075FEFC51A14
:1033C000D50AF39480E1F812DACF005F1F4F0115A0
:1033D00094E0190709F08CCF61E372E087E894E08C
:1033E0000E94A50741CF63EC76E087E894E00E9455
:1033F000A507E090D704F090D80480912E041C8A91
:103400001B8A1E8A1D8A188E1F8A4AE0BE016F5FC2
:103410007F4F90E00E94C722BE016F5F7F4FCE01B9
:1034200043960E94330DBE016D5E7F4FC7010E941F
:10343000510BCE0143960E94910D017000932E0412
:103440006EEB76E08091D7049091D8040E94A50796
:1034500069EC71E08091D7049091D8040E94D00B60
:1034600064EB76E08091D7049091D8040E94A50780
:1034700060912E0470E08091D7049091D8040E944E
:10348000110B6EE876E0EACE66EE71E087E894E034
:103490000E94D00B65EF73E087E894E00E943F0B39
:1034A000E3CE8091F603082E000C990B0E94FF27B3
:1034B0008534D9F0863441F7912C812CA12CF7E08A
:1034C000CF2EF2E0DF2EA8E2EA2EA4E0FA2E8E0143
:1034D0000F5F1F4F20E048E55BE1BE01675E7F4F55
:1034E00086EF93E00E94F20DBFCE912C812CA12C8F
:1034F0007DE1C72E72E0D72EEAE2EE2EE4E0FE2E4A
:10350000E6CF8091F603082E000C990B0E94FF274E
:10351000833429F0843481F164E772E0B7CF80917D
:10352000220490912304B3010E9457247A83698373
:10353000912C812CA12C6DE2C62E62E0D62E9E012C
:103540002F5F3F4F79018E010D5E1F4F20E040E459
:103550005FE1BE01675E7F4F86EF93E00E94F20D50
:1035600029813A81529EC001539E900D112490935F
:1035700023048093220478CE809124049091250422
:10358000B3010E9457247A836983912C812CA12C4A
:103590005FE4C52E52E0D52EAE014F5F5F4F7A013A
:1035A0008E010D5E1F4F20E040E45FE1BE01675ECB
:1035B0007F4F86EF93E00E94F20D29813A81529E5F
:1035C000C001539E900D11249093250480932404F0
:1035D0004BCE8091F603082E000C990B0E94FF271A
:1035E000883481F18C3409F04FCF8091310490916F
:1035F00032049A838983912C812CA12C4EE8C42E0D
:1036000042E0D42ECE0101967C018E010D5E1F4F4B
:1036100020E040E45FE1BE01675E7F4F86EF93E00C
:103620000E94F20D882309F41FCE89819A8190931C
:103630003204809331040E94A20C90933004809352
:103640002F0412CE80913504909136049A83898399
:10365000912C812CA12C33EAC32E32E0D32EDE0133
:1036600011967D018E010D5E1F4F20E040E45FE169
:10367000BE01675E7F4F86EF93E00E94F20D8823C4
:1036800009F4F2CD89819A819093360480933504B0
:103690000E94A20C9093340480933304E5CD809172
:1036A000F603082E000C990B0E94FF27853409F4BD
:1036B000DBCD813509F4D8CD60E876E087E894E089
:1036C0000E946C0B87E894E00E940D0B67E676E0A1
:1036D00087E894E00E946C0B67E571E087E894E06E
:1036E0000E943F0B87E894E00E940D0B65E576E0B1
:1036F00087E894E00E946C0B63E276E087E894E050
:103700000E94A50760912E0470E087E894E00E9473
:10371000110B63EF75E087E894E00E94A50787E846
:1037200094E00E940D0B61EC75E087E894E00E9444
:10373000A50760912804709129044AE050E087E8C9
:1037400094E00E942D0B6FE875E087E894E00E94FA
:10375000A50760912A0470912B044AE050E087E8A5
:1037600094E00E942D0B6DE575E087E894E00E94DF
:10377000A5078091220490912304B3010E9457244D
:103780004AE050E087E894E00E942D0B6BE275E080
:1037900087E894E00E94A507809124049091250475
:1037A000B3010E9457244AE050E087E894E00E9469
:1037B0002D0B69EF74E087E894E00E94A507609103
:1037C0003104709132044AE050E087E894E00E94AE
:1037D000940A62EF74E087E894E00E946C0B66ED57
:1037E00074E087E894E00E94A50760912F0470912F
:1037F00030044AE050E087E894E00E94940A64EDC7
:1038000074E087E894E00E946C0B62EA74E087E859
:1038100094E00E94A50760913504709136044AE057
:1038200050E087E894E00E94940A6BE974E087E82E
:1038300094E00E946C0B6EE774E087E894E00E94CD
:10384000A50760913304709134044AE050E087E8A2
:1038500094E00E94940A6CE774E087E894E00E9488
:103860006C0B6EE474E087E894E00E946C0B6DE0F2
:1038700074E087E894E00E946C0B61ED73E087E8E8
:1038800094E00E946C0B64E973E087E894E00E9486
:103890006C0B68E573E087E894E00E946C0B6BE1C9
:1038A00073E087E894E00E946C0B6DEE72E087E8AD
:1038B00094E00E946C0B6BEB72E087E894E00E944E
:1038C0006C0B61EB72E087E894E00E946C0B6CE893
:1038D00072E087E894E00E94A5074091430450E01D
:1038E00070E060E020E187E894E00E94480A87E801
:1038F00094E00E940D0B66E772E087E894E00E9476
:10390000A507609121017091220187E894E00E944F
:10391000110B6CE672E087E894E00E946C0B6FE795
:1039200076E087E894E09ECC0E947E0B66E377E029
:1039300087E894E00E946C0B80914304817080932F
:103940001A0192CC912C812CAA24A3949BEBC92E12
:1039500092E0D92EDE0111967D0103E414E021E00E
:103960004FEF50E0BE01675E7F4F85EF93E00E940E
:10397000F20DE2CF66E177E0D4CF109251041092BD
:10398000F50374CC89E694E00E94FA0880917204F1
:1039900090917104911121C028EE33E040E050E095
:1039A00020936D0430936E0440936F045093700421
:1039B0009FB7F8944091470450914804609149049E
:1039C00070914A049FBF4093690450936A046093C6
:1039D0006B0470936C04B09271041092720488238B
:1039E00009F411C2EDE0F8E08491EEEEF7E0F49016
:1039F000EFECF7E0E490EE2099F081110E94A90528
:103A0000EE2DF0E0EE0FFF1FE155F84FA591B491B8
:103A10008C91F82291E080E009F490E0092F182FB2
:103A20000E945705C0903104D0903204F12CE12C53
:103A300020902F0430903004512C412C20913504DB
:103A40003091360450E040E02C193D094E095F09E1
:103A5000BC01990F880B990B6219730984099509A8
:103A60000E944724209133043091340450E040E018
:103A700022193309440955090E948D24C20ED31E10
:103A8000E41EF51ED7FC3EC2D0922201C092210155
:103A900080912E04882309F457C2C0902A04D09044
:103AA0002B04F12CE12C2091210130912201032ED5
:103AB000000C440B550B2C193D094E095F09A4E677
:103AC000B0E00E94AC24209128043091290450E0F9
:103AD00040E02C193D094E095F090E948D24F12C0C
:103AE00037FD06C02536310514F024E630E0F22E0D
:103AF000F0922001609124047091250490E080E010
:103B00000E9412231B012C016F2D70E090E080E0D9
:103B10000E9414239B01AC01C201B1010E947323D6
:103B200020E030E048EC52E40E946A251B012C01A1
:103B300020E030E0A9010E94122620E030E040E0C1
:103B40005FE387FDE4C1C201B1010E94FE240E942F
:103B5000DC2570931F0160931E0180911E049091DB
:103B60001F040115110509F4D7C1856090931F0446
:103B700080931E0480911E0490911F0420911D01CA
:103B8000F212CCC1916090931F0480931E04809127
:103B90001E0490911F040115110509F0C4C1209164
:103BA0002604309127046217730708F0B9C18262B6
:103BB00090931F0480931E0480911E0490911F0413
:103BC00020911B0130911C01121613060CF0ADC19F
:103BD000946090931F0480931E0480911A0188239F
:103BE00031F066EE72E087E894E00E943F0B80912E
:103BF0001E0490911F049C0120723470232B09F441
:103C00009AC1986090931F0480931E0480911A01BA
:103C1000882331F069EF72E087E894E00E943F0B5F
:103C200080911E0490911F04886090931F048093DC
:103C30001E0420911C0430911D0482179307B9F4CF
:103C40009091200180911B04981311C020911E01B6
:103C500030911F018091190490911A042817390797
:103C600031F480911704909118044B97F4F141E0DE
:103C700050E060E271E08CE090E00E94070A012BC6
:103C800041F442E050E06EE171E08DE090E00E948E
:103C9000070A42E050E06EE174E087E090E00E94A5
:103CA000070A90931604809315041092180410923A
:103CB000170420911E0430911F0430931D0420939B
:103CC0001C042091200120931B0420911E0130919F
:103CD0001F0130931A042093190497FD32C181E02B
:103CE00090E0909314048093130480912E04882311
:103CF00009F475C080911A01882331F06BEA71E0F4
:103D000087E894E00E94D00B80911A01882351F03B
:103D10004091200150E070E060E02AE087E894E004
:103D20000E94480A80911A01882331F06BE073E009
:103D300087E894E00E94D00B80911A01882369F0F3
:103D400080911E0190911F01B3010E9457244AE007
:103D500050E087E894E00E94940A80911A01882339
:103D600031F06DE173E087E894E00E94D00B809120
:103D70001A01882371F080911E0190911F01B301F7
:103D80000E9457244AE050E0BC0187E894E00E947A
:103D9000940A80911A01882331F06FE173E087E87B
:103DA00094E00E94D00B80911A01882371F0409119
:103DB000150450911604052E000C660B770B77FF47
:103DC000C8C087E894E00E949A0A80911A0188236B
:103DD00031F06FE373E087E894E00E94D00BB0927B
:103DE0001A0162E473E087E894E00E94D00B8091AE
:103DF0001A01882341F0609121017091220187E826
:103E000094E00E94110B809113049091140481306E
:103E1000910509F4A4C008F4B4C0029709F4A8C03D
:103E20008DE794E00E94FA08809186048111109237
:103E3000850410928604882341F110927C042FB7E8
:103E4000F8948091470490914804A0914904B0915E
:103E50004A042FBF8093730490937404A093750455
:103E6000B09376044F8D58A1CA01B0E0A0E08093D2
:103E7000770490937804A0937904B0937A04B09275
:103E80007B0460E08DE00E94F50583E794E00E94EA
:103E9000FA0880917C04811110927B0410927C04BA
:103EA000882341F1109286042FB7F894809147043B
:103EB00090914804A0914904B0914A042FBF809387
:103EC0007D0490937E04A0937F04B0938004E9A1C5
:103ED000FAA1CF01B0E0A0E0809381049093820426
:103EE000A0938304B0938404B092850461E08DE0D4
:103EF0000E94F50580E090E0892B09F4CAC80E9471
:103F00000000C5C81092220110922101C1CDC2014A
:103F1000B1010E94FD241BCE8A7F28CE9E7F33CE26
:103F20008F7D826045CE8D7D43CE9B7F90931F0415
:103F300080931E045CCE977F90931F0480931E0491
:103F40006FCE82E090E0CDCE109214041092130454
:103F5000CCCE2AE087E894E00E94480A36CF24E6D7
:103F600030E038A32F8F44E853E05AA349A358CF39
:103F700084E893E098A38F8FA4E6B0E0BAA3A9A346
:103F80004FCFE4EFF1E0F8A3EF8F24EF31E03AA355
:103F900029A346CFCF93DF93DC012D91FB01319113
:103FA000EC013883EB01288341505109CD01BF0159
:103FB000141615068CF3DF91CF910895B0E0A0E0C0
:103FC000E4EEFFE10C94C1246C01D62FC72F8A01C7
:103FD0007901F9010995B80197FF15C08D2F9C2F24
:103FE000F701099597FD08C0B801C601F7010995C9
:103FF00097FD16C0DC2DCD2D8D2F9C2FCDB7DEB7B4
:10400000E8E00C94DD248D2F9C2FF70109951816FC
:10401000190694F3B801C601F701099597FDEACF97
:10402000D02FC12FE9CFA8E0B0E0E9E1F0E20C9495
:10403000B7248C0158874F8359019A0131952195F6
:1040400031093E832D836F807884600E711E673046
:10405000710578F58F819885689F6001699FD00C04
:10406000789FD00C1124C00ED11E6C147D0420F05A
:104070002896E2E10C94D324730113C047012F81E9
:104080003885821A930AB701C401F50109951816FB
:10409000190654F44F815885B401C7010E94CA1F04
:1040A00074010E151F0550F3EF81F8856E0E7F1E0B
:1040B000DCCFCB01969587952F813885829F600153
:1040C000839FD00C929FD00C1124C00ED11ECB0127
:1040D0000197829F1001839F300C929F300C112416
:1040E0007801E20CF31C6730710509F442C0C70186
:1040F000280169327105B0F183E0769567958A955C
:10410000E1F7629F4001639F900C729F900C112415
:10411000C401880F991F9A838983AC01400F511FF6
:10412000B801680D791D9501C8010E94DE1F2C01A0
:10413000A601480D591D9194819491089501B601ED
:10414000C601880D991D0E94DE1F6C01B701680D24
:10415000791D9501A701C701E981FA818E1B9F0B8B
:104160000E94DE1F9501AC01B601C2010E94DE1F54
:104170006C014F815885B601C8010E94CA1F4301D6
:10418000630127011A821982EC14FD0408F446C069
:10419000B801C601F50109951816190654F1892BC5
:1041A00071F44F815885B601C3010E94CA1F2F8147
:1041B0003885620E731E81E090E09A838983EF81D7
:1041C000F885CE0EDF1EE0CF892B71F44F81588524
:1041D000B201C7010E94CA1F2D813E81420E531EAB
:1041E00081E090E09A838983EB80FC80EC14FD04ED
:1041F000A8F0B801C701F50109952D813E812E0D6A
:104200003F1D3C832B8397FFDFCF4F815885B7013C
:10421000C6010E94CA1FEB80FC80CDCFEF81F885DC
:104220002E0E3F1E200E311E29813A81232B09F5C7
:104230008214930408F01CCF740113C06701EF814E
:10424000F885CE1ADF0AB701C601F50109951816DF
:10425000190654F44F815885B601C7010E94CA1F40
:1042600076010E151F0550F38F819885880E991ED3
:10427000DFCF460186189708A301401B510B841617
:1042800095060CF4A4011416150634F4B601641B4B
:10429000750BC8010E94CA1F92012E193F097901AE
:1042A000A101441955098F819885481B590B241782
:1042B000350708F4A9011416150634F4B101641B7E
:1042C000750BC6010E94CA1FEF81F885E815F90534
:1042D00048F4C401BF010E9457249501AF01C801F1
:1042E0000E9413202F8138852E153F0508F0C0CE7F
:1042F00081010E191F09C701B9010E945724A3CEDD
:10430000B0E0A0E0E6E8F1E20C94B8245C016B01B7
:104310007A016115710519F0FB0191838083E11425
:10432000F10451F0C7010297839730F040E030E08C
:1043300020E090E072C05E01E5012196F501108158
:10434000812F90E00E94B522892BA9F71D3201F53B
:104350002196F501118101E0E114F10409F4DAC0BC
:10436000F0E1EF16F10409F082C0103359F48881AE
:104370008F7D883509F076C0198122960260F0E1C0
:10438000EF2EF12C812C912CA12C88E0B82E8CC022
:104390001B3221F4E5012296F501118100E0DCCF0A
:1043A000EAE0EE16F10409F4BBC0F0E1EF16F10407
:1043B00009F06DC0E7CF78E0E72EF12C812C912C2D
:1043C000A12C60E1B62E70C03FE9310F3A3128F4DC
:1043D00039EA332E80C021E09AC0302F3170C114E9
:1043E000D10431F0222309F12197F601D183C08352
:1043F00027FF21C060E070E080E090E8311104C048
:104400006FEF7FEF8FEF9FE722E230E03093E00421
:104410002093DF04462F372F282F642F732F822FEE
:10442000CDB7DEB7E1E10C94D42401FF04C022979C
:10443000F601D183C083332341F090958095709528
:1044400061957F4F8F4F9F4FE5CF97FFE3CF82E27C
:1044500090E09093E0048093DF046FEF7FEF8FEFA5
:104460009FE7D8CF10E3E114F10409F4A4CF28E0CA
:10447000E216F10409F4A2CF0CF092CF812C912C1A
:10448000A12CE0E4BE2E82E0E816F10469F060E0C1
:1044900070E080E090E897010F2C000C440B550B66
:1044A0000E946B2449015A0120E060E070E0CB01DA
:1044B00027010F2C000C66087708FE0150ED352E01
:1044C000310E39E0331540F43FEB310F3A3108F04B
:1044D0007BCF49EC342E310E3E141F040CF07DCFFF
:1044E00027FD15C086169706A806B90678F0A30121
:1044F00092010E944724630D711D811D911D613041
:104500007105810520E8920708F465CF2FEF219609
:104510001081D3CF103309F42ACF2AE0E22EF12CF8
:104520009CEC892E982CA82C9CE0B92EBDCFFC01C8
:1045300088279927E89421912032E9F3293010F057
:104540002E30C8F32B3241F02D3239F4689404C078
:104550000E94D222820F911D219120532A30C0F354
:104560001EF4909581959F4F089591110C94FF2210
:10457000803219F089508550C8F70895FC010590E4
:104580000020E9F7809590958E0F9F1F0895BB2717
:104590004A3031F4992322F4BDE2909581959F4FE2
:1045A0000C94E6227AE0979F902D879F802D910DA5
:1045B000112408954532510520F4423010F00C9436
:1045C000E522FB011082CB010895BB27FB01552793
:1045D000AA27880F991FAA1FA41710F0A41B839560
:1045E0005051B9F7A05DAA3308F0A95DA1930097D7
:1045F00079F7B111B1931192CB010C940223992751
:1046000088270895DC01FC01672F71917723E1F77A
:10461000329704C07C916D9370836291AE17BF078F
:10462000C8F30895E89409C097FB3EF490958095EF
:10463000709561957F4F8F4F9F4F9923A9F0F92F68
:1046400096E9BB279395F695879577956795B795E6
:10465000F111F8CFFAF4BB0F11F460FF1BC06F5FCC
:104660007F4F8F4F9F4F16C0882311F096E911C0DE
:10467000772321F09EE8872F762F05C0662371F0FF
:1046800096E8862F70E060E02AF09A95660F771F13
:10469000881FDAF7880F9695879597F90895990FEF
:1046A0000008550FAA0BE0E8FEEF16161706E807FC
:1046B000F907C0F012161306E407F50798F0621B1D
:1046C000730B840B950B39F40A2661F0232B242BF2
:1046D000252B21F408950A2609F4A140A6958FEF11
:1046E000811D811D08950E9486230C94F7230E944A
:1046F000E92338F00E94F02320F0952311F00C9468
:10470000E0230C94E62311240C942B240E9408240B
:1047100070F3959FC1F3950F50E0551F629FF00114
:10472000729FBB27F00DB11D639FAA27F00DB11D2D
:10473000AA1F649F6627B00DA11D661F829F2227B6
:10474000B00DA11D621F739FB00DA11D621F839F3D
:10475000A00D611D221F749F3327A00D611D231F13
:10476000849F600D211D822F762F6A2F11249F5761
:1047700050409AF0F1F088234AF0EE0FFF1FBB1F64
:10478000661F771F881F91505040A9F79E3F510523
:1047900080F00C94E0230C942B245F3FE4F3983ECC
:1047A000D4F3869577956795B795F795E7959F5FCD
:1047B000C1F7FE2B880F911D9695879597F908955F
:1047C00097F99F6780E870E060E008959FEF80ECC4
:1047D000089500240A941616170618060906089567
:1047E00000240A9412161306140605060895092ECD
:1047F0000394000C11F4882352F0BB0F40F4BF2B3C
:1048000011F460FF04C06F5F7F4F8F4F9F4F08957B
:1048100057FD9058440F551F59F05F3F71F0479571
:10482000880F97FB991F61F09F3F79F08795089556
:10483000121613061406551FF2CF4695F1DF08C075
:10484000161617061806991FF1CF86957105610592
:1048500008940895E894BB2766277727CB0197F93A
:104860000895F999FECF92BD81BDF89A992780B538
:104870000895262FF999FECF1FBA92BD81BD20BDA4
:104880000FB6F894FA9AF99A0FBE01960895DB01D3
:104890008F939F930E94AC24BF91AF91A29F800DF4
:1048A000911DA39F900DB29F900D11240895AA1BF6
:1048B000BB1B51E107C0AA1FBB1FA617B70710F00B
:1048C000A61BB70B881F991F5A95A9F7809590953D
:1048D000BC01CD010895A1E21A2EAA1BBB1BFD014C
:1048E0000DC0AA1FBB1FEE1FFF1FA217B307E407CF
:1048F000F50720F0A21BB30BE40BF50B661F771F27
:10490000881F991F1A9469F7609570958095909506
:104910009B01AC01BD01CF010895052E97FB1EF44C
:1049200000940E94A42457FD07D00E946B2407FC2A
:1049300003D04EF40C94A4245095409530952195C5
:104940003F4F4F4F5F4F08959095809570956195BB
:104950007F4F8F4F9F4F08950E94EE24A59F900D8B
:10496000B49F900DA49F800D911D112408952F9246
:104970003F924F925F926F927F928F929F92AF92EF
:10498000BF92CF92DF92EF92FF920F931F93CF933C
:10499000DF93CDB7DEB7CA1BDB0B0FB6F894DEBFD3
:1049A0000FBECDBF09942A88398848885F846E84F9
:1049B0007D848C849B84AA84B984C884DF80EE8043
:1049C000FD800C811B81AA81B981CE0FD11D0FB64C
:1049D000F894DEBF0FBECDBFED010895A29FB001D8
:1049E000B39FC001A39F700D811D1124911DB29F23
:1049F000700D811D1124911D08955058BB27AA27C1
:104A00000E9415250C94F7230E94E92338F00E9498
:104A1000F02320F039F49F3F19F426F40C94E62398
:104A20000EF4E095E7FB0C94E023E92F0E940824A4
:104A300058F3BA17620773078407950720F079F4D3
:104A4000A6F50C942A240EF4E0950B2EBA2FA02D77
:104A50000B01B90190010C01CA01A0011124FF272B
:104A6000591B99F0593F50F4503E68F11A16F04026
:104A7000A22F232F342F4427585FF3CF4695379525
:104A80002795A795F0405395C9F77EF41F16BA0BEA
:104A9000620B730B840BBAF09150A1F0FF0FBB1F98
:104AA000661F771F881FC2F70EC0BA0F621F731FE1
:104AB000841F48F4879577956795B795F7959E3F3E
:104AC00008F0B0CF9395880F08F09927EE0F9795CF
:104AD000879508950E947E250C94F7230E94F02369
:104AE00058F00E94E92340F029F45F3F29F00C942C
:104AF000E02351110C942B240C94E6230E940824EB
:104B000068F39923B1F3552391F3951B550BBB27FC
:104B1000AA2762177307840738F09F5F5F4F220F41
:104B2000331F441FAA1FA9F335D00E2E3AF0E0E838
:104B300032D091505040E695001CCAF72BD0FE2F82
:104B400029D0660F771F881FBB1F26173707480716
:104B5000AB07B0E809F0BB0B802DBF01FF279358CE
:104B60005F4F3AF09E3F510578F00C94E0230C948F
:104B70002B245F3FE4F3983ED4F3869577956795B1
:104B8000B795F7959F5FC9F7880F911D9695879503
:104B900097F90895E1E0660F771F881FBB1F621722
:104BA00073078407BA0720F0621B730B840BBA0BE0
:104BB000EE1F88F7E09508950E94E3256894B111EF
:104BC0000C942B2408950E94102488F09F5798F08D
:104BD000B92F9927B751B0F0E1F0660F771F881F02
:104BE000991F1AF0BA95C9F714C0B13091F00E941C
:104BF0002A24B1E008950C942A24672F782F88275F
:104C0000B85F39F0B93FCCF3869577956795B39542
:104C1000D9F73EF490958095709561957F4F8F4FB1
:104C20009F4F08950E944F2308F48FEF0895EE0FD1
:104C3000FF1F0590F491E02D09940F931F93CF93DC
:104C4000DF938230910510F482E090E0E091E3047C
:104C5000F091E40430E020E0B0E0A0E0309799F477
:104C60002115310509F44AC0281B390B24303105C0
:104C7000D8F58A819B816115710589F1FB019383C8
:104C80008283FE0111C04081518102811381481746
:104C90005907E0F04817590799F4109761F01296F8
:104CA0000C93129713961C933296CF01DF91CF91FC
:104CB0001F910F9108950093E3041093E404F4CF3F
:104CC0002115310551F04217530738F0A901DB01D6
:104CD0009A01BD01DF01F801C1CFEF01F9CF909337
:104CE000E4048093E304CDCFFE01E20FF31F819330
:104CF00091932250310939832883D7CF2091E10441
:104D00003091E204232B41F42091250130912601BA
:104D10003093E2042093E104209123013091240197
:104D20002115310541F42DB73EB74091270150912F
:104D30002801241B350BE091E104F091E204E21715
:104D4000F307A0F42E1B3F0B2817390778F0AC01AE
:104D50004E5F5F4F2417350748F04E0F5F1F50938B
:104D6000E2044093E104819391939FCFF0E0E0E06F
:104D70009CCFCF93DF930097E9F0FC013297138229
:104D80001282A091E304B091E404ED0130E020E050
:104D90001097A1F420813181820F931F2091E104AB
:104DA0003091E2042817390709F061C0F093E2045A
:104DB000E093E104DF91CF910895EA01CE17DF0778
:104DC000E8F54A815B819E0141155105B1F7E90182
:104DD000FB83EA8349915991C40FD51FEC17FD0756
:104DE00061F4808191810296840F951FE901998376
:104DF0008883828193819B838A83F0E0E0E012962E
:104E00008D919C9113970097B9F52D913C91119735
:104E1000CD010296820F931F2091E1043091E204AC
:104E20002817390739F6309751F51092E40410929B
:104E3000E304B093E204A093E104BCCFD383C28324
:104E400040815181840F951FC817D90761F44E5FC7
:104E50005F4F88819981480F591F518340838A8110
:104E60009B81938382832115310509F0B0CFF093A4
:104E7000E404E093E3049ECFFD01DC01C0CF138284
:104E80001282D7CFB0E0A0E0E8E4F7E20C94B924B6
:104E90008C01009751F4CB010E941D268C01C801A2
:104EA000CDB7DEB7E0E10C94D524FC01E60FF71F87
:104EB0009C0122503109E217F30708F49DC0D90183
:104EC000CD91DC911197C617D70798F0C530D10561
:104ED00030F3CE0104978617970708F3C61BD70B4C
:104EE0002297C193D1936D937C93CF010E94B926F1
:104EF000D6CF5B01AC1ABD0A4C018C0E9D1EA09151
:104F0000E304B091E404512C412CF12CE12C1097D6
:104F100031F58091E1049091E2048815990509F03A
:104F20005CC04616570608F058C080912301909146
:104F30002401009741F48DB79EB74091270150910D
:104F40002801841B950BE817F90708F055C0F0936A
:104F5000E204E093E104F90171836083A0CF8D91B5
:104F60009C91119712966C90129713967C901397C0
:104F7000A815B90559F56C0142E0C40ED11CCA143C
:104F8000DB0420F1AC014A195B09DA01129615978E
:104F900080F06282738251834083D9016D937C9348
:104FA000E114F10471F0D7011396FC93EE9312977C
:104FB00076CF22968C0F9D1FF90191838083F30198
:104FC000EFCFF093E404E093E30469CF4816590669
:104FD00008F42C017D01D3019ACFCB010E941D263C
:104FE0007C01009749F0AE01B8010E940728C80172
:104FF0000E94B926870153CF10E000E050CF9111F5
:10500000089581568A5108F4805285580895FB010D
:10501000DC0102C001900D9241505040D8F7089534
:10502000FB01DC0101900D920020E1F70895F89456
:02503000FFCFB0
:1050320000C18081000000FFFFFFFF00E1000000CF
:105042000000000214050201FFFF01FFFF64201CA3
:105052006414050000E504800000000000810F3C9C
:10506200091C0CD20B010164050464050000000058
:1050720024080E0845083A088C084A086808000007
:105082000000C30A0D0A000A436F6D70696C656403
:105092002061743A2046656220323920323032343F
:1050A2002C2031343A31323A3438005374617274FC
:1050B200696E672E2E2E0A0D0053656E64696E6747
:1050C20020696E697469616C20616C6C2D676F6F09
:1050D20064207265706F72742E206952656D616909
:1050E2006E696E673A20002C2053746174757320C8
:1050F200426974733A20307800456E61626C6520B3
:105102005043205265706F7274696E672F536875D1
:1051120074646F776E004552524F523A2042616476
:1051220020422028426174746572792920636F6D70
:105132006D616E643A200042617474657279204632
:10514200756C6C2043686172676520560042617419
:105152007465727920456D7074792056004D696EC0
:105162007574657320746F2066756C6C7920636842
:10517200617267652066726F6D2064656164004DBF
:10518200696E7574657320746F2066756C6C792016
:105192006469736368617267652066726F6D206609
:1051A200756C6C004552524F523A20426164205451
:1051B200696D6520636F6D6D616E643A2000562AD9
:1051C200313030206F66206C6F7720766F6C74619F
:1051D200676500562A313030206F6620686967683B
:1051E200657220766F6C74616765004465627567ED
:1051F20020466C6167732028313A4D61696E29003F
:105202005D2E004820666F722048656C700A000AA5
:10521200436D643A200073687574646F776E207210
:1052220065717565737465640073687574646F770E
:105232006E20696D6D696E656E74002C20546F204E
:10524200456D707479206D6D3A737320003A002CAD
:1052520020436F6D6D207769746820504320286E5B
:10526200656761746976653D626164293A20002C44
:0E5272002000426174562A3130303A2000008C
:00000001FF
